{
  "contractName": "MekaDeployer",
  "abi": [
    {
      "inputs": [
        {
          "internalType": "address",
          "name": "meka",
          "type": "address"
        },
        {
          "internalType": "address",
          "name": "robotCore",
          "type": "address"
        },
        {
          "internalType": "address",
          "name": "pieceCore",
          "type": "address"
        }
      ],
      "stateMutability": "nonpayable",
      "type": "constructor"
    },
    {
      "anonymous": false,
      "inputs": [
        {
          "indexed": false,
          "internalType": "address",
          "name": "_receiver",
          "type": "address"
        },
        {
          "indexed": false,
          "internalType": "uint256",
          "name": "amount",
          "type": "uint256"
        }
      ],
      "name": "BuyMeka",
      "type": "event"
    },
    {
      "anonymous": false,
      "inputs": [
        {
          "indexed": false,
          "internalType": "address",
          "name": "_receiver",
          "type": "address"
        },
        {
          "indexed": false,
          "internalType": "uint256",
          "name": "amount",
          "type": "uint256"
        }
      ],
      "name": "BuyOres",
      "type": "event"
    },
    {
      "anonymous": false,
      "inputs": [
        {
          "indexed": true,
          "internalType": "address",
          "name": "previousOwner",
          "type": "address"
        },
        {
          "indexed": true,
          "internalType": "address",
          "name": "newOwner",
          "type": "address"
        }
      ],
      "name": "OwnershipTransferred",
      "type": "event"
    },
    {
      "inputs": [],
      "name": "isOwner",
      "outputs": [
        {
          "internalType": "bool",
          "name": "",
          "type": "bool"
        }
      ],
      "stateMutability": "view",
      "type": "function",
      "constant": true
    },
    {
      "inputs": [],
      "name": "owner",
      "outputs": [
        {
          "internalType": "address",
          "name": "",
          "type": "address"
        }
      ],
      "stateMutability": "view",
      "type": "function",
      "constant": true
    },
    {
      "inputs": [],
      "name": "renounceOwnership",
      "outputs": [],
      "stateMutability": "nonpayable",
      "type": "function"
    },
    {
      "inputs": [
        {
          "internalType": "address",
          "name": "newOwner",
          "type": "address"
        }
      ],
      "name": "transferOwnership",
      "outputs": [],
      "stateMutability": "nonpayable",
      "type": "function"
    },
    {
      "inputs": [
        {
          "internalType": "address",
          "name": "meka",
          "type": "address"
        }
      ],
      "name": "setMekaMinersAddress",
      "outputs": [],
      "stateMutability": "nonpayable",
      "type": "function"
    },
    {
      "inputs": [
        {
          "internalType": "address",
          "name": "admin",
          "type": "address"
        }
      ],
      "name": "setAdminAddress",
      "outputs": [],
      "stateMutability": "nonpayable",
      "type": "function"
    },
    {
      "inputs": [
        {
          "internalType": "uint256",
          "name": "amount",
          "type": "uint256"
        }
      ],
      "name": "setMekaConversionRate",
      "outputs": [],
      "stateMutability": "nonpayable",
      "type": "function"
    },
    {
      "inputs": [
        {
          "internalType": "address",
          "name": "_receiver",
          "type": "address"
        },
        {
          "internalType": "uint256",
          "name": "_amount",
          "type": "uint256"
        },
        {
          "internalType": "uint256",
          "name": "_nonce",
          "type": "uint256"
        },
        {
          "internalType": "bytes",
          "name": "_signature",
          "type": "bytes"
        }
      ],
      "name": "convertToMeka",
      "outputs": [],
      "stateMutability": "nonpayable",
      "type": "function"
    },
    {
      "inputs": [
        {
          "internalType": "uint256",
          "name": "_amount",
          "type": "uint256"
        },
        {
          "internalType": "uint256",
          "name": "_nonce",
          "type": "uint256"
        },
        {
          "internalType": "bytes",
          "name": "_signature",
          "type": "bytes"
        }
      ],
      "name": "convertFromMeka",
      "outputs": [],
      "stateMutability": "nonpayable",
      "type": "function"
    },
    {
      "inputs": [
        {
          "internalType": "address",
          "name": "_owner",
          "type": "address"
        },
        {
          "internalType": "uint256",
          "name": "_robotId",
          "type": "uint256"
        },
        {
          "internalType": "uint256",
          "name": "_pieceId",
          "type": "uint256"
        },
        {
          "internalType": "uint256",
          "name": "_amount",
          "type": "uint256"
        },
        {
          "internalType": "uint256",
          "name": "_nonce",
          "type": "uint256"
        },
        {
          "internalType": "bytes",
          "name": "_signature",
          "type": "bytes"
        }
      ],
      "name": "attachToRobot",
      "outputs": [],
      "stateMutability": "nonpayable",
      "type": "function"
    },
    {
      "inputs": [
        {
          "internalType": "uint256",
          "name": "_amount",
          "type": "uint256"
        },
        {
          "internalType": "uint256",
          "name": "_nonce",
          "type": "uint256"
        },
        {
          "internalType": "string",
          "name": "_tokenURI",
          "type": "string"
        },
        {
          "internalType": "bytes",
          "name": "_signature",
          "type": "bytes"
        }
      ],
      "name": "createRobot",
      "outputs": [],
      "stateMutability": "nonpayable",
      "type": "function"
    },
    {
      "inputs": [
        {
          "internalType": "uint256",
          "name": "_amount",
          "type": "uint256"
        },
        {
          "internalType": "uint256",
          "name": "_appearenceId",
          "type": "uint256"
        },
        {
          "internalType": "uint256",
          "name": "_nonce",
          "type": "uint256"
        },
        {
          "internalType": "string",
          "name": "_tokenURI",
          "type": "string"
        },
        {
          "internalType": "bytes",
          "name": "_signature",
          "type": "bytes"
        }
      ],
      "name": "createPiece",
      "outputs": [],
      "stateMutability": "nonpayable",
      "type": "function"
    },
    {
      "inputs": [
        {
          "internalType": "address",
          "name": "_to",
          "type": "address"
        },
        {
          "internalType": "uint256",
          "name": "_amount",
          "type": "uint256"
        },
        {
          "internalType": "uint256",
          "name": "_nonce",
          "type": "uint256"
        }
      ],
      "name": "getMessageHash",
      "outputs": [
        {
          "internalType": "bytes32",
          "name": "",
          "type": "bytes32"
        }
      ],
      "stateMutability": "pure",
      "type": "function",
      "constant": true
    },
    {
      "inputs": [
        {
          "internalType": "bytes32",
          "name": "_messageHash",
          "type": "bytes32"
        }
      ],
      "name": "getEthSignedMessageHash",
      "outputs": [
        {
          "internalType": "bytes32",
          "name": "",
          "type": "bytes32"
        }
      ],
      "stateMutability": "pure",
      "type": "function",
      "constant": true
    },
    {
      "inputs": [
        {
          "internalType": "address",
          "name": "_to",
          "type": "address"
        },
        {
          "internalType": "uint256",
          "name": "_amount",
          "type": "uint256"
        },
        {
          "internalType": "uint256",
          "name": "_nonce",
          "type": "uint256"
        },
        {
          "internalType": "bytes",
          "name": "_signature",
          "type": "bytes"
        }
      ],
      "name": "verify",
      "outputs": [
        {
          "internalType": "bool",
          "name": "",
          "type": "bool"
        }
      ],
      "stateMutability": "view",
      "type": "function",
      "constant": true
    },
    {
      "inputs": [
        {
          "internalType": "bytes32",
          "name": "_ethSignedMessageHash",
          "type": "bytes32"
        },
        {
          "internalType": "bytes",
          "name": "_signature",
          "type": "bytes"
        }
      ],
      "name": "recoverSigner",
      "outputs": [
        {
          "internalType": "address",
          "name": "",
          "type": "address"
        }
      ],
      "stateMutability": "pure",
      "type": "function",
      "constant": true
    },
    {
      "inputs": [
        {
          "internalType": "bytes",
          "name": "sig",
          "type": "bytes"
        }
      ],
      "name": "splitSignature",
      "outputs": [
        {
          "internalType": "bytes32",
          "name": "r",
          "type": "bytes32"
        },
        {
          "internalType": "bytes32",
          "name": "s",
          "type": "bytes32"
        },
        {
          "internalType": "uint8",
          "name": "v",
          "type": "uint8"
        }
      ],
      "stateMutability": "pure",
      "type": "function",
      "constant": true
    }
  ],
  "bytecode": "0x608060405234801561001057600080fd5b50604051620013873803806200138783398101604081905261003191610108565b600080546001600160a01b031916339081178255604051909182917f8be0079c531659141344cd1fd0a4f28419497f9722a3daafe3b4186f6b6457e0908290a350600180546001600160a01b0319166001600160a01b03851617905561009f6000546001600160a01b031690565b600280546001600160a01b03199081166001600160a01b03938416179091556003805482169483169490941790935560048054909316911617905550678ac7230489e8000060055561014b565b80516001600160a01b038116811461010357600080fd5b919050565b60008060006060848603121561011d57600080fd5b610126846100ec565b9250610134602085016100ec565b9150610142604085016100ec565b90509250925092565b61122c806200015b6000396000f3fe608060405234801561001057600080fd5b506004361061010b5760003560e01c8063715018a6116100a2578063a7bb580311610071578063a7bb580314610212578063bed1a3c714610243578063d2b0737b14610256578063f2fde38b14610277578063fa5408011461028a57600080fd5b8063715018a6146101bf5780638da5cb5b146101c75780638f32d59b146101ec57806397aba7f9146101ff57600080fd5b8063390dc643116100de578063390dc643146101735780634268774614610186578063604bd504146101995780636629f075146101ac57600080fd5b806302882fc3146101105780630deea608146101255780632c1e816d1461014d578063388126d914610160575b600080fd5b61012361011e366004610d98565b61029d565b005b610138610133366004610e0b565b61042a565b60405190151581526020015b60405180910390f35b61012361015b366004610e6c565b610473565b61012361016e366004610e8e565b6104bf565b610123610181366004610ea7565b610501565b610123610194366004610e6c565b6105d7565b6101236101a7366004610f28565b610623565b6101236101ba366004610e0b565b6106f5565b61012361082e565b6000546001600160a01b03165b6040516001600160a01b039091168152602001610144565b6000546001600160a01b03163314610138565b6101d461020d366004610f93565b6108a2565b610225610220366004610fda565b610921565b60408051938452602084019290925260ff1690820152606001610144565b610123610251366004611017565b610995565b610269610264366004611067565b610b41565b604051908152602001610144565b610123610285366004610e6c565b610b90565b610269610298366004610e8e565b610bc6565b336102a757600080fd5b846102eb5760405162461bcd60e51b815260206004820152600f60248201526e1a5b9d985b1a59081c9bd89bdd1259608a1b60448201526064015b60405180910390fd5b6102f78684848461042a565b6103135760405162461bcd60e51b81526004016102e29061109a565b60008281526007602052604090205460ff161561032f57600080fd5b60008281526007602052604090819020805460ff19166001179055600480549151630f6f2b3760e31b81526001600160a01b0390921691637b7959b89161037c9188910190815260200190565b600060405180830381600087803b15801561039657600080fd5b505af11580156103aa573d6000803e3d6000fd5b505060035460405163a7683cb960e01b81526001600160a01b038a81166004830152602482018a90526044820189905260648201889052909116925063a7683cb99150608401600060405180830381600087803b15801561040a57600080fd5b505af115801561041e573d6000803e3d6000fd5b50505050505050505050565b600080610438868686610b41565b9050600061044582610bc6565b6002549091506001600160a01b031661045e82866108a2565b6001600160a01b031614979650505050505050565b6000546001600160a01b0316331461049d5760405162461bcd60e51b81526004016102e2906110be565b600280546001600160a01b0319166001600160a01b0392909216919091179055565b6000546001600160a01b031633146104e95760405162461bcd60e51b81526004016102e2906110be565b6104fb81670de0b6b3a76400006110f3565b60055550565b3361050b57600080fd5b6105173386858461042a565b6105335760405162461bcd60e51b81526004016102e29061109a565b60008381526006602052604090205460ff161561054f57600080fd5b60008381526006602052604090819020805460ff191660011790556004805491516344dc9ec360e11b81526001600160a01b03909216916389b93d869161059e9133918a918a9189910161116d565b600060405180830381600087803b1580156105b857600080fd5b505af11580156105cc573d6000803e3d6000fd5b505050505050505050565b6000546001600160a01b031633146106015760405162461bcd60e51b81526004016102e2906110be565b600180546001600160a01b0319166001600160a01b0392909216919091179055565b3361062d57600080fd5b6106393385858461042a565b6106555760405162461bcd60e51b81526004016102e29061109a565b60008381526006602052604090205460ff161561067157600080fd5b60008381526006602052604090819020805460ff191660011790556003549051621dbd0b60e21b81526001600160a01b03909116906276f42c906106bd903390889087906004016111a4565b600060405180830381600087803b1580156106d757600080fd5b505af11580156106eb573d6000803e3d6000fd5b5050505050505050565b6001600160a01b03841661070857600080fd5b6107148484848461042a565b6107305760405162461bcd60e51b81526004016102e29061109a565b60008281526006602052604090205460ff161561074c57600080fd5b60015460405163a9059cbb60e01b81526001600160a01b038681166004830152602482018690529091169063a9059cbb906044016020604051808303816000875af115801561079f573d6000803e3d6000fd5b505050506040513d601f19601f820116820180604052508101906107c391906111d4565b6107cc57600080fd5b600082815260066020908152604091829020805460ff1916600117905581516001600160a01b03871681529081018590527f2bd4e3ec7c24c980b0454c0e6b8fcb34e5184b570a8ab9bc69ae47d80d8570a5910160405180910390a150505050565b6000546001600160a01b031633146108585760405162461bcd60e51b81526004016102e2906110be565b600080546040516001600160a01b03909116907f8be0079c531659141344cd1fd0a4f28419497f9722a3daafe3b4186f6b6457e0908390a3600080546001600160a01b0319169055565b6000806000806108b185610921565b6040805160008152602081018083528b905260ff8316918101919091526060810184905260808101839052929550909350915060019060a0016020604051602081039080840390855afa15801561090c573d6000803e3d6000fd5b5050604051601f190151979650505050505050565b600080600083516041146109775760405162461bcd60e51b815260206004820152601860248201527f696e76616c6964207369676e6174757265206c656e677468000000000000000060448201526064016102e2565b50505060208101516040820151606090920151909260009190911a90565b3361099f57600080fd5b6005548310156109e85760405162461bcd60e51b81526020600482015260146024820152736c6f776572207468616e206e656365737361727960601b60448201526064016102e2565b6109f43384848461042a565b610a105760405162461bcd60e51b81526004016102e29061109a565b60008281526006602052604090205460ff1615610a2c57600080fd5b6001546040516323b872dd60e01b8152336004820152306024820152604481018590526001600160a01b03909116906323b872dd906064016020604051808303816000875af1158015610a83573d6000803e3d6000fd5b505050506040513d601f19601f82011682018060405250810190610aa791906111d4565b610ae95760405162461bcd60e51b8152602060048201526013602482015272696e737566696369656e742062616c616e636560681b60448201526064016102e2565b600082815260066020908152604091829020805460ff1916600117905581513381529081018590527f1bc3c5efd49dd4a48b22ea5133c42eed0284f9d141fd7168c078b70d22421f6f910160405180910390a1505050565b6040516bffffffffffffffffffffffff19606085901b16602082015260348101839052605481018290526000906074016040516020818303038152906040528051906020012090509392505050565b6000546001600160a01b03163314610bba5760405162461bcd60e51b81526004016102e2906110be565b610bc381610c19565b50565b6040517f19457468657265756d205369676e6564204d6573736167653a0a3332000000006020820152603c8101829052600090605c01604051602081830303815290604052805190602001209050919050565b6001600160a01b038116610c7e5760405162461bcd60e51b815260206004820152602660248201527f4f776e61626c653a206e6577206f776e657220697320746865207a65726f206160448201526564647265737360d01b60648201526084016102e2565b600080546040516001600160a01b03808516939216917f8be0079c531659141344cd1fd0a4f28419497f9722a3daafe3b4186f6b6457e091a3600080546001600160a01b0319166001600160a01b0392909216919091179055565b80356001600160a01b0381168114610cf057600080fd5b919050565b634e487b7160e01b600052604160045260246000fd5b600082601f830112610d1c57600080fd5b813567ffffffffffffffff80821115610d3757610d37610cf5565b604051601f8301601f19908116603f01168101908282118183101715610d5f57610d5f610cf5565b81604052838152866020858801011115610d7857600080fd5b836020870160208301376000602085830101528094505050505092915050565b60008060008060008060c08789031215610db157600080fd5b610dba87610cd9565b95506020870135945060408701359350606087013592506080870135915060a087013567ffffffffffffffff811115610df257600080fd5b610dfe89828a01610d0b565b9150509295509295509295565b60008060008060808587031215610e2157600080fd5b610e2a85610cd9565b93506020850135925060408501359150606085013567ffffffffffffffff811115610e5457600080fd5b610e6087828801610d0b565b91505092959194509250565b600060208284031215610e7e57600080fd5b610e8782610cd9565b9392505050565b600060208284031215610ea057600080fd5b5035919050565b600080600080600060a08688031215610ebf57600080fd5b853594506020860135935060408601359250606086013567ffffffffffffffff80821115610eec57600080fd5b610ef889838a01610d0b565b93506080880135915080821115610f0e57600080fd5b50610f1b88828901610d0b565b9150509295509295909350565b60008060008060808587031215610f3e57600080fd5b8435935060208501359250604085013567ffffffffffffffff80821115610f6457600080fd5b610f7088838901610d0b565b93506060870135915080821115610f8657600080fd5b50610e6087828801610d0b565b60008060408385031215610fa657600080fd5b82359150602083013567ffffffffffffffff811115610fc457600080fd5b610fd085828601610d0b565b9150509250929050565b600060208284031215610fec57600080fd5b813567ffffffffffffffff81111561100357600080fd5b61100f84828501610d0b565b949350505050565b60008060006060848603121561102c57600080fd5b8335925060208401359150604084013567ffffffffffffffff81111561105157600080fd5b61105d86828701610d0b565b9150509250925092565b60008060006060848603121561107c57600080fd5b61108584610cd9565b95602085013595506040909401359392505050565b6020808252600a90820152691b9bdd081cda59db995960b21b604082015260600190565b6020808252818101527f4f776e61626c653a2063616c6c6572206973206e6f7420746865206f776e6572604082015260600190565b600081600019048311821515161561111b57634e487b7160e01b600052601160045260246000fd5b500290565b6000815180845260005b818110156111465760208185018101518683018201520161112a565b81811115611158576000602083870101525b50601f01601f19169290920160200192915050565b60018060a01b038516815283602082015282604082015260806060820152600061119a6080830184611120565b9695505050505050565b60018060a01b03841681528260208201526060604082015260006111cb6060830184611120565b95945050505050565b6000602082840312156111e657600080fd5b81518015158114610e8757600080fdfea2646970667358221220b520a8702d8bded5335968ca491851d532a6b440419669055c41aaeb522ce62e64736f6c634300080a0033",
  "immutableReferences": {},
  "source": "// SPDX-License-Identifier: MIT\r\npragma solidity ^0.8.2;\r\n\r\nimport \"./Ownable.sol\";\r\nimport \"./SafeMath.sol\";\r\nimport \"./IBEP20.sol\";\r\nimport \"./IRobotCore.sol\";\r\nimport \"./IPieceCore.sol\";\r\n\r\ncontract MekaDeployer is Ownable {\r\n       using SafeMath for uint256;\r\n\r\n    address _mekaAddress;\r\n    address _adminAddress;\r\n    address _robotCoreAddress;\r\n    address _pieceCoreAddress;\r\n    uint256 _minConversion;\r\n    mapping(uint256 => bool) usedNonces;\r\n    mapping(uint256 => bool) usedAttachNonces;\r\n    event BuyMeka(address _receiver, uint256 amount);\r\n    event BuyOres(address _receiver, uint256 amount);\r\n\r\n    constructor (address meka, address robotCore, address pieceCore){\r\n        _mekaAddress = meka;\r\n        _adminAddress = owner();\r\n        _robotCoreAddress = robotCore;\r\n        _pieceCoreAddress = pieceCore;\r\n        _minConversion = 10 * 10 ** 18;\r\n    }\r\n\r\n    function setMekaMinersAddress(address meka) external onlyOwner {\r\n        _mekaAddress = meka;\r\n    }\r\n\r\n    function setAdminAddress(address admin) external onlyOwner {\r\n        _adminAddress = admin;\r\n    }\r\n\r\n    function setMekaConversionRate(uint256 amount) external onlyOwner {\r\n        _minConversion = amount * 10 ** 18;\r\n    }\r\n\r\n    function convertToMeka(address _receiver, uint256 _amount, uint _nonce, bytes memory _signature) external {\r\n        require(_receiver != address(0)); \r\n        require(verify(_receiver, _amount, _nonce, _signature), \"not signed\");\r\n        require(!usedNonces[_nonce]);\r\n        require(IBEP20(_mekaAddress).transfer(_receiver, _amount));\r\n        usedNonces[_nonce] = true;\r\n        \r\n        emit BuyMeka(_receiver, _amount);\r\n    }\r\n     \r\n    function convertFromMeka(uint256 _amount, uint _nonce, bytes memory _signature) external {\r\n        require(msg.sender != address(0)); \r\n        require(_amount >= _minConversion, \"lower than necessary\"); \r\n        require(verify(msg.sender, _amount, _nonce, _signature), \"not signed\");\r\n        require(!usedNonces[_nonce]);\r\n        require(IBEP20(_mekaAddress).transferFrom(msg.sender, address(this), _amount), \"insuficient balance\");\r\n        usedNonces[_nonce] = true;\r\n        \r\n        emit BuyOres(msg.sender, _amount);\r\n    }    \r\n    \r\n    function attachToRobot(address _owner, uint256 _robotId, uint256 _pieceId, uint256 _amount, uint _nonce ,bytes memory _signature) external {\r\n        require(msg.sender != address(0)); \r\n        require(_robotId != 0, \"invalid robotId\");\r\n        require(verify(_owner, _amount, _nonce, _signature), \"not signed\");\r\n        require(!usedAttachNonces[_nonce]);\r\n        \r\n        usedAttachNonces[_nonce] = true;\r\n        IPieceCore(_pieceCoreAddress).burnPiece(_pieceId);\r\n        IRobotCore(_robotCoreAddress).attachPiece(_owner, _robotId, _pieceId, _amount);\r\n    }\r\n\r\n    function createRobot(uint256 _amount, uint _nonce, string memory _tokenURI ,bytes memory _signature) external {\r\n        require(msg.sender != address(0)); \r\n        require(verify(msg.sender, _amount, _nonce, _signature), \"not signed\");\r\n        require(!usedNonces[_nonce]);\r\n        \r\n        usedNonces[_nonce] = true;\r\n        IRobotCore(_robotCoreAddress).createRobot(msg.sender, _amount, _tokenURI);\r\n    }\r\n\r\n    function createPiece(uint256 _amount, uint256 _appearenceId, uint _nonce, string memory _tokenURI ,bytes memory _signature) external {\r\n        require(msg.sender != address(0)); \r\n        require(verify(msg.sender, _amount, _nonce, _signature), \"not signed\");\r\n        require(!usedNonces[_nonce]);\r\n        \r\n        usedNonces[_nonce] = true;\r\n        IPieceCore(_pieceCoreAddress).createPiece(msg.sender, _amount, _appearenceId, _tokenURI);\r\n    }\r\n\r\n    function getMessageHash(\r\n        address _to,\r\n        uint _amount,\r\n        uint _nonce\r\n    ) public pure returns (bytes32) {\r\n        return keccak256(abi.encodePacked(_to, _amount, _nonce));\r\n    }\r\n\r\n    function getEthSignedMessageHash(bytes32 _messageHash)\r\n        public\r\n        pure\r\n        returns (bytes32)\r\n    {\r\n        return\r\n            keccak256(\r\n                abi.encodePacked(\"\\x19Ethereum Signed Message:\\n32\", _messageHash)\r\n            );\r\n    }\r\n\r\n    function verify(\r\n        address _to,\r\n        uint _amount,\r\n        uint _nonce,\r\n        bytes memory _signature\r\n    ) public view returns (bool) {\r\n        bytes32 messageHash = getMessageHash(_to, _amount, _nonce);\r\n        bytes32 ethSignedMessageHash = getEthSignedMessageHash(messageHash);\r\n\r\n        return recoverSigner(ethSignedMessageHash, _signature) == _adminAddress;\r\n    }\r\n\r\n    function recoverSigner(bytes32 _ethSignedMessageHash, bytes memory _signature)\r\n        public\r\n        pure\r\n        returns (address)\r\n    {\r\n        (bytes32 r, bytes32 s, uint8 v) = splitSignature(_signature);\r\n\r\n        return ecrecover(_ethSignedMessageHash, v, r, s);\r\n    }\r\n\r\n    function splitSignature(bytes memory sig)\r\n        public\r\n        pure\r\n        returns (\r\n            bytes32 r,\r\n            bytes32 s,\r\n            uint8 v\r\n        )\r\n    {\r\n        require(sig.length == 65, \"invalid signature length\");\r\n\r\n        assembly {\r\n            r := mload(add(sig, 32))\r\n            s := mload(add(sig, 64))\r\n            v := byte(0, mload(add(sig, 96)))\r\n        }\r\n    }\r\n}",
  "sourcePath": "E:\\MekaMiners\\contracts\\MekaDeployer.sol",
  "compiler": {
    "name": "solc",
    "version": "0.8.10+commit.fc410830.Emscripten.clang"
  },
  "schemaVersion": "3.4.3",
  "updatedAt": "2021-11-14T21:16:25.787Z",
  "networkType": "ethereum",
  "devdoc": {
    "kind": "dev",
    "methods": {
      "isOwner()": {
        "details": "Returns true if the caller is the current owner."
      },
      "owner()": {
        "details": "Returns the address of the current owner."
      },
      "renounceOwnership()": {
        "details": "Leaves the contract without owner. It will not be possible to call `onlyOwner` functions anymore. Can only be called by the current owner. NOTE: Renouncing ownership will leave the contract without an owner, thereby removing any functionality that is only available to the owner."
      },
      "transferOwnership(address)": {
        "details": "Transfers ownership of the contract to a new account (`newOwner`). Can only be called by the current owner."
      }
    },
    "version": 1
  },
  "userdoc": {
    "kind": "user",
    "methods": {},
    "version": 1
  }
}