{
  "contractName": "MekaMiners",
  "abi": [
    {
      "inputs": [],
      "stateMutability": "nonpayable",
      "type": "constructor"
    },
    {
      "anonymous": false,
      "inputs": [
        {
          "indexed": true,
          "internalType": "address",
          "name": "owner",
          "type": "address"
        },
        {
          "indexed": true,
          "internalType": "address",
          "name": "spender",
          "type": "address"
        },
        {
          "indexed": false,
          "internalType": "uint256",
          "name": "value",
          "type": "uint256"
        }
      ],
      "name": "Approval",
      "type": "event"
    },
    {
      "anonymous": false,
      "inputs": [
        {
          "indexed": true,
          "internalType": "address",
          "name": "previousOwner",
          "type": "address"
        },
        {
          "indexed": true,
          "internalType": "address",
          "name": "newOwner",
          "type": "address"
        }
      ],
      "name": "OwnershipTransferred",
      "type": "event"
    },
    {
      "anonymous": false,
      "inputs": [],
      "name": "Pause",
      "type": "event"
    },
    {
      "anonymous": false,
      "inputs": [
        {
          "indexed": true,
          "internalType": "address",
          "name": "from",
          "type": "address"
        },
        {
          "indexed": true,
          "internalType": "address",
          "name": "to",
          "type": "address"
        },
        {
          "indexed": false,
          "internalType": "uint256",
          "name": "value",
          "type": "uint256"
        }
      ],
      "name": "Transfer",
      "type": "event"
    },
    {
      "anonymous": false,
      "inputs": [],
      "name": "Unpause",
      "type": "event"
    },
    {
      "inputs": [],
      "name": "_pause",
      "outputs": [
        {
          "internalType": "bool",
          "name": "",
          "type": "bool"
        }
      ],
      "stateMutability": "nonpayable",
      "type": "function"
    },
    {
      "inputs": [],
      "name": "_unpause",
      "outputs": [
        {
          "internalType": "bool",
          "name": "",
          "type": "bool"
        }
      ],
      "stateMutability": "nonpayable",
      "type": "function"
    },
    {
      "inputs": [
        {
          "internalType": "address",
          "name": "owner",
          "type": "address"
        },
        {
          "internalType": "address",
          "name": "spender",
          "type": "address"
        }
      ],
      "name": "allowance",
      "outputs": [
        {
          "internalType": "uint256",
          "name": "",
          "type": "uint256"
        }
      ],
      "stateMutability": "view",
      "type": "function",
      "constant": true
    },
    {
      "inputs": [
        {
          "internalType": "address",
          "name": "spender",
          "type": "address"
        },
        {
          "internalType": "uint256",
          "name": "amount",
          "type": "uint256"
        }
      ],
      "name": "approve",
      "outputs": [
        {
          "internalType": "bool",
          "name": "",
          "type": "bool"
        }
      ],
      "stateMutability": "nonpayable",
      "type": "function"
    },
    {
      "inputs": [
        {
          "internalType": "address",
          "name": "account",
          "type": "address"
        }
      ],
      "name": "balanceOf",
      "outputs": [
        {
          "internalType": "uint256",
          "name": "",
          "type": "uint256"
        }
      ],
      "stateMutability": "view",
      "type": "function",
      "constant": true
    },
    {
      "inputs": [],
      "name": "decimals",
      "outputs": [
        {
          "internalType": "uint8",
          "name": "",
          "type": "uint8"
        }
      ],
      "stateMutability": "view",
      "type": "function",
      "constant": true
    },
    {
      "inputs": [
        {
          "internalType": "address",
          "name": "spender",
          "type": "address"
        },
        {
          "internalType": "uint256",
          "name": "subtractedValue",
          "type": "uint256"
        }
      ],
      "name": "decreaseAllowance",
      "outputs": [
        {
          "internalType": "bool",
          "name": "",
          "type": "bool"
        }
      ],
      "stateMutability": "nonpayable",
      "type": "function"
    },
    {
      "inputs": [
        {
          "internalType": "address",
          "name": "spender",
          "type": "address"
        },
        {
          "internalType": "uint256",
          "name": "addedValue",
          "type": "uint256"
        }
      ],
      "name": "increaseAllowance",
      "outputs": [
        {
          "internalType": "bool",
          "name": "",
          "type": "bool"
        }
      ],
      "stateMutability": "nonpayable",
      "type": "function"
    },
    {
      "inputs": [],
      "name": "isOwner",
      "outputs": [
        {
          "internalType": "bool",
          "name": "",
          "type": "bool"
        }
      ],
      "stateMutability": "view",
      "type": "function",
      "constant": true
    },
    {
      "inputs": [],
      "name": "name",
      "outputs": [
        {
          "internalType": "string",
          "name": "",
          "type": "string"
        }
      ],
      "stateMutability": "view",
      "type": "function",
      "constant": true
    },
    {
      "inputs": [],
      "name": "owner",
      "outputs": [
        {
          "internalType": "address",
          "name": "",
          "type": "address"
        }
      ],
      "stateMutability": "view",
      "type": "function",
      "constant": true
    },
    {
      "inputs": [],
      "name": "paused",
      "outputs": [
        {
          "internalType": "bool",
          "name": "",
          "type": "bool"
        }
      ],
      "stateMutability": "view",
      "type": "function",
      "constant": true
    },
    {
      "inputs": [],
      "name": "renounceOwnership",
      "outputs": [],
      "stateMutability": "nonpayable",
      "type": "function"
    },
    {
      "inputs": [],
      "name": "symbol",
      "outputs": [
        {
          "internalType": "string",
          "name": "",
          "type": "string"
        }
      ],
      "stateMutability": "view",
      "type": "function",
      "constant": true
    },
    {
      "inputs": [],
      "name": "totalSupply",
      "outputs": [
        {
          "internalType": "uint256",
          "name": "",
          "type": "uint256"
        }
      ],
      "stateMutability": "view",
      "type": "function",
      "constant": true
    },
    {
      "inputs": [
        {
          "internalType": "address",
          "name": "newOwner",
          "type": "address"
        }
      ],
      "name": "transferOwnership",
      "outputs": [],
      "stateMutability": "nonpayable",
      "type": "function"
    },
    {
      "inputs": [
        {
          "internalType": "address",
          "name": "addr",
          "type": "address"
        }
      ],
      "name": "isBlacklisted",
      "outputs": [
        {
          "internalType": "bool",
          "name": "",
          "type": "bool"
        }
      ],
      "stateMutability": "view",
      "type": "function",
      "constant": true
    },
    {
      "inputs": [
        {
          "internalType": "address[]",
          "name": "addr",
          "type": "address[]"
        }
      ],
      "name": "bulkBlackList",
      "outputs": [],
      "stateMutability": "nonpayable",
      "type": "function"
    },
    {
      "inputs": [
        {
          "internalType": "address",
          "name": "addr",
          "type": "address"
        },
        {
          "internalType": "bool",
          "name": "blacklisted",
          "type": "bool"
        }
      ],
      "name": "updateBlackList",
      "outputs": [],
      "stateMutability": "nonpayable",
      "type": "function"
    },
    {
      "inputs": [
        {
          "internalType": "address",
          "name": "_receiver",
          "type": "address"
        },
        {
          "internalType": "uint256",
          "name": "_amount",
          "type": "uint256"
        }
      ],
      "name": "transfer",
      "outputs": [
        {
          "internalType": "bool",
          "name": "success",
          "type": "bool"
        }
      ],
      "stateMutability": "nonpayable",
      "type": "function"
    },
    {
      "inputs": [
        {
          "internalType": "address",
          "name": "_from",
          "type": "address"
        },
        {
          "internalType": "address",
          "name": "_receiver",
          "type": "address"
        },
        {
          "internalType": "uint256",
          "name": "_amount",
          "type": "uint256"
        }
      ],
      "name": "transferFrom",
      "outputs": [
        {
          "internalType": "bool",
          "name": "",
          "type": "bool"
        }
      ],
      "stateMutability": "nonpayable",
      "type": "function"
    }
  ],
  "bytecode": "0x60806040526005805460ff60a01b191690553480156200001e57600080fd5b50604080518082018252600a8152694d656b614d696e65727360b01b6020808301918252835180850190945260048452634d454b4160e01b9084015281519192916200006d916003916200029c565b508051620000839060049060208401906200029c565b5050506000620000986200011560201b60201c565b600580546001600160a01b0319166001600160a01b038316908117909155604051919250906000907f8be0079c531659141344cd1fd0a4f28419497f9722a3daafe3b4186f6b6457e0908290a3506200010f33620000f96012600a62000457565b6200010990630bebc2006200046f565b62000119565b620004e9565b3390565b6001600160a01b038216620001755760405162461bcd60e51b815260206004820152601f60248201527f45524332303a206d696e7420746f20746865207a65726f20616464726573730060448201526064015b60405180910390fd5b620001836000838362000210565b806002600082825462000197919062000491565b90915550506001600160a01b03821660009081526020819052604081208054839290620001c690849062000491565b90915550506040518181526001600160a01b038316906000907fddf252ad1be2c89b69c2b068fc378daa952ba7f163c4a11628f55a4df523b3ef9060200160405180910390a35050565b620002288383836200029760201b6200086b1760201c565b600554600160a01b900460ff1615620002975760405162461bcd60e51b815260206004820152602a60248201527f45524332305061757361626c653a20746f6b656e207472616e736665722077686044820152691a5b19481c185d5cd95960b21b60648201526084016200016c565b505050565b828054620002aa90620004ac565b90600052602060002090601f016020900481019282620002ce576000855562000319565b82601f10620002e957805160ff191683800117855562000319565b8280016001018555821562000319579182015b8281111562000319578251825591602001919060010190620002fc565b50620003279291506200032b565b5090565b5b808211156200032757600081556001016200032c565b634e487b7160e01b600052601160045260246000fd5b600181815b80851115620003995781600019048211156200037d576200037d62000342565b808516156200038b57918102915b93841c93908002906200035d565b509250929050565b600082620003b25750600162000451565b81620003c15750600062000451565b8160018114620003da5760028114620003e55762000405565b600191505062000451565b60ff841115620003f957620003f962000342565b50506001821b62000451565b5060208310610133831016604e8410600b84101617156200042a575081810a62000451565b62000436838362000358565b80600019048211156200044d576200044d62000342565b0290505b92915050565b60006200046860ff841683620003a1565b9392505050565b60008160001904831182151516156200048c576200048c62000342565b500290565b60008219821115620004a757620004a762000342565b500190565b600181811c90821680620004c157607f821691505b60208210811415620004e357634e487b7160e01b600052602260045260246000fd5b50919050565b6111ae80620004f96000396000f3fe608060405234801561001057600080fd5b50600436106101375760003560e01c80638da5cb5b116100b8578063dd62ed3e1161007c578063dd62ed3e1461026f578063eedb6cbf146102a8578063f2fde38b146102bb578063fc2eb889146102ce578063fc8234cb146102e1578063fe575a87146102e957600080fd5b80638da5cb5b146102135780638f32d59b1461022e57806395d89b4114610241578063a457c2d714610249578063a9059cbb1461025c57600080fd5b8063320b2ad9116100ff578063320b2ad9146101b157806339509351146101b95780635c975abb146101cc57806370a08231146101e0578063715018a61461020957600080fd5b806306fdde031461013c578063095ea7b31461015a57806318160ddd1461017d57806323b872dd1461018f578063313ce567146101a2575b600080fd5b6101446102fc565b6040516101519190610eab565b60405180910390f35b61016d610168366004610f17565b61038e565b6040519015158152602001610151565b6002545b604051908152602001610151565b61016d61019d366004610f41565b6103a4565b60405160128152602001610151565b61016d610564565b61016d6101c7366004610f17565b6105ea565b60055461016d90600160a01b900460ff1681565b6101816101ee366004610f7d565b6001600160a01b031660009081526020819052604090205490565b610211610626565b005b6005546040516001600160a01b039091168152602001610151565b6005546001600160a01b0316331461016d565b61014461069a565b61016d610257366004610f17565b6106a9565b61016d61026a366004610f17565b610742565b61018161027d366004610f98565b6001600160a01b03918216600090815260016020908152604080832093909416825291909152205490565b6102116102b6366004610fcb565b6107cf565b6102116102c9366004610f7d565b610870565b6102116102dc366004611040565b6108a6565b61016d6108fb565b61016d6102f7366004610f7d565b61097a565b60606003805461030b9061107c565b80601f01602080910402602001604051908101604052809291908181526020018280546103379061107c565b80156103845780601f1061035957610100808354040283529160200191610384565b820191906000526020600020905b81548152906001019060200180831161036757829003601f168201915b5050505050905090565b600061039b3384846109ca565b50600192915050565b6001600160a01b03831660009081526006602052604081205460ff16156103e65760405162461bcd60e51b81526004016103dd906110b7565b60405180910390fd5b6001600160a01b03831660009081526006602052604090205460ff161561041f5760405162461bcd60e51b81526004016103dd906110b7565b6001600160a01b0384166104755760405162461bcd60e51b815260206004820152601a60248201527f66726f6d2063616e27742062652061646472657373207a65726f00000000000060448201526064016103dd565b6001600160a01b0383166104cb5760405162461bcd60e51b815260206004820152601e60248201527f72656365697665722063616e27742062652061646472657373207a65726f000060448201526064016103dd565b6001600160a01b03841660009081526001602090815260408083203384529091529020548211156105515760405162461bcd60e51b815260206004820152602a60248201527f616d6f756e74206d757374206265206c657373206f7220657175616c2074686560448201526920616c6c6f77616e636560b01b60648201526084016103dd565b61055c848484610aee565b949350505050565b6005546000906001600160a01b031633146105915760405162461bcd60e51b81526004016103dd906110e4565b600554600160a01b900460ff16156105a857600080fd5b6005805460ff60a01b1916600160a01b1790556040517f6985a02210a168e66602d3235cb6db0e70f92b3ba4d376a33c0f3d9434bff62590600090a150600190565b3360008181526001602090815260408083206001600160a01b0387168452909152812054909161039b91859061062190869061112f565b6109ca565b6005546001600160a01b031633146106505760405162461bcd60e51b81526004016103dd906110e4565b6005546040516000916001600160a01b0316907f8be0079c531659141344cd1fd0a4f28419497f9722a3daafe3b4186f6b6457e0908390a3600580546001600160a01b0319169055565b60606004805461030b9061107c565b3360009081526001602090815260408083206001600160a01b03861684529091528120548281101561072b5760405162461bcd60e51b815260206004820152602560248201527f45524332303a2064656372656173656420616c6c6f77616e63652062656c6f77604482015264207a65726f60d81b60648201526084016103dd565b61073833858584036109ca565b5060019392505050565b3360009081526006602052604081205460ff16156107725760405162461bcd60e51b81526004016103dd906110b7565b6001600160a01b03831660009081526006602052604090205460ff16156107ab5760405162461bcd60e51b81526004016103dd906110b7565b6001600160a01b0383166107be57600080fd5b6107c88383610b96565b9392505050565b6005546001600160a01b031633146107f95760405162461bcd60e51b81526004016103dd906110e4565b60005b8181101561086b5760016006600085858581811061081c5761081c611147565b90506020020160208101906108319190610f7d565b6001600160a01b031681526020810191909152604001600020805460ff1916911515919091179055806108638161115d565b9150506107fc565b505050565b6005546001600160a01b0316331461089a5760405162461bcd60e51b81526004016103dd906110e4565b6108a381610ba3565b50565b6005546001600160a01b031633146108d05760405162461bcd60e51b81526004016103dd906110e4565b6001600160a01b03919091166000908152600660205260409020805460ff1916911515919091179055565b6005546000906001600160a01b031633146109285760405162461bcd60e51b81526004016103dd906110e4565b600554600160a01b900460ff1661093e57600080fd5b6005805460ff60a01b191690556040517f7805862f689e2f13df9f062ff482ad3ad112aca9e0847911ed832e158c525b3390600090a150600190565b6005546000906001600160a01b031633146109a75760405162461bcd60e51b81526004016103dd906110e4565b506001600160a01b03811660009081526006602052604090205460ff165b919050565b6001600160a01b038316610a2c5760405162461bcd60e51b8152602060048201526024808201527f45524332303a20617070726f76652066726f6d20746865207a65726f206164646044820152637265737360e01b60648201526084016103dd565b6001600160a01b038216610a8d5760405162461bcd60e51b815260206004820152602260248201527f45524332303a20617070726f766520746f20746865207a65726f206164647265604482015261737360f01b60648201526084016103dd565b6001600160a01b0383811660008181526001602090815260408083209487168084529482529182902085905590518481527f8c5be1e5ebec7d5bd14f71427d1e84f3dd0314c0f7b2291e5b200ac8c7c3b925910160405180910390a3505050565b6001600160a01b038316600090815260016020908152604080832033845290915281205482811015610b735760405162461bcd60e51b815260206004820152602860248201527f45524332303a207472616e7366657220616d6f756e74206578636565647320616044820152676c6c6f77616e636560c01b60648201526084016103dd565b610b8085338584036109ca565b610b8b858585610c64565b506001949350505050565b600061039b338484610c64565b6001600160a01b038116610c085760405162461bcd60e51b815260206004820152602660248201527f4f776e61626c653a206e6577206f776e657220697320746865207a65726f206160448201526564647265737360d01b60648201526084016103dd565b6005546040516001600160a01b038084169216907f8be0079c531659141344cd1fd0a4f28419497f9722a3daafe3b4186f6b6457e090600090a3600580546001600160a01b0319166001600160a01b0392909216919091179055565b6001600160a01b038316610cc85760405162461bcd60e51b815260206004820152602560248201527f45524332303a207472616e736665722066726f6d20746865207a65726f206164604482015264647265737360d81b60648201526084016103dd565b6001600160a01b038216610d2a5760405162461bcd60e51b815260206004820152602360248201527f45524332303a207472616e7366657220746f20746865207a65726f206164647260448201526265737360e81b60648201526084016103dd565b610d35838383610e3e565b6001600160a01b03831660009081526020819052604090205481811015610dad5760405162461bcd60e51b815260206004820152602660248201527f45524332303a207472616e7366657220616d6f756e7420657863656564732062604482015265616c616e636560d01b60648201526084016103dd565b6001600160a01b03808516600090815260208190526040808220858503905591851681529081208054849290610de490849061112f565b92505081905550826001600160a01b0316846001600160a01b03167fddf252ad1be2c89b69c2b068fc378daa952ba7f163c4a11628f55a4df523b3ef84604051610e3091815260200190565b60405180910390a350505050565b600554600160a01b900460ff161561086b5760405162461bcd60e51b815260206004820152602a60248201527f45524332305061757361626c653a20746f6b656e207472616e736665722077686044820152691a5b19481c185d5cd95960b21b60648201526084016103dd565b600060208083528351808285015260005b81811015610ed857858101830151858201604001528201610ebc565b81811115610eea576000604083870101525b50601f01601f1916929092016040019392505050565b80356001600160a01b03811681146109c557600080fd5b60008060408385031215610f2a57600080fd5b610f3383610f00565b946020939093013593505050565b600080600060608486031215610f5657600080fd5b610f5f84610f00565b9250610f6d60208501610f00565b9150604084013590509250925092565b600060208284031215610f8f57600080fd5b6107c882610f00565b60008060408385031215610fab57600080fd5b610fb483610f00565b9150610fc260208401610f00565b90509250929050565b60008060208385031215610fde57600080fd5b823567ffffffffffffffff80821115610ff657600080fd5b818501915085601f83011261100a57600080fd5b81358181111561101957600080fd5b8660208260051b850101111561102e57600080fd5b60209290920196919550909350505050565b6000806040838503121561105357600080fd5b61105c83610f00565b91506020830135801515811461107157600080fd5b809150509250929050565b600181811c9082168061109057607f821691505b602082108114156110b157634e487b7160e01b600052602260045260246000fd5b50919050565b6020808252601390820152721859191c995cdccb589b1858dadb1a5cdd1959606a1b604082015260600190565b6020808252818101527f4f776e61626c653a2063616c6c6572206973206e6f7420746865206f776e6572604082015260600190565b634e487b7160e01b600052601160045260246000fd5b6000821982111561114257611142611119565b500190565b634e487b7160e01b600052603260045260246000fd5b600060001982141561117157611171611119565b506001019056fea2646970667358221220a37ce048df5b92bd354ee110ced13e7087f3699ba3ada74386ccbcc1d9e081ba64736f6c634300080b0033",
  "immutableReferences": {},
  "source": "// SPDX-License-Identifier: MIT\r\npragma solidity ^0.8.2;\r\n\r\nimport \"./BEP20.sol\";\r\nimport \"./SafeMath.sol\";\r\nimport \"./Ownable.sol\";\r\nimport \"./Pausable.sol\";\r\n\r\ncontract MekaMiners is BEP20, Ownable, Pausable {\r\n    using SafeMath for uint256;\r\n\r\n    mapping(address => bool) private banBlackList;\r\n\r\n    constructor() BEP20(\"MekaMiners\", \"MEKA\") {\r\n        _mint(msg.sender, 200000000 * 10**decimals());\r\n    }\r\n\r\n    function isBlacklisted(address addr)\r\n        external\r\n        view\r\n        onlyOwner\r\n        returns (bool)\r\n    {\r\n        return banBlackList[addr];\r\n    }\r\n\r\n    function bulkBlackList(address[] calldata addr) external onlyOwner {\r\n        for (uint256 i = 0; i < addr.length; i++) {\r\n            banBlackList[addr[i]] = true;\r\n        }\r\n    }\r\n\r\n    function updateBlackList(address addr, bool blacklisted)\r\n        external\r\n        onlyOwner\r\n    {\r\n        banBlackList[addr] = blacklisted;\r\n    }\r\n\r\n    function transfer(address _receiver, uint256 _amount)\r\n        public\r\n        override\r\n        returns (bool success)\r\n    {\r\n        require(!banBlackList[msg.sender], \"address-blacklisted\");\r\n        require(!banBlackList[_receiver], \"address-blacklisted\");\r\n        require(_receiver != address(0));\r\n\r\n        return super.transfer(_receiver, _amount);\r\n    }\r\n\r\n    function transferFrom(\r\n        address _from,\r\n        address _receiver,\r\n        uint256 _amount\r\n    ) public override returns (bool) {\r\n        require(!banBlackList[_from], \"address-blacklisted\");\r\n        require(!banBlackList[_receiver], \"address-blacklisted\");\r\n        require(_from != address(0), \"from can't be address zero\");\r\n        require(_receiver != address(0), \"receiver can't be address zero\");\r\n        require(\r\n            _amount <= allowance(_from, msg.sender),\r\n            \"amount must be less or equal the allowance\"\r\n        );\r\n\r\n        return super.transferFrom(_from, _receiver, _amount);\r\n    }\r\n\r\n    function _beforeTokenTransfer(\r\n        address from,\r\n        address to,\r\n        uint256 amount\r\n    ) internal virtual override {\r\n        super._beforeTokenTransfer(from, to, amount);\r\n\r\n        require(!paused, \"ERC20Pausable: token transfer while paused\");\r\n    }\r\n}\r\n",
  "sourcePath": "E:\\MekaMiners\\contracts\\MekaMiners.sol",
  "compiler": {
    "name": "solc",
    "version": "0.8.11+commit.d7f03943.Emscripten.clang"
  },
  "schemaVersion": "3.4.3",
  "updatedAt": "2022-01-03T15:19:30.957Z",
  "networkType": "ethereum",
  "devdoc": {
    "kind": "dev",
    "methods": {
      "_pause()": {
        "details": "called by the owner to pause, triggers stopped state"
      },
      "_unpause()": {
        "details": "called by the owner to unpause, returns to normal state"
      },
      "allowance(address,address)": {
        "details": "See {IERC20-allowance}."
      },
      "approve(address,uint256)": {
        "details": "See {IERC20-approve}. Requirements: - `spender` cannot be the zero address."
      },
      "balanceOf(address)": {
        "details": "See {IERC20-balanceOf}."
      },
      "decimals()": {
        "details": "Returns the number of decimals used to get its user representation. For example, if `decimals` equals `2`, a balance of `505` tokens should be displayed to a user as `5.05` (`505 / 10 ** 2`). Tokens usually opt for a value of 18, imitating the relationship between Ether and Wei. This is the value {ERC20} uses, unless this function is overridden; NOTE: This information is only used for _display_ purposes: it in no way affects any of the arithmetic of the contract, including {IERC20-balanceOf} and {IERC20-transfer}."
      },
      "decreaseAllowance(address,uint256)": {
        "details": "Atomically decreases the allowance granted to `spender` by the caller. This is an alternative to {approve} that can be used as a mitigation for problems described in {IERC20-approve}. Emits an {Approval} event indicating the updated allowance. Requirements: - `spender` cannot be the zero address. - `spender` must have allowance for the caller of at least `subtractedValue`."
      },
      "increaseAllowance(address,uint256)": {
        "details": "Atomically increases the allowance granted to `spender` by the caller. This is an alternative to {approve} that can be used as a mitigation for problems described in {IERC20-approve}. Emits an {Approval} event indicating the updated allowance. Requirements: - `spender` cannot be the zero address."
      },
      "isOwner()": {
        "details": "Returns true if the caller is the current owner."
      },
      "name()": {
        "details": "Returns the name of the token."
      },
      "owner()": {
        "details": "Returns the address of the current owner."
      },
      "renounceOwnership()": {
        "details": "Leaves the contract without owner. It will not be possible to call `onlyOwner` functions anymore. Can only be called by the current owner. NOTE: Renouncing ownership will leave the contract without an owner, thereby removing any functionality that is only available to the owner."
      },
      "symbol()": {
        "details": "Returns the symbol of the token, usually a shorter version of the name."
      },
      "totalSupply()": {
        "details": "See {IERC20-totalSupply}."
      },
      "transferOwnership(address)": {
        "details": "Transfers ownership of the contract to a new account (`newOwner`). Can only be called by the current owner."
      }
    },
    "version": 1
  },
  "userdoc": {
    "kind": "user",
    "methods": {},
    "version": 1
  }
}