{
  "contractName": "MekaMiners",
  "abi": [
    {
      "inputs": [],
      "stateMutability": "nonpayable",
      "type": "constructor"
    },
    {
      "anonymous": false,
      "inputs": [
        {
          "indexed": true,
          "internalType": "address",
          "name": "owner",
          "type": "address"
        },
        {
          "indexed": true,
          "internalType": "address",
          "name": "spender",
          "type": "address"
        },
        {
          "indexed": false,
          "internalType": "uint256",
          "name": "value",
          "type": "uint256"
        }
      ],
      "name": "Approval",
      "type": "event"
    },
    {
      "anonymous": false,
      "inputs": [
        {
          "indexed": true,
          "internalType": "address",
          "name": "previousOwner",
          "type": "address"
        },
        {
          "indexed": true,
          "internalType": "address",
          "name": "newOwner",
          "type": "address"
        }
      ],
      "name": "OwnershipTransferred",
      "type": "event"
    },
    {
      "anonymous": false,
      "inputs": [],
      "name": "Pause",
      "type": "event"
    },
    {
      "anonymous": false,
      "inputs": [
        {
          "indexed": true,
          "internalType": "address",
          "name": "from",
          "type": "address"
        },
        {
          "indexed": true,
          "internalType": "address",
          "name": "to",
          "type": "address"
        },
        {
          "indexed": false,
          "internalType": "uint256",
          "name": "value",
          "type": "uint256"
        }
      ],
      "name": "Transfer",
      "type": "event"
    },
    {
      "anonymous": false,
      "inputs": [],
      "name": "Unpause",
      "type": "event"
    },
    {
      "inputs": [],
      "name": "_pause",
      "outputs": [
        {
          "internalType": "bool",
          "name": "",
          "type": "bool"
        }
      ],
      "stateMutability": "nonpayable",
      "type": "function"
    },
    {
      "inputs": [],
      "name": "_unpause",
      "outputs": [
        {
          "internalType": "bool",
          "name": "",
          "type": "bool"
        }
      ],
      "stateMutability": "nonpayable",
      "type": "function"
    },
    {
      "inputs": [
        {
          "internalType": "address",
          "name": "owner",
          "type": "address"
        },
        {
          "internalType": "address",
          "name": "spender",
          "type": "address"
        }
      ],
      "name": "allowance",
      "outputs": [
        {
          "internalType": "uint256",
          "name": "",
          "type": "uint256"
        }
      ],
      "stateMutability": "view",
      "type": "function",
      "constant": true
    },
    {
      "inputs": [
        {
          "internalType": "address",
          "name": "spender",
          "type": "address"
        },
        {
          "internalType": "uint256",
          "name": "amount",
          "type": "uint256"
        }
      ],
      "name": "approve",
      "outputs": [
        {
          "internalType": "bool",
          "name": "",
          "type": "bool"
        }
      ],
      "stateMutability": "nonpayable",
      "type": "function"
    },
    {
      "inputs": [
        {
          "internalType": "address",
          "name": "account",
          "type": "address"
        }
      ],
      "name": "balanceOf",
      "outputs": [
        {
          "internalType": "uint256",
          "name": "",
          "type": "uint256"
        }
      ],
      "stateMutability": "view",
      "type": "function",
      "constant": true
    },
    {
      "inputs": [],
      "name": "decimals",
      "outputs": [
        {
          "internalType": "uint8",
          "name": "",
          "type": "uint8"
        }
      ],
      "stateMutability": "view",
      "type": "function",
      "constant": true
    },
    {
      "inputs": [
        {
          "internalType": "address",
          "name": "spender",
          "type": "address"
        },
        {
          "internalType": "uint256",
          "name": "subtractedValue",
          "type": "uint256"
        }
      ],
      "name": "decreaseAllowance",
      "outputs": [
        {
          "internalType": "bool",
          "name": "",
          "type": "bool"
        }
      ],
      "stateMutability": "nonpayable",
      "type": "function"
    },
    {
      "inputs": [
        {
          "internalType": "address",
          "name": "spender",
          "type": "address"
        },
        {
          "internalType": "uint256",
          "name": "addedValue",
          "type": "uint256"
        }
      ],
      "name": "increaseAllowance",
      "outputs": [
        {
          "internalType": "bool",
          "name": "",
          "type": "bool"
        }
      ],
      "stateMutability": "nonpayable",
      "type": "function"
    },
    {
      "inputs": [],
      "name": "isOwner",
      "outputs": [
        {
          "internalType": "bool",
          "name": "",
          "type": "bool"
        }
      ],
      "stateMutability": "view",
      "type": "function",
      "constant": true
    },
    {
      "inputs": [],
      "name": "name",
      "outputs": [
        {
          "internalType": "string",
          "name": "",
          "type": "string"
        }
      ],
      "stateMutability": "view",
      "type": "function",
      "constant": true
    },
    {
      "inputs": [],
      "name": "owner",
      "outputs": [
        {
          "internalType": "address",
          "name": "",
          "type": "address"
        }
      ],
      "stateMutability": "view",
      "type": "function",
      "constant": true
    },
    {
      "inputs": [],
      "name": "paused",
      "outputs": [
        {
          "internalType": "bool",
          "name": "",
          "type": "bool"
        }
      ],
      "stateMutability": "view",
      "type": "function",
      "constant": true
    },
    {
      "inputs": [],
      "name": "renounceOwnership",
      "outputs": [],
      "stateMutability": "nonpayable",
      "type": "function"
    },
    {
      "inputs": [],
      "name": "symbol",
      "outputs": [
        {
          "internalType": "string",
          "name": "",
          "type": "string"
        }
      ],
      "stateMutability": "view",
      "type": "function",
      "constant": true
    },
    {
      "inputs": [],
      "name": "totalSupply",
      "outputs": [
        {
          "internalType": "uint256",
          "name": "",
          "type": "uint256"
        }
      ],
      "stateMutability": "view",
      "type": "function",
      "constant": true
    },
    {
      "inputs": [
        {
          "internalType": "address",
          "name": "newOwner",
          "type": "address"
        }
      ],
      "name": "transferOwnership",
      "outputs": [],
      "stateMutability": "nonpayable",
      "type": "function"
    },
    {
      "inputs": [],
      "name": "pause",
      "outputs": [],
      "stateMutability": "nonpayable",
      "type": "function"
    },
    {
      "inputs": [],
      "name": "unpause",
      "outputs": [],
      "stateMutability": "nonpayable",
      "type": "function"
    },
    {
      "inputs": [
        {
          "internalType": "address",
          "name": "to",
          "type": "address"
        },
        {
          "internalType": "uint256",
          "name": "amount",
          "type": "uint256"
        }
      ],
      "name": "mint",
      "outputs": [],
      "stateMutability": "nonpayable",
      "type": "function"
    },
    {
      "inputs": [
        {
          "internalType": "address",
          "name": "_receiver",
          "type": "address"
        },
        {
          "internalType": "uint256",
          "name": "_amount",
          "type": "uint256"
        }
      ],
      "name": "transfer",
      "outputs": [
        {
          "internalType": "bool",
          "name": "success",
          "type": "bool"
        }
      ],
      "stateMutability": "nonpayable",
      "type": "function"
    },
    {
      "inputs": [
        {
          "internalType": "address",
          "name": "_from",
          "type": "address"
        },
        {
          "internalType": "address",
          "name": "_receiver",
          "type": "address"
        },
        {
          "internalType": "uint256",
          "name": "_amount",
          "type": "uint256"
        }
      ],
      "name": "transferFrom",
      "outputs": [
        {
          "internalType": "bool",
          "name": "",
          "type": "bool"
        }
      ],
      "stateMutability": "nonpayable",
      "type": "function"
    }
  ],
  "bytecode": "0x608060405260008060146101000a81548160ff0219169083151502179055503480156200002b57600080fd5b506040518060400160405280600a81526020017f4d656b614d696e657273000000000000000000000000000000000000000000008152506040518060400160405280600481526020017f4d454b410000000000000000000000000000000000000000000000000000000081525060126000620000ac620001e060201b60201c565b9050806000806101000a81548173ffffffffffffffffffffffffffffffffffffffff021916908373ffffffffffffffffffffffffffffffffffffffff1602179055508073ffffffffffffffffffffffffffffffffffffffff16600073ffffffffffffffffffffffffffffffffffffffff167f8be0079c531659141344cd1fd0a4f28419497f9722a3daafe3b4186f6b6457e060405160405180910390a350826004908051906020019062000162929190620003ff565b5081600590805190602001906200017b929190620003ff565b5080600660006101000a81548160ff021916908360ff160217905550505050620001da33620001af620001e860201b60201c565b600a620001bd919062000649565b630bebc200620001ce91906200069a565b620001ff60201b60201c565b620008e0565b600033905090565b6000600660009054906101000a900460ff16905090565b600073ffffffffffffffffffffffffffffffffffffffff168273ffffffffffffffffffffffffffffffffffffffff16141562000272576040517f08c379a000000000000000000000000000000000000000000000000000000000815260040162000269906200075c565b60405180910390fd5b6200028e816003546200039c60201b62000dc71790919060201c565b600381905550620002ed81600160008573ffffffffffffffffffffffffffffffffffffffff1673ffffffffffffffffffffffffffffffffffffffff168152602001908152602001600020546200039c60201b62000dc71790919060201c565b600160008473ffffffffffffffffffffffffffffffffffffffff1673ffffffffffffffffffffffffffffffffffffffff168152602001908152602001600020819055508173ffffffffffffffffffffffffffffffffffffffff16600073ffffffffffffffffffffffffffffffffffffffff167fddf252ad1be2c89b69c2b068fc378daa952ba7f163c4a11628f55a4df523b3ef836040516200039091906200078f565b60405180910390a35050565b6000808284620003ad9190620007ac565b905083811015620003f5576040517f08c379a0000000000000000000000000000000000000000000000000000000008152600401620003ec9062000859565b60405180910390fd5b8091505092915050565b8280546200040d90620008aa565b90600052602060002090601f0160209004810192826200043157600085556200047d565b82601f106200044c57805160ff19168380011785556200047d565b828001600101855582156200047d579182015b828111156200047c5782518255916020019190600101906200045f565b5b5090506200048c919062000490565b5090565b5b80821115620004ab57600081600090555060010162000491565b5090565b7f4e487b7100000000000000000000000000000000000000000000000000000000600052601160045260246000fd5b60008160011c9050919050565b6000808291508390505b60018511156200053d57808604811115620005155762000514620004af565b5b6001851615620005255780820291505b80810290506200053585620004de565b9450620004f5565b94509492505050565b6000826200055857600190506200062b565b816200056857600090506200062b565b81600181146200058157600281146200058c57620005c2565b60019150506200062b565b60ff841115620005a157620005a0620004af565b5b8360020a915084821115620005bb57620005ba620004af565b5b506200062b565b5060208310610133831016604e8410600b8410161715620005fc5782820a905083811115620005f657620005f5620004af565b5b6200062b565b6200060b8484846001620004eb565b92509050818404811115620006255762000624620004af565b5b81810290505b9392505050565b6000819050919050565b600060ff82169050919050565b6000620006568262000632565b915062000663836200063c565b9250620006927fffffffffffffffffffffffffffffffffffffffffffffffffffffffffffffffff848462000546565b905092915050565b6000620006a78262000632565b9150620006b48362000632565b9250817fffffffffffffffffffffffffffffffffffffffffffffffffffffffffffffffff0483118215151615620006f057620006ef620004af565b5b828202905092915050565b600082825260208201905092915050565b7f42455032303a206d696e7420746f20746865207a65726f206164647265737300600082015250565b600062000744601f83620006fb565b915062000751826200070c565b602082019050919050565b60006020820190508181036000830152620007778162000735565b9050919050565b620007898162000632565b82525050565b6000602082019050620007a660008301846200077e565b92915050565b6000620007b98262000632565b9150620007c68362000632565b9250827fffffffffffffffffffffffffffffffffffffffffffffffffffffffffffffffff03821115620007fe57620007fd620004af565b5b828201905092915050565b7f536166654d6174683a206164646974696f6e206f766572666c6f770000000000600082015250565b600062000841601b83620006fb565b91506200084e8262000809565b602082019050919050565b60006020820190508181036000830152620008748162000832565b9050919050565b7f4e487b7100000000000000000000000000000000000000000000000000000000600052602260045260246000fd5b60006002820490506001821680620008c357607f821691505b60208210811415620008da57620008d96200087b565b5b50919050565b61218f80620008f06000396000f3fe608060405234801561001057600080fd5b50600436106101375760003560e01c806370a08231116100b857806395d89b411161007c57806395d89b4114610308578063a457c2d714610326578063a9059cbb14610356578063dd62ed3e14610386578063f2fde38b146103b6578063fc8234cb146103d257610137565b806370a0823114610288578063715018a6146102b85780638456cb59146102c25780638da5cb5b146102cc5780638f32d59b146102ea57610137565b8063320b2ad9116100ff578063320b2ad9146101f657806339509351146102145780633f4ba83a1461024457806340c10f191461024e5780635c975abb1461026a57610137565b806306fdde031461013c578063095ea7b31461015a57806318160ddd1461018a57806323b872dd146101a8578063313ce567146101d8575b600080fd5b6101446103f0565b60405161015191906117c8565b60405180910390f35b610174600480360381019061016f9190611883565b610482565b60405161018191906118de565b60405180910390f35b6101926104b9565b60405161019f9190611908565b60405180910390f35b6101c260048036038101906101bd9190611923565b6104c3565b6040516101cf91906118de565b60405180910390f35b6101e0610604565b6040516101ed9190611992565b60405180910390f35b6101fe61061b565b60405161020b91906118de565b60405180910390f35b61022e60048036038101906102299190611883565b6106cc565b60405161023b91906118de565b60405180910390f35b61024c610798565b005b61026860048036038101906102639190611883565b6107ea565b005b61027261083f565b60405161027f91906118de565b60405180910390f35b6102a2600480360381019061029d91906119ad565b610852565b6040516102af9190611908565b60405180910390f35b6102c061089b565b005b6102ca6109a0565b005b6102d46109f2565b6040516102e191906119e9565b60405180910390f35b6102f2610a1b565b6040516102ff91906118de565b60405180910390f35b610310610a79565b60405161031d91906117c8565b60405180910390f35b610340600480360381019061033b9190611883565b610b0b565b60405161034d91906118de565b60405180910390f35b610370600480360381019061036b9190611883565b610bf1565b60405161037d91906118de565b60405180910390f35b6103a0600480360381019061039b9190611a04565b610c3e565b6040516103ad9190611908565b60405180910390f35b6103d060048036038101906103cb91906119ad565b610cc5565b005b6103da610d18565b6040516103e791906118de565b60405180910390f35b6060600480546103ff90611a73565b80601f016020809104026020016040519081016040528092919081815260200182805461042b90611a73565b80156104785780601f1061044d57610100808354040283529160200191610478565b820191906000526020600020905b81548152906001019060200180831161045b57829003601f168201915b5050505050905090565b60008060149054906101000a900460ff161561049d57600080fd5b6104af6104a8610e25565b8484610e2d565b6001905092915050565b6000600354905090565b60008073ffffffffffffffffffffffffffffffffffffffff168473ffffffffffffffffffffffffffffffffffffffff161415610534576040517f08c379a000000000000000000000000000000000000000000000000000000000815260040161052b90611af1565b60405180910390fd5b600073ffffffffffffffffffffffffffffffffffffffff168373ffffffffffffffffffffffffffffffffffffffff1614156105a4576040517f08c379a000000000000000000000000000000000000000000000000000000000815260040161059b90611b5d565b60405180910390fd5b6105ae8433610c3e565b8211156105f0576040517f08c379a00000000000000000000000000000000000000000000000000000000081526004016105e790611bef565b60405180910390fd5b6105fb848484610ff8565b90509392505050565b6000600660009054906101000a900460ff16905090565b6000610625610a1b565b610664576040517f08c379a000000000000000000000000000000000000000000000000000000000815260040161065b90611c5b565b60405180910390fd5b600060149054906101000a900460ff161561067e57600080fd5b6001600060146101000a81548160ff0219169083151502179055507f6985a02210a168e66602d3235cb6db0e70f92b3ba4d376a33c0f3d9434bff62560405160405180910390a16001905090565b60008060149054906101000a900460ff16156106e757600080fd5b61078e6106f2610e25565b846107898560026000610703610e25565b73ffffffffffffffffffffffffffffffffffffffff1673ffffffffffffffffffffffffffffffffffffffff16815260200190815260200160002060008973ffffffffffffffffffffffffffffffffffffffff1673ffffffffffffffffffffffffffffffffffffffff16815260200190815260200160002054610dc790919063ffffffff16565b610e2d565b6001905092915050565b6107a0610a1b565b6107df576040517f08c379a00000000000000000000000000000000000000000000000000000000081526004016107d690611c5b565b60405180910390fd5b6107e7610d18565b50565b6107f2610a1b565b610831576040517f08c379a000000000000000000000000000000000000000000000000000000000815260040161082890611c5b565b60405180910390fd5b61083b828261114f565b5050565b600060149054906101000a900460ff1681565b6000600160008373ffffffffffffffffffffffffffffffffffffffff1673ffffffffffffffffffffffffffffffffffffffff168152602001908152602001600020549050919050565b6108a3610a1b565b6108e2576040517f08c379a00000000000000000000000000000000000000000000000000000000081526004016108d990611c5b565b60405180910390fd5b600073ffffffffffffffffffffffffffffffffffffffff1660008054906101000a900473ffffffffffffffffffffffffffffffffffffffff1673ffffffffffffffffffffffffffffffffffffffff167f8be0079c531659141344cd1fd0a4f28419497f9722a3daafe3b4186f6b6457e060405160405180910390a360008060006101000a81548173ffffffffffffffffffffffffffffffffffffffff021916908373ffffffffffffffffffffffffffffffffffffffff160217905550565b6109a8610a1b565b6109e7576040517f08c379a00000000000000000000000000000000000000000000000000000000081526004016109de90611c5b565b60405180910390fd5b6109ef61061b565b50565b60008060009054906101000a900473ffffffffffffffffffffffffffffffffffffffff16905090565b60008060009054906101000a900473ffffffffffffffffffffffffffffffffffffffff1673ffffffffffffffffffffffffffffffffffffffff16610a5d610e25565b73ffffffffffffffffffffffffffffffffffffffff1614905090565b606060058054610a8890611a73565b80601f0160208091040260200160405190810160405280929190818152602001828054610ab490611a73565b8015610b015780601f10610ad657610100808354040283529160200191610b01565b820191906000526020600020905b815481529060010190602001808311610ae457829003601f168201915b5050505050905090565b60008060149054906101000a900460ff1615610b2657600080fd5b610be7610b31610e25565b84610be2856040518060600160405280602581526020016121356025913960026000610b5b610e25565b73ffffffffffffffffffffffffffffffffffffffff1673ffffffffffffffffffffffffffffffffffffffff16815260200190815260200160002060008a73ffffffffffffffffffffffffffffffffffffffff1673ffffffffffffffffffffffffffffffffffffffff168152602001908152602001600020546112d99092919063ffffffff16565b610e2d565b6001905092915050565b60008073ffffffffffffffffffffffffffffffffffffffff168373ffffffffffffffffffffffffffffffffffffffff161415610c2c57600080fd5b610c36838361133d565b905092915050565b6000600260008473ffffffffffffffffffffffffffffffffffffffff1673ffffffffffffffffffffffffffffffffffffffff16815260200190815260200160002060008373ffffffffffffffffffffffffffffffffffffffff1673ffffffffffffffffffffffffffffffffffffffff16815260200190815260200160002054905092915050565b610ccd610a1b565b610d0c576040517f08c379a0000000000000000000000000000000000000000000000000000000008152600401610d0390611c5b565b60405180910390fd5b610d1581611374565b50565b6000610d22610a1b565b610d61576040517f08c379a0000000000000000000000000000000000000000000000000000000008152600401610d5890611c5b565b60405180910390fd5b600060149054906101000a900460ff16610d7a57600080fd5b60008060146101000a81548160ff0219169083151502179055507f7805862f689e2f13df9f062ff482ad3ad112aca9e0847911ed832e158c525b3360405160405180910390a16001905090565b6000808284610dd69190611caa565b905083811015610e1b576040517f08c379a0000000000000000000000000000000000000000000000000000000008152600401610e1290611d4c565b60405180910390fd5b8091505092915050565b600033905090565b600073ffffffffffffffffffffffffffffffffffffffff168373ffffffffffffffffffffffffffffffffffffffff161415610e9d576040517f08c379a0000000000000000000000000000000000000000000000000000000008152600401610e9490611dde565b60405180910390fd5b600073ffffffffffffffffffffffffffffffffffffffff168273ffffffffffffffffffffffffffffffffffffffff161415610f0d576040517f08c379a0000000000000000000000000000000000000000000000000000000008152600401610f0490611e70565b60405180910390fd5b80600260008573ffffffffffffffffffffffffffffffffffffffff1673ffffffffffffffffffffffffffffffffffffffff16815260200190815260200160002060008473ffffffffffffffffffffffffffffffffffffffff1673ffffffffffffffffffffffffffffffffffffffff168152602001908152602001600020819055508173ffffffffffffffffffffffffffffffffffffffff168373ffffffffffffffffffffffffffffffffffffffff167f8c5be1e5ebec7d5bd14f71427d1e84f3dd0314c0f7b2291e5b200ac8c7c3b92583604051610feb9190611908565b60405180910390a3505050565b60008060149054906101000a900460ff161561101357600080fd5b61101e8484846114a1565b6110df8461102a610e25565b6110da856040518060600160405280602881526020016120e760289139600260008b73ffffffffffffffffffffffffffffffffffffffff1673ffffffffffffffffffffffffffffffffffffffff1681526020019081526020016000206000611090610e25565b73ffffffffffffffffffffffffffffffffffffffff1673ffffffffffffffffffffffffffffffffffffffff168152602001908152602001600020546112d99092919063ffffffff16565b610e2d565b8273ffffffffffffffffffffffffffffffffffffffff168473ffffffffffffffffffffffffffffffffffffffff167fddf252ad1be2c89b69c2b068fc378daa952ba7f163c4a11628f55a4df523b3ef8460405161113c9190611908565b60405180910390a3600190509392505050565b600073ffffffffffffffffffffffffffffffffffffffff168273ffffffffffffffffffffffffffffffffffffffff1614156111bf576040517f08c379a00000000000000000000000000000000000000000000000000000000081526004016111b690611edc565b60405180910390fd5b6111d481600354610dc790919063ffffffff16565b60038190555061122c81600160008573ffffffffffffffffffffffffffffffffffffffff1673ffffffffffffffffffffffffffffffffffffffff16815260200190815260200160002054610dc790919063ffffffff16565b600160008473ffffffffffffffffffffffffffffffffffffffff1673ffffffffffffffffffffffffffffffffffffffff168152602001908152602001600020819055508173ffffffffffffffffffffffffffffffffffffffff16600073ffffffffffffffffffffffffffffffffffffffff167fddf252ad1be2c89b69c2b068fc378daa952ba7f163c4a11628f55a4df523b3ef836040516112cd9190611908565b60405180910390a35050565b6000838311158290611321576040517f08c379a000000000000000000000000000000000000000000000000000000000815260040161131891906117c8565b60405180910390fd5b50600083856113309190611efc565b9050809150509392505050565b60008060149054906101000a900460ff161561135857600080fd5b61136a611363610e25565b84846114a1565b6001905092915050565b600073ffffffffffffffffffffffffffffffffffffffff168173ffffffffffffffffffffffffffffffffffffffff1614156113e4576040517f08c379a00000000000000000000000000000000000000000000000000000000081526004016113db90611fa2565b60405180910390fd5b8073ffffffffffffffffffffffffffffffffffffffff1660008054906101000a900473ffffffffffffffffffffffffffffffffffffffff1673ffffffffffffffffffffffffffffffffffffffff167f8be0079c531659141344cd1fd0a4f28419497f9722a3daafe3b4186f6b6457e060405160405180910390a3806000806101000a81548173ffffffffffffffffffffffffffffffffffffffff021916908373ffffffffffffffffffffffffffffffffffffffff16021790555050565b600073ffffffffffffffffffffffffffffffffffffffff168373ffffffffffffffffffffffffffffffffffffffff161415611511576040517f08c379a000000000000000000000000000000000000000000000000000000000815260040161150890612034565b60405180910390fd5b600073ffffffffffffffffffffffffffffffffffffffff168273ffffffffffffffffffffffffffffffffffffffff161415611581576040517f08c379a0000000000000000000000000000000000000000000000000000000008152600401611578906120c6565b60405180910390fd5b6115ed8160405180606001604052806026815260200161210f60269139600160008773ffffffffffffffffffffffffffffffffffffffff1673ffffffffffffffffffffffffffffffffffffffff168152602001908152602001600020546112d99092919063ffffffff16565b600160008573ffffffffffffffffffffffffffffffffffffffff1673ffffffffffffffffffffffffffffffffffffffff1681526020019081526020016000208190555061168281600160008573ffffffffffffffffffffffffffffffffffffffff1673ffffffffffffffffffffffffffffffffffffffff16815260200190815260200160002054610dc790919063ffffffff16565b600160008473ffffffffffffffffffffffffffffffffffffffff1673ffffffffffffffffffffffffffffffffffffffff168152602001908152602001600020819055508173ffffffffffffffffffffffffffffffffffffffff168373ffffffffffffffffffffffffffffffffffffffff167fddf252ad1be2c89b69c2b068fc378daa952ba7f163c4a11628f55a4df523b3ef836040516117229190611908565b60405180910390a3505050565b600081519050919050565b600082825260208201905092915050565b60005b8381101561176957808201518184015260208101905061174e565b83811115611778576000848401525b50505050565b6000601f19601f8301169050919050565b600061179a8261172f565b6117a4818561173a565b93506117b481856020860161174b565b6117bd8161177e565b840191505092915050565b600060208201905081810360008301526117e2818461178f565b905092915050565b600080fd5b600073ffffffffffffffffffffffffffffffffffffffff82169050919050565b600061181a826117ef565b9050919050565b61182a8161180f565b811461183557600080fd5b50565b60008135905061184781611821565b92915050565b6000819050919050565b6118608161184d565b811461186b57600080fd5b50565b60008135905061187d81611857565b92915050565b6000806040838503121561189a576118996117ea565b5b60006118a885828601611838565b92505060206118b98582860161186e565b9150509250929050565b60008115159050919050565b6118d8816118c3565b82525050565b60006020820190506118f360008301846118cf565b92915050565b6119028161184d565b82525050565b600060208201905061191d60008301846118f9565b92915050565b60008060006060848603121561193c5761193b6117ea565b5b600061194a86828701611838565b935050602061195b86828701611838565b925050604061196c8682870161186e565b9150509250925092565b600060ff82169050919050565b61198c81611976565b82525050565b60006020820190506119a76000830184611983565b92915050565b6000602082840312156119c3576119c26117ea565b5b60006119d184828501611838565b91505092915050565b6119e38161180f565b82525050565b60006020820190506119fe60008301846119da565b92915050565b60008060408385031215611a1b57611a1a6117ea565b5b6000611a2985828601611838565b9250506020611a3a85828601611838565b9150509250929050565b7f4e487b7100000000000000000000000000000000000000000000000000000000600052602260045260246000fd5b60006002820490506001821680611a8b57607f821691505b60208210811415611a9f57611a9e611a44565b5b50919050565b7f66726f6d2063616e27742062652061646472657373207a65726f000000000000600082015250565b6000611adb601a8361173a565b9150611ae682611aa5565b602082019050919050565b60006020820190508181036000830152611b0a81611ace565b9050919050565b7f72656365697665722063616e27742062652061646472657373207a65726f0000600082015250565b6000611b47601e8361173a565b9150611b5282611b11565b602082019050919050565b60006020820190508181036000830152611b7681611b3a565b9050919050565b7f616d6f756e74206d757374206265206c657373206f7220657175616c2074686560008201527f20616c6c6f77616e636500000000000000000000000000000000000000000000602082015250565b6000611bd9602a8361173a565b9150611be482611b7d565b604082019050919050565b60006020820190508181036000830152611c0881611bcc565b9050919050565b7f4f776e61626c653a2063616c6c6572206973206e6f7420746865206f776e6572600082015250565b6000611c4560208361173a565b9150611c5082611c0f565b602082019050919050565b60006020820190508181036000830152611c7481611c38565b9050919050565b7f4e487b7100000000000000000000000000000000000000000000000000000000600052601160045260246000fd5b6000611cb58261184d565b9150611cc08361184d565b9250827fffffffffffffffffffffffffffffffffffffffffffffffffffffffffffffffff03821115611cf557611cf4611c7b565b5b828201905092915050565b7f536166654d6174683a206164646974696f6e206f766572666c6f770000000000600082015250565b6000611d36601b8361173a565b9150611d4182611d00565b602082019050919050565b60006020820190508181036000830152611d6581611d29565b9050919050565b7f42455032303a20617070726f76652066726f6d20746865207a65726f2061646460008201527f7265737300000000000000000000000000000000000000000000000000000000602082015250565b6000611dc860248361173a565b9150611dd382611d6c565b604082019050919050565b60006020820190508181036000830152611df781611dbb565b9050919050565b7f42455032303a20617070726f766520746f20746865207a65726f20616464726560008201527f7373000000000000000000000000000000000000000000000000000000000000602082015250565b6000611e5a60228361173a565b9150611e6582611dfe565b604082019050919050565b60006020820190508181036000830152611e8981611e4d565b9050919050565b7f42455032303a206d696e7420746f20746865207a65726f206164647265737300600082015250565b6000611ec6601f8361173a565b9150611ed182611e90565b602082019050919050565b60006020820190508181036000830152611ef581611eb9565b9050919050565b6000611f078261184d565b9150611f128361184d565b925082821015611f2557611f24611c7b565b5b828203905092915050565b7f4f776e61626c653a206e6577206f776e657220697320746865207a65726f206160008201527f6464726573730000000000000000000000000000000000000000000000000000602082015250565b6000611f8c60268361173a565b9150611f9782611f30565b604082019050919050565b60006020820190508181036000830152611fbb81611f7f565b9050919050565b7f42455032303a207472616e736665722066726f6d20746865207a65726f20616460008201527f6472657373000000000000000000000000000000000000000000000000000000602082015250565b600061201e60258361173a565b915061202982611fc2565b604082019050919050565b6000602082019050818103600083015261204d81612011565b9050919050565b7f42455032303a207472616e7366657220746f20746865207a65726f206164647260008201527f6573730000000000000000000000000000000000000000000000000000000000602082015250565b60006120b060238361173a565b91506120bb82612054565b604082019050919050565b600060208201905081810360008301526120df816120a3565b905091905056fe42455032303a207472616e7366657220616d6f756e74206578636565647320616c6c6f77616e636542455032303a207472616e7366657220616d6f756e7420657863656564732062616c616e636542455032303a2064656372656173656420616c6c6f77616e63652062656c6f77207a65726fa2646970667358221220d67e486526834e634ba0a617eb1a86b1a6b0aa47c6eae00e0ded76a9ea21ec8e64736f6c63430008090033",
  "immutableReferences": {},
  "source": "// SPDX-License-Identifier: MIT\r\npragma solidity ^0.8.2;\r\n\r\nimport \"./BEP20.sol\";\r\nimport \"./SafeMath.sol\";\r\n\r\ncontract BEP20Detailed  {\r\n    string private _name;\r\n    string private _symbol;\r\n    uint8 private _decimals;\r\n\r\n    /**\r\n     * @dev Sets the values for `name`, `symbol`, and `decimals`. All three of\r\n     * these values are immutable: they can only be set once during\r\n     * construction.\r\n     */\r\n    constructor (string memory projectName, string memory tokenSymbol, uint8 TokenDecimals) {\r\n        _name        = projectName;\r\n        _symbol      = tokenSymbol;\r\n        _decimals    = TokenDecimals;\r\n    }\r\n\r\n    /**\r\n     * @dev Returns the name of the token.\r\n     */\r\n    function name() public view returns (string memory) {\r\n        return _name;\r\n    }\r\n\r\n    /**\r\n     * @dev Returns the symbol of the token, usually a shorter version of the\r\n     * name.\r\n     */\r\n    function symbol() public view returns (string memory) {\r\n        return _symbol;\r\n    }\r\n\r\n    /**\r\n     * @dev Returns the number of decimals used to get its user representation.\r\n     * For example, if `decimals` equals `2`, a balance of `505` tokens should\r\n     * be displayed to a user as `5,05` (`505 / 10 ** 2`).\r\n     *\r\n     * Tokens usually opt for a value of 18, imitating the relationship between\r\n     * Ether and Wei.\r\n     *\r\n     * NOTE: This information is only used for _display_ purposes: it in\r\n     * no way affects any of the arithmetic of the contract, including\r\n     * {IBEP20-balanceOf} and {IBEP20-transfer}.\r\n     */\r\n    function decimals() public view returns (uint8) {\r\n        return _decimals;\r\n    }\r\n}\r\n\r\ncontract MekaMiners is BEP20, BEP20Detailed {\r\n       using SafeMath for uint256;\r\n       \r\n    constructor() BEP20Detailed(\"MekaMiners\", \"MEKA\", 18) {\r\n        _mint(msg.sender, 200000000 * 10 ** decimals());\r\n    }\r\n\r\n    function pause() public onlyOwner {\r\n        _pause();\r\n    }\r\n\r\n    function unpause() public onlyOwner {\r\n        _unpause();\r\n    }\r\n\r\n    function mint(address to, uint256 amount) public onlyOwner {\r\n        _mint(to, amount);\r\n    }\r\n\r\n     function transfer(address _receiver, uint256 _amount) public override returns (bool success) {\r\n        require(_receiver != address(0)); \r\n\r\n        return BEP20.transfer(_receiver, _amount);\r\n    }\r\n\r\n    function transferFrom(address _from, address _receiver, uint256 _amount) public override  returns (bool) {\r\n        require(_from       != address(0), \"from can't be address zero\");\r\n        require(_receiver   != address(0), \"receiver can't be address zero\");\r\n        require(_amount     <= allowance(_from, msg.sender), \"amount must be less or equal the allowance\");\r\n\r\n        return BEP20.transferFrom(_from, _receiver, _amount);\r\n    }\r\n}",
  "sourcePath": "E:\\MekaMiners\\contracts\\MekaMiners.sol",
  "compiler": {
    "name": "solc",
    "version": "0.8.9+commit.e5eed63a.Emscripten.clang"
  },
  "schemaVersion": "3.4.3",
  "updatedAt": "2021-10-08T18:57:24.084Z",
  "networkType": "ethereum",
  "devdoc": {
    "kind": "dev",
    "methods": {
      "_pause()": {
        "details": "called by the owner to pause, triggers stopped state"
      },
      "_unpause()": {
        "details": "called by the owner to unpause, returns to normal state"
      },
      "allowance(address,address)": {
        "details": "See {IBEP20-allowance}."
      },
      "approve(address,uint256)": {
        "details": "See {IBEP20-approve}. Requirements: - `spender` cannot be the zero address."
      },
      "balanceOf(address)": {
        "details": "See {IBEP20-balanceOf}."
      },
      "decimals()": {
        "details": "Returns the number of decimals used to get its user representation. For example, if `decimals` equals `2`, a balance of `505` tokens should be displayed to a user as `5,05` (`505 / 10 ** 2`). Tokens usually opt for a value of 18, imitating the relationship between Ether and Wei. NOTE: This information is only used for _display_ purposes: it in no way affects any of the arithmetic of the contract, including {IBEP20-balanceOf} and {IBEP20-transfer}."
      },
      "decreaseAllowance(address,uint256)": {
        "details": "Atomically decreases the allowance granted to `spender` by the caller. This is an alternative to {approve} that can be used as a mitigation for problems described in {IBEP20-approve}. Emits an {Approval} event indicating the updated allowance. Requirements: - `spender` cannot be the zero address. - `spender` must have allowance for the caller of at least `subtractedValue`."
      },
      "increaseAllowance(address,uint256)": {
        "details": "Atomically increases the allowance granted to `spender` by the caller. This is an alternative to {approve} that can be used as a mitigation for problems described in {IBEP20-approve}. Emits an {Approval} event indicating the updated allowance. Requirements: - `spender` cannot be the zero address."
      },
      "isOwner()": {
        "details": "Returns true if the caller is the current owner."
      },
      "name()": {
        "details": "Returns the name of the token."
      },
      "owner()": {
        "details": "Returns the address of the current owner."
      },
      "renounceOwnership()": {
        "details": "Leaves the contract without owner. It will not be possible to call `onlyOwner` functions anymore. Can only be called by the current owner. NOTE: Renouncing ownership will leave the contract without an owner, thereby removing any functionality that is only available to the owner."
      },
      "symbol()": {
        "details": "Returns the symbol of the token, usually a shorter version of the name."
      },
      "totalSupply()": {
        "details": "See {IBEP20-totalSupply}."
      },
      "transferOwnership(address)": {
        "details": "Transfers ownership of the contract to a new account (`newOwner`). Can only be called by the current owner."
      }
    },
    "version": 1
  },
  "userdoc": {
    "kind": "user",
    "methods": {},
    "version": 1
  }
}