{
  "contractName": "MekaMiners",
  "abi": [
    {
      "inputs": [
        {
          "internalType": "address",
          "name": "feeReceiveAddress",
          "type": "address"
        }
      ],
      "stateMutability": "nonpayable",
      "type": "constructor"
    },
    {
      "anonymous": false,
      "inputs": [
        {
          "indexed": true,
          "internalType": "address",
          "name": "owner",
          "type": "address"
        },
        {
          "indexed": true,
          "internalType": "address",
          "name": "spender",
          "type": "address"
        },
        {
          "indexed": false,
          "internalType": "uint256",
          "name": "value",
          "type": "uint256"
        }
      ],
      "name": "Approval",
      "type": "event"
    },
    {
      "anonymous": false,
      "inputs": [
        {
          "indexed": false,
          "internalType": "address",
          "name": "from",
          "type": "address"
        },
        {
          "indexed": false,
          "internalType": "uint256",
          "name": "amount",
          "type": "uint256"
        }
      ],
      "name": "Deposit",
      "type": "event"
    },
    {
      "anonymous": false,
      "inputs": [
        {
          "indexed": true,
          "internalType": "address",
          "name": "previousOwner",
          "type": "address"
        },
        {
          "indexed": true,
          "internalType": "address",
          "name": "newOwner",
          "type": "address"
        }
      ],
      "name": "OwnershipTransferred",
      "type": "event"
    },
    {
      "anonymous": false,
      "inputs": [],
      "name": "Pause",
      "type": "event"
    },
    {
      "anonymous": false,
      "inputs": [
        {
          "indexed": true,
          "internalType": "address",
          "name": "from",
          "type": "address"
        },
        {
          "indexed": true,
          "internalType": "address",
          "name": "to",
          "type": "address"
        },
        {
          "indexed": false,
          "internalType": "uint256",
          "name": "value",
          "type": "uint256"
        }
      ],
      "name": "Transfer",
      "type": "event"
    },
    {
      "anonymous": false,
      "inputs": [],
      "name": "Unpause",
      "type": "event"
    },
    {
      "inputs": [],
      "name": "_pause",
      "outputs": [
        {
          "internalType": "bool",
          "name": "",
          "type": "bool"
        }
      ],
      "stateMutability": "nonpayable",
      "type": "function"
    },
    {
      "inputs": [],
      "name": "_unpause",
      "outputs": [
        {
          "internalType": "bool",
          "name": "",
          "type": "bool"
        }
      ],
      "stateMutability": "nonpayable",
      "type": "function"
    },
    {
      "inputs": [
        {
          "internalType": "address",
          "name": "owner",
          "type": "address"
        },
        {
          "internalType": "address",
          "name": "spender",
          "type": "address"
        }
      ],
      "name": "allowance",
      "outputs": [
        {
          "internalType": "uint256",
          "name": "",
          "type": "uint256"
        }
      ],
      "stateMutability": "view",
      "type": "function",
      "constant": true
    },
    {
      "inputs": [
        {
          "internalType": "address",
          "name": "spender",
          "type": "address"
        },
        {
          "internalType": "uint256",
          "name": "amount",
          "type": "uint256"
        }
      ],
      "name": "approve",
      "outputs": [
        {
          "internalType": "bool",
          "name": "",
          "type": "bool"
        }
      ],
      "stateMutability": "nonpayable",
      "type": "function"
    },
    {
      "inputs": [
        {
          "internalType": "address",
          "name": "account",
          "type": "address"
        }
      ],
      "name": "balanceOf",
      "outputs": [
        {
          "internalType": "uint256",
          "name": "",
          "type": "uint256"
        }
      ],
      "stateMutability": "view",
      "type": "function",
      "constant": true
    },
    {
      "inputs": [],
      "name": "decimals",
      "outputs": [
        {
          "internalType": "uint8",
          "name": "",
          "type": "uint8"
        }
      ],
      "stateMutability": "view",
      "type": "function",
      "constant": true
    },
    {
      "inputs": [
        {
          "internalType": "address",
          "name": "spender",
          "type": "address"
        },
        {
          "internalType": "uint256",
          "name": "subtractedValue",
          "type": "uint256"
        }
      ],
      "name": "decreaseAllowance",
      "outputs": [
        {
          "internalType": "bool",
          "name": "",
          "type": "bool"
        }
      ],
      "stateMutability": "nonpayable",
      "type": "function"
    },
    {
      "inputs": [
        {
          "internalType": "address",
          "name": "spender",
          "type": "address"
        },
        {
          "internalType": "uint256",
          "name": "addedValue",
          "type": "uint256"
        }
      ],
      "name": "increaseAllowance",
      "outputs": [
        {
          "internalType": "bool",
          "name": "",
          "type": "bool"
        }
      ],
      "stateMutability": "nonpayable",
      "type": "function"
    },
    {
      "inputs": [],
      "name": "isOwner",
      "outputs": [
        {
          "internalType": "bool",
          "name": "",
          "type": "bool"
        }
      ],
      "stateMutability": "view",
      "type": "function",
      "constant": true
    },
    {
      "inputs": [],
      "name": "name",
      "outputs": [
        {
          "internalType": "string",
          "name": "",
          "type": "string"
        }
      ],
      "stateMutability": "view",
      "type": "function",
      "constant": true
    },
    {
      "inputs": [],
      "name": "owner",
      "outputs": [
        {
          "internalType": "address",
          "name": "",
          "type": "address"
        }
      ],
      "stateMutability": "view",
      "type": "function",
      "constant": true
    },
    {
      "inputs": [],
      "name": "paused",
      "outputs": [
        {
          "internalType": "bool",
          "name": "",
          "type": "bool"
        }
      ],
      "stateMutability": "view",
      "type": "function",
      "constant": true
    },
    {
      "inputs": [],
      "name": "renounceOwnership",
      "outputs": [],
      "stateMutability": "nonpayable",
      "type": "function"
    },
    {
      "inputs": [],
      "name": "symbol",
      "outputs": [
        {
          "internalType": "string",
          "name": "",
          "type": "string"
        }
      ],
      "stateMutability": "view",
      "type": "function",
      "constant": true
    },
    {
      "inputs": [],
      "name": "totalSupply",
      "outputs": [
        {
          "internalType": "uint256",
          "name": "",
          "type": "uint256"
        }
      ],
      "stateMutability": "view",
      "type": "function",
      "constant": true
    },
    {
      "inputs": [
        {
          "internalType": "address",
          "name": "newOwner",
          "type": "address"
        }
      ],
      "name": "transferOwnership",
      "outputs": [],
      "stateMutability": "nonpayable",
      "type": "function"
    },
    {
      "inputs": [
        {
          "internalType": "uint8",
          "name": "tradeCooldown",
          "type": "uint8"
        }
      ],
      "name": "setCooldownForTrades",
      "outputs": [],
      "stateMutability": "nonpayable",
      "type": "function"
    },
    {
      "inputs": [
        {
          "internalType": "uint8",
          "name": "_fee",
          "type": "uint8"
        }
      ],
      "name": "setBuyFee",
      "outputs": [],
      "stateMutability": "nonpayable",
      "type": "function"
    },
    {
      "inputs": [
        {
          "internalType": "uint8",
          "name": "_fee",
          "type": "uint8"
        }
      ],
      "name": "setSellFee",
      "outputs": [],
      "stateMutability": "nonpayable",
      "type": "function"
    },
    {
      "inputs": [
        {
          "internalType": "address",
          "name": "feeReceiveAddress",
          "type": "address"
        }
      ],
      "name": "setFeeReceiveAddress",
      "outputs": [],
      "stateMutability": "nonpayable",
      "type": "function"
    },
    {
      "inputs": [
        {
          "internalType": "address",
          "name": "newAddress",
          "type": "address"
        }
      ],
      "name": "setPCSRouterdAddress",
      "outputs": [],
      "stateMutability": "nonpayable",
      "type": "function"
    },
    {
      "inputs": [
        {
          "internalType": "address",
          "name": "_addr",
          "type": "address"
        },
        {
          "internalType": "bool",
          "name": "enable",
          "type": "bool"
        }
      ],
      "name": "setLPAddress",
      "outputs": [],
      "stateMutability": "nonpayable",
      "type": "function"
    },
    {
      "inputs": [],
      "name": "getFees",
      "outputs": [
        {
          "internalType": "uint256",
          "name": "buyFee",
          "type": "uint256"
        },
        {
          "internalType": "uint256",
          "name": "sellFee",
          "type": "uint256"
        }
      ],
      "stateMutability": "view",
      "type": "function",
      "constant": true
    },
    {
      "inputs": [
        {
          "internalType": "address",
          "name": "_addr",
          "type": "address"
        }
      ],
      "name": "isAddressLP",
      "outputs": [
        {
          "internalType": "bool",
          "name": "",
          "type": "bool"
        }
      ],
      "stateMutability": "view",
      "type": "function",
      "constant": true
    },
    {
      "inputs": [],
      "name": "getFeeAddress",
      "outputs": [
        {
          "internalType": "address",
          "name": "fee",
          "type": "address"
        }
      ],
      "stateMutability": "view",
      "type": "function",
      "constant": true
    },
    {
      "inputs": [
        {
          "internalType": "address",
          "name": "addr",
          "type": "address"
        }
      ],
      "name": "isBlacklisted",
      "outputs": [
        {
          "internalType": "bool",
          "name": "",
          "type": "bool"
        }
      ],
      "stateMutability": "view",
      "type": "function",
      "constant": true
    },
    {
      "inputs": [],
      "name": "updateTokenLock",
      "outputs": [],
      "stateMutability": "nonpayable",
      "type": "function"
    },
    {
      "inputs": [],
      "name": "updateApplyFee",
      "outputs": [],
      "stateMutability": "nonpayable",
      "type": "function"
    },
    {
      "inputs": [
        {
          "internalType": "address[]",
          "name": "addr",
          "type": "address[]"
        }
      ],
      "name": "bulkBlackList",
      "outputs": [],
      "stateMutability": "nonpayable",
      "type": "function"
    },
    {
      "inputs": [
        {
          "internalType": "address",
          "name": "addr",
          "type": "address"
        },
        {
          "internalType": "bool",
          "name": "blacklisted",
          "type": "bool"
        }
      ],
      "name": "updateBlackList",
      "outputs": [],
      "stateMutability": "nonpayable",
      "type": "function"
    },
    {
      "inputs": [
        {
          "internalType": "address",
          "name": "_receiver",
          "type": "address"
        },
        {
          "internalType": "uint256",
          "name": "_amount",
          "type": "uint256"
        }
      ],
      "name": "transfer",
      "outputs": [
        {
          "internalType": "bool",
          "name": "success",
          "type": "bool"
        }
      ],
      "stateMutability": "nonpayable",
      "type": "function"
    },
    {
      "inputs": [
        {
          "internalType": "address",
          "name": "_from",
          "type": "address"
        },
        {
          "internalType": "address",
          "name": "_receiver",
          "type": "address"
        },
        {
          "internalType": "uint256",
          "name": "_amount",
          "type": "uint256"
        }
      ],
      "name": "transferFrom",
      "outputs": [
        {
          "internalType": "bool",
          "name": "",
          "type": "bool"
        }
      ],
      "stateMutability": "nonpayable",
      "type": "function"
    }
  ],
  "bytecode": "0x60806040526000805460ff60a01b191690556007805461ffff61ffff60b01b011916770101000000000000000000000000000000000000000003031790553480156200004a57600080fd5b50604051620020be380380620020be8339810160408190526200006d91620003e6565b6040518060400160405280600a8152602001694d656b614d696e65727360b01b815250604051806040016040528060048152602001634d454b4160e01b8152506000620000bf620001c560201b60201c565b600080546001600160a01b0319166001600160a01b0383169081178255604051929350917f8be0079c531659141344cd1fd0a4f28419497f9722a3daafe3b4186f6b6457e0908290a35081516200011e90600490602085019062000340565b5080516200013490600590602084019062000340565b5050600b805460ff1916601e17905550600780546001600160a01b038316620100000262010000600160b01b0319909116179055600880546001600160a01b031916739ac64cc6e4415144c455bd8e4837fea55603e5c3179055620001be6200019a3390565b620001a86012600a62000524565b620001b890630bebc2006200053c565b620001c9565b50620005b6565b3390565b6001600160a01b038216620002255760405162461bcd60e51b815260206004820152601f60248201527f42455032303a206d696e7420746f20746865207a65726f20616464726573730060448201526064015b60405180910390fd5b6200024181600354620002d460201b620011421790919060201c565b6003556001600160a01b0382166000908152600160209081526040909120546200027691839062001142620002d4821b17901c565b6001600160a01b0383166000818152600160205260408082209390935591519091907fddf252ad1be2c89b69c2b068fc378daa952ba7f163c4a11628f55a4df523b3ef90620002c89085815260200190565b60405180910390a35050565b600080620002e383856200055e565b905083811015620003375760405162461bcd60e51b815260206004820152601b60248201527f536166654d6174683a206164646974696f6e206f766572666c6f77000000000060448201526064016200021c565b90505b92915050565b8280546200034e9062000579565b90600052602060002090601f016020900481019282620003725760008555620003bd565b82601f106200038d57805160ff1916838001178555620003bd565b82800160010185558215620003bd579182015b82811115620003bd578251825591602001919060010190620003a0565b50620003cb929150620003cf565b5090565b5b80821115620003cb5760008155600101620003d0565b600060208284031215620003f957600080fd5b81516001600160a01b03811681146200033757600080fd5b634e487b7160e01b600052601160045260246000fd5b600181815b80851115620004685781600019048211156200044c576200044c62000411565b808516156200045a57918102915b93841c93908002906200042c565b509250929050565b60008262000481575060016200033a565b8162000490575060006200033a565b8160018114620004a95760028114620004b457620004d4565b60019150506200033a565b60ff841115620004c857620004c862000411565b50506001821b6200033a565b5060208310610133831016604e8410600b8410161715620004f9575081810a6200033a565b62000505838362000427565b80600019048211156200051c576200051c62000411565b029392505050565b60006200053560ff84168362000470565b9392505050565b600081600019048311821515161562000559576200055962000411565b500290565b6000821982111562000574576200057462000411565b500190565b600181811c908216806200058e57607f821691505b60208210811415620005b057634e487b7160e01b600052602260045260246000fd5b50919050565b611af880620005c66000396000f3fe608060405234801561001057600080fd5b50600436106101f05760003560e01c80637edf9d6c1161010f578063db8d55f1116100a2578063f2fde38b11610071578063f2fde38b14610465578063fc2eb88914610478578063fc8234cb1461048b578063fe575a871461049357600080fd5b8063db8d55f1146103e4578063dd62ed3e14610406578063e68f4f631461043f578063eedb6cbf1461045257600080fd5b806395d89b41116100de57806395d89b41146103a3578063a457c2d7146103ab578063a9059cbb146103be578063b8e255be146103d157600080fd5b80637edf9d6c1461034057806386cb929c1461036c5780638da5cb5b1461037f5780638f32d59b1461039057600080fd5b8063320b2ad9116101875780635c975abb116101565780635c975abb146102e857806370a08231146102fc578063715018a6146103255780637ae8c32a1461032d57600080fd5b8063320b2ad91461028f5780633950935114610297578063408973ec146102aa5780634e7ceacb146102bd57600080fd5b80631574567b116101c35780631574567b1461024857806318160ddd1461025b57806323b872dd1461026d578063313ce5671461028057600080fd5b806301ff479a146101f557806306fdde03146101ff578063095ea7b31461021d5780630a9d023414610240575b600080fd5b6101fd6104a6565b005b6102076104fa565b60405161021491906116ea565b60405180910390f35b61023061022b366004611756565b61058c565b6040519015158152602001610214565b6101fd6105b8565b6101fd610256366004611780565b610603565b6003545b604051908152602001610214565b61023061027b3660046117a3565b610643565b60405160128152602001610214565b61023061087c565b6102306102a5366004611756565b6108fe565b6101fd6102b83660046117df565b610950565b6007546201000090046001600160a01b03165b6040516001600160a01b039091168152602001610214565b60005461023090600160a01b900460ff1681565b61025f61030a36600461181b565b6001600160a01b031660009081526001602052604090205490565b6101fd6109f7565b6101fd61033b366004611780565b610a6b565b61023061034e36600461181b565b6001600160a01b031660009081526009602052604090205460ff1690565b6101fd61037a36600461181b565b610ab1565b6000546001600160a01b03166102d0565b6000546001600160a01b03163314610230565b610207610b57565b6102306103b9366004611756565b610b66565b6102306103cc366004611756565b610bcb565b6101fd6103df366004611780565b610e61565b6007546040805160ff8084168252610100909304909216602083015201610214565b61025f610414366004611836565b6001600160a01b03918216600090815260026020908152604080832093909416825291909152205490565b6101fd61044d36600461181b565b610ea1565b6101fd610460366004611869565b610f4d565b6101fd61047336600461181b565b610fee565b6101fd6104863660046117df565b611024565b610230611079565b6102306104a136600461181b565b6110f4565b6000546001600160a01b031633146104d95760405162461bcd60e51b81526004016104d0906118de565b60405180910390fd5b6007805460ff60b01b198116600160b01b9182900460ff1615909102179055565b60606004805461050990611913565b80601f016020809104026020016040519081016040528092919081815260200182805461053590611913565b80156105825780601f1061055757610100808354040283529160200191610582565b820191906000526020600020905b81548152906001019060200180831161056557829003601f168201915b5050505050905090565b60008054600160a01b900460ff16156105a457600080fd5b6105af3384846111a8565b50600192915050565b6000546001600160a01b031633146105e25760405162461bcd60e51b81526004016104d0906118de565b6007805460ff60b81b198116600160b81b9182900460ff1615909102179055565b6000546001600160a01b0316331461062d5760405162461bcd60e51b81526004016104d0906118de565b600b805460ff191660ff92909216919091179055565b60008054600160a01b900460ff161561065b57600080fd5b600754600160b81b900460ff16156106a75760405162461bcd60e51b815260206004820152600f60248201526e1d1c985b9cd9995c881b1bd8dad959608a1b60448201526064016104d0565b6001600160a01b03841660009081526006602052604090205460ff16156106e05760405162461bcd60e51b81526004016104d09061194e565b6001600160a01b03831660009081526006602052604090205460ff16156107195760405162461bcd60e51b81526004016104d09061194e565b6001600160a01b03831660009081526009602052604081205460ff16801561074f57506000546001600160a01b03868116911614155b1561085d57600b546107649060ff1642611991565b6001600160a01b038087166000908152600a60209081526040808320938916835292905220541080156107ca5750600b546107a29060ff1642611991565b6001600160a01b038086166000908152600a60209081526040808320938a1683529290522054105b6107e65760405162461bcd60e51b81526004016104d0906119a8565b6007546107fc908490610100900460ff166112cc565b905061081e85600760029054906101000a90046001600160a01b0316836112e7565b6001600160a01b038086166000818152600a60208181526040808420958a16845294815284832042908190559181528483209383529290925291909120555b610871858561086c8487611991565b6112e7565b506001949350505050565b600080546001600160a01b031633146108a75760405162461bcd60e51b81526004016104d0906118de565b600054600160a01b900460ff16156108be57600080fd5b6000805460ff60a01b1916600160a01b1781556040517f6985a02210a168e66602d3235cb6db0e70f92b3ba4d376a33c0f3d9434bff6259190a150600190565b60008054600160a01b900460ff161561091657600080fd5b3360008181526002602090815260408083206001600160a01b03881684529091529020546105af9190859061094b9086611142565b6111a8565b6000546001600160a01b0316331461097a5760405162461bcd60e51b81526004016104d0906118de565b6001600160a01b0382166109cc5760405162461bcd60e51b815260206004820152601960248201527845524332303a20496e76616c6964206c70206164647265737360381b60448201526064016104d0565b6001600160a01b03919091166000908152600960205260409020805460ff1916911515919091179055565b6000546001600160a01b03163314610a215760405162461bcd60e51b81526004016104d0906118de565b600080546040516001600160a01b03909116907f8be0079c531659141344cd1fd0a4f28419497f9722a3daafe3b4186f6b6457e0908390a3600080546001600160a01b0319169055565b6000546001600160a01b03163314610a955760405162461bcd60e51b81526004016104d0906118de565b6007805460ff9092166101000261ff0019909216919091179055565b6000546001600160a01b03163314610adb5760405162461bcd60e51b81526004016104d0906118de565b6001600160a01b038116610b2d5760405162461bcd60e51b815260206004820152601960248201527845524332303a20496e76616c6964206c70206164647265737360381b60448201526064016104d0565b600780546001600160a01b03909216620100000262010000600160b01b0319909216919091179055565b60606005805461050990611913565b60008054600160a01b900460ff1615610b7e57600080fd5b6105af338461094b85604051806060016040528060258152602001611a9e602591393360009081526002602090815260408083206001600160a01b038d168452909152902054919061138c565b60008054600160a01b900460ff1615610be357600080fd5b600754600160b81b900460ff1615610c2f5760405162461bcd60e51b815260206004820152600f60248201526e1d1c985b9cd9995c881b1bd8dad959608a1b60448201526064016104d0565b3360009081526006602052604090205460ff1615610c5f5760405162461bcd60e51b81526004016104d09061194e565b6001600160a01b03831660009081526006602052604090205460ff1615610c985760405162461bcd60e51b81526004016104d09061194e565b600754600090600160b01b900460ff168015610cdb5750610cb83361034e565b80610cdb57506001600160a01b03841660009081526009602052604090205460ff165b15610e43576000546001600160a01b03858116911614801590610d0c57506008546001600160a01b03858116911614155b15610dee576001600160a01b03841660009081526009602052604090205460ff16610d4757600754610d4290849060ff166112cc565b610d5d565b600754610d5d908490610100900460ff166112cc565b600b54909150610d709060ff1642611991565b336000908152600a602090815260408083206001600160a01b0389168452909152902054108015610dd25750600b54610dac9060ff1642611991565b6001600160a01b0385166000908152600a60209081526040808320338452909152902054105b610dee5760405162461bcd60e51b81526004016104d0906119a8565b610e0a336007546201000090046001600160a01b0316836113c6565b336000818152600a602081815260408084206001600160a01b038a16855282528084204290819055928252808420948452939052919020555b610e573385610e528487611991565b6113c6565b5060019392505050565b6000546001600160a01b03163314610e8b5760405162461bcd60e51b81526004016104d0906118de565b6007805460ff191660ff92909216919091179055565b6000546001600160a01b03163314610ecb5760405162461bcd60e51b81526004016104d0906118de565b6001600160a01b038116610f2b5760405162461bcd60e51b815260206004820152602160248201527f45524332303a20496e76616c69642070637320726f75746572206164647265736044820152607360f81b60648201526084016104d0565b600880546001600160a01b0319166001600160a01b0392909216919091179055565b6000546001600160a01b03163314610f775760405162461bcd60e51b81526004016104d0906118de565b60005b81811015610fe957600160066000858585818110610f9a57610f9a6119f2565b9050602002016020810190610faf919061181b565b6001600160a01b031681526020810191909152604001600020805460ff191691151591909117905580610fe181611a08565b915050610f7a565b505050565b6000546001600160a01b031633146110185760405162461bcd60e51b81526004016104d0906118de565b6110218161159f565b50565b6000546001600160a01b0316331461104e5760405162461bcd60e51b81526004016104d0906118de565b6001600160a01b03919091166000908152600660205260409020805460ff1916911515919091179055565b600080546001600160a01b031633146110a45760405162461bcd60e51b81526004016104d0906118de565b600054600160a01b900460ff166110ba57600080fd5b6000805460ff60a01b191681556040517f7805862f689e2f13df9f062ff482ad3ad112aca9e0847911ed832e158c525b339190a150600190565b600080546001600160a01b0316331461111f5760405162461bcd60e51b81526004016104d0906118de565b506001600160a01b03811660009081526006602052604090205460ff165b919050565b60008061114f8385611a23565b9050838110156111a15760405162461bcd60e51b815260206004820152601b60248201527f536166654d6174683a206164646974696f6e206f766572666c6f77000000000060448201526064016104d0565b9392505050565b6001600160a01b03831661120a5760405162461bcd60e51b8152602060048201526024808201527f42455032303a20617070726f76652066726f6d20746865207a65726f206164646044820152637265737360e01b60648201526084016104d0565b6001600160a01b03821661126b5760405162461bcd60e51b815260206004820152602260248201527f42455032303a20617070726f766520746f20746865207a65726f206164647265604482015261737360f01b60648201526084016104d0565b6001600160a01b0383811660008181526002602090815260408083209487168084529482529182902085905590518481527f8c5be1e5ebec7d5bd14f71427d1e84f3dd0314c0f7b2291e5b200ac8c7c3b925910160405180910390a3505050565b600060646112dd60ff841685611a3b565b6111a19190611a5a565b6112f28383836113c6565b6001600160a01b0383166000908152600260209081526040808320338452909152902054818110156113775760405162461bcd60e51b815260206004820152602860248201527f45524332303a207472616e7366657220616d6f756e74206578636565647320616044820152676c6c6f77616e636560c01b60648201526084016104d0565b611386843361094b848661165f565b50505050565b600081848411156113b05760405162461bcd60e51b81526004016104d091906116ea565b5060006113bd8486611991565b95945050505050565b6001600160a01b03831661142a5760405162461bcd60e51b815260206004820152602560248201527f45524332303a207472616e736665722066726f6d20746865207a65726f206164604482015264647265737360d81b60648201526084016104d0565b6001600160a01b03821661148c5760405162461bcd60e51b815260206004820152602360248201527f45524332303a207472616e7366657220746f20746865207a65726f206164647260448201526265737360e81b60648201526084016104d0565b6114978383836116a1565b6001600160a01b0383166000908152600160205260409020548181101561150f5760405162461bcd60e51b815260206004820152602660248201527f45524332303a207472616e7366657220616d6f756e7420657863656564732062604482015265616c616e636560d01b60648201526084016104d0565b6001600160a01b03808516600090815260016020526040808220858503905591851681529081208054849290611546908490611a23565b92505081905550826001600160a01b0316846001600160a01b03167fddf252ad1be2c89b69c2b068fc378daa952ba7f163c4a11628f55a4df523b3ef8460405161159291815260200190565b60405180910390a3611386565b6001600160a01b0381166116045760405162461bcd60e51b815260206004820152602660248201527f4f776e61626c653a206e6577206f776e657220697320746865207a65726f206160448201526564647265737360d01b60648201526084016104d0565b600080546040516001600160a01b03808516939216917f8be0079c531659141344cd1fd0a4f28419497f9722a3daafe3b4186f6b6457e091a3600080546001600160a01b0319166001600160a01b0392909216919091179055565b60006111a183836040518060400160405280601e81526020017f536166654d6174683a207375627472616374696f6e206f766572666c6f77000081525061138c565b306001600160a01b0316826001600160a01b03161415604051806060016040528060218152602001611a7d60219139906113865760405162461bcd60e51b81526004016104d091905b600060208083528351808285015260005b81811015611717578581018301518582016040015282016116fb565b81811115611729576000604083870101525b50601f01601f1916929092016040019392505050565b80356001600160a01b038116811461113d57600080fd5b6000806040838503121561176957600080fd5b6117728361173f565b946020939093013593505050565b60006020828403121561179257600080fd5b813560ff811681146111a157600080fd5b6000806000606084860312156117b857600080fd5b6117c18461173f565b92506117cf6020850161173f565b9150604084013590509250925092565b600080604083850312156117f257600080fd5b6117fb8361173f565b91506020830135801515811461181057600080fd5b809150509250929050565b60006020828403121561182d57600080fd5b6111a18261173f565b6000806040838503121561184957600080fd5b6118528361173f565b91506118606020840161173f565b90509250929050565b6000806020838503121561187c57600080fd5b823567ffffffffffffffff8082111561189457600080fd5b818501915085601f8301126118a857600080fd5b8135818111156118b757600080fd5b8660208260051b85010111156118cc57600080fd5b60209290920196919550909350505050565b6020808252818101527f4f776e61626c653a2063616c6c6572206973206e6f7420746865206f776e6572604082015260600190565b600181811c9082168061192757607f821691505b6020821081141561194857634e487b7160e01b600052602260045260246000fd5b50919050565b6020808252601390820152721859191c995cdccb589b1858dadb1a5cdd1959606a1b604082015260600190565b634e487b7160e01b600052601160045260246000fd5b6000828210156119a3576119a361197b565b500390565b6020808252602a908201527f4e6f20636f6e73656375746976652073656c6c7320616c6c6f7765642e20506c60408201526932b0b9b2903bb0b4ba1760b11b606082015260800190565b634e487b7160e01b600052603260045260246000fd5b6000600019821415611a1c57611a1c61197b565b5060010190565b60008219821115611a3657611a3661197b565b500190565b6000816000190483118215151615611a5557611a5561197b565b500290565b600082611a7757634e487b7160e01b600052601260045260246000fd5b50049056fe4e6f207472616e736665727320746f20636f6e747261637420616c6c6f7765642e42455032303a2064656372656173656420616c6c6f77616e63652062656c6f77207a65726fa2646970667358221220b310e78dfd1ae4188f0d4c4dd7dd7247043990d32f8219f07e4289df02d1760e64736f6c634300080b0033",
  "immutableReferences": {},
  "source": "// SPDX-License-Identifier: MIT\r\npragma solidity ^0.8.2;\r\n\r\nimport \"./BEP20.sol\";\r\nimport \"./SafeMath.sol\";\r\nimport \"./Ownable.sol\";\r\nimport \"./IERC721Enumerable.sol\";\r\n\r\ncontract MekaMiners is BEP20 {\r\n    using SafeMath for uint256;\r\n\r\n    mapping(address => bool) private banBlackList;\r\n    uint8 private _buyFee = 3;\r\n    uint8 private _sellFee = 3;\r\n    address private _feeReceiveAddress;\r\n    bool private _applyFee = true;\r\n    bool _isLockTransferForAntiBot = true;\r\n    address private _pancakeRouterAddress;\r\n    mapping(address => bool) _lpAddresses;\r\n    mapping(address => mapping(address => uint256)) private _lastTrade;\r\n\r\n    uint8 private _tradeCooldown;\r\n    event Deposit(address from, uint256 amount);\r\n\r\n    constructor(address feeReceiveAddress) BEP20(\"MekaMiners\", \"MEKA\") {\r\n        _tradeCooldown = 30;\r\n        _feeReceiveAddress = feeReceiveAddress;\r\n        _pancakeRouterAddress = 0x9Ac64Cc6e4415144C455BD8E4837Fea55603e5c3; //0x10ED43C718714eb63d5aA57B78B54704E256024E; prod router\r\n        _mint(_msgSender(), 200000000 * 10**decimals());\r\n    }\r\n\r\n    function setCooldownForTrades(uint8 tradeCooldown) external onlyOwner {\r\n        _tradeCooldown = tradeCooldown;\r\n    }\r\n\r\n    function setBuyFee(uint8 _fee) public onlyOwner {\r\n        _buyFee = _fee;\r\n    }\r\n\r\n    function setSellFee(uint8 _fee) public onlyOwner {\r\n        _sellFee = _fee;\r\n    }\r\n\r\n    function setFeeReceiveAddress(address feeReceiveAddress)\r\n        external\r\n        onlyOwner\r\n    {\r\n        require(feeReceiveAddress != address(0), \"ERC20: Invalid lp address\");\r\n        _feeReceiveAddress = feeReceiveAddress;\r\n    }\r\n\r\n    function setPCSRouterdAddress(address newAddress) public onlyOwner {\r\n        require(newAddress != address(0), \"ERC20: Invalid pcs router address\");\r\n        _pancakeRouterAddress = newAddress;\r\n    }\r\n\r\n    function setLPAddress(address _addr, bool enable) external onlyOwner {\r\n        require(_addr != address(0), \"ERC20: Invalid lp address\");\r\n        _lpAddresses[_addr] = enable;\r\n    }\r\n\r\n    function getFees() external view returns (uint256 buyFee, uint256 sellFee) {\r\n        return (_buyFee, _sellFee);\r\n    }\r\n\r\n    function isAddressLP(address _addr) public view returns (bool) {\r\n        return _lpAddresses[_addr];\r\n    }\r\n\r\n    function getFeeAddress() external view returns (address fee) {\r\n        return _feeReceiveAddress;\r\n    }\r\n\r\n    function isBlacklisted(address addr)\r\n        external\r\n        view\r\n        onlyOwner\r\n        returns (bool)\r\n    {\r\n        return banBlackList[addr];\r\n    }\r\n\r\n    function updateTokenLock() external onlyOwner {\r\n        _isLockTransferForAntiBot = !_isLockTransferForAntiBot;\r\n    }\r\n\r\n    function updateApplyFee() external onlyOwner {\r\n        _applyFee = !_applyFee;\r\n    }\r\n\r\n    function bulkBlackList(address[] calldata addr) external onlyOwner {\r\n        for (uint256 i = 0; i < addr.length; i++) {\r\n            banBlackList[addr[i]] = true;\r\n        }\r\n    }\r\n\r\n    function updateBlackList(address addr, bool blacklisted)\r\n        external\r\n        onlyOwner\r\n    {\r\n        banBlackList[addr] = blacklisted;\r\n    }\r\n\r\n    function transfer(address _receiver, uint256 _amount)\r\n        public\r\n        override\r\n        whenNotPaused\r\n        returns (bool success)\r\n    {\r\n        require(!_isLockTransferForAntiBot, \"transfer locked\");\r\n        require(!banBlackList[_msgSender()], \"address-blacklisted\");\r\n        require(!banBlackList[_receiver], \"address-blacklisted\");\r\n        uint256 feeAmount = 0;\r\n        if (\r\n            _applyFee && (isAddressLP(_msgSender()) || isAddressLP(_receiver))\r\n        ) {\r\n            if (_receiver != owner() && _receiver != _pancakeRouterAddress) {\r\n                feeAmount = isAddressLP(_receiver)\r\n                    ? computeCut(_amount, _sellFee)\r\n                    : computeCut(_amount, _buyFee);\r\n\r\n                require(\r\n                    (_lastTrade[_msgSender()][_receiver] <\r\n                        (block.timestamp - _tradeCooldown)) &&\r\n                        (_lastTrade[_receiver][_msgSender()] <\r\n                            (block.timestamp - _tradeCooldown)),\r\n                    \"No consecutive sells allowed. Please wait.\"\r\n                );\r\n            }\r\n\r\n            _transfer(_msgSender(), _feeReceiveAddress, feeAmount);\r\n\r\n            _lastTrade[_msgSender()][_receiver] = block.timestamp;\r\n            _lastTrade[_receiver][_msgSender()] = block.timestamp;\r\n        }\r\n\r\n        _transfer(_msgSender(), _receiver, _amount - feeAmount);\r\n\r\n        return true;\r\n    }\r\n\r\n    function transferFrom(\r\n        address _from,\r\n        address _receiver,\r\n        uint256 _amount\r\n    ) public override whenNotPaused returns (bool) {\r\n        require(!_isLockTransferForAntiBot, \"transfer locked\");\r\n        require(!banBlackList[_from], \"address-blacklisted\");\r\n        require(!banBlackList[_receiver], \"address-blacklisted\");\r\n        uint256 _fee = 0;\r\n\r\n        if (isAddressLP(_receiver) && _from != owner()) {\r\n            require(\r\n                (_lastTrade[_from][_receiver] <\r\n                    (block.timestamp - _tradeCooldown)) &&\r\n                    (_lastTrade[_receiver][_from] <\r\n                        (block.timestamp - _tradeCooldown)),\r\n                \"No consecutive sells allowed. Please wait.\"\r\n            );\r\n            _fee = computeCut(_amount, _sellFee);\r\n            super._transferFrom(_from, _feeReceiveAddress, _fee);\r\n            _lastTrade[_from][_receiver] = block.timestamp;\r\n            _lastTrade[_receiver][_from] = block.timestamp;\r\n        }\r\n\r\n        super._transferFrom(_from, _receiver, _amount - _fee);\r\n\r\n        return true;\r\n    }\r\n\r\n    function computeCut(uint256 amount, uint8 _fee)\r\n        private\r\n        pure\r\n        returns (uint256)\r\n    {\r\n        return (amount * _fee) / 100;\r\n    }\r\n\r\n    function isContract(address _address) private view returns (bool) {\r\n        uint32 size;\r\n        assembly {\r\n            size := extcodesize(_address)\r\n        }\r\n\r\n        return (size > 0);\r\n    }\r\n\r\n    function _beforeTokenTransfer(\r\n        address _from,\r\n        address _to,\r\n        uint256 _amount\r\n    ) internal override {\r\n        require(\r\n            _to != address(this),\r\n            string(\"No transfers to contract allowed.\")\r\n        );\r\n        super._beforeTokenTransfer(_from, _to, _amount);\r\n    }\r\n}\r\n",
  "sourcePath": "E:\\MekaMiners\\contracts\\MekaMiners.sol",
  "compiler": {
    "name": "solc",
    "version": "0.8.11+commit.d7f03943.Emscripten.clang"
  },
  "schemaVersion": "3.4.3",
  "updatedAt": "2022-01-18T23:39:32.555Z",
  "networkType": "ethereum",
  "devdoc": {
    "kind": "dev",
    "methods": {
      "_pause()": {
        "details": "called by the owner to pause, triggers stopped state"
      },
      "_unpause()": {
        "details": "called by the owner to unpause, returns to normal state"
      },
      "allowance(address,address)": {
        "details": "See {IBEP20-allowance}."
      },
      "approve(address,uint256)": {
        "details": "See {IBEP20-approve}. Requirements: - `spender` cannot be the zero address."
      },
      "balanceOf(address)": {
        "details": "See {IBEP20-balanceOf}."
      },
      "decimals()": {
        "details": "Returns the number of decimals used to get its user representation. For example, if `decimals` equals `2`, a balance of `505` tokens should be displayed to a user as `5.05` (`505 / 10 ** 2`). Tokens usually opt for a value of 18, imitating the relationship between Ether and Wei. This is the value {ERC20} uses, unless this function is overridden; NOTE: This information is only used for _display_ purposes: it in no way affects any of the arithmetic of the contract, including {IERC20-balanceOf} and {IERC20-transfer}."
      },
      "decreaseAllowance(address,uint256)": {
        "details": "Atomically decreases the allowance granted to `spender` by the caller. This is an alternative to {approve} that can be used as a mitigation for problems described in {IBEP20-approve}. Emits an {Approval} event indicating the updated allowance. Requirements: - `spender` cannot be the zero address. - `spender` must have allowance for the caller of at least `subtractedValue`."
      },
      "increaseAllowance(address,uint256)": {
        "details": "Atomically increases the allowance granted to `spender` by the caller. This is an alternative to {approve} that can be used as a mitigation for problems described in {IBEP20-approve}. Emits an {Approval} event indicating the updated allowance. Requirements: - `spender` cannot be the zero address."
      },
      "isOwner()": {
        "details": "Returns true if the caller is the current owner."
      },
      "name()": {
        "details": "Returns the name of the token."
      },
      "owner()": {
        "details": "Returns the address of the current owner."
      },
      "renounceOwnership()": {
        "details": "Leaves the contract without owner. It will not be possible to call `onlyOwner` functions anymore. Can only be called by the current owner. NOTE: Renouncing ownership will leave the contract without an owner, thereby removing any functionality that is only available to the owner."
      },
      "symbol()": {
        "details": "Returns the symbol of the token, usually a shorter version of the name."
      },
      "totalSupply()": {
        "details": "See {IBEP20-totalSupply}."
      },
      "transferOwnership(address)": {
        "details": "Transfers ownership of the contract to a new account (`newOwner`). Can only be called by the current owner."
      }
    },
    "version": 1
  },
  "userdoc": {
    "kind": "user",
    "methods": {},
    "version": 1
  }
}