{
  "contractName": "MekaDeployer",
  "abi": [
    {
      "inputs": [
        {
          "internalType": "address",
          "name": "meka",
          "type": "address"
        },
        {
          "internalType": "address",
          "name": "robotCore",
          "type": "address"
        },
        {
          "internalType": "address",
          "name": "pieceCore",
          "type": "address"
        }
      ],
      "stateMutability": "nonpayable",
      "type": "constructor"
    },
    {
      "anonymous": false,
      "inputs": [
        {
          "indexed": false,
          "internalType": "address",
          "name": "receiver",
          "type": "address"
        },
        {
          "indexed": false,
          "internalType": "uint256",
          "name": "amount",
          "type": "uint256"
        }
      ],
      "name": "Deposit",
      "type": "event"
    },
    {
      "anonymous": false,
      "inputs": [
        {
          "indexed": true,
          "internalType": "address",
          "name": "previousOwner",
          "type": "address"
        },
        {
          "indexed": true,
          "internalType": "address",
          "name": "newOwner",
          "type": "address"
        }
      ],
      "name": "OwnershipTransferred",
      "type": "event"
    },
    {
      "anonymous": false,
      "inputs": [
        {
          "indexed": false,
          "internalType": "address",
          "name": "receiver",
          "type": "address"
        },
        {
          "indexed": false,
          "internalType": "uint256",
          "name": "amount",
          "type": "uint256"
        }
      ],
      "name": "Withdraw",
      "type": "event"
    },
    {
      "inputs": [],
      "name": "_mekaAddress",
      "outputs": [
        {
          "internalType": "address",
          "name": "",
          "type": "address"
        }
      ],
      "stateMutability": "view",
      "type": "function",
      "constant": true
    },
    {
      "inputs": [],
      "name": "_minConversion",
      "outputs": [
        {
          "internalType": "uint256",
          "name": "",
          "type": "uint256"
        }
      ],
      "stateMutability": "view",
      "type": "function",
      "constant": true
    },
    {
      "inputs": [],
      "name": "_pieceCoreAddress",
      "outputs": [
        {
          "internalType": "address",
          "name": "",
          "type": "address"
        }
      ],
      "stateMutability": "view",
      "type": "function",
      "constant": true
    },
    {
      "inputs": [],
      "name": "_robotCoreAddress",
      "outputs": [
        {
          "internalType": "address",
          "name": "",
          "type": "address"
        }
      ],
      "stateMutability": "view",
      "type": "function",
      "constant": true
    },
    {
      "inputs": [],
      "name": "isOwner",
      "outputs": [
        {
          "internalType": "bool",
          "name": "",
          "type": "bool"
        }
      ],
      "stateMutability": "view",
      "type": "function",
      "constant": true
    },
    {
      "inputs": [],
      "name": "owner",
      "outputs": [
        {
          "internalType": "address",
          "name": "",
          "type": "address"
        }
      ],
      "stateMutability": "view",
      "type": "function",
      "constant": true
    },
    {
      "inputs": [],
      "name": "renounceOwnership",
      "outputs": [],
      "stateMutability": "nonpayable",
      "type": "function"
    },
    {
      "inputs": [
        {
          "internalType": "address",
          "name": "newOwner",
          "type": "address"
        }
      ],
      "name": "transferOwnership",
      "outputs": [],
      "stateMutability": "nonpayable",
      "type": "function"
    },
    {
      "inputs": [
        {
          "internalType": "address",
          "name": "robotCore",
          "type": "address"
        }
      ],
      "name": "setRobotddress",
      "outputs": [],
      "stateMutability": "nonpayable",
      "type": "function"
    },
    {
      "inputs": [
        {
          "internalType": "address",
          "name": "pieceCore",
          "type": "address"
        }
      ],
      "name": "setPieceAddress",
      "outputs": [],
      "stateMutability": "nonpayable",
      "type": "function"
    },
    {
      "inputs": [
        {
          "internalType": "address",
          "name": "meka",
          "type": "address"
        }
      ],
      "name": "setMekaMinersAddress",
      "outputs": [],
      "stateMutability": "nonpayable",
      "type": "function"
    },
    {
      "inputs": [
        {
          "internalType": "address",
          "name": "signatureAddress",
          "type": "address"
        }
      ],
      "name": "setSignatureAddress",
      "outputs": [],
      "stateMutability": "nonpayable",
      "type": "function"
    },
    {
      "inputs": [
        {
          "internalType": "uint256",
          "name": "amount",
          "type": "uint256"
        }
      ],
      "name": "setMekaConversionRate",
      "outputs": [],
      "stateMutability": "nonpayable",
      "type": "function"
    },
    {
      "inputs": [],
      "name": "getSignatureAddress",
      "outputs": [
        {
          "internalType": "address",
          "name": "",
          "type": "address"
        }
      ],
      "stateMutability": "view",
      "type": "function",
      "constant": true
    },
    {
      "inputs": [
        {
          "internalType": "address",
          "name": "_receiver",
          "type": "address"
        },
        {
          "internalType": "uint256",
          "name": "_amount",
          "type": "uint256"
        },
        {
          "internalType": "uint256",
          "name": "_nonce",
          "type": "uint256"
        },
        {
          "internalType": "bytes",
          "name": "_signature",
          "type": "bytes"
        }
      ],
      "name": "convertToMeka",
      "outputs": [],
      "stateMutability": "nonpayable",
      "type": "function"
    },
    {
      "inputs": [
        {
          "internalType": "uint256",
          "name": "_amount",
          "type": "uint256"
        },
        {
          "internalType": "uint256",
          "name": "_nonce",
          "type": "uint256"
        },
        {
          "internalType": "bytes",
          "name": "_signature",
          "type": "bytes"
        }
      ],
      "name": "convertFromMeka",
      "outputs": [],
      "stateMutability": "nonpayable",
      "type": "function"
    },
    {
      "inputs": [
        {
          "internalType": "address",
          "name": "_owner",
          "type": "address"
        },
        {
          "internalType": "uint256",
          "name": "_robotId",
          "type": "uint256"
        },
        {
          "internalType": "uint256",
          "name": "_pieceId",
          "type": "uint256"
        },
        {
          "internalType": "uint8",
          "name": "_pieceType",
          "type": "uint8"
        },
        {
          "internalType": "uint256",
          "name": "_amount",
          "type": "uint256"
        },
        {
          "internalType": "uint256",
          "name": "_nonce",
          "type": "uint256"
        },
        {
          "internalType": "bytes",
          "name": "_signature",
          "type": "bytes"
        }
      ],
      "name": "attachToRobot",
      "outputs": [],
      "stateMutability": "nonpayable",
      "type": "function"
    },
    {
      "inputs": [
        {
          "internalType": "uint256",
          "name": "_amount",
          "type": "uint256"
        },
        {
          "internalType": "uint256",
          "name": "_nonce",
          "type": "uint256"
        },
        {
          "internalType": "bool",
          "name": "_withOre",
          "type": "bool"
        },
        {
          "internalType": "string",
          "name": "_tokenURI",
          "type": "string"
        },
        {
          "internalType": "bytes",
          "name": "_signature",
          "type": "bytes"
        }
      ],
      "name": "createRobot",
      "outputs": [],
      "stateMutability": "nonpayable",
      "type": "function"
    },
    {
      "inputs": [
        {
          "internalType": "uint256",
          "name": "_amount",
          "type": "uint256"
        },
        {
          "internalType": "uint256",
          "name": "_nonce",
          "type": "uint256"
        },
        {
          "internalType": "bool",
          "name": "_fromFarm",
          "type": "bool"
        },
        {
          "internalType": "string",
          "name": "_tokenURI",
          "type": "string"
        },
        {
          "internalType": "bytes",
          "name": "_signature",
          "type": "bytes"
        }
      ],
      "name": "createPiece",
      "outputs": [],
      "stateMutability": "nonpayable",
      "type": "function"
    },
    {
      "inputs": [],
      "name": "getBalance",
      "outputs": [
        {
          "internalType": "uint256",
          "name": "",
          "type": "uint256"
        }
      ],
      "stateMutability": "view",
      "type": "function",
      "constant": true
    },
    {
      "inputs": [],
      "name": "withdraw",
      "outputs": [],
      "stateMutability": "nonpayable",
      "type": "function"
    },
    {
      "inputs": [
        {
          "internalType": "address",
          "name": "_to",
          "type": "address"
        },
        {
          "internalType": "uint256",
          "name": "_amount",
          "type": "uint256"
        },
        {
          "internalType": "uint256",
          "name": "_nonce",
          "type": "uint256"
        }
      ],
      "name": "getMessageHash",
      "outputs": [
        {
          "internalType": "bytes32",
          "name": "",
          "type": "bytes32"
        }
      ],
      "stateMutability": "pure",
      "type": "function",
      "constant": true
    },
    {
      "inputs": [
        {
          "internalType": "address",
          "name": "_to",
          "type": "address"
        },
        {
          "internalType": "uint256",
          "name": "_amount",
          "type": "uint256"
        },
        {
          "internalType": "uint256",
          "name": "_nonce",
          "type": "uint256"
        },
        {
          "internalType": "bytes",
          "name": "_signature",
          "type": "bytes"
        }
      ],
      "name": "verify",
      "outputs": [
        {
          "internalType": "bool",
          "name": "",
          "type": "bool"
        }
      ],
      "stateMutability": "view",
      "type": "function",
      "constant": true
    }
  ],
  "bytecode": "0x60806040523480156200001157600080fd5b50604051620016393803806200163983398101604081905262000034916200010e565b600080546001600160a01b031916339081178255604051909182917f8be0079c531659141344cd1fd0a4f28419497f9722a3daafe3b4186f6b6457e0908290a350600180546001600160a01b0319166001600160a01b038516179055620000a36000546001600160a01b031690565b600280546001600160a01b03199081166001600160a01b03938416179091556003805482169483169490941790935560048054909316911617905550678ac7230489e8000060055562000158565b80516001600160a01b03811681146200010957600080fd5b919050565b6000806000606084860312156200012457600080fd5b6200012f84620000f1565b92506200013f60208501620000f1565b91506200014f60408501620000f1565b90509250925092565b6114d180620001686000396000f3fe608060405234801561001057600080fd5b506004361061014d5760003560e01c80638da5cb5b116100c3578063bed1a3c71161007c578063bed1a3c71461029a578063d2b0737b146102ad578063e7d90c73146102c0578063f2fde38b146102d3578063f7b1136f146102e6578063f9cdfbcc146102f957600080fd5b80638da5cb5b1461023f5780638f32d59b146102505780639ffd650b14610263578063b0129f5e1461026c578063b8806c731461027f578063bd1dc6f11461028757600080fd5b80633ccfd60b116101155780633ccfd60b146101cb57806342687746146101d357806347049c84146101e65780635782018a146102115780636629f07514610224578063715018a61461023757600080fd5b80630deea6081461015257806312065fe01461017a5780632d7306ac14610190578063381c8db1146101a5578063388126d9146101b8575b600080fd5b610165610160366004611116565b61030c565b60405190151581526020015b60405180910390f35b6101826103a3565b604051908152602001610171565b6101a361019e366004611177565b610415565b005b6101a36101b33660046111a0565b61046a565b6101a36101c6366004611241565b610540565b6101a3610582565b6101a36101e1366004611177565b610649565b6001546101f9906001600160a01b031681565b6040516001600160a01b039091168152602001610171565b6004546101f9906001600160a01b031681565b6101a3610232366004611116565b610695565b6101a3610890565b6000546001600160a01b03166101f9565b6000546001600160a01b03163314610165565b61018260055481565b6101a361027a366004611177565b610904565b6101f9610950565b6101a36102953660046111a0565b61098b565b6101a36102a836600461125a565b610a29565b6101826102bb3660046112aa565b610c47565b6101a36102ce366004611177565b610c96565b6101a36102e1366004611177565b610ce2565b6101a36102f43660046112dd565b610d15565b6003546101f9906001600160a01b031681565b60008061031a868686610c47565b90506000610375826040517f19457468657265756d205369676e6564204d6573736167653a0a3332000000006020820152603c8101829052600090605c01604051602081830303815290604052805190602001209050919050565b6002549091506001600160a01b031661038e8286610e94565b6001600160a01b031614979650505050505050565b6001546040516370a0823160e01b81523060048201526000916001600160a01b0316906370a0823190602401602060405180830381865afa1580156103ec573d6000803e3d6000fd5b505050506040513d601f19601f82011682018060405250810190610410919061136a565b905090565b6000546001600160a01b031633146104485760405162461bcd60e51b815260040161043f90611383565b60405180910390fd5b600380546001600160a01b0319166001600160a01b0392909216919091179055565b3361047457600080fd5b6104803386868461030c565b61049c5760405162461bcd60e51b815260040161043f906113b8565b60008481526006602052604090205460ff16156104b857600080fd5b60008481526006602052604090819020805460ff19166001179055600480549151631c5b2aa560e31b81526001600160a01b039092169163e2d95528916105079133918a9189918991016113dc565b600060405180830381600087803b15801561052157600080fd5b505af1158015610535573d6000803e3d6000fd5b505050505050505050565b6000546001600160a01b0316331461056a5760405162461bcd60e51b815260040161043f90611383565b61057c81670de0b6b3a7640000611451565b60055550565b6000546001600160a01b031633146105ac5760405162461bcd60e51b815260040161043f90611383565b6001546001600160a01b031663a9059cbb6105cf6000546001600160a01b031690565b6105d76103a3565b6040516001600160e01b031960e085901b1681526001600160a01b03909216600483015260248201526044016020604051808303816000875af1158015610622573d6000803e3d6000fd5b505050506040513d601f19601f82011682018060405250810190610646919061147e565b50565b6000546001600160a01b031633146106735760405162461bcd60e51b815260040161043f90611383565b600180546001600160a01b0319166001600160a01b0392909216919091179055565b333b63ffffffff16156106e15760405162461bcd60e51b815260206004820152601460248201527318dbdb9d1c9858dd081b9bdd08185b1b1bddd95960621b604482015260640161043f565b6001600160a01b0384166106f457600080fd5b6107008484848461030c565b61071c5760405162461bcd60e51b815260040161043f906113b8565b60008281526006602052604090205460ff161561076b5760405162461bcd60e51b815260206004820152600d60248201526c696e76616c6964206e6f6e636560981b604482015260640161043f565b60015460405163a9059cbb60e01b81526001600160a01b038681166004830152602482018690529091169063a9059cbb906044016020604051808303816000875af11580156107be573d6000803e3d6000fd5b505050506040513d601f19601f820116820180604052508101906107e2919061147e565b61082e5760405162461bcd60e51b815260206004820152601f60248201527f696e737566696369656e742062616c616e6365206f6e20636f6e747261637400604482015260640161043f565b600082815260066020908152604091829020805460ff1916600117905581516001600160a01b03871681529081018590527f884edad9ce6fa2440d8a54cc123490eb96d2768479d49ff9c7366125a9424364910160405180910390a150505050565b6000546001600160a01b031633146108ba5760405162461bcd60e51b815260040161043f90611383565b600080546040516001600160a01b03909116907f8be0079c531659141344cd1fd0a4f28419497f9722a3daafe3b4186f6b6457e0908390a3600080546001600160a01b0319169055565b6000546001600160a01b0316331461092e5760405162461bcd60e51b815260040161043f90611383565b600280546001600160a01b0319166001600160a01b0392909216919091179055565b600080546001600160a01b0316331461097b5760405162461bcd60e51b815260040161043f90611383565b506002546001600160a01b031690565b3361099557600080fd5b6109a13386868461030c565b6109bd5760405162461bcd60e51b815260040161043f906113b8565b60008481526006602052604090205460ff16156109d957600080fd5b60008481526006602052604090819020805460ff191660011790556003549051633fad3aef60e11b81526001600160a01b0390911690637f5a75de906105079033908990889088906004016113dc565b333b63ffffffff1615610a755760405162461bcd60e51b815260206004820152601460248201527318dbdb9d1c9858dd081b9bdd08185b1b1bddd95960621b604482015260640161043f565b600554831015610abe5760405162461bcd60e51b81526020600482015260146024820152736c6f776572207468616e206e656365737361727960601b604482015260640161043f565b610aca3384848461030c565b610ae65760405162461bcd60e51b815260040161043f906113b8565b60008281526006602052604090205460ff1615610b325760405162461bcd60e51b815260206004820152600a60248201526975736564206e6f6e636560b01b604482015260640161043f565b6001546040516323b872dd60e01b8152336004820152306024820152604481018590526001600160a01b03909116906323b872dd906064016020604051808303816000875af1158015610b89573d6000803e3d6000fd5b505050506040513d601f19601f82011682018060405250810190610bad919061147e565b610bef5760405162461bcd60e51b8152602060048201526013602482015272696e737566696369656e742062616c616e636560681b604482015260640161043f565b600082815260066020908152604091829020805460ff1916600117905581513381529081018590527fe1fffcc4923d04b559f4d29a8bfc6cda04eb5b0d3c460751c2402c5c5cc9109c910160405180910390a1505050565b6040516bffffffffffffffffffffffff19606085901b16602082015260348101839052605481018290526000906074016040516020818303038152906040528051906020012090509392505050565b6000546001600160a01b03163314610cc05760405162461bcd60e51b815260040161043f90611383565b600480546001600160a01b0319166001600160a01b0392909216919091179055565b6000546001600160a01b03163314610d0c5760405162461bcd60e51b815260040161043f90611383565b61064681610f13565b85610d545760405162461bcd60e51b815260206004820152600f60248201526e1a5b9d985b1a59081c9bd89bdd1259608a1b604482015260640161043f565b610d608784848461030c565b610d7c5760405162461bcd60e51b815260040161043f906113b8565b60008281526006602052604090205460ff1615610d9857600080fd5b60008281526006602052604090819020805460ff191660011790556003549051631695a26160e01b81526001600160a01b038981166004830152602482018990526044820188905260ff871660648301526084820186905290911690631695a2619060a401600060405180830381600087803b158015610e1757600080fd5b505af1158015610e2b573d6000803e3d6000fd5b505060048054604051630f6f2b3760e31b81529182018990526001600160a01b03169250637b7959b89150602401600060405180830381600087803b158015610e7357600080fd5b505af1158015610e87573d6000803e3d6000fd5b5050505050505050505050565b600080600080610ea385610fd3565b6040805160008152602081018083528b905260ff8316918101919091526060810184905260808101839052929550909350915060019060a0016020604051602081039080840390855afa158015610efe573d6000803e3d6000fd5b5050604051601f190151979650505050505050565b6001600160a01b038116610f785760405162461bcd60e51b815260206004820152602660248201527f4f776e61626c653a206e6577206f776e657220697320746865207a65726f206160448201526564647265737360d01b606482015260840161043f565b600080546040516001600160a01b03808516939216917f8be0079c531659141344cd1fd0a4f28419497f9722a3daafe3b4186f6b6457e091a3600080546001600160a01b0319166001600160a01b0392909216919091179055565b600080600083516041146110295760405162461bcd60e51b815260206004820152601860248201527f696e76616c6964207369676e6174757265206c656e6774680000000000000000604482015260640161043f565b50505060208101516040820151606090920151909260009190911a90565b80356001600160a01b038116811461105e57600080fd5b919050565b634e487b7160e01b600052604160045260246000fd5b600067ffffffffffffffff8084111561109457611094611063565b604051601f8501601f19908116603f011681019082821181831017156110bc576110bc611063565b816040528093508581528686860111156110d557600080fd5b858560208301376000602087830101525050509392505050565b600082601f83011261110057600080fd5b61110f83833560208501611079565b9392505050565b6000806000806080858703121561112c57600080fd5b61113585611047565b93506020850135925060408501359150606085013567ffffffffffffffff81111561115f57600080fd5b61116b878288016110ef565b91505092959194509250565b60006020828403121561118957600080fd5b61110f82611047565b801515811461064657600080fd5b600080600080600060a086880312156111b857600080fd5b853594506020860135935060408601356111d181611192565b9250606086013567ffffffffffffffff808211156111ee57600080fd5b818801915088601f83011261120257600080fd5b61121189833560208501611079565b9350608088013591508082111561122757600080fd5b50611234888289016110ef565b9150509295509295909350565b60006020828403121561125357600080fd5b5035919050565b60008060006060848603121561126f57600080fd5b8335925060208401359150604084013567ffffffffffffffff81111561129457600080fd5b6112a0868287016110ef565b9150509250925092565b6000806000606084860312156112bf57600080fd5b6112c884611047565b95602085013595506040909401359392505050565b600080600080600080600060e0888a0312156112f857600080fd5b61130188611047565b96506020880135955060408801359450606088013560ff8116811461132557600080fd5b93506080880135925060a0880135915060c088013567ffffffffffffffff81111561134f57600080fd5b61135b8a828b016110ef565b91505092959891949750929550565b60006020828403121561137c57600080fd5b5051919050565b6020808252818101527f4f776e61626c653a2063616c6c6572206973206e6f7420746865206f776e6572604082015260600190565b6020808252600a90820152691b9bdd081cda59db995960b21b604082015260600190565b60018060a01b0385168152600060208581840152841515604084015260806060840152835180608085015260005b818110156114265785810183015185820160a00152820161140a565b8181111561143857600060a083870101525b50601f01601f19169290920160a0019695505050505050565b600081600019048311821515161561147957634e487b7160e01b600052601160045260246000fd5b500290565b60006020828403121561149057600080fd5b815161110f8161119256fea26469706673582212204acfb9d25b30189677390d7ec31651fde9f61c4424f6980283ff4b80dffdb7f064736f6c634300080b0033",
  "immutableReferences": {},
  "source": "// SPDX-License-Identifier: MIT\r\npragma solidity ^0.8.2;\r\n\r\nimport \"./Ownable.sol\";\r\nimport \"./IBEP20.sol\";\r\nimport \"./IRobotCore.sol\";\r\nimport \"./IPieceCore.sol\";\r\n\r\ncontract MekaDeployer is Ownable {\r\n    address public _mekaAddress;\r\n    address private _signatureAddress;\r\n    address public _robotCoreAddress;\r\n    address public _pieceCoreAddress;\r\n    uint256 public _minConversion;\r\n    mapping(uint256 => bool) usedNonces;\r\n    event Withdraw(address receiver, uint256 amount);\r\n    event Deposit(address receiver, uint256 amount);\r\n\r\n    constructor(\r\n        address meka,\r\n        address robotCore,\r\n        address pieceCore\r\n    ) {\r\n        _mekaAddress = meka;\r\n        _signatureAddress = owner();\r\n        _robotCoreAddress = robotCore;\r\n        _pieceCoreAddress = pieceCore;\r\n        _minConversion = 10 * 10**18;\r\n    }\r\n\r\n    function setRobotddress(address robotCore) external onlyOwner {\r\n        _robotCoreAddress = robotCore;\r\n    }\r\n\r\n    function setPieceAddress(address pieceCore) external onlyOwner {\r\n        _pieceCoreAddress = pieceCore;\r\n    }\r\n\r\n    function setMekaMinersAddress(address meka) external onlyOwner {\r\n        _mekaAddress = meka;\r\n    }\r\n\r\n    function setSignatureAddress(address signatureAddress) external onlyOwner {\r\n        _signatureAddress = signatureAddress;\r\n    }\r\n\r\n    function setMekaConversionRate(uint256 amount) external onlyOwner {\r\n        _minConversion = amount * 10**18;\r\n    }\r\n\r\n    function getSignatureAddress() external view onlyOwner returns (address) {\r\n        return _signatureAddress;\r\n    }\r\n\r\n    function convertToMeka(\r\n        address _receiver,\r\n        uint256 _amount,\r\n        uint256 _nonce,\r\n        bytes memory _signature\r\n    ) external {\r\n        require(!isContract(msg.sender), \"contract not allowed\");\r\n        require(_receiver != address(0));\r\n        require(verify(_receiver, _amount, _nonce, _signature), \"not signed\");\r\n        require(!usedNonces[_nonce], \"invalid nonce\");\r\n        require(\r\n            IBEP20(_mekaAddress).transfer(_receiver, _amount),\r\n            \"insuficient balance on contract\"\r\n        );\r\n        usedNonces[_nonce] = true;\r\n\r\n        emit Withdraw(_receiver, _amount);\r\n    }\r\n\r\n    function convertFromMeka(\r\n        uint256 _amount,\r\n        uint256 _nonce,\r\n        bytes memory _signature\r\n    ) external {\r\n        require(!isContract(msg.sender), \"contract not allowed\");\r\n        require(_amount >= _minConversion, \"lower than necessary\");\r\n        require(verify(msg.sender, _amount, _nonce, _signature), \"not signed\");\r\n        require(!usedNonces[_nonce], \"used nonce\");\r\n        require(\r\n            IBEP20(_mekaAddress).transferFrom(\r\n                msg.sender,\r\n                address(this),\r\n                _amount\r\n            ),\r\n            \"insuficient balance\"\r\n        );\r\n\r\n        usedNonces[_nonce] = true;\r\n\r\n        emit Deposit(msg.sender, _amount);\r\n    }\r\n\r\n    function attachToRobot(\r\n        address _owner,\r\n        uint256 _robotId,\r\n        uint256 _pieceId,\r\n        uint8 _pieceType,\r\n        uint256 _amount,\r\n        uint256 _nonce,\r\n        bytes memory _signature\r\n    ) external {\r\n        require(_robotId != 0, \"invalid robotId\");\r\n        require(verify(_owner, _amount, _nonce, _signature), \"not signed\");\r\n        require(!usedNonces[_nonce]);\r\n\r\n        usedNonces[_nonce] = true;\r\n        IRobotCore(_robotCoreAddress).attachPiece(\r\n            _owner,\r\n            _robotId,\r\n            _pieceId,\r\n            _pieceType,\r\n            _amount\r\n        );\r\n        IPieceCore(_pieceCoreAddress).burnPiece(_pieceId);\r\n    }\r\n\r\n    function createRobot(\r\n        uint256 _amount,\r\n        uint256 _nonce,\r\n        bool _withOre,\r\n        string memory _tokenURI,\r\n        bytes memory _signature\r\n    ) external {\r\n        require(msg.sender != address(0));\r\n        require(verify(msg.sender, _amount, _nonce, _signature), \"not signed\");\r\n        require(!usedNonces[_nonce]);\r\n\r\n        usedNonces[_nonce] = true;\r\n        IRobotCore(_robotCoreAddress).createRobot(\r\n            msg.sender,\r\n            _amount,\r\n            _withOre,\r\n            _tokenURI\r\n        );\r\n    }\r\n\r\n    function createPiece(\r\n        uint256 _amount,\r\n        uint256 _nonce,\r\n        bool _fromFarm,\r\n        string memory _tokenURI,\r\n        bytes memory _signature\r\n    ) external {\r\n        require(msg.sender != address(0));\r\n        require(verify(msg.sender, _amount, _nonce, _signature), \"not signed\");\r\n        require(!usedNonces[_nonce]);\r\n\r\n        usedNonces[_nonce] = true;\r\n        IPieceCore(_pieceCoreAddress).createPiece(\r\n            msg.sender,\r\n            _amount,\r\n            _fromFarm,\r\n            _tokenURI\r\n        );\r\n    }\r\n\r\n    function getBalance() public view returns (uint256) {\r\n        return IBEP20(_mekaAddress).balanceOf(address(this));\r\n    }\r\n\r\n    function withdraw() external onlyOwner {\r\n        IBEP20(_mekaAddress).transfer(owner(), getBalance());\r\n    }\r\n\r\n    function getMessageHash(\r\n        address _to,\r\n        uint256 _amount,\r\n        uint256 _nonce\r\n    ) public pure returns (bytes32) {\r\n        return keccak256(abi.encodePacked(_to, _amount, _nonce));\r\n    }\r\n\r\n    function getEthSignedMessageHash(bytes32 _messageHash)\r\n        internal\r\n        pure\r\n        returns (bytes32)\r\n    {\r\n        return\r\n            keccak256(\r\n                abi.encodePacked(\r\n                    \"\\x19Ethereum Signed Message:\\n32\",\r\n                    _messageHash\r\n                )\r\n            );\r\n    }\r\n\r\n    function isContract(address _address) private view returns (bool) {\r\n        uint32 size;\r\n        assembly {\r\n            size := extcodesize(_address)\r\n        }\r\n        return (size > 0);\r\n    }\r\n\r\n    function verify(\r\n        address _to,\r\n        uint256 _amount,\r\n        uint256 _nonce,\r\n        bytes memory _signature\r\n    ) public view returns (bool) {\r\n        bytes32 messageHash = getMessageHash(_to, _amount, _nonce);\r\n        bytes32 ethSignedMessageHash = getEthSignedMessageHash(messageHash);\r\n\r\n        return\r\n            recoverSigner(ethSignedMessageHash, _signature) ==\r\n            _signatureAddress;\r\n    }\r\n\r\n    function recoverSigner(\r\n        bytes32 _ethSignedMessageHash,\r\n        bytes memory _signature\r\n    ) internal pure returns (address) {\r\n        (bytes32 r, bytes32 s, uint8 v) = splitSignature(_signature);\r\n\r\n        return ecrecover(_ethSignedMessageHash, v, r, s);\r\n    }\r\n\r\n    function splitSignature(bytes memory sig)\r\n        internal\r\n        pure\r\n        returns (\r\n            bytes32 r,\r\n            bytes32 s,\r\n            uint8 v\r\n        )\r\n    {\r\n        require(sig.length == 65, \"invalid signature length\");\r\n\r\n        assembly {\r\n            r := mload(add(sig, 32))\r\n            s := mload(add(sig, 64))\r\n            v := byte(0, mload(add(sig, 96)))\r\n        }\r\n    }\r\n}\r\n",
  "sourcePath": "E:\\MekaMiners\\contracts\\MekaDeployer.sol",
  "compiler": {
    "name": "solc",
    "version": "0.8.11+commit.d7f03943.Emscripten.clang"
  },
  "schemaVersion": "3.4.3",
  "updatedAt": "2022-01-03T15:19:31.058Z",
  "networkType": "ethereum",
  "devdoc": {
    "kind": "dev",
    "methods": {
      "isOwner()": {
        "details": "Returns true if the caller is the current owner."
      },
      "owner()": {
        "details": "Returns the address of the current owner."
      },
      "renounceOwnership()": {
        "details": "Leaves the contract without owner. It will not be possible to call `onlyOwner` functions anymore. Can only be called by the current owner. NOTE: Renouncing ownership will leave the contract without an owner, thereby removing any functionality that is only available to the owner."
      },
      "transferOwnership(address)": {
        "details": "Transfers ownership of the contract to a new account (`newOwner`). Can only be called by the current owner."
      }
    },
    "version": 1
  },
  "userdoc": {
    "kind": "user",
    "methods": {},
    "version": 1
  }
}