{
  "contractName": "PieceCore",
  "abi": [
    {
      "inputs": [
        {
          "internalType": "address",
          "name": "mekaAddress",
          "type": "address"
        }
      ],
      "stateMutability": "nonpayable",
      "type": "constructor"
    },
    {
      "anonymous": false,
      "inputs": [
        {
          "indexed": true,
          "internalType": "address",
          "name": "owner",
          "type": "address"
        },
        {
          "indexed": true,
          "internalType": "address",
          "name": "approved",
          "type": "address"
        },
        {
          "indexed": true,
          "internalType": "uint256",
          "name": "tokenId",
          "type": "uint256"
        }
      ],
      "name": "Approval",
      "type": "event"
    },
    {
      "anonymous": false,
      "inputs": [
        {
          "indexed": true,
          "internalType": "address",
          "name": "owner",
          "type": "address"
        },
        {
          "indexed": true,
          "internalType": "address",
          "name": "operator",
          "type": "address"
        },
        {
          "indexed": false,
          "internalType": "bool",
          "name": "approved",
          "type": "bool"
        }
      ],
      "name": "ApprovalForAll",
      "type": "event"
    },
    {
      "anonymous": false,
      "inputs": [
        {
          "indexed": false,
          "internalType": "address",
          "name": "owner",
          "type": "address"
        },
        {
          "indexed": false,
          "internalType": "uint256",
          "name": "tokenId",
          "type": "uint256"
        },
        {
          "indexed": false,
          "internalType": "uint256",
          "name": "date",
          "type": "uint256"
        }
      ],
      "name": "Birth",
      "type": "event"
    },
    {
      "anonymous": false,
      "inputs": [
        {
          "indexed": false,
          "internalType": "address",
          "name": "from",
          "type": "address"
        },
        {
          "indexed": false,
          "internalType": "uint256",
          "name": "pieceId",
          "type": "uint256"
        },
        {
          "indexed": false,
          "internalType": "uint256",
          "name": "date",
          "type": "uint256"
        }
      ],
      "name": "MintedPiece",
      "type": "event"
    },
    {
      "anonymous": false,
      "inputs": [
        {
          "indexed": false,
          "internalType": "address",
          "name": "from",
          "type": "address"
        },
        {
          "indexed": false,
          "internalType": "uint256[]",
          "name": "pieceId",
          "type": "uint256[]"
        },
        {
          "indexed": false,
          "internalType": "uint8",
          "name": "packageType",
          "type": "uint8"
        },
        {
          "indexed": false,
          "internalType": "uint256",
          "name": "date",
          "type": "uint256"
        }
      ],
      "name": "MintedPieceFromBundle",
      "type": "event"
    },
    {
      "anonymous": false,
      "inputs": [
        {
          "indexed": true,
          "internalType": "address",
          "name": "previousOwner",
          "type": "address"
        },
        {
          "indexed": true,
          "internalType": "address",
          "name": "newOwner",
          "type": "address"
        }
      ],
      "name": "OwnershipTransferred",
      "type": "event"
    },
    {
      "anonymous": false,
      "inputs": [],
      "name": "Pause",
      "type": "event"
    },
    {
      "anonymous": false,
      "inputs": [
        {
          "indexed": true,
          "internalType": "address",
          "name": "from",
          "type": "address"
        },
        {
          "indexed": true,
          "internalType": "address",
          "name": "to",
          "type": "address"
        },
        {
          "indexed": true,
          "internalType": "uint256",
          "name": "tokenId",
          "type": "uint256"
        }
      ],
      "name": "Transfer",
      "type": "event"
    },
    {
      "anonymous": false,
      "inputs": [],
      "name": "Unpause",
      "type": "event"
    },
    {
      "inputs": [],
      "name": "_marketplaceAddr",
      "outputs": [
        {
          "internalType": "address",
          "name": "",
          "type": "address"
        }
      ],
      "stateMutability": "view",
      "type": "function",
      "constant": true
    },
    {
      "inputs": [],
      "name": "_mekaAddress",
      "outputs": [
        {
          "internalType": "address",
          "name": "",
          "type": "address"
        }
      ],
      "stateMutability": "view",
      "type": "function",
      "constant": true
    },
    {
      "inputs": [],
      "name": "_mekaDeployerAddress",
      "outputs": [
        {
          "internalType": "address",
          "name": "",
          "type": "address"
        }
      ],
      "stateMutability": "view",
      "type": "function",
      "constant": true
    },
    {
      "inputs": [],
      "name": "_pause",
      "outputs": [
        {
          "internalType": "bool",
          "name": "",
          "type": "bool"
        }
      ],
      "stateMutability": "nonpayable",
      "type": "function"
    },
    {
      "inputs": [],
      "name": "_piecePackageAddress",
      "outputs": [
        {
          "internalType": "address",
          "name": "",
          "type": "address"
        }
      ],
      "stateMutability": "view",
      "type": "function",
      "constant": true
    },
    {
      "inputs": [],
      "name": "_piecePackageGen1Address",
      "outputs": [
        {
          "internalType": "address",
          "name": "",
          "type": "address"
        }
      ],
      "stateMutability": "view",
      "type": "function",
      "constant": true
    },
    {
      "inputs": [],
      "name": "_unpause",
      "outputs": [
        {
          "internalType": "bool",
          "name": "",
          "type": "bool"
        }
      ],
      "stateMutability": "nonpayable",
      "type": "function"
    },
    {
      "inputs": [],
      "name": "acceptContracts",
      "outputs": [
        {
          "internalType": "bool",
          "name": "",
          "type": "bool"
        }
      ],
      "stateMutability": "view",
      "type": "function",
      "constant": true
    },
    {
      "inputs": [
        {
          "internalType": "address",
          "name": "to",
          "type": "address"
        },
        {
          "internalType": "uint256",
          "name": "tokenId",
          "type": "uint256"
        }
      ],
      "name": "approve",
      "outputs": [],
      "stateMutability": "nonpayable",
      "type": "function"
    },
    {
      "inputs": [
        {
          "internalType": "address",
          "name": "owner",
          "type": "address"
        }
      ],
      "name": "balanceOf",
      "outputs": [
        {
          "internalType": "uint256",
          "name": "",
          "type": "uint256"
        }
      ],
      "stateMutability": "view",
      "type": "function",
      "constant": true
    },
    {
      "inputs": [],
      "name": "baseURI",
      "outputs": [
        {
          "internalType": "string",
          "name": "",
          "type": "string"
        }
      ],
      "stateMutability": "view",
      "type": "function",
      "constant": true
    },
    {
      "inputs": [
        {
          "internalType": "uint256",
          "name": "tokenId",
          "type": "uint256"
        }
      ],
      "name": "getApproved",
      "outputs": [
        {
          "internalType": "address",
          "name": "",
          "type": "address"
        }
      ],
      "stateMutability": "view",
      "type": "function",
      "constant": true
    },
    {
      "inputs": [
        {
          "internalType": "address",
          "name": "owner",
          "type": "address"
        },
        {
          "internalType": "address",
          "name": "operator",
          "type": "address"
        }
      ],
      "name": "isApprovedForAll",
      "outputs": [
        {
          "internalType": "bool",
          "name": "",
          "type": "bool"
        }
      ],
      "stateMutability": "view",
      "type": "function",
      "constant": true
    },
    {
      "inputs": [],
      "name": "isBurn",
      "outputs": [
        {
          "internalType": "bool",
          "name": "",
          "type": "bool"
        }
      ],
      "stateMutability": "view",
      "type": "function",
      "constant": true
    },
    {
      "inputs": [],
      "name": "isOwner",
      "outputs": [
        {
          "internalType": "bool",
          "name": "",
          "type": "bool"
        }
      ],
      "stateMutability": "view",
      "type": "function",
      "constant": true
    },
    {
      "inputs": [],
      "name": "isPieceFactoryOpen",
      "outputs": [
        {
          "internalType": "bool",
          "name": "",
          "type": "bool"
        }
      ],
      "stateMutability": "view",
      "type": "function",
      "constant": true
    },
    {
      "inputs": [],
      "name": "name",
      "outputs": [
        {
          "internalType": "string",
          "name": "",
          "type": "string"
        }
      ],
      "stateMutability": "view",
      "type": "function",
      "constant": true
    },
    {
      "inputs": [],
      "name": "owner",
      "outputs": [
        {
          "internalType": "address",
          "name": "",
          "type": "address"
        }
      ],
      "stateMutability": "view",
      "type": "function",
      "constant": true
    },
    {
      "inputs": [
        {
          "internalType": "uint256",
          "name": "tokenId",
          "type": "uint256"
        }
      ],
      "name": "ownerOf",
      "outputs": [
        {
          "internalType": "address",
          "name": "",
          "type": "address"
        }
      ],
      "stateMutability": "view",
      "type": "function",
      "constant": true
    },
    {
      "inputs": [],
      "name": "paused",
      "outputs": [
        {
          "internalType": "bool",
          "name": "",
          "type": "bool"
        }
      ],
      "stateMutability": "view",
      "type": "function",
      "constant": true
    },
    {
      "inputs": [],
      "name": "renounceOwnership",
      "outputs": [],
      "stateMutability": "nonpayable",
      "type": "function"
    },
    {
      "inputs": [
        {
          "internalType": "address",
          "name": "from",
          "type": "address"
        },
        {
          "internalType": "address",
          "name": "to",
          "type": "address"
        },
        {
          "internalType": "uint256",
          "name": "tokenId",
          "type": "uint256"
        }
      ],
      "name": "safeTransferFrom",
      "outputs": [],
      "stateMutability": "nonpayable",
      "type": "function"
    },
    {
      "inputs": [
        {
          "internalType": "address",
          "name": "from",
          "type": "address"
        },
        {
          "internalType": "address",
          "name": "to",
          "type": "address"
        },
        {
          "internalType": "uint256",
          "name": "tokenId",
          "type": "uint256"
        },
        {
          "internalType": "bytes",
          "name": "_data",
          "type": "bytes"
        }
      ],
      "name": "safeTransferFrom",
      "outputs": [],
      "stateMutability": "nonpayable",
      "type": "function"
    },
    {
      "inputs": [
        {
          "internalType": "address",
          "name": "operator",
          "type": "address"
        },
        {
          "internalType": "bool",
          "name": "approved",
          "type": "bool"
        }
      ],
      "name": "setApprovalForAll",
      "outputs": [],
      "stateMutability": "nonpayable",
      "type": "function"
    },
    {
      "inputs": [
        {
          "internalType": "bytes4",
          "name": "interfaceId",
          "type": "bytes4"
        }
      ],
      "name": "supportsInterface",
      "outputs": [
        {
          "internalType": "bool",
          "name": "",
          "type": "bool"
        }
      ],
      "stateMutability": "view",
      "type": "function",
      "constant": true
    },
    {
      "inputs": [],
      "name": "symbol",
      "outputs": [
        {
          "internalType": "string",
          "name": "",
          "type": "string"
        }
      ],
      "stateMutability": "view",
      "type": "function",
      "constant": true
    },
    {
      "inputs": [
        {
          "internalType": "uint256",
          "name": "index",
          "type": "uint256"
        }
      ],
      "name": "tokenByIndex",
      "outputs": [
        {
          "internalType": "uint256",
          "name": "",
          "type": "uint256"
        }
      ],
      "stateMutability": "view",
      "type": "function",
      "constant": true
    },
    {
      "inputs": [
        {
          "internalType": "address",
          "name": "owner",
          "type": "address"
        }
      ],
      "name": "tokenOfOwner",
      "outputs": [
        {
          "internalType": "uint256[]",
          "name": "",
          "type": "uint256[]"
        }
      ],
      "stateMutability": "view",
      "type": "function",
      "constant": true
    },
    {
      "inputs": [
        {
          "internalType": "address",
          "name": "owner",
          "type": "address"
        },
        {
          "internalType": "uint256",
          "name": "index",
          "type": "uint256"
        }
      ],
      "name": "tokenOfOwnerByIndex",
      "outputs": [
        {
          "internalType": "uint256",
          "name": "",
          "type": "uint256"
        }
      ],
      "stateMutability": "view",
      "type": "function",
      "constant": true
    },
    {
      "inputs": [
        {
          "internalType": "uint256",
          "name": "tokenId",
          "type": "uint256"
        }
      ],
      "name": "tokenURI",
      "outputs": [
        {
          "internalType": "string",
          "name": "",
          "type": "string"
        }
      ],
      "stateMutability": "view",
      "type": "function",
      "constant": true
    },
    {
      "inputs": [],
      "name": "totalSupply",
      "outputs": [
        {
          "internalType": "uint256",
          "name": "",
          "type": "uint256"
        }
      ],
      "stateMutability": "view",
      "type": "function",
      "constant": true
    },
    {
      "inputs": [
        {
          "internalType": "address",
          "name": "newOwner",
          "type": "address"
        }
      ],
      "name": "transferOwnership",
      "outputs": [],
      "stateMutability": "nonpayable",
      "type": "function"
    },
    {
      "inputs": [
        {
          "internalType": "address",
          "name": "contributor",
          "type": "address"
        },
        {
          "internalType": "uint256",
          "name": "pieceId",
          "type": "uint256"
        }
      ],
      "name": "setContributorPieceId",
      "outputs": [],
      "stateMutability": "nonpayable",
      "type": "function"
    },
    {
      "inputs": [],
      "name": "updateAcceptContract",
      "outputs": [],
      "stateMutability": "nonpayable",
      "type": "function"
    },
    {
      "inputs": [
        {
          "internalType": "uint256[]",
          "name": "pieceIds",
          "type": "uint256[]"
        }
      ],
      "name": "setAvailablePieces",
      "outputs": [],
      "stateMutability": "nonpayable",
      "type": "function"
    },
    {
      "inputs": [
        {
          "internalType": "address",
          "name": "addr",
          "type": "address"
        }
      ],
      "name": "isBlacklisted",
      "outputs": [
        {
          "internalType": "bool",
          "name": "",
          "type": "bool"
        }
      ],
      "stateMutability": "view",
      "type": "function",
      "constant": true
    },
    {
      "inputs": [
        {
          "internalType": "address",
          "name": "addr",
          "type": "address"
        },
        {
          "internalType": "bool",
          "name": "isBlackListed",
          "type": "bool"
        }
      ],
      "name": "setBlackList",
      "outputs": [],
      "stateMutability": "nonpayable",
      "type": "function"
    },
    {
      "inputs": [
        {
          "internalType": "uint256",
          "name": "_price",
          "type": "uint256"
        }
      ],
      "name": "setPiecePrice",
      "outputs": [],
      "stateMutability": "nonpayable",
      "type": "function"
    },
    {
      "inputs": [
        {
          "internalType": "address",
          "name": "_addr",
          "type": "address"
        }
      ],
      "name": "setTokenAddress",
      "outputs": [],
      "stateMutability": "nonpayable",
      "type": "function"
    },
    {
      "inputs": [
        {
          "internalType": "address",
          "name": "_address",
          "type": "address"
        }
      ],
      "name": "setPiecePackageAddress",
      "outputs": [],
      "stateMutability": "nonpayable",
      "type": "function"
    },
    {
      "inputs": [
        {
          "internalType": "address",
          "name": "_address",
          "type": "address"
        }
      ],
      "name": "setPiecePackageGen1Address",
      "outputs": [],
      "stateMutability": "nonpayable",
      "type": "function"
    },
    {
      "inputs": [
        {
          "internalType": "address",
          "name": "_address",
          "type": "address"
        }
      ],
      "name": "setMarketplaceAddress",
      "outputs": [],
      "stateMutability": "nonpayable",
      "type": "function"
    },
    {
      "inputs": [
        {
          "internalType": "address",
          "name": "_mekaDeployAddr",
          "type": "address"
        }
      ],
      "name": "setMekaDeployerAddress",
      "outputs": [],
      "stateMutability": "nonpayable",
      "type": "function"
    },
    {
      "inputs": [],
      "name": "updateIsBurn",
      "outputs": [],
      "stateMutability": "nonpayable",
      "type": "function"
    },
    {
      "inputs": [],
      "name": "updatePieceFactory",
      "outputs": [],
      "stateMutability": "nonpayable",
      "type": "function"
    },
    {
      "inputs": [
        {
          "internalType": "uint256",
          "name": "tokenId",
          "type": "uint256"
        },
        {
          "internalType": "string",
          "name": "_tokenURI",
          "type": "string"
        }
      ],
      "name": "setTokenURI",
      "outputs": [],
      "stateMutability": "nonpayable",
      "type": "function"
    },
    {
      "inputs": [],
      "name": "withdrawBalance",
      "outputs": [],
      "stateMutability": "nonpayable",
      "type": "function"
    },
    {
      "inputs": [],
      "name": "withdrawBnb",
      "outputs": [],
      "stateMutability": "nonpayable",
      "type": "function"
    },
    {
      "inputs": [
        {
          "internalType": "address",
          "name": "_owner",
          "type": "address"
        },
        {
          "internalType": "uint256",
          "name": "_amount",
          "type": "uint256"
        },
        {
          "internalType": "bool",
          "name": "_fromFarm",
          "type": "bool"
        },
        {
          "internalType": "string",
          "name": "_tokenURI",
          "type": "string"
        }
      ],
      "name": "createPiece",
      "outputs": [],
      "stateMutability": "nonpayable",
      "type": "function"
    },
    {
      "inputs": [
        {
          "internalType": "uint256",
          "name": "_tokenId",
          "type": "uint256"
        },
        {
          "internalType": "uint256",
          "name": "_startingPrice",
          "type": "uint256"
        }
      ],
      "name": "createSale",
      "outputs": [],
      "stateMutability": "nonpayable",
      "type": "function"
    },
    {
      "inputs": [
        {
          "internalType": "uint256",
          "name": "_tokenId",
          "type": "uint256"
        }
      ],
      "name": "burnPiece",
      "outputs": [],
      "stateMutability": "nonpayable",
      "type": "function"
    },
    {
      "inputs": [
        {
          "internalType": "address",
          "name": "_contributor",
          "type": "address"
        }
      ],
      "name": "getContributorPieces",
      "outputs": [
        {
          "internalType": "uint256[]",
          "name": "_contributorPieces",
          "type": "uint256[]"
        }
      ],
      "stateMutability": "view",
      "type": "function",
      "constant": true
    },
    {
      "inputs": [
        {
          "internalType": "uint256",
          "name": "_id",
          "type": "uint256"
        }
      ],
      "name": "getPiece",
      "outputs": [
        {
          "components": [
            {
              "internalType": "uint256",
              "name": "tokenId",
              "type": "uint256"
            },
            {
              "internalType": "uint256",
              "name": "pieceId",
              "type": "uint256"
            },
            {
              "internalType": "uint64",
              "name": "birthTime",
              "type": "uint64"
            }
          ],
          "internalType": "struct PieceCore.Piece",
          "name": "piece",
          "type": "tuple"
        }
      ],
      "stateMutability": "view",
      "type": "function",
      "constant": true
    },
    {
      "inputs": [],
      "name": "getAvailablePieces",
      "outputs": [
        {
          "internalType": "uint256[]",
          "name": "pieceIds",
          "type": "uint256[]"
        }
      ],
      "stateMutability": "view",
      "type": "function",
      "constant": true
    },
    {
      "inputs": [],
      "name": "getBalance",
      "outputs": [
        {
          "internalType": "uint256",
          "name": "",
          "type": "uint256"
        }
      ],
      "stateMutability": "view",
      "type": "function",
      "constant": true
    },
    {
      "inputs": [
        {
          "internalType": "address",
          "name": "_owner",
          "type": "address"
        },
        {
          "internalType": "uint8",
          "name": "packageType",
          "type": "uint8"
        },
        {
          "internalType": "uint8",
          "name": "pieceQuantity",
          "type": "uint8"
        }
      ],
      "name": "createPieceFromBundle",
      "outputs": [],
      "stateMutability": "nonpayable",
      "type": "function"
    },
    {
      "inputs": [
        {
          "internalType": "address",
          "name": "from",
          "type": "address"
        },
        {
          "internalType": "address",
          "name": "to",
          "type": "address"
        },
        {
          "internalType": "uint256",
          "name": "tokenId",
          "type": "uint256"
        }
      ],
      "name": "transferFrom",
      "outputs": [],
      "stateMutability": "nonpayable",
      "type": "function"
    }
  ],
  "bytecode": "0x6080604052600b805460ff60a01b191690556001601455674563918244f400006015553480156200002f57600080fd5b5060405162003be638038062003be68339810160408190526200005291620002ba565b604080518082018252600a8152694d656b6120506965636560b01b602080830191909152825180840190935260098352684d656b61506965636560b81b9083015290620000a66301ffc9a760e01b62000190565b8151620000bb90600790602085019062000214565b508051620000d190600890602084019062000214565b50620000e46380ac58cd60e01b62000190565b620000f6635b5e139f60e01b62000190565b6200010863780e9d6360e01b62000190565b5050600b80546001600160a01b0319163390811790915560405181906000907f8be0079c531659141344cd1fd0a4f28419497f9722a3daafe3b4186f6b6457e0908290a3506001600c55601a8054601980546001600160a01b0319166001600160a01b03949094169390931790925561ffff60a01b1990911661010160a01b17905562000329565b6001600160e01b03198082161415620001ef5760405162461bcd60e51b815260206004820152601c60248201527f4552433136353a20696e76616c696420696e7465726661636520696400000000604482015260640160405180910390fd5b6001600160e01b0319166000908152602081905260409020805460ff19166001179055565b8280546200022290620002ec565b90600052602060002090601f01602090048101928262000246576000855562000291565b82601f106200026157805160ff191683800117855562000291565b8280016001018555821562000291579182015b828111156200029157825182559160200191906001019062000274565b506200029f929150620002a3565b5090565b5b808211156200029f5760008155600101620002a4565b600060208284031215620002cd57600080fd5b81516001600160a01b0381168114620002e557600080fd5b9392505050565b600181811c908216806200030157607f821691505b602082108114156200032357634e487b7160e01b600052602260045260246000fd5b50919050565b6138ad80620003396000396000f3fe608060405234801561001057600080fd5b50600436106103835760003560e01c80636b45c9f2116101de578063a22cb4651161010f578063c87b56dd116100ad578063f37746af1161007c578063f37746af146107bb578063f3fc650b146107ce578063fc8234cb146107d6578063fe575a87146107de57600080fd5b8063c87b56dd14610746578063e2d9552814610759578063e985e9c51461076c578063f2fde38b146107a857600080fd5b8063b88d4fde116100e9578063b88d4fde146106fa578063bba7c9501461070d578063bbc1bd9014610720578063c696cc2e1461073357600080fd5b8063a22cb465146106cc578063b0bad405146106df578063b47cc556146106e757600080fd5b80637b7959b81161017c5780638f32d59b116101565780638f32d59b1461069657806393cf6703146106a957806395d89b41146106b15780639a083e2b146106b957600080fd5b80637b7959b81461065e5780637c3e614c146106715780638da5cb5b1461068557600080fd5b80636ff451eb116101b85780636ff451eb1461062857806370a082311461063b578063715018a61461064e57806379627c2b1461065657600080fd5b80636b45c9f2146105ce5780636c0360eb1461060d5780636fed42d21461061557600080fd5b80632f705c29116102b857806357a373a4116102565780636019061b116102305780636019061b1461058257806360c9f222146105955780636352211e146105a857806368092bd9146105bb57600080fd5b806357a373a4146105535780635c975abb146105665780635fd8c7101461057a57600080fd5b806334ae0d241161029257806334ae0d241461050657806342842e0e1461051a57806347049c841461052d5780634f6ccce71461054057600080fd5b80632f705c29146104d85780632f745c59146104eb578063320b2ad9146104fe57600080fd5b8063162094c41161032557806323b872dd116102ff57806323b872dd1461048b57806326a4e8d21461049e578063294cdf0d146104b15780632d067d4c146104c457600080fd5b8063162094c41461046857806318160ddd1461047b5780631da0603a1461048357600080fd5b8063095ea7b311610361578063095ea7b31461040a5780630d6516d91461041f5780630de7f7fa1461043257806312065fe01461045257600080fd5b806301ffc9a71461038857806306fdde03146103ca578063081812fc146103df575b600080fd5b6103b5610396366004612fc3565b6001600160e01b03191660009081526020819052604090205460ff1690565b60405190151581526020015b60405180910390f35b6103d261080a565b6040516103c19190613038565b6103f26103ed36600461304b565b61089c565b6040516001600160a01b0390911681526020016103c1565b61041d610418366004613080565b610929565b005b601a546103f2906001600160a01b031681565b6104456104403660046130aa565b610a3f565b6040516103c19190613100565b61045a610a69565b6040519081526020016103c1565b61041d6104763660046131bf565b610adb565b61045a610b35565b61041d610b41565b61041d610499366004613206565b610c15565b61041d6104ac3660046130aa565b610d6f565b6104456104bf3660046130aa565b610dbb565b601a546103b590600160a01b900460ff1681565b61041d6104e636600461304b565b610ea7565b61045a6104f9366004613080565b610ed6565b6103b5610eff565b601a546103b590600160b01b900460ff1681565b61041d610528366004613206565b610f85565b6019546103f2906001600160a01b031681565b61045a61054e36600461304b565b610fa0565b61041d610561366004613080565b610fb6565b600b546103b590600160a01b900460ff1681565b61041d611076565b61041d610590366004613242565b61113d565b61041d6105a33660046130aa565b61126d565b6103f26105b636600461304b565b6112b9565b61041d6105c9366004613272565b6112e1565b6105e16105dc36600461304b565b611336565b6040805182518152602080840151908201529181015167ffffffffffffffff16908201526060016103c1565b6103d26113cb565b61041d6106233660046132ba565b6113da565b61041d6106363660046132fd565b6115b9565b61045a6106493660046130aa565b6115ef565b61041d61167b565b61041d6116ef565b61041d61066c36600461304b565b61173a565b601a546103b590600160a81b900460ff1681565b600b546001600160a01b03166103f2565b600b546001600160a01b031633146103b5565b61041d611809565b6103d2611854565b6018546103f2906001600160a01b031681565b61041d6106da366004613272565b611863565b61041d611928565b61041d6106f53660046130aa565b611973565b61041d610708366004613372565b6119bf565b6017546103f2906001600160a01b031681565b6016546103f2906001600160a01b031681565b61041d6107413660046130aa565b6119f7565b6103d261075436600461304b565b611a43565b61041d6107673660046133ee565b611bb4565b6103b561077a36600461344c565b6001600160a01b03918216600090815260066020908152604080832093909416825291909152205460ff1690565b61041d6107b63660046130aa565b611e12565b61041d6107c93660046130aa565b611e45565b610445611e91565b6103b5611ee8565b6103b56107ec3660046130aa565b6001600160a01b03166000908152600f602052604090205460ff1690565b6060600780546108199061347f565b80601f01602080910402602001604051908101604052809291908181526020018280546108459061347f565b80156108925780601f1061086757610100808354040283529160200191610892565b820191906000526020600020905b81548152906001019060200180831161087557829003601f168201915b5050505050905090565b60006108a782611f67565b61090d5760405162461bcd60e51b815260206004820152602c60248201527f4552433732313a20617070726f76656420717565727920666f72206e6f6e657860448201526b34b9ba32b73a103a37b5b2b760a11b60648201526084015b60405180910390fd5b506000908152600560205260409020546001600160a01b031690565b6000610934826112b9565b9050806001600160a01b0316836001600160a01b031614156109a25760405162461bcd60e51b815260206004820152602160248201527f4552433732313a20617070726f76616c20746f2063757272656e74206f776e656044820152603960f91b6064820152608401610904565b336001600160a01b03821614806109be57506109be813361077a565b610a305760405162461bcd60e51b815260206004820152603860248201527f4552433732313a20617070726f76652063616c6c6572206973206e6f74206f7760448201527f6e6572206e6f7220617070726f76656420666f7220616c6c00000000000000006064820152608401610904565b610a3a8383611f74565b505050565b6001600160a01b0381166000908152600e60205260409020606090610a6390611fe2565b92915050565b6019546040516370a0823160e01b81523060048201526000916001600160a01b0316906370a0823190602401602060405180830381865afa158015610ab2573d6000803e3d6000fd5b505050506040513d601f19601f82011682018060405250810190610ad691906134ba565b905090565b33610ae5836112b9565b6001600160a01b031614610b275760405162461bcd60e51b81526020600482015260096024820152683737ba1037bbb732b960b91b6044820152606401610904565b610b318282611fef565b5050565b6000610ad66002612078565b600b546001600160a01b03163314610b6b5760405162461bcd60e51b8152600401610904906134d3565b476000610b80600b546001600160a01b031690565b6001600160a01b03168260405160006040518083038185875af1925050503d8060008114610bca576040519150601f19603f3d011682016040523d82523d6000602084013e610bcf565b606091505b5050905080610b315760405162461bcd60e51b81526020600482015260126024820152712330b4b632b2103a379039b2b7321021373160711b6044820152606401610904565b600b54600160a01b900460ff1615610c2c57600080fd5b813b63ffffffff1615158015610c4c5750601a54600160b01b900460ff16155b15610ca657601a546001600160a01b03838116911614610ca65760405162461bcd60e51b815260206004820152601560248201527418dbdb9d1c9858dd081b9bdd081858d8d95c1d1959605a1b6044820152606401610904565b6001600160a01b0383166000908152600f602052604090205460ff1615610d055760405162461bcd60e51b81526020600482015260136024820152721859191c995cdcc8189b1858dadb1a5cdd1959606a1b6044820152606401610904565b6001600160a01b0382166000908152600f602052604090205460ff1615610d645760405162461bcd60e51b81526020600482015260136024820152721859191c995cdcc8189b1858dadb1a5cdd1959606a1b6044820152606401610904565b610a3a838383612083565b600b546001600160a01b03163314610d995760405162461bcd60e51b8152600401610904906134d3565b601980546001600160a01b0319166001600160a01b0392909216919091179055565b6001600160a01b038116600090815260016020526040812060609190610de0906120b4565b67ffffffffffffffff811115610df857610df8613113565b604051908082528060200260200182016040528015610e21578160200160208202803683370190505b50905060005b6001600160a01b0384166000908152600160205260409020610e48906120b4565b811015610ea0576001600160a01b0384166000908152600160205260409020610e7190826120be565b828281518110610e8357610e83613508565b602090810291909101015280610e9881613534565b915050610e27565b5092915050565b600b546001600160a01b03163314610ed15760405162461bcd60e51b8152600401610904906134d3565b601555565b6001600160a01b0382166000908152600160205260408120610ef890836120be565b9392505050565b600b546000906001600160a01b03163314610f2c5760405162461bcd60e51b8152600401610904906134d3565b600b54600160a01b900460ff1615610f4357600080fd5b600b805460ff60a01b1916600160a01b1790556040517f6985a02210a168e66602d3235cb6db0e70f92b3ba4d376a33c0f3d9434bff62590600090a150600190565b610a3a838383604051806020016040528060008152506119bf565b600080610fae6002846120ca565b509392505050565b600b546001600160a01b03163314610fe05760405162461bcd60e51b8152600401610904906134d3565b610feb6011826120e6565b156110475760405162461bcd60e51b815260206004820152602660248201527f617070656172656e6365496420616c726561647920686173206120636f6e747260448201526534b13aba37b960d11b6064820152608401610904565b6001600160a01b0382166000908152600e6020526040902061106990826120f2565b50610a3a601182846120fe565b600b546001600160a01b031633146110a05760405162461bcd60e51b8152600401610904906134d3565b6019546001600160a01b031663a9059cbb6110c3600b546001600160a01b031690565b6110cb610a69565b6040516001600160e01b031960e085901b1681526001600160a01b03909216600483015260248201526044016020604051808303816000875af1158015611116573d6000803e3d6000fd5b505050506040513d601f19601f8201168201806040525081019061113a919061354f565b50565b600b54600160a01b900460ff161561115457600080fd5b61115d826112b9565b6001600160a01b0316336001600160a01b0316146111a95760405162461bcd60e51b81526020600482015260096024820152682737ba1037bbb732b960b91b6044820152606401610904565b60006111b483611336565b601a549091506111cd906001600160a01b031684611f74565b601a5460208201516001600160a01b039091169063be22facd9085906111f460118261211c565b6040516001600160e01b031960e086901b168152600481019390935260248301919091526001600160a01b031660448201526064810185905233608482015260a401600060405180830381600087803b15801561125057600080fd5b505af1158015611264573d6000803e3d6000fd5b50505050505050565b600b546001600160a01b031633146112975760405162461bcd60e51b8152600401610904906134d3565b601680546001600160a01b0319166001600160a01b0392909216919091179055565b6000610a638260405180606001604052806029815260200161384f6029913960029190612128565b600b546001600160a01b0316331461130b5760405162461bcd60e51b8152600401610904906134d3565b6001600160a01b03919091166000908152600f60205260409020805460ff1916911515919091179055565b61136460405180606001604052806000815260200160008152602001600067ffffffffffffffff1681525090565b600d61137160018461356c565b8154811061138157611381613508565b60009182526020918290206040805160608101825260039093029091018054835260018101549383019390935260029092015467ffffffffffffffff169181019190915292915050565b6060600a80546108199061347f565b6017546001600160a01b03163314806113fd57506018546001600160a01b031633145b6114365760405162461bcd60e51b815260206004820152600a6024820152696e6f742062756e646c6560b01b6044820152606401610904565b601a54600160a81b900460ff166114865760405162461bcd60e51b81526020600482015260146024820152731c1a5958d948199858dd1bdc9e4818db1bdcd95960621b6044820152606401610904565b600b54600160a01b900460ff161561149d57600080fd5b60008160ff1667ffffffffffffffff8111156114bb576114bb613113565b6040519080825280602002602001820160405280156114e4578160200160208202803683370190505b50905060005b8260ff168110156115755760145482828151811061150a5761150a613508565b60200260200101818152505061154d85601454601061152d601080549050612135565b8154811061153d5761153d613508565b906000526020600020015461218a565b6014805490600061155d83613534565b9190505550808061156d90613534565b9150506114ea565b507f18b31159dcd3bbb6f7dbd61f63d83d62ebdd840f02b1335e4327e1a5c75f3070848285426040516115ab9493929190613583565b60405180910390a150505050565b600b546001600160a01b031633146115e35760405162461bcd60e51b8152600401610904906134d3565b610a3a60108383612ed9565b60006001600160a01b03821661165a5760405162461bcd60e51b815260206004820152602a60248201527f4552433732313a2062616c616e636520717565727920666f7220746865207a65604482015269726f206164647265737360b01b6064820152608401610904565b6001600160a01b0382166000908152600160205260409020610a63906120b4565b600b546001600160a01b031633146116a55760405162461bcd60e51b8152600401610904906134d3565b600b546040516000916001600160a01b0316907f8be0079c531659141344cd1fd0a4f28419497f9722a3daafe3b4186f6b6457e0908390a3600b80546001600160a01b0319169055565b600b546001600160a01b031633146117195760405162461bcd60e51b8152600401610904906134d3565b601a805460ff60a81b198116600160a81b9182900460ff1615909102179055565b600b54600160a01b900460ff161561175157600080fd5b601a54600160a01b900460ff166117a35760405162461bcd60e51b8152602060048201526016602482015275109d5c9b9a5b99c81a5cc81b9bdd08185b1b1bddd95960521b6044820152606401610904565b6117ac816112b9565b6001600160a01b0316336001600160a01b0316146118005760405162461bcd60e51b81526020600482015260116024820152702737ba103a37b5b2b724b21037bbb732b960791b6044820152606401610904565b61113a8161235e565b600b546001600160a01b031633146118335760405162461bcd60e51b8152600401610904906134d3565b601a805460ff60b01b198116600160b01b9182900460ff1615909102179055565b6060600880546108199061347f565b6001600160a01b0382163314156118bc5760405162461bcd60e51b815260206004820152601960248201527f4552433732313a20617070726f766520746f2063616c6c6572000000000000006044820152606401610904565b3360008181526006602090815260408083206001600160a01b03871680855290835292819020805460ff191686151590811790915590519081529192917f17307eab39ab6107e8899845ad3d59bd9653f200f220920489ca2b5937696c31910160405180910390a35050565b600b546001600160a01b031633146119525760405162461bcd60e51b8152600401610904906134d3565b601a805460ff60a01b198116600160a01b9182900460ff1615909102179055565b600b546001600160a01b0316331461199d5760405162461bcd60e51b8152600401610904906134d3565b601a80546001600160a01b0319166001600160a01b0392909216919091179055565b6119c933836123ed565b6119e55760405162461bcd60e51b8152600401610904906135bd565b6119f1848484846124d6565b50505050565b600b546001600160a01b03163314611a215760405162461bcd60e51b8152600401610904906134d3565b601780546001600160a01b0319166001600160a01b0392909216919091179055565b6060611a4e82611f67565b611ab25760405162461bcd60e51b815260206004820152602f60248201527f4552433732314d657461646174613a2055524920717565727920666f72206e6f60448201526e3732bc34b9ba32b73a103a37b5b2b760891b6064820152608401610904565b60008281526009602052604081208054611acb9061347f565b80601f0160208091040260200160405190810160405280929190818152602001828054611af79061347f565b8015611b445780601f10611b1957610100808354040283529160200191611b44565b820191906000526020600020905b815481529060010190602001808311611b2757829003601f168201915b50505050509050600a8054611b589061347f565b15159050611b665792915050565b805115611b9857600a81604051602001611b8192919061362a565b604051602081830303815290604052915050919050565b600a611ba384612509565b604051602001611b8192919061362a565b6016546001600160a01b03163314611bff5760405162461bcd60e51b815260206004820152600e60248201526d6e6f74206d656b616465706c6f7960901b6044820152606401610904565b601a54600160a81b900460ff16611c4f5760405162461bcd60e51b81526020600482015260146024820152731c1a5958d948199858dd1bdc9e4818db1bdcd95960621b6044820152606401610904565b600b54600160a01b900460ff1615611c6657600080fd5b833b63ffffffff1615611cbb5760405162461bcd60e51b815260206004820152601b60248201527f6f776e65722063616e206e6f74206265206120636f6e747261637400000000006044820152606401610904565b81611d8957601554831015611d035760405162461bcd60e51b815260206004820152600e60248201526d1253959053125108105353d5539560921b6044820152606401610904565b6019546040516323b872dd60e01b81526001600160a01b03868116600483015230602483015260448201869052909116906323b872dd906064016020604051808303816000875af1158015611d5c573d6000803e3d6000fd5b505050506040513d601f19601f82011682018060405250810190611d80919061354f565b611d8957600080fd5b611da084601454601061152d601080549050612135565b611dac60145482611fef565b601454604080516001600160a01b038716815260208101929092524282820152517f75c4f161f0f4fa4629d94dbff726337f86c6b4f92c321f20e335bb547d5af05c9181900360600190a160148054906000611e0783613534565b919050555050505050565b600b546001600160a01b03163314611e3c5760405162461bcd60e51b8152600401610904906134d3565b61113a81612620565b600b546001600160a01b03163314611e6f5760405162461bcd60e51b8152600401610904906134d3565b601880546001600160a01b0319166001600160a01b0392909216919091179055565b6060601080548060200260200160405190810160405280929190818152602001828054801561089257602002820191906000526020600020905b815481526020019060010190808311611ecb575050505050905090565b600b546000906001600160a01b03163314611f155760405162461bcd60e51b8152600401610904906134d3565b600b54600160a01b900460ff16611f2b57600080fd5b600b805460ff60a01b191690556040517f7805862f689e2f13df9f062ff482ad3ad112aca9e0847911ed832e158c525b3390600090a150600190565b6000610a636002836120e6565b600081815260056020526040902080546001600160a01b0319166001600160a01b0384169081179091558190611fa9826112b9565b6001600160a01b03167f8c5be1e5ebec7d5bd14f71427d1e84f3dd0314c0f7b2291e5b200ac8c7c3b92560405160405180910390a45050565b60606000610ef8836126e1565b611ff882611f67565b6120595760405162461bcd60e51b815260206004820152602c60248201527f4552433732314d657461646174613a2055524920736574206f66206e6f6e657860448201526b34b9ba32b73a103a37b5b2b760a11b6064820152608401610904565b60008281526009602090815260409091208251610a3a92840190612f24565b6000610a638261273d565b61208d33826123ed565b6120a95760405162461bcd60e51b8152600401610904906135bd565b610a3a838383612748565b6000610a63825490565b6000610ef883836128d4565b60008080806120d986866128fe565b9097909650945050505050565b6000610ef88383612929565b6000610ef88383612948565b600061211484846001600160a01b038516612997565b949350505050565b6000610ef883836129b4565b6000612114848484612a24565b604080514460208201526bffffffffffffffffffffffff193360601b169181019190915242605482015260009082906074016040516020818303038152906040528051906020012060001c610a6391906136e7565b6001600160a01b0383166121e05760405162461bcd60e51b815260206004820181905260248201527f4552433732313a206d696e7420746f20746865207a65726f20616464726573736044820152606401610904565b6121e982611f67565b156122365760405162461bcd60e51b815260206004820152601c60248201527f4552433732313a20746f6b656e20616c7265616479206d696e746564000000006044820152606401610904565b6040805160608101825283815260208082018481524267ffffffffffffffff908116848601908152600d8054600181018255600091825286517fd7b6990105719101dabeb77144f2a3385c8033acd3af97e9423a695e81ad1eb560039092029182015593517fd7b6990105719101dabeb77144f2a3385c8033acd3af97e9423a695e81ad1eb685015590517fd7b6990105719101dabeb77144f2a3385c8033acd3af97e9423a695e81ad1eb7909301805467ffffffffffffffff1916939092169290921790558351918201909352918252906123159085908590612a67565b604080516001600160a01b03861681526020810185905242918101919091527f393ccba6479926a7c4a6471a3b4584229e2df48a1858c8caf57680927dced5ff906060016115ab565b6000612369826112b9565b905061237781600084612a9a565b612382600083611f74565b6001600160a01b03811660009081526001602052604090206123a49083612ab1565b506123b0600283612abd565b5060405182906000906001600160a01b038416907fddf252ad1be2c89b69c2b068fc378daa952ba7f163c4a11628f55a4df523b3ef908390a45050565b60006123f882611f67565b6124595760405162461bcd60e51b815260206004820152602c60248201527f4552433732313a206f70657261746f7220717565727920666f72206e6f6e657860448201526b34b9ba32b73a103a37b5b2b760a11b6064820152608401610904565b6000612464836112b9565b9050806001600160a01b0316846001600160a01b0316148061249f5750836001600160a01b03166124948461089c565b6001600160a01b0316145b8061211457506001600160a01b0380821660009081526006602090815260408083209388168352929052205460ff16949350505050565b6124e1848484612748565b6124ed84848484612ac9565b6119f15760405162461bcd60e51b8152600401610904906136fb565b60608161252d5750506040805180820190915260018152600360fc1b602082015290565b8160005b8115612557578061254181613534565b91506125509050600a8361374d565b9150612531565b60008167ffffffffffffffff81111561257257612572613113565b6040519080825280601f01601f19166020018201604052801561259c576020820181803683370190505b50905060006125ac60018461356c565b90508593505b8315612617576125c3600a856136e7565b6125ce906030613761565b60f81b82826125dc81613779565b9350815181106125ee576125ee613508565b60200101906001600160f81b031916908160001a905350612610600a8561374d565b93506125b2565b50949350505050565b6001600160a01b0381166126855760405162461bcd60e51b815260206004820152602660248201527f4f776e61626c653a206e6577206f776e657220697320746865207a65726f206160448201526564647265737360d01b6064820152608401610904565b600b546040516001600160a01b038084169216907f8be0079c531659141344cd1fd0a4f28419497f9722a3daafe3b4186f6b6457e090600090a3600b80546001600160a01b0319166001600160a01b0392909216919091179055565b60608160000180548060200260200160405190810160405280929190818152602001828054801561273157602002820191906000526020600020905b81548152602001906001019080831161271d575b50505050509050919050565b6000610a63826120b4565b826001600160a01b031661275b826112b9565b6001600160a01b0316146127c35760405162461bcd60e51b815260206004820152602960248201527f4552433732313a207472616e73666572206f6620746f6b656e2074686174206960448201526839903737ba1037bbb760b91b6064820152608401610904565b6001600160a01b0382166128255760405162461bcd60e51b8152602060048201526024808201527f4552433732313a207472616e7366657220746f20746865207a65726f206164646044820152637265737360e01b6064820152608401610904565b612830838383612a9a565b61283b600082611f74565b6001600160a01b038316600090815260016020526040902061285d9082612ab1565b506001600160a01b038216600090815260016020526040902061288090826120f2565b5061288d600282846120fe565b5080826001600160a01b0316846001600160a01b03167fddf252ad1be2c89b69c2b068fc378daa952ba7f163c4a11628f55a4df523b3ef60405160405180910390a4505050565b60008260000182815481106128eb576128eb613508565b9060005260206000200154905092915050565b6000808061290c85856120be565b600081815260029690960160205260409095205494959350505050565b6000610ef8838360008181526001830160205260408120541515610ef8565b600081815260018301602052604081205461298f57508154600181810184556000848152602080822090930184905584548482528286019093526040902091909155610a63565b506000610a63565b6000828152600284016020526040812082905561211484846120f2565b6000818152600283016020526040812054801515806129d857506129d88484612929565b610ef85760405162461bcd60e51b815260206004820152601e60248201527f456e756d657261626c654d61703a206e6f6e6578697374656e74206b657900006044820152606401610904565b600082815260028401602052604081205480151580612a485750612a488585612929565b83906126175760405162461bcd60e51b81526004016109049190613038565b612a718383612b9a565b612a7e6000848484612ac9565b610a3a5760405162461bcd60e51b8152600401610904906136fb565b600b54600160a01b900460ff1615610a3a57600080fd5b6000610ef88383612cbe565b6000610ef88383612db1565b60006001600160a01b0384163b612ae257506001612114565b6000612b63630a85bd0160e11b33888787604051602401612b069493929190613790565b604051602081830303815290604052906001600160e01b0319166020820180516001600160e01b03838183161783525050505060405180606001604052806032815260200161381d603291396001600160a01b0388169190612dce565b9050600081806020019051810190612b7b91906137cd565b6001600160e01b031916630a85bd0160e11b1492505050949350505050565b6001600160a01b038216612bf05760405162461bcd60e51b815260206004820181905260248201527f4552433732313a206d696e7420746f20746865207a65726f20616464726573736044820152606401610904565b612bf981611f67565b15612c465760405162461bcd60e51b815260206004820152601c60248201527f4552433732313a20746f6b656e20616c7265616479206d696e746564000000006044820152606401610904565b612c5260008383612a9a565b6001600160a01b0382166000908152600160205260409020612c7490826120f2565b50612c81600282846120fe565b5060405181906001600160a01b038416906000907fddf252ad1be2c89b69c2b068fc378daa952ba7f163c4a11628f55a4df523b3ef908290a45050565b60008181526001830160205260408120548015612da7576000612ce260018361356c565b8554909150600090612cf69060019061356c565b9050818114612d5b576000866000018281548110612d1657612d16613508565b9060005260206000200154905080876000018481548110612d3957612d39613508565b6000918252602080832090910192909255918252600188019052604090208390555b8554869080612d6c57612d6c6137ea565b600190038181906000526020600020016000905590558560010160008681526020019081526020016000206000905560019350505050610a63565b6000915050610a63565b60008181526002830160205260408120819055610ef88383612ab1565b6060612114848460008585843b612e275760405162461bcd60e51b815260206004820152601d60248201527f416464726573733a2063616c6c20746f206e6f6e2d636f6e74726163740000006044820152606401610904565b600080866001600160a01b03168587604051612e439190613800565b60006040518083038185875af1925050503d8060008114612e80576040519150601f19603f3d011682016040523d82523d6000602084013e612e85565b606091505b5091509150612e95828286612ea0565b979650505050505050565b60608315612eaf575081610ef8565b825115612ebf5782518084602001fd5b8160405162461bcd60e51b81526004016109049190613038565b828054828255906000526020600020908101928215612f14579160200282015b82811115612f14578235825591602001919060010190612ef9565b50612f20929150612f98565b5090565b828054612f309061347f565b90600052602060002090601f016020900481019282612f525760008555612f14565b82601f10612f6b57805160ff1916838001178555612f14565b82800160010185558215612f14579182015b82811115612f14578251825591602001919060010190612f7d565b5b80821115612f205760008155600101612f99565b6001600160e01b03198116811461113a57600080fd5b600060208284031215612fd557600080fd5b8135610ef881612fad565b60005b83811015612ffb578181015183820152602001612fe3565b838111156119f15750506000910152565b60008151808452613024816020860160208601612fe0565b601f01601f19169290920160200192915050565b602081526000610ef8602083018461300c565b60006020828403121561305d57600080fd5b5035919050565b80356001600160a01b038116811461307b57600080fd5b919050565b6000806040838503121561309357600080fd5b61309c83613064565b946020939093013593505050565b6000602082840312156130bc57600080fd5b610ef882613064565b600081518084526020808501945080840160005b838110156130f5578151875295820195908201906001016130d9565b509495945050505050565b602081526000610ef860208301846130c5565b634e487b7160e01b600052604160045260246000fd5b600067ffffffffffffffff8084111561314457613144613113565b604051601f8501601f19908116603f0116810190828211818310171561316c5761316c613113565b8160405280935085815286868601111561318557600080fd5b858560208301376000602087830101525050509392505050565b600082601f8301126131b057600080fd5b610ef883833560208501613129565b600080604083850312156131d257600080fd5b82359150602083013567ffffffffffffffff8111156131f057600080fd5b6131fc8582860161319f565b9150509250929050565b60008060006060848603121561321b57600080fd5b61322484613064565b925061323260208501613064565b9150604084013590509250925092565b6000806040838503121561325557600080fd5b50508035926020909101359150565b801515811461113a57600080fd5b6000806040838503121561328557600080fd5b61328e83613064565b9150602083013561329e81613264565b809150509250929050565b803560ff8116811461307b57600080fd5b6000806000606084860312156132cf57600080fd5b6132d884613064565b92506132e6602085016132a9565b91506132f4604085016132a9565b90509250925092565b6000806020838503121561331057600080fd5b823567ffffffffffffffff8082111561332857600080fd5b818501915085601f83011261333c57600080fd5b81358181111561334b57600080fd5b8660208260051b850101111561336057600080fd5b60209290920196919550909350505050565b6000806000806080858703121561338857600080fd5b61339185613064565b935061339f60208601613064565b925060408501359150606085013567ffffffffffffffff8111156133c257600080fd5b8501601f810187136133d357600080fd5b6133e287823560208401613129565b91505092959194509250565b6000806000806080858703121561340457600080fd5b61340d85613064565b935060208501359250604085013561342481613264565b9150606085013567ffffffffffffffff81111561344057600080fd5b6133e28782880161319f565b6000806040838503121561345f57600080fd5b61346883613064565b915061347660208401613064565b90509250929050565b600181811c9082168061349357607f821691505b602082108114156134b457634e487b7160e01b600052602260045260246000fd5b50919050565b6000602082840312156134cc57600080fd5b5051919050565b6020808252818101527f4f776e61626c653a2063616c6c6572206973206e6f7420746865206f776e6572604082015260600190565b634e487b7160e01b600052603260045260246000fd5b634e487b7160e01b600052601160045260246000fd5b60006000198214156135485761354861351e565b5060010190565b60006020828403121561356157600080fd5b8151610ef881613264565b60008282101561357e5761357e61351e565b500390565b6001600160a01b03851681526080602082018190526000906135a7908301866130c5565b60ff949094166040830152506060015292915050565b60208082526031908201527f4552433732313a207472616e736665722063616c6c6572206973206e6f74206f6040820152701ddb995c881b9bdc88185c1c1c9bdd9959607a1b606082015260800190565b60008151613620818560208601612fe0565b9290920192915050565b600080845481600182811c91508083168061364657607f831692505b602080841082141561366657634e487b7160e01b86526022600452602486fd5b81801561367a576001811461368b576136b8565b60ff198616895284890196506136b8565b60008b81526020902060005b868110156136b05781548b820152908501908301613697565b505084890196505b5050505050506136c8818561360e565b95945050505050565b634e487b7160e01b600052601260045260246000fd5b6000826136f6576136f66136d1565b500690565b60208082526032908201527f4552433732313a207472616e7366657220746f206e6f6e20455243373231526560408201527131b2b4bb32b91034b6b83632b6b2b73a32b960711b606082015260800190565b60008261375c5761375c6136d1565b500490565b600082198211156137745761377461351e565b500190565b6000816137885761378861351e565b506000190190565b6001600160a01b03858116825284166020820152604081018390526080606082018190526000906137c39083018461300c565b9695505050505050565b6000602082840312156137df57600080fd5b8151610ef881612fad565b634e487b7160e01b600052603160045260246000fd5b60008251613812818460208701612fe0565b919091019291505056fe4552433732313a207472616e7366657220746f206e6f6e20455243373231526563656976657220696d706c656d656e7465724552433732313a206f776e657220717565727920666f72206e6f6e6578697374656e7420746f6b656ea2646970667358221220d5904ee49950ef13650aff3c2b9b108e98bd6d6e069d98b52484ab06a08604f764736f6c634300080b0033",
  "immutableReferences": {},
  "source": "// SPDX-License-Identifier: MIT\r\npragma solidity ^0.8.2;\r\n\r\nimport \"./IBEP20.sol\";\r\nimport \"./IMarketplace.sol\";\r\nimport \"./Ownable.sol\";\r\nimport \"./AccessControl.sol\";\r\nimport \"./ERC721.sol\";\r\nimport \"./ERC721Pausable.sol\";\r\nimport \"./EnumerableSet.sol\";\r\nimport \"./EnumerableMap.sol\";\r\nimport \"./IPieceCore.sol\";\r\nimport \"./ReentrancyGuard.sol\";\r\n\r\ncontract PieceCore is Ownable, ERC721Pausable, IPieceCore, ReentrancyGuard {\r\n    using EnumerableSet for EnumerableSet.UintSet;\r\n    using EnumerableMap for EnumerableMap.UintToAddressMap;\r\n\r\n    /*** DATA TYPES ***/\r\n    struct Piece {\r\n        uint256 tokenId; // current token id, theorically this will be the same as pieceId\r\n        uint256 pieceId;\r\n        uint64 birthTime; // The timestamp from the block when this Piece came into existence.\r\n    }\r\n\r\n    enum Rarity {\r\n        E,\r\n        D,\r\n        C,\r\n        B,\r\n        A,\r\n        S\r\n    }\r\n\r\n    enum PieceType {\r\n        Head,\r\n        LArm,\r\n        RArm,\r\n        Legs,\r\n        Chest\r\n    }\r\n\r\n    enum PackageType {\r\n        Default,\r\n        First,\r\n        Second,\r\n        Third,\r\n        Fourth\r\n    }\r\n\r\n    /*** STORAGE ***/\r\n    /// @dev An array containing the Piece struct for all pieces in existence. The ID\r\n    ///  of each Piece is actually an index into this array.\r\n    Piece[] pieces;\r\n\r\n    /* PACKAGE VARIABLES */\r\n    mapping(address => EnumerableSet.UintSet) private _contributorPieceId;\r\n    mapping(address => bool) private _banBlackList;\r\n    uint256[] private _availablePieces;\r\n    EnumerableMap.UintToAddressMap private _pieceIdContributor;\r\n\r\n    uint256 private nextPieceTokenId = 1;\r\n    uint256 private piecePrice = 5 * 10**18; // to review\r\n\r\n    /* SETTABLE VARIABLES */\r\n    address public _mekaDeployerAddress;\r\n    address public _piecePackageAddress;\r\n    address public _piecePackageGen1Address;\r\n    address public _mekaAddress;\r\n    address public _marketplaceAddr;\r\n    bool public isBurn;\r\n    bool public isPieceFactoryOpen;\r\n    bool public acceptContracts;\r\n\r\n    event MintedPieceFromBundle(\r\n        address from,\r\n        uint256[] pieceId,\r\n        uint8 packageType,\r\n        uint256 date\r\n    );\r\n    event MintedPiece(address from, uint256 pieceId, uint256 date);\r\n\r\n    constructor(address mekaAddress) ERC721(\"Meka Piece\", \"MekaPiece\") {\r\n        isBurn = true;\r\n        _mekaAddress = mekaAddress;\r\n        isPieceFactoryOpen = true;\r\n    }\r\n\r\n    function setContributorPieceId(address contributor, uint256 pieceId)\r\n        external\r\n        onlyOwner\r\n    {\r\n        require(\r\n            !_pieceIdContributor.contains(pieceId),\r\n            \"appearenceId already has a contributor\"\r\n        );\r\n\r\n        _contributorPieceId[contributor].add(pieceId);\r\n        _pieceIdContributor.set(pieceId, contributor);\r\n    }\r\n\r\n    function updateAcceptContract() external onlyOwner {\r\n        acceptContracts = !acceptContracts;\r\n    }\r\n\r\n    function setAvailablePieces(uint256[] calldata pieceIds)\r\n        external\r\n        onlyOwner\r\n    {\r\n        _availablePieces = pieceIds;\r\n    }\r\n\r\n    function isBlacklisted(address addr) external view returns (bool) {\r\n        return _banBlackList[addr];\r\n    }\r\n\r\n    function setBlackList(address addr, bool isBlackListed) external onlyOwner {\r\n        _banBlackList[addr] = isBlackListed;\r\n    }\r\n\r\n    function setPiecePrice(uint256 _price) external onlyOwner {\r\n        piecePrice = _price;\r\n    }\r\n\r\n    function setTokenAddress(address _addr) external onlyOwner {\r\n        _mekaAddress = _addr;\r\n    }\r\n\r\n    function setPiecePackageAddress(address _address) external onlyOwner {\r\n        _piecePackageAddress = _address;\r\n    }\r\n\r\n    function setPiecePackageGen1Address(address _address) external onlyOwner {\r\n        _piecePackageGen1Address = _address;\r\n    }\r\n\r\n    // @dev Sets the reference to the sale.\r\n    /// @param _address - Address of sale contract.\r\n    function setMarketplaceAddress(address _address) external onlyOwner {\r\n        _marketplaceAddr = _address;\r\n    }\r\n\r\n    function setMekaDeployerAddress(address _mekaDeployAddr)\r\n        external\r\n        onlyOwner\r\n    {\r\n        _mekaDeployerAddress = _mekaDeployAddr;\r\n    }\r\n\r\n    // @dev Sets the reference to the burn.\r\n    function updateIsBurn() external onlyOwner {\r\n        isBurn = !isBurn;\r\n    }\r\n\r\n    function updatePieceFactory() external onlyOwner {\r\n        isPieceFactoryOpen = !isPieceFactoryOpen;\r\n    }\r\n\r\n    function setTokenURI(uint256 tokenId, string memory _tokenURI) external {\r\n        require(ownerOf(tokenId) == msg.sender, \"not owner\");\r\n        _setTokenURI(tokenId, _tokenURI);\r\n    }\r\n\r\n    modifier onlyBundle() {\r\n        require(\r\n            msg.sender == _piecePackageAddress ||\r\n                msg.sender == _piecePackageGen1Address,\r\n            \"not bundle\"\r\n        );\r\n        _;\r\n    }\r\n\r\n    modifier pieceFactory() {\r\n        require(isPieceFactoryOpen, \"piece factory closed\");\r\n        _;\r\n    }\r\n\r\n    modifier onlyMekaDeploy() {\r\n        require(msg.sender == _mekaDeployerAddress, \"not mekadeploy\");\r\n        _;\r\n    }\r\n\r\n    function withdrawBalance() external onlyOwner {\r\n        IBEP20(_mekaAddress).transfer(owner(), getBalance());\r\n    }\r\n\r\n    function withdrawBnb() external onlyOwner {\r\n        uint256 amount = address(this).balance;\r\n\r\n        (bool success, ) = payable(owner()).call{value: amount}(\"\");\r\n        require(success, \"Failed to send Bnb\");\r\n    }\r\n\r\n    function _mintPiece(\r\n        address to,\r\n        uint256 tokenId,\r\n        uint256 pieceId\r\n    ) private {\r\n        require(to != address(0), \"ERC721: mint to the zero address\");\r\n        require(!_exists(tokenId), \"ERC721: token already minted\");\r\n\r\n        Piece memory _piece = Piece({\r\n            tokenId: tokenId,\r\n            pieceId: pieceId,\r\n            birthTime: uint64(block.timestamp)\r\n        });\r\n\r\n        pieces.push(_piece);\r\n\r\n        _safeMint(to, tokenId, \"\");\r\n\r\n        emit Birth(to, tokenId, block.timestamp);\r\n    }\r\n\r\n    function createPiece(\r\n        address _owner,\r\n        uint256 _amount,\r\n        bool _fromFarm,\r\n        string memory _tokenURI\r\n    ) external onlyMekaDeploy pieceFactory whenNotPaused {\r\n        require(!isContract(_owner), \"owner can not be a contract\");\r\n        if (!_fromFarm) {\r\n            require(_amount >= piecePrice, \"INVALID AMOUNT\");\r\n            require(\r\n                IBEP20(_mekaAddress).transferFrom(\r\n                    _owner,\r\n                    address(this),\r\n                    _amount\r\n                )\r\n            );\r\n        }\r\n        _mintPiece(\r\n            _owner,\r\n            nextPieceTokenId,\r\n            _availablePieces[random(_availablePieces.length)]\r\n        );\r\n        _setTokenURI(nextPieceTokenId, _tokenURI);\r\n        emit MintedPiece(_owner, nextPieceTokenId, block.timestamp);\r\n        nextPieceTokenId++;\r\n    }\r\n\r\n    function createSale(uint256 _tokenId, uint256 _startingPrice)\r\n        external\r\n        whenNotPaused\r\n    {\r\n        require(msg.sender == ownerOf(_tokenId), \"Not owner\");\r\n\r\n        Piece memory piece = getPiece(_tokenId);\r\n\r\n        _approve(_marketplaceAddr, _tokenId);\r\n        IMarketplace(_marketplaceAddr).createSale(\r\n            _tokenId,\r\n            piece.pieceId,\r\n            _pieceIdContributor.get(piece.pieceId),\r\n            _startingPrice,\r\n            msg.sender\r\n        );\r\n    }\r\n\r\n    function burnPiece(uint256 _tokenId) external whenNotPaused {\r\n        require(isBurn, \"Burning is not allowed\");\r\n        require(msg.sender == ownerOf(_tokenId), \"Not tokenId owner\");\r\n\r\n        _burn(_tokenId); // burn token\r\n    }\r\n\r\n    /// @notice Returns all pieces made by a specific contributor.\r\n    /// @param _contributor contributor wallet.\r\n    function getContributorPieces(address _contributor)\r\n        external\r\n        view\r\n        returns (uint256[] memory _contributorPieces)\r\n    {\r\n        _contributorPieces = _contributorPieceId[_contributor].values();\r\n    }\r\n\r\n    /// @notice Returns all the relevant information about a specific Piece.\r\n    /// @param _id The ID of the Piece of interest.\r\n    function getPiece(uint256 _id) public view returns (Piece memory piece) {\r\n        piece = pieces[_id - 1];\r\n    }\r\n\r\n    function getAvailablePieces()\r\n        external\r\n        view\r\n        returns (uint256[] memory pieceIds)\r\n    {\r\n        return _availablePieces;\r\n    }\r\n\r\n    function getBalance() public view returns (uint256) {\r\n        return IBEP20(_mekaAddress).balanceOf(address(this));\r\n    }\r\n\r\n    function createPieceFromBundle(\r\n        address _owner,\r\n        uint8 packageType,\r\n        uint8 pieceQuantity\r\n    ) external onlyBundle pieceFactory whenNotPaused {\r\n        uint256[] memory allTokens = new uint256[](pieceQuantity);\r\n\r\n        for (uint256 index = 0; index < pieceQuantity; index++) {\r\n            allTokens[index] = nextPieceTokenId;\r\n            _mintPiece(\r\n                _owner,\r\n                nextPieceTokenId,\r\n                _availablePieces[random(_availablePieces.length)]\r\n            );\r\n            nextPieceTokenId++;\r\n        }\r\n\r\n        emit MintedPieceFromBundle(\r\n            _owner,\r\n            allTokens,\r\n            packageType,\r\n            block.timestamp\r\n        );\r\n    }\r\n\r\n    function transferFrom(\r\n        address from,\r\n        address to,\r\n        uint256 tokenId\r\n    ) public override whenNotPaused {\r\n        if (isContract(to) && !acceptContracts) {\r\n            require(to == _marketplaceAddr, \"contract not accepted\");\r\n        }\r\n        require(!_banBlackList[from], \"address blacklisted\");\r\n        require(!_banBlackList[to], \"address blacklisted\");\r\n\r\n        super.transferFrom(from, to, tokenId);\r\n    }\r\n\r\n    /**\r\n     * @dev Identify an address is user address or contract address\r\n     */\r\n    function isContract(address _address) private view returns (bool) {\r\n        uint32 size;\r\n        assembly {\r\n            size := extcodesize(_address)\r\n        }\r\n        return (size > 0);\r\n    }\r\n\r\n    function random(uint256 _modulus) private view returns (uint256) {\r\n        return\r\n            uint256(\r\n                keccak256(\r\n                    abi.encodePacked(\r\n                        block.difficulty,\r\n                        msg.sender,\r\n                        block.timestamp\r\n                    )\r\n                )\r\n            ) % _modulus;\r\n    }\r\n}\r\n",
  "sourcePath": "E:\\MekaMiners\\contracts\\PieceCore.sol",
  "compiler": {
    "name": "solc",
    "version": "0.8.11+commit.d7f03943.Emscripten.clang"
  },
  "schemaVersion": "3.4.3",
  "updatedAt": "2022-01-03T15:19:31.040Z",
  "networkType": "ethereum",
  "devdoc": {
    "kind": "dev",
    "methods": {
      "_pause()": {
        "details": "called by the owner to pause, triggers stopped state"
      },
      "_unpause()": {
        "details": "called by the owner to unpause, returns to normal state"
      },
      "approve(address,uint256)": {
        "details": "See {IERC721-approve}."
      },
      "balanceOf(address)": {
        "details": "See {IERC721-balanceOf}."
      },
      "baseURI()": {
        "details": "Returns the base URI set via {_setBaseURI}. This will be automatically added as a prefix in {tokenURI} to each token's URI, or to the token ID if no specific URI is set for that token ID."
      },
      "getApproved(uint256)": {
        "details": "See {IERC721-getApproved}."
      },
      "getContributorPieces(address)": {
        "params": {
          "_contributor": "contributor wallet."
        }
      },
      "getPiece(uint256)": {
        "params": {
          "_id": "The ID of the Piece of interest."
        }
      },
      "isApprovedForAll(address,address)": {
        "details": "See {IERC721-isApprovedForAll}."
      },
      "isOwner()": {
        "details": "Returns true if the caller is the current owner."
      },
      "name()": {
        "details": "See {IERC721Metadata-name}."
      },
      "owner()": {
        "details": "Returns the address of the current owner."
      },
      "ownerOf(uint256)": {
        "details": "See {IERC721-ownerOf}."
      },
      "renounceOwnership()": {
        "details": "Leaves the contract without owner. It will not be possible to call `onlyOwner` functions anymore. Can only be called by the current owner. NOTE: Renouncing ownership will leave the contract without an owner, thereby removing any functionality that is only available to the owner."
      },
      "safeTransferFrom(address,address,uint256)": {
        "details": "See {IERC721-safeTransferFrom}."
      },
      "safeTransferFrom(address,address,uint256,bytes)": {
        "details": "See {IERC721-safeTransferFrom}."
      },
      "setApprovalForAll(address,bool)": {
        "details": "See {IERC721-setApprovalForAll}."
      },
      "setMarketplaceAddress(address)": {
        "params": {
          "_address": "- Address of sale contract."
        }
      },
      "supportsInterface(bytes4)": {
        "details": "See {IERC165-supportsInterface}. Time complexity O(1), guaranteed to always use less than 30 000 gas."
      },
      "symbol()": {
        "details": "See {IERC721Metadata-symbol}."
      },
      "tokenByIndex(uint256)": {
        "details": "See {IERC721Enumerable-tokenByIndex}."
      },
      "tokenOfOwner(address)": {
        "details": "See {IERC721Enumerable-tokenOfOwner}."
      },
      "tokenOfOwnerByIndex(address,uint256)": {
        "details": "See {IERC721Enumerable-tokenOfOwnerByIndex}."
      },
      "tokenURI(uint256)": {
        "details": "See {IERC721Metadata-tokenURI}."
      },
      "totalSupply()": {
        "details": "See {IERC721Enumerable-totalSupply}."
      },
      "transferFrom(address,address,uint256)": {
        "details": "See {IERC721-transferFrom}."
      },
      "transferOwnership(address)": {
        "details": "Transfers ownership of the contract to a new account (`newOwner`). Can only be called by the current owner."
      }
    },
    "stateVariables": {
      "pieces": {
        "details": "An array containing the Piece struct for all pieces in existence. The ID  of each Piece is actually an index into this array."
      }
    },
    "version": 1
  },
  "userdoc": {
    "kind": "user",
    "methods": {
      "getContributorPieces(address)": {
        "notice": "Returns all pieces made by a specific contributor."
      },
      "getPiece(uint256)": {
        "notice": "Returns all the relevant information about a specific Piece."
      }
    },
    "version": 1
  }
}