{
  "contractName": "PieceMarketplace",
  "abi": [
    {
      "inputs": [
        {
          "internalType": "address",
          "name": "_nftAddr",
          "type": "address"
        },
        {
          "internalType": "uint256",
          "name": "_cut",
          "type": "uint256"
        },
        {
          "internalType": "uint256",
          "name": "_contributorCut",
          "type": "uint256"
        },
        {
          "internalType": "address",
          "name": "_mekaToken",
          "type": "address"
        }
      ],
      "stateMutability": "nonpayable",
      "type": "constructor"
    },
    {
      "anonymous": false,
      "inputs": [
        {
          "indexed": true,
          "internalType": "address",
          "name": "previousOwner",
          "type": "address"
        },
        {
          "indexed": true,
          "internalType": "address",
          "name": "newOwner",
          "type": "address"
        }
      ],
      "name": "OwnershipTransferred",
      "type": "event"
    },
    {
      "anonymous": false,
      "inputs": [],
      "name": "Pause",
      "type": "event"
    },
    {
      "anonymous": false,
      "inputs": [
        {
          "indexed": false,
          "internalType": "uint256",
          "name": "tokenId",
          "type": "uint256"
        }
      ],
      "name": "SaleCancelled",
      "type": "event"
    },
    {
      "anonymous": false,
      "inputs": [
        {
          "indexed": false,
          "internalType": "uint256",
          "name": "tokenId",
          "type": "uint256"
        },
        {
          "indexed": false,
          "internalType": "uint256",
          "name": "startingPrice",
          "type": "uint256"
        }
      ],
      "name": "SaleCreated",
      "type": "event"
    },
    {
      "anonymous": false,
      "inputs": [
        {
          "indexed": false,
          "internalType": "uint256",
          "name": "tokenId",
          "type": "uint256"
        },
        {
          "indexed": false,
          "internalType": "uint256",
          "name": "totalPrice",
          "type": "uint256"
        },
        {
          "indexed": false,
          "internalType": "address",
          "name": "winner",
          "type": "address"
        }
      ],
      "name": "SaleSuccessful",
      "type": "event"
    },
    {
      "anonymous": false,
      "inputs": [],
      "name": "Unpause",
      "type": "event"
    },
    {
      "inputs": [],
      "name": "MEKAToken",
      "outputs": [
        {
          "internalType": "address",
          "name": "",
          "type": "address"
        }
      ],
      "stateMutability": "view",
      "type": "function",
      "constant": true
    },
    {
      "inputs": [],
      "name": "_pause",
      "outputs": [
        {
          "internalType": "bool",
          "name": "",
          "type": "bool"
        }
      ],
      "stateMutability": "nonpayable",
      "type": "function"
    },
    {
      "inputs": [],
      "name": "_unpause",
      "outputs": [
        {
          "internalType": "bool",
          "name": "",
          "type": "bool"
        }
      ],
      "stateMutability": "nonpayable",
      "type": "function"
    },
    {
      "inputs": [
        {
          "internalType": "uint256",
          "name": "_tokenId",
          "type": "uint256"
        },
        {
          "internalType": "uint256",
          "name": "_amount",
          "type": "uint256"
        }
      ],
      "name": "bid",
      "outputs": [],
      "stateMutability": "payable",
      "type": "function",
      "payable": true
    },
    {
      "inputs": [
        {
          "internalType": "uint256",
          "name": "_tokenId",
          "type": "uint256"
        }
      ],
      "name": "cancelSale",
      "outputs": [],
      "stateMutability": "nonpayable",
      "type": "function"
    },
    {
      "inputs": [
        {
          "internalType": "uint256",
          "name": "_tokenId",
          "type": "uint256"
        }
      ],
      "name": "cancelSaleWhenPaused",
      "outputs": [],
      "stateMutability": "nonpayable",
      "type": "function"
    },
    {
      "inputs": [
        {
          "internalType": "uint256",
          "name": "_cut",
          "type": "uint256"
        }
      ],
      "name": "changeCut",
      "outputs": [],
      "stateMutability": "nonpayable",
      "type": "function"
    },
    {
      "inputs": [],
      "name": "contributorCut",
      "outputs": [
        {
          "internalType": "uint256",
          "name": "",
          "type": "uint256"
        }
      ],
      "stateMutability": "view",
      "type": "function",
      "constant": true
    },
    {
      "inputs": [],
      "name": "getBalance",
      "outputs": [
        {
          "internalType": "uint256",
          "name": "",
          "type": "uint256"
        }
      ],
      "stateMutability": "view",
      "type": "function",
      "constant": true
    },
    {
      "inputs": [
        {
          "internalType": "uint256",
          "name": "_tokenId",
          "type": "uint256"
        }
      ],
      "name": "getSale",
      "outputs": [
        {
          "internalType": "address",
          "name": "seller",
          "type": "address"
        },
        {
          "internalType": "uint256",
          "name": "startingPrice",
          "type": "uint256"
        },
        {
          "internalType": "uint256",
          "name": "startedAt",
          "type": "uint256"
        }
      ],
      "stateMutability": "view",
      "type": "function",
      "constant": true
    },
    {
      "inputs": [],
      "name": "isOwner",
      "outputs": [
        {
          "internalType": "bool",
          "name": "",
          "type": "bool"
        }
      ],
      "stateMutability": "view",
      "type": "function",
      "constant": true
    },
    {
      "inputs": [],
      "name": "nonFungibleContract",
      "outputs": [
        {
          "internalType": "address",
          "name": "",
          "type": "address"
        }
      ],
      "stateMutability": "view",
      "type": "function",
      "constant": true
    },
    {
      "inputs": [],
      "name": "owner",
      "outputs": [
        {
          "internalType": "address",
          "name": "",
          "type": "address"
        }
      ],
      "stateMutability": "view",
      "type": "function",
      "constant": true
    },
    {
      "inputs": [],
      "name": "ownerCut",
      "outputs": [
        {
          "internalType": "uint256",
          "name": "",
          "type": "uint256"
        }
      ],
      "stateMutability": "view",
      "type": "function",
      "constant": true
    },
    {
      "inputs": [],
      "name": "paused",
      "outputs": [
        {
          "internalType": "bool",
          "name": "",
          "type": "bool"
        }
      ],
      "stateMutability": "view",
      "type": "function",
      "constant": true
    },
    {
      "inputs": [],
      "name": "renounceOwnership",
      "outputs": [],
      "stateMutability": "nonpayable",
      "type": "function"
    },
    {
      "inputs": [
        {
          "internalType": "uint256",
          "name": "fee",
          "type": "uint256"
        }
      ],
      "name": "setBnbFeeAddress",
      "outputs": [],
      "stateMutability": "nonpayable",
      "type": "function"
    },
    {
      "inputs": [
        {
          "internalType": "address",
          "name": "nftAddress",
          "type": "address"
        }
      ],
      "name": "setNftContractAddress",
      "outputs": [],
      "stateMutability": "nonpayable",
      "type": "function"
    },
    {
      "inputs": [],
      "name": "shouldPayContributor",
      "outputs": [
        {
          "internalType": "bool",
          "name": "",
          "type": "bool"
        }
      ],
      "stateMutability": "view",
      "type": "function",
      "constant": true
    },
    {
      "inputs": [
        {
          "internalType": "address",
          "name": "newOwner",
          "type": "address"
        }
      ],
      "name": "transferOwnership",
      "outputs": [],
      "stateMutability": "nonpayable",
      "type": "function"
    },
    {
      "inputs": [],
      "name": "withdrawBalance",
      "outputs": [],
      "stateMutability": "nonpayable",
      "type": "function"
    },
    {
      "inputs": [],
      "name": "withdrawBnb",
      "outputs": [],
      "stateMutability": "nonpayable",
      "type": "function"
    },
    {
      "inputs": [
        {
          "internalType": "uint256",
          "name": "_tokenId",
          "type": "uint256"
        },
        {
          "internalType": "uint256",
          "name": "_appearenceId",
          "type": "uint256"
        },
        {
          "internalType": "address",
          "name": "_contributorAddress",
          "type": "address"
        },
        {
          "internalType": "uint256",
          "name": "_startingPrice",
          "type": "uint256"
        },
        {
          "internalType": "address",
          "name": "_seller",
          "type": "address"
        }
      ],
      "name": "createSale",
      "outputs": [],
      "stateMutability": "nonpayable",
      "type": "function"
    },
    {
      "inputs": [],
      "name": "setShouldPayContributor",
      "outputs": [],
      "stateMutability": "nonpayable",
      "type": "function"
    },
    {
      "inputs": [
        {
          "internalType": "uint256",
          "name": "_cut",
          "type": "uint256"
        }
      ],
      "name": "setContributorCut",
      "outputs": [],
      "stateMutability": "nonpayable",
      "type": "function"
    }
  ],
  "bytecode": "0x60806040526006805460ff60a01b191690556611c37937e080006008553480156200002957600080fd5b506040516200172b3803806200172b8339810160408190526200004c91620001c0565b600180546001600160a01b0319166001600160a01b038316179055838383836000620000753390565b600680546001600160a01b0319166001600160a01b038316908117909155604051919250906000907f8be0079c531659141344cd1fd0a4f28419497f9722a3daafe3b4186f6b6457e0908290a35060016007556127108311156200010f5760405162461bcd60e51b815260206004820152600c60248201526b0c6eae840e8dede40d0d2ced60a31b60448201526064015b60405180910390fd5b828210620001605760405162461bcd60e51b815260206004820152601760248201527f636f6e7472696275746f7243757420746f6f2068696768000000000000000000604482015260640162000106565b506002919091556003556004805460ff19166001179055600080546001600160a01b039092166001600160a01b0319909216919091179055506200020b92505050565b80516001600160a01b0381168114620001bb57600080fd5b919050565b60008060008060808587031215620001d757600080fd5b620001e285620001a3565b935060208501519250604085015191506200020060608601620001a3565b905092959194509250565b611510806200021b6000396000f3fe6080604052600436106101665760003560e01c806383b5ff8b116100d1578063be22facd1161008a578063da31d64011610064578063da31d640146103ff578063dd1b7a0f1461041f578063f2fde38b1461043f578063fc8234cb1461045f57600080fd5b8063be22facd1461037a578063cb17b2011461039a578063d8f6d596146103ba57600080fd5b806383b5ff8b146102b25780638da5cb5b146102c85780638f32d59b146102fa578063946510e01461031a578063ab892eba1461033a578063bd94b0051461035a57600080fd5b8063598647f811610123578063598647f81461021f5780635c975abb146102325780635fd8c71014610253578063715018a614610268578063789908431461027d5780637b85cfc21461029257600080fd5b806303cc9a7e1461016b57806312065fe0146101945780631da0603a146101a95780631eeacde5146101c057806323edfb89146101ea578063320b2ad91461020a575b600080fd5b34801561017757600080fd5b5061018160035481565b6040519081526020015b60405180910390f35b3480156101a057600080fd5b50610181610474565b3480156101b557600080fd5b506101be6104e6565b005b3480156101cc57600080fd5b506004546101da9060ff1681565b604051901515815260200161018b565b3480156101f657600080fd5b506101be6102053660046112fc565b6105c7565b34801561021657600080fd5b506101da610656565b6101be61022d366004611315565b6106dc565b34801561023e57600080fd5b506006546101da90600160a01b900460ff1681565b34801561025f57600080fd5b506101be610877565b34801561027457600080fd5b506101be61092d565b34801561028957600080fd5b506101be6109a1565b34801561029e57600080fd5b506101be6102ad3660046112fc565b6109df565b3480156102be57600080fd5b5061018160025481565b3480156102d457600080fd5b506006546001600160a01b03165b6040516001600160a01b03909116815260200161018b565b34801561030657600080fd5b506006546001600160a01b031633146101da565b34801561032657600080fd5b506101be6103353660046112fc565b610a0e565b34801561034657600080fd5b506101be6103553660046112fc565b610a3d565b34801561036657600080fd5b506101be6103753660046112fc565b610aad565b34801561038657600080fd5b506101be610395366004611353565b610b23565b3480156103a657600080fd5b506001546102e2906001600160a01b031681565b3480156103c657600080fd5b506103da6103d53660046112fc565b610bd4565b604080516001600160a01b03909416845260208401929092529082015260600161018b565b34801561040b57600080fd5b506101be61041a3660046113a3565b610c3e565b34801561042b57600080fd5b506000546102e2906001600160a01b031681565b34801561044b57600080fd5b506101be61045a3660046113a3565b610c8a565b34801561046b57600080fd5b506101da610cbd565b6001546040516370a0823160e01b81523060048201526000916001600160a01b0316906370a0823190602401602060405180830381865afa1580156104bd573d6000803e3d6000fd5b505050506040513d601f19601f820116820180604052508101906104e191906113c5565b905090565b6006546001600160a01b031633146105195760405162461bcd60e51b8152600401610510906113de565b60405180910390fd5b47600061052e6006546001600160a01b031690565b6001600160a01b03168260405160006040518083038185875af1925050503d8060008114610578576040519150601f19603f3d011682016040523d82523d6000602084013e61057d565b606091505b50509050806105c35760405162461bcd60e51b81526020600482015260126024820152712330b4b632b2103a379039b2b7321021373160711b6044820152606401610510565b5050565b600654600160a01b900460ff166105dd57600080fd5b6006546001600160a01b031633146106075760405162461bcd60e51b8152600401610510906113de565b6000818152600560205260409020600481015467ffffffffffffffff166106405760405162461bcd60e51b815260040161051090611413565b80546105c39083906001600160a01b0316610d3c565b6006546000906001600160a01b031633146106835760405162461bcd60e51b8152600401610510906113de565b600654600160a01b900460ff161561069a57600080fd5b6006805460ff60a01b1916600160a01b1790556040517f6985a02210a168e66602d3235cb6db0e70f92b3ba4d376a33c0f3d9434bff62590600090a150600190565b6002600754141561072f5760405162461bcd60e51b815260206004820152601f60248201527f5265656e7472616e637947756172643a207265656e7472616e742063616c6c006044820152606401610510565b6002600755600654600160a01b900460ff161561074b57600080fd5b6008543410156107925760405162461bcd60e51b81526020600482015260126024820152716e6f7420656e6f75676820666f722066656560701b6044820152606401610510565b6001546040516323b872dd60e01b8152336004820152306024820152604481018390526001600160a01b03909116906323b872dd906064016020604051808303816000875af11580156107e9573d6000803e3d6000fd5b505050506040513d601f19601f8201168201806040525081019061080d919061144a565b6108595760405162461bcd60e51b815260206004820152601760248201527f7472616e73666572206e6f7420617574686f72697a65640000000000000000006044820152606401610510565b6108638282610d87565b5061086e3383611042565b50506001600755565b6006546001600160a01b031633146108a15760405162461bcd60e51b8152600401610510906113de565b6001546001600160a01b031663a9059cbb336108bb610474565b6040516001600160e01b031960e085901b1681526001600160a01b03909216600483015260248201526044016020604051808303816000875af1158015610906573d6000803e3d6000fd5b505050506040513d601f19601f8201168201806040525081019061092a919061144a565b50565b6006546001600160a01b031633146109575760405162461bcd60e51b8152600401610510906113de565b6006546040516000916001600160a01b0316907f8be0079c531659141344cd1fd0a4f28419497f9722a3daafe3b4186f6b6457e0908390a3600680546001600160a01b0319169055565b6006546001600160a01b031633146109cb5760405162461bcd60e51b8152600401610510906113de565b6004805460ff19811660ff90911615179055565b6006546001600160a01b03163314610a095760405162461bcd60e51b8152600401610510906113de565b600855565b6006546001600160a01b03163314610a385760405162461bcd60e51b8152600401610510906113de565b600355565b6006546001600160a01b03163314610a675760405162461bcd60e51b8152600401610510906113de565b612710811115610aa85760405162461bcd60e51b815260206004820152600c60248201526b0c6eae840e8dede40d0d2ced60a31b6044820152606401610510565b600255565b600654600160a01b900460ff1615610ac457600080fd5b6000818152600560205260409020600481015467ffffffffffffffff16610afd5760405162461bcd60e51b815260040161051090611413565b80546001600160a01b0316338114610b1457600080fd5b610b1e8382610d3c565b505050565b6000546001600160a01b03163314610b715760405162461bcd60e51b81526020600482015260116024820152701bdb9b1e481b999d0818dbdb9d1c9858dd607a1b6044820152606401610510565b610b7b81866110ab565b60006040518060a00160405280836001600160a01b03168152602001868152602001856001600160a01b031681526020018481526020014267ffffffffffffffff168152509050610bcc86826110ea565b505050505050565b600081815260056020526040812060048101548291829167ffffffffffffffff16610c115760405162461bcd60e51b815260040161051090611413565b805460038201546004909201546001600160a01b039091169691955067ffffffffffffffff169350915050565b6006546001600160a01b03163314610c685760405162461bcd60e51b8152600401610510906113de565b600080546001600160a01b0319166001600160a01b0392909216919091179055565b6006546001600160a01b03163314610cb45760405162461bcd60e51b8152600401610510906113de565b61092a8161119f565b6006546000906001600160a01b03163314610cea5760405162461bcd60e51b8152600401610510906113de565b600654600160a01b900460ff16610d0057600080fd5b6006805460ff60a01b191690556040517f7805862f689e2f13df9f062ff482ad3ad112aca9e0847911ed832e158c525b3390600090a150600190565b610d4582611260565b610d4f8183611042565b6040518281527f2c56893f6f6026d19bd17b7d05c9f15c522de1ae2b1c3a825f91a73c799321f2906020015b60405180910390a15050565b6000828152600560205260408120600481015467ffffffffffffffff16610dde5760405162461bcd60e51b815260206004820152600b60248201526a6e6f74206f6e2073616c6560a81b6044820152606401610510565b80546001600160a01b0316331415610e295760405162461bcd60e51b815260206004820152600e60248201526d39b0b6b29030b99039b2b63632b960911b6044820152606401610510565b6003810154838114610e7d5760405162461bcd60e51b815260206004820152601860248201527f62696420646966666572656e742066726f6d20707269636500000000000000006044820152606401610510565b8154600183015460028401546001600160a01b039283169216610e9f88611260565b8315610ff757600080610eb586600086116112ac565b90925090506000610ec68388611482565b90506001600160a01b03841615801590610ee05750600082115b8015610eee575060045460ff165b15610f735760015460405163a9059cbb60e01b81526001600160a01b038681166004830152602482018590529091169063a9059cbb906044016020604051808303816000875af1158015610f46573d6000803e3d6000fd5b505050506040513d601f19601f82011682018060405250810190610f6a919061144a565b610f7357600080fd5b60015460405163a9059cbb60e01b81526001600160a01b038881166004830152602482018490529091169063a9059cbb906044016020604051808303816000875af1158015610fc6573d6000803e3d6000fd5b505050506040513d601f19601f82011682018060405250810190610fea919061144a565b610ff357600080fd5b5050505b6040805189815260208101869052338183015290517f9f2881bde82d4b6e9c19bec262dbbdba7266ff214c4c822aa94035f21b263f339181900360600190a150919695505050505050565b6000546040516323b872dd60e01b81523060048201526001600160a01b03848116602483015260448201849052909116906323b872dd906064015b600060405180830381600087803b15801561109757600080fd5b505af1158015610bcc573d6000803e3d6000fd5b6000546040516323b872dd60e01b81526001600160a01b03848116600483015230602483015260448201849052909116906323b872dd9060640161107d565b600082815260056020908152604091829020835181546001600160a01b03199081166001600160a01b0392831617835585840151600184015585850151600284018054909216921691909117905560608401516003820181905560808501516004909201805467ffffffffffffffff191667ffffffffffffffff909316929092179091558251858152918201527f35f25ba6c68be9e7f0a8a50f4d284bb035a4a21d856a0e7d3fd7945079c5ab309101610d7b565b6001600160a01b0381166112045760405162461bcd60e51b815260206004820152602660248201527f4f776e61626c653a206e6577206f776e657220697320746865207a65726f206160448201526564647265737360d01b6064820152608401610510565b6006546040516001600160a01b038084169216907f8be0079c531659141344cd1fd0a4f28419497f9722a3daafe3b4186f6b6457e090600090a3600680546001600160a01b0319166001600160a01b0392909216919091179055565b600090815260056020526040812080546001600160a01b031990811682556001820183905560028201805490911690556003810191909155600401805467ffffffffffffffff19169055565b600080826112bb5760006112d6565b612710600354856112cc9190611499565b6112d691906114b8565b9050612710600254856112e99190611499565b6112f391906114b8565b91509250929050565b60006020828403121561130e57600080fd5b5035919050565b6000806040838503121561132857600080fd5b50508035926020909101359150565b80356001600160a01b038116811461134e57600080fd5b919050565b600080600080600060a0868803121561136b57600080fd5b853594506020860135935061138260408701611337565b92506060860135915061139760808701611337565b90509295509295909350565b6000602082840312156113b557600080fd5b6113be82611337565b9392505050565b6000602082840312156113d757600080fd5b5051919050565b6020808252818101527f4f776e61626c653a2063616c6c6572206973206e6f7420746865206f776e6572604082015260600190565b60208082526019908201527f546f6b656e49442069732061206d757374206f6e2073616c6500000000000000604082015260600190565b60006020828403121561145c57600080fd5b815180151581146113be57600080fd5b634e487b7160e01b600052601160045260246000fd5b6000828210156114945761149461146c565b500390565b60008160001904831182151516156114b3576114b361146c565b500290565b6000826114d557634e487b7160e01b600052601260045260246000fd5b50049056fea264697066735822122066d068239769f0cff6e3cdbf2118f111952b2b606265a0b525d2c17f86ddf7e764736f6c634300080b0033",
  "immutableReferences": {},
  "source": "/**\r\n *Submitted for verification at BscScan.com on 2021-07-07\r\n */\r\n\r\n// SPDX-License-Identifier: MIT\r\npragma solidity ^0.8.2;\r\n\r\nimport \"./Marketplace.sol\";\r\nimport \"./Ownable.sol\";\r\n\r\n/// @title Clock auction modified for sale of Pieces\r\ncontract PieceMarketplace is Ownable, Marketplace {\r\n    constructor(\r\n        address _nftAddr,\r\n        uint256 _cut,\r\n        uint256 _contributorCut,\r\n        address _mekaToken\r\n    ) Marketplace(_nftAddr, _cut, _contributorCut, _mekaToken) {}\r\n\r\n    /// @dev Creates and begins a new sale.\r\n    /// @param _tokenId - ID of token to sale, sender must be owner.\r\n    /// @param _startingPrice - Price of item (in wei).\r\n    /// @param _seller - Seller, if not the message sender\r\n    function createSale(\r\n        uint256 _tokenId,\r\n        uint256 _appearenceId,\r\n        address _contributorAddress,\r\n        uint256 _startingPrice,\r\n        address _seller\r\n    ) external override {\r\n        require(\r\n            msg.sender == address(nonFungibleContract),\r\n            \"only nft contract\"\r\n        );\r\n\r\n        _escrow(_seller, _tokenId);\r\n        Sale memory auction = Sale(\r\n            _seller,\r\n            _appearenceId,\r\n            _contributorAddress,\r\n            _startingPrice,\r\n            uint64(block.timestamp)\r\n        );\r\n        _addSale(_tokenId, auction);\r\n    }\r\n\r\n    function setShouldPayContributor() external onlyOwner {\r\n        shouldPayContributor = !shouldPayContributor;\r\n    }\r\n\r\n    function setContributorCut(uint256 _cut) external onlyOwner {\r\n        contributorCut = _cut;\r\n    }\r\n}\r\n",
  "sourcePath": "E:\\MekaMiners\\contracts\\PieceMarketplace.sol",
  "compiler": {
    "name": "solc",
    "version": "0.8.11+commit.d7f03943.Emscripten.clang"
  },
  "schemaVersion": "3.4.3",
  "updatedAt": "2022-01-18T23:39:32.639Z",
  "networkType": "ethereum",
  "devdoc": {
    "kind": "dev",
    "methods": {
      "_pause()": {
        "details": "called by the owner to pause, triggers stopped state"
      },
      "_unpause()": {
        "details": "called by the owner to unpause, returns to normal state"
      },
      "bid(uint256,uint256)": {
        "details": "Bids on an open sale, completing the sale and transferring",
        "params": {
          "_tokenId": "- ID of token to bid on."
        }
      },
      "cancelSale(uint256)": {
        "details": "Cancels an sale that hasn't been won yet.  Returns the NFT to original owner.",
        "params": {
          "_tokenId": "- ID of token on sale"
        }
      },
      "cancelSaleWhenPaused(uint256)": {
        "details": "Cancels an sale when the contract is paused.  Only the owner may do this, and NFTs are returned to  the seller. This should only be used in emergencies.",
        "params": {
          "_tokenId": "- ID of the NFT on sale to cancel."
        }
      },
      "createSale(uint256,uint256,address,uint256,address)": {
        "details": "Creates and begins a new sale.",
        "params": {
          "_seller": "- Seller, if not the message sender",
          "_startingPrice": "- Price of item (in wei).",
          "_tokenId": "- ID of token to sale, sender must be owner."
        }
      },
      "getSale(uint256)": {
        "details": "Returns sale info for an NFT on sale.",
        "params": {
          "_tokenId": "- ID of NFT on sale."
        }
      },
      "isOwner()": {
        "details": "Returns true if the caller is the current owner."
      },
      "owner()": {
        "details": "Returns the address of the current owner."
      },
      "renounceOwnership()": {
        "details": "Leaves the contract without owner. It will not be possible to call `onlyOwner` functions anymore. Can only be called by the current owner. NOTE: Renouncing ownership will leave the contract without an owner, thereby removing any functionality that is only available to the owner."
      },
      "transferOwnership(address)": {
        "details": "Transfers ownership of the contract to a new account (`newOwner`). Can only be called by the current owner."
      }
    },
    "title": "Clock auction modified for sale of Pieces",
    "version": 1
  },
  "userdoc": {
    "kind": "user",
    "methods": {
      "cancelSale(uint256)": {
        "notice": "This is a state-modifying function that can  be called while the contract is paused."
      }
    },
    "version": 1
  }
}