{
  "contractName": "PieceCore",
  "abi": [
    {
      "inputs": [
        {
          "internalType": "address",
          "name": "__mekaAddress",
          "type": "address"
        }
      ],
      "stateMutability": "nonpayable",
      "type": "constructor"
    },
    {
      "anonymous": false,
      "inputs": [
        {
          "indexed": true,
          "internalType": "address",
          "name": "owner",
          "type": "address"
        },
        {
          "indexed": true,
          "internalType": "address",
          "name": "approved",
          "type": "address"
        },
        {
          "indexed": true,
          "internalType": "uint256",
          "name": "tokenId",
          "type": "uint256"
        }
      ],
      "name": "Approval",
      "type": "event"
    },
    {
      "anonymous": false,
      "inputs": [
        {
          "indexed": true,
          "internalType": "address",
          "name": "owner",
          "type": "address"
        },
        {
          "indexed": true,
          "internalType": "address",
          "name": "operator",
          "type": "address"
        },
        {
          "indexed": false,
          "internalType": "bool",
          "name": "approved",
          "type": "bool"
        }
      ],
      "name": "ApprovalForAll",
      "type": "event"
    },
    {
      "anonymous": false,
      "inputs": [
        {
          "indexed": false,
          "internalType": "address",
          "name": "owner",
          "type": "address"
        },
        {
          "indexed": false,
          "internalType": "uint256",
          "name": "tokenId",
          "type": "uint256"
        },
        {
          "indexed": false,
          "internalType": "uint256",
          "name": "date",
          "type": "uint256"
        }
      ],
      "name": "Birth",
      "type": "event"
    },
    {
      "anonymous": false,
      "inputs": [
        {
          "indexed": false,
          "internalType": "address",
          "name": "from",
          "type": "address"
        },
        {
          "indexed": false,
          "internalType": "uint256[]",
          "name": "pieceId",
          "type": "uint256[]"
        },
        {
          "indexed": false,
          "internalType": "uint256",
          "name": "date",
          "type": "uint256"
        }
      ],
      "name": "MintedPieceFromBundle",
      "type": "event"
    },
    {
      "anonymous": false,
      "inputs": [
        {
          "indexed": true,
          "internalType": "address",
          "name": "previousOwner",
          "type": "address"
        },
        {
          "indexed": true,
          "internalType": "address",
          "name": "newOwner",
          "type": "address"
        }
      ],
      "name": "OwnershipTransferred",
      "type": "event"
    },
    {
      "anonymous": false,
      "inputs": [],
      "name": "Pause",
      "type": "event"
    },
    {
      "anonymous": false,
      "inputs": [
        {
          "indexed": true,
          "internalType": "address",
          "name": "from",
          "type": "address"
        },
        {
          "indexed": true,
          "internalType": "address",
          "name": "to",
          "type": "address"
        },
        {
          "indexed": true,
          "internalType": "uint256",
          "name": "tokenId",
          "type": "uint256"
        }
      ],
      "name": "Transfer",
      "type": "event"
    },
    {
      "anonymous": false,
      "inputs": [],
      "name": "Unpause",
      "type": "event"
    },
    {
      "inputs": [],
      "name": "_marketplaceAddr",
      "outputs": [
        {
          "internalType": "address",
          "name": "",
          "type": "address"
        }
      ],
      "stateMutability": "view",
      "type": "function",
      "constant": true
    },
    {
      "inputs": [],
      "name": "_mekaAddress",
      "outputs": [
        {
          "internalType": "address",
          "name": "",
          "type": "address"
        }
      ],
      "stateMutability": "view",
      "type": "function",
      "constant": true
    },
    {
      "inputs": [],
      "name": "_mekaDeployerAddress",
      "outputs": [
        {
          "internalType": "address",
          "name": "",
          "type": "address"
        }
      ],
      "stateMutability": "view",
      "type": "function",
      "constant": true
    },
    {
      "inputs": [],
      "name": "_mekaDeployerEnabled",
      "outputs": [
        {
          "internalType": "bool",
          "name": "",
          "type": "bool"
        }
      ],
      "stateMutability": "view",
      "type": "function",
      "constant": true
    },
    {
      "inputs": [],
      "name": "_pause",
      "outputs": [
        {
          "internalType": "bool",
          "name": "",
          "type": "bool"
        }
      ],
      "stateMutability": "nonpayable",
      "type": "function"
    },
    {
      "inputs": [],
      "name": "_piecePackageAddress",
      "outputs": [
        {
          "internalType": "address",
          "name": "",
          "type": "address"
        }
      ],
      "stateMutability": "view",
      "type": "function",
      "constant": true
    },
    {
      "inputs": [],
      "name": "_unpause",
      "outputs": [
        {
          "internalType": "bool",
          "name": "",
          "type": "bool"
        }
      ],
      "stateMutability": "nonpayable",
      "type": "function"
    },
    {
      "inputs": [
        {
          "internalType": "address",
          "name": "to",
          "type": "address"
        },
        {
          "internalType": "uint256",
          "name": "tokenId",
          "type": "uint256"
        }
      ],
      "name": "approve",
      "outputs": [],
      "stateMutability": "nonpayable",
      "type": "function"
    },
    {
      "inputs": [
        {
          "internalType": "address",
          "name": "owner",
          "type": "address"
        }
      ],
      "name": "balanceOf",
      "outputs": [
        {
          "internalType": "uint256",
          "name": "",
          "type": "uint256"
        }
      ],
      "stateMutability": "view",
      "type": "function",
      "constant": true
    },
    {
      "inputs": [],
      "name": "baseURI",
      "outputs": [
        {
          "internalType": "string",
          "name": "",
          "type": "string"
        }
      ],
      "stateMutability": "view",
      "type": "function",
      "constant": true
    },
    {
      "inputs": [
        {
          "internalType": "uint256",
          "name": "tokenId",
          "type": "uint256"
        }
      ],
      "name": "getApproved",
      "outputs": [
        {
          "internalType": "address",
          "name": "",
          "type": "address"
        }
      ],
      "stateMutability": "view",
      "type": "function",
      "constant": true
    },
    {
      "inputs": [
        {
          "internalType": "address",
          "name": "owner",
          "type": "address"
        },
        {
          "internalType": "address",
          "name": "operator",
          "type": "address"
        }
      ],
      "name": "isApprovedForAll",
      "outputs": [
        {
          "internalType": "bool",
          "name": "",
          "type": "bool"
        }
      ],
      "stateMutability": "view",
      "type": "function",
      "constant": true
    },
    {
      "inputs": [],
      "name": "isBurn",
      "outputs": [
        {
          "internalType": "bool",
          "name": "",
          "type": "bool"
        }
      ],
      "stateMutability": "view",
      "type": "function",
      "constant": true
    },
    {
      "inputs": [],
      "name": "isOwner",
      "outputs": [
        {
          "internalType": "bool",
          "name": "",
          "type": "bool"
        }
      ],
      "stateMutability": "view",
      "type": "function",
      "constant": true
    },
    {
      "inputs": [],
      "name": "isPieceFactoryOpen",
      "outputs": [
        {
          "internalType": "bool",
          "name": "",
          "type": "bool"
        }
      ],
      "stateMutability": "view",
      "type": "function",
      "constant": true
    },
    {
      "inputs": [],
      "name": "name",
      "outputs": [
        {
          "internalType": "string",
          "name": "",
          "type": "string"
        }
      ],
      "stateMutability": "view",
      "type": "function",
      "constant": true
    },
    {
      "inputs": [],
      "name": "owner",
      "outputs": [
        {
          "internalType": "address",
          "name": "",
          "type": "address"
        }
      ],
      "stateMutability": "view",
      "type": "function",
      "constant": true
    },
    {
      "inputs": [
        {
          "internalType": "uint256",
          "name": "tokenId",
          "type": "uint256"
        }
      ],
      "name": "ownerOf",
      "outputs": [
        {
          "internalType": "address",
          "name": "",
          "type": "address"
        }
      ],
      "stateMutability": "view",
      "type": "function",
      "constant": true
    },
    {
      "inputs": [],
      "name": "paused",
      "outputs": [
        {
          "internalType": "bool",
          "name": "",
          "type": "bool"
        }
      ],
      "stateMutability": "view",
      "type": "function",
      "constant": true
    },
    {
      "inputs": [],
      "name": "renounceOwnership",
      "outputs": [],
      "stateMutability": "nonpayable",
      "type": "function"
    },
    {
      "inputs": [
        {
          "internalType": "address",
          "name": "from",
          "type": "address"
        },
        {
          "internalType": "address",
          "name": "to",
          "type": "address"
        },
        {
          "internalType": "uint256",
          "name": "tokenId",
          "type": "uint256"
        }
      ],
      "name": "safeTransferFrom",
      "outputs": [],
      "stateMutability": "nonpayable",
      "type": "function"
    },
    {
      "inputs": [
        {
          "internalType": "address",
          "name": "from",
          "type": "address"
        },
        {
          "internalType": "address",
          "name": "to",
          "type": "address"
        },
        {
          "internalType": "uint256",
          "name": "tokenId",
          "type": "uint256"
        },
        {
          "internalType": "bytes",
          "name": "_data",
          "type": "bytes"
        }
      ],
      "name": "safeTransferFrom",
      "outputs": [],
      "stateMutability": "nonpayable",
      "type": "function"
    },
    {
      "inputs": [
        {
          "internalType": "address",
          "name": "operator",
          "type": "address"
        },
        {
          "internalType": "bool",
          "name": "approved",
          "type": "bool"
        }
      ],
      "name": "setApprovalForAll",
      "outputs": [],
      "stateMutability": "nonpayable",
      "type": "function"
    },
    {
      "inputs": [
        {
          "internalType": "bytes4",
          "name": "interfaceId",
          "type": "bytes4"
        }
      ],
      "name": "supportsInterface",
      "outputs": [
        {
          "internalType": "bool",
          "name": "",
          "type": "bool"
        }
      ],
      "stateMutability": "view",
      "type": "function",
      "constant": true
    },
    {
      "inputs": [],
      "name": "symbol",
      "outputs": [
        {
          "internalType": "string",
          "name": "",
          "type": "string"
        }
      ],
      "stateMutability": "view",
      "type": "function",
      "constant": true
    },
    {
      "inputs": [
        {
          "internalType": "uint256",
          "name": "index",
          "type": "uint256"
        }
      ],
      "name": "tokenByIndex",
      "outputs": [
        {
          "internalType": "uint256",
          "name": "",
          "type": "uint256"
        }
      ],
      "stateMutability": "view",
      "type": "function",
      "constant": true
    },
    {
      "inputs": [
        {
          "internalType": "address",
          "name": "owner",
          "type": "address"
        }
      ],
      "name": "tokenOfOwner",
      "outputs": [
        {
          "internalType": "uint256[]",
          "name": "",
          "type": "uint256[]"
        }
      ],
      "stateMutability": "view",
      "type": "function",
      "constant": true
    },
    {
      "inputs": [
        {
          "internalType": "address",
          "name": "owner",
          "type": "address"
        },
        {
          "internalType": "uint256",
          "name": "index",
          "type": "uint256"
        }
      ],
      "name": "tokenOfOwnerByIndex",
      "outputs": [
        {
          "internalType": "uint256",
          "name": "",
          "type": "uint256"
        }
      ],
      "stateMutability": "view",
      "type": "function",
      "constant": true
    },
    {
      "inputs": [
        {
          "internalType": "uint256",
          "name": "tokenId",
          "type": "uint256"
        }
      ],
      "name": "tokenURI",
      "outputs": [
        {
          "internalType": "string",
          "name": "",
          "type": "string"
        }
      ],
      "stateMutability": "view",
      "type": "function",
      "constant": true
    },
    {
      "inputs": [],
      "name": "totalSupply",
      "outputs": [
        {
          "internalType": "uint256",
          "name": "",
          "type": "uint256"
        }
      ],
      "stateMutability": "view",
      "type": "function",
      "constant": true
    },
    {
      "inputs": [
        {
          "internalType": "address",
          "name": "from",
          "type": "address"
        },
        {
          "internalType": "address",
          "name": "to",
          "type": "address"
        },
        {
          "internalType": "uint256",
          "name": "tokenId",
          "type": "uint256"
        }
      ],
      "name": "transferFrom",
      "outputs": [],
      "stateMutability": "nonpayable",
      "type": "function"
    },
    {
      "inputs": [
        {
          "internalType": "address",
          "name": "newOwner",
          "type": "address"
        }
      ],
      "name": "transferOwnership",
      "outputs": [],
      "stateMutability": "nonpayable",
      "type": "function"
    },
    {
      "inputs": [
        {
          "internalType": "address",
          "name": "contributor",
          "type": "address"
        },
        {
          "internalType": "uint256",
          "name": "appearenceId",
          "type": "uint256"
        }
      ],
      "name": "setContributorAppearenceId",
      "outputs": [],
      "stateMutability": "nonpayable",
      "type": "function"
    },
    {
      "inputs": [
        {
          "internalType": "enum PieceCore.Rarity",
          "name": "rarity",
          "type": "uint8"
        },
        {
          "internalType": "uint8",
          "name": "percentage",
          "type": "uint8"
        }
      ],
      "name": "setBaseRarity",
      "outputs": [],
      "stateMutability": "nonpayable",
      "type": "function"
    },
    {
      "inputs": [
        {
          "internalType": "enum PieceCore.Rarity",
          "name": "rarity",
          "type": "uint8"
        },
        {
          "internalType": "uint8",
          "name": "percentage",
          "type": "uint8"
        }
      ],
      "name": "setBox2Rarity",
      "outputs": [],
      "stateMutability": "nonpayable",
      "type": "function"
    },
    {
      "inputs": [
        {
          "internalType": "enum PieceCore.Rarity",
          "name": "rarity",
          "type": "uint8"
        },
        {
          "internalType": "uint8",
          "name": "percentage",
          "type": "uint8"
        }
      ],
      "name": "setBox3Rarity",
      "outputs": [],
      "stateMutability": "nonpayable",
      "type": "function"
    },
    {
      "inputs": [
        {
          "internalType": "uint256",
          "name": "_price",
          "type": "uint256"
        }
      ],
      "name": "setPiecePrice",
      "outputs": [],
      "stateMutability": "nonpayable",
      "type": "function"
    },
    {
      "inputs": [
        {
          "internalType": "address",
          "name": "_addr",
          "type": "address"
        }
      ],
      "name": "setTokenAddress",
      "outputs": [],
      "stateMutability": "nonpayable",
      "type": "function"
    },
    {
      "inputs": [
        {
          "internalType": "uint256",
          "name": "tokenId",
          "type": "uint256"
        },
        {
          "internalType": "string",
          "name": "_tokenURI",
          "type": "string"
        }
      ],
      "name": "setTokenURI",
      "outputs": [],
      "stateMutability": "nonpayable",
      "type": "function"
    },
    {
      "inputs": [
        {
          "internalType": "address",
          "name": "_address",
          "type": "address"
        }
      ],
      "name": "setPiecePackageAddress",
      "outputs": [],
      "stateMutability": "nonpayable",
      "type": "function"
    },
    {
      "inputs": [
        {
          "internalType": "address",
          "name": "_address",
          "type": "address"
        }
      ],
      "name": "setMarketplaceAddress",
      "outputs": [],
      "stateMutability": "nonpayable",
      "type": "function"
    },
    {
      "inputs": [
        {
          "internalType": "address",
          "name": "_mekaDeployAddr",
          "type": "address"
        }
      ],
      "name": "setMekaDeployerAddress",
      "outputs": [],
      "stateMutability": "nonpayable",
      "type": "function"
    },
    {
      "inputs": [],
      "name": "updateMekaDeployerEnabled",
      "outputs": [],
      "stateMutability": "nonpayable",
      "type": "function"
    },
    {
      "inputs": [],
      "name": "updateIsBurn",
      "outputs": [],
      "stateMutability": "nonpayable",
      "type": "function"
    },
    {
      "inputs": [],
      "name": "updatePieceFactory",
      "outputs": [],
      "stateMutability": "nonpayable",
      "type": "function"
    },
    {
      "inputs": [],
      "name": "withdrawBalance",
      "outputs": [],
      "stateMutability": "nonpayable",
      "type": "function"
    },
    {
      "inputs": [],
      "name": "withdrawBnb",
      "outputs": [],
      "stateMutability": "nonpayable",
      "type": "function"
    },
    {
      "inputs": [
        {
          "internalType": "address",
          "name": "_owner",
          "type": "address"
        },
        {
          "internalType": "uint256",
          "name": "_amount",
          "type": "uint256"
        },
        {
          "internalType": "uint256",
          "name": "appearenceId",
          "type": "uint256"
        },
        {
          "internalType": "string",
          "name": "tokenURI",
          "type": "string"
        }
      ],
      "name": "createPiece",
      "outputs": [],
      "stateMutability": "nonpayable",
      "type": "function"
    },
    {
      "inputs": [
        {
          "internalType": "uint256",
          "name": "_tokenId",
          "type": "uint256"
        },
        {
          "internalType": "uint256",
          "name": "_startingPrice",
          "type": "uint256"
        }
      ],
      "name": "createSale",
      "outputs": [],
      "stateMutability": "nonpayable",
      "type": "function"
    },
    {
      "inputs": [
        {
          "internalType": "uint256",
          "name": "_tokenId",
          "type": "uint256"
        }
      ],
      "name": "burnPiece",
      "outputs": [],
      "stateMutability": "nonpayable",
      "type": "function"
    },
    {
      "inputs": [
        {
          "internalType": "uint256",
          "name": "_id",
          "type": "uint256"
        }
      ],
      "name": "getPiece",
      "outputs": [
        {
          "components": [
            {
              "internalType": "uint256",
              "name": "tokenId",
              "type": "uint256"
            },
            {
              "internalType": "enum PieceCore.Rarity",
              "name": "rarity",
              "type": "uint8"
            },
            {
              "internalType": "enum PieceCore.Rarity",
              "name": "appearenceRarity",
              "type": "uint8"
            },
            {
              "internalType": "uint256",
              "name": "appearenceId",
              "type": "uint256"
            },
            {
              "internalType": "enum PieceCore.PieceType",
              "name": "pieceType",
              "type": "uint8"
            },
            {
              "internalType": "uint64",
              "name": "birthTime",
              "type": "uint64"
            }
          ],
          "internalType": "struct PieceCore.Piece",
          "name": "piece",
          "type": "tuple"
        }
      ],
      "stateMutability": "view",
      "type": "function",
      "constant": true
    },
    {
      "inputs": [],
      "name": "getBalance",
      "outputs": [
        {
          "internalType": "uint256",
          "name": "",
          "type": "uint256"
        }
      ],
      "stateMutability": "view",
      "type": "function",
      "constant": true
    },
    {
      "inputs": [],
      "name": "pause",
      "outputs": [],
      "stateMutability": "nonpayable",
      "type": "function"
    },
    {
      "inputs": [],
      "name": "unpause",
      "outputs": [],
      "stateMutability": "nonpayable",
      "type": "function"
    },
    {
      "inputs": [
        {
          "internalType": "address",
          "name": "_owner",
          "type": "address"
        },
        {
          "internalType": "uint8",
          "name": "packageType",
          "type": "uint8"
        },
        {
          "internalType": "uint8",
          "name": "pieceQuantity",
          "type": "uint8"
        }
      ],
      "name": "createPieceFromBundle",
      "outputs": [],
      "stateMutability": "nonpayable",
      "type": "function"
    }
  ],
  "bytecode": "0x6080604052600b805460ff60a01b191690556000600d556001601655674563918244f400006017553480156200003457600080fd5b506040516200434738038062004347833981016040819052620000579162000701565b604080518082018252600d81526c4d656b61626f7420506965636560981b602080830191909152825180840190935260098352684d656b61506965636560b81b9083015290620000ae6301ffc9a760e01b620005d7565b8151620000c39060079060208501906200065b565b508051620000d99060089060208401906200065b565b50620000ec6380ac58cd60e01b620005d7565b620000fe635b5e139f60e01b620005d7565b6200011063780e9d6360e01b620005d7565b5050600b80546001600160a01b0319163390811790915560405181906000907f8be0079c531659141344cd1fd0a4f28419497f9722a3daafe3b4186f6b6457e0908290a3506001600c55601b8054601a80546001600160a01b0319166001600160a01b03851617905561ffff60a01b191661010160a01b1790556031600f6000806005811115620001a557620001a562000733565b815260200190815260200160002060006101000a81548160ff021916908360ff1602179055506045600f600060016005811115620001e757620001e762000733565b6005811115620001fb57620001fb62000733565b815260200190815260200160002060006101000a81548160ff021916908360ff1602179055506054600f6000600260058111156200023d576200023d62000733565b600581111562000251576200025162000733565b815260200190815260200160002060006101000a81548160ff021916908360ff160217905550605e600f60006003600581111562000293576200029362000733565b6005811115620002a757620002a762000733565b815260200190815260200160002060006101000a81548160ff021916908360ff1602179055506062600f600060046005811115620002e957620002e962000733565b6005811115620002fd57620002fd62000733565b815260200190815260200160002060006101000a81548160ff021916908360ff1602179055506063600f60006005808111156200033e576200033e62000733565b600581111562000352576200035262000733565b815260200190815260200160002060006101000a81548160ff021916908360ff1602179055506045601060006002600581111562000394576200039462000733565b6005811115620003a857620003a862000733565b815260200190815260200160002060006101000a81548160ff021916908360ff16021790555060596010600060036005811115620003ea57620003ea62000733565b6005811115620003fe57620003fe62000733565b815260200190815260200160002060006101000a81548160ff021916908360ff1602179055506060601060006004600581111562000440576200044062000733565b600581111562000454576200045462000733565b815260200190815260200160002060006101000a81548160ff021916908360ff16021790555060636010600060058081111562000495576200049562000733565b6005811115620004a957620004a962000733565b815260200190815260200160002060006101000a81548160ff021916908360ff16021790555060406011600060036005811115620004eb57620004eb62000733565b6005811115620004ff57620004ff62000733565b815260200190815260200160002060006101000a81548160ff021916908360ff160217905550605d601160006004600581111562000541576200054162000733565b600581111562000555576200055562000733565b815260200190815260200160002060006101000a81548160ff021916908360ff16021790555060636011600060058081111562000596576200059662000733565b6005811115620005aa57620005aa62000733565b815260200190815260200160002060006101000a81548160ff021916908360ff1602179055505062000786565b6001600160e01b03198082161415620006365760405162461bcd60e51b815260206004820152601c60248201527f4552433136353a20696e76616c696420696e7465726661636520696400000000604482015260640160405180910390fd5b6001600160e01b0319166000908152602081905260409020805460ff19166001179055565b828054620006699062000749565b90600052602060002090601f0160209004810192826200068d5760008555620006d8565b82601f10620006a857805160ff1916838001178555620006d8565b82800160010185558215620006d8579182015b82811115620006d8578251825591602001919060010190620006bb565b50620006e6929150620006ea565b5090565b5b80821115620006e65760008155600101620006eb565b6000602082840312156200071457600080fd5b81516001600160a01b03811681146200072c57600080fd5b9392505050565b634e487b7160e01b600052602160045260246000fd5b600181811c908216806200075e57607f821691505b602082108114156200078057634e487b7160e01b600052602260045260246000fd5b50919050565b613bb180620007966000396000f3fe608060405234801561001057600080fd5b506004361061035d5760003560e01c80636b45c9f2116101d3578063a22cb46511610104578063c87b56dd116100a2578063ecc835861161007c578063ecc8358614610745578063f2fde38b14610758578063f4ac6b201461076b578063fc8234cb1461077357600080fd5b8063c87b56dd146106e2578063c89e08f7146106f5578063e985e9c51461070957600080fd5b8063b88d4fde116100de578063b88d4fde14610696578063bba7c950146106a9578063bbc1bd90146106bc578063c696cc2e146106cf57600080fd5b8063a22cb46514610668578063b0bad4051461067b578063b47cc5561461068357600080fd5b80637b7959b81161017157806389b93d861161014b57806389b93d86146106295780638da5cb5b1461063c5780638f32d59b1461064d57806395d89b411461066057600080fd5b80637b7959b8146105fa5780637c3e614c1461060d5780638456cb591461062157600080fd5b80636fed42d2116101ad5780636fed42d2146105c457806370a08231146105d7578063715018a6146105ea57806379627c2b146105f257600080fd5b80636b45c9f2146105895780636c0360eb146105a95780636ce027d9146105b157600080fd5b80632d067d4c116102ad57806347049c841161024b5780635fd8c710116102255780635fd8c710146105485780636019061b1461055057806360c9f222146105635780636352211e1461057657600080fd5b806347049c841461050e5780634f6ccce7146105215780635c975abb1461053457600080fd5b8063320b2ad911610287578063320b2ad9146104d85780633f4ba83a146104e057806342842e0e146104e857806346315b9d146104fb57600080fd5b80632d067d4c1461049e5780632f705c29146104b25780632f745c59146104c557600080fd5b806313a131c71161031a5780631da0603a116102f45780631da0603a1461045057806323b872dd1461045857806326a4e8d21461046b578063294cdf0d1461047e57600080fd5b806313a131c714610422578063162094c41461043557806318160ddd1461044857600080fd5b806301ffc9a71461036257806306fdde03146103a4578063081812fc146103b9578063095ea7b3146103e45780630d6516d9146103f957806312065fe01461040c575b600080fd5b61038f610370366004613234565b6001600160e01b03191660009081526020819052604090205460ff1690565b60405190151581526020015b60405180910390f35b6103ac61077b565b60405161039b91906132a9565b6103cc6103c73660046132bc565b61080d565b6040516001600160a01b03909116815260200161039b565b6103f76103f23660046132f1565b61089a565b005b601b546103cc906001600160a01b031681565b6104146109b0565b60405190815260200161039b565b6103f761043036600461332c565b610a22565b6103f7610443366004613411565b610a9e565b610414610ad6565b6103f7610ae2565b6103f7610466366004613458565b610bb8565b6103f7610479366004613494565b610be9565b61049161048c366004613494565b610c35565b60405161039b91906134ea565b601b5461038f90600160a01b900460ff1681565b6103f76104c03660046132bc565b610d21565b6104146104d33660046132f1565b610d50565b61038f610d7b565b6103f7610e01565b6103f76104f6366004613458565b610e4c565b6103f76105093660046132f1565b610e67565b601a546103cc906001600160a01b031681565b61041461052f3660046132bc565b610f27565b600b5461038f90600160a01b900460ff1681565b6103f7610f3d565b6103f761055e3660046134fd565b611001565b6103f7610571366004613494565b611139565b6103cc6105843660046132bc565b611185565b61059c6105973660046132bc565b6111ad565b60405161039b9190613549565b6103ac6112ed565b6103f76105bf36600461332c565b6112fc565b6103f76105d23660046135b8565b61133d565b6104146105e5366004613494565b6115d3565b6103f761165f565b6103f76116d3565b6103f76106083660046132bc565b61171e565b601b5461038f90600160a81b900460ff1681565b6103f76117ff565b6103f76106373660046135fb565b611848565b600b546001600160a01b03166103cc565b600b546001600160a01b0316331461038f565b6103ac611af7565b6103f761067636600461366a565b611b06565b6103f7611bcb565b6103f7610691366004613494565b611c16565b6103f76106a43660046136a1565b611c62565b6019546103cc906001600160a01b031681565b6018546103cc906001600160a01b031681565b6103f76106dd366004613494565b611c94565b6103ac6106f03660046132bc565b611ce0565b60195461038f90600160a01b900460ff1681565b61038f610717366004613711565b6001600160a01b03918216600090815260066020908152604080832093909416825291909152205460ff1690565b6103f761075336600461332c565b611e51565b6103f7610766366004613494565b611e92565b6103f7611ec5565b61038f611f10565b60606007805461078a9061373b565b80601f01602080910402602001604051908101604052809291908181526020018280546107b69061373b565b80156108035780601f106107d857610100808354040283529160200191610803565b820191906000526020600020905b8154815290600101906020018083116107e657829003601f168201915b5050505050905090565b600061081882611f8f565b61087e5760405162461bcd60e51b815260206004820152602c60248201527f4552433732313a20617070726f76656420717565727920666f72206e6f6e657860448201526b34b9ba32b73a103a37b5b2b760a11b60648201526084015b60405180910390fd5b506000908152600560205260409020546001600160a01b031690565b60006108a582611185565b9050806001600160a01b0316836001600160a01b031614156109135760405162461bcd60e51b815260206004820152602160248201527f4552433732313a20617070726f76616c20746f2063757272656e74206f776e656044820152603960f91b6064820152608401610875565b336001600160a01b038216148061092f575061092f8133610717565b6109a15760405162461bcd60e51b815260206004820152603860248201527f4552433732313a20617070726f76652063616c6c6572206973206e6f74206f7760448201527f6e6572206e6f7220617070726f76656420666f7220616c6c00000000000000006064820152608401610875565b6109ab8383611f9c565b505050565b601a546040516370a0823160e01b81523060048201526000916001600160a01b0316906370a0823190602401602060405180830381865afa1580156109f9573d6000803e3d6000fd5b505050506040513d601f19601f82011682018060405250810190610a1d9190613776565b905090565b600b546001600160a01b03163314610a4c5760405162461bcd60e51b81526004016108759061378f565b8060106000846005811115610a6357610a6361351f565b6005811115610a7457610a7461351f565b815260200190815260200160002060006101000a81548160ff021916908360ff1602179055505050565b600b546001600160a01b03163314610ac85760405162461bcd60e51b81526004016108759061378f565b610ad2828261200a565b5050565b6000610a1d6002612093565b600b546001600160a01b03163314610b0c5760405162461bcd60e51b81526004016108759061378f565b476000610b21600b546001600160a01b031690565b6001600160a01b03168260405160006040518083038185875af1925050503d8060008114610b6b576040519150601f19603f3d011682016040523d82523d6000602084013e610b70565b606091505b5050905080610ad25760405162461bcd60e51b81526020600482015260146024820152732330b4b632b2103a379039b2b7321022ba3432b960611b6044820152606401610875565b610bc2338261209e565b610bde5760405162461bcd60e51b8152600401610875906137c4565b6109ab838383612188565b600b546001600160a01b03163314610c135760405162461bcd60e51b81526004016108759061378f565b601a80546001600160a01b0319166001600160a01b0392909216919091179055565b6001600160a01b038116600090815260016020526040812060609190610c5a90612302565b67ffffffffffffffff811115610c7257610c72613365565b604051908082528060200260200182016040528015610c9b578160200160208202803683370190505b50905060005b6001600160a01b0384166000908152600160205260409020610cc290612302565b811015610d1a576001600160a01b0384166000908152600160205260409020610ceb908261230c565b828281518110610cfd57610cfd613815565b602090810291909101015280610d1281613841565b915050610ca1565b5092915050565b600b546001600160a01b03163314610d4b5760405162461bcd60e51b81526004016108759061378f565b601755565b6001600160a01b0382166000908152600160205260408120610d72908361230c565b90505b92915050565b600b546000906001600160a01b03163314610da85760405162461bcd60e51b81526004016108759061378f565b600b54600160a01b900460ff1615610dbf57600080fd5b600b805460ff60a01b1916600160a01b1790556040517f6985a02210a168e66602d3235cb6db0e70f92b3ba4d376a33c0f3d9434bff62590600090a150600190565b600b54600160a01b900460ff16610e1757600080fd5b600b546001600160a01b03163314610e415760405162461bcd60e51b81526004016108759061378f565b610e49611f10565b50565b6109ab83838360405180602001604052806000815250611c62565b600b546001600160a01b03163314610e915760405162461bcd60e51b81526004016108759061378f565b610e9c601382612318565b15610ef85760405162461bcd60e51b815260206004820152602660248201527f617070656172656e6365496420616c726561647920686173206120636f6e747260448201526534b13aba37b960d11b6064820152608401610875565b6001600160a01b0382166000908152601260205260409020610f1a9082612324565b506109ab60138284612330565b600080610f35600284612350565b509392505050565b600b546001600160a01b03163314610f675760405162461bcd60e51b81526004016108759061378f565b601a546001600160a01b031663a9059cbb610f8a600b546001600160a01b031690565b610f926109b0565b6040516001600160e01b031960e085901b1681526001600160a01b03909216600483015260248201526044016020604051808303816000875af1158015610fdd573d6000803e3d6000fd5b505050506040513d601f19601f82011682018060405250810190610e49919061385c565b600b54600160a01b900460ff161561101857600080fd5b61102182611185565b6001600160a01b0316336001600160a01b0316146110755760405162461bcd60e51b81526020600482015260116024820152702737ba103a37b5b2b724b21037bbb732b960791b6044820152606401610875565b6000611080836111ad565b601b54909150611099906001600160a01b031684611f9c565b601b5460608201516001600160a01b039091169063be22facd9085906110c060138261236c565b6040516001600160e01b031960e086901b168152600481019390935260248301919091526001600160a01b031660448201526064810185905233608482015260a401600060405180830381600087803b15801561111c57600080fd5b505af1158015611130573d6000803e3d6000fd5b50505050505050565b600b546001600160a01b031633146111635760405162461bcd60e51b81526004016108759061378f565b601880546001600160a01b0319166001600160a01b0392909216919091179055565b6000610d7582604051806060016040528060298152602001613b336029913960029190612378565b6040805160c081018252600080825260208201819052918101829052606081018290526080810182905260a0810191909152600e6111ec600184613879565b815481106111fc576111fc613815565b90600052602060002090600402016040518060c0016040529081600082015481526020016001820160009054906101000a900460ff1660058111156112435761124361351f565b60058111156112545761125461351f565b81526020016001820160019054906101000a900460ff16600581111561127c5761127c61351f565b600581111561128d5761128d61351f565b815260028201546020820152600382015460409091019060ff1660048111156112b8576112b861351f565b60048111156112c9576112c961351f565b815260039190910154610100900467ffffffffffffffff1660209091015292915050565b6060600a805461078a9061373b565b600b546001600160a01b031633146113265760405162461bcd60e51b81526004016108759061378f565b8060116000846005811115610a6357610a6361351f565b6019546001600160a01b031633146113845760405162461bcd60e51b815260206004820152600a6024820152696e6f742062756e646c6560b01b6044820152606401610875565b601b54600160a81b900460ff166113ad5760405162461bcd60e51b815260040161087590613890565b60008260ff1660048111156113c4576113c461351f565b905060008260ff1667ffffffffffffffff8111156113e4576113e4613365565b60405190808252806020026020018201604052801561140d578160200160208202803683370190505b50905060018260048111156114245761142461351f565b14156114a55760005b8360ff1681101561149f5760165482828151811061144d5761144d613815565b60200260200101818152505061147786601654600061146a612385565b611472612385565b6124ce565b6016805490600061148783613841565b9190505550808061149790613841565b91505061142d565b50611591565b60028260048111156114b9576114b961351f565b14156115275760005b8360ff1681101561149f576016548282815181106114e2576114e2613815565b6020026020010181815250506114ff86601654600061146a6127ab565b6016805490600061150f83613841565b9190505550808061151f90613841565b9150506114c2565b60005b8360ff1681101561158f5760165482828151811061154a5761154a613815565b60200260200101818152505061156786601654600061146a612840565b6016805490600061157783613841565b9190505550808061158790613841565b91505061152a565b505b7f38dc2274f6e09a10f8afbb93f73b22e19c07a8bd07666847fe15e12de5b12e478582426040516115c4939291906138be565b60405180910390a15050505050565b60006001600160a01b03821661163e5760405162461bcd60e51b815260206004820152602a60248201527f4552433732313a2062616c616e636520717565727920666f7220746865207a65604482015269726f206164647265737360b01b6064820152608401610875565b6001600160a01b0382166000908152600160205260409020610d7590612302565b600b546001600160a01b031633146116895760405162461bcd60e51b81526004016108759061378f565b600b546040516000916001600160a01b0316907f8be0079c531659141344cd1fd0a4f28419497f9722a3daafe3b4186f6b6457e0908390a3600b80546001600160a01b0319169055565b600b546001600160a01b031633146116fd5760405162461bcd60e51b81526004016108759061378f565b601b805460ff60a81b198116600160a81b9182900460ff1615909102179055565b601b54600160a81b900460ff166117475760405162461bcd60e51b815260040161087590613890565b601b54600160a01b900460ff166117995760405162461bcd60e51b8152602060048201526016602482015275109d5c9b9a5b99c81a5cc81b9bdd08185b1b1bddd95960521b6044820152606401610875565b6117a281611185565b6001600160a01b0316326001600160a01b0316146117f65760405162461bcd60e51b81526020600482015260116024820152702737ba103a37b5b2b724b21037bbb732b960791b6044820152606401610875565b610e4981612898565b600b54600160a01b900460ff161561181657600080fd5b600b546001600160a01b031633146118405760405162461bcd60e51b81526004016108759061378f565b610e49610d7b565b601954600160a01b900460ff16156119cd576018546001600160a01b031633146118a55760405162461bcd60e51b815260206004820152600e60248201526d6e6f74206d656b616465706c6f7960901b6044820152606401610875565b601b54600160a81b900460ff166118ce5760405162461bcd60e51b815260040161087590613890565b6017548310156119115760405162461bcd60e51b815260206004820152600e60248201526d1253959053125108105353d5539560921b6044820152606401610875565b601a546040516323b872dd60e01b81526001600160a01b03868116600483015230602483015260448201869052909116906323b872dd906064016020604051808303816000875af115801561196a573d6000803e3d6000fd5b505050506040513d601f19601f8201168201806040525081019061198e919061385c565b61199757600080fd5b6016546119a885828561146a612385565b6119b2818361200a565b601680549060006119c283613841565b919050555050611af1565b601b54600160a81b900460ff166119f65760405162461bcd60e51b815260040161087590613890565b601754831015611a395760405162461bcd60e51b815260206004820152600e60248201526d1253959053125108105353d5539560921b6044820152606401610875565b601a546040516323b872dd60e01b81526001600160a01b03868116600483015230602483015260448201869052909116906323b872dd906064016020604051808303816000875af1158015611a92573d6000803e3d6000fd5b505050506040513d601f19601f82011682018060405250810190611ab6919061385c565b611abf57600080fd5b601654611ad085828561146a612385565b611ada818361200a565b60168054906000611aea83613841565b9190505550505b50505050565b60606008805461078a9061373b565b6001600160a01b038216331415611b5f5760405162461bcd60e51b815260206004820152601960248201527f4552433732313a20617070726f766520746f2063616c6c6572000000000000006044820152606401610875565b3360008181526006602090815260408083206001600160a01b03871680855290835292819020805460ff191686151590811790915590519081529192917f17307eab39ab6107e8899845ad3d59bd9653f200f220920489ca2b5937696c31910160405180910390a35050565b600b546001600160a01b03163314611bf55760405162461bcd60e51b81526004016108759061378f565b601b805460ff60a01b198116600160a01b9182900460ff1615909102179055565b600b546001600160a01b03163314611c405760405162461bcd60e51b81526004016108759061378f565b601b80546001600160a01b0319166001600160a01b0392909216919091179055565b611c6c338361209e565b611c885760405162461bcd60e51b8152600401610875906137c4565b611af184848484612915565b600b546001600160a01b03163314611cbe5760405162461bcd60e51b81526004016108759061378f565b601980546001600160a01b0319166001600160a01b0392909216919091179055565b6060611ceb82611f8f565b611d4f5760405162461bcd60e51b815260206004820152602f60248201527f4552433732314d657461646174613a2055524920717565727920666f72206e6f60448201526e3732bc34b9ba32b73a103a37b5b2b760891b6064820152608401610875565b60008281526009602052604081208054611d689061373b565b80601f0160208091040260200160405190810160405280929190818152602001828054611d949061373b565b8015611de15780601f10611db657610100808354040283529160200191611de1565b820191906000526020600020905b815481529060010190602001808311611dc457829003601f168201915b50505050509050600a8054611df59061373b565b15159050611e035792915050565b805115611e3557600a81604051602001611e1e92919061390e565b604051602081830303815290604052915050919050565b600a611e4084612948565b604051602001611e1e92919061390e565b600b546001600160a01b03163314611e7b5760405162461bcd60e51b81526004016108759061378f565b80600f6000846005811115610a6357610a6361351f565b600b546001600160a01b03163314611ebc5760405162461bcd60e51b81526004016108759061378f565b610e4981612a5f565b600b546001600160a01b03163314611eef5760405162461bcd60e51b81526004016108759061378f565b6019805460ff60a01b198116600160a01b9182900460ff1615909102179055565b600b546000906001600160a01b03163314611f3d5760405162461bcd60e51b81526004016108759061378f565b600b54600160a01b900460ff16611f5357600080fd5b600b805460ff60a01b191690556040517f7805862f689e2f13df9f062ff482ad3ad112aca9e0847911ed832e158c525b3390600090a150600190565b6000610d75600283612318565b600081815260056020526040902080546001600160a01b0319166001600160a01b0384169081179091558190611fd182611185565b6001600160a01b03167f8c5be1e5ebec7d5bd14f71427d1e84f3dd0314c0f7b2291e5b200ac8c7c3b92560405160405180910390a45050565b61201382611f8f565b6120745760405162461bcd60e51b815260206004820152602c60248201527f4552433732314d657461646174613a2055524920736574206f66206e6f6e657860448201526b34b9ba32b73a103a37b5b2b760a11b6064820152608401610875565b600082815260096020908152604090912082516109ab9284019061318e565b6000610d7582612b20565b60006120a982611f8f565b61210a5760405162461bcd60e51b815260206004820152602c60248201527f4552433732313a206f70657261746f7220717565727920666f72206e6f6e657860448201526b34b9ba32b73a103a37b5b2b760a11b6064820152608401610875565b600061211583611185565b9050806001600160a01b0316846001600160a01b031614806121505750836001600160a01b03166121458461080d565b6001600160a01b0316145b8061218057506001600160a01b0380821660009081526006602090815260408083209388168352929052205460ff165b949350505050565b826001600160a01b031661219b82611185565b6001600160a01b0316146122035760405162461bcd60e51b815260206004820152602960248201527f4552433732313a207472616e73666572206f6620746f6b656e2074686174206960448201526839903737ba1037bbb760b91b6064820152608401610875565b6001600160a01b0382166122655760405162461bcd60e51b8152602060048201526024808201527f4552433732313a207472616e7366657220746f20746865207a65726f206164646044820152637265737360e01b6064820152608401610875565b612270838383612b2b565b61227b600082611f9c565b6001600160a01b038316600090815260016020526040902061229d9082612b42565b506001600160a01b03821660009081526001602052604090206122c09082612324565b506122cd60028284612330565b5080826001600160a01b0316846001600160a01b0316600080516020613b5c83398151915260405160405180910390a4505050565b6000610d75825490565b6000610d728383612b4e565b6000610d728383612b78565b6000610d728383612b97565b600061234684846001600160a01b038516612be6565b90505b9392505050565b600080808061235f8686612c03565b9097909650945050505050565b6000610d728383612c2e565b6000612346848484612c9e565b6000806123926064612ce1565b60008052600f6020527ff4803e074bd026baaf6ed2e288c9515f68c72fb7216eebdd7cae1718a53ec3755490915060ff1681116123d157600091505090565b6001600052600f6020527f169f97de0d9a84d840042b17d3c6b9638b3d6fd9024c9eb0c7a306a17b49f88f5460ff16811161240e57600191505090565b6002600052600f6020527fa74ba3945261e09fde15ba3db55005b205e61eeb4ad811ac0faa2b315bffeead5460ff16811161244b57600291505090565b6003600052600f6020527f45f76dafbbad695564362934e24d72eedc57f9fc1a65f39bca62176cc82968285460ff16811161248857600391505090565b600f600060045b60058111156124a0576124a061351f565b815260208101919091526040016000205460ff1681116124c257600491505090565b600591505090565b5090565b6001600160a01b0385166125245760405162461bcd60e51b815260206004820181905260248201527f4552433732313a206d696e7420746f20746865207a65726f20616464726573736044820152606401610875565b61252d84611f8f565b1561257a5760405162461bcd60e51b815260206004820152601c60248201527f4552433732313a20746f6b656e20616c7265616479206d696e746564000000006044820152606401610875565b60006040518060c0016040528086815260200184600581111561259f5761259f61351f565b81526020018360058111156125b6576125b661351f565b81526020018581526020016125cb6005612ce1565b60048111156125dc576125dc61351f565b60048111156125ed576125ed61351f565b815267ffffffffffffffff4216602091820152600e805460018181018355600092909252835160049091027fbb7b4a454dc3493923482f07822329ed19e8244eff582cc204f8554c3620c3fd8101918255928401517fbb7b4a454dc3493923482f07822329ed19e8244eff582cc204f8554c3620c3fe90930180549495508594919392909160ff1916908360058111156126895761268961351f565b0217905550604082015160018201805461ff0019166101008360058111156126b3576126b361351f565b021790555060608201516002820155608082015160038201805460ff191660018360048111156126e5576126e561351f565b021790555060a08201518160030160016101000a81548167ffffffffffffffff021916908367ffffffffffffffff1602179055505050612735868660405180602001604052806000815250612d51565b604080516001600160a01b038816815260208101879052428183015290517f393ccba6479926a7c4a6471a3b4584229e2df48a1858c8caf57680927dced5ff9181900360600190a160405185906001600160a01b03881690600090600080516020613b5c833981519152908290a4505050505050565b6000806127b86064612ce1565b600260005260106020527f853b2fefe141400fef543280f93d98bd49996069f632d0d20236afeeed8e46a25490915060ff1681116127f857600291505090565b600360005260106020527fb3edd0d534d647cffdae9f1294f11ad21f3fcf2814bea44c92bbb8d384a57d9e5460ff16811161283557600391505090565b60106000600461248f565b60008061284d6064612ce1565b600360005260116020527f9bfbaa59f8e10e7868f8b402de9d605a390c45ddaebd8c9de3c6f31e733c87ff5490915060ff16811161288d57600391505090565b60116000600461248f565b60006128a382611185565b90506128b181600084612b2b565b6128bc600083611f9c565b6001600160a01b03811660009081526001602052604090206128de9083612b42565b506128ea600283612d84565b5060405182906000906001600160a01b03841690600080516020613b5c833981519152908390a45050565b612920848484612188565b61292c84848484612d90565b611af15760405162461bcd60e51b8152600401610875906139b5565b60608161296c5750506040805180820190915260018152600360fc1b602082015290565b8160005b8115612996578061298081613841565b915061298f9050600a83613a1d565b9150612970565b60008167ffffffffffffffff8111156129b1576129b1613365565b6040519080825280601f01601f1916602001820160405280156129db576020820181803683370190505b50905060006129eb600184613879565b90508593505b8315612a5657612a02600a85613a31565b612a0d906030613a45565b60f81b8282612a1b81613a5d565b935081518110612a2d57612a2d613815565b60200101906001600160f81b031916908160001a905350612a4f600a85613a1d565b93506129f1565b50949350505050565b6001600160a01b038116612ac45760405162461bcd60e51b815260206004820152602660248201527f4f776e61626c653a206e6577206f776e657220697320746865207a65726f206160448201526564647265737360d01b6064820152608401610875565b600b546040516001600160a01b038084169216907f8be0079c531659141344cd1fd0a4f28419497f9722a3daafe3b4186f6b6457e090600090a3600b80546001600160a01b0319166001600160a01b0392909216919091179055565b6000610d7582612302565b600b54600160a01b900460ff16156109ab57600080fd5b6000610d728383612e61565b6000826000018281548110612b6557612b65613815565b9060005260206000200154905092915050565b6000610d72838360008181526001830160205260408120541515610d72565b6000818152600183016020526040812054612bde57508154600181810184556000848152602080822090930184905584548482528286019093526040902091909155610d75565b506000610d75565b600082815260028401602052604081208290556123468484612324565b60008080612c11858561230c565b600081815260029690960160205260409095205494959350505050565b600081815260028301602052604081205480151580612c525750612c528484612b78565b610d725760405162461bcd60e51b815260206004820152601e60248201527f456e756d657261626c654d61703a206e6f6e6578697374656e74206b657900006044820152606401610875565b600082815260028401602052604081205480151580612cc25750612cc28585612b78565b8390612a565760405162461bcd60e51b815260040161087591906132a9565b600d805460009182612cf283613841565b9091555050600d54604080514460208201526bffffffffffffffffffffffff193360601b1691810191909152605481019190915260ff8316906074016040516020818303038152906040528051906020012060001c610d759190613a31565b612d5b8383612f54565b612d686000848484612d90565b6109ab5760405162461bcd60e51b8152600401610875906139b5565b6000610d728383613066565b60006001600160a01b0384163b612da957506001612180565b6000612e2a630a85bd0160e11b33888787604051602401612dcd9493929190613a74565b604051602081830303815290604052906001600160e01b0319166020820180516001600160e01b038381831617835250505050604051806060016040528060328152602001613b01603291396001600160a01b0388169190613083565b9050600081806020019051810190612e429190613ab1565b6001600160e01b031916630a85bd0160e11b1492505050949350505050565b60008181526001830160205260408120548015612f4a576000612e85600183613879565b8554909150600090612e9990600190613879565b9050818114612efe576000866000018281548110612eb957612eb9613815565b9060005260206000200154905080876000018481548110612edc57612edc613815565b6000918252602080832090910192909255918252600188019052604090208390555b8554869080612f0f57612f0f613ace565b600190038181906000526020600020016000905590558560010160008681526020019081526020016000206000905560019350505050610d75565b6000915050610d75565b6001600160a01b038216612faa5760405162461bcd60e51b815260206004820181905260248201527f4552433732313a206d696e7420746f20746865207a65726f20616464726573736044820152606401610875565b612fb381611f8f565b156130005760405162461bcd60e51b815260206004820152601c60248201527f4552433732313a20746f6b656e20616c7265616479206d696e746564000000006044820152606401610875565b61300c60008383612b2b565b6001600160a01b038216600090815260016020526040902061302e9082612324565b5061303b60028284612330565b5060405181906001600160a01b03841690600090600080516020613b5c833981519152908290a45050565b60008181526002830160205260408120819055610d728383612b42565b6060612346848460008585843b6130dc5760405162461bcd60e51b815260206004820152601d60248201527f416464726573733a2063616c6c20746f206e6f6e2d636f6e74726163740000006044820152606401610875565b600080866001600160a01b031685876040516130f89190613ae4565b60006040518083038185875af1925050503d8060008114613135576040519150601f19603f3d011682016040523d82523d6000602084013e61313a565b606091505b509150915061314a828286613155565b979650505050505050565b60608315613164575081612349565b8251156131745782518084602001fd5b8160405162461bcd60e51b815260040161087591906132a9565b82805461319a9061373b565b90600052602060002090601f0160209004810192826131bc5760008555613202565b82601f106131d557805160ff1916838001178555613202565b82800160010185558215613202579182015b828111156132025782518255916020019190600101906131e7565b506124ca9291505b808211156124ca576000815560010161320a565b6001600160e01b031981168114610e4957600080fd5b60006020828403121561324657600080fd5b8135610d728161321e565b60005b8381101561326c578181015183820152602001613254565b83811115611af15750506000910152565b60008151808452613295816020860160208601613251565b601f01601f19169290920160200192915050565b602081526000610d72602083018461327d565b6000602082840312156132ce57600080fd5b5035919050565b80356001600160a01b03811681146132ec57600080fd5b919050565b6000806040838503121561330457600080fd5b61330d836132d5565b946020939093013593505050565b803560ff811681146132ec57600080fd5b6000806040838503121561333f57600080fd5b82356006811061334e57600080fd5b915061335c6020840161331b565b90509250929050565b634e487b7160e01b600052604160045260246000fd5b600067ffffffffffffffff8084111561339657613396613365565b604051601f8501601f19908116603f011681019082821181831017156133be576133be613365565b816040528093508581528686860111156133d757600080fd5b858560208301376000602087830101525050509392505050565b600082601f83011261340257600080fd5b610d728383356020850161337b565b6000806040838503121561342457600080fd5b82359150602083013567ffffffffffffffff81111561344257600080fd5b61344e858286016133f1565b9150509250929050565b60008060006060848603121561346d57600080fd5b613476846132d5565b9250613484602085016132d5565b9150604084013590509250925092565b6000602082840312156134a657600080fd5b610d72826132d5565b600081518084526020808501945080840160005b838110156134df578151875295820195908201906001016134c3565b509495945050505050565b602081526000610d7260208301846134af565b6000806040838503121561351057600080fd5b50508035926020909101359150565b634e487b7160e01b600052602160045260246000fd5b600681106135455761354561351f565b9052565b8151815260208083015160c083019161356490840182613535565b5060408301516135776040840182613535565b50606083015160608301526080830151600581106135975761359761351f565b8060808401525067ffffffffffffffff60a08401511660a083015292915050565b6000806000606084860312156135cd57600080fd5b6135d6846132d5565b92506135e46020850161331b565b91506135f26040850161331b565b90509250925092565b6000806000806080858703121561361157600080fd5b61361a856132d5565b93506020850135925060408501359150606085013567ffffffffffffffff81111561364457600080fd5b613650878288016133f1565b91505092959194509250565b8015158114610e4957600080fd5b6000806040838503121561367d57600080fd5b613686836132d5565b915060208301356136968161365c565b809150509250929050565b600080600080608085870312156136b757600080fd5b6136c0856132d5565b93506136ce602086016132d5565b925060408501359150606085013567ffffffffffffffff8111156136f157600080fd5b8501601f8101871361370257600080fd5b6136508782356020840161337b565b6000806040838503121561372457600080fd5b61372d836132d5565b915061335c602084016132d5565b600181811c9082168061374f57607f821691505b6020821081141561377057634e487b7160e01b600052602260045260246000fd5b50919050565b60006020828403121561378857600080fd5b5051919050565b6020808252818101527f4f776e61626c653a2063616c6c6572206973206e6f7420746865206f776e6572604082015260600190565b60208082526031908201527f4552433732313a207472616e736665722063616c6c6572206973206e6f74206f6040820152701ddb995c881b9bdc88185c1c1c9bdd9959607a1b606082015260800190565b634e487b7160e01b600052603260045260246000fd5b634e487b7160e01b600052601160045260246000fd5b60006000198214156138555761385561382b565b5060010190565b60006020828403121561386e57600080fd5b8151610d728161365c565b60008282101561388b5761388b61382b565b500390565b6020808252601490820152731c1a5958d948199858dd1bdc9e4818db1bdcd95960621b604082015260600190565b6001600160a01b03841681526060602082018190526000906138e2908301856134af565b9050826040830152949350505050565b60008151613904818560208601613251565b9290920192915050565b600080845481600182811c91508083168061392a57607f831692505b602080841082141561394a57634e487b7160e01b86526022600452602486fd5b81801561395e576001811461396f5761399c565b60ff1986168952848901965061399c565b60008b81526020902060005b868110156139945781548b82015290850190830161397b565b505084890196505b5050505050506139ac81856138f2565b95945050505050565b60208082526032908201527f4552433732313a207472616e7366657220746f206e6f6e20455243373231526560408201527131b2b4bb32b91034b6b83632b6b2b73a32b960711b606082015260800190565b634e487b7160e01b600052601260045260246000fd5b600082613a2c57613a2c613a07565b500490565b600082613a4057613a40613a07565b500690565b60008219821115613a5857613a5861382b565b500190565b600081613a6c57613a6c61382b565b506000190190565b6001600160a01b0385811682528416602082015260408101839052608060608201819052600090613aa79083018461327d565b9695505050505050565b600060208284031215613ac357600080fd5b8151610d728161321e565b634e487b7160e01b600052603160045260246000fd5b60008251613af6818460208701613251565b919091019291505056fe4552433732313a207472616e7366657220746f206e6f6e20455243373231526563656976657220696d706c656d656e7465724552433732313a206f776e657220717565727920666f72206e6f6e6578697374656e7420746f6b656eddf252ad1be2c89b69c2b068fc378daa952ba7f163c4a11628f55a4df523b3efa2646970667358221220fb978853f7033c8e04303ead2c0cc2fc703521a4d91db285d657f72c93458f5b64736f6c634300080a0033",
  "immutableReferences": {},
  "source": "// SPDX-License-Identifier: MIT\r\npragma solidity ^0.8.2;\r\n\r\nimport \"./IBEP20.sol\";\r\nimport \"./IMarketplace.sol\";\r\nimport \"./SafeMath.sol\";\r\nimport \"./Ownable.sol\";\r\nimport \"./AccessControl.sol\";\r\nimport \"./ERC721.sol\";\r\nimport \"./ERC721Pausable.sol\";\r\nimport \"./EnumerableSet.sol\";\r\nimport \"./EnumerableMap.sol\";\r\nimport \"./IPieceCore.sol\";\r\nimport \"./ReentrancyGuard.sol\";\r\n\r\ncontract PieceCore is Ownable, ERC721Pausable, IPieceCore, ReentrancyGuard {\r\n    using SafeMath for uint256;\r\n    using EnumerableSet for EnumerableSet.UintSet;\r\n    using EnumerableMap for EnumerableMap.UintToAddressMap;\r\n\r\n    uint256 randNonce = 0;\r\n\r\n    /*** DATA TYPES ***/\r\n    struct Piece {\r\n        uint256 tokenId; // current token id, theorically this will be the same as pieceId\r\n        Rarity rarity;\r\n        Rarity appearenceRarity;\r\n        uint256 appearenceId;\r\n        PieceType pieceType;\r\n        uint64 birthTime; // The timestamp from the block when this Piece came into existence.\r\n    }\r\n\r\n    enum Rarity {\r\n        E,\r\n        D,\r\n        C,\r\n        B,\r\n        A,\r\n        S\r\n    }\r\n\r\n    enum PieceType {\r\n        Head,\r\n        LArm,\r\n        RArm,\r\n        Legs,\r\n        Chest\r\n    }\r\n\r\n    enum PackageType {\r\n        Default,\r\n        First,\r\n        Second,\r\n        Third,\r\n        Fourth\r\n    }\r\n\r\n    /*** STORAGE ***/\r\n    /// @dev An array containing the Piece struct for all pieces in existence. The ID\r\n    ///  of each Piece is actually an index into this array.\r\n    Piece[] pieces;\r\n\r\n    /* PACKAGE VARIABLES */\r\n    mapping(Rarity => uint8) private _baseRarityPercentage;\r\n    mapping(Rarity => uint8) private _box2RarityPercentage;\r\n    mapping(Rarity => uint8) private _box3RarityPercentage;\r\n    mapping(address => EnumerableSet.UintSet) private _contributorAppearenceIds;\r\n    EnumerableMap.UintToAddressMap private _appearenceIdContributor;\r\n\r\n    uint256 private nextPieceTokenId = 1;\r\n    uint256 private piecePrice = 5 * 10**18; // to review\r\n\r\n    /* SETTABLE VARIABLES */\r\n    address public _mekaDeployerAddress;\r\n    address public _piecePackageAddress;\r\n    bool public _mekaDeployerEnabled;\r\n    address public _mekaAddress;\r\n    address public _marketplaceAddr;\r\n    bool public isBurn;\r\n    bool public isPieceFactoryOpen;\r\n\r\n    event MintedPieceFromBundle(address from, uint256[] pieceId, uint256 date);\r\n\r\n    constructor(address __mekaAddress) ERC721(\"Mekabot Piece\", \"MekaPiece\") {\r\n        isBurn = true;\r\n        _mekaAddress = __mekaAddress;\r\n        isPieceFactoryOpen = true;\r\n\r\n        _baseRarityPercentage[Rarity.E] = 49;\r\n        _baseRarityPercentage[Rarity.D] = 69;\r\n        _baseRarityPercentage[Rarity.C] = 84;\r\n        _baseRarityPercentage[Rarity.B] = 94;\r\n        _baseRarityPercentage[Rarity.A] = 98;\r\n        _baseRarityPercentage[Rarity.S] = 99;\r\n\r\n        _box2RarityPercentage[Rarity.C] = 69;\r\n        _box2RarityPercentage[Rarity.B] = 89;\r\n        _box2RarityPercentage[Rarity.A] = 96;\r\n        _box2RarityPercentage[Rarity.S] = 99;\r\n\r\n        _box3RarityPercentage[Rarity.B] = 64;\r\n        _box3RarityPercentage[Rarity.A] = 93;\r\n        _box3RarityPercentage[Rarity.S] = 99;\r\n    }\r\n\r\n    function setContributorAppearenceId(\r\n        address contributor,\r\n        uint256 appearenceId\r\n    ) external onlyOwner {\r\n        require(\r\n            !_appearenceIdContributor.contains(appearenceId),\r\n            \"appearenceId already has a contributor\"\r\n        );\r\n\r\n        _contributorAppearenceIds[contributor].add(appearenceId);\r\n        _appearenceIdContributor.set(appearenceId, contributor);\r\n    }\r\n\r\n    function setBaseRarity(Rarity rarity, uint8 percentage) external onlyOwner {\r\n        _baseRarityPercentage[rarity] = percentage;\r\n    }\r\n\r\n    function setBox2Rarity(Rarity rarity, uint8 percentage) external onlyOwner {\r\n        _box2RarityPercentage[rarity] = percentage;\r\n    }\r\n\r\n    function setBox3Rarity(Rarity rarity, uint8 percentage) external onlyOwner {\r\n        _box3RarityPercentage[rarity] = percentage;\r\n    }\r\n\r\n    function setPiecePrice(uint256 _price) external onlyOwner {\r\n        piecePrice = _price;\r\n    }\r\n\r\n    function setTokenAddress(address _addr) external onlyOwner {\r\n        _mekaAddress = _addr;\r\n    }\r\n\r\n    function setTokenURI(uint256 tokenId, string memory _tokenURI)\r\n        external\r\n        onlyOwner\r\n    {\r\n        _setTokenURI(tokenId, _tokenURI);\r\n    }\r\n\r\n    function setPiecePackageAddress(address _address) external onlyOwner {\r\n        _piecePackageAddress = _address;\r\n    }\r\n\r\n    // @dev Sets the reference to the sale.\r\n    /// @param _address - Address of sale contract.\r\n    function setMarketplaceAddress(address _address) external onlyOwner {\r\n        _marketplaceAddr = _address;\r\n    }\r\n\r\n    function setMekaDeployerAddress(address _mekaDeployAddr)\r\n        external\r\n        onlyOwner\r\n    {\r\n        _mekaDeployerAddress = _mekaDeployAddr;\r\n    }\r\n\r\n    function updateMekaDeployerEnabled() external onlyOwner {\r\n        _mekaDeployerEnabled = !_mekaDeployerEnabled;\r\n    }\r\n\r\n    // @dev Sets the reference to the burn.\r\n    function updateIsBurn() external onlyOwner {\r\n        isBurn = !isBurn;\r\n    }\r\n\r\n    function updatePieceFactory() external onlyOwner {\r\n        isPieceFactoryOpen = !isPieceFactoryOpen;\r\n    }\r\n\r\n    modifier onlyBundle() {\r\n        require(msg.sender == _piecePackageAddress, \"not bundle\");\r\n        _;\r\n    }\r\n\r\n    modifier pieceFactory() {\r\n        require(isPieceFactoryOpen, \"piece factory closed\");\r\n        _;\r\n    }\r\n\r\n    modifier onlyMekaDeploy() {\r\n        if (_mekaDeployerEnabled) {\r\n            require(msg.sender == _mekaDeployerAddress, \"not mekadeploy\");\r\n            _;\r\n        } else {\r\n            _;\r\n        }\r\n    }\r\n\r\n    function withdrawBalance() external onlyOwner {\r\n        IBEP20(_mekaAddress).transfer(owner(), getBalance());\r\n    }\r\n\r\n    function withdrawBnb() external onlyOwner {\r\n        uint256 amount = address(this).balance;\r\n\r\n        (bool success, ) = payable(owner()).call{value: amount}(\"\");\r\n        require(success, \"Failed to send Ether\");\r\n    }\r\n\r\n    function _mintPiece(\r\n        address to,\r\n        uint256 tokenId,\r\n        uint256 appearenceId,\r\n        Rarity rarity,\r\n        Rarity appearenceRarity\r\n    ) private {\r\n        require(to != address(0), \"ERC721: mint to the zero address\");\r\n        require(!_exists(tokenId), \"ERC721: token already minted\");\r\n\r\n        Piece memory _piece = Piece({\r\n            tokenId: tokenId,\r\n            rarity: rarity,\r\n            appearenceRarity: appearenceRarity,\r\n            appearenceId: appearenceId,\r\n            pieceType: PieceType(random(5)),\r\n            birthTime: uint64(block.timestamp)\r\n        });\r\n\r\n        pieces.push(_piece);\r\n\r\n        _safeMint(to, tokenId, \"\");\r\n\r\n        emit Birth(to, tokenId, block.timestamp);\r\n\r\n        emit Transfer(address(0), to, tokenId);\r\n    }\r\n\r\n    function createPiece(\r\n        address _owner,\r\n        uint256 _amount,\r\n        uint256 appearenceId,\r\n        string memory tokenURI\r\n    ) external onlyMekaDeploy pieceFactory {\r\n        require(_amount >= piecePrice, \"INVALID AMOUNT\");\r\n        require(\r\n            IBEP20(_mekaAddress).transferFrom(_owner, address(this), _amount)\r\n        );\r\n\r\n        uint256 tokenId = nextPieceTokenId;\r\n\r\n        _mintPiece(\r\n            _owner,\r\n            tokenId,\r\n            appearenceId,\r\n            randomizeBaseRarity(),\r\n            randomizeBaseRarity()\r\n        );\r\n        _setTokenURI(tokenId, tokenURI);\r\n\r\n        nextPieceTokenId++;\r\n    }\r\n\r\n    function createSale(uint256 _tokenId, uint256 _startingPrice)\r\n        external\r\n        whenNotPaused\r\n    {\r\n        require(msg.sender == ownerOf(_tokenId), \"Not tokenId owner\");\r\n\r\n        Piece memory piece = getPiece(_tokenId);\r\n\r\n        _approve(_marketplaceAddr, _tokenId);\r\n        IMarketplace(_marketplaceAddr).createSale(\r\n            _tokenId,\r\n            piece.appearenceId,\r\n            _appearenceIdContributor.get(piece.appearenceId),\r\n            _startingPrice,\r\n            msg.sender\r\n        );\r\n    }\r\n\r\n    function burnPiece(uint256 _tokenId) external pieceFactory {\r\n        require(isBurn, \"Burning is not allowed\");\r\n        require(tx.origin == ownerOf(_tokenId), \"Not tokenId owner\");\r\n\r\n        _burn(_tokenId); // burn token\r\n    }\r\n\r\n    /// @notice Returns all the relevant information about a specific Piece.\r\n    /// @param _id The ID of the Piece of interest.\r\n    function getPiece(uint256 _id) public view returns (Piece memory piece) {\r\n        piece = pieces[_id - 1];\r\n    }\r\n\r\n    function getBalance() public view returns (uint256) {\r\n        return IBEP20(_mekaAddress).balanceOf(address(this));\r\n    }\r\n\r\n    function pause() external whenNotPaused onlyOwner {\r\n        _pause();\r\n    }\r\n\r\n    function unpause() external whenPaused onlyOwner {\r\n        _unpause();\r\n    }\r\n\r\n    function createPieceFromBundle(\r\n        address _owner,\r\n        uint8 packageType,\r\n        uint8 pieceQuantity\r\n    ) external onlyBundle pieceFactory {\r\n        PackageType pkgType = PackageType(packageType);\r\n        uint256[] memory allTokens = new uint256[](pieceQuantity);\r\n\r\n        if (pkgType == PackageType.First) {\r\n            for (uint256 index = 0; index < pieceQuantity; index++) {\r\n                allTokens[index] = nextPieceTokenId;\r\n                _mintPiece(\r\n                    _owner,\r\n                    nextPieceTokenId,\r\n                    0,\r\n                    randomizeBaseRarity(),\r\n                    randomizeBaseRarity()\r\n                );\r\n                nextPieceTokenId++;\r\n            }\r\n        } else if (pkgType == PackageType.Second) {\r\n            for (uint256 index = 0; index < pieceQuantity; index++) {\r\n                allTokens[index] = nextPieceTokenId;\r\n                _mintPiece(\r\n                    _owner,\r\n                    nextPieceTokenId,\r\n                    0,\r\n                    randomizeBox2Rarity(),\r\n                    randomizeBaseRarity()\r\n                );\r\n                nextPieceTokenId++;\r\n            }\r\n        } else {\r\n            for (uint256 index = 0; index < pieceQuantity; index++) {\r\n                allTokens[index] = nextPieceTokenId;\r\n                _mintPiece(\r\n                    _owner,\r\n                    nextPieceTokenId,\r\n                    0,\r\n                    randomizeBox3Rarity(),\r\n                    randomizeBaseRarity()\r\n                );\r\n                nextPieceTokenId++;\r\n            }\r\n        }\r\n\r\n        emit MintedPieceFromBundle(_owner, allTokens, block.timestamp);\r\n    }\r\n\r\n    function random(uint8 _modulus) private returns (uint256) {\r\n        randNonce++;\r\n        return\r\n            uint256(\r\n                keccak256(\r\n                    abi.encodePacked(block.difficulty, msg.sender, randNonce)\r\n                )\r\n            ) % _modulus;\r\n    }\r\n\r\n    function randomizeBaseRarity() private returns (Rarity) {\r\n        uint256 randNumber = random(100);\r\n\r\n        if (randNumber <= _baseRarityPercentage[Rarity.E]) {\r\n            return Rarity.E;\r\n        } else if (randNumber <= _baseRarityPercentage[Rarity.D]) {\r\n            return Rarity.D;\r\n        } else if (randNumber <= _baseRarityPercentage[Rarity.C]) {\r\n            return Rarity.C;\r\n        } else if (randNumber <= _baseRarityPercentage[Rarity.B]) {\r\n            return Rarity.B;\r\n        } else if (randNumber <= _baseRarityPercentage[Rarity.A]) {\r\n            return Rarity.A;\r\n        } else {\r\n            return Rarity.S;\r\n        }\r\n    }\r\n\r\n    function randomizeBox2Rarity() private returns (Rarity) {\r\n        uint256 randNumber = random(100);\r\n\r\n        if (randNumber <= _box2RarityPercentage[Rarity.C]) {\r\n            return Rarity.C;\r\n        } else if (randNumber <= _box2RarityPercentage[Rarity.B]) {\r\n            return Rarity.B;\r\n        } else if (randNumber <= _box2RarityPercentage[Rarity.A]) {\r\n            return Rarity.A;\r\n        } else {\r\n            return Rarity.S;\r\n        }\r\n    }\r\n\r\n    function randomizeBox3Rarity() private returns (Rarity) {\r\n        uint256 randNumber = random(100);\r\n\r\n        if (randNumber <= _box3RarityPercentage[Rarity.B]) {\r\n            return Rarity.B;\r\n        } else if (randNumber <= _box3RarityPercentage[Rarity.A]) {\r\n            return Rarity.A;\r\n        } else {\r\n            return Rarity.S;\r\n        }\r\n    }\r\n}\r\n",
  "sourcePath": "E:\\MekaMiners\\contracts\\PieceCore.sol",
  "compiler": {
    "name": "solc",
    "version": "0.8.10+commit.fc410830.Emscripten.clang"
  },
  "schemaVersion": "3.4.3",
  "updatedAt": "2021-11-29T17:41:41.031Z",
  "networkType": "ethereum",
  "devdoc": {
    "kind": "dev",
    "methods": {
      "_pause()": {
        "details": "called by the owner to pause, triggers stopped state"
      },
      "_unpause()": {
        "details": "called by the owner to unpause, returns to normal state"
      },
      "approve(address,uint256)": {
        "details": "See {IERC721-approve}."
      },
      "balanceOf(address)": {
        "details": "See {IERC721-balanceOf}."
      },
      "baseURI()": {
        "details": "Returns the base URI set via {_setBaseURI}. This will be automatically added as a prefix in {tokenURI} to each token's URI, or to the token ID if no specific URI is set for that token ID."
      },
      "getApproved(uint256)": {
        "details": "See {IERC721-getApproved}."
      },
      "getPiece(uint256)": {
        "params": {
          "_id": "The ID of the Piece of interest."
        }
      },
      "isApprovedForAll(address,address)": {
        "details": "See {IERC721-isApprovedForAll}."
      },
      "isOwner()": {
        "details": "Returns true if the caller is the current owner."
      },
      "name()": {
        "details": "See {IERC721Metadata-name}."
      },
      "owner()": {
        "details": "Returns the address of the current owner."
      },
      "ownerOf(uint256)": {
        "details": "See {IERC721-ownerOf}."
      },
      "renounceOwnership()": {
        "details": "Leaves the contract without owner. It will not be possible to call `onlyOwner` functions anymore. Can only be called by the current owner. NOTE: Renouncing ownership will leave the contract without an owner, thereby removing any functionality that is only available to the owner."
      },
      "safeTransferFrom(address,address,uint256)": {
        "details": "See {IERC721-safeTransferFrom}."
      },
      "safeTransferFrom(address,address,uint256,bytes)": {
        "details": "See {IERC721-safeTransferFrom}."
      },
      "setApprovalForAll(address,bool)": {
        "details": "See {IERC721-setApprovalForAll}."
      },
      "setMarketplaceAddress(address)": {
        "params": {
          "_address": "- Address of sale contract."
        }
      },
      "supportsInterface(bytes4)": {
        "details": "See {IERC165-supportsInterface}. Time complexity O(1), guaranteed to always use less than 30 000 gas."
      },
      "symbol()": {
        "details": "See {IERC721Metadata-symbol}."
      },
      "tokenByIndex(uint256)": {
        "details": "See {IERC721Enumerable-tokenByIndex}."
      },
      "tokenOfOwner(address)": {
        "details": "See {IERC721Enumerable-tokenOfOwner}."
      },
      "tokenOfOwnerByIndex(address,uint256)": {
        "details": "See {IERC721Enumerable-tokenOfOwnerByIndex}."
      },
      "tokenURI(uint256)": {
        "details": "See {IERC721Metadata-tokenURI}."
      },
      "totalSupply()": {
        "details": "See {IERC721Enumerable-totalSupply}."
      },
      "transferFrom(address,address,uint256)": {
        "details": "See {IERC721-transferFrom}."
      },
      "transferOwnership(address)": {
        "details": "Transfers ownership of the contract to a new account (`newOwner`). Can only be called by the current owner."
      }
    },
    "stateVariables": {
      "pieces": {
        "details": "An array containing the Piece struct for all pieces in existence. The ID  of each Piece is actually an index into this array."
      }
    },
    "version": 1
  },
  "userdoc": {
    "kind": "user",
    "methods": {
      "getPiece(uint256)": {
        "notice": "Returns all the relevant information about a specific Piece."
      }
    },
    "version": 1
  }
}