{
  "contractName": "PieceMarketplace",
  "abi": [
    {
      "inputs": [
        {
          "internalType": "address",
          "name": "_nftAddr",
          "type": "address"
        },
        {
          "internalType": "uint256",
          "name": "_cut",
          "type": "uint256"
        },
        {
          "internalType": "uint256",
          "name": "_contributorCut",
          "type": "uint256"
        },
        {
          "internalType": "address",
          "name": "_mekaToken",
          "type": "address"
        }
      ],
      "stateMutability": "nonpayable",
      "type": "constructor"
    },
    {
      "anonymous": false,
      "inputs": [
        {
          "indexed": true,
          "internalType": "address",
          "name": "previousOwner",
          "type": "address"
        },
        {
          "indexed": true,
          "internalType": "address",
          "name": "newOwner",
          "type": "address"
        }
      ],
      "name": "OwnershipTransferred",
      "type": "event"
    },
    {
      "anonymous": false,
      "inputs": [],
      "name": "Pause",
      "type": "event"
    },
    {
      "anonymous": false,
      "inputs": [
        {
          "indexed": false,
          "internalType": "uint256",
          "name": "tokenId",
          "type": "uint256"
        }
      ],
      "name": "SaleCancelled",
      "type": "event"
    },
    {
      "anonymous": false,
      "inputs": [
        {
          "indexed": false,
          "internalType": "uint256",
          "name": "tokenId",
          "type": "uint256"
        },
        {
          "indexed": false,
          "internalType": "uint256",
          "name": "startingPrice",
          "type": "uint256"
        }
      ],
      "name": "SaleCreated",
      "type": "event"
    },
    {
      "anonymous": false,
      "inputs": [
        {
          "indexed": false,
          "internalType": "uint256",
          "name": "tokenId",
          "type": "uint256"
        },
        {
          "indexed": false,
          "internalType": "uint256",
          "name": "totalPrice",
          "type": "uint256"
        },
        {
          "indexed": false,
          "internalType": "address",
          "name": "winner",
          "type": "address"
        }
      ],
      "name": "SaleSuccessful",
      "type": "event"
    },
    {
      "anonymous": false,
      "inputs": [],
      "name": "Unpause",
      "type": "event"
    },
    {
      "inputs": [],
      "name": "MEKAToken",
      "outputs": [
        {
          "internalType": "address",
          "name": "",
          "type": "address"
        }
      ],
      "stateMutability": "view",
      "type": "function",
      "constant": true
    },
    {
      "inputs": [],
      "name": "_pause",
      "outputs": [
        {
          "internalType": "bool",
          "name": "",
          "type": "bool"
        }
      ],
      "stateMutability": "nonpayable",
      "type": "function"
    },
    {
      "inputs": [],
      "name": "_unpause",
      "outputs": [
        {
          "internalType": "bool",
          "name": "",
          "type": "bool"
        }
      ],
      "stateMutability": "nonpayable",
      "type": "function"
    },
    {
      "inputs": [
        {
          "internalType": "uint256",
          "name": "_tokenId",
          "type": "uint256"
        },
        {
          "internalType": "uint256",
          "name": "_amount",
          "type": "uint256"
        }
      ],
      "name": "bid",
      "outputs": [],
      "stateMutability": "payable",
      "type": "function",
      "payable": true
    },
    {
      "inputs": [
        {
          "internalType": "uint256",
          "name": "_tokenId",
          "type": "uint256"
        }
      ],
      "name": "cancelSale",
      "outputs": [],
      "stateMutability": "nonpayable",
      "type": "function"
    },
    {
      "inputs": [
        {
          "internalType": "uint256",
          "name": "_tokenId",
          "type": "uint256"
        }
      ],
      "name": "cancelSaleWhenPaused",
      "outputs": [],
      "stateMutability": "nonpayable",
      "type": "function"
    },
    {
      "inputs": [
        {
          "internalType": "uint256",
          "name": "_cut",
          "type": "uint256"
        }
      ],
      "name": "changeCut",
      "outputs": [],
      "stateMutability": "nonpayable",
      "type": "function"
    },
    {
      "inputs": [],
      "name": "contributorCut",
      "outputs": [
        {
          "internalType": "uint256",
          "name": "",
          "type": "uint256"
        }
      ],
      "stateMutability": "view",
      "type": "function",
      "constant": true
    },
    {
      "inputs": [],
      "name": "getBalance",
      "outputs": [
        {
          "internalType": "uint256",
          "name": "",
          "type": "uint256"
        }
      ],
      "stateMutability": "view",
      "type": "function",
      "constant": true
    },
    {
      "inputs": [
        {
          "internalType": "uint256",
          "name": "_tokenId",
          "type": "uint256"
        }
      ],
      "name": "getSale",
      "outputs": [
        {
          "internalType": "address",
          "name": "seller",
          "type": "address"
        },
        {
          "internalType": "uint256",
          "name": "startingPrice",
          "type": "uint256"
        },
        {
          "internalType": "uint256",
          "name": "startedAt",
          "type": "uint256"
        }
      ],
      "stateMutability": "view",
      "type": "function",
      "constant": true
    },
    {
      "inputs": [],
      "name": "isOwner",
      "outputs": [
        {
          "internalType": "bool",
          "name": "",
          "type": "bool"
        }
      ],
      "stateMutability": "view",
      "type": "function",
      "constant": true
    },
    {
      "inputs": [],
      "name": "nonFungibleContract",
      "outputs": [
        {
          "internalType": "address",
          "name": "",
          "type": "address"
        }
      ],
      "stateMutability": "view",
      "type": "function",
      "constant": true
    },
    {
      "inputs": [],
      "name": "owner",
      "outputs": [
        {
          "internalType": "address",
          "name": "",
          "type": "address"
        }
      ],
      "stateMutability": "view",
      "type": "function",
      "constant": true
    },
    {
      "inputs": [],
      "name": "ownerCut",
      "outputs": [
        {
          "internalType": "uint256",
          "name": "",
          "type": "uint256"
        }
      ],
      "stateMutability": "view",
      "type": "function",
      "constant": true
    },
    {
      "inputs": [],
      "name": "paused",
      "outputs": [
        {
          "internalType": "bool",
          "name": "",
          "type": "bool"
        }
      ],
      "stateMutability": "view",
      "type": "function",
      "constant": true
    },
    {
      "inputs": [],
      "name": "renounceOwnership",
      "outputs": [],
      "stateMutability": "nonpayable",
      "type": "function"
    },
    {
      "inputs": [
        {
          "internalType": "uint256",
          "name": "fee",
          "type": "uint256"
        }
      ],
      "name": "setBnbFeeAddress",
      "outputs": [],
      "stateMutability": "nonpayable",
      "type": "function"
    },
    {
      "inputs": [],
      "name": "shouldPayContributor",
      "outputs": [
        {
          "internalType": "bool",
          "name": "",
          "type": "bool"
        }
      ],
      "stateMutability": "view",
      "type": "function",
      "constant": true
    },
    {
      "inputs": [
        {
          "internalType": "address",
          "name": "newOwner",
          "type": "address"
        }
      ],
      "name": "transferOwnership",
      "outputs": [],
      "stateMutability": "nonpayable",
      "type": "function"
    },
    {
      "inputs": [],
      "name": "withdrawBalance",
      "outputs": [],
      "stateMutability": "nonpayable",
      "type": "function"
    },
    {
      "inputs": [],
      "name": "withdrawBnb",
      "outputs": [],
      "stateMutability": "nonpayable",
      "type": "function"
    },
    {
      "inputs": [
        {
          "internalType": "uint256",
          "name": "_tokenId",
          "type": "uint256"
        },
        {
          "internalType": "uint256",
          "name": "_appearenceId",
          "type": "uint256"
        },
        {
          "internalType": "address",
          "name": "_contributorAddress",
          "type": "address"
        },
        {
          "internalType": "uint256",
          "name": "_startingPrice",
          "type": "uint256"
        },
        {
          "internalType": "address",
          "name": "_seller",
          "type": "address"
        }
      ],
      "name": "createSale",
      "outputs": [],
      "stateMutability": "nonpayable",
      "type": "function"
    },
    {
      "inputs": [],
      "name": "setShouldPayContributor",
      "outputs": [],
      "stateMutability": "nonpayable",
      "type": "function"
    },
    {
      "inputs": [
        {
          "internalType": "uint256",
          "name": "_cut",
          "type": "uint256"
        }
      ],
      "name": "setContributorCut",
      "outputs": [],
      "stateMutability": "nonpayable",
      "type": "function"
    }
  ],
  "bytecode": "0x60806040526006805460ff60a01b191690556611c37937e080006008553480156200002957600080fd5b5060405162001659380380620016598339810160408190526200004c91620001c0565b600180546001600160a01b0319166001600160a01b038316179055838383836000620000753390565b600680546001600160a01b0319166001600160a01b038316908117909155604051919250906000907f8be0079c531659141344cd1fd0a4f28419497f9722a3daafe3b4186f6b6457e0908290a35060016007556127108311156200010f5760405162461bcd60e51b815260206004820152600c60248201526b0c6eae840e8dede40d0d2ced60a31b60448201526064015b60405180910390fd5b828210620001605760405162461bcd60e51b815260206004820152601760248201527f636f6e7472696275746f7243757420746f6f2068696768000000000000000000604482015260640162000106565b506002919091556003556004805460ff19166001179055600080546001600160a01b039092166001600160a01b0319909216919091179055506200020b92505050565b80516001600160a01b0381168114620001bb57600080fd5b919050565b60008060008060808587031215620001d757600080fd5b620001e285620001a3565b935060208501519250604085015191506200020060608601620001a3565b905092959194509250565b61143e806200021b6000396000f3fe60806040526004361061014b5760003560e01c806383b5ff8b116100b6578063be22facd1161006f578063be22facd1461035f578063cb17b2011461037f578063d8f6d5961461039f578063dd1b7a0f146103e4578063f2fde38b14610404578063fc8234cb1461042457600080fd5b806383b5ff8b146102975780638da5cb5b146102ad5780638f32d59b146102df578063946510e0146102ff578063ab892eba1461031f578063bd94b0051461033f57600080fd5b8063598647f811610108578063598647f8146102045780635c975abb146102175780635fd8c71014610238578063715018a61461024d57806378990843146102625780637b85cfc21461027757600080fd5b806303cc9a7e1461015057806312065fe0146101795780631da0603a1461018e5780631eeacde5146101a557806323edfb89146101cf578063320b2ad9146101ef575b600080fd5b34801561015c57600080fd5b5061016660035481565b6040519081526020015b60405180910390f35b34801561018557600080fd5b50610166610439565b34801561019a57600080fd5b506101a36104ab565b005b3480156101b157600080fd5b506004546101bf9060ff1681565b6040519015158152602001610170565b3480156101db57600080fd5b506101a36101ea36600461122a565b61058c565b3480156101fb57600080fd5b506101bf61061b565b6101a3610212366004611243565b6106a1565b34801561022357600080fd5b506006546101bf90600160a01b900460ff1681565b34801561024457600080fd5b506101a361083c565b34801561025957600080fd5b506101a36108f2565b34801561026e57600080fd5b506101a3610966565b34801561028357600080fd5b506101a361029236600461122a565b6109a4565b3480156102a357600080fd5b5061016660025481565b3480156102b957600080fd5b506006546001600160a01b03165b6040516001600160a01b039091168152602001610170565b3480156102eb57600080fd5b506006546001600160a01b031633146101bf565b34801561030b57600080fd5b506101a361031a36600461122a565b6109d3565b34801561032b57600080fd5b506101a361033a36600461122a565b610a02565b34801561034b57600080fd5b506101a361035a36600461122a565b610a72565b34801561036b57600080fd5b506101a361037a366004611281565b610ae8565b34801561038b57600080fd5b506001546102c7906001600160a01b031681565b3480156103ab57600080fd5b506103bf6103ba36600461122a565b610b99565b604080516001600160a01b039094168452602084019290925290820152606001610170565b3480156103f057600080fd5b506000546102c7906001600160a01b031681565b34801561041057600080fd5b506101a361041f3660046112d1565b610c03565b34801561043057600080fd5b506101bf610c36565b6001546040516370a0823160e01b81523060048201526000916001600160a01b0316906370a0823190602401602060405180830381865afa158015610482573d6000803e3d6000fd5b505050506040513d601f19601f820116820180604052508101906104a691906112f3565b905090565b6006546001600160a01b031633146104de5760405162461bcd60e51b81526004016104d59061130c565b60405180910390fd5b4760006104f36006546001600160a01b031690565b6001600160a01b03168260405160006040518083038185875af1925050503d806000811461053d576040519150601f19603f3d011682016040523d82523d6000602084013e610542565b606091505b50509050806105885760405162461bcd60e51b81526020600482015260126024820152712330b4b632b2103a379039b2b7321021373160711b60448201526064016104d5565b5050565b600654600160a01b900460ff166105a257600080fd5b6006546001600160a01b031633146105cc5760405162461bcd60e51b81526004016104d59061130c565b6000818152600560205260409020600481015467ffffffffffffffff166106055760405162461bcd60e51b81526004016104d590611341565b80546105889083906001600160a01b0316610cb5565b6006546000906001600160a01b031633146106485760405162461bcd60e51b81526004016104d59061130c565b600654600160a01b900460ff161561065f57600080fd5b6006805460ff60a01b1916600160a01b1790556040517f6985a02210a168e66602d3235cb6db0e70f92b3ba4d376a33c0f3d9434bff62590600090a150600190565b600260075414156106f45760405162461bcd60e51b815260206004820152601f60248201527f5265656e7472616e637947756172643a207265656e7472616e742063616c6c0060448201526064016104d5565b6002600755600654600160a01b900460ff161561071057600080fd5b6008543410156107575760405162461bcd60e51b81526020600482015260126024820152716e6f7420656e6f75676820666f722066656560701b60448201526064016104d5565b6001546040516323b872dd60e01b8152336004820152306024820152604481018390526001600160a01b03909116906323b872dd906064016020604051808303816000875af11580156107ae573d6000803e3d6000fd5b505050506040513d601f19601f820116820180604052508101906107d29190611378565b61081e5760405162461bcd60e51b815260206004820152601760248201527f7472616e73666572206e6f7420617574686f72697a656400000000000000000060448201526064016104d5565b6108288282610d00565b506108333383610f70565b50506001600755565b6006546001600160a01b031633146108665760405162461bcd60e51b81526004016104d59061130c565b6001546001600160a01b031663a9059cbb33610880610439565b6040516001600160e01b031960e085901b1681526001600160a01b03909216600483015260248201526044016020604051808303816000875af11580156108cb573d6000803e3d6000fd5b505050506040513d601f19601f820116820180604052508101906108ef9190611378565b50565b6006546001600160a01b0316331461091c5760405162461bcd60e51b81526004016104d59061130c565b6006546040516000916001600160a01b0316907f8be0079c531659141344cd1fd0a4f28419497f9722a3daafe3b4186f6b6457e0908390a3600680546001600160a01b0319169055565b6006546001600160a01b031633146109905760405162461bcd60e51b81526004016104d59061130c565b6004805460ff19811660ff90911615179055565b6006546001600160a01b031633146109ce5760405162461bcd60e51b81526004016104d59061130c565b600855565b6006546001600160a01b031633146109fd5760405162461bcd60e51b81526004016104d59061130c565b600355565b6006546001600160a01b03163314610a2c5760405162461bcd60e51b81526004016104d59061130c565b612710811115610a6d5760405162461bcd60e51b815260206004820152600c60248201526b0c6eae840e8dede40d0d2ced60a31b60448201526064016104d5565b600255565b600654600160a01b900460ff1615610a8957600080fd5b6000818152600560205260409020600481015467ffffffffffffffff16610ac25760405162461bcd60e51b81526004016104d590611341565b80546001600160a01b0316338114610ad957600080fd5b610ae38382610cb5565b505050565b6000546001600160a01b03163314610b365760405162461bcd60e51b81526020600482015260116024820152701bdb9b1e481b999d0818dbdb9d1c9858dd607a1b60448201526064016104d5565b610b408186610fd9565b60006040518060a00160405280836001600160a01b03168152602001868152602001856001600160a01b031681526020018481526020014267ffffffffffffffff168152509050610b918682611018565b505050505050565b600081815260056020526040812060048101548291829167ffffffffffffffff16610bd65760405162461bcd60e51b81526004016104d590611341565b805460038201546004909201546001600160a01b039091169691955067ffffffffffffffff169350915050565b6006546001600160a01b03163314610c2d5760405162461bcd60e51b81526004016104d59061130c565b6108ef816110cd565b6006546000906001600160a01b03163314610c635760405162461bcd60e51b81526004016104d59061130c565b600654600160a01b900460ff16610c7957600080fd5b6006805460ff60a01b191690556040517f7805862f689e2f13df9f062ff482ad3ad112aca9e0847911ed832e158c525b3390600090a150600190565b610cbe8261118e565b610cc88183610f70565b6040518281527f2c56893f6f6026d19bd17b7d05c9f15c522de1ae2b1c3a825f91a73c799321f2906020015b60405180910390a15050565b6000828152600560205260408120600481015467ffffffffffffffff16610d575760405162461bcd60e51b815260206004820152600b60248201526a6e6f74206f6e2073616c6560a81b60448201526064016104d5565b6003810154838114610dab5760405162461bcd60e51b815260206004820152601860248201527f62696420646966666572656e742066726f6d207072696365000000000000000060448201526064016104d5565b8154600183015460028401546001600160a01b039283169216610dcd8861118e565b8315610f2557600080610de386600086116111da565b90925090506000610df483886113b0565b90506001600160a01b03841615801590610e0e5750600082115b8015610e1c575060045460ff165b15610ea15760015460405163a9059cbb60e01b81526001600160a01b038681166004830152602482018590529091169063a9059cbb906044016020604051808303816000875af1158015610e74573d6000803e3d6000fd5b505050506040513d601f19601f82011682018060405250810190610e989190611378565b610ea157600080fd5b60015460405163a9059cbb60e01b81526001600160a01b038881166004830152602482018490529091169063a9059cbb906044016020604051808303816000875af1158015610ef4573d6000803e3d6000fd5b505050506040513d601f19601f82011682018060405250810190610f189190611378565b610f2157600080fd5b5050505b6040805189815260208101869052338183015290517f9f2881bde82d4b6e9c19bec262dbbdba7266ff214c4c822aa94035f21b263f339181900360600190a150919695505050505050565b6000546040516323b872dd60e01b81523060048201526001600160a01b03848116602483015260448201849052909116906323b872dd906064015b600060405180830381600087803b158015610fc557600080fd5b505af1158015610b91573d6000803e3d6000fd5b6000546040516323b872dd60e01b81526001600160a01b03848116600483015230602483015260448201849052909116906323b872dd90606401610fab565b600082815260056020908152604091829020835181546001600160a01b03199081166001600160a01b0392831617835585840151600184015585850151600284018054909216921691909117905560608401516003820181905560808501516004909201805467ffffffffffffffff191667ffffffffffffffff909316929092179091558251858152918201527f35f25ba6c68be9e7f0a8a50f4d284bb035a4a21d856a0e7d3fd7945079c5ab309101610cf4565b6001600160a01b0381166111325760405162461bcd60e51b815260206004820152602660248201527f4f776e61626c653a206e6577206f776e657220697320746865207a65726f206160448201526564647265737360d01b60648201526084016104d5565b6006546040516001600160a01b038084169216907f8be0079c531659141344cd1fd0a4f28419497f9722a3daafe3b4186f6b6457e090600090a3600680546001600160a01b0319166001600160a01b0392909216919091179055565b600090815260056020526040812080546001600160a01b031990811682556001820183905560028201805490911690556003810191909155600401805467ffffffffffffffff19169055565b600080826111e9576000611204565b612710600354856111fa91906113c7565b61120491906113e6565b90506127106002548561121791906113c7565b61122191906113e6565b91509250929050565b60006020828403121561123c57600080fd5b5035919050565b6000806040838503121561125657600080fd5b50508035926020909101359150565b80356001600160a01b038116811461127c57600080fd5b919050565b600080600080600060a0868803121561129957600080fd5b85359450602086013593506112b060408701611265565b9250606086013591506112c560808701611265565b90509295509295909350565b6000602082840312156112e357600080fd5b6112ec82611265565b9392505050565b60006020828403121561130557600080fd5b5051919050565b6020808252818101527f4f776e61626c653a2063616c6c6572206973206e6f7420746865206f776e6572604082015260600190565b60208082526019908201527f546f6b656e49442069732061206d757374206f6e2073616c6500000000000000604082015260600190565b60006020828403121561138a57600080fd5b815180151581146112ec57600080fd5b634e487b7160e01b600052601160045260246000fd5b6000828210156113c2576113c261139a565b500390565b60008160001904831182151516156113e1576113e161139a565b500290565b60008261140357634e487b7160e01b600052601260045260246000fd5b50049056fea26469706673582212205a9c1d473ac36fa7435c23be79552eda52e9c600f5c18329e7674cfdac406b8c64736f6c634300080a0033",
  "immutableReferences": {},
  "source": "/**\r\n *Submitted for verification at BscScan.com on 2021-07-07\r\n*/\r\n\r\n// SPDX-License-Identifier: MIT\r\npragma solidity ^0.8.2;\r\n\r\nimport \"./Marketplace.sol\";\r\nimport \"./Ownable.sol\";\r\n\r\n/// @title Clock auction modified for sale of Pieces\r\ncontract PieceMarketplace is Ownable, Marketplace {\r\n\r\n    constructor(address _nftAddr, uint256 _cut, uint256 _contributorCut, address _mekaToken) Marketplace(_nftAddr, _cut, _contributorCut,_mekaToken) {}\r\n\r\n    /// @dev Creates and begins a new sale.\r\n    /// @param _tokenId - ID of token to sale, sender must be owner.\r\n    /// @param _startingPrice - Price of item (in wei).\r\n    /// @param _seller - Seller, if not the message sender\r\n    function createSale(\r\n        uint256 _tokenId,\r\n        uint256 _appearenceId,\r\n        address _contributorAddress,\r\n        uint256 _startingPrice,\r\n        address _seller\r\n    )\r\n        override external\r\n    {\r\n        require(msg.sender == address(nonFungibleContract), \"only nft contract\");\r\n\r\n        _escrow(_seller, _tokenId);\r\n        Sale memory auction = Sale(\r\n            _seller,\r\n            _appearenceId,\r\n            _contributorAddress,\r\n            _startingPrice,\r\n            uint64(block.timestamp)\r\n        );\r\n        _addSale(_tokenId, auction);\r\n    }\r\n\r\n    function setShouldPayContributor() external onlyOwner{\r\n        shouldPayContributor = !shouldPayContributor;\r\n    }\r\n\r\n    function setContributorCut(uint256 _cut) external onlyOwner{\r\n        contributorCut = _cut;\r\n    }\r\n}",
  "sourcePath": "E:\\MekaMiners\\contracts\\PieceMarketplace.sol",
  "compiler": {
    "name": "solc",
    "version": "0.8.10+commit.fc410830.Emscripten.clang"
  },
  "schemaVersion": "3.4.3",
  "updatedAt": "2021-12-19T22:55:21.189Z",
  "networkType": "ethereum",
  "devdoc": {
    "kind": "dev",
    "methods": {
      "_pause()": {
        "details": "called by the owner to pause, triggers stopped state"
      },
      "_unpause()": {
        "details": "called by the owner to unpause, returns to normal state"
      },
      "bid(uint256,uint256)": {
        "details": "Bids on an open sale, completing the sale and transferring",
        "params": {
          "_tokenId": "- ID of token to bid on."
        }
      },
      "cancelSale(uint256)": {
        "details": "Cancels an sale that hasn't been won yet.  Returns the NFT to original owner.",
        "params": {
          "_tokenId": "- ID of token on sale"
        }
      },
      "cancelSaleWhenPaused(uint256)": {
        "details": "Cancels an sale when the contract is paused.  Only the owner may do this, and NFTs are returned to  the seller. This should only be used in emergencies.",
        "params": {
          "_tokenId": "- ID of the NFT on sale to cancel."
        }
      },
      "createSale(uint256,uint256,address,uint256,address)": {
        "details": "Creates and begins a new sale.",
        "params": {
          "_seller": "- Seller, if not the message sender",
          "_startingPrice": "- Price of item (in wei).",
          "_tokenId": "- ID of token to sale, sender must be owner."
        }
      },
      "getSale(uint256)": {
        "details": "Returns sale info for an NFT on sale.",
        "params": {
          "_tokenId": "- ID of NFT on sale."
        }
      },
      "isOwner()": {
        "details": "Returns true if the caller is the current owner."
      },
      "owner()": {
        "details": "Returns the address of the current owner."
      },
      "renounceOwnership()": {
        "details": "Leaves the contract without owner. It will not be possible to call `onlyOwner` functions anymore. Can only be called by the current owner. NOTE: Renouncing ownership will leave the contract without an owner, thereby removing any functionality that is only available to the owner."
      },
      "transferOwnership(address)": {
        "details": "Transfers ownership of the contract to a new account (`newOwner`). Can only be called by the current owner."
      }
    },
    "title": "Clock auction modified for sale of Pieces",
    "version": 1
  },
  "userdoc": {
    "kind": "user",
    "methods": {
      "cancelSale(uint256)": {
        "notice": "This is a state-modifying function that can  be called while the contract is paused."
      }
    },
    "version": 1
  }
}