{
  "contractName": "PiecePackage",
  "abi": [
    {
      "inputs": [
        {
          "internalType": "address",
          "name": "mekaAddress",
          "type": "address"
        },
        {
          "internalType": "address",
          "name": "pieceAddress",
          "type": "address"
        }
      ],
      "stateMutability": "nonpayable",
      "type": "constructor"
    },
    {
      "anonymous": false,
      "inputs": [
        {
          "indexed": true,
          "internalType": "address",
          "name": "owner",
          "type": "address"
        },
        {
          "indexed": true,
          "internalType": "address",
          "name": "approved",
          "type": "address"
        },
        {
          "indexed": true,
          "internalType": "uint256",
          "name": "tokenId",
          "type": "uint256"
        }
      ],
      "name": "Approval",
      "type": "event"
    },
    {
      "anonymous": false,
      "inputs": [
        {
          "indexed": true,
          "internalType": "address",
          "name": "owner",
          "type": "address"
        },
        {
          "indexed": true,
          "internalType": "address",
          "name": "operator",
          "type": "address"
        },
        {
          "indexed": false,
          "internalType": "bool",
          "name": "approved",
          "type": "bool"
        }
      ],
      "name": "ApprovalForAll",
      "type": "event"
    },
    {
      "anonymous": false,
      "inputs": [
        {
          "indexed": false,
          "internalType": "address",
          "name": "owner",
          "type": "address"
        },
        {
          "indexed": false,
          "internalType": "uint256",
          "name": "tokenId",
          "type": "uint256"
        },
        {
          "indexed": false,
          "internalType": "uint256",
          "name": "date",
          "type": "uint256"
        }
      ],
      "name": "Birth",
      "type": "event"
    },
    {
      "anonymous": false,
      "inputs": [
        {
          "indexed": false,
          "internalType": "address",
          "name": "from",
          "type": "address"
        },
        {
          "indexed": false,
          "internalType": "uint256[]",
          "name": "pieceId",
          "type": "uint256[]"
        },
        {
          "indexed": false,
          "internalType": "uint256",
          "name": "date",
          "type": "uint256"
        }
      ],
      "name": "MintedPieceFromBundle",
      "type": "event"
    },
    {
      "anonymous": false,
      "inputs": [
        {
          "indexed": true,
          "internalType": "address",
          "name": "previousOwner",
          "type": "address"
        },
        {
          "indexed": true,
          "internalType": "address",
          "name": "newOwner",
          "type": "address"
        }
      ],
      "name": "OwnershipTransferred",
      "type": "event"
    },
    {
      "anonymous": false,
      "inputs": [
        {
          "indexed": false,
          "internalType": "address",
          "name": "to",
          "type": "address"
        },
        {
          "indexed": false,
          "internalType": "uint256",
          "name": "packId",
          "type": "uint256"
        },
        {
          "indexed": false,
          "internalType": "uint8",
          "name": "packageType",
          "type": "uint8"
        },
        {
          "indexed": false,
          "internalType": "uint256",
          "name": "date",
          "type": "uint256"
        }
      ],
      "name": "PackageCreated",
      "type": "event"
    },
    {
      "anonymous": false,
      "inputs": [],
      "name": "Pause",
      "type": "event"
    },
    {
      "anonymous": false,
      "inputs": [
        {
          "indexed": true,
          "internalType": "address",
          "name": "from",
          "type": "address"
        },
        {
          "indexed": true,
          "internalType": "address",
          "name": "to",
          "type": "address"
        },
        {
          "indexed": true,
          "internalType": "uint256",
          "name": "tokenId",
          "type": "uint256"
        }
      ],
      "name": "Transfer",
      "type": "event"
    },
    {
      "anonymous": false,
      "inputs": [
        {
          "indexed": false,
          "internalType": "address",
          "name": "from",
          "type": "address"
        },
        {
          "indexed": false,
          "internalType": "uint256",
          "name": "packId",
          "type": "uint256"
        },
        {
          "indexed": false,
          "internalType": "uint8",
          "name": "packageType",
          "type": "uint8"
        },
        {
          "indexed": false,
          "internalType": "uint256",
          "name": "date",
          "type": "uint256"
        }
      ],
      "name": "Unpacked",
      "type": "event"
    },
    {
      "anonymous": false,
      "inputs": [],
      "name": "Unpause",
      "type": "event"
    },
    {
      "inputs": [],
      "name": "_adminAddress",
      "outputs": [
        {
          "internalType": "address",
          "name": "",
          "type": "address"
        }
      ],
      "stateMutability": "view",
      "type": "function",
      "constant": true
    },
    {
      "inputs": [],
      "name": "_mekaAddress",
      "outputs": [
        {
          "internalType": "address",
          "name": "",
          "type": "address"
        }
      ],
      "stateMutability": "view",
      "type": "function",
      "constant": true
    },
    {
      "inputs": [],
      "name": "_pause",
      "outputs": [
        {
          "internalType": "bool",
          "name": "",
          "type": "bool"
        }
      ],
      "stateMutability": "nonpayable",
      "type": "function"
    },
    {
      "inputs": [],
      "name": "_pieceAddress",
      "outputs": [
        {
          "internalType": "address",
          "name": "",
          "type": "address"
        }
      ],
      "stateMutability": "view",
      "type": "function",
      "constant": true
    },
    {
      "inputs": [],
      "name": "_unpause",
      "outputs": [
        {
          "internalType": "bool",
          "name": "",
          "type": "bool"
        }
      ],
      "stateMutability": "nonpayable",
      "type": "function"
    },
    {
      "inputs": [
        {
          "internalType": "address",
          "name": "to",
          "type": "address"
        },
        {
          "internalType": "uint256",
          "name": "tokenId",
          "type": "uint256"
        }
      ],
      "name": "approve",
      "outputs": [],
      "stateMutability": "nonpayable",
      "type": "function"
    },
    {
      "inputs": [
        {
          "internalType": "address",
          "name": "owner",
          "type": "address"
        }
      ],
      "name": "balanceOf",
      "outputs": [
        {
          "internalType": "uint256",
          "name": "",
          "type": "uint256"
        }
      ],
      "stateMutability": "view",
      "type": "function",
      "constant": true
    },
    {
      "inputs": [],
      "name": "baseURI",
      "outputs": [
        {
          "internalType": "string",
          "name": "",
          "type": "string"
        }
      ],
      "stateMutability": "view",
      "type": "function",
      "constant": true
    },
    {
      "inputs": [],
      "name": "canUnpack",
      "outputs": [
        {
          "internalType": "bool",
          "name": "",
          "type": "bool"
        }
      ],
      "stateMutability": "view",
      "type": "function",
      "constant": true
    },
    {
      "inputs": [
        {
          "internalType": "uint256",
          "name": "tokenId",
          "type": "uint256"
        }
      ],
      "name": "getApproved",
      "outputs": [
        {
          "internalType": "address",
          "name": "",
          "type": "address"
        }
      ],
      "stateMutability": "view",
      "type": "function",
      "constant": true
    },
    {
      "inputs": [
        {
          "internalType": "address",
          "name": "owner",
          "type": "address"
        },
        {
          "internalType": "address",
          "name": "operator",
          "type": "address"
        }
      ],
      "name": "isApprovedForAll",
      "outputs": [
        {
          "internalType": "bool",
          "name": "",
          "type": "bool"
        }
      ],
      "stateMutability": "view",
      "type": "function",
      "constant": true
    },
    {
      "inputs": [],
      "name": "isBurn",
      "outputs": [
        {
          "internalType": "bool",
          "name": "",
          "type": "bool"
        }
      ],
      "stateMutability": "view",
      "type": "function",
      "constant": true
    },
    {
      "inputs": [],
      "name": "isOwner",
      "outputs": [
        {
          "internalType": "bool",
          "name": "",
          "type": "bool"
        }
      ],
      "stateMutability": "view",
      "type": "function",
      "constant": true
    },
    {
      "inputs": [],
      "name": "isPackageAvailable",
      "outputs": [
        {
          "internalType": "bool",
          "name": "",
          "type": "bool"
        }
      ],
      "stateMutability": "view",
      "type": "function",
      "constant": true
    },
    {
      "inputs": [],
      "name": "name",
      "outputs": [
        {
          "internalType": "string",
          "name": "",
          "type": "string"
        }
      ],
      "stateMutability": "view",
      "type": "function",
      "constant": true
    },
    {
      "inputs": [],
      "name": "owner",
      "outputs": [
        {
          "internalType": "address",
          "name": "",
          "type": "address"
        }
      ],
      "stateMutability": "view",
      "type": "function",
      "constant": true
    },
    {
      "inputs": [
        {
          "internalType": "uint256",
          "name": "tokenId",
          "type": "uint256"
        }
      ],
      "name": "ownerOf",
      "outputs": [
        {
          "internalType": "address",
          "name": "",
          "type": "address"
        }
      ],
      "stateMutability": "view",
      "type": "function",
      "constant": true
    },
    {
      "inputs": [],
      "name": "paused",
      "outputs": [
        {
          "internalType": "bool",
          "name": "",
          "type": "bool"
        }
      ],
      "stateMutability": "view",
      "type": "function",
      "constant": true
    },
    {
      "inputs": [],
      "name": "renounceOwnership",
      "outputs": [],
      "stateMutability": "nonpayable",
      "type": "function"
    },
    {
      "inputs": [
        {
          "internalType": "address",
          "name": "from",
          "type": "address"
        },
        {
          "internalType": "address",
          "name": "to",
          "type": "address"
        },
        {
          "internalType": "uint256",
          "name": "tokenId",
          "type": "uint256"
        }
      ],
      "name": "safeTransferFrom",
      "outputs": [],
      "stateMutability": "nonpayable",
      "type": "function"
    },
    {
      "inputs": [
        {
          "internalType": "address",
          "name": "from",
          "type": "address"
        },
        {
          "internalType": "address",
          "name": "to",
          "type": "address"
        },
        {
          "internalType": "uint256",
          "name": "tokenId",
          "type": "uint256"
        },
        {
          "internalType": "bytes",
          "name": "_data",
          "type": "bytes"
        }
      ],
      "name": "safeTransferFrom",
      "outputs": [],
      "stateMutability": "nonpayable",
      "type": "function"
    },
    {
      "inputs": [
        {
          "internalType": "address",
          "name": "operator",
          "type": "address"
        },
        {
          "internalType": "bool",
          "name": "approved",
          "type": "bool"
        }
      ],
      "name": "setApprovalForAll",
      "outputs": [],
      "stateMutability": "nonpayable",
      "type": "function"
    },
    {
      "inputs": [
        {
          "internalType": "bytes4",
          "name": "interfaceId",
          "type": "bytes4"
        }
      ],
      "name": "supportsInterface",
      "outputs": [
        {
          "internalType": "bool",
          "name": "",
          "type": "bool"
        }
      ],
      "stateMutability": "view",
      "type": "function",
      "constant": true
    },
    {
      "inputs": [],
      "name": "symbol",
      "outputs": [
        {
          "internalType": "string",
          "name": "",
          "type": "string"
        }
      ],
      "stateMutability": "view",
      "type": "function",
      "constant": true
    },
    {
      "inputs": [
        {
          "internalType": "uint256",
          "name": "index",
          "type": "uint256"
        }
      ],
      "name": "tokenByIndex",
      "outputs": [
        {
          "internalType": "uint256",
          "name": "",
          "type": "uint256"
        }
      ],
      "stateMutability": "view",
      "type": "function",
      "constant": true
    },
    {
      "inputs": [
        {
          "internalType": "address",
          "name": "owner",
          "type": "address"
        }
      ],
      "name": "tokenOfOwner",
      "outputs": [
        {
          "internalType": "uint256[]",
          "name": "",
          "type": "uint256[]"
        }
      ],
      "stateMutability": "view",
      "type": "function",
      "constant": true
    },
    {
      "inputs": [
        {
          "internalType": "address",
          "name": "owner",
          "type": "address"
        },
        {
          "internalType": "uint256",
          "name": "index",
          "type": "uint256"
        }
      ],
      "name": "tokenOfOwnerByIndex",
      "outputs": [
        {
          "internalType": "uint256",
          "name": "",
          "type": "uint256"
        }
      ],
      "stateMutability": "view",
      "type": "function",
      "constant": true
    },
    {
      "inputs": [
        {
          "internalType": "uint256",
          "name": "tokenId",
          "type": "uint256"
        }
      ],
      "name": "tokenURI",
      "outputs": [
        {
          "internalType": "string",
          "name": "",
          "type": "string"
        }
      ],
      "stateMutability": "view",
      "type": "function",
      "constant": true
    },
    {
      "inputs": [],
      "name": "totalSupply",
      "outputs": [
        {
          "internalType": "uint256",
          "name": "",
          "type": "uint256"
        }
      ],
      "stateMutability": "view",
      "type": "function",
      "constant": true
    },
    {
      "inputs": [
        {
          "internalType": "address",
          "name": "from",
          "type": "address"
        },
        {
          "internalType": "address",
          "name": "to",
          "type": "address"
        },
        {
          "internalType": "uint256",
          "name": "tokenId",
          "type": "uint256"
        }
      ],
      "name": "transferFrom",
      "outputs": [],
      "stateMutability": "nonpayable",
      "type": "function"
    },
    {
      "inputs": [
        {
          "internalType": "address",
          "name": "newOwner",
          "type": "address"
        }
      ],
      "name": "transferOwnership",
      "outputs": [],
      "stateMutability": "nonpayable",
      "type": "function"
    },
    {
      "inputs": [
        {
          "internalType": "address",
          "name": "adminAddress",
          "type": "address"
        }
      ],
      "name": "setAdminAddress",
      "outputs": [],
      "stateMutability": "nonpayable",
      "type": "function"
    },
    {
      "inputs": [
        {
          "internalType": "uint32",
          "name": "quantity",
          "type": "uint32"
        }
      ],
      "name": "setFirstPackageLimit",
      "outputs": [],
      "stateMutability": "nonpayable",
      "type": "function"
    },
    {
      "inputs": [
        {
          "internalType": "uint32",
          "name": "quantity",
          "type": "uint32"
        }
      ],
      "name": "setSecondPackageLimit",
      "outputs": [],
      "stateMutability": "nonpayable",
      "type": "function"
    },
    {
      "inputs": [
        {
          "internalType": "uint32",
          "name": "quantity",
          "type": "uint32"
        }
      ],
      "name": "setThirdPackageLimit",
      "outputs": [],
      "stateMutability": "nonpayable",
      "type": "function"
    },
    {
      "inputs": [
        {
          "internalType": "enum PiecePackage.PackageType",
          "name": "_packageType",
          "type": "uint8"
        },
        {
          "internalType": "uint8",
          "name": "quantity",
          "type": "uint8"
        }
      ],
      "name": "setPackageTypePieces",
      "outputs": [],
      "stateMutability": "nonpayable",
      "type": "function"
    },
    {
      "inputs": [
        {
          "internalType": "enum PiecePackage.PackageType",
          "name": "_packageType",
          "type": "uint8"
        },
        {
          "internalType": "uint256",
          "name": "amount",
          "type": "uint256"
        }
      ],
      "name": "setPackageTypePrice",
      "outputs": [],
      "stateMutability": "nonpayable",
      "type": "function"
    },
    {
      "inputs": [
        {
          "internalType": "uint256",
          "name": "_price",
          "type": "uint256"
        }
      ],
      "name": "setpiecePackagePrice",
      "outputs": [],
      "stateMutability": "nonpayable",
      "type": "function"
    },
    {
      "inputs": [
        {
          "internalType": "address",
          "name": "_addr",
          "type": "address"
        }
      ],
      "name": "setTokenAddress",
      "outputs": [],
      "stateMutability": "nonpayable",
      "type": "function"
    },
    {
      "inputs": [
        {
          "internalType": "address",
          "name": "_addr",
          "type": "address"
        }
      ],
      "name": "setPieceAddress",
      "outputs": [],
      "stateMutability": "nonpayable",
      "type": "function"
    },
    {
      "inputs": [],
      "name": "updateCanUnpack",
      "outputs": [],
      "stateMutability": "nonpayable",
      "type": "function"
    },
    {
      "inputs": [],
      "name": "updatePackageAvailable",
      "outputs": [],
      "stateMutability": "nonpayable",
      "type": "function"
    },
    {
      "inputs": [],
      "name": "updateIsBurn",
      "outputs": [],
      "stateMutability": "nonpayable",
      "type": "function"
    },
    {
      "inputs": [],
      "name": "withdrawBalance",
      "outputs": [],
      "stateMutability": "nonpayable",
      "type": "function"
    },
    {
      "inputs": [],
      "name": "withdrawBnb",
      "outputs": [],
      "stateMutability": "nonpayable",
      "type": "function"
    },
    {
      "inputs": [],
      "name": "getBalance",
      "outputs": [
        {
          "internalType": "uint256",
          "name": "",
          "type": "uint256"
        }
      ],
      "stateMutability": "view",
      "type": "function",
      "constant": true
    },
    {
      "inputs": [],
      "name": "getBnbBalance",
      "outputs": [
        {
          "internalType": "uint256",
          "name": "",
          "type": "uint256"
        }
      ],
      "stateMutability": "view",
      "type": "function",
      "constant": true
    },
    {
      "inputs": [],
      "name": "pause",
      "outputs": [],
      "stateMutability": "nonpayable",
      "type": "function"
    },
    {
      "inputs": [],
      "name": "unpause",
      "outputs": [],
      "stateMutability": "nonpayable",
      "type": "function"
    },
    {
      "inputs": [
        {
          "internalType": "uint256",
          "name": "_id",
          "type": "uint256"
        }
      ],
      "name": "getPackage",
      "outputs": [
        {
          "components": [
            {
              "internalType": "uint256",
              "name": "packageId",
              "type": "uint256"
            },
            {
              "internalType": "uint8",
              "name": "quantity",
              "type": "uint8"
            },
            {
              "internalType": "enum PiecePackage.PackageType",
              "name": "packageType",
              "type": "uint8"
            },
            {
              "internalType": "uint64",
              "name": "birthTime",
              "type": "uint64"
            }
          ],
          "internalType": "struct PiecePackage.Package",
          "name": "package",
          "type": "tuple"
        }
      ],
      "stateMutability": "view",
      "type": "function",
      "constant": true
    },
    {
      "inputs": [
        {
          "internalType": "address",
          "name": "_owner",
          "type": "address"
        },
        {
          "internalType": "uint256",
          "name": "_amount",
          "type": "uint256"
        },
        {
          "internalType": "enum PiecePackage.PackageType",
          "name": "_packageType",
          "type": "uint8"
        }
      ],
      "name": "createPackage",
      "outputs": [],
      "stateMutability": "payable",
      "type": "function",
      "payable": true
    },
    {
      "inputs": [
        {
          "internalType": "address",
          "name": "_to",
          "type": "address"
        },
        {
          "internalType": "uint256",
          "name": "_amount",
          "type": "uint256"
        },
        {
          "internalType": "uint256",
          "name": "_tokenId",
          "type": "uint256"
        },
        {
          "internalType": "uint256",
          "name": "_nonce",
          "type": "uint256"
        },
        {
          "internalType": "bytes",
          "name": "_signature",
          "type": "bytes"
        }
      ],
      "name": "openPackage",
      "outputs": [],
      "stateMutability": "nonpayable",
      "type": "function"
    },
    {
      "inputs": [],
      "name": "getPackagesCount",
      "outputs": [
        {
          "internalType": "uint32",
          "name": "_firstPackageCount",
          "type": "uint32"
        },
        {
          "internalType": "uint32",
          "name": "_secondPackageCount",
          "type": "uint32"
        },
        {
          "internalType": "uint32",
          "name": "_thirdPackageCount",
          "type": "uint32"
        }
      ],
      "stateMutability": "view",
      "type": "function",
      "constant": true
    },
    {
      "inputs": [
        {
          "internalType": "address",
          "name": "_to",
          "type": "address"
        },
        {
          "internalType": "uint256",
          "name": "_amount",
          "type": "uint256"
        },
        {
          "internalType": "uint256",
          "name": "_nonce",
          "type": "uint256"
        }
      ],
      "name": "getMessageHash",
      "outputs": [
        {
          "internalType": "bytes32",
          "name": "",
          "type": "bytes32"
        }
      ],
      "stateMutability": "pure",
      "type": "function",
      "constant": true
    },
    {
      "inputs": [
        {
          "internalType": "bytes32",
          "name": "_messageHash",
          "type": "bytes32"
        }
      ],
      "name": "getEthSignedMessageHash",
      "outputs": [
        {
          "internalType": "bytes32",
          "name": "",
          "type": "bytes32"
        }
      ],
      "stateMutability": "pure",
      "type": "function",
      "constant": true
    },
    {
      "inputs": [
        {
          "internalType": "address",
          "name": "_to",
          "type": "address"
        },
        {
          "internalType": "uint256",
          "name": "_amount",
          "type": "uint256"
        },
        {
          "internalType": "uint256",
          "name": "_nonce",
          "type": "uint256"
        },
        {
          "internalType": "bytes",
          "name": "_signature",
          "type": "bytes"
        }
      ],
      "name": "verify",
      "outputs": [
        {
          "internalType": "bool",
          "name": "",
          "type": "bool"
        }
      ],
      "stateMutability": "view",
      "type": "function",
      "constant": true
    },
    {
      "inputs": [
        {
          "internalType": "bytes32",
          "name": "_ethSignedMessageHash",
          "type": "bytes32"
        },
        {
          "internalType": "bytes",
          "name": "_signature",
          "type": "bytes"
        }
      ],
      "name": "recoverSigner",
      "outputs": [
        {
          "internalType": "address",
          "name": "",
          "type": "address"
        }
      ],
      "stateMutability": "pure",
      "type": "function",
      "constant": true
    },
    {
      "inputs": [
        {
          "internalType": "bytes",
          "name": "sig",
          "type": "bytes"
        }
      ],
      "name": "splitSignature",
      "outputs": [
        {
          "internalType": "bytes32",
          "name": "r",
          "type": "bytes32"
        },
        {
          "internalType": "bytes32",
          "name": "s",
          "type": "bytes32"
        },
        {
          "internalType": "uint8",
          "name": "v",
          "type": "uint8"
        }
      ],
      "stateMutability": "pure",
      "type": "function",
      "constant": true
    }
  ],
  "bytecode": "0x6080604052600b805460ff60a01b1916905560118054600160801b600160e01b031916784b000000960000012c000000000000000000000000000000001790556702c68af0bb1400006012556706f05b59d3b20000601355670c7d713b49da00006014556001601555674563918244f400006016553480156200008157600080fd5b50604051620040ec380380620040ec833981016040819052620000a491620004f0565b604080518082018252600d81526c4d656b61626f7420506965636560981b602080830191909152825180840190935260098352684d656b61506965636560b81b9083015290620000fb6301ffc9a760e01b62000277565b8151620001109060079060208501906200042d565b508051620001269060089060208401906200042d565b50620001396380ac58cd60e01b62000277565b6200014b635b5e139f60e01b62000277565b6200015d63780e9d6360e01b62000277565b5050600b80546001600160a01b0319163390811790915560405181906000907f8be0079c531659141344cd1fd0a4f28419497f9722a3daafe3b4186f6b6457e0908290a3506001600c81905560198054600160a01b60ff60a01b1990911617905560178054601880546001600160a01b0319166001600160a01b038681169190911790915561010061ff01600160b01b0319909216620100009187169190910260ff191617831761ff0019161790556012546200021b9190620002fc565b620002306002601354620002fc60201b60201c565b620002456003601454620002fc60201b60201c565b62000253600160036200038a565b62000261600260066200038a565b6200026f6003600a6200038a565b50506200057b565b6001600160e01b03198082161415620002d75760405162461bcd60e51b815260206004820152601c60248201527f4552433136353a20696e76616c696420696e746572666163652069640000000060448201526064015b60405180910390fd5b6001600160e01b0319166000908152602081905260409020805460ff19166001179055565b600b546001600160a01b03163314620003475760405162461bcd60e51b81526020600482018190526024820152600080516020620040cc8339815191526044820152606401620002ce565b806010600084600381111562000361576200036162000528565b600381111562000375576200037562000528565b81526020810191909152604001600020555050565b600b546001600160a01b03163314620003d55760405162461bcd60e51b81526020600482018190526024820152600080516020620040cc8339815191526044820152606401620002ce565b80600f6000846003811115620003ef57620003ef62000528565b600381111562000403576200040362000528565b815260200190815260200160002060006101000a81548160ff021916908360ff1602179055505050565b8280546200043b906200053e565b90600052602060002090601f0160209004810192826200045f5760008555620004aa565b82601f106200047a57805160ff1916838001178555620004aa565b82800160010185558215620004aa579182015b82811115620004aa5782518255916020019190600101906200048d565b50620004b8929150620004bc565b5090565b5b80821115620004b85760008155600101620004bd565b80516001600160a01b0381168114620004eb57600080fd5b919050565b600080604083850312156200050457600080fd5b6200050f83620004d3565b91506200051f60208401620004d3565b90509250929050565b634e487b7160e01b600052602160045260246000fd5b600181811c908216806200055357607f821691505b602082108114156200057557634e487b7160e01b600052602260045260246000fd5b50919050565b613b41806200058b6000396000f3fe6080604052600436106103815760003560e01c80635fd8c710116101d1578063ac511c3e11610102578063d2b0737b116100a0578063e985e9c51161006f578063e985e9c514610a51578063f2fde38b14610a9a578063fa54080114610aba578063fc8234cb14610ada57600080fd5b8063d2b0737b146109b3578063d41f90b0146109d3578063d525f50414610a17578063e7d90c7314610a3157600080fd5b8063b99dfe18116100dc578063b99dfe1814610931578063befc6cc31461095e578063c201ca8a1461097e578063c87b56dd1461099357600080fd5b8063ac511c3e146108dc578063b0bad405146108fc578063b88d4fde1461091157600080fd5b80638da5cb5b1161016f57806397aba7f91161014957806397aba7f91461083e5780639f448edd1461085e578063a22cb4651461087e578063a7bb58031461089e57600080fd5b80638da5cb5b146107eb5780638f32d59b1461080957806395d89b411461082957600080fd5b806370a08231116101ab57806370a0823114610781578063715018a6146107a157806379f63c1b146107b65780638456cb59146107d657600080fd5b80635fd8c710146107375780636352211e1461074c5780636c0360eb1461076c57600080fd5b80632d067d4c116102b657806347049c841161025457806357962e9e1161022357806357962e9e146106b75780635c1cb691146106d75780635c86ea7c146106f75780635c975abb1461071657600080fd5b806347049c841461063c5780634986a917146106625780634f6ccce714610682578063570c8e3b146106a257600080fd5b806333f5bf311161029057806333f5bf31146105e15780633e0fd777146105f45780633f4ba83a1461060757806342842e0e1461061c57600080fd5b80632d067d4c1461058b5780632f745c59146105ac578063320b2ad9146105cc57600080fd5b806318160ddd1161032357806326a4e8d2116102fd57806326a4e8d2146104fe57806328aeec2e1461051e578063294cdf0d1461053e5780632c1e816d1461056b57600080fd5b806318160ddd146104b45780631da0603a146104c957806323b872dd146104de57600080fd5b8063081812fc1161035f578063081812fc14610419578063095ea7b3146104515780630deea6081461047157806312065fe01461049157600080fd5b806301ffc9a714610386578063039320d1146103d557806306fdde03146103f7575b600080fd5b34801561039257600080fd5b506103c06103a1366004613157565b6001600160e01b03191660009081526020819052604090205460ff1690565b60405190151581526020015b60405180910390f35b3480156103e157600080fd5b506103f56103f0366004613232565b610aef565b005b34801561040357600080fd5b5061040c610e72565b6040516103cc91906132f4565b34801561042557600080fd5b50610439610434366004613307565b610f04565b6040516001600160a01b0390911681526020016103cc565b34801561045d57600080fd5b506103f561046c366004613320565b610f8c565b34801561047d57600080fd5b506103c061048c36600461334a565b6110a2565b34801561049d57600080fd5b506104a66110ed565b6040519081526020016103cc565b3480156104c057600080fd5b506104a6611165565b3480156104d557600080fd5b506103f5611171565b3480156104ea57600080fd5b506103f56104f93660046133aa565b61124b565b34801561050a57600080fd5b506103f56105193660046133e6565b61127c565b34801561052a57600080fd5b506103f5610539366004613307565b6112d0565b34801561054a57600080fd5b5061055e6105593660046133e6565b6112ff565b6040516103cc9190613401565b34801561057757600080fd5b506103f56105863660046133e6565b6113ea565b34801561059757600080fd5b506019546103c090600160a01b900460ff1681565b3480156105b857600080fd5b506104a66105c7366004613320565b611436565b3480156105d857600080fd5b506103c0611461565b3480156105ed57600080fd5b50476104a6565b6103f5610602366004613454565b6114e7565b34801561061357600080fd5b506103f561189a565b34801561062857600080fd5b506103f56106373660046133aa565b6118e5565b34801561064857600080fd5b50601754610439906201000090046001600160a01b031681565b34801561066e57600080fd5b506103f561067d366004613490565b611900565b34801561068e57600080fd5b506104a661069d366004613307565b611950565b3480156106ae57600080fd5b506103f5611966565b3480156106c357600080fd5b50601854610439906001600160a01b031681565b3480156106e357600080fd5b50601954610439906001600160a01b031681565b34801561070357600080fd5b506017546103c090610100900460ff1681565b34801561072257600080fd5b50600b546103c090600160a01b900460ff1681565b34801561074357600080fd5b506103f56119ad565b34801561075857600080fd5b50610439610767366004613307565b611a78565b34801561077857600080fd5b5061040c611aa0565b34801561078d57600080fd5b506104a661079c3660046133e6565b611aaf565b3480156107ad57600080fd5b506103f5611b3b565b3480156107c257600080fd5b506103f56107d1366004613490565b611baf565b3480156107e257600080fd5b506103f5611bff565b3480156107f757600080fd5b50600b546001600160a01b0316610439565b34801561081557600080fd5b50600b546001600160a01b031633146103c0565b34801561083557600080fd5b5061040c611c48565b34801561084a57600080fd5b506104396108593660046134b6565b611c57565b34801561086a57600080fd5b506103f56108793660046134fc565b611cd6565b34801561088a57600080fd5b506103f5610899366004613547565b611d52565b3480156108aa57600080fd5b506108be6108b9366004613573565b611e17565b60408051938452602084019290925260ff16908201526060016103cc565b3480156108e857600080fd5b506103f56108f73660046135a7565b611e8b565b34801561090857600080fd5b506103f5611ef2565b34801561091d57600080fd5b506103f561092c3660046135c3565b611f3d565b34801561093d57600080fd5b5061095161094c366004613307565b611f75565b6040516103cc9190613628565b34801561096a57600080fd5b506103f5610979366004613490565b61203c565b34801561098a57600080fd5b506103f561208c565b34801561099f57600080fd5b5061040c6109ae366004613307565b6120ca565b3480156109bf57600080fd5b506104a66109ce366004613681565b61223b565b3480156109df57600080fd5b506011546040805163ffffffff8084168252640100000000840481166020830152600160401b909304909216908201526060016103cc565b348015610a2357600080fd5b506017546103c09060ff1681565b348015610a3d57600080fd5b506103f5610a4c3660046133e6565b61228b565b348015610a5d57600080fd5b506103c0610a6c3660046136b4565b6001600160a01b03918216600090815260066020908152604080832093909416825291909152205460ff1690565b348015610aa657600080fd5b506103f5610ab53660046133e6565b6122d7565b348015610ac657600080fd5b506104a6610ad5366004613307565b61230a565b348015610ae657600080fd5b506103c061235d565b60175460ff16610b355760405162461bcd60e51b815260206004820152600c60248201526b31b0b7103737ba1037b832b760a11b60448201526064015b60405180910390fd5b610b41858584846110a2565b610b7a5760405162461bcd60e51b815260206004820152600a6024820152691b9bdd081cda59db995960b21b6044820152606401610b2c565b6000828152600e602052604090205460ff1615610b9657600080fd5b601654841015610bd95760405162461bcd60e51b815260206004820152600e60248201526d1253959053125108105353d5539560921b6044820152606401610b2c565b6001600160a01b038516610c2f5760405162461bcd60e51b815260206004820152601860248201527f6d696e7420746f20746865207a65726f206164647265737300000000000000006044820152606401610b2c565b6017546040516323b872dd60e01b81526001600160a01b0387811660048301523060248301526044820187905262010000909204909116906323b872dd906064016020604051808303816000875af1158015610c8f573d6000803e3d6000fd5b505050506040513d601f19601f82011682018060405250810190610cb391906136e7565b610cbc57600080fd5b6000600d610ccb60018661371a565b81548110610cdb57610cdb613731565b600091825260209182902060408051608081018252600290930290910180548352600181015460ff8082169585019590955292939092918401916101009004166003811115610d2c57610d2c613612565b6003811115610d3d57610d3d613612565b8152600191909101546201000090046001600160401b031660209091015260185460408201519192506001600160a01b031690636fed42d29088906003811115610d8957610d89613612565b60208501516040516001600160e01b031960e086901b1681526001600160a01b03909316600484015260ff9182166024840152166044820152606401600060405180830381600087803b158015610ddf57600080fd5b505af1158015610df3573d6000803e3d6000fd5b50505050610e00846123dc565b7f0bf4c6d3c4b37474b167ca1251166f61a1ad24afe4d0bee7834b830938bee6b9868583604001516003811115610e3957610e39613612565b604080516001600160a01b039094168452602084019290925260ff169082015242606082015260800160405180910390a1505050505050565b606060078054610e8190613747565b80601f0160208091040260200160405190810160405280929190818152602001828054610ead90613747565b8015610efa5780601f10610ecf57610100808354040283529160200191610efa565b820191906000526020600020905b815481529060010190602001808311610edd57829003601f168201915b5050505050905090565b6000610f0f82612459565b610f705760405162461bcd60e51b815260206004820152602c60248201527f4552433732313a20617070726f76656420717565727920666f72206e6f6e657860448201526b34b9ba32b73a103a37b5b2b760a11b6064820152608401610b2c565b506000908152600560205260409020546001600160a01b031690565b6000610f9782611a78565b9050806001600160a01b0316836001600160a01b031614156110055760405162461bcd60e51b815260206004820152602160248201527f4552433732313a20617070726f76616c20746f2063757272656e74206f776e656044820152603960f91b6064820152608401610b2c565b336001600160a01b038216148061102157506110218133610a6c565b6110935760405162461bcd60e51b815260206004820152603860248201527f4552433732313a20617070726f76652063616c6c6572206973206e6f74206f7760448201527f6e6572206e6f7220617070726f76656420666f7220616c6c00000000000000006064820152608401610b2c565b61109d8383612466565b505050565b6000806110b086868661223b565b905060006110bd8261230a565b6019549091506001600160a01b03166110d68286611c57565b6001600160a01b031614925050505b949350505050565b6017546040516370a0823160e01b81523060048201526000916201000090046001600160a01b0316906370a0823190602401602060405180830381865afa15801561113c573d6000803e3d6000fd5b505050506040513d601f19601f820116820180604052508101906111609190613782565b905090565b600061116060026124d4565b600b546001600160a01b0316331461119b5760405162461bcd60e51b8152600401610b2c9061379b565b4760006111b0600b546001600160a01b031690565b6001600160a01b03168260405160006040518083038185875af1925050503d80600081146111fa576040519150601f19603f3d011682016040523d82523d6000602084013e6111ff565b606091505b50509050806112475760405162461bcd60e51b81526020600482015260146024820152732330b4b632b2103a379039b2b7321022ba3432b960611b6044820152606401610b2c565b5050565b61125533826124df565b6112715760405162461bcd60e51b8152600401610b2c906137d0565b61109d8383836125c5565b600b546001600160a01b031633146112a65760405162461bcd60e51b8152600401610b2c9061379b565b601780546001600160a01b03909216620100000262010000600160b01b0319909216919091179055565b600b546001600160a01b031633146112fa5760405162461bcd60e51b8152600401610b2c9061379b565b601655565b6001600160a01b0381166000908152600160205260408120606091906113249061273f565b6001600160401b0381111561133b5761133b613190565b604051908082528060200260200182016040528015611364578160200160208202803683370190505b50905060005b6001600160a01b038416600090815260016020526040902061138b9061273f565b8110156113e3576001600160a01b03841660009081526001602052604090206113b49082612749565b8282815181106113c6576113c6613731565b6020908102919091010152806113db81613821565b91505061136a565b5092915050565b600b546001600160a01b031633146114145760405162461bcd60e51b8152600401610b2c9061379b565b601980546001600160a01b0319166001600160a01b0392909216919091179055565b6001600160a01b03821660009081526001602052604081206114589083612749565b90505b92915050565b600b546000906001600160a01b0316331461148e5760405162461bcd60e51b8152600401610b2c9061379b565b600b54600160a01b900460ff16156114a557600080fd5b600b805460ff60a01b1916600160a01b1790556040517f6985a02210a168e66602d3235cb6db0e70f92b3ba4d376a33c0f3d9434bff62590600090a150600190565b6002600c54141561153a5760405162461bcd60e51b815260206004820152601f60248201527f5265656e7472616e637947756172643a207265656e7472616e742063616c6c006044820152606401610b2c565b6002600c55601754610100900460ff1661158c5760405162461bcd60e51b81526020600482015260136024820152727061636b61676520756e617661696c61626c6560681b6044820152606401610b2c565b60008160038111156115a0576115a0613612565b14156115e05760405162461bcd60e51b815260206004820152600f60248201526e696e76616c6964207061636b61676560881b6044820152606401610b2c565b6001600160a01b0383166116365760405162461bcd60e51b815260206004820181905260248201527f4552433732313a206d696e7420746f20746865207a65726f20616464726573736044820152606401610b2c565b6010600082600381111561164c5761164c613612565b600381111561165d5761165d613612565b8152602001908152602001600020548210156116ac5760405162461bcd60e51b815260206004820152600e60248201526d1253959053125108105353d5539560921b6044820152606401610b2c565b3482146117065760405162461bcd60e51b815260206004820152602260248201527f616d6f756e7420646966666572656e742066726f6d20626e6220726571756972604482015261195960f21b6064820152608401610b2c565b600181600381111561171a5761171a613612565b141561178a5760115463ffffffff600160801b820481169116106117505760405162461bcd60e51b8152600401610b2c9061383c565b6011805463ffffffff169060006117668361385e565b91906101000a81548163ffffffff021916908363ffffffff1602179055505061186e565b600281600381111561179e5761179e613612565b14156117fa5760115463ffffffff600160a01b8204811664010000000090920416106117dc5760405162461bcd60e51b8152600401610b2c9061383c565b60118054640100000000900463ffffffff169060046117668361385e565b60115463ffffffff600160c01b82048116600160401b90920416106118315760405162461bcd60e51b8152600401610b2c9061383c565b60118054600160401b900463ffffffff1690600861184e8361385e565b91906101000a81548163ffffffff021916908363ffffffff160217905550505b61187b8360155483612755565b6015805490600061188b83613821565b90915550506001600c55505050565b600b54600160a01b900460ff166118b057600080fd5b600b546001600160a01b031633146118da5760405162461bcd60e51b8152600401610b2c9061379b565b6118e261235d565b50565b61109d83838360405180602001604052806000815250611f3d565b600b546001600160a01b0316331461192a5760405162461bcd60e51b8152600401610b2c9061379b565b6011805463ffffffff909216600160801b0263ffffffff60801b19909216919091179055565b60008061195e600284612952565b509392505050565b600b546001600160a01b031633146119905760405162461bcd60e51b8152600401610b2c9061379b565b6017805461ff001981166101009182900460ff1615909102179055565b600b546001600160a01b031633146119d75760405162461bcd60e51b8152600401610b2c9061379b565b6017546001600160a01b03620100009091041663a9059cbb611a01600b546001600160a01b031690565b611a096110ed565b6040516001600160e01b031960e085901b1681526001600160a01b03909216600483015260248201526044016020604051808303816000875af1158015611a54573d6000803e3d6000fd5b505050506040513d601f19601f820116820180604052508101906118e291906136e7565b600061145b82604051806060016040528060298152602001613ac3602991396002919061296e565b6060600a8054610e8190613747565b60006001600160a01b038216611b1a5760405162461bcd60e51b815260206004820152602a60248201527f4552433732313a2062616c616e636520717565727920666f7220746865207a65604482015269726f206164647265737360b01b6064820152608401610b2c565b6001600160a01b038216600090815260016020526040902061145b9061273f565b600b546001600160a01b03163314611b655760405162461bcd60e51b8152600401610b2c9061379b565b600b546040516000916001600160a01b0316907f8be0079c531659141344cd1fd0a4f28419497f9722a3daafe3b4186f6b6457e0908390a3600b80546001600160a01b0319169055565b600b546001600160a01b03163314611bd95760405162461bcd60e51b8152600401610b2c9061379b565b6011805463ffffffff909216600160a01b0263ffffffff60a01b19909216919091179055565b600b54600160a01b900460ff1615611c1657600080fd5b600b546001600160a01b03163314611c405760405162461bcd60e51b8152600401610b2c9061379b565b6118e2611461565b606060088054610e8190613747565b600080600080611c6685611e17565b6040805160008152602081018083528b905260ff8316918101919091526060810184905260808101839052929550909350915060019060a0016020604051602081039080840390855afa158015611cc1573d6000803e3d6000fd5b5050604051601f190151979650505050505050565b600b546001600160a01b03163314611d005760405162461bcd60e51b8152600401610b2c9061379b565b80600f6000846003811115611d1757611d17613612565b6003811115611d2857611d28613612565b815260200190815260200160002060006101000a81548160ff021916908360ff1602179055505050565b6001600160a01b038216331415611dab5760405162461bcd60e51b815260206004820152601960248201527f4552433732313a20617070726f766520746f2063616c6c6572000000000000006044820152606401610b2c565b3360008181526006602090815260408083206001600160a01b03871680855290835292819020805460ff191686151590811790915590519081529192917f17307eab39ab6107e8899845ad3d59bd9653f200f220920489ca2b5937696c31910160405180910390a35050565b60008060008351604114611e6d5760405162461bcd60e51b815260206004820152601860248201527f696e76616c6964207369676e6174757265206c656e67746800000000000000006044820152606401610b2c565b50505060208101516040820151606090920151909260009190911a90565b600b546001600160a01b03163314611eb55760405162461bcd60e51b8152600401610b2c9061379b565b8060106000846003811115611ecc57611ecc613612565b6003811115611edd57611edd613612565b81526020810191909152604001600020555050565b600b546001600160a01b03163314611f1c5760405162461bcd60e51b8152600401610b2c9061379b565b6019805460ff60a01b198116600160a01b9182900460ff1615909102179055565b611f4733836124df565b611f635760405162461bcd60e51b8152600401610b2c906137d0565b611f6f8484848461297b565b50505050565b604080516080810182526000808252602082018190529181018290526060810191909152600d611fa660018461371a565b81548110611fb657611fb6613731565b600091825260209182902060408051608081018252600290930290910180548352600181015460ff808216958501959095529293909291840191610100900416600381111561200757612007613612565b600381111561201857612018613612565b8152600191909101546201000090046001600160401b031660209091015292915050565b600b546001600160a01b031633146120665760405162461bcd60e51b8152600401610b2c9061379b565b6011805463ffffffff909216600160c01b0263ffffffff60c01b19909216919091179055565b600b546001600160a01b031633146120b65760405162461bcd60e51b8152600401610b2c9061379b565b6017805460ff19811660ff90911615179055565b60606120d582612459565b6121395760405162461bcd60e51b815260206004820152602f60248201527f4552433732314d657461646174613a2055524920717565727920666f72206e6f60448201526e3732bc34b9ba32b73a103a37b5b2b760891b6064820152608401610b2c565b6000828152600960205260408120805461215290613747565b80601f016020809104026020016040519081016040528092919081815260200182805461217e90613747565b80156121cb5780601f106121a0576101008083540402835291602001916121cb565b820191906000526020600020905b8154815290600101906020018083116121ae57829003601f168201915b50505050509050600a80546121df90613747565b151590506121ed5792915050565b80511561221f57600a8160405160200161220892919061389e565b604051602081830303815290604052915050919050565b600a61222a846129ae565b60405160200161220892919061389e565b6040516bffffffffffffffffffffffff19606085901b16602082015260348101839052605481018290526000906074016040516020818303038152906040528051906020012090505b9392505050565b600b546001600160a01b031633146122b55760405162461bcd60e51b8152600401610b2c9061379b565b601880546001600160a01b0319166001600160a01b0392909216919091179055565b600b546001600160a01b031633146123015760405162461bcd60e51b8152600401610b2c9061379b565b6118e281612ac4565b6040517f19457468657265756d205369676e6564204d6573736167653a0a3332000000006020820152603c8101829052600090605c01604051602081830303815290604052805190602001209050919050565b600b546000906001600160a01b0316331461238a5760405162461bcd60e51b8152600401610b2c9061379b565b600b54600160a01b900460ff166123a057600080fd5b600b805460ff60a01b191690556040517f7805862f689e2f13df9f062ff482ad3ad112aca9e0847911ed832e158c525b3390600090a150600190565b60006123e782611a78565b90506123f581600084612b85565b612400600083612466565b6001600160a01b03811660009081526001602052604090206124229083612b9c565b5061242e600283612ba8565b5060405182906000906001600160a01b03841690600080516020613aec833981519152908390a45050565b600061145b600283612bb4565b600081815260056020526040902080546001600160a01b0319166001600160a01b038416908117909155819061249b82611a78565b6001600160a01b03167f8c5be1e5ebec7d5bd14f71427d1e84f3dd0314c0f7b2291e5b200ac8c7c3b92560405160405180910390a45050565b600061145b82612bc0565b60006124ea82612459565b61254b5760405162461bcd60e51b815260206004820152602c60248201527f4552433732313a206f70657261746f7220717565727920666f72206e6f6e657860448201526b34b9ba32b73a103a37b5b2b760a11b6064820152608401610b2c565b600061255683611a78565b9050806001600160a01b0316846001600160a01b031614806125915750836001600160a01b031661258684610f04565b6001600160a01b0316145b806110e557506001600160a01b0380821660009081526006602090815260408083209388168352929052205460ff166110e5565b826001600160a01b03166125d882611a78565b6001600160a01b0316146126405760405162461bcd60e51b815260206004820152602960248201527f4552433732313a207472616e73666572206f6620746f6b656e2074686174206960448201526839903737ba1037bbb760b91b6064820152608401610b2c565b6001600160a01b0382166126a25760405162461bcd60e51b8152602060048201526024808201527f4552433732313a207472616e7366657220746f20746865207a65726f206164646044820152637265737360e01b6064820152608401610b2c565b6126ad838383612b85565b6126b8600082612466565b6001600160a01b03831660009081526001602052604090206126da9082612b9c565b506001600160a01b03821660009081526001602052604090206126fd9082612bcb565b5061270a60028284612bd7565b5080826001600160a01b0316846001600160a01b0316600080516020613aec83398151915260405160405180910390a4505050565b600061145b825490565b60006114588383612bed565b60006040518060800160405280848152602001600f600085600381111561277e5761277e613612565b600381111561278f5761278f613612565b81526020808201929092526040016000205460ff168252018360038111156127b9576127b9613612565b8152602001426001600160401b031681525090506127e7848460405180602001604052806000815250612c17565b600d805460018101825560009190915281517fd7b6990105719101dabeb77144f2a3385c8033acd3af97e9423a695e81ad1eb5600290920291820190815560208301517fd7b6990105719101dabeb77144f2a3385c8033acd3af97e9423a695e81ad1eb6909201805460ff19811660ff90941693841782556040850151859490929161ffff19161761010083600381111561288457612884613612565b021790555060608201518160010160026101000a8154816001600160401b0302191690836001600160401b0316021790555050507fb433297aca508fd04fd164f18aa58c77b7e2309d8c5659eea9d29b89f143e0c0848260000151836040015160038111156128f5576128f5613612565b604080516001600160a01b039094168452602084019290925260ff169082015242606082015260800160405180910390a180516040516001600160a01b03861690600090600080516020613aec833981519152908290a450505050565b60008080806129618686612c4a565b9097909650945050505050565b60006110e5848484612c75565b6129868484846125c5565b61299284848484612cb8565b611f6f5760405162461bcd60e51b8152600401610b2c90613945565b6060816129d25750506040805180820190915260018152600360fc1b602082015290565b8160005b81156129fc57806129e681613821565b91506129f59050600a836139ad565b91506129d6565b6000816001600160401b03811115612a1657612a16613190565b6040519080825280601f01601f191660200182016040528015612a40576020820181803683370190505b5090506000612a5060018461371a565b90508593505b8315612abb57612a67600a856139c1565b612a729060306139d5565b60f81b8282612a80816139ed565b935081518110612a9257612a92613731565b60200101906001600160f81b031916908160001a905350612ab4600a856139ad565b9350612a56565b50949350505050565b6001600160a01b038116612b295760405162461bcd60e51b815260206004820152602660248201527f4f776e61626c653a206e6577206f776e657220697320746865207a65726f206160448201526564647265737360d01b6064820152608401610b2c565b600b546040516001600160a01b038084169216907f8be0079c531659141344cd1fd0a4f28419497f9722a3daafe3b4186f6b6457e090600090a3600b80546001600160a01b0319166001600160a01b0392909216919091179055565b600b54600160a01b900460ff161561109d57600080fd5b60006114588383612d89565b60006114588383612e7c565b60006114588383612e99565b600061145b8261273f565b60006114588383612eb8565b60006110e584846001600160a01b038516612f07565b6000826000018281548110612c0457612c04613731565b9060005260206000200154905092915050565b612c218383612f24565b612c2e6000848484612cb8565b61109d5760405162461bcd60e51b8152600401610b2c90613945565b60008080612c588585612749565b600081815260029690960160205260409095205494959350505050565b600082815260028401602052604081205480151580612c995750612c998585612e99565b8390612abb5760405162461bcd60e51b8152600401610b2c91906132f4565b60006001600160a01b0384163b612cd1575060016110e5565b6000612d52630a85bd0160e11b33888787604051602401612cf59493929190613a04565b604051602081830303815290604052906001600160e01b0319166020820180516001600160e01b038381831617835250505050604051806060016040528060328152602001613a91603291396001600160a01b0388169190613036565b9050600081806020019051810190612d6a9190613a41565b6001600160e01b031916630a85bd0160e11b1492505050949350505050565b60008181526001830160205260408120548015612e72576000612dad60018361371a565b8554909150600090612dc19060019061371a565b9050818114612e26576000866000018281548110612de157612de1613731565b9060005260206000200154905080876000018481548110612e0457612e04613731565b6000918252602080832090910192909255918252600188019052604090208390555b8554869080612e3757612e37613a5e565b60019003818190600052602060002001600090559055856001016000868152602001908152602001600020600090556001935050505061145b565b600091505061145b565b600081815260028301602052604081208190556114588383612b9c565b6000611458838360008181526001830160205260408120541515611458565b6000818152600183016020526040812054612eff5750815460018181018455600084815260208082209093018490558454848252828601909352604090209190915561145b565b50600061145b565b600082815260028401602052604081208290556110e58484612bcb565b6001600160a01b038216612f7a5760405162461bcd60e51b815260206004820181905260248201527f4552433732313a206d696e7420746f20746865207a65726f20616464726573736044820152606401610b2c565b612f8381612459565b15612fd05760405162461bcd60e51b815260206004820152601c60248201527f4552433732313a20746f6b656e20616c7265616479206d696e746564000000006044820152606401610b2c565b612fdc60008383612b85565b6001600160a01b0382166000908152600160205260409020612ffe9082612bcb565b5061300b60028284612bd7565b5060405181906001600160a01b03841690600090600080516020613aec833981519152908290a45050565b60606110e5848460008585843b61308f5760405162461bcd60e51b815260206004820152601d60248201527f416464726573733a2063616c6c20746f206e6f6e2d636f6e74726163740000006044820152606401610b2c565b600080866001600160a01b031685876040516130ab9190613a74565b60006040518083038185875af1925050503d80600081146130e8576040519150601f19603f3d011682016040523d82523d6000602084013e6130ed565b606091505b50915091506130fd828286613108565b979650505050505050565b60608315613117575081612284565b8251156131275782518084602001fd5b8160405162461bcd60e51b8152600401610b2c91906132f4565b6001600160e01b0319811681146118e257600080fd5b60006020828403121561316957600080fd5b813561228481613141565b80356001600160a01b038116811461318b57600080fd5b919050565b634e487b7160e01b600052604160045260246000fd5b600082601f8301126131b757600080fd5b81356001600160401b03808211156131d1576131d1613190565b604051601f8301601f19908116603f011681019082821181831017156131f9576131f9613190565b8160405283815286602085880101111561321257600080fd5b836020870160208301376000602085830101528094505050505092915050565b600080600080600060a0868803121561324a57600080fd5b61325386613174565b945060208601359350604086013592506060860135915060808601356001600160401b0381111561328357600080fd5b61328f888289016131a6565b9150509295509295909350565b60005b838110156132b757818101518382015260200161329f565b83811115611f6f5750506000910152565b600081518084526132e081602086016020860161329c565b601f01601f19169290920160200192915050565b60208152600061145860208301846132c8565b60006020828403121561331957600080fd5b5035919050565b6000806040838503121561333357600080fd5b61333c83613174565b946020939093013593505050565b6000806000806080858703121561336057600080fd5b61336985613174565b9350602085013592506040850135915060608501356001600160401b0381111561339257600080fd5b61339e878288016131a6565b91505092959194509250565b6000806000606084860312156133bf57600080fd5b6133c884613174565b92506133d660208501613174565b9150604084013590509250925092565b6000602082840312156133f857600080fd5b61145882613174565b6020808252825182820181905260009190848201906040850190845b818110156134395783518352928401929184019160010161341d565b50909695505050505050565b80356004811061318b57600080fd5b60008060006060848603121561346957600080fd5b61347284613174565b92506020840135915061348760408501613445565b90509250925092565b6000602082840312156134a257600080fd5b813563ffffffff8116811461228457600080fd5b600080604083850312156134c957600080fd5b8235915060208301356001600160401b038111156134e657600080fd5b6134f2858286016131a6565b9150509250929050565b6000806040838503121561350f57600080fd5b61351883613445565b9150602083013560ff8116811461352e57600080fd5b809150509250929050565b80151581146118e257600080fd5b6000806040838503121561355a57600080fd5b61356383613174565b9150602083013561352e81613539565b60006020828403121561358557600080fd5b81356001600160401b0381111561359b57600080fd5b6110e5848285016131a6565b600080604083850312156135ba57600080fd5b61333c83613445565b600080600080608085870312156135d957600080fd5b6135e285613174565b93506135f060208601613174565b92506040850135915060608501356001600160401b0381111561339257600080fd5b634e487b7160e01b600052602160045260246000fd5b8151815260208083015160ff1690820152604082015160808201906004811061366157634e487b7160e01b600052602160045260246000fd5b806040840152506001600160401b03606084015116606083015292915050565b60008060006060848603121561369657600080fd5b61369f84613174565b95602085013595506040909401359392505050565b600080604083850312156136c757600080fd5b6136d083613174565b91506136de60208401613174565b90509250929050565b6000602082840312156136f957600080fd5b815161228481613539565b634e487b7160e01b600052601160045260246000fd5b60008282101561372c5761372c613704565b500390565b634e487b7160e01b600052603260045260246000fd5b600181811c9082168061375b57607f821691505b6020821081141561377c57634e487b7160e01b600052602260045260246000fd5b50919050565b60006020828403121561379457600080fd5b5051919050565b6020808252818101527f4f776e61626c653a2063616c6c6572206973206e6f7420746865206f776e6572604082015260600190565b60208082526031908201527f4552433732313a207472616e736665722063616c6c6572206973206e6f74206f6040820152701ddb995c881b9bdc88185c1c1c9bdd9959607a1b606082015260800190565b600060001982141561383557613835613704565b5060010190565b6020808252600890820152671cdbdb19081bdd5d60c21b604082015260600190565b600063ffffffff8083168181141561387857613878613704565b6001019392505050565b6000815161389481856020860161329c565b9290920192915050565b600080845481600182811c9150808316806138ba57607f831692505b60208084108214156138da57634e487b7160e01b86526022600452602486fd5b8180156138ee57600181146138ff5761392c565b60ff1986168952848901965061392c565b60008b81526020902060005b868110156139245781548b82015290850190830161390b565b505084890196505b50505050505061393c8185613882565b95945050505050565b60208082526032908201527f4552433732313a207472616e7366657220746f206e6f6e20455243373231526560408201527131b2b4bb32b91034b6b83632b6b2b73a32b960711b606082015260800190565b634e487b7160e01b600052601260045260246000fd5b6000826139bc576139bc613997565b500490565b6000826139d0576139d0613997565b500690565b600082198211156139e8576139e8613704565b500190565b6000816139fc576139fc613704565b506000190190565b6001600160a01b0385811682528416602082015260408101839052608060608201819052600090613a37908301846132c8565b9695505050505050565b600060208284031215613a5357600080fd5b815161228481613141565b634e487b7160e01b600052603160045260246000fd5b60008251613a8681846020870161329c565b919091019291505056fe4552433732313a207472616e7366657220746f206e6f6e20455243373231526563656976657220696d706c656d656e7465724552433732313a206f776e657220717565727920666f72206e6f6e6578697374656e7420746f6b656eddf252ad1be2c89b69c2b068fc378daa952ba7f163c4a11628f55a4df523b3efa264697066735822122054441f632df1f4c6dadb75adb8021ab235d0681b0414ab3440066eae3f17422f64736f6c634300080a00334f776e61626c653a2063616c6c6572206973206e6f7420746865206f776e6572",
  "immutableReferences": {},
  "source": "// SPDX-License-Identifier: MIT\r\npragma solidity ^0.8.2;\r\n\r\nimport \"./IBEP20.sol\";\r\nimport \"./IMarketplace.sol\";\r\nimport \"./SafeMath.sol\";\r\nimport \"./Ownable.sol\";\r\nimport \"./AccessControl.sol\";\r\nimport \"./ERC721.sol\";\r\nimport \"./ERC721Pausable.sol\";\r\nimport \"./IPieceCore.sol\";\r\nimport \"./ReentrancyGuard.sol\";\r\n\r\ncontract PiecePackage is Ownable, ERC721Pausable, ReentrancyGuard {\r\n    using SafeMath for uint256;\r\n\r\n    struct Package {\r\n        uint256 packageId; // id of the package\r\n        uint8 quantity; // quantity of robots on this package\r\n        PackageType packageType; //package type\r\n        uint64 birthTime; // The timestamp from the block when this Robot came into existence.\r\n    }\r\n\r\n    enum PackageType {\r\n        Default,\r\n        First,\r\n        Second,\r\n        Third\r\n    }\r\n\r\n    /*** STORAGE ***/\r\n    /// @dev An array containing the Piece struct for all pieces in existence. The ID\r\n    ///  of each Piece is actually an index into this array.\r\n    Package[] packages;\r\n\r\n    mapping(uint256 => bool) usedNonces;\r\n    mapping(PackageType => uint8) private _packageTypePieces;\r\n    mapping(PackageType => uint256) private _packageTypePrice;\r\n\r\n    uint32 firstPackageCount;\r\n    uint32 secondPackageCount;\r\n    uint32 thirdPackageCount;\r\n    uint32 fourthPackageCount;\r\n    uint32 firstPackageLimit = 300;\r\n    uint32 secondPackageLimit = 150;\r\n    uint32 thirdPackageLimit = 75;\r\n\r\n    uint256 private priceFirstPackage = 0.2 * 10**18; // to review\r\n    uint256 private priceSecondPackage = 0.5 * 10**18; // to review\r\n    uint256 private priceThirdPackage = 0.9 * 10**18; // to\r\n    uint256 private nextPackageTokenId = 1;\r\n    uint256 private piecePackagePrice = 5 * 10**18; // to review\r\n\r\n    /* SETTABLE VARIABLES */\r\n    bool public canUnpack;\r\n    bool public isPackageAvailable;\r\n    address public _mekaAddress;\r\n    address public _pieceAddress;\r\n    address public _adminAddress;\r\n    bool public isBurn;\r\n\r\n    event PackageCreated(\r\n        address to,\r\n        uint256 packId,\r\n        uint8 packageType,\r\n        uint256 date\r\n    );\r\n    event Unpacked(\r\n        address from,\r\n        uint256 packId,\r\n        uint8 packageType,\r\n        uint256 date\r\n    );\r\n    event MintedPieceFromBundle(address from, uint256[] pieceId, uint256 date);\r\n\r\n    constructor(address mekaAddress, address pieceAddress)\r\n        ERC721(\"Mekabot Piece\", \"MekaPiece\")\r\n    {\r\n        isBurn = true;\r\n        _mekaAddress = mekaAddress;\r\n        _pieceAddress = pieceAddress;\r\n        canUnpack = true;\r\n        isPackageAvailable = true;\r\n\r\n        setPackageTypePrice(PackageType.First, priceFirstPackage);\r\n        setPackageTypePrice(PackageType.Second, priceSecondPackage);\r\n        setPackageTypePrice(PackageType.Third, priceThirdPackage);\r\n        setPackageTypePieces(PackageType.First, 3);\r\n        setPackageTypePieces(PackageType.Second, 6);\r\n        setPackageTypePieces(PackageType.Third, 10);\r\n    }\r\n\r\n    function setAdminAddress(address adminAddress) external onlyOwner {\r\n        _adminAddress = adminAddress;\r\n    }\r\n\r\n    function setFirstPackageLimit(uint32 quantity) external onlyOwner {\r\n        firstPackageLimit = quantity;\r\n    }\r\n\r\n    function setSecondPackageLimit(uint32 quantity) external onlyOwner {\r\n        secondPackageLimit = quantity;\r\n    }\r\n\r\n    function setThirdPackageLimit(uint32 quantity) external onlyOwner {\r\n        thirdPackageLimit = quantity;\r\n    }\r\n\r\n    function setPackageTypePieces(PackageType _packageType, uint8 quantity)\r\n        public\r\n        onlyOwner\r\n    {\r\n        _packageTypePieces[_packageType] = quantity;\r\n    }\r\n\r\n    function setPackageTypePrice(PackageType _packageType, uint256 amount)\r\n        public\r\n        onlyOwner\r\n    {\r\n        _packageTypePrice[_packageType] = amount;\r\n    }\r\n\r\n    function setpiecePackagePrice(uint256 _price) external onlyOwner {\r\n        piecePackagePrice = _price;\r\n    }\r\n\r\n    function setTokenAddress(address _addr) external onlyOwner {\r\n        _mekaAddress = _addr;\r\n    }\r\n\r\n    function setPieceAddress(address _addr) external onlyOwner {\r\n        _pieceAddress = _addr;\r\n    }\r\n\r\n    function updateCanUnpack() external onlyOwner {\r\n        canUnpack = !canUnpack;\r\n    }\r\n\r\n    function updatePackageAvailable() external onlyOwner {\r\n        isPackageAvailable = !isPackageAvailable;\r\n    }\r\n\r\n    // @dev Sets the reference to the burn.\r\n    function updateIsBurn() external onlyOwner {\r\n        isBurn = !isBurn;\r\n    }\r\n\r\n    modifier canOpen() {\r\n        require(canUnpack, \"can not open\");\r\n        _;\r\n    }\r\n\r\n    modifier packageAvailable() {\r\n        require(isPackageAvailable, \"package unavailable\");\r\n        _;\r\n    }\r\n\r\n    function withdrawBalance() external onlyOwner {\r\n        IBEP20(_mekaAddress).transfer(owner(), getBalance());\r\n    }\r\n\r\n    function withdrawBnb() external onlyOwner {\r\n        uint256 amount = address(this).balance;\r\n\r\n        (bool success, ) = payable(owner()).call{value: amount}(\"\");\r\n        require(success, \"Failed to send Ether\");\r\n    }\r\n\r\n    function getBalance() public view returns (uint256) {\r\n        return IBEP20(_mekaAddress).balanceOf(address(this));\r\n    }\r\n\r\n    function getBnbBalance() public view returns (uint256) {\r\n        return address(this).balance;\r\n    }\r\n\r\n    function pause() external whenNotPaused onlyOwner {\r\n        _pause();\r\n    }\r\n\r\n    function unpause() external whenPaused onlyOwner {\r\n        _unpause();\r\n    }\r\n\r\n    /* Piece PACKAGE */\r\n\r\n    function getPackage(uint256 _id)\r\n        public\r\n        view\r\n        returns (Package memory package)\r\n    {\r\n        package = packages[_id - 1];\r\n    }\r\n\r\n    function _mintPackage(\r\n        address _to,\r\n        uint256 _tokenId,\r\n        PackageType _packageType\r\n    ) private {\r\n        Package memory _package = Package({\r\n            packageType: _packageType,\r\n            packageId: _tokenId,\r\n            quantity: _packageTypePieces[_packageType],\r\n            birthTime: uint64(block.timestamp)\r\n        });\r\n\r\n        _safeMint(_to, _tokenId, \"\");\r\n        packages.push(_package);\r\n\r\n        emit PackageCreated(\r\n            _to,\r\n            _package.packageId,\r\n            uint8(_package.packageType),\r\n            block.timestamp\r\n        );\r\n\r\n        emit Transfer(address(0), _to, _package.packageId);\r\n    }\r\n\r\n    function createPackage(\r\n        address _owner,\r\n        uint256 _amount,\r\n        PackageType _packageType\r\n    ) external payable nonReentrant packageAvailable {\r\n        require(_packageType != PackageType.Default, \"invalid package\");\r\n        require(_owner != address(0), \"ERC721: mint to the zero address\");\r\n        require(_amount >= _packageTypePrice[_packageType], \"INVALID AMOUNT\");\r\n        require(_amount == msg.value, \"amount different from bnb required\");\r\n\r\n        if (_packageType == PackageType.First) {\r\n            require(firstPackageCount < firstPackageLimit, \"sold out\");\r\n            firstPackageCount++;\r\n        } else if (_packageType == PackageType.Second) {\r\n            require(secondPackageCount < secondPackageLimit, \"sold out\");\r\n            secondPackageCount++;\r\n        } else {\r\n            require(thirdPackageCount < thirdPackageLimit, \"sold out\");\r\n            thirdPackageCount++;\r\n        }\r\n\r\n        _mintPackage(_owner, nextPackageTokenId, _packageType);\r\n        nextPackageTokenId++;\r\n    }\r\n\r\n    function openPackage(\r\n        address _to,\r\n        uint256 _amount,\r\n        uint256 _tokenId,\r\n        uint256 _nonce,\r\n        bytes memory _signature\r\n    ) external canOpen {\r\n        require(verify(_to, _amount, _nonce, _signature), \"not signed\");\r\n        require(!usedNonces[_nonce]);\r\n        require(_amount >= piecePackagePrice, \"INVALID AMOUNT\");\r\n        require(_to != address(0), \"mint to the zero address\");\r\n        require(IBEP20(_mekaAddress).transferFrom(_to, address(this), _amount));\r\n\r\n        Package memory package = packages[_tokenId - 1];\r\n\r\n        IPieceCore(_pieceAddress).createPieceFromBundle(\r\n            _to,\r\n            uint8(package.packageType),\r\n            package.quantity\r\n        );\r\n\r\n        _burn(_tokenId);\r\n\r\n        emit Unpacked(\r\n            _to,\r\n            _tokenId,\r\n            uint8(package.packageType),\r\n            block.timestamp\r\n        );\r\n    }\r\n\r\n    function getPackagesCount()\r\n        external\r\n        view\r\n        returns (\r\n            uint32 _firstPackageCount,\r\n            uint32 _secondPackageCount,\r\n            uint32 _thirdPackageCount\r\n        )\r\n    {\r\n        _firstPackageCount = firstPackageCount;\r\n        _secondPackageCount = secondPackageCount;\r\n        _thirdPackageCount = thirdPackageCount;\r\n    }\r\n\r\n    function getMessageHash(\r\n        address _to,\r\n        uint256 _amount,\r\n        uint256 _nonce\r\n    ) public pure returns (bytes32) {\r\n        return keccak256(abi.encodePacked(_to, _amount, _nonce));\r\n    }\r\n\r\n    function getEthSignedMessageHash(bytes32 _messageHash)\r\n        public\r\n        pure\r\n        returns (bytes32)\r\n    {\r\n        return\r\n            keccak256(\r\n                abi.encodePacked(\r\n                    \"\\x19Ethereum Signed Message:\\n32\",\r\n                    _messageHash\r\n                )\r\n            );\r\n    }\r\n\r\n    function verify(\r\n        address _to,\r\n        uint256 _amount,\r\n        uint256 _nonce,\r\n        bytes memory _signature\r\n    ) public view returns (bool) {\r\n        bytes32 messageHash = getMessageHash(_to, _amount, _nonce);\r\n        bytes32 ethSignedMessageHash = getEthSignedMessageHash(messageHash);\r\n\r\n        return recoverSigner(ethSignedMessageHash, _signature) == _adminAddress;\r\n    }\r\n\r\n    function recoverSigner(\r\n        bytes32 _ethSignedMessageHash,\r\n        bytes memory _signature\r\n    ) public pure returns (address) {\r\n        (bytes32 r, bytes32 s, uint8 v) = splitSignature(_signature);\r\n\r\n        return ecrecover(_ethSignedMessageHash, v, r, s);\r\n    }\r\n\r\n    function splitSignature(bytes memory sig)\r\n        public\r\n        pure\r\n        returns (\r\n            bytes32 r,\r\n            bytes32 s,\r\n            uint8 v\r\n        )\r\n    {\r\n        require(sig.length == 65, \"invalid signature length\");\r\n\r\n        assembly {\r\n            r := mload(add(sig, 32))\r\n            s := mload(add(sig, 64))\r\n            v := byte(0, mload(add(sig, 96)))\r\n        }\r\n    }\r\n}\r\n",
  "sourcePath": "E:\\MekaMiners\\contracts\\PiecePackage.sol",
  "compiler": {
    "name": "solc",
    "version": "0.8.10+commit.fc410830.Emscripten.clang"
  },
  "schemaVersion": "3.4.3",
  "updatedAt": "2021-11-14T21:16:25.845Z",
  "networkType": "ethereum",
  "devdoc": {
    "kind": "dev",
    "methods": {
      "_pause()": {
        "details": "called by the owner to pause, triggers stopped state"
      },
      "_unpause()": {
        "details": "called by the owner to unpause, returns to normal state"
      },
      "approve(address,uint256)": {
        "details": "See {IERC721-approve}."
      },
      "balanceOf(address)": {
        "details": "See {IERC721-balanceOf}."
      },
      "baseURI()": {
        "details": "Returns the base URI set via {_setBaseURI}. This will be automatically added as a prefix in {tokenURI} to each token's URI, or to the token ID if no specific URI is set for that token ID."
      },
      "getApproved(uint256)": {
        "details": "See {IERC721-getApproved}."
      },
      "isApprovedForAll(address,address)": {
        "details": "See {IERC721-isApprovedForAll}."
      },
      "isOwner()": {
        "details": "Returns true if the caller is the current owner."
      },
      "name()": {
        "details": "See {IERC721Metadata-name}."
      },
      "owner()": {
        "details": "Returns the address of the current owner."
      },
      "ownerOf(uint256)": {
        "details": "See {IERC721-ownerOf}."
      },
      "renounceOwnership()": {
        "details": "Leaves the contract without owner. It will not be possible to call `onlyOwner` functions anymore. Can only be called by the current owner. NOTE: Renouncing ownership will leave the contract without an owner, thereby removing any functionality that is only available to the owner."
      },
      "safeTransferFrom(address,address,uint256)": {
        "details": "See {IERC721-safeTransferFrom}."
      },
      "safeTransferFrom(address,address,uint256,bytes)": {
        "details": "See {IERC721-safeTransferFrom}."
      },
      "setApprovalForAll(address,bool)": {
        "details": "See {IERC721-setApprovalForAll}."
      },
      "supportsInterface(bytes4)": {
        "details": "See {IERC165-supportsInterface}. Time complexity O(1), guaranteed to always use less than 30 000 gas."
      },
      "symbol()": {
        "details": "See {IERC721Metadata-symbol}."
      },
      "tokenByIndex(uint256)": {
        "details": "See {IERC721Enumerable-tokenByIndex}."
      },
      "tokenOfOwner(address)": {
        "details": "See {IERC721Enumerable-tokenOfOwner}."
      },
      "tokenOfOwnerByIndex(address,uint256)": {
        "details": "See {IERC721Enumerable-tokenOfOwnerByIndex}."
      },
      "tokenURI(uint256)": {
        "details": "See {IERC721Metadata-tokenURI}."
      },
      "totalSupply()": {
        "details": "See {IERC721Enumerable-totalSupply}."
      },
      "transferFrom(address,address,uint256)": {
        "details": "See {IERC721-transferFrom}."
      },
      "transferOwnership(address)": {
        "details": "Transfers ownership of the contract to a new account (`newOwner`). Can only be called by the current owner."
      }
    },
    "stateVariables": {
      "packages": {
        "details": "An array containing the Piece struct for all pieces in existence. The ID  of each Piece is actually an index into this array."
      }
    },
    "version": 1
  },
  "userdoc": {
    "kind": "user",
    "methods": {},
    "version": 1
  }
}