{
  "contractName": "PieceMarketplace",
  "abi": [
    {
      "inputs": [
        {
          "internalType": "address",
          "name": "_nftAddr",
          "type": "address"
        },
        {
          "internalType": "uint256",
          "name": "_cut",
          "type": "uint256"
        },
        {
          "internalType": "address",
          "name": "_mekaToken",
          "type": "address"
        }
      ],
      "stateMutability": "nonpayable",
      "type": "constructor"
    },
    {
      "anonymous": false,
      "inputs": [
        {
          "indexed": true,
          "internalType": "address",
          "name": "previousOwner",
          "type": "address"
        },
        {
          "indexed": true,
          "internalType": "address",
          "name": "newOwner",
          "type": "address"
        }
      ],
      "name": "OwnershipTransferred",
      "type": "event"
    },
    {
      "anonymous": false,
      "inputs": [],
      "name": "Pause",
      "type": "event"
    },
    {
      "anonymous": false,
      "inputs": [
        {
          "indexed": false,
          "internalType": "uint256",
          "name": "tokenId",
          "type": "uint256"
        }
      ],
      "name": "SaleCancelled",
      "type": "event"
    },
    {
      "anonymous": false,
      "inputs": [
        {
          "indexed": false,
          "internalType": "uint256",
          "name": "tokenId",
          "type": "uint256"
        },
        {
          "indexed": false,
          "internalType": "uint256",
          "name": "startingPrice",
          "type": "uint256"
        }
      ],
      "name": "SaleCreated",
      "type": "event"
    },
    {
      "anonymous": false,
      "inputs": [
        {
          "indexed": false,
          "internalType": "uint256",
          "name": "tokenId",
          "type": "uint256"
        },
        {
          "indexed": false,
          "internalType": "uint256",
          "name": "totalPrice",
          "type": "uint256"
        },
        {
          "indexed": false,
          "internalType": "address",
          "name": "winner",
          "type": "address"
        }
      ],
      "name": "SaleSuccessful",
      "type": "event"
    },
    {
      "anonymous": false,
      "inputs": [],
      "name": "Unpause",
      "type": "event"
    },
    {
      "inputs": [],
      "name": "MEKAToken",
      "outputs": [
        {
          "internalType": "address",
          "name": "",
          "type": "address"
        }
      ],
      "stateMutability": "view",
      "type": "function",
      "constant": true
    },
    {
      "inputs": [],
      "name": "_pause",
      "outputs": [
        {
          "internalType": "bool",
          "name": "",
          "type": "bool"
        }
      ],
      "stateMutability": "nonpayable",
      "type": "function"
    },
    {
      "inputs": [],
      "name": "_unpause",
      "outputs": [
        {
          "internalType": "bool",
          "name": "",
          "type": "bool"
        }
      ],
      "stateMutability": "nonpayable",
      "type": "function"
    },
    {
      "inputs": [
        {
          "internalType": "uint256",
          "name": "_tokenId",
          "type": "uint256"
        },
        {
          "internalType": "uint256",
          "name": "_amount",
          "type": "uint256"
        }
      ],
      "name": "bid",
      "outputs": [],
      "stateMutability": "nonpayable",
      "type": "function"
    },
    {
      "inputs": [
        {
          "internalType": "uint256",
          "name": "_tokenId",
          "type": "uint256"
        }
      ],
      "name": "cancelSale",
      "outputs": [],
      "stateMutability": "nonpayable",
      "type": "function"
    },
    {
      "inputs": [
        {
          "internalType": "uint256",
          "name": "_tokenId",
          "type": "uint256"
        }
      ],
      "name": "cancelSaleWhenPaused",
      "outputs": [],
      "stateMutability": "nonpayable",
      "type": "function"
    },
    {
      "inputs": [
        {
          "internalType": "uint256",
          "name": "_cut",
          "type": "uint256"
        }
      ],
      "name": "changeCut",
      "outputs": [],
      "stateMutability": "nonpayable",
      "type": "function"
    },
    {
      "inputs": [],
      "name": "contributorCut",
      "outputs": [
        {
          "internalType": "uint256",
          "name": "",
          "type": "uint256"
        }
      ],
      "stateMutability": "view",
      "type": "function",
      "constant": true
    },
    {
      "inputs": [],
      "name": "getBalance",
      "outputs": [
        {
          "internalType": "uint256",
          "name": "",
          "type": "uint256"
        }
      ],
      "stateMutability": "view",
      "type": "function",
      "constant": true
    },
    {
      "inputs": [
        {
          "internalType": "uint256",
          "name": "_tokenId",
          "type": "uint256"
        }
      ],
      "name": "getSale",
      "outputs": [
        {
          "internalType": "address",
          "name": "seller",
          "type": "address"
        },
        {
          "internalType": "uint256",
          "name": "startingPrice",
          "type": "uint256"
        },
        {
          "internalType": "uint256",
          "name": "startedAt",
          "type": "uint256"
        }
      ],
      "stateMutability": "view",
      "type": "function",
      "constant": true
    },
    {
      "inputs": [],
      "name": "isOwner",
      "outputs": [
        {
          "internalType": "bool",
          "name": "",
          "type": "bool"
        }
      ],
      "stateMutability": "view",
      "type": "function",
      "constant": true
    },
    {
      "inputs": [],
      "name": "nonFungibleContract",
      "outputs": [
        {
          "internalType": "address",
          "name": "",
          "type": "address"
        }
      ],
      "stateMutability": "view",
      "type": "function",
      "constant": true
    },
    {
      "inputs": [],
      "name": "owner",
      "outputs": [
        {
          "internalType": "address",
          "name": "",
          "type": "address"
        }
      ],
      "stateMutability": "view",
      "type": "function",
      "constant": true
    },
    {
      "inputs": [],
      "name": "ownerCut",
      "outputs": [
        {
          "internalType": "uint256",
          "name": "",
          "type": "uint256"
        }
      ],
      "stateMutability": "view",
      "type": "function",
      "constant": true
    },
    {
      "inputs": [],
      "name": "paused",
      "outputs": [
        {
          "internalType": "bool",
          "name": "",
          "type": "bool"
        }
      ],
      "stateMutability": "view",
      "type": "function",
      "constant": true
    },
    {
      "inputs": [],
      "name": "renounceOwnership",
      "outputs": [],
      "stateMutability": "nonpayable",
      "type": "function"
    },
    {
      "inputs": [],
      "name": "shouldPayContributor",
      "outputs": [
        {
          "internalType": "bool",
          "name": "",
          "type": "bool"
        }
      ],
      "stateMutability": "view",
      "type": "function",
      "constant": true
    },
    {
      "inputs": [
        {
          "internalType": "address",
          "name": "newOwner",
          "type": "address"
        }
      ],
      "name": "transferOwnership",
      "outputs": [],
      "stateMutability": "nonpayable",
      "type": "function"
    },
    {
      "inputs": [],
      "name": "withdrawBalance",
      "outputs": [],
      "stateMutability": "nonpayable",
      "type": "function"
    },
    {
      "inputs": [
        {
          "internalType": "uint256",
          "name": "_tokenId",
          "type": "uint256"
        },
        {
          "internalType": "uint256",
          "name": "_appearenceId",
          "type": "uint256"
        },
        {
          "internalType": "address",
          "name": "_contributorAddress",
          "type": "address"
        },
        {
          "internalType": "uint256",
          "name": "_startingPrice",
          "type": "uint256"
        },
        {
          "internalType": "address",
          "name": "_seller",
          "type": "address"
        }
      ],
      "name": "createSale",
      "outputs": [],
      "stateMutability": "nonpayable",
      "type": "function"
    },
    {
      "inputs": [],
      "name": "setShouldPayContributor",
      "outputs": [],
      "stateMutability": "nonpayable",
      "type": "function"
    }
  ],
  "bytecode": "0x60806040526006805460ff60a01b1916905534801561001d57600080fd5b5060405161131138038061131183398101604081905261003c91610157565b600180546001600160a01b0319166001600160a01b0383161781556101f460025560646003556004805460ff19169091179055828282600061007b3390565b600680546001600160a01b0319166001600160a01b038316908117909155604051919250906000907f8be0079c531659141344cd1fd0a4f28419497f9722a3daafe3b4186f6b6457e0908290a35061271082111561010e5760405162461bcd60e51b815260206004820152600c60248201526b0c6eae840e8dede40d0d2ced60a31b604482015260640160405180910390fd5b50600255600080546001600160a01b0319166001600160a01b039290921691909117905550610193915050565b80516001600160a01b038116811461015257600080fd5b919050565b60008060006060848603121561016c57600080fd5b6101758461013b565b92506020840151915061018a6040850161013b565b90509250925092565b61116f806101a26000396000f3fe608060405234801561001057600080fd5b50600436106101375760003560e01c806383b5ff8b116100b8578063be22facd1161007c578063be22facd14610240578063cb17b20114610253578063d8f6d59614610266578063dd1b7a0f1461029e578063f2fde38b146102b1578063fc8234cb146102c457600080fd5b806383b5ff8b146101d95780638da5cb5b146101e25780638f32d59b14610207578063ab892eba1461021a578063bd94b0051461022d57600080fd5b8063598647f8116100ff578063598647f81461019a5780635c975abb146101ad5780635fd8c710146101c1578063715018a6146101c957806378990843146101d157600080fd5b806303cc9a7e1461013c57806312065fe0146101585780631eeacde51461016057806323edfb891461017d578063320b2ad914610192575b600080fd5b61014560035481565b6040519081526020015b60405180910390f35b6101456102cc565b60045461016d9060ff1681565b604051901515815260200161014f565b61019061018b366004610f5b565b61034d565b005b61016d6103e9565b6101906101a8366004610f74565b61046f565b60065461016d90600160a01b900460ff1681565b610190610571565b610190610636565b6101906106aa565b61014560025481565b6006546001600160a01b03165b6040516001600160a01b03909116815260200161014f565b6006546001600160a01b0316331461016d565b610190610228366004610f5b565b6106e8565b61019061023b366004610f5b565b610758565b61019061024e366004610fb2565b6107ce565b6001546101ef906001600160a01b031681565b610279610274366004610f5b565b61087f565b604080516001600160a01b03909416845260208401929092529082015260600161014f565b6000546101ef906001600160a01b031681565b6101906102bf366004611002565b6108e9565b61016d61091c565b6001546040516370a0823160e01b81523060048201526000916001600160a01b0316906370a082319060240160206040518083038186803b15801561031057600080fd5b505afa158015610324573d6000803e3d6000fd5b505050506040513d601f19601f820116820180604052508101906103489190611024565b905090565b600654600160a01b900460ff1661036357600080fd5b6006546001600160a01b031633146103965760405162461bcd60e51b815260040161038d9061103d565b60405180910390fd5b6000818152600560205260409020600481015467ffffffffffffffff166103cf5760405162461bcd60e51b815260040161038d90611072565b80546103e59083906001600160a01b031661099b565b5050565b6006546000906001600160a01b031633146104165760405162461bcd60e51b815260040161038d9061103d565b600654600160a01b900460ff161561042d57600080fd5b6006805460ff60a01b1916600160a01b1790556040517f6985a02210a168e66602d3235cb6db0e70f92b3ba4d376a33c0f3d9434bff62590600090a150600190565b600654600160a01b900460ff161561048657600080fd5b6001546040516323b872dd60e01b8152336004820152306024820152604481018390526001600160a01b03909116906323b872dd90606401602060405180830381600087803b1580156104d857600080fd5b505af11580156104ec573d6000803e3d6000fd5b505050506040513d601f19601f8201168201806040525081019061051091906110a9565b61055c5760405162461bcd60e51b815260206004820152601760248201527f7472616e73666572206e6f7420617574686f72697a6564000000000000000000604482015260640161038d565b61056682826109e6565b506103e53383610c70565b6006546001600160a01b0316331461059b5760405162461bcd60e51b815260040161038d9061103d565b6001546001600160a01b031663a9059cbb336105b56102cc565b6040516001600160e01b031960e085901b1681526001600160a01b0390921660048301526024820152604401602060405180830381600087803b1580156105fb57600080fd5b505af115801561060f573d6000803e3d6000fd5b505050506040513d601f19601f8201168201806040525081019061063391906110a9565b50565b6006546001600160a01b031633146106605760405162461bcd60e51b815260040161038d9061103d565b6006546040516000916001600160a01b0316907f8be0079c531659141344cd1fd0a4f28419497f9722a3daafe3b4186f6b6457e0908390a3600680546001600160a01b0319169055565b6006546001600160a01b031633146106d45760405162461bcd60e51b815260040161038d9061103d565b6004805460ff19811660ff90911615179055565b6006546001600160a01b031633146107125760405162461bcd60e51b815260040161038d9061103d565b6127108111156107535760405162461bcd60e51b815260206004820152600c60248201526b0c6eae840e8dede40d0d2ced60a31b604482015260640161038d565b600255565b600654600160a01b900460ff161561076f57600080fd5b6000818152600560205260409020600481015467ffffffffffffffff166107a85760405162461bcd60e51b815260040161038d90611072565b80546001600160a01b03163381146107bf57600080fd5b6107c9838261099b565b505050565b6000546001600160a01b0316331461081c5760405162461bcd60e51b81526020600482015260116024820152701bdb9b1e481b999d0818dbdb9d1c9858dd607a1b604482015260640161038d565b6108268186610cd9565b60006040518060a00160405280836001600160a01b03168152602001868152602001856001600160a01b031681526020018481526020014267ffffffffffffffff1681525090506108778682610d18565b505050505050565b600081815260056020526040812060048101548291829167ffffffffffffffff166108bc5760405162461bcd60e51b815260040161038d90611072565b805460038201546004909201546001600160a01b039091169691955067ffffffffffffffff169350915050565b6006546001600160a01b031633146109135760405162461bcd60e51b815260040161038d9061103d565b61063381610dcd565b6006546000906001600160a01b031633146109495760405162461bcd60e51b815260040161038d9061103d565b600654600160a01b900460ff1661095f57600080fd5b6006805460ff60a01b191690556040517f7805862f689e2f13df9f062ff482ad3ad112aca9e0847911ed832e158c525b3390600090a150600190565b6109a482610e8e565b6109ae8183610c70565b6040518281527f2c56893f6f6026d19bd17b7d05c9f15c522de1ae2b1c3a825f91a73c799321f2906020015b60405180910390a15050565b6000828152600560205260408120600481015467ffffffffffffffff16610a3d5760405162461bcd60e51b815260206004820152600b60248201526a6e6f74206f6e2073616c6560a81b604482015260640161038d565b6003810154838114610a915760405162461bcd60e51b815260206004820152601860248201527f62696420646966666572656e742066726f6d2070726963650000000000000000604482015260640161038d565b81546001600160a01b0316610aa586610e8e565b8115610c2857600080610abf846000876001015411610eda565b90925090506000610ad083866110e1565b60028701549091506001600160a01b031615801590610aef5750600082115b8015610afd575060045460ff165b15610b9557600154600287015460405163a9059cbb60e01b81526001600160a01b0391821660048201526024810185905291169063a9059cbb90604401602060405180830381600087803b158015610b5457600080fd5b505af1158015610b68573d6000803e3d6000fd5b505050506040513d601f19601f82011682018060405250810190610b8c91906110a9565b610b9557600080fd5b60015460405163a9059cbb60e01b81526001600160a01b038681166004830152602482018490529091169063a9059cbb90604401602060405180830381600087803b158015610be357600080fd5b505af1158015610bf7573d6000803e3d6000fd5b505050506040513d601f19601f82011682018060405250810190610c1b91906110a9565b610c2457600080fd5b5050505b6040805187815260208101849052338183015290517f9f2881bde82d4b6e9c19bec262dbbdba7266ff214c4c822aa94035f21b263f339181900360600190a150949350505050565b6000546040516323b872dd60e01b81523060048201526001600160a01b03848116602483015260448201849052909116906323b872dd906064015b600060405180830381600087803b158015610cc557600080fd5b505af1158015610877573d6000803e3d6000fd5b6000546040516323b872dd60e01b81526001600160a01b03848116600483015230602483015260448201849052909116906323b872dd90606401610cab565b600082815260056020908152604091829020835181546001600160a01b03199081166001600160a01b0392831617835585840151600184015585850151600284018054909216921691909117905560608401516003820181905560808501516004909201805467ffffffffffffffff191667ffffffffffffffff909316929092179091558251858152918201527f35f25ba6c68be9e7f0a8a50f4d284bb035a4a21d856a0e7d3fd7945079c5ab3091016109da565b6001600160a01b038116610e325760405162461bcd60e51b815260206004820152602660248201527f4f776e61626c653a206e6577206f776e657220697320746865207a65726f206160448201526564647265737360d01b606482015260840161038d565b6006546040516001600160a01b038084169216907f8be0079c531659141344cd1fd0a4f28419497f9722a3daafe3b4186f6b6457e090600090a3600680546001600160a01b0319166001600160a01b0392909216919091179055565b600090815260056020526040812080546001600160a01b031990811682556001820183905560028201805490911690556003810191909155600401805467ffffffffffffffff19169055565b60008082610ee9576000610f04565b61271060035485610efa91906110f8565b610f049190611117565b905082610f2b5761271060025485610f1c91906110f8565b610f269190611117565b610f52565b612710600354600254610f3e91906110e1565b610f4890866110f8565b610f529190611117565b91509250929050565b600060208284031215610f6d57600080fd5b5035919050565b60008060408385031215610f8757600080fd5b50508035926020909101359150565b80356001600160a01b0381168114610fad57600080fd5b919050565b600080600080600060a08688031215610fca57600080fd5b8535945060208601359350610fe160408701610f96565b925060608601359150610ff660808701610f96565b90509295509295909350565b60006020828403121561101457600080fd5b61101d82610f96565b9392505050565b60006020828403121561103657600080fd5b5051919050565b6020808252818101527f4f776e61626c653a2063616c6c6572206973206e6f7420746865206f776e6572604082015260600190565b60208082526019908201527f546f6b656e49442069732061206d757374206f6e2073616c6500000000000000604082015260600190565b6000602082840312156110bb57600080fd5b8151801515811461101d57600080fd5b634e487b7160e01b600052601160045260246000fd5b6000828210156110f3576110f36110cb565b500390565b6000816000190483118215151615611112576111126110cb565b500290565b60008261113457634e487b7160e01b600052601260045260246000fd5b50049056fea2646970667358221220f9945ddfb21d2b346b68abb6d1e402b13b5880b010c3e2af74aafa58d7e155eb64736f6c63430008090033",
  "immutableReferences": {},
  "source": "/**\r\n *Submitted for verification at BscScan.com on 2021-07-07\r\n*/\r\n\r\n// SPDX-License-Identifier: MIT\r\npragma solidity ^0.8.2;\r\n\r\nimport \"./Marketplace.sol\";\r\nimport \"./Ownable.sol\";\r\n\r\n/// @title Clock auction modified for sale of Pieces\r\ncontract PieceMarketplace is Ownable, Marketplace {\r\n\r\n    constructor(address _nftAddr, uint256 _cut, address _mekaToken) Marketplace(_nftAddr, _cut, _mekaToken) {}\r\n\r\n    /// @dev Creates and begins a new sale.\r\n    /// @param _tokenId - ID of token to sale, sender must be owner.\r\n    /// @param _startingPrice - Price of item (in wei).\r\n    /// @param _seller - Seller, if not the message sender\r\n    function createSale(\r\n        uint256 _tokenId,\r\n        uint256 _appearenceId,\r\n        address _contributorAddress,\r\n        uint256 _startingPrice,\r\n        address _seller\r\n    )\r\n        override external\r\n    {\r\n        require(msg.sender == address(nonFungibleContract), \"only nft contract\");\r\n\r\n        _escrow(_seller, _tokenId);\r\n        Sale memory auction = Sale(\r\n            _seller,\r\n            _appearenceId,\r\n            _contributorAddress,\r\n            _startingPrice,\r\n            uint64(block.timestamp)\r\n        );\r\n        _addSale(_tokenId, auction);\r\n    }\r\n\r\n    function setShouldPayContributor() external onlyOwner{\r\n        shouldPayContributor = !shouldPayContributor;\r\n    }\r\n}",
  "sourcePath": "E:\\MekaMiners\\contracts\\PieceMarketplace.sol",
  "compiler": {
    "name": "solc",
    "version": "0.8.9+commit.e5eed63a.Emscripten.clang"
  },
  "schemaVersion": "3.4.3",
  "updatedAt": "2021-10-29T21:37:00.644Z",
  "networkType": "ethereum",
  "devdoc": {
    "kind": "dev",
    "methods": {
      "_pause()": {
        "details": "called by the owner to pause, triggers stopped state"
      },
      "_unpause()": {
        "details": "called by the owner to unpause, returns to normal state"
      },
      "bid(uint256,uint256)": {
        "details": "Bids on an open sale, completing the sale and transferring  ownership of the NFT if enough KAI is supplied.",
        "params": {
          "_tokenId": "- ID of token to bid on."
        }
      },
      "cancelSale(uint256)": {
        "details": "Cancels an sale that hasn't been won yet.  Returns the NFT to original owner.",
        "params": {
          "_tokenId": "- ID of token on sale"
        }
      },
      "cancelSaleWhenPaused(uint256)": {
        "details": "Cancels an sale when the contract is paused.  Only the owner may do this, and NFTs are returned to  the seller. This should only be used in emergencies.",
        "params": {
          "_tokenId": "- ID of the NFT on sale to cancel."
        }
      },
      "createSale(uint256,uint256,address,uint256,address)": {
        "details": "Creates and begins a new sale.",
        "params": {
          "_seller": "- Seller, if not the message sender",
          "_startingPrice": "- Price of item (in wei).",
          "_tokenId": "- ID of token to sale, sender must be owner."
        }
      },
      "getSale(uint256)": {
        "details": "Returns sale info for an NFT on sale.",
        "params": {
          "_tokenId": "- ID of NFT on sale."
        }
      },
      "isOwner()": {
        "details": "Returns true if the caller is the current owner."
      },
      "owner()": {
        "details": "Returns the address of the current owner."
      },
      "renounceOwnership()": {
        "details": "Leaves the contract without owner. It will not be possible to call `onlyOwner` functions anymore. Can only be called by the current owner. NOTE: Renouncing ownership will leave the contract without an owner, thereby removing any functionality that is only available to the owner."
      },
      "transferOwnership(address)": {
        "details": "Transfers ownership of the contract to a new account (`newOwner`). Can only be called by the current owner."
      }
    },
    "title": "Clock auction modified for sale of Pieces",
    "version": 1
  },
  "userdoc": {
    "kind": "user",
    "methods": {
      "cancelSale(uint256)": {
        "notice": "This is a state-modifying function that can  be called while the contract is paused."
      }
    },
    "version": 1
  }
}