{
  "contractName": "PieceCore",
  "abi": [
    {
      "inputs": [
        {
          "internalType": "address",
          "name": "mekaAddress",
          "type": "address"
        }
      ],
      "stateMutability": "nonpayable",
      "type": "constructor"
    },
    {
      "anonymous": false,
      "inputs": [
        {
          "indexed": true,
          "internalType": "address",
          "name": "owner",
          "type": "address"
        },
        {
          "indexed": true,
          "internalType": "address",
          "name": "approved",
          "type": "address"
        },
        {
          "indexed": true,
          "internalType": "uint256",
          "name": "tokenId",
          "type": "uint256"
        }
      ],
      "name": "Approval",
      "type": "event"
    },
    {
      "anonymous": false,
      "inputs": [
        {
          "indexed": true,
          "internalType": "address",
          "name": "owner",
          "type": "address"
        },
        {
          "indexed": true,
          "internalType": "address",
          "name": "operator",
          "type": "address"
        },
        {
          "indexed": false,
          "internalType": "bool",
          "name": "approved",
          "type": "bool"
        }
      ],
      "name": "ApprovalForAll",
      "type": "event"
    },
    {
      "anonymous": false,
      "inputs": [
        {
          "indexed": false,
          "internalType": "address",
          "name": "owner",
          "type": "address"
        },
        {
          "indexed": false,
          "internalType": "uint256",
          "name": "tokenId",
          "type": "uint256"
        },
        {
          "indexed": false,
          "internalType": "uint256",
          "name": "date",
          "type": "uint256"
        }
      ],
      "name": "Birth",
      "type": "event"
    },
    {
      "anonymous": false,
      "inputs": [
        {
          "indexed": false,
          "internalType": "address",
          "name": "from",
          "type": "address"
        },
        {
          "indexed": false,
          "internalType": "uint256[]",
          "name": "pieceId",
          "type": "uint256[]"
        },
        {
          "indexed": false,
          "internalType": "uint8",
          "name": "packageType",
          "type": "uint8"
        },
        {
          "indexed": false,
          "internalType": "uint256",
          "name": "date",
          "type": "uint256"
        }
      ],
      "name": "MintedPieceFromBundle",
      "type": "event"
    },
    {
      "anonymous": false,
      "inputs": [
        {
          "indexed": true,
          "internalType": "address",
          "name": "previousOwner",
          "type": "address"
        },
        {
          "indexed": true,
          "internalType": "address",
          "name": "newOwner",
          "type": "address"
        }
      ],
      "name": "OwnershipTransferred",
      "type": "event"
    },
    {
      "anonymous": false,
      "inputs": [],
      "name": "Pause",
      "type": "event"
    },
    {
      "anonymous": false,
      "inputs": [
        {
          "indexed": true,
          "internalType": "address",
          "name": "from",
          "type": "address"
        },
        {
          "indexed": true,
          "internalType": "address",
          "name": "to",
          "type": "address"
        },
        {
          "indexed": true,
          "internalType": "uint256",
          "name": "tokenId",
          "type": "uint256"
        }
      ],
      "name": "Transfer",
      "type": "event"
    },
    {
      "anonymous": false,
      "inputs": [],
      "name": "Unpause",
      "type": "event"
    },
    {
      "inputs": [],
      "name": "_marketplaceAddr",
      "outputs": [
        {
          "internalType": "address",
          "name": "",
          "type": "address"
        }
      ],
      "stateMutability": "view",
      "type": "function",
      "constant": true
    },
    {
      "inputs": [],
      "name": "_mekaAddress",
      "outputs": [
        {
          "internalType": "address",
          "name": "",
          "type": "address"
        }
      ],
      "stateMutability": "view",
      "type": "function",
      "constant": true
    },
    {
      "inputs": [],
      "name": "_mekaDeployerAddress",
      "outputs": [
        {
          "internalType": "address",
          "name": "",
          "type": "address"
        }
      ],
      "stateMutability": "view",
      "type": "function",
      "constant": true
    },
    {
      "inputs": [],
      "name": "_mekaDeployerEnabled",
      "outputs": [
        {
          "internalType": "bool",
          "name": "",
          "type": "bool"
        }
      ],
      "stateMutability": "view",
      "type": "function",
      "constant": true
    },
    {
      "inputs": [],
      "name": "_pause",
      "outputs": [
        {
          "internalType": "bool",
          "name": "",
          "type": "bool"
        }
      ],
      "stateMutability": "nonpayable",
      "type": "function"
    },
    {
      "inputs": [],
      "name": "_piecePackageAddress",
      "outputs": [
        {
          "internalType": "address",
          "name": "",
          "type": "address"
        }
      ],
      "stateMutability": "view",
      "type": "function",
      "constant": true
    },
    {
      "inputs": [],
      "name": "_unpause",
      "outputs": [
        {
          "internalType": "bool",
          "name": "",
          "type": "bool"
        }
      ],
      "stateMutability": "nonpayable",
      "type": "function"
    },
    {
      "inputs": [
        {
          "internalType": "address",
          "name": "to",
          "type": "address"
        },
        {
          "internalType": "uint256",
          "name": "tokenId",
          "type": "uint256"
        }
      ],
      "name": "approve",
      "outputs": [],
      "stateMutability": "nonpayable",
      "type": "function"
    },
    {
      "inputs": [
        {
          "internalType": "address",
          "name": "owner",
          "type": "address"
        }
      ],
      "name": "balanceOf",
      "outputs": [
        {
          "internalType": "uint256",
          "name": "",
          "type": "uint256"
        }
      ],
      "stateMutability": "view",
      "type": "function",
      "constant": true
    },
    {
      "inputs": [],
      "name": "baseURI",
      "outputs": [
        {
          "internalType": "string",
          "name": "",
          "type": "string"
        }
      ],
      "stateMutability": "view",
      "type": "function",
      "constant": true
    },
    {
      "inputs": [
        {
          "internalType": "uint256",
          "name": "tokenId",
          "type": "uint256"
        }
      ],
      "name": "getApproved",
      "outputs": [
        {
          "internalType": "address",
          "name": "",
          "type": "address"
        }
      ],
      "stateMutability": "view",
      "type": "function",
      "constant": true
    },
    {
      "inputs": [
        {
          "internalType": "address",
          "name": "owner",
          "type": "address"
        },
        {
          "internalType": "address",
          "name": "operator",
          "type": "address"
        }
      ],
      "name": "isApprovedForAll",
      "outputs": [
        {
          "internalType": "bool",
          "name": "",
          "type": "bool"
        }
      ],
      "stateMutability": "view",
      "type": "function",
      "constant": true
    },
    {
      "inputs": [],
      "name": "isBurn",
      "outputs": [
        {
          "internalType": "bool",
          "name": "",
          "type": "bool"
        }
      ],
      "stateMutability": "view",
      "type": "function",
      "constant": true
    },
    {
      "inputs": [],
      "name": "isOwner",
      "outputs": [
        {
          "internalType": "bool",
          "name": "",
          "type": "bool"
        }
      ],
      "stateMutability": "view",
      "type": "function",
      "constant": true
    },
    {
      "inputs": [],
      "name": "isPieceFactoryOpen",
      "outputs": [
        {
          "internalType": "bool",
          "name": "",
          "type": "bool"
        }
      ],
      "stateMutability": "view",
      "type": "function",
      "constant": true
    },
    {
      "inputs": [],
      "name": "name",
      "outputs": [
        {
          "internalType": "string",
          "name": "",
          "type": "string"
        }
      ],
      "stateMutability": "view",
      "type": "function",
      "constant": true
    },
    {
      "inputs": [],
      "name": "owner",
      "outputs": [
        {
          "internalType": "address",
          "name": "",
          "type": "address"
        }
      ],
      "stateMutability": "view",
      "type": "function",
      "constant": true
    },
    {
      "inputs": [
        {
          "internalType": "uint256",
          "name": "tokenId",
          "type": "uint256"
        }
      ],
      "name": "ownerOf",
      "outputs": [
        {
          "internalType": "address",
          "name": "",
          "type": "address"
        }
      ],
      "stateMutability": "view",
      "type": "function",
      "constant": true
    },
    {
      "inputs": [],
      "name": "paused",
      "outputs": [
        {
          "internalType": "bool",
          "name": "",
          "type": "bool"
        }
      ],
      "stateMutability": "view",
      "type": "function",
      "constant": true
    },
    {
      "inputs": [],
      "name": "renounceOwnership",
      "outputs": [],
      "stateMutability": "nonpayable",
      "type": "function"
    },
    {
      "inputs": [
        {
          "internalType": "address",
          "name": "from",
          "type": "address"
        },
        {
          "internalType": "address",
          "name": "to",
          "type": "address"
        },
        {
          "internalType": "uint256",
          "name": "tokenId",
          "type": "uint256"
        }
      ],
      "name": "safeTransferFrom",
      "outputs": [],
      "stateMutability": "nonpayable",
      "type": "function"
    },
    {
      "inputs": [
        {
          "internalType": "address",
          "name": "from",
          "type": "address"
        },
        {
          "internalType": "address",
          "name": "to",
          "type": "address"
        },
        {
          "internalType": "uint256",
          "name": "tokenId",
          "type": "uint256"
        },
        {
          "internalType": "bytes",
          "name": "_data",
          "type": "bytes"
        }
      ],
      "name": "safeTransferFrom",
      "outputs": [],
      "stateMutability": "nonpayable",
      "type": "function"
    },
    {
      "inputs": [
        {
          "internalType": "address",
          "name": "operator",
          "type": "address"
        },
        {
          "internalType": "bool",
          "name": "approved",
          "type": "bool"
        }
      ],
      "name": "setApprovalForAll",
      "outputs": [],
      "stateMutability": "nonpayable",
      "type": "function"
    },
    {
      "inputs": [
        {
          "internalType": "bytes4",
          "name": "interfaceId",
          "type": "bytes4"
        }
      ],
      "name": "supportsInterface",
      "outputs": [
        {
          "internalType": "bool",
          "name": "",
          "type": "bool"
        }
      ],
      "stateMutability": "view",
      "type": "function",
      "constant": true
    },
    {
      "inputs": [],
      "name": "symbol",
      "outputs": [
        {
          "internalType": "string",
          "name": "",
          "type": "string"
        }
      ],
      "stateMutability": "view",
      "type": "function",
      "constant": true
    },
    {
      "inputs": [
        {
          "internalType": "uint256",
          "name": "index",
          "type": "uint256"
        }
      ],
      "name": "tokenByIndex",
      "outputs": [
        {
          "internalType": "uint256",
          "name": "",
          "type": "uint256"
        }
      ],
      "stateMutability": "view",
      "type": "function",
      "constant": true
    },
    {
      "inputs": [
        {
          "internalType": "address",
          "name": "owner",
          "type": "address"
        }
      ],
      "name": "tokenOfOwner",
      "outputs": [
        {
          "internalType": "uint256[]",
          "name": "",
          "type": "uint256[]"
        }
      ],
      "stateMutability": "view",
      "type": "function",
      "constant": true
    },
    {
      "inputs": [
        {
          "internalType": "address",
          "name": "owner",
          "type": "address"
        },
        {
          "internalType": "uint256",
          "name": "index",
          "type": "uint256"
        }
      ],
      "name": "tokenOfOwnerByIndex",
      "outputs": [
        {
          "internalType": "uint256",
          "name": "",
          "type": "uint256"
        }
      ],
      "stateMutability": "view",
      "type": "function",
      "constant": true
    },
    {
      "inputs": [
        {
          "internalType": "uint256",
          "name": "tokenId",
          "type": "uint256"
        }
      ],
      "name": "tokenURI",
      "outputs": [
        {
          "internalType": "string",
          "name": "",
          "type": "string"
        }
      ],
      "stateMutability": "view",
      "type": "function",
      "constant": true
    },
    {
      "inputs": [],
      "name": "totalSupply",
      "outputs": [
        {
          "internalType": "uint256",
          "name": "",
          "type": "uint256"
        }
      ],
      "stateMutability": "view",
      "type": "function",
      "constant": true
    },
    {
      "inputs": [
        {
          "internalType": "address",
          "name": "newOwner",
          "type": "address"
        }
      ],
      "name": "transferOwnership",
      "outputs": [],
      "stateMutability": "nonpayable",
      "type": "function"
    },
    {
      "inputs": [
        {
          "internalType": "address",
          "name": "contributor",
          "type": "address"
        },
        {
          "internalType": "uint256",
          "name": "appearenceId",
          "type": "uint256"
        }
      ],
      "name": "setContributorPieceId",
      "outputs": [],
      "stateMutability": "nonpayable",
      "type": "function"
    },
    {
      "inputs": [
        {
          "internalType": "uint256[]",
          "name": "pieceIds",
          "type": "uint256[]"
        }
      ],
      "name": "setAvailablePieces",
      "outputs": [],
      "stateMutability": "nonpayable",
      "type": "function"
    },
    {
      "inputs": [
        {
          "internalType": "address",
          "name": "addr",
          "type": "address"
        }
      ],
      "name": "isBlacklisted",
      "outputs": [
        {
          "internalType": "bool",
          "name": "",
          "type": "bool"
        }
      ],
      "stateMutability": "view",
      "type": "function",
      "constant": true
    },
    {
      "inputs": [
        {
          "internalType": "address",
          "name": "wallet",
          "type": "address"
        },
        {
          "internalType": "bool",
          "name": "isBlackListed",
          "type": "bool"
        }
      ],
      "name": "setBlackList",
      "outputs": [],
      "stateMutability": "nonpayable",
      "type": "function"
    },
    {
      "inputs": [
        {
          "internalType": "uint256",
          "name": "_price",
          "type": "uint256"
        }
      ],
      "name": "setPiecePrice",
      "outputs": [],
      "stateMutability": "nonpayable",
      "type": "function"
    },
    {
      "inputs": [
        {
          "internalType": "address",
          "name": "_addr",
          "type": "address"
        }
      ],
      "name": "setTokenAddress",
      "outputs": [],
      "stateMutability": "nonpayable",
      "type": "function"
    },
    {
      "inputs": [
        {
          "internalType": "address",
          "name": "_address",
          "type": "address"
        }
      ],
      "name": "setPiecePackageAddress",
      "outputs": [],
      "stateMutability": "nonpayable",
      "type": "function"
    },
    {
      "inputs": [
        {
          "internalType": "address",
          "name": "_address",
          "type": "address"
        }
      ],
      "name": "setMarketplaceAddress",
      "outputs": [],
      "stateMutability": "nonpayable",
      "type": "function"
    },
    {
      "inputs": [
        {
          "internalType": "address",
          "name": "_mekaDeployAddr",
          "type": "address"
        }
      ],
      "name": "setMekaDeployerAddress",
      "outputs": [],
      "stateMutability": "nonpayable",
      "type": "function"
    },
    {
      "inputs": [],
      "name": "updateMekaDeployerEnabled",
      "outputs": [],
      "stateMutability": "nonpayable",
      "type": "function"
    },
    {
      "inputs": [],
      "name": "updateIsBurn",
      "outputs": [],
      "stateMutability": "nonpayable",
      "type": "function"
    },
    {
      "inputs": [],
      "name": "updatePieceFactory",
      "outputs": [],
      "stateMutability": "nonpayable",
      "type": "function"
    },
    {
      "inputs": [
        {
          "internalType": "uint256",
          "name": "tokenId",
          "type": "uint256"
        },
        {
          "internalType": "string",
          "name": "_tokenURI",
          "type": "string"
        }
      ],
      "name": "setTokenURI",
      "outputs": [],
      "stateMutability": "nonpayable",
      "type": "function"
    },
    {
      "inputs": [],
      "name": "withdrawBalance",
      "outputs": [],
      "stateMutability": "nonpayable",
      "type": "function"
    },
    {
      "inputs": [],
      "name": "withdrawBnb",
      "outputs": [],
      "stateMutability": "nonpayable",
      "type": "function"
    },
    {
      "inputs": [
        {
          "internalType": "address",
          "name": "_owner",
          "type": "address"
        },
        {
          "internalType": "uint256",
          "name": "_amount",
          "type": "uint256"
        },
        {
          "internalType": "string",
          "name": "_tokenURI",
          "type": "string"
        }
      ],
      "name": "createPiece",
      "outputs": [],
      "stateMutability": "nonpayable",
      "type": "function"
    },
    {
      "inputs": [
        {
          "internalType": "uint256",
          "name": "_tokenId",
          "type": "uint256"
        },
        {
          "internalType": "uint256",
          "name": "_startingPrice",
          "type": "uint256"
        }
      ],
      "name": "createSale",
      "outputs": [],
      "stateMutability": "nonpayable",
      "type": "function"
    },
    {
      "inputs": [
        {
          "internalType": "uint256",
          "name": "_tokenId",
          "type": "uint256"
        }
      ],
      "name": "burnPiece",
      "outputs": [],
      "stateMutability": "nonpayable",
      "type": "function"
    },
    {
      "inputs": [
        {
          "internalType": "address",
          "name": "_contributor",
          "type": "address"
        }
      ],
      "name": "getContributorPieces",
      "outputs": [
        {
          "internalType": "uint256[]",
          "name": "_contributorPieces",
          "type": "uint256[]"
        }
      ],
      "stateMutability": "view",
      "type": "function",
      "constant": true
    },
    {
      "inputs": [
        {
          "internalType": "uint256",
          "name": "_id",
          "type": "uint256"
        }
      ],
      "name": "getPiece",
      "outputs": [
        {
          "components": [
            {
              "internalType": "uint256",
              "name": "tokenId",
              "type": "uint256"
            },
            {
              "internalType": "uint256",
              "name": "pieceId",
              "type": "uint256"
            },
            {
              "internalType": "uint64",
              "name": "birthTime",
              "type": "uint64"
            }
          ],
          "internalType": "struct PieceCore.Piece",
          "name": "piece",
          "type": "tuple"
        }
      ],
      "stateMutability": "view",
      "type": "function",
      "constant": true
    },
    {
      "inputs": [],
      "name": "getBalance",
      "outputs": [
        {
          "internalType": "uint256",
          "name": "",
          "type": "uint256"
        }
      ],
      "stateMutability": "view",
      "type": "function",
      "constant": true
    },
    {
      "inputs": [],
      "name": "pause",
      "outputs": [],
      "stateMutability": "nonpayable",
      "type": "function"
    },
    {
      "inputs": [],
      "name": "unpause",
      "outputs": [],
      "stateMutability": "nonpayable",
      "type": "function"
    },
    {
      "inputs": [
        {
          "internalType": "address",
          "name": "_owner",
          "type": "address"
        },
        {
          "internalType": "uint8",
          "name": "packageType",
          "type": "uint8"
        },
        {
          "internalType": "uint8",
          "name": "pieceQuantity",
          "type": "uint8"
        }
      ],
      "name": "createPieceFromBundle",
      "outputs": [],
      "stateMutability": "nonpayable",
      "type": "function"
    },
    {
      "inputs": [
        {
          "internalType": "address",
          "name": "from",
          "type": "address"
        },
        {
          "internalType": "address",
          "name": "to",
          "type": "address"
        },
        {
          "internalType": "uint256",
          "name": "tokenId",
          "type": "uint256"
        }
      ],
      "name": "transferFrom",
      "outputs": [],
      "stateMutability": "nonpayable",
      "type": "function"
    }
  ],
  "bytecode": "0x6080604052600b805460ff60a01b191690556000600d556001601555674563918244f400006016553480156200003457600080fd5b5060405162003b5e38038062003b5e8339810160408190526200005791620002d4565b604080518082018252600a8152694d656b6120506965636560b01b602080830191909152825180840190935260098352684d656b61506965636560b81b9083015290620000ab6301ffc9a760e01b620001aa565b8151620000c09060079060208501906200022e565b508051620000d69060089060208401906200022e565b50620000e96380ac58cd60e01b620001aa565b620000fb635b5e139f60e01b620001aa565b6200010d63780e9d6360e01b620001aa565b5050600b80546001600160a01b0319163390811790915560405181906000907f8be0079c531659141344cd1fd0a4f28419497f9722a3daafe3b4186f6b6457e0908290a3506001600c55601a8054601980546001600160a01b0319166001600160a01b03949094169390931790925561ffff60a01b1990911661010160a01b17905560188054600160a01b60ff60a01b1990911617905562000343565b6001600160e01b03198082161415620002095760405162461bcd60e51b815260206004820152601c60248201527f4552433136353a20696e76616c696420696e7465726661636520696400000000604482015260640160405180910390fd5b6001600160e01b0319166000908152602081905260409020805460ff19166001179055565b8280546200023c9062000306565b90600052602060002090601f016020900481019282620002605760008555620002ab565b82601f106200027b57805160ff1916838001178555620002ab565b82800160010185558215620002ab579182015b82811115620002ab5782518255916020019190600101906200028e565b50620002b9929150620002bd565b5090565b5b80821115620002b95760008155600101620002be565b600060208284031215620002e757600080fd5b81516001600160a01b0381168114620002ff57600080fd5b9392505050565b600181811c908216806200031b57607f821691505b602082108114156200033d57634e487b7160e01b600052602260045260246000fd5b50919050565b61380b80620003536000396000f3fe608060405234801561001057600080fd5b50600436106103785760003560e01c80636b45c9f2116101d3578063b0bad40511610104578063c89e08f7116100a2578063f2fde38b1161007c578063f2fde38b14610792578063f4ac6b20146107a5578063fc8234cb146107ad578063fe575a87146107b557600080fd5b8063c89e08f71461072f578063e1f3a24414610743578063e985e9c51461075657600080fd5b8063bba7c950116100de578063bba7c950146106e3578063bbc1bd90146106f6578063c696cc2e14610709578063c87b56dd1461071c57600080fd5b8063b0bad405146106b5578063b47cc556146106bd578063b88d4fde146106d057600080fd5b80637b7959b8116101715780638da5cb5b1161014b5780638da5cb5b146106765780638f32d59b1461068757806395d89b411461069a578063a22cb465146106a257600080fd5b80637b7959b8146106475780637c3e614c1461065a5780638456cb591461066e57600080fd5b80636ff451eb116101ad5780636ff451eb1461061157806370a0823114610624578063715018a61461063757806379627c2b1461063f57600080fd5b80636b45c9f2146105b75780636c0360eb146105f65780636fed42d2146105fe57600080fd5b80632f705c29116102ad57806357a373a41161024b5780636019061b116102255780636019061b1461056b57806360c9f2221461057e5780636352211e1461059157806368092bd9146105a457600080fd5b806357a373a41461053c5780635c975abb1461054f5780635fd8c7101461056357600080fd5b80633f4ba83a116102875780633f4ba83a146104fb57806342842e0e1461050357806347049c84146105165780634f6ccce71461052957600080fd5b80632f705c29146104cd5780632f745c59146104e0578063320b2ad9146104f357600080fd5b8063162094c41161031a57806323b872dd116102f457806323b872dd1461048057806326a4e8d214610493578063294cdf0d146104a65780632d067d4c146104b957600080fd5b8063162094c41461045d57806318160ddd146104705780631da0603a1461047857600080fd5b8063095ea7b311610356578063095ea7b3146103ff5780630d6516d9146104145780630de7f7fa1461042757806312065fe01461044757600080fd5b806301ffc9a71461037d57806306fdde03146103bf578063081812fc146103d4575b600080fd5b6103aa61038b366004612edf565b6001600160e01b03191660009081526020819052604090205460ff1690565b60405190151581526020015b60405180910390f35b6103c76107c8565b6040516103b69190612f54565b6103e76103e2366004612f67565b61085a565b6040516001600160a01b0390911681526020016103b6565b61041261040d366004612f97565b6108e7565b005b601a546103e7906001600160a01b031681565b61043a610435366004612fc1565b6109fd565b6040516103b69190613017565b61044f610a27565b6040519081526020016103b6565b61041261046b3660046130d6565b610a99565b61044f610af3565b610412610aff565b61041261048e36600461311d565b610bd3565b6104126104a1366004612fc1565b610cfe565b61043a6104b4366004612fc1565b610d4a565b601a546103aa90600160a01b900460ff1681565b6104126104db366004612f67565b610e36565b61044f6104ee366004612f97565b610e65565b6103aa610e8e565b610412610f14565b61041261051136600461311d565b610f5f565b6019546103e7906001600160a01b031681565b61044f610537366004612f67565b610f7a565b61041261054a366004612f97565b610f90565b600b546103aa90600160a01b900460ff1681565b610412611050565b610412610579366004613159565b611114565b61041261058c366004612fc1565b611244565b6103e761059f366004612f67565b611290565b6104126105b2366004613189565b6112b8565b6105ca6105c5366004612f67565b61130d565b6040805182518152602080840151908201529181015167ffffffffffffffff16908201526060016103b6565b6103c76113a2565b61041261060c3660046131d1565b6113b1565b61041261061f366004613214565b61153d565b61044f610632366004612fc1565b611573565b6104126115ff565b610412611673565b610412610655366004612f67565b6116be565b601a546103aa90600160a81b900460ff1681565b61041261179f565b600b546001600160a01b03166103e7565b600b546001600160a01b031633146103aa565b6103c76117e8565b6104126106b0366004613189565b6117f7565b6104126118bc565b6104126106cb366004612fc1565b611907565b6104126106de366004613289565b611953565b6018546103e7906001600160a01b031681565b6017546103e7906001600160a01b031681565b610412610717366004612fc1565b61198b565b6103c761072a366004612f67565b6119d7565b6018546103aa90600160a01b900460ff1681565b610412610751366004613305565b611b48565b6103aa61076436600461335c565b6001600160a01b03918216600090815260066020908152604080832093909416825291909152205460ff1690565b6104126107a0366004612fc1565b611d29565b610412611d5c565b6103aa611da7565b6103aa6107c3366004612fc1565b611e26565b6060600780546107d79061338f565b80601f01602080910402602001604051908101604052809291908181526020018280546108039061338f565b80156108505780601f1061082557610100808354040283529160200191610850565b820191906000526020600020905b81548152906001019060200180831161083357829003601f168201915b5050505050905090565b600061086582611e76565b6108cb5760405162461bcd60e51b815260206004820152602c60248201527f4552433732313a20617070726f76656420717565727920666f72206e6f6e657860448201526b34b9ba32b73a103a37b5b2b760a11b60648201526084015b60405180910390fd5b506000908152600560205260409020546001600160a01b031690565b60006108f282611290565b9050806001600160a01b0316836001600160a01b031614156109605760405162461bcd60e51b815260206004820152602160248201527f4552433732313a20617070726f76616c20746f2063757272656e74206f776e656044820152603960f91b60648201526084016108c2565b336001600160a01b038216148061097c575061097c8133610764565b6109ee5760405162461bcd60e51b815260206004820152603860248201527f4552433732313a20617070726f76652063616c6c6572206973206e6f74206f7760448201527f6e6572206e6f7220617070726f76656420666f7220616c6c000000000000000060648201526084016108c2565b6109f88383611e83565b505050565b6001600160a01b0381166000908152600f60205260409020606090610a2190611ef1565b92915050565b6019546040516370a0823160e01b81523060048201526000916001600160a01b0316906370a0823190602401602060405180830381865afa158015610a70573d6000803e3d6000fd5b505050506040513d601f19601f82011682018060405250810190610a9491906133ca565b905090565b33610aa383611290565b6001600160a01b031614610ae55760405162461bcd60e51b81526020600482015260096024820152683737ba1037bbb732b960b91b60448201526064016108c2565b610aef8282611efe565b5050565b6000610a946002611f87565b600b546001600160a01b03163314610b295760405162461bcd60e51b81526004016108c2906133e3565b476000610b3e600b546001600160a01b031690565b6001600160a01b03168260405160006040518083038185875af1925050503d8060008114610b88576040519150601f19603f3d011682016040523d82523d6000602084013e610b8d565b606091505b5050905080610aef5760405162461bcd60e51b81526020600482015260126024820152712330b4b632b2103a379039b2b7321021373160711b60448201526064016108c2565b813b63ffffffff1615610c3557601a546001600160a01b03838116911614610c355760405162461bcd60e51b815260206004820152601560248201527418dbdb9d1c9858dd081b9bdd081858d8d95c1d1959605a1b60448201526064016108c2565b6001600160a01b03831660009081526010602052604090205460ff1615610c945760405162461bcd60e51b81526020600482015260136024820152721859191c995cdcc8189b1858dadb1a5cdd1959606a1b60448201526064016108c2565b6001600160a01b03821660009081526010602052604090205460ff1615610cf35760405162461bcd60e51b81526020600482015260136024820152721859191c995cdcc8189b1858dadb1a5cdd1959606a1b60448201526064016108c2565b6109f8838383611f92565b600b546001600160a01b03163314610d285760405162461bcd60e51b81526004016108c2906133e3565b601980546001600160a01b0319166001600160a01b0392909216919091179055565b6001600160a01b038116600090815260016020526040812060609190610d6f90611fc3565b67ffffffffffffffff811115610d8757610d8761302a565b604051908082528060200260200182016040528015610db0578160200160208202803683370190505b50905060005b6001600160a01b0384166000908152600160205260409020610dd790611fc3565b811015610e2f576001600160a01b0384166000908152600160205260409020610e009082611fcd565b828281518110610e1257610e12613418565b602090810291909101015280610e2781613444565b915050610db6565b5092915050565b600b546001600160a01b03163314610e605760405162461bcd60e51b81526004016108c2906133e3565b601655565b6001600160a01b0382166000908152600160205260408120610e879083611fcd565b9392505050565b600b546000906001600160a01b03163314610ebb5760405162461bcd60e51b81526004016108c2906133e3565b600b54600160a01b900460ff1615610ed257600080fd5b600b805460ff60a01b1916600160a01b1790556040517f6985a02210a168e66602d3235cb6db0e70f92b3ba4d376a33c0f3d9434bff62590600090a150600190565b600b54600160a01b900460ff16610f2a57600080fd5b600b546001600160a01b03163314610f545760405162461bcd60e51b81526004016108c2906133e3565b610f5c611da7565b50565b6109f883838360405180602001604052806000815250611953565b600080610f88600284611fd9565b509392505050565b600b546001600160a01b03163314610fba5760405162461bcd60e51b81526004016108c2906133e3565b610fc5601282611ff5565b156110215760405162461bcd60e51b815260206004820152602660248201527f617070656172656e6365496420616c726561647920686173206120636f6e747260448201526534b13aba37b960d11b60648201526084016108c2565b6001600160a01b0382166000908152600f602052604090206110439082612001565b506109f86012828461200d565b600b546001600160a01b0316331461107a5760405162461bcd60e51b81526004016108c2906133e3565b6019546001600160a01b031663a9059cbb61109d600b546001600160a01b031690565b6110a5610a27565b6040516001600160e01b031960e085901b1681526001600160a01b03909216600483015260248201526044016020604051808303816000875af11580156110f0573d6000803e3d6000fd5b505050506040513d601f19601f82011682018060405250810190610f5c919061345f565b600b54600160a01b900460ff161561112b57600080fd5b61113482611290565b6001600160a01b0316336001600160a01b0316146111805760405162461bcd60e51b81526020600482015260096024820152682737ba1037bbb732b960b91b60448201526064016108c2565b600061118b8361130d565b601a549091506111a4906001600160a01b031684611e83565b601a5460208201516001600160a01b039091169063be22facd9085906111cb60128261202b565b6040516001600160e01b031960e086901b168152600481019390935260248301919091526001600160a01b031660448201526064810185905233608482015260a401600060405180830381600087803b15801561122757600080fd5b505af115801561123b573d6000803e3d6000fd5b50505050505050565b600b546001600160a01b0316331461126e5760405162461bcd60e51b81526004016108c2906133e3565b601780546001600160a01b0319166001600160a01b0392909216919091179055565b6000610a218260405180606001604052806029815260200161378d6029913960029190612037565b600b546001600160a01b031633146112e25760405162461bcd60e51b81526004016108c2906133e3565b6001600160a01b03919091166000908152601060205260409020805460ff1916911515919091179055565b61133b60405180606001604052806000815260200160008152602001600067ffffffffffffffff1681525090565b600e61134860018461347c565b8154811061135857611358613418565b60009182526020918290206040805160608101825260039093029091018054835260018101549383019390935260029092015467ffffffffffffffff169181019190915292915050565b6060600a80546107d79061338f565b6018546001600160a01b031633146113f85760405162461bcd60e51b815260206004820152600a6024820152696e6f742062756e646c6560b01b60448201526064016108c2565b601a54600160a81b900460ff166114215760405162461bcd60e51b81526004016108c290613493565b60008160ff1667ffffffffffffffff81111561143f5761143f61302a565b604051908082528060200260200182016040528015611468578160200160208202803683370190505b50905060005b8260ff168110156114f95760155482828151811061148e5761148e613418565b6020026020010181815250506114d18560155460116114b1601180549050612044565b815481106114c1576114c1613418565b90600052602060002001546120b1565b601580549060006114e183613444565b919050555080806114f190613444565b91505061146e565b507f18b31159dcd3bbb6f7dbd61f63d83d62ebdd840f02b1335e4327e1a5c75f30708482854260405161152f94939291906134c1565b60405180910390a150505050565b600b546001600160a01b031633146115675760405162461bcd60e51b81526004016108c2906133e3565b6109f860118383612df5565b60006001600160a01b0382166115de5760405162461bcd60e51b815260206004820152602a60248201527f4552433732313a2062616c616e636520717565727920666f7220746865207a65604482015269726f206164647265737360b01b60648201526084016108c2565b6001600160a01b0382166000908152600160205260409020610a2190611fc3565b600b546001600160a01b031633146116295760405162461bcd60e51b81526004016108c2906133e3565b600b546040516000916001600160a01b0316907f8be0079c531659141344cd1fd0a4f28419497f9722a3daafe3b4186f6b6457e0908390a3600b80546001600160a01b0319169055565b600b546001600160a01b0316331461169d5760405162461bcd60e51b81526004016108c2906133e3565b601a805460ff60a81b198116600160a81b9182900460ff1615909102179055565b601a54600160a81b900460ff166116e75760405162461bcd60e51b81526004016108c290613493565b601a54600160a01b900460ff166117395760405162461bcd60e51b8152602060048201526016602482015275109d5c9b9a5b99c81a5cc81b9bdd08185b1b1bddd95960521b60448201526064016108c2565b61174281611290565b6001600160a01b0316326001600160a01b0316146117965760405162461bcd60e51b81526020600482015260116024820152702737ba103a37b5b2b724b21037bbb732b960791b60448201526064016108c2565b610f5c816122b0565b600b54600160a01b900460ff16156117b657600080fd5b600b546001600160a01b031633146117e05760405162461bcd60e51b81526004016108c2906133e3565b610f5c610e8e565b6060600880546107d79061338f565b6001600160a01b0382163314156118505760405162461bcd60e51b815260206004820152601960248201527f4552433732313a20617070726f766520746f2063616c6c65720000000000000060448201526064016108c2565b3360008181526006602090815260408083206001600160a01b03871680855290835292819020805460ff191686151590811790915590519081529192917f17307eab39ab6107e8899845ad3d59bd9653f200f220920489ca2b5937696c31910160405180910390a35050565b600b546001600160a01b031633146118e65760405162461bcd60e51b81526004016108c2906133e3565b601a805460ff60a01b198116600160a01b9182900460ff1615909102179055565b600b546001600160a01b031633146119315760405162461bcd60e51b81526004016108c2906133e3565b601a80546001600160a01b0319166001600160a01b0392909216919091179055565b61195d338361232d565b6119795760405162461bcd60e51b81526004016108c2906134fb565b61198584848484612416565b50505050565b600b546001600160a01b031633146119b55760405162461bcd60e51b81526004016108c2906133e3565b601880546001600160a01b0319166001600160a01b0392909216919091179055565b60606119e282611e76565b611a465760405162461bcd60e51b815260206004820152602f60248201527f4552433732314d657461646174613a2055524920717565727920666f72206e6f60448201526e3732bc34b9ba32b73a103a37b5b2b760891b60648201526084016108c2565b60008281526009602052604081208054611a5f9061338f565b80601f0160208091040260200160405190810160405280929190818152602001828054611a8b9061338f565b8015611ad85780601f10611aad57610100808354040283529160200191611ad8565b820191906000526020600020905b815481529060010190602001808311611abb57829003601f168201915b50505050509050600a8054611aec9061338f565b15159050611afa5792915050565b805115611b2c57600a81604051602001611b15929190613568565b604051602081830303815290604052915050919050565b600a611b3784612449565b604051602001611b15929190613568565b601854600160a01b900460ff1615611ba5576017546001600160a01b03163314611ba55760405162461bcd60e51b815260206004820152600e60248201526d6e6f74206d656b616465706c6f7960901b60448201526064016108c2565b601a54600160a81b900460ff16611bce5760405162461bcd60e51b81526004016108c290613493565b823b63ffffffff1615611c235760405162461bcd60e51b815260206004820152601b60248201527f6f776e65722063616e206e6f74206265206120636f6e7472616374000000000060448201526064016108c2565b601654821015611c665760405162461bcd60e51b815260206004820152600e60248201526d1253959053125108105353d5539560921b60448201526064016108c2565b6019546040516323b872dd60e01b81526001600160a01b03858116600483015230602483015260448201859052909116906323b872dd906064016020604051808303816000875af1158015611cbf573d6000803e3d6000fd5b505050506040513d601f19601f82011682018060405250810190611ce3919061345f565b611cec57600080fd5b611d038360155460116114b1601180549050612044565b611d0f60155482611efe565b60158054906000611d1f83613444565b9190505550505050565b600b546001600160a01b03163314611d535760405162461bcd60e51b81526004016108c2906133e3565b610f5c81612560565b600b546001600160a01b03163314611d865760405162461bcd60e51b81526004016108c2906133e3565b6018805460ff60a01b198116600160a01b9182900460ff1615909102179055565b600b546000906001600160a01b03163314611dd45760405162461bcd60e51b81526004016108c2906133e3565b600b54600160a01b900460ff16611dea57600080fd5b600b805460ff60a01b191690556040517f7805862f689e2f13df9f062ff482ad3ad112aca9e0847911ed832e158c525b3390600090a150600190565b600b546000906001600160a01b03163314611e535760405162461bcd60e51b81526004016108c2906133e3565b506001600160a01b03811660009081526010602052604090205460ff165b919050565b6000610a21600283611ff5565b600081815260056020526040902080546001600160a01b0319166001600160a01b0384169081179091558190611eb882611290565b6001600160a01b03167f8c5be1e5ebec7d5bd14f71427d1e84f3dd0314c0f7b2291e5b200ac8c7c3b92560405160405180910390a45050565b60606000610e8783612621565b611f0782611e76565b611f685760405162461bcd60e51b815260206004820152602c60248201527f4552433732314d657461646174613a2055524920736574206f66206e6f6e657860448201526b34b9ba32b73a103a37b5b2b760a11b60648201526084016108c2565b600082815260096020908152604090912082516109f892840190612e40565b6000610a218261267d565b611f9c338261232d565b611fb85760405162461bcd60e51b81526004016108c2906134fb565b6109f8838383612688565b6000610a21825490565b6000610e878383612802565b6000808080611fe8868661282c565b9097909650945050505050565b6000610e878383612857565b6000610e878383612876565b600061202384846001600160a01b0385166128c5565b949350505050565b6000610e8783836128e2565b6000612023848484612952565b600d80546000918261205583613444565b9091555050600d54604080514460208201526bffffffffffffffffffffffff193360601b1691810191909152605481019190915282906074016040516020818303038152906040528051906020012060001c610a219190613625565b6001600160a01b0383166121075760405162461bcd60e51b815260206004820181905260248201527f4552433732313a206d696e7420746f20746865207a65726f206164647265737360448201526064016108c2565b61211082611e76565b1561215d5760405162461bcd60e51b815260206004820152601c60248201527f4552433732313a20746f6b656e20616c7265616479206d696e7465640000000060448201526064016108c2565b6040805160608101825283815260208082018481524267ffffffffffffffff908116848601908152600e8054600181018255600091825286517fbb7b4a454dc3493923482f07822329ed19e8244eff582cc204f8554c3620c3fd60039092029182015593517fbb7b4a454dc3493923482f07822329ed19e8244eff582cc204f8554c3620c3fe85015590517fbb7b4a454dc3493923482f07822329ed19e8244eff582cc204f8554c3620c3ff909301805467ffffffffffffffff19169390921692909217905583519182019093529182529061223c9085908590612995565b604080516001600160a01b038616815260208101859052428183015290517f393ccba6479926a7c4a6471a3b4584229e2df48a1858c8caf57680927dced5ff9181900360600190a160405183906001600160a01b038616906000906000805160206137b6833981519152908290a450505050565b60006122bb82611290565b90506122c9816000846129c8565b6122d4600083611e83565b6001600160a01b03811660009081526001602052604090206122f690836129df565b506123026002836129eb565b5060405182906000906001600160a01b038416906000805160206137b6833981519152908390a45050565b600061233882611e76565b6123995760405162461bcd60e51b815260206004820152602c60248201527f4552433732313a206f70657261746f7220717565727920666f72206e6f6e657860448201526b34b9ba32b73a103a37b5b2b760a11b60648201526084016108c2565b60006123a483611290565b9050806001600160a01b0316846001600160a01b031614806123df5750836001600160a01b03166123d48461085a565b6001600160a01b0316145b8061202357506001600160a01b0380821660009081526006602090815260408083209388168352929052205460ff16949350505050565b612421848484612688565b61242d848484846129f7565b6119855760405162461bcd60e51b81526004016108c290613639565b60608161246d5750506040805180820190915260018152600360fc1b602082015290565b8160005b8115612497578061248181613444565b91506124909050600a8361368b565b9150612471565b60008167ffffffffffffffff8111156124b2576124b261302a565b6040519080825280601f01601f1916602001820160405280156124dc576020820181803683370190505b50905060006124ec60018461347c565b90508593505b831561255757612503600a85613625565b61250e90603061369f565b60f81b828261251c816136b7565b93508151811061252e5761252e613418565b60200101906001600160f81b031916908160001a905350612550600a8561368b565b93506124f2565b50949350505050565b6001600160a01b0381166125c55760405162461bcd60e51b815260206004820152602660248201527f4f776e61626c653a206e6577206f776e657220697320746865207a65726f206160448201526564647265737360d01b60648201526084016108c2565b600b546040516001600160a01b038084169216907f8be0079c531659141344cd1fd0a4f28419497f9722a3daafe3b4186f6b6457e090600090a3600b80546001600160a01b0319166001600160a01b0392909216919091179055565b60608160000180548060200260200160405190810160405280929190818152602001828054801561267157602002820191906000526020600020905b81548152602001906001019080831161265d575b50505050509050919050565b6000610a2182611fc3565b826001600160a01b031661269b82611290565b6001600160a01b0316146127035760405162461bcd60e51b815260206004820152602960248201527f4552433732313a207472616e73666572206f6620746f6b656e2074686174206960448201526839903737ba1037bbb760b91b60648201526084016108c2565b6001600160a01b0382166127655760405162461bcd60e51b8152602060048201526024808201527f4552433732313a207472616e7366657220746f20746865207a65726f206164646044820152637265737360e01b60648201526084016108c2565b6127708383836129c8565b61277b600082611e83565b6001600160a01b038316600090815260016020526040902061279d90826129df565b506001600160a01b03821660009081526001602052604090206127c09082612001565b506127cd6002828461200d565b5080826001600160a01b0316846001600160a01b03166000805160206137b683398151915260405160405180910390a4505050565b600082600001828154811061281957612819613418565b9060005260206000200154905092915050565b6000808061283a8585611fcd565b600081815260029690960160205260409095205494959350505050565b6000610e87838360008181526001830160205260408120541515610e87565b60008181526001830160205260408120546128bd57508154600181810184556000848152602080822090930184905584548482528286019093526040902091909155610a21565b506000610a21565b600082815260028401602052604081208290556120238484612001565b60008181526002830160205260408120548015158061290657506129068484612857565b610e875760405162461bcd60e51b815260206004820152601e60248201527f456e756d657261626c654d61703a206e6f6e6578697374656e74206b6579000060448201526064016108c2565b60008281526002840160205260408120548015158061297657506129768585612857565b83906125575760405162461bcd60e51b81526004016108c29190612f54565b61299f8383612ac8565b6129ac60008484846129f7565b6109f85760405162461bcd60e51b81526004016108c290613639565b600b54600160a01b900460ff16156109f857600080fd5b6000610e878383612bda565b6000610e878383612ccd565b60006001600160a01b0384163b612a1057506001612023565b6000612a91630a85bd0160e11b33888787604051602401612a3494939291906136ce565b604051602081830303815290604052906001600160e01b0319166020820180516001600160e01b03838183161783525050505060405180606001604052806032815260200161375b603291396001600160a01b0388169190612cea565b9050600081806020019051810190612aa9919061370b565b6001600160e01b031916630a85bd0160e11b1492505050949350505050565b6001600160a01b038216612b1e5760405162461bcd60e51b815260206004820181905260248201527f4552433732313a206d696e7420746f20746865207a65726f206164647265737360448201526064016108c2565b612b2781611e76565b15612b745760405162461bcd60e51b815260206004820152601c60248201527f4552433732313a20746f6b656e20616c7265616479206d696e7465640000000060448201526064016108c2565b612b80600083836129c8565b6001600160a01b0382166000908152600160205260409020612ba29082612001565b50612baf6002828461200d565b5060405181906001600160a01b038416906000906000805160206137b6833981519152908290a45050565b60008181526001830160205260408120548015612cc3576000612bfe60018361347c565b8554909150600090612c129060019061347c565b9050818114612c77576000866000018281548110612c3257612c32613418565b9060005260206000200154905080876000018481548110612c5557612c55613418565b6000918252602080832090910192909255918252600188019052604090208390555b8554869080612c8857612c88613728565b600190038181906000526020600020016000905590558560010160008681526020019081526020016000206000905560019350505050610a21565b6000915050610a21565b60008181526002830160205260408120819055610e8783836129df565b6060612023848460008585843b612d435760405162461bcd60e51b815260206004820152601d60248201527f416464726573733a2063616c6c20746f206e6f6e2d636f6e747261637400000060448201526064016108c2565b600080866001600160a01b03168587604051612d5f919061373e565b60006040518083038185875af1925050503d8060008114612d9c576040519150601f19603f3d011682016040523d82523d6000602084013e612da1565b606091505b5091509150612db1828286612dbc565b979650505050505050565b60608315612dcb575081610e87565b825115612ddb5782518084602001fd5b8160405162461bcd60e51b81526004016108c29190612f54565b828054828255906000526020600020908101928215612e30579160200282015b82811115612e30578235825591602001919060010190612e15565b50612e3c929150612eb4565b5090565b828054612e4c9061338f565b90600052602060002090601f016020900481019282612e6e5760008555612e30565b82601f10612e8757805160ff1916838001178555612e30565b82800160010185558215612e30579182015b82811115612e30578251825591602001919060010190612e99565b5b80821115612e3c5760008155600101612eb5565b6001600160e01b031981168114610f5c57600080fd5b600060208284031215612ef157600080fd5b8135610e8781612ec9565b60005b83811015612f17578181015183820152602001612eff565b838111156119855750506000910152565b60008151808452612f40816020860160208601612efc565b601f01601f19169290920160200192915050565b602081526000610e876020830184612f28565b600060208284031215612f7957600080fd5b5035919050565b80356001600160a01b0381168114611e7157600080fd5b60008060408385031215612faa57600080fd5b612fb383612f80565b946020939093013593505050565b600060208284031215612fd357600080fd5b610e8782612f80565b600081518084526020808501945080840160005b8381101561300c57815187529582019590820190600101612ff0565b509495945050505050565b602081526000610e876020830184612fdc565b634e487b7160e01b600052604160045260246000fd5b600067ffffffffffffffff8084111561305b5761305b61302a565b604051601f8501601f19908116603f011681019082821181831017156130835761308361302a565b8160405280935085815286868601111561309c57600080fd5b858560208301376000602087830101525050509392505050565b600082601f8301126130c757600080fd5b610e8783833560208501613040565b600080604083850312156130e957600080fd5b82359150602083013567ffffffffffffffff81111561310757600080fd5b613113858286016130b6565b9150509250929050565b60008060006060848603121561313257600080fd5b61313b84612f80565b925061314960208501612f80565b9150604084013590509250925092565b6000806040838503121561316c57600080fd5b50508035926020909101359150565b8015158114610f5c57600080fd5b6000806040838503121561319c57600080fd5b6131a583612f80565b915060208301356131b58161317b565b809150509250929050565b803560ff81168114611e7157600080fd5b6000806000606084860312156131e657600080fd5b6131ef84612f80565b92506131fd602085016131c0565b915061320b604085016131c0565b90509250925092565b6000806020838503121561322757600080fd5b823567ffffffffffffffff8082111561323f57600080fd5b818501915085601f83011261325357600080fd5b81358181111561326257600080fd5b8660208260051b850101111561327757600080fd5b60209290920196919550909350505050565b6000806000806080858703121561329f57600080fd5b6132a885612f80565b93506132b660208601612f80565b925060408501359150606085013567ffffffffffffffff8111156132d957600080fd5b8501601f810187136132ea57600080fd5b6132f987823560208401613040565b91505092959194509250565b60008060006060848603121561331a57600080fd5b61332384612f80565b925060208401359150604084013567ffffffffffffffff81111561334657600080fd5b613352868287016130b6565b9150509250925092565b6000806040838503121561336f57600080fd5b61337883612f80565b915061338660208401612f80565b90509250929050565b600181811c908216806133a357607f821691505b602082108114156133c457634e487b7160e01b600052602260045260246000fd5b50919050565b6000602082840312156133dc57600080fd5b5051919050565b6020808252818101527f4f776e61626c653a2063616c6c6572206973206e6f7420746865206f776e6572604082015260600190565b634e487b7160e01b600052603260045260246000fd5b634e487b7160e01b600052601160045260246000fd5b60006000198214156134585761345861342e565b5060010190565b60006020828403121561347157600080fd5b8151610e878161317b565b60008282101561348e5761348e61342e565b500390565b6020808252601490820152731c1a5958d948199858dd1bdc9e4818db1bdcd95960621b604082015260600190565b6001600160a01b03851681526080602082018190526000906134e590830186612fdc565b60ff949094166040830152506060015292915050565b60208082526031908201527f4552433732313a207472616e736665722063616c6c6572206973206e6f74206f6040820152701ddb995c881b9bdc88185c1c1c9bdd9959607a1b606082015260800190565b6000815161355e818560208601612efc565b9290920192915050565b600080845481600182811c91508083168061358457607f831692505b60208084108214156135a457634e487b7160e01b86526022600452602486fd5b8180156135b857600181146135c9576135f6565b60ff198616895284890196506135f6565b60008b81526020902060005b868110156135ee5781548b8201529085019083016135d5565b505084890196505b505050505050613606818561354c565b95945050505050565b634e487b7160e01b600052601260045260246000fd5b6000826136345761363461360f565b500690565b60208082526032908201527f4552433732313a207472616e7366657220746f206e6f6e20455243373231526560408201527131b2b4bb32b91034b6b83632b6b2b73a32b960711b606082015260800190565b60008261369a5761369a61360f565b500490565b600082198211156136b2576136b261342e565b500190565b6000816136c6576136c661342e565b506000190190565b6001600160a01b038581168252841660208201526040810183905260806060820181905260009061370190830184612f28565b9695505050505050565b60006020828403121561371d57600080fd5b8151610e8781612ec9565b634e487b7160e01b600052603160045260246000fd5b60008251613750818460208701612efc565b919091019291505056fe4552433732313a207472616e7366657220746f206e6f6e20455243373231526563656976657220696d706c656d656e7465724552433732313a206f776e657220717565727920666f72206e6f6e6578697374656e7420746f6b656eddf252ad1be2c89b69c2b068fc378daa952ba7f163c4a11628f55a4df523b3efa2646970667358221220194bbe2bfb2bb461a4e3fb20038831f0419e4cbcffdd28ba123a85579eee469364736f6c634300080a0033",
  "immutableReferences": {},
  "source": "// SPDX-License-Identifier: MIT\r\npragma solidity ^0.8.2;\r\n\r\nimport \"./IBEP20.sol\";\r\nimport \"./IMarketplace.sol\";\r\nimport \"./SafeMath.sol\";\r\nimport \"./Ownable.sol\";\r\nimport \"./AccessControl.sol\";\r\nimport \"./ERC721.sol\";\r\nimport \"./ERC721Pausable.sol\";\r\nimport \"./EnumerableSet.sol\";\r\nimport \"./EnumerableMap.sol\";\r\nimport \"./IPieceCore.sol\";\r\nimport \"./ReentrancyGuard.sol\";\r\n\r\ncontract PieceCore is Ownable, ERC721Pausable, IPieceCore, ReentrancyGuard {\r\n    using SafeMath for uint256;\r\n    using EnumerableSet for EnumerableSet.UintSet;\r\n    using EnumerableMap for EnumerableMap.UintToAddressMap;\r\n\r\n    uint256 randNonce = 0;\r\n\r\n    /*** DATA TYPES ***/\r\n    struct Piece {\r\n        uint256 tokenId; // current token id, theorically this will be the same as pieceId\r\n        uint256 pieceId;\r\n        uint64 birthTime; // The timestamp from the block when this Piece came into existence.\r\n    }\r\n\r\n    enum Rarity {\r\n        E,\r\n        D,\r\n        C,\r\n        B,\r\n        A,\r\n        S\r\n    }\r\n\r\n    enum PieceType {\r\n        Head,\r\n        LArm,\r\n        RArm,\r\n        Legs,\r\n        Chest\r\n    }\r\n\r\n    enum PackageType {\r\n        Default,\r\n        First,\r\n        Second,\r\n        Third,\r\n        Fourth\r\n    }\r\n\r\n    /*** STORAGE ***/\r\n    /// @dev An array containing the Piece struct for all pieces in existence. The ID\r\n    ///  of each Piece is actually an index into this array.\r\n    Piece[] pieces;\r\n\r\n    /* PACKAGE VARIABLES */\r\n    mapping(address => EnumerableSet.UintSet) private _contributorPieceId;\r\n    mapping(address => bool) private _banBlackList;\r\n    uint256[] private _availablePieces;\r\n    EnumerableMap.UintToAddressMap private _pieceIdContributor;\r\n\r\n    uint256 private nextPieceTokenId = 1;\r\n    uint256 private piecePrice = 5 * 10**18; // to review\r\n\r\n    /* SETTABLE VARIABLES */\r\n    address public _mekaDeployerAddress;\r\n    address public _piecePackageAddress;\r\n    bool public _mekaDeployerEnabled;\r\n    address public _mekaAddress;\r\n    address public _marketplaceAddr;\r\n    bool public isBurn;\r\n    bool public isPieceFactoryOpen;\r\n\r\n    event MintedPieceFromBundle(\r\n        address from,\r\n        uint256[] pieceId,\r\n        uint8 packageType,\r\n        uint256 date\r\n    );\r\n\r\n    constructor(address mekaAddress) ERC721(\"Meka Piece\", \"MekaPiece\") {\r\n        isBurn = true;\r\n        _mekaAddress = mekaAddress;\r\n        isPieceFactoryOpen = true;\r\n        _mekaDeployerEnabled = true;\r\n    }\r\n\r\n    function setContributorPieceId(address contributor, uint256 appearenceId)\r\n        external\r\n        onlyOwner\r\n    {\r\n        require(\r\n            !_pieceIdContributor.contains(appearenceId),\r\n            \"appearenceId already has a contributor\"\r\n        );\r\n\r\n        _contributorPieceId[contributor].add(appearenceId);\r\n        _pieceIdContributor.set(appearenceId, contributor);\r\n    }\r\n\r\n    function setAvailablePieces(uint256[] calldata pieceIds)\r\n        external\r\n        onlyOwner\r\n    {\r\n        _availablePieces = pieceIds;\r\n    }\r\n\r\n    function isBlacklisted(address addr)\r\n        external\r\n        view\r\n        onlyOwner\r\n        returns (bool)\r\n    {\r\n        return _banBlackList[addr];\r\n    }\r\n\r\n    function setBlackList(address wallet, bool isBlackListed)\r\n        external\r\n        onlyOwner\r\n    {\r\n        _banBlackList[wallet] = isBlackListed;\r\n    }\r\n\r\n    function setPiecePrice(uint256 _price) external onlyOwner {\r\n        piecePrice = _price;\r\n    }\r\n\r\n    function setTokenAddress(address _addr) external onlyOwner {\r\n        _mekaAddress = _addr;\r\n    }\r\n\r\n    function setPiecePackageAddress(address _address) external onlyOwner {\r\n        _piecePackageAddress = _address;\r\n    }\r\n\r\n    // @dev Sets the reference to the sale.\r\n    /// @param _address - Address of sale contract.\r\n    function setMarketplaceAddress(address _address) external onlyOwner {\r\n        _marketplaceAddr = _address;\r\n    }\r\n\r\n    function setMekaDeployerAddress(address _mekaDeployAddr)\r\n        external\r\n        onlyOwner\r\n    {\r\n        _mekaDeployerAddress = _mekaDeployAddr;\r\n    }\r\n\r\n    function updateMekaDeployerEnabled() external onlyOwner {\r\n        _mekaDeployerEnabled = !_mekaDeployerEnabled;\r\n    }\r\n\r\n    // @dev Sets the reference to the burn.\r\n    function updateIsBurn() external onlyOwner {\r\n        isBurn = !isBurn;\r\n    }\r\n\r\n    function updatePieceFactory() external onlyOwner {\r\n        isPieceFactoryOpen = !isPieceFactoryOpen;\r\n    }\r\n\r\n    function setTokenURI(uint256 tokenId, string memory _tokenURI) external {\r\n        require(ownerOf(tokenId) == msg.sender, \"not owner\");\r\n        _setTokenURI(tokenId, _tokenURI);\r\n    }\r\n\r\n    modifier onlyBundle() {\r\n        require(msg.sender == _piecePackageAddress, \"not bundle\");\r\n        _;\r\n    }\r\n\r\n    modifier pieceFactory() {\r\n        require(isPieceFactoryOpen, \"piece factory closed\");\r\n        _;\r\n    }\r\n\r\n    modifier onlyMekaDeploy() {\r\n        if (_mekaDeployerEnabled) {\r\n            require(msg.sender == _mekaDeployerAddress, \"not mekadeploy\");\r\n            _;\r\n        } else {\r\n            _;\r\n        }\r\n    }\r\n\r\n    function withdrawBalance() external onlyOwner {\r\n        IBEP20(_mekaAddress).transfer(owner(), getBalance());\r\n    }\r\n\r\n    function withdrawBnb() external onlyOwner {\r\n        uint256 amount = address(this).balance;\r\n\r\n        (bool success, ) = payable(owner()).call{value: amount}(\"\");\r\n        require(success, \"Failed to send Bnb\");\r\n    }\r\n\r\n    function _mintPiece(\r\n        address to,\r\n        uint256 tokenId,\r\n        uint256 pieceId\r\n    ) private {\r\n        require(to != address(0), \"ERC721: mint to the zero address\");\r\n        require(!_exists(tokenId), \"ERC721: token already minted\");\r\n\r\n        Piece memory _piece = Piece({\r\n            tokenId: tokenId,\r\n            pieceId: pieceId,\r\n            birthTime: uint64(block.timestamp)\r\n        });\r\n\r\n        pieces.push(_piece);\r\n\r\n        _safeMint(to, tokenId, \"\");\r\n\r\n        emit Birth(to, tokenId, block.timestamp);\r\n\r\n        emit Transfer(address(0), to, tokenId);\r\n    }\r\n\r\n    function createPiece(\r\n        address _owner,\r\n        uint256 _amount,\r\n        string memory _tokenURI\r\n    ) external onlyMekaDeploy pieceFactory {\r\n        require(!isContract(_owner), \"owner can not be a contract\");\r\n        require(_amount >= piecePrice, \"INVALID AMOUNT\");\r\n        require(\r\n            IBEP20(_mekaAddress).transferFrom(_owner, address(this), _amount)\r\n        );\r\n\r\n        _mintPiece(\r\n            _owner,\r\n            nextPieceTokenId,\r\n            _availablePieces[random(_availablePieces.length)]\r\n        );\r\n\r\n        _setTokenURI(nextPieceTokenId, _tokenURI);\r\n\r\n        nextPieceTokenId++;\r\n    }\r\n\r\n    function createSale(uint256 _tokenId, uint256 _startingPrice)\r\n        external\r\n        whenNotPaused\r\n    {\r\n        require(msg.sender == ownerOf(_tokenId), \"Not owner\");\r\n\r\n        Piece memory piece = getPiece(_tokenId);\r\n\r\n        _approve(_marketplaceAddr, _tokenId);\r\n        IMarketplace(_marketplaceAddr).createSale(\r\n            _tokenId,\r\n            piece.pieceId,\r\n            _pieceIdContributor.get(piece.pieceId),\r\n            _startingPrice,\r\n            msg.sender\r\n        );\r\n    }\r\n\r\n    function burnPiece(uint256 _tokenId) external pieceFactory {\r\n        require(isBurn, \"Burning is not allowed\");\r\n        require(tx.origin == ownerOf(_tokenId), \"Not tokenId owner\");\r\n\r\n        _burn(_tokenId); // burn token\r\n    }\r\n\r\n    /// @notice Returns all pieces made by a specific contributor.\r\n    /// @param _contributor contributor wallet.\r\n    function getContributorPieces(address _contributor)\r\n        external\r\n        view\r\n        returns (uint256[] memory _contributorPieces)\r\n    {\r\n        _contributorPieces = _contributorPieceId[_contributor].values();\r\n    }\r\n\r\n    /// @notice Returns all the relevant information about a specific Piece.\r\n    /// @param _id The ID of the Piece of interest.\r\n    function getPiece(uint256 _id) public view returns (Piece memory piece) {\r\n        piece = pieces[_id - 1];\r\n    }\r\n\r\n    function getBalance() public view returns (uint256) {\r\n        return IBEP20(_mekaAddress).balanceOf(address(this));\r\n    }\r\n\r\n    function pause() external whenNotPaused onlyOwner {\r\n        _pause();\r\n    }\r\n\r\n    function unpause() external whenPaused onlyOwner {\r\n        _unpause();\r\n    }\r\n\r\n    function createPieceFromBundle(\r\n        address _owner,\r\n        uint8 packageType,\r\n        uint8 pieceQuantity\r\n    ) external onlyBundle pieceFactory {\r\n        uint256[] memory allTokens = new uint256[](pieceQuantity);\r\n\r\n        for (uint256 index = 0; index < pieceQuantity; index++) {\r\n            allTokens[index] = nextPieceTokenId;\r\n            _mintPiece(\r\n                _owner,\r\n                nextPieceTokenId,\r\n                _availablePieces[random(_availablePieces.length)]\r\n            );\r\n            nextPieceTokenId++;\r\n        }\r\n\r\n        emit MintedPieceFromBundle(\r\n            _owner,\r\n            allTokens,\r\n            packageType,\r\n            block.timestamp\r\n        );\r\n    }\r\n\r\n    function transferFrom(\r\n        address from,\r\n        address to,\r\n        uint256 tokenId\r\n    ) public override {\r\n        if (isContract(to)) {\r\n            require(to == _marketplaceAddr, \"contract not accepted\");\r\n        }\r\n        require(!_banBlackList[from], \"address blacklisted\");\r\n        require(!_banBlackList[to], \"address blacklisted\");\r\n\r\n        super.transferFrom(from, to, tokenId);\r\n    }\r\n\r\n    /**\r\n     * @dev Identify an address is user address or contract address\r\n     */\r\n    function isContract(address _address) private view returns (bool) {\r\n        uint32 size;\r\n        assembly {\r\n            size := extcodesize(_address)\r\n        }\r\n        return (size > 0);\r\n    }\r\n\r\n    function random(uint256 _modulus) private returns (uint256) {\r\n        randNonce++;\r\n        return\r\n            uint256(\r\n                keccak256(\r\n                    abi.encodePacked(block.difficulty, msg.sender, randNonce)\r\n                )\r\n            ) % _modulus;\r\n    }\r\n}\r\n",
  "sourcePath": "E:\\MekaMiners\\contracts\\PieceCore.sol",
  "compiler": {
    "name": "solc",
    "version": "0.8.10+commit.fc410830.Emscripten.clang"
  },
  "schemaVersion": "3.4.3",
  "updatedAt": "2021-12-19T22:55:21.206Z",
  "networkType": "ethereum",
  "devdoc": {
    "kind": "dev",
    "methods": {
      "_pause()": {
        "details": "called by the owner to pause, triggers stopped state"
      },
      "_unpause()": {
        "details": "called by the owner to unpause, returns to normal state"
      },
      "approve(address,uint256)": {
        "details": "See {IERC721-approve}."
      },
      "balanceOf(address)": {
        "details": "See {IERC721-balanceOf}."
      },
      "baseURI()": {
        "details": "Returns the base URI set via {_setBaseURI}. This will be automatically added as a prefix in {tokenURI} to each token's URI, or to the token ID if no specific URI is set for that token ID."
      },
      "getApproved(uint256)": {
        "details": "See {IERC721-getApproved}."
      },
      "getContributorPieces(address)": {
        "params": {
          "_contributor": "contributor wallet."
        }
      },
      "getPiece(uint256)": {
        "params": {
          "_id": "The ID of the Piece of interest."
        }
      },
      "isApprovedForAll(address,address)": {
        "details": "See {IERC721-isApprovedForAll}."
      },
      "isOwner()": {
        "details": "Returns true if the caller is the current owner."
      },
      "name()": {
        "details": "See {IERC721Metadata-name}."
      },
      "owner()": {
        "details": "Returns the address of the current owner."
      },
      "ownerOf(uint256)": {
        "details": "See {IERC721-ownerOf}."
      },
      "renounceOwnership()": {
        "details": "Leaves the contract without owner. It will not be possible to call `onlyOwner` functions anymore. Can only be called by the current owner. NOTE: Renouncing ownership will leave the contract without an owner, thereby removing any functionality that is only available to the owner."
      },
      "safeTransferFrom(address,address,uint256)": {
        "details": "See {IERC721-safeTransferFrom}."
      },
      "safeTransferFrom(address,address,uint256,bytes)": {
        "details": "See {IERC721-safeTransferFrom}."
      },
      "setApprovalForAll(address,bool)": {
        "details": "See {IERC721-setApprovalForAll}."
      },
      "setMarketplaceAddress(address)": {
        "params": {
          "_address": "- Address of sale contract."
        }
      },
      "supportsInterface(bytes4)": {
        "details": "See {IERC165-supportsInterface}. Time complexity O(1), guaranteed to always use less than 30 000 gas."
      },
      "symbol()": {
        "details": "See {IERC721Metadata-symbol}."
      },
      "tokenByIndex(uint256)": {
        "details": "See {IERC721Enumerable-tokenByIndex}."
      },
      "tokenOfOwner(address)": {
        "details": "See {IERC721Enumerable-tokenOfOwner}."
      },
      "tokenOfOwnerByIndex(address,uint256)": {
        "details": "See {IERC721Enumerable-tokenOfOwnerByIndex}."
      },
      "tokenURI(uint256)": {
        "details": "See {IERC721Metadata-tokenURI}."
      },
      "totalSupply()": {
        "details": "See {IERC721Enumerable-totalSupply}."
      },
      "transferFrom(address,address,uint256)": {
        "details": "See {IERC721-transferFrom}."
      },
      "transferOwnership(address)": {
        "details": "Transfers ownership of the contract to a new account (`newOwner`). Can only be called by the current owner."
      }
    },
    "stateVariables": {
      "pieces": {
        "details": "An array containing the Piece struct for all pieces in existence. The ID  of each Piece is actually an index into this array."
      }
    },
    "version": 1
  },
  "userdoc": {
    "kind": "user",
    "methods": {
      "getContributorPieces(address)": {
        "notice": "Returns all pieces made by a specific contributor."
      },
      "getPiece(uint256)": {
        "notice": "Returns all the relevant information about a specific Piece."
      }
    },
    "version": 1
  }
}