{
  "contractName": "PiecePackage",
  "abi": [
    {
      "inputs": [],
      "stateMutability": "nonpayable",
      "type": "constructor"
    },
    {
      "anonymous": false,
      "inputs": [
        {
          "indexed": true,
          "internalType": "address",
          "name": "owner",
          "type": "address"
        },
        {
          "indexed": true,
          "internalType": "address",
          "name": "approved",
          "type": "address"
        },
        {
          "indexed": true,
          "internalType": "uint256",
          "name": "tokenId",
          "type": "uint256"
        }
      ],
      "name": "Approval",
      "type": "event"
    },
    {
      "anonymous": false,
      "inputs": [
        {
          "indexed": true,
          "internalType": "address",
          "name": "owner",
          "type": "address"
        },
        {
          "indexed": true,
          "internalType": "address",
          "name": "operator",
          "type": "address"
        },
        {
          "indexed": false,
          "internalType": "bool",
          "name": "approved",
          "type": "bool"
        }
      ],
      "name": "ApprovalForAll",
      "type": "event"
    },
    {
      "anonymous": false,
      "inputs": [
        {
          "indexed": false,
          "internalType": "address",
          "name": "owner",
          "type": "address"
        },
        {
          "indexed": false,
          "internalType": "uint256",
          "name": "tokenId",
          "type": "uint256"
        },
        {
          "indexed": false,
          "internalType": "uint256",
          "name": "date",
          "type": "uint256"
        }
      ],
      "name": "Birth",
      "type": "event"
    },
    {
      "anonymous": false,
      "inputs": [
        {
          "indexed": false,
          "internalType": "address",
          "name": "from",
          "type": "address"
        },
        {
          "indexed": false,
          "internalType": "uint256[]",
          "name": "pieceId",
          "type": "uint256[]"
        },
        {
          "indexed": false,
          "internalType": "uint256",
          "name": "date",
          "type": "uint256"
        }
      ],
      "name": "MintedPieceFromBundle",
      "type": "event"
    },
    {
      "anonymous": false,
      "inputs": [
        {
          "indexed": true,
          "internalType": "address",
          "name": "previousOwner",
          "type": "address"
        },
        {
          "indexed": true,
          "internalType": "address",
          "name": "newOwner",
          "type": "address"
        }
      ],
      "name": "OwnershipTransferred",
      "type": "event"
    },
    {
      "anonymous": false,
      "inputs": [
        {
          "indexed": false,
          "internalType": "address",
          "name": "to",
          "type": "address"
        },
        {
          "indexed": false,
          "internalType": "uint256",
          "name": "packId",
          "type": "uint256"
        },
        {
          "indexed": false,
          "internalType": "uint8",
          "name": "packageType",
          "type": "uint8"
        },
        {
          "indexed": false,
          "internalType": "uint256",
          "name": "date",
          "type": "uint256"
        },
        {
          "indexed": false,
          "internalType": "bool",
          "name": "isPresale",
          "type": "bool"
        }
      ],
      "name": "PackageCreated",
      "type": "event"
    },
    {
      "anonymous": false,
      "inputs": [],
      "name": "Pause",
      "type": "event"
    },
    {
      "anonymous": false,
      "inputs": [
        {
          "indexed": true,
          "internalType": "address",
          "name": "from",
          "type": "address"
        },
        {
          "indexed": true,
          "internalType": "address",
          "name": "to",
          "type": "address"
        },
        {
          "indexed": true,
          "internalType": "uint256",
          "name": "tokenId",
          "type": "uint256"
        }
      ],
      "name": "Transfer",
      "type": "event"
    },
    {
      "anonymous": false,
      "inputs": [
        {
          "indexed": false,
          "internalType": "address",
          "name": "from",
          "type": "address"
        },
        {
          "indexed": false,
          "internalType": "uint256",
          "name": "packId",
          "type": "uint256"
        },
        {
          "indexed": false,
          "internalType": "uint8",
          "name": "packageType",
          "type": "uint8"
        },
        {
          "indexed": false,
          "internalType": "uint256",
          "name": "date",
          "type": "uint256"
        }
      ],
      "name": "Unpacked",
      "type": "event"
    },
    {
      "anonymous": false,
      "inputs": [],
      "name": "Unpause",
      "type": "event"
    },
    {
      "inputs": [],
      "name": "_mekaAddress",
      "outputs": [
        {
          "internalType": "address",
          "name": "",
          "type": "address"
        }
      ],
      "stateMutability": "view",
      "type": "function",
      "constant": true
    },
    {
      "inputs": [],
      "name": "_pause",
      "outputs": [
        {
          "internalType": "bool",
          "name": "",
          "type": "bool"
        }
      ],
      "stateMutability": "nonpayable",
      "type": "function"
    },
    {
      "inputs": [],
      "name": "_pieceAddress",
      "outputs": [
        {
          "internalType": "address",
          "name": "",
          "type": "address"
        }
      ],
      "stateMutability": "view",
      "type": "function",
      "constant": true
    },
    {
      "inputs": [],
      "name": "_unpause",
      "outputs": [
        {
          "internalType": "bool",
          "name": "",
          "type": "bool"
        }
      ],
      "stateMutability": "nonpayable",
      "type": "function"
    },
    {
      "inputs": [
        {
          "internalType": "address",
          "name": "to",
          "type": "address"
        },
        {
          "internalType": "uint256",
          "name": "tokenId",
          "type": "uint256"
        }
      ],
      "name": "approve",
      "outputs": [],
      "stateMutability": "nonpayable",
      "type": "function"
    },
    {
      "inputs": [
        {
          "internalType": "address",
          "name": "owner",
          "type": "address"
        }
      ],
      "name": "balanceOf",
      "outputs": [
        {
          "internalType": "uint256",
          "name": "",
          "type": "uint256"
        }
      ],
      "stateMutability": "view",
      "type": "function",
      "constant": true
    },
    {
      "inputs": [],
      "name": "baseURI",
      "outputs": [
        {
          "internalType": "string",
          "name": "",
          "type": "string"
        }
      ],
      "stateMutability": "view",
      "type": "function",
      "constant": true
    },
    {
      "inputs": [],
      "name": "canUnpack",
      "outputs": [
        {
          "internalType": "bool",
          "name": "",
          "type": "bool"
        }
      ],
      "stateMutability": "view",
      "type": "function",
      "constant": true
    },
    {
      "inputs": [
        {
          "internalType": "uint256",
          "name": "tokenId",
          "type": "uint256"
        }
      ],
      "name": "getApproved",
      "outputs": [
        {
          "internalType": "address",
          "name": "",
          "type": "address"
        }
      ],
      "stateMutability": "view",
      "type": "function",
      "constant": true
    },
    {
      "inputs": [
        {
          "internalType": "address",
          "name": "owner",
          "type": "address"
        },
        {
          "internalType": "address",
          "name": "operator",
          "type": "address"
        }
      ],
      "name": "isApprovedForAll",
      "outputs": [
        {
          "internalType": "bool",
          "name": "",
          "type": "bool"
        }
      ],
      "stateMutability": "view",
      "type": "function",
      "constant": true
    },
    {
      "inputs": [],
      "name": "isOwner",
      "outputs": [
        {
          "internalType": "bool",
          "name": "",
          "type": "bool"
        }
      ],
      "stateMutability": "view",
      "type": "function",
      "constant": true
    },
    {
      "inputs": [],
      "name": "isPackageAvailable",
      "outputs": [
        {
          "internalType": "bool",
          "name": "",
          "type": "bool"
        }
      ],
      "stateMutability": "view",
      "type": "function",
      "constant": true
    },
    {
      "inputs": [],
      "name": "name",
      "outputs": [
        {
          "internalType": "string",
          "name": "",
          "type": "string"
        }
      ],
      "stateMutability": "view",
      "type": "function",
      "constant": true
    },
    {
      "inputs": [],
      "name": "owner",
      "outputs": [
        {
          "internalType": "address",
          "name": "",
          "type": "address"
        }
      ],
      "stateMutability": "view",
      "type": "function",
      "constant": true
    },
    {
      "inputs": [
        {
          "internalType": "uint256",
          "name": "tokenId",
          "type": "uint256"
        }
      ],
      "name": "ownerOf",
      "outputs": [
        {
          "internalType": "address",
          "name": "",
          "type": "address"
        }
      ],
      "stateMutability": "view",
      "type": "function",
      "constant": true
    },
    {
      "inputs": [],
      "name": "paused",
      "outputs": [
        {
          "internalType": "bool",
          "name": "",
          "type": "bool"
        }
      ],
      "stateMutability": "view",
      "type": "function",
      "constant": true
    },
    {
      "inputs": [],
      "name": "renounceOwnership",
      "outputs": [],
      "stateMutability": "nonpayable",
      "type": "function"
    },
    {
      "inputs": [
        {
          "internalType": "address",
          "name": "from",
          "type": "address"
        },
        {
          "internalType": "address",
          "name": "to",
          "type": "address"
        },
        {
          "internalType": "uint256",
          "name": "tokenId",
          "type": "uint256"
        }
      ],
      "name": "safeTransferFrom",
      "outputs": [],
      "stateMutability": "nonpayable",
      "type": "function"
    },
    {
      "inputs": [
        {
          "internalType": "address",
          "name": "from",
          "type": "address"
        },
        {
          "internalType": "address",
          "name": "to",
          "type": "address"
        },
        {
          "internalType": "uint256",
          "name": "tokenId",
          "type": "uint256"
        },
        {
          "internalType": "bytes",
          "name": "_data",
          "type": "bytes"
        }
      ],
      "name": "safeTransferFrom",
      "outputs": [],
      "stateMutability": "nonpayable",
      "type": "function"
    },
    {
      "inputs": [
        {
          "internalType": "address",
          "name": "operator",
          "type": "address"
        },
        {
          "internalType": "bool",
          "name": "approved",
          "type": "bool"
        }
      ],
      "name": "setApprovalForAll",
      "outputs": [],
      "stateMutability": "nonpayable",
      "type": "function"
    },
    {
      "inputs": [
        {
          "internalType": "bytes4",
          "name": "interfaceId",
          "type": "bytes4"
        }
      ],
      "name": "supportsInterface",
      "outputs": [
        {
          "internalType": "bool",
          "name": "",
          "type": "bool"
        }
      ],
      "stateMutability": "view",
      "type": "function",
      "constant": true
    },
    {
      "inputs": [],
      "name": "symbol",
      "outputs": [
        {
          "internalType": "string",
          "name": "",
          "type": "string"
        }
      ],
      "stateMutability": "view",
      "type": "function",
      "constant": true
    },
    {
      "inputs": [
        {
          "internalType": "uint256",
          "name": "index",
          "type": "uint256"
        }
      ],
      "name": "tokenByIndex",
      "outputs": [
        {
          "internalType": "uint256",
          "name": "",
          "type": "uint256"
        }
      ],
      "stateMutability": "view",
      "type": "function",
      "constant": true
    },
    {
      "inputs": [
        {
          "internalType": "address",
          "name": "owner",
          "type": "address"
        }
      ],
      "name": "tokenOfOwner",
      "outputs": [
        {
          "internalType": "uint256[]",
          "name": "",
          "type": "uint256[]"
        }
      ],
      "stateMutability": "view",
      "type": "function",
      "constant": true
    },
    {
      "inputs": [
        {
          "internalType": "address",
          "name": "owner",
          "type": "address"
        },
        {
          "internalType": "uint256",
          "name": "index",
          "type": "uint256"
        }
      ],
      "name": "tokenOfOwnerByIndex",
      "outputs": [
        {
          "internalType": "uint256",
          "name": "",
          "type": "uint256"
        }
      ],
      "stateMutability": "view",
      "type": "function",
      "constant": true
    },
    {
      "inputs": [
        {
          "internalType": "uint256",
          "name": "tokenId",
          "type": "uint256"
        }
      ],
      "name": "tokenURI",
      "outputs": [
        {
          "internalType": "string",
          "name": "",
          "type": "string"
        }
      ],
      "stateMutability": "view",
      "type": "function",
      "constant": true
    },
    {
      "inputs": [],
      "name": "totalSupply",
      "outputs": [
        {
          "internalType": "uint256",
          "name": "",
          "type": "uint256"
        }
      ],
      "stateMutability": "view",
      "type": "function",
      "constant": true
    },
    {
      "inputs": [
        {
          "internalType": "address",
          "name": "newOwner",
          "type": "address"
        }
      ],
      "name": "transferOwnership",
      "outputs": [],
      "stateMutability": "nonpayable",
      "type": "function"
    },
    {
      "inputs": [
        {
          "internalType": "uint32",
          "name": "quantity",
          "type": "uint32"
        }
      ],
      "name": "setPackageLimit",
      "outputs": [],
      "stateMutability": "nonpayable",
      "type": "function"
    },
    {
      "inputs": [
        {
          "internalType": "uint32",
          "name": "quantity",
          "type": "uint32"
        }
      ],
      "name": "setFirstPackageLimit",
      "outputs": [],
      "stateMutability": "nonpayable",
      "type": "function"
    },
    {
      "inputs": [
        {
          "internalType": "uint32",
          "name": "quantity",
          "type": "uint32"
        }
      ],
      "name": "setSecondPackageLimit",
      "outputs": [],
      "stateMutability": "nonpayable",
      "type": "function"
    },
    {
      "inputs": [
        {
          "internalType": "uint32",
          "name": "quantity",
          "type": "uint32"
        }
      ],
      "name": "setThirdPackageLimit",
      "outputs": [],
      "stateMutability": "nonpayable",
      "type": "function"
    },
    {
      "inputs": [
        {
          "internalType": "enum PiecePackage.PackageType",
          "name": "_packageType",
          "type": "uint8"
        },
        {
          "internalType": "uint8",
          "name": "quantity",
          "type": "uint8"
        }
      ],
      "name": "setPackageTypePieces",
      "outputs": [],
      "stateMutability": "nonpayable",
      "type": "function"
    },
    {
      "inputs": [
        {
          "internalType": "enum PiecePackage.PackageType",
          "name": "_packageType",
          "type": "uint8"
        },
        {
          "internalType": "uint256",
          "name": "amount",
          "type": "uint256"
        }
      ],
      "name": "setPackageTypePrice",
      "outputs": [],
      "stateMutability": "nonpayable",
      "type": "function"
    },
    {
      "inputs": [
        {
          "internalType": "uint256",
          "name": "_price",
          "type": "uint256"
        }
      ],
      "name": "setPiecePackagePrice",
      "outputs": [],
      "stateMutability": "nonpayable",
      "type": "function"
    },
    {
      "inputs": [
        {
          "internalType": "address",
          "name": "_addr",
          "type": "address"
        }
      ],
      "name": "setTokenAddress",
      "outputs": [],
      "stateMutability": "nonpayable",
      "type": "function"
    },
    {
      "inputs": [
        {
          "internalType": "address",
          "name": "_addr",
          "type": "address"
        }
      ],
      "name": "setPieceAddress",
      "outputs": [],
      "stateMutability": "nonpayable",
      "type": "function"
    },
    {
      "inputs": [],
      "name": "updateCanUnpack",
      "outputs": [],
      "stateMutability": "nonpayable",
      "type": "function"
    },
    {
      "inputs": [],
      "name": "updatePackageAvailable",
      "outputs": [],
      "stateMutability": "nonpayable",
      "type": "function"
    },
    {
      "inputs": [],
      "name": "withdrawBalance",
      "outputs": [],
      "stateMutability": "nonpayable",
      "type": "function"
    },
    {
      "inputs": [],
      "name": "withdrawBnb",
      "outputs": [],
      "stateMutability": "nonpayable",
      "type": "function"
    },
    {
      "inputs": [],
      "name": "getBalance",
      "outputs": [
        {
          "internalType": "uint256",
          "name": "",
          "type": "uint256"
        }
      ],
      "stateMutability": "view",
      "type": "function",
      "constant": true
    },
    {
      "inputs": [],
      "name": "getBnbBalance",
      "outputs": [
        {
          "internalType": "uint256",
          "name": "",
          "type": "uint256"
        }
      ],
      "stateMutability": "view",
      "type": "function",
      "constant": true
    },
    {
      "inputs": [],
      "name": "pause",
      "outputs": [],
      "stateMutability": "nonpayable",
      "type": "function"
    },
    {
      "inputs": [],
      "name": "unpause",
      "outputs": [],
      "stateMutability": "nonpayable",
      "type": "function"
    },
    {
      "inputs": [
        {
          "internalType": "enum PiecePackage.PackageType",
          "name": "_packageType",
          "type": "uint8"
        },
        {
          "internalType": "bool",
          "name": "_isPresale",
          "type": "bool"
        }
      ],
      "name": "createPackage",
      "outputs": [],
      "stateMutability": "payable",
      "type": "function",
      "payable": true
    },
    {
      "inputs": [
        {
          "internalType": "address",
          "name": "_owner",
          "type": "address"
        },
        {
          "internalType": "enum PiecePackage.PackageType",
          "name": "_packageType",
          "type": "uint8"
        },
        {
          "internalType": "bool",
          "name": "_isPresale",
          "type": "bool"
        }
      ],
      "name": "createPackageExtra",
      "outputs": [],
      "stateMutability": "nonpayable",
      "type": "function"
    },
    {
      "inputs": [
        {
          "internalType": "uint256",
          "name": "_amount",
          "type": "uint256"
        },
        {
          "internalType": "uint256",
          "name": "_tokenId",
          "type": "uint256"
        }
      ],
      "name": "openPackage",
      "outputs": [],
      "stateMutability": "nonpayable",
      "type": "function"
    },
    {
      "inputs": [],
      "name": "getPackagesCount",
      "outputs": [
        {
          "internalType": "uint32",
          "name": "_firstPackageCount",
          "type": "uint32"
        },
        {
          "internalType": "uint32",
          "name": "_secondPackageCount",
          "type": "uint32"
        },
        {
          "internalType": "uint32",
          "name": "_thirdPackageCount",
          "type": "uint32"
        }
      ],
      "stateMutability": "view",
      "type": "function",
      "constant": true
    },
    {
      "inputs": [
        {
          "internalType": "uint256",
          "name": "_id",
          "type": "uint256"
        }
      ],
      "name": "getPackage",
      "outputs": [
        {
          "components": [
            {
              "internalType": "address",
              "name": "owner",
              "type": "address"
            },
            {
              "internalType": "uint256",
              "name": "packageId",
              "type": "uint256"
            },
            {
              "internalType": "uint8",
              "name": "quantity",
              "type": "uint8"
            },
            {
              "internalType": "enum PiecePackage.PackageType",
              "name": "packageType",
              "type": "uint8"
            },
            {
              "internalType": "uint64",
              "name": "birthTime",
              "type": "uint64"
            }
          ],
          "internalType": "struct PiecePackage.Package",
          "name": "package",
          "type": "tuple"
        }
      ],
      "stateMutability": "view",
      "type": "function",
      "constant": true
    },
    {
      "inputs": [
        {
          "internalType": "address",
          "name": "_from",
          "type": "address"
        },
        {
          "internalType": "address",
          "name": "_receiver",
          "type": "address"
        },
        {
          "internalType": "uint256",
          "name": "_tokenId",
          "type": "uint256"
        }
      ],
      "name": "transferFrom",
      "outputs": [],
      "stateMutability": "nonpayable",
      "type": "function"
    }
  ],
  "bytecode": "0x6080604052600b805460ff60a01b19169055600560125560138054600160801b600160e01b031916784b000000af00000154000000000000000000000000000000001790556702c68af0bb1400006014556706f05b59d3b20000601555670c7d713b49da00006016556001601755674563918244f400006018553480156200008657600080fd5b50604080518082018252600d81526c4d656b61626f7420506965636560981b6020808301919091528251808401909352600c83526b4d656b615069656365506b6760a01b9083015290620000e16301ffc9a760e01b62000203565b8151620000f6906007906020850190620003b9565b5080516200010c906008906020840190620003b9565b506200011f6380ac58cd60e01b62000203565b62000131635b5e139f60e01b62000203565b6200014363780e9d6360e01b62000203565b5050600b80546001600160a01b0319163390811790915560405181906000907f8be0079c531659141344cd1fd0a4f28419497f9722a3daafe3b4186f6b6457e0908290a3506001600c8190556019805461ffff19169055601454620001a9919062000288565b620001be60026015546200028860201b60201c565b620001d360036016546200028860201b60201c565b620001e16001600262000316565b620001ef6002600462000316565b620001fd6003600662000316565b620004b2565b6001600160e01b03198082161415620002635760405162461bcd60e51b815260206004820152601c60248201527f4552433136353a20696e76616c696420696e746572666163652069640000000060448201526064015b60405180910390fd5b6001600160e01b0319166000908152602081905260409020805460ff19166001179055565b600b546001600160a01b03163314620002d35760405162461bcd60e51b8152602060048201819052602482015260008051602062003e6683398151915260448201526064016200025a565b8060106000846003811115620002ed57620002ed6200045f565b60038111156200030157620003016200045f565b81526020810191909152604001600020555050565b600b546001600160a01b03163314620003615760405162461bcd60e51b8152602060048201819052602482015260008051602062003e6683398151915260448201526064016200025a565b80600f60008460038111156200037b576200037b6200045f565b60038111156200038f576200038f6200045f565b815260200190815260200160002060006101000a81548160ff021916908360ff1602179055505050565b828054620003c79062000475565b90600052602060002090601f016020900481019282620003eb576000855562000436565b82601f106200040657805160ff191683800117855562000436565b8280016001018555821562000436579182015b828111156200043657825182559160200191906001019062000419565b506200044492915062000448565b5090565b5b8082111562000444576000815560010162000449565b634e487b7160e01b600052602160045260246000fd5b600181811c908216806200048a57607f821691505b60208210811415620004ac57634e487b7160e01b600052602260045260246000fd5b50919050565b6139a480620004c26000396000f3fe6080604052600436106102e45760003560e01c80636c0360eb11610190578063b88d4fde116100dc578063d41f90b011610095578063e7d90c731161006f578063e7d90c73146108c0578063e985e9c5146108e0578063f2fde38b14610929578063fc8234cb1461094957600080fd5b8063d41f90b014610842578063d525f50414610886578063dcbb46d7146108a057600080fd5b8063b88d4fde1461078d578063b99dfe18146107ad578063befc6cc3146107da578063c201ca8a146107fa578063c41e89f51461080f578063c87b56dd1461082257600080fd5b80638da5cb5b116101495780639ae322a9116101235780639ae322a91461070d5780639f448edd1461072d578063a22cb4651461074d578063ac511c3e1461076d57600080fd5b80638da5cb5b146106ba5780638f32d59b146106d857806395d89b41146106f857600080fd5b80636c0360eb1461061b57806370a0823114610630578063715018a61461065057806378bd80fc1461066557806379f63c1b146106855780638456cb59146106a557600080fd5b806333f5bf311161024f578063570c8e3b116102085780635c86ea7c116101e25780635c86ea7c146105a65780635c975abb146105c55780635fd8c710146105e65780636352211e146105fb57600080fd5b8063570c8e3b1461055157806357962e9e146105665780635aeaf14c1461058657600080fd5b806333f5bf31146104a35780633f4ba83a146104b657806342842e0e146104cb57806347049c84146104eb5780634986a917146105115780634f6ccce71461053157600080fd5b80631da0603a116102a15780631da0603a146103ec57806323b872dd1461040157806326a4e8d214610421578063294cdf0d146104415780632f745c591461046e578063320b2ad91461048e57600080fd5b806301ffc9a7146102e957806306fdde0314610338578063081812fc1461035a578063095ea7b31461039257806312065fe0146103b457806318160ddd146103d7575b600080fd5b3480156102f557600080fd5b506103236103043660046130ae565b6001600160e01b03191660009081526020819052604090205460ff1690565b60405190151581526020015b60405180910390f35b34801561034457600080fd5b5061034d61095e565b60405161032f9190613123565b34801561036657600080fd5b5061037a610375366004613136565b6109f0565b6040516001600160a01b03909116815260200161032f565b34801561039e57600080fd5b506103b26103ad36600461316b565b610a7d565b005b3480156103c057600080fd5b506103c9610b93565b60405190815260200161032f565b3480156103e357600080fd5b506103c9610c0b565b3480156103f857600080fd5b506103b2610c17565b34801561040d57600080fd5b506103b261041c366004613195565b610cf1565b34801561042d57600080fd5b506103b261043c3660046131d1565b610e1c565b34801561044d57600080fd5b5061046161045c3660046131d1565b610e70565b60405161032f91906131ec565b34801561047a57600080fd5b506103c961048936600461316b565b610f5c565b34801561049a57600080fd5b50610323610f87565b3480156104af57600080fd5b50476103c9565b3480156104c257600080fd5b506103b261100d565b3480156104d757600080fd5b506103b26104e6366004613195565b611058565b3480156104f757600080fd5b5060195461037a906201000090046001600160a01b031681565b34801561051d57600080fd5b506103b261052c366004613230565b611073565b34801561053d57600080fd5b506103c961054c366004613136565b6110c3565b34801561055d57600080fd5b506103b26110d9565b34801561057257600080fd5b50601a5461037a906001600160a01b031681565b34801561059257600080fd5b506103b26105a1366004613256565b611120565b3480156105b257600080fd5b5060195461032390610100900460ff1681565b3480156105d157600080fd5b50600b5461032390600160a01b900460ff1681565b3480156105f257600080fd5b506103b261145d565b34801561060757600080fd5b5061037a610616366004613136565b611528565b34801561062757600080fd5b5061034d611550565b34801561063c57600080fd5b506103c961064b3660046131d1565b61155f565b34801561065c57600080fd5b506103b26115eb565b34801561067157600080fd5b506103b2610680366004613136565b61165f565b34801561069157600080fd5b506103b26106a0366004613230565b61168e565b3480156106b157600080fd5b506103b26116de565b3480156106c657600080fd5b50600b546001600160a01b031661037a565b3480156106e457600080fd5b50600b546001600160a01b03163314610323565b34801561070457600080fd5b5061034d611727565b34801561071957600080fd5b506103b2610728366004613295565b611736565b34801561073957600080fd5b506103b26107483660046132dc565b611832565b34801561075957600080fd5b506103b2610768366004613319565b6118ae565b34801561077957600080fd5b506103b2610788366004613345565b611973565b34801561079957600080fd5b506103b26107a8366004613377565b6119da565b3480156107b957600080fd5b506107cd6107c8366004613136565b611a12565b60405161032f9190613469565b3480156107e657600080fd5b506103b26107f5366004613230565b611af7565b34801561080657600080fd5b506103b2611b47565b6103b261081d3660046134d6565b611b85565b34801561082e57600080fd5b5061034d61083d366004613136565b611f82565b34801561084e57600080fd5b506013546040805163ffffffff8084168252640100000000840481166020830152600160401b9093049092169082015260600161032f565b34801561089257600080fd5b506019546103239060ff1681565b3480156108ac57600080fd5b506103b26108bb366004613230565b6120f3565b3480156108cc57600080fd5b506103b26108db3660046131d1565b612128565b3480156108ec57600080fd5b506103236108fb3660046134f2565b6001600160a01b03918216600090815260066020908152604080832093909416825291909152205460ff1690565b34801561093557600080fd5b506103b26109443660046131d1565b612174565b34801561095557600080fd5b506103236121a7565b60606007805461096d90613525565b80601f016020809104026020016040519081016040528092919081815260200182805461099990613525565b80156109e65780601f106109bb576101008083540402835291602001916109e6565b820191906000526020600020905b8154815290600101906020018083116109c957829003601f168201915b5050505050905090565b60006109fb82612226565b610a615760405162461bcd60e51b815260206004820152602c60248201527f4552433732313a20617070726f76656420717565727920666f72206e6f6e657860448201526b34b9ba32b73a103a37b5b2b760a11b60648201526084015b60405180910390fd5b506000908152600560205260409020546001600160a01b031690565b6000610a8882611528565b9050806001600160a01b0316836001600160a01b03161415610af65760405162461bcd60e51b815260206004820152602160248201527f4552433732313a20617070726f76616c20746f2063757272656e74206f776e656044820152603960f91b6064820152608401610a58565b336001600160a01b0382161480610b125750610b1281336108fb565b610b845760405162461bcd60e51b815260206004820152603860248201527f4552433732313a20617070726f76652063616c6c6572206973206e6f74206f7760448201527f6e6572206e6f7220617070726f76656420666f7220616c6c00000000000000006064820152608401610a58565b610b8e8383612233565b505050565b6019546040516370a0823160e01b81523060048201526000916201000090046001600160a01b0316906370a0823190602401602060405180830381865afa158015610be2573d6000803e3d6000fd5b505050506040513d601f19601f82011682018060405250810190610c069190613560565b905090565b6000610c0660026122a1565b600b546001600160a01b03163314610c415760405162461bcd60e51b8152600401610a5890613579565b476000610c56600b546001600160a01b031690565b6001600160a01b03168260405160006040518083038185875af1925050503d8060008114610ca0576040519150601f19603f3d011682016040523d82523d6000602084013e610ca5565b606091505b5050905080610ced5760405162461bcd60e51b81526020600482015260146024820152732330b4b632b2103a379039b2b7321022ba3432b960611b6044820152606401610a58565b5050565b6002600c541415610d445760405162461bcd60e51b815260206004820152601f60248201527f5265656e7472616e637947756172643a207265656e7472616e742063616c6c006044820152606401610a58565b6002600c556001600160a01b03831660009081526011602052604090205460ff1615610da85760405162461bcd60e51b81526020600482015260136024820152721859191c995cdccb589b1858dadb1a5cdd1959606a1b6044820152606401610a58565b6001600160a01b03821660009081526011602052604090205460ff1615610e075760405162461bcd60e51b81526020600482015260136024820152721859191c995cdccb589b1858dadb1a5cdd1959606a1b6044820152606401610a58565b610e128383836122ac565b50506001600c5550565b600b546001600160a01b03163314610e465760405162461bcd60e51b8152600401610a5890613579565b601980546001600160a01b03909216620100000262010000600160b01b0319909216919091179055565b6001600160a01b038116600090815260016020526040812060609190610e95906122dd565b67ffffffffffffffff811115610ead57610ead613361565b604051908082528060200260200182016040528015610ed6578160200160208202803683370190505b50905060005b6001600160a01b0384166000908152600160205260409020610efd906122dd565b811015610f55576001600160a01b0384166000908152600160205260409020610f2690826122e7565b828281518110610f3857610f386135ae565b602090810291909101015280610f4d816135da565b915050610edc565b5092915050565b6001600160a01b0382166000908152600160205260408120610f7e90836122e7565b90505b92915050565b600b546000906001600160a01b03163314610fb45760405162461bcd60e51b8152600401610a5890613579565b600b54600160a01b900460ff1615610fcb57600080fd5b600b805460ff60a01b1916600160a01b1790556040517f6985a02210a168e66602d3235cb6db0e70f92b3ba4d376a33c0f3d9434bff62590600090a150600190565b600b54600160a01b900460ff1661102357600080fd5b600b546001600160a01b0316331461104d5760405162461bcd60e51b8152600401610a5890613579565b6110556121a7565b50565b610b8e838383604051806020016040528060008152506119da565b600b546001600160a01b0316331461109d5760405162461bcd60e51b8152600401610a5890613579565b6013805463ffffffff909216600160801b0263ffffffff60801b19909216919091179055565b6000806110d16002846122f3565b509392505050565b600b546001600160a01b031633146111035760405162461bcd60e51b8152600401610a5890613579565b6019805461ff001981166101009182900460ff1615909102179055565b60195460ff166111615760405162461bcd60e51b815260206004820152600c60248201526b31b0b7103737ba1037b832b760a11b6044820152606401610a58565b600b54600160a01b900460ff161561117857600080fd5b3361118282611528565b6001600160a01b0316146111c85760405162461bcd60e51b815260206004820152600d60248201526c3737ba103a34329037bbb732b960991b6044820152606401610a58565b601854821461120a5760405162461bcd60e51b815260206004820152600e60248201526d1253959053125108105353d5539560921b6044820152606401610a58565b6019546040516323b872dd60e01b815233600482015230602482015260448101849052620100009091046001600160a01b0316906323b872dd906064016020604051808303816000875af1158015611266573d6000803e3d6000fd5b505050506040513d601f19601f8201168201806040525081019061128a91906135f5565b61129357600080fd5b6000600d6112a2600184613612565b815481106112b2576112b26135ae565b60009182526020918290206040805160a081018252600393840290920180546001600160a01b03168352600181015494830194909452600284015460ff80821692840192909252919392606085019261010090049091169081111561131957611319613453565b600381111561132a5761132a613453565b81526002919091015462010000900467ffffffffffffffff16602090910152601a5460608201519192506001600160a01b031690636fed42d2903390600381111561137757611377613453565b60408086015190516001600160e01b031960e086901b1681526001600160a01b03909316600484015260ff9182166024840152166044820152606401600060405180830381600087803b1580156113cd57600080fd5b505af11580156113e1573d6000803e3d6000fd5b505050506113ee8261230f565b7f0bf4c6d3c4b37474b167ca1251166f61a1ad24afe4d0bee7834b830938bee6b933838360600151600381111561142757611427613453565b604080516001600160a01b039094168452602084019290925260ff169082015242606082015260800160405180910390a1505050565b600b546001600160a01b031633146114875760405162461bcd60e51b8152600401610a5890613579565b6019546001600160a01b03620100009091041663a9059cbb6114b1600b546001600160a01b031690565b6114b9610b93565b6040516001600160e01b031960e085901b1681526001600160a01b03909216600483015260248201526044016020604051808303816000875af1158015611504573d6000803e3d6000fd5b505050506040513d601f19601f8201168201806040525081019061105591906135f5565b6000610f8182604051806060016040528060298152602001613926602991396002919061238c565b6060600a805461096d90613525565b60006001600160a01b0382166115ca5760405162461bcd60e51b815260206004820152602a60248201527f4552433732313a2062616c616e636520717565727920666f7220746865207a65604482015269726f206164647265737360b01b6064820152608401610a58565b6001600160a01b0382166000908152600160205260409020610f81906122dd565b600b546001600160a01b031633146116155760405162461bcd60e51b8152600401610a5890613579565b600b546040516000916001600160a01b0316907f8be0079c531659141344cd1fd0a4f28419497f9722a3daafe3b4186f6b6457e0908390a3600b80546001600160a01b0319169055565b600b546001600160a01b031633146116895760405162461bcd60e51b8152600401610a5890613579565b601855565b600b546001600160a01b031633146116b85760405162461bcd60e51b8152600401610a5890613579565b6013805463ffffffff909216600160a01b0263ffffffff60a01b19909216919091179055565b600b54600160a01b900460ff16156116f557600080fd5b600b546001600160a01b0316331461171f5760405162461bcd60e51b8152600401610a5890613579565b611055610f87565b60606008805461096d90613525565b600b546001600160a01b031633146117605760405162461bcd60e51b8152600401610a5890613579565b600082600381111561177457611774613453565b14156117b45760405162461bcd60e51b815260206004820152600f60248201526e696e76616c6964207061636b61676560881b6044820152606401610a58565b6001600160a01b03831661180a5760405162461bcd60e51b815260206004820181905260248201527f4552433732313a206d696e7420746f20746865207a65726f20616464726573736044820152606401610a58565b6118188360175484846123a3565b60178054906000611828836135da565b9190505550505050565b600b546001600160a01b0316331461185c5760405162461bcd60e51b8152600401610a5890613579565b80600f600084600381111561187357611873613453565b600381111561188457611884613453565b815260200190815260200160002060006101000a81548160ff021916908360ff1602179055505050565b6001600160a01b0382163314156119075760405162461bcd60e51b815260206004820152601960248201527f4552433732313a20617070726f766520746f2063616c6c6572000000000000006044820152606401610a58565b3360008181526006602090815260408083206001600160a01b03871680855290835292819020805460ff191686151590811790915590519081529192917f17307eab39ab6107e8899845ad3d59bd9653f200f220920489ca2b5937696c31910160405180910390a35050565b600b546001600160a01b0316331461199d5760405162461bcd60e51b8152600401610a5890613579565b80601060008460038111156119b4576119b4613453565b60038111156119c5576119c5613453565b81526020810191909152604001600020555050565b6119e43383612603565b611a005760405162461bcd60e51b8152600401610a5890613629565b611a0c848484846126ed565b50505050565b6040805160a081018252600080825260208201819052918101829052606081018290526080810191909152600d611a4a600184613612565b81548110611a5a57611a5a6135ae565b60009182526020918290206040805160a081018252600393840290920180546001600160a01b03168352600181015494830194909452600284015460ff808216928401929092529193926060850192610100900490911690811115611ac157611ac1613453565b6003811115611ad257611ad2613453565b81526002919091015462010000900467ffffffffffffffff1660209091015292915050565b600b546001600160a01b03163314611b215760405162461bcd60e51b8152600401610a5890613579565b6013805463ffffffff909216600160c01b0263ffffffff60c01b19909216919091179055565b600b546001600160a01b03163314611b715760405162461bcd60e51b8152600401610a5890613579565b6019805460ff19811660ff90911615179055565b6002600c541415611bd85760405162461bcd60e51b815260206004820152601f60248201527f5265656e7472616e637947756172643a207265656e7472616e742063616c6c006044820152606401610a58565b6002600c55601954610100900460ff16611c2a5760405162461bcd60e51b81526020600482015260136024820152727061636b61676520756e617661696c61626c6560681b6044820152606401610a58565b600b54600160a01b900460ff1615611c4157600080fd5b601254336000908152600e602052604090205460ff1610611c9b5760405162461bcd60e51b81526020600482015260146024820152731dd85b1b195d0b5c1858dad859d94b5b1a5b5a5d60621b6044820152606401610a58565b333b63ffffffff1615611ce75760405162461bcd60e51b815260206004820152601460248201527318dbdb9d1c9858dd081b9bdd08185b1b1bddd95960621b6044820152606401610a58565b6000826003811115611cfb57611cfb613453565b1415611d3b5760405162461bcd60e51b815260206004820152600f60248201526e696e76616c6964207061636b61676560881b6044820152606401610a58565b60106000836003811115611d5157611d51613453565b6003811115611d6257611d62613453565b8152602001908152602001600020543414611db05760405162461bcd60e51b815260206004820152600e60248201526d1253959053125108105353d5539560921b6044820152606401610a58565b6001826003811115611dc457611dc4613453565b1415611e345760135463ffffffff600160801b82048116911610611dfa5760405162461bcd60e51b8152600401610a589061367a565b6013805463ffffffff16906000611e108361369c565b91906101000a81548163ffffffff021916908363ffffffff16021790555050611f18565b6002826003811115611e4857611e48613453565b1415611ea45760135463ffffffff600160a01b820481166401000000009092041610611e865760405162461bcd60e51b8152600401610a589061367a565b60138054640100000000900463ffffffff16906004611e108361369c565b60135463ffffffff600160c01b82048116600160401b9092041610611edb5760405162461bcd60e51b8152600401610a589061367a565b60138054600160401b900463ffffffff16906008611ef88361369c565b91906101000a81548163ffffffff021916908363ffffffff160217905550505b611f263360175484846123a3565b336000908152600e6020526040902054611f449060ff1660016136c0565b336000908152600e60205260408120805460ff191660ff93909316929092179091556017805491611f74836135da565b90915550506001600c555050565b6060611f8d82612226565b611ff15760405162461bcd60e51b815260206004820152602f60248201527f4552433732314d657461646174613a2055524920717565727920666f72206e6f60448201526e3732bc34b9ba32b73a103a37b5b2b760891b6064820152608401610a58565b6000828152600960205260408120805461200a90613525565b80601f016020809104026020016040519081016040528092919081815260200182805461203690613525565b80156120835780601f1061205857610100808354040283529160200191612083565b820191906000526020600020905b81548152906001019060200180831161206657829003601f168201915b50505050509050600a805461209790613525565b151590506120a55792915050565b8051156120d757600a816040516020016120c0929190613701565b604051602081830303815290604052915050919050565b600a6120e284612720565b6040516020016120c0929190613701565b600b546001600160a01b0316331461211d5760405162461bcd60e51b8152600401610a5890613579565b63ffffffff16601255565b600b546001600160a01b031633146121525760405162461bcd60e51b8152600401610a5890613579565b601a80546001600160a01b0319166001600160a01b0392909216919091179055565b600b546001600160a01b0316331461219e5760405162461bcd60e51b8152600401610a5890613579565b61105581612837565b600b546000906001600160a01b031633146121d45760405162461bcd60e51b8152600401610a5890613579565b600b54600160a01b900460ff166121ea57600080fd5b600b805460ff60a01b191690556040517f7805862f689e2f13df9f062ff482ad3ad112aca9e0847911ed832e158c525b3390600090a150600190565b6000610f816002836128f8565b600081815260056020526040902080546001600160a01b0319166001600160a01b038416908117909155819061226882611528565b6001600160a01b03167f8c5be1e5ebec7d5bd14f71427d1e84f3dd0314c0f7b2291e5b200ac8c7c3b92560405160405180910390a45050565b6000610f8182612904565b6122b63382612603565b6122d25760405162461bcd60e51b8152600401610a5890613629565b610b8e83838361290f565b6000610f81825490565b6000610f7e8383612a89565b60008080806123028686612ab3565b9097909650945050505050565b600061231a82611528565b905061232881600084612ade565b612333600083612233565b6001600160a01b03811660009081526001602052604090206123559083612af5565b50612361600283612b01565b5060405182906000906001600160a01b0384169060008051602061394f833981519152908390a45050565b6000612399848484612b0d565b90505b9392505050565b60006040518060a00160405280866001600160a01b03168152602001858152602001600f60008660038111156123db576123db613453565b60038111156123ec576123ec613453565b81526020808201929092526040016000205460ff1682520184600381111561241657612416613453565b81526020014267ffffffffffffffff168152509050612445858560405180602001604052806000815250612b50565b600d8054600181018255600091909152815160039182027fd7b6990105719101dabeb77144f2a3385c8033acd3af97e9423a695e81ad1eb5810180546001600160a01b039093166001600160a01b031990931692909217825560208401517fd7b6990105719101dabeb77144f2a3385c8033acd3af97e9423a695e81ad1eb682015560408401517fd7b6990105719101dabeb77144f2a3385c8033acd3af97e9423a695e81ad1eb7909101805460ff90921660ff1983168117825560608601518695909361ffff19169091179061010090849081111561252757612527613453565b021790555060808201518160020160026101000a81548167ffffffffffffffff021916908367ffffffffffffffff16021790555050507f9cd6172b8095a1baebea2053c4f84ef9c9d8a0e013638d24573f908c1e6d07fd8582602001518360600151600381111561259a5761259a613453565b604080516001600160a01b039094168452602084019290925260ff1690820152426060820152831515608082015260a00160405180910390a160208101516040516001600160a01b0387169060009060008051602061394f833981519152908290a45050505050565b600061260e82612226565b61266f5760405162461bcd60e51b815260206004820152602c60248201527f4552433732313a206f70657261746f7220717565727920666f72206e6f6e657860448201526b34b9ba32b73a103a37b5b2b760a11b6064820152608401610a58565b600061267a83611528565b9050806001600160a01b0316846001600160a01b031614806126b55750836001600160a01b03166126aa846109f0565b6001600160a01b0316145b806126e557506001600160a01b0380821660009081526006602090815260408083209388168352929052205460ff165b949350505050565b6126f884848461290f565b61270484848484612b83565b611a0c5760405162461bcd60e51b8152600401610a58906137a8565b6060816127445750506040805180820190915260018152600360fc1b602082015290565b8160005b811561276e5780612758816135da565b91506127679050600a83613810565b9150612748565b60008167ffffffffffffffff81111561278957612789613361565b6040519080825280601f01601f1916602001820160405280156127b3576020820181803683370190505b50905060006127c3600184613612565b90508593505b831561282e576127da600a85613824565b6127e5906030613838565b60f81b82826127f381613850565b935081518110612805576128056135ae565b60200101906001600160f81b031916908160001a905350612827600a85613810565b93506127c9565b50949350505050565b6001600160a01b03811661289c5760405162461bcd60e51b815260206004820152602660248201527f4f776e61626c653a206e6577206f776e657220697320746865207a65726f206160448201526564647265737360d01b6064820152608401610a58565b600b546040516001600160a01b038084169216907f8be0079c531659141344cd1fd0a4f28419497f9722a3daafe3b4186f6b6457e090600090a3600b80546001600160a01b0319166001600160a01b0392909216919091179055565b6000610f7e8383612c54565b6000610f81826122dd565b826001600160a01b031661292282611528565b6001600160a01b03161461298a5760405162461bcd60e51b815260206004820152602960248201527f4552433732313a207472616e73666572206f6620746f6b656e2074686174206960448201526839903737ba1037bbb760b91b6064820152608401610a58565b6001600160a01b0382166129ec5760405162461bcd60e51b8152602060048201526024808201527f4552433732313a207472616e7366657220746f20746865207a65726f206164646044820152637265737360e01b6064820152608401610a58565b6129f7838383612ade565b612a02600082612233565b6001600160a01b0383166000908152600160205260409020612a249082612af5565b506001600160a01b0382166000908152600160205260409020612a479082612c60565b50612a5460028284612c6c565b5080826001600160a01b0316846001600160a01b031660008051602061394f83398151915260405160405180910390a4505050565b6000826000018281548110612aa057612aa06135ae565b9060005260206000200154905092915050565b60008080612ac185856122e7565b600081815260029690960160205260409095205494959350505050565b600b54600160a01b900460ff1615610b8e57600080fd5b6000610f7e8383612c82565b6000610f7e8383612d75565b600082815260028401602052604081205480151580612b315750612b318585612c54565b839061282e5760405162461bcd60e51b8152600401610a589190613123565b612b5a8383612d92565b612b676000848484612b83565b610b8e5760405162461bcd60e51b8152600401610a58906137a8565b60006001600160a01b0384163b612b9c575060016126e5565b6000612c1d630a85bd0160e11b33888787604051602401612bc09493929190613867565b604051602081830303815290604052906001600160e01b0319166020820180516001600160e01b0383818316178352505050506040518060600160405280603281526020016138f4603291396001600160a01b0388169190612ea4565b9050600081806020019051810190612c3591906138a4565b6001600160e01b031916630a85bd0160e11b1492505050949350505050565b6000610f7e8383612eb3565b6000610f7e8383612ecb565b600061239984846001600160a01b038516612f1a565b60008181526001830160205260408120548015612d6b576000612ca6600183613612565b8554909150600090612cba90600190613612565b9050818114612d1f576000866000018281548110612cda57612cda6135ae565b9060005260206000200154905080876000018481548110612cfd57612cfd6135ae565b6000918252602080832090910192909255918252600188019052604090208390555b8554869080612d3057612d306138c1565b600190038181906000526020600020016000905590558560010160008681526020019081526020016000206000905560019350505050610f81565b6000915050610f81565b60008181526002830160205260408120819055610f7e8383612af5565b6001600160a01b038216612de85760405162461bcd60e51b815260206004820181905260248201527f4552433732313a206d696e7420746f20746865207a65726f20616464726573736044820152606401610a58565b612df181612226565b15612e3e5760405162461bcd60e51b815260206004820152601c60248201527f4552433732313a20746f6b656e20616c7265616479206d696e746564000000006044820152606401610a58565b612e4a60008383612ade565b6001600160a01b0382166000908152600160205260409020612e6c9082612c60565b50612e7960028284612c6c565b5060405181906001600160a01b0384169060009060008051602061394f833981519152908290a45050565b60606123998484600085612f37565b60008181526001830160205260408120541515610f7e565b6000818152600183016020526040812054612f1257508154600181810184556000848152602080822090930184905584548482528286019093526040902091909155610f81565b506000610f81565b600082815260028401602052604081208290556123998484612c60565b606082471015612f985760405162461bcd60e51b815260206004820152602660248201527f416464726573733a20696e73756666696369656e742062616c616e636520666f6044820152651c8818d85b1b60d21b6064820152608401610a58565b843b612fe65760405162461bcd60e51b815260206004820152601d60248201527f416464726573733a2063616c6c20746f206e6f6e2d636f6e74726163740000006044820152606401610a58565b600080866001600160a01b0316858760405161300291906138d7565b60006040518083038185875af1925050503d806000811461303f576040519150601f19603f3d011682016040523d82523d6000602084013e613044565b606091505b509150915061305482828661305f565b979650505050505050565b6060831561306e57508161239c565b82511561307e5782518084602001fd5b8160405162461bcd60e51b8152600401610a589190613123565b6001600160e01b03198116811461105557600080fd5b6000602082840312156130c057600080fd5b813561239c81613098565b60005b838110156130e65781810151838201526020016130ce565b83811115611a0c5750506000910152565b6000815180845261310f8160208601602086016130cb565b601f01601f19169290920160200192915050565b602081526000610f7e60208301846130f7565b60006020828403121561314857600080fd5b5035919050565b80356001600160a01b038116811461316657600080fd5b919050565b6000806040838503121561317e57600080fd5b6131878361314f565b946020939093013593505050565b6000806000606084860312156131aa57600080fd5b6131b38461314f565b92506131c16020850161314f565b9150604084013590509250925092565b6000602082840312156131e357600080fd5b610f7e8261314f565b6020808252825182820181905260009190848201906040850190845b8181101561322457835183529284019291840191600101613208565b50909695505050505050565b60006020828403121561324257600080fd5b813563ffffffff8116811461239c57600080fd5b6000806040838503121561326957600080fd5b50508035926020909101359150565b80356004811061316657600080fd5b801515811461105557600080fd5b6000806000606084860312156132aa57600080fd5b6132b38461314f565b92506132c160208501613278565b915060408401356132d181613287565b809150509250925092565b600080604083850312156132ef57600080fd5b6132f883613278565b9150602083013560ff8116811461330e57600080fd5b809150509250929050565b6000806040838503121561332c57600080fd5b6133358361314f565b9150602083013561330e81613287565b6000806040838503121561335857600080fd5b61318783613278565b634e487b7160e01b600052604160045260246000fd5b6000806000806080858703121561338d57600080fd5b6133968561314f565b93506133a46020860161314f565b925060408501359150606085013567ffffffffffffffff808211156133c857600080fd5b818701915087601f8301126133dc57600080fd5b8135818111156133ee576133ee613361565b604051601f8201601f19908116603f0116810190838211818310171561341657613416613361565b816040528281528a602084870101111561342f57600080fd5b82602086016020830137600060208483010152809550505050505092959194509250565b634e487b7160e01b600052602160045260246000fd5b81516001600160a01b031681526020808301519082015260408083015160ff1690820152606082015160a0820190600481106134b557634e487b7160e01b600052602160045260246000fd5b8060608401525067ffffffffffffffff608084015116608083015292915050565b600080604083850312156134e957600080fd5b61333583613278565b6000806040838503121561350557600080fd5b61350e8361314f565b915061351c6020840161314f565b90509250929050565b600181811c9082168061353957607f821691505b6020821081141561355a57634e487b7160e01b600052602260045260246000fd5b50919050565b60006020828403121561357257600080fd5b5051919050565b6020808252818101527f4f776e61626c653a2063616c6c6572206973206e6f7420746865206f776e6572604082015260600190565b634e487b7160e01b600052603260045260246000fd5b634e487b7160e01b600052601160045260246000fd5b60006000198214156135ee576135ee6135c4565b5060010190565b60006020828403121561360757600080fd5b815161239c81613287565b600082821015613624576136246135c4565b500390565b60208082526031908201527f4552433732313a207472616e736665722063616c6c6572206973206e6f74206f6040820152701ddb995c881b9bdc88185c1c1c9bdd9959607a1b606082015260800190565b6020808252600890820152671cdbdb19081bdd5d60c21b604082015260600190565b600063ffffffff808316818114156136b6576136b66135c4565b6001019392505050565b600060ff821660ff84168060ff038211156136dd576136dd6135c4565b019392505050565b600081516136f78185602086016130cb565b9290920192915050565b600080845481600182811c91508083168061371d57607f831692505b602080841082141561373d57634e487b7160e01b86526022600452602486fd5b81801561375157600181146137625761378f565b60ff1986168952848901965061378f565b60008b81526020902060005b868110156137875781548b82015290850190830161376e565b505084890196505b50505050505061379f81856136e5565b95945050505050565b60208082526032908201527f4552433732313a207472616e7366657220746f206e6f6e20455243373231526560408201527131b2b4bb32b91034b6b83632b6b2b73a32b960711b606082015260800190565b634e487b7160e01b600052601260045260246000fd5b60008261381f5761381f6137fa565b500490565b600082613833576138336137fa565b500690565b6000821982111561384b5761384b6135c4565b500190565b60008161385f5761385f6135c4565b506000190190565b6001600160a01b038581168252841660208201526040810183905260806060820181905260009061389a908301846130f7565b9695505050505050565b6000602082840312156138b657600080fd5b815161239c81613098565b634e487b7160e01b600052603160045260246000fd5b600082516138e98184602087016130cb565b919091019291505056fe4552433732313a207472616e7366657220746f206e6f6e20455243373231526563656976657220696d706c656d656e7465724552433732313a206f776e657220717565727920666f72206e6f6e6578697374656e7420746f6b656eddf252ad1be2c89b69c2b068fc378daa952ba7f163c4a11628f55a4df523b3efa264697066735822122007902a5f3e9ee647e764fc7b7dc573596abeeaf5983c73c4bcdd2faeb599abd864736f6c634300080b00334f776e61626c653a2063616c6c6572206973206e6f7420746865206f776e6572",
  "immutableReferences": {},
  "source": "// SPDX-License-Identifier: MIT\r\npragma solidity ^0.8.2;\r\n\r\nimport \"./IBEP20.sol\";\r\nimport \"./IMarketplace.sol\";\r\nimport \"./SafeMath.sol\";\r\nimport \"./Ownable.sol\";\r\nimport \"./AccessControl.sol\";\r\nimport \"./IERC721.sol\";\r\nimport \"./ERC721Pausable.sol\";\r\nimport \"./IPieceCore.sol\";\r\nimport \"./ReentrancyGuard.sol\";\r\n\r\ncontract PiecePackage is Ownable, ERC721Pausable, ReentrancyGuard {\r\n    using SafeMath for uint256;\r\n\r\n    struct Package {\r\n        address owner;\r\n        uint256 packageId; // id of the package\r\n        uint8 quantity; // quantity of pieces in this package\r\n        PackageType packageType; //package type\r\n        uint64 birthTime; // The timestamp from the block when this package came into existence.\r\n    }\r\n\r\n    enum PackageType {\r\n        Default,\r\n        First,\r\n        Second,\r\n        Third\r\n    }\r\n\r\n    /*** STORAGE ***/\r\n    /// @dev An array containing the Piece struct for all pieces in existence. The ID\r\n    ///  of each Piece is actually an index into this array.\r\n    Package[] packages;\r\n\r\n    mapping(address => uint8) walletPackages;\r\n    mapping(PackageType => uint8) private _packageTypePieces;\r\n    mapping(PackageType => uint256) private _packageTypePrice;\r\n    mapping(address => bool) private banBlackList;\r\n\r\n    uint256 private totalPackagesOwner = 5;\r\n\r\n    uint32 firstPackageCount;\r\n    uint32 secondPackageCount;\r\n    uint32 thirdPackageCount;\r\n    uint32 fourthPackageCount;\r\n    uint32 firstPackageLimit = 340;\r\n    uint32 secondPackageLimit = 175;\r\n    uint32 thirdPackageLimit = 75;\r\n\r\n    uint256 private priceFirstPackage = 0.2 * 10**18; // to review\r\n    uint256 private priceSecondPackage = 0.5 * 10**18; // to review\r\n    uint256 private priceThirdPackage = 0.9 * 10**18; // to\r\n    uint256 private nextPackageTokenId = 1;\r\n    uint256 private piecePackagePrice = 5 * 10**18; // to review\r\n\r\n    /* SETTABLE VARIABLES */\r\n    bool public canUnpack;\r\n    bool public isPackageAvailable;\r\n    address public _mekaAddress;\r\n    address public _pieceAddress;\r\n\r\n    event PackageCreated(\r\n        address to,\r\n        uint256 packId,\r\n        uint8 packageType,\r\n        uint256 date,\r\n        bool isPresale\r\n    );\r\n    event Unpacked(\r\n        address from,\r\n        uint256 packId,\r\n        uint8 packageType,\r\n        uint256 date\r\n    );\r\n    event MintedPieceFromBundle(address from, uint256[] pieceId, uint256 date);\r\n\r\n    constructor() ERC721(\"Mekabot Piece\", \"MekaPiecePkg\") {\r\n        canUnpack = false;\r\n        isPackageAvailable = false;\r\n\r\n        setPackageTypePrice(PackageType.First, priceFirstPackage);\r\n        setPackageTypePrice(PackageType.Second, priceSecondPackage);\r\n        setPackageTypePrice(PackageType.Third, priceThirdPackage);\r\n        setPackageTypePieces(PackageType.First, 2);\r\n        setPackageTypePieces(PackageType.Second, 4);\r\n        setPackageTypePieces(PackageType.Third, 6);\r\n    }\r\n\r\n    function setPackageLimit(uint32 quantity) external onlyOwner {\r\n        totalPackagesOwner = quantity;\r\n    }\r\n\r\n    function setFirstPackageLimit(uint32 quantity) external onlyOwner {\r\n        firstPackageLimit = quantity;\r\n    }\r\n\r\n    function setSecondPackageLimit(uint32 quantity) external onlyOwner {\r\n        secondPackageLimit = quantity;\r\n    }\r\n\r\n    function setThirdPackageLimit(uint32 quantity) external onlyOwner {\r\n        thirdPackageLimit = quantity;\r\n    }\r\n\r\n    function setPackageTypePieces(PackageType _packageType, uint8 quantity)\r\n        public\r\n        onlyOwner\r\n    {\r\n        _packageTypePieces[_packageType] = quantity;\r\n    }\r\n\r\n    function setPackageTypePrice(PackageType _packageType, uint256 amount)\r\n        public\r\n        onlyOwner\r\n    {\r\n        _packageTypePrice[_packageType] = amount;\r\n    }\r\n\r\n    function setPiecePackagePrice(uint256 _price) external onlyOwner {\r\n        piecePackagePrice = _price;\r\n    }\r\n\r\n    function setTokenAddress(address _addr) external onlyOwner {\r\n        _mekaAddress = _addr;\r\n    }\r\n\r\n    function setPieceAddress(address _addr) external onlyOwner {\r\n        _pieceAddress = _addr;\r\n    }\r\n\r\n    function updateCanUnpack() external onlyOwner {\r\n        canUnpack = !canUnpack;\r\n    }\r\n\r\n    function updatePackageAvailable() external onlyOwner {\r\n        isPackageAvailable = !isPackageAvailable;\r\n    }\r\n\r\n    modifier canOpen() {\r\n        require(canUnpack, \"can not open\");\r\n        _;\r\n    }\r\n\r\n    modifier packageAvailable() {\r\n        require(isPackageAvailable, \"package unavailable\");\r\n        _;\r\n    }\r\n\r\n    function withdrawBalance() external onlyOwner {\r\n        IBEP20(_mekaAddress).transfer(owner(), getBalance());\r\n    }\r\n\r\n    function withdrawBnb() external onlyOwner {\r\n        uint256 amount = address(this).balance;\r\n\r\n        (bool success, ) = payable(owner()).call{value: amount}(\"\");\r\n        require(success, \"Failed to send Ether\");\r\n    }\r\n\r\n    function getBalance() public view returns (uint256) {\r\n        return IBEP20(_mekaAddress).balanceOf(address(this));\r\n    }\r\n\r\n    function getBnbBalance() public view returns (uint256) {\r\n        return address(this).balance;\r\n    }\r\n\r\n    function pause() external whenNotPaused onlyOwner {\r\n        _pause();\r\n    }\r\n\r\n    function unpause() external whenPaused onlyOwner {\r\n        _unpause();\r\n    }\r\n\r\n    /* Piece PACKAGE */\r\n\r\n    function _mintPackage(\r\n        address _to,\r\n        uint256 _tokenId,\r\n        PackageType _packageType,\r\n        bool isPresale\r\n    ) private {\r\n        Package memory _package = Package({\r\n            owner: _to,\r\n            packageType: _packageType,\r\n            packageId: _tokenId,\r\n            quantity: _packageTypePieces[_packageType],\r\n            birthTime: uint64(block.timestamp)\r\n        });\r\n\r\n        _safeMint(_to, _tokenId, \"\");\r\n        packages.push(_package);\r\n\r\n        emit PackageCreated(\r\n            _to,\r\n            _package.packageId,\r\n            uint8(_package.packageType),\r\n            block.timestamp,\r\n            isPresale\r\n        );\r\n\r\n        emit Transfer(address(0), _to, _package.packageId);\r\n    }\r\n\r\n    function createPackage(PackageType _packageType, bool _isPresale)\r\n        external\r\n        payable\r\n        nonReentrant\r\n        packageAvailable\r\n        whenNotPaused\r\n    {\r\n        require(\r\n            walletPackages[msg.sender] < totalPackagesOwner,\r\n            \"wallet-package-limit\"\r\n        );\r\n        require(!isContract(msg.sender), \"contract not allowed\");\r\n        require(_packageType != PackageType.Default, \"invalid package\");\r\n        require(msg.value == _packageTypePrice[_packageType], \"INVALID AMOUNT\");\r\n\r\n        if (_packageType == PackageType.First) {\r\n            require(firstPackageCount < firstPackageLimit, \"sold out\");\r\n            firstPackageCount++;\r\n        } else if (_packageType == PackageType.Second) {\r\n            require(secondPackageCount < secondPackageLimit, \"sold out\");\r\n            secondPackageCount++;\r\n        } else {\r\n            require(thirdPackageCount < thirdPackageLimit, \"sold out\");\r\n            thirdPackageCount++;\r\n        }\r\n\r\n        _mintPackage(msg.sender, nextPackageTokenId, _packageType, _isPresale);\r\n        walletPackages[msg.sender] = walletPackages[msg.sender] + 1;\r\n        nextPackageTokenId++;\r\n    }\r\n\r\n    function createPackageExtra(\r\n        address _owner,\r\n        PackageType _packageType,\r\n        bool _isPresale\r\n    ) external onlyOwner {\r\n        require(_packageType != PackageType.Default, \"invalid package\");\r\n        require(_owner != address(0), \"ERC721: mint to the zero address\");\r\n\r\n        _mintPackage(_owner, nextPackageTokenId, _packageType, _isPresale);\r\n        nextPackageTokenId++;\r\n    }\r\n\r\n    function openPackage(uint256 _amount, uint256 _tokenId)\r\n        external\r\n        canOpen\r\n        whenNotPaused\r\n    {\r\n        require(ownerOf(_tokenId) == msg.sender, \"not the owner\");\r\n        require(_amount == piecePackagePrice, \"INVALID AMOUNT\");\r\n        require(\r\n            IBEP20(_mekaAddress).transferFrom(\r\n                msg.sender,\r\n                address(this),\r\n                _amount\r\n            )\r\n        );\r\n        Package memory package = packages[_tokenId - 1];\r\n\r\n        IPieceCore(_pieceAddress).createPieceFromBundle(\r\n            msg.sender,\r\n            uint8(package.packageType),\r\n            package.quantity\r\n        );\r\n\r\n        _burn(_tokenId);\r\n\r\n        emit Unpacked(\r\n            msg.sender,\r\n            _tokenId,\r\n            uint8(package.packageType),\r\n            block.timestamp\r\n        );\r\n    }\r\n\r\n    /**\r\n     * @dev Identify an address is user address or contract address\r\n     */\r\n    function isContract(address _address) private view returns (bool) {\r\n        uint32 size;\r\n        assembly {\r\n            size := extcodesize(_address)\r\n        }\r\n        return (size > 0);\r\n    }\r\n\r\n    function getPackagesCount()\r\n        external\r\n        view\r\n        returns (\r\n            uint32 _firstPackageCount,\r\n            uint32 _secondPackageCount,\r\n            uint32 _thirdPackageCount\r\n        )\r\n    {\r\n        _firstPackageCount = firstPackageCount;\r\n        _secondPackageCount = secondPackageCount;\r\n        _thirdPackageCount = thirdPackageCount;\r\n    }\r\n\r\n    function getPackage(uint256 _id)\r\n        public\r\n        view\r\n        returns (Package memory package)\r\n    {\r\n        package = packages[_id - 1];\r\n    }\r\n\r\n    function transferFrom(\r\n        address _from,\r\n        address _receiver,\r\n        uint256 _tokenId\r\n    ) public override nonReentrant {\r\n        require(!banBlackList[_from], \"address-blacklisted\");\r\n        require(!banBlackList[_receiver], \"address-blacklisted\");\r\n\r\n        super.transferFrom(_from, _receiver, _tokenId);\r\n    }\r\n}\r\n",
  "sourcePath": "E:\\MekaMiners\\contracts\\PiecePackage.sol",
  "compiler": {
    "name": "solc",
    "version": "0.8.11+commit.d7f03943.Emscripten.clang"
  },
  "schemaVersion": "3.4.3",
  "updatedAt": "2021-12-21T20:48:44.488Z",
  "networkType": "ethereum",
  "devdoc": {
    "kind": "dev",
    "methods": {
      "_pause()": {
        "details": "called by the owner to pause, triggers stopped state"
      },
      "_unpause()": {
        "details": "called by the owner to unpause, returns to normal state"
      },
      "approve(address,uint256)": {
        "details": "See {IERC721-approve}."
      },
      "balanceOf(address)": {
        "details": "See {IERC721-balanceOf}."
      },
      "baseURI()": {
        "details": "Returns the base URI set via {_setBaseURI}. This will be automatically added as a prefix in {tokenURI} to each token's URI, or to the token ID if no specific URI is set for that token ID."
      },
      "getApproved(uint256)": {
        "details": "See {IERC721-getApproved}."
      },
      "isApprovedForAll(address,address)": {
        "details": "See {IERC721-isApprovedForAll}."
      },
      "isOwner()": {
        "details": "Returns true if the caller is the current owner."
      },
      "name()": {
        "details": "See {IERC721Metadata-name}."
      },
      "owner()": {
        "details": "Returns the address of the current owner."
      },
      "ownerOf(uint256)": {
        "details": "See {IERC721-ownerOf}."
      },
      "renounceOwnership()": {
        "details": "Leaves the contract without owner. It will not be possible to call `onlyOwner` functions anymore. Can only be called by the current owner. NOTE: Renouncing ownership will leave the contract without an owner, thereby removing any functionality that is only available to the owner."
      },
      "safeTransferFrom(address,address,uint256)": {
        "details": "See {IERC721-safeTransferFrom}."
      },
      "safeTransferFrom(address,address,uint256,bytes)": {
        "details": "See {IERC721-safeTransferFrom}."
      },
      "setApprovalForAll(address,bool)": {
        "details": "See {IERC721-setApprovalForAll}."
      },
      "supportsInterface(bytes4)": {
        "details": "See {IERC165-supportsInterface}. Time complexity O(1), guaranteed to always use less than 30 000 gas."
      },
      "symbol()": {
        "details": "See {IERC721Metadata-symbol}."
      },
      "tokenByIndex(uint256)": {
        "details": "See {IERC721Enumerable-tokenByIndex}."
      },
      "tokenOfOwner(address)": {
        "details": "See {IERC721Enumerable-tokenOfOwner}."
      },
      "tokenOfOwnerByIndex(address,uint256)": {
        "details": "See {IERC721Enumerable-tokenOfOwnerByIndex}."
      },
      "tokenURI(uint256)": {
        "details": "See {IERC721Metadata-tokenURI}."
      },
      "totalSupply()": {
        "details": "See {IERC721Enumerable-totalSupply}."
      },
      "transferOwnership(address)": {
        "details": "Transfers ownership of the contract to a new account (`newOwner`). Can only be called by the current owner."
      }
    },
    "stateVariables": {
      "packages": {
        "details": "An array containing the Piece struct for all pieces in existence. The ID  of each Piece is actually an index into this array."
      }
    },
    "version": 1
  },
  "userdoc": {
    "kind": "user",
    "methods": {},
    "version": 1
  }
}