{
  "contractName": "PiecePackage",
  "abi": [
    {
      "inputs": [],
      "stateMutability": "nonpayable",
      "type": "constructor"
    },
    {
      "anonymous": false,
      "inputs": [
        {
          "indexed": true,
          "internalType": "address",
          "name": "owner",
          "type": "address"
        },
        {
          "indexed": true,
          "internalType": "address",
          "name": "approved",
          "type": "address"
        },
        {
          "indexed": true,
          "internalType": "uint256",
          "name": "tokenId",
          "type": "uint256"
        }
      ],
      "name": "Approval",
      "type": "event"
    },
    {
      "anonymous": false,
      "inputs": [
        {
          "indexed": true,
          "internalType": "address",
          "name": "owner",
          "type": "address"
        },
        {
          "indexed": true,
          "internalType": "address",
          "name": "operator",
          "type": "address"
        },
        {
          "indexed": false,
          "internalType": "bool",
          "name": "approved",
          "type": "bool"
        }
      ],
      "name": "ApprovalForAll",
      "type": "event"
    },
    {
      "anonymous": false,
      "inputs": [
        {
          "indexed": false,
          "internalType": "address",
          "name": "owner",
          "type": "address"
        },
        {
          "indexed": false,
          "internalType": "uint256",
          "name": "tokenId",
          "type": "uint256"
        },
        {
          "indexed": false,
          "internalType": "uint256",
          "name": "date",
          "type": "uint256"
        }
      ],
      "name": "Birth",
      "type": "event"
    },
    {
      "anonymous": false,
      "inputs": [
        {
          "indexed": false,
          "internalType": "address",
          "name": "from",
          "type": "address"
        },
        {
          "indexed": false,
          "internalType": "uint256[]",
          "name": "pieceId",
          "type": "uint256[]"
        },
        {
          "indexed": false,
          "internalType": "uint256",
          "name": "date",
          "type": "uint256"
        }
      ],
      "name": "MintedPieceFromBundle",
      "type": "event"
    },
    {
      "anonymous": false,
      "inputs": [
        {
          "indexed": true,
          "internalType": "address",
          "name": "previousOwner",
          "type": "address"
        },
        {
          "indexed": true,
          "internalType": "address",
          "name": "newOwner",
          "type": "address"
        }
      ],
      "name": "OwnershipTransferred",
      "type": "event"
    },
    {
      "anonymous": false,
      "inputs": [
        {
          "indexed": false,
          "internalType": "address",
          "name": "to",
          "type": "address"
        },
        {
          "indexed": false,
          "internalType": "uint256",
          "name": "packId",
          "type": "uint256"
        },
        {
          "indexed": false,
          "internalType": "uint8",
          "name": "packageType",
          "type": "uint8"
        },
        {
          "indexed": false,
          "internalType": "uint256",
          "name": "date",
          "type": "uint256"
        },
        {
          "indexed": false,
          "internalType": "bool",
          "name": "isPresale",
          "type": "bool"
        }
      ],
      "name": "PackageCreated",
      "type": "event"
    },
    {
      "anonymous": false,
      "inputs": [],
      "name": "Pause",
      "type": "event"
    },
    {
      "anonymous": false,
      "inputs": [
        {
          "indexed": true,
          "internalType": "address",
          "name": "from",
          "type": "address"
        },
        {
          "indexed": true,
          "internalType": "address",
          "name": "to",
          "type": "address"
        },
        {
          "indexed": true,
          "internalType": "uint256",
          "name": "tokenId",
          "type": "uint256"
        }
      ],
      "name": "Transfer",
      "type": "event"
    },
    {
      "anonymous": false,
      "inputs": [
        {
          "indexed": false,
          "internalType": "address",
          "name": "from",
          "type": "address"
        },
        {
          "indexed": false,
          "internalType": "uint256",
          "name": "packId",
          "type": "uint256"
        },
        {
          "indexed": false,
          "internalType": "uint8",
          "name": "packageType",
          "type": "uint8"
        },
        {
          "indexed": false,
          "internalType": "uint256",
          "name": "date",
          "type": "uint256"
        }
      ],
      "name": "Unpacked",
      "type": "event"
    },
    {
      "anonymous": false,
      "inputs": [],
      "name": "Unpause",
      "type": "event"
    },
    {
      "inputs": [],
      "name": "_mekaAddress",
      "outputs": [
        {
          "internalType": "address",
          "name": "",
          "type": "address"
        }
      ],
      "stateMutability": "view",
      "type": "function",
      "constant": true
    },
    {
      "inputs": [],
      "name": "_pause",
      "outputs": [
        {
          "internalType": "bool",
          "name": "",
          "type": "bool"
        }
      ],
      "stateMutability": "nonpayable",
      "type": "function"
    },
    {
      "inputs": [],
      "name": "_pieceAddress",
      "outputs": [
        {
          "internalType": "address",
          "name": "",
          "type": "address"
        }
      ],
      "stateMutability": "view",
      "type": "function",
      "constant": true
    },
    {
      "inputs": [],
      "name": "_unpause",
      "outputs": [
        {
          "internalType": "bool",
          "name": "",
          "type": "bool"
        }
      ],
      "stateMutability": "nonpayable",
      "type": "function"
    },
    {
      "inputs": [
        {
          "internalType": "address",
          "name": "to",
          "type": "address"
        },
        {
          "internalType": "uint256",
          "name": "tokenId",
          "type": "uint256"
        }
      ],
      "name": "approve",
      "outputs": [],
      "stateMutability": "nonpayable",
      "type": "function"
    },
    {
      "inputs": [
        {
          "internalType": "address",
          "name": "owner",
          "type": "address"
        }
      ],
      "name": "balanceOf",
      "outputs": [
        {
          "internalType": "uint256",
          "name": "",
          "type": "uint256"
        }
      ],
      "stateMutability": "view",
      "type": "function",
      "constant": true
    },
    {
      "inputs": [],
      "name": "baseURI",
      "outputs": [
        {
          "internalType": "string",
          "name": "",
          "type": "string"
        }
      ],
      "stateMutability": "view",
      "type": "function",
      "constant": true
    },
    {
      "inputs": [],
      "name": "canUnpack",
      "outputs": [
        {
          "internalType": "bool",
          "name": "",
          "type": "bool"
        }
      ],
      "stateMutability": "view",
      "type": "function",
      "constant": true
    },
    {
      "inputs": [
        {
          "internalType": "uint256",
          "name": "tokenId",
          "type": "uint256"
        }
      ],
      "name": "getApproved",
      "outputs": [
        {
          "internalType": "address",
          "name": "",
          "type": "address"
        }
      ],
      "stateMutability": "view",
      "type": "function",
      "constant": true
    },
    {
      "inputs": [
        {
          "internalType": "address",
          "name": "owner",
          "type": "address"
        },
        {
          "internalType": "address",
          "name": "operator",
          "type": "address"
        }
      ],
      "name": "isApprovedForAll",
      "outputs": [
        {
          "internalType": "bool",
          "name": "",
          "type": "bool"
        }
      ],
      "stateMutability": "view",
      "type": "function",
      "constant": true
    },
    {
      "inputs": [],
      "name": "isOwner",
      "outputs": [
        {
          "internalType": "bool",
          "name": "",
          "type": "bool"
        }
      ],
      "stateMutability": "view",
      "type": "function",
      "constant": true
    },
    {
      "inputs": [],
      "name": "isPackageAvailable",
      "outputs": [
        {
          "internalType": "bool",
          "name": "",
          "type": "bool"
        }
      ],
      "stateMutability": "view",
      "type": "function",
      "constant": true
    },
    {
      "inputs": [],
      "name": "name",
      "outputs": [
        {
          "internalType": "string",
          "name": "",
          "type": "string"
        }
      ],
      "stateMutability": "view",
      "type": "function",
      "constant": true
    },
    {
      "inputs": [],
      "name": "owner",
      "outputs": [
        {
          "internalType": "address",
          "name": "",
          "type": "address"
        }
      ],
      "stateMutability": "view",
      "type": "function",
      "constant": true
    },
    {
      "inputs": [
        {
          "internalType": "uint256",
          "name": "tokenId",
          "type": "uint256"
        }
      ],
      "name": "ownerOf",
      "outputs": [
        {
          "internalType": "address",
          "name": "",
          "type": "address"
        }
      ],
      "stateMutability": "view",
      "type": "function",
      "constant": true
    },
    {
      "inputs": [],
      "name": "paused",
      "outputs": [
        {
          "internalType": "bool",
          "name": "",
          "type": "bool"
        }
      ],
      "stateMutability": "view",
      "type": "function",
      "constant": true
    },
    {
      "inputs": [],
      "name": "renounceOwnership",
      "outputs": [],
      "stateMutability": "nonpayable",
      "type": "function"
    },
    {
      "inputs": [
        {
          "internalType": "address",
          "name": "from",
          "type": "address"
        },
        {
          "internalType": "address",
          "name": "to",
          "type": "address"
        },
        {
          "internalType": "uint256",
          "name": "tokenId",
          "type": "uint256"
        }
      ],
      "name": "safeTransferFrom",
      "outputs": [],
      "stateMutability": "nonpayable",
      "type": "function"
    },
    {
      "inputs": [
        {
          "internalType": "address",
          "name": "from",
          "type": "address"
        },
        {
          "internalType": "address",
          "name": "to",
          "type": "address"
        },
        {
          "internalType": "uint256",
          "name": "tokenId",
          "type": "uint256"
        },
        {
          "internalType": "bytes",
          "name": "_data",
          "type": "bytes"
        }
      ],
      "name": "safeTransferFrom",
      "outputs": [],
      "stateMutability": "nonpayable",
      "type": "function"
    },
    {
      "inputs": [
        {
          "internalType": "address",
          "name": "operator",
          "type": "address"
        },
        {
          "internalType": "bool",
          "name": "approved",
          "type": "bool"
        }
      ],
      "name": "setApprovalForAll",
      "outputs": [],
      "stateMutability": "nonpayable",
      "type": "function"
    },
    {
      "inputs": [
        {
          "internalType": "bytes4",
          "name": "interfaceId",
          "type": "bytes4"
        }
      ],
      "name": "supportsInterface",
      "outputs": [
        {
          "internalType": "bool",
          "name": "",
          "type": "bool"
        }
      ],
      "stateMutability": "view",
      "type": "function",
      "constant": true
    },
    {
      "inputs": [],
      "name": "symbol",
      "outputs": [
        {
          "internalType": "string",
          "name": "",
          "type": "string"
        }
      ],
      "stateMutability": "view",
      "type": "function",
      "constant": true
    },
    {
      "inputs": [
        {
          "internalType": "uint256",
          "name": "index",
          "type": "uint256"
        }
      ],
      "name": "tokenByIndex",
      "outputs": [
        {
          "internalType": "uint256",
          "name": "",
          "type": "uint256"
        }
      ],
      "stateMutability": "view",
      "type": "function",
      "constant": true
    },
    {
      "inputs": [
        {
          "internalType": "address",
          "name": "owner",
          "type": "address"
        }
      ],
      "name": "tokenOfOwner",
      "outputs": [
        {
          "internalType": "uint256[]",
          "name": "",
          "type": "uint256[]"
        }
      ],
      "stateMutability": "view",
      "type": "function",
      "constant": true
    },
    {
      "inputs": [
        {
          "internalType": "address",
          "name": "owner",
          "type": "address"
        },
        {
          "internalType": "uint256",
          "name": "index",
          "type": "uint256"
        }
      ],
      "name": "tokenOfOwnerByIndex",
      "outputs": [
        {
          "internalType": "uint256",
          "name": "",
          "type": "uint256"
        }
      ],
      "stateMutability": "view",
      "type": "function",
      "constant": true
    },
    {
      "inputs": [
        {
          "internalType": "uint256",
          "name": "tokenId",
          "type": "uint256"
        }
      ],
      "name": "tokenURI",
      "outputs": [
        {
          "internalType": "string",
          "name": "",
          "type": "string"
        }
      ],
      "stateMutability": "view",
      "type": "function",
      "constant": true
    },
    {
      "inputs": [],
      "name": "totalSupply",
      "outputs": [
        {
          "internalType": "uint256",
          "name": "",
          "type": "uint256"
        }
      ],
      "stateMutability": "view",
      "type": "function",
      "constant": true
    },
    {
      "inputs": [
        {
          "internalType": "address",
          "name": "newOwner",
          "type": "address"
        }
      ],
      "name": "transferOwnership",
      "outputs": [],
      "stateMutability": "nonpayable",
      "type": "function"
    },
    {
      "inputs": [
        {
          "internalType": "uint32",
          "name": "quantity",
          "type": "uint32"
        }
      ],
      "name": "setFirstPackageLimit",
      "outputs": [],
      "stateMutability": "nonpayable",
      "type": "function"
    },
    {
      "inputs": [
        {
          "internalType": "uint32",
          "name": "quantity",
          "type": "uint32"
        }
      ],
      "name": "setSecondPackageLimit",
      "outputs": [],
      "stateMutability": "nonpayable",
      "type": "function"
    },
    {
      "inputs": [
        {
          "internalType": "uint32",
          "name": "quantity",
          "type": "uint32"
        }
      ],
      "name": "setThirdPackageLimit",
      "outputs": [],
      "stateMutability": "nonpayable",
      "type": "function"
    },
    {
      "inputs": [
        {
          "internalType": "enum PiecePackage.PackageType",
          "name": "_packageType",
          "type": "uint8"
        },
        {
          "internalType": "uint8",
          "name": "quantity",
          "type": "uint8"
        }
      ],
      "name": "setPackageTypePieces",
      "outputs": [],
      "stateMutability": "nonpayable",
      "type": "function"
    },
    {
      "inputs": [
        {
          "internalType": "enum PiecePackage.PackageType",
          "name": "_packageType",
          "type": "uint8"
        },
        {
          "internalType": "uint256",
          "name": "amount",
          "type": "uint256"
        }
      ],
      "name": "setPackageTypePrice",
      "outputs": [],
      "stateMutability": "nonpayable",
      "type": "function"
    },
    {
      "inputs": [
        {
          "internalType": "uint256",
          "name": "_price",
          "type": "uint256"
        }
      ],
      "name": "setPiecePackagePrice",
      "outputs": [],
      "stateMutability": "nonpayable",
      "type": "function"
    },
    {
      "inputs": [
        {
          "internalType": "address",
          "name": "_addr",
          "type": "address"
        }
      ],
      "name": "setTokenAddress",
      "outputs": [],
      "stateMutability": "nonpayable",
      "type": "function"
    },
    {
      "inputs": [
        {
          "internalType": "address",
          "name": "_addr",
          "type": "address"
        }
      ],
      "name": "setPieceAddress",
      "outputs": [],
      "stateMutability": "nonpayable",
      "type": "function"
    },
    {
      "inputs": [],
      "name": "updateCanUnpack",
      "outputs": [],
      "stateMutability": "nonpayable",
      "type": "function"
    },
    {
      "inputs": [],
      "name": "updatePackageAvailable",
      "outputs": [],
      "stateMutability": "nonpayable",
      "type": "function"
    },
    {
      "inputs": [],
      "name": "withdrawBalance",
      "outputs": [],
      "stateMutability": "nonpayable",
      "type": "function"
    },
    {
      "inputs": [],
      "name": "withdrawBnb",
      "outputs": [],
      "stateMutability": "nonpayable",
      "type": "function"
    },
    {
      "inputs": [],
      "name": "getBalance",
      "outputs": [
        {
          "internalType": "uint256",
          "name": "",
          "type": "uint256"
        }
      ],
      "stateMutability": "view",
      "type": "function",
      "constant": true
    },
    {
      "inputs": [],
      "name": "getBnbBalance",
      "outputs": [
        {
          "internalType": "uint256",
          "name": "",
          "type": "uint256"
        }
      ],
      "stateMutability": "view",
      "type": "function",
      "constant": true
    },
    {
      "inputs": [],
      "name": "pause",
      "outputs": [],
      "stateMutability": "nonpayable",
      "type": "function"
    },
    {
      "inputs": [],
      "name": "unpause",
      "outputs": [],
      "stateMutability": "nonpayable",
      "type": "function"
    },
    {
      "inputs": [
        {
          "internalType": "enum PiecePackage.PackageType",
          "name": "_packageType",
          "type": "uint8"
        },
        {
          "internalType": "bool",
          "name": "_isPresale",
          "type": "bool"
        }
      ],
      "name": "createPackage",
      "outputs": [],
      "stateMutability": "payable",
      "type": "function",
      "payable": true
    },
    {
      "inputs": [
        {
          "internalType": "address",
          "name": "_owner",
          "type": "address"
        },
        {
          "internalType": "enum PiecePackage.PackageType",
          "name": "_packageType",
          "type": "uint8"
        },
        {
          "internalType": "bool",
          "name": "_isPresale",
          "type": "bool"
        }
      ],
      "name": "createPackageExtra",
      "outputs": [],
      "stateMutability": "nonpayable",
      "type": "function"
    },
    {
      "inputs": [
        {
          "internalType": "uint256",
          "name": "_amount",
          "type": "uint256"
        },
        {
          "internalType": "uint256",
          "name": "_tokenId",
          "type": "uint256"
        }
      ],
      "name": "openPackage",
      "outputs": [],
      "stateMutability": "nonpayable",
      "type": "function"
    },
    {
      "inputs": [],
      "name": "getPackagesCount",
      "outputs": [
        {
          "internalType": "uint32",
          "name": "_firstPackageCount",
          "type": "uint32"
        },
        {
          "internalType": "uint32",
          "name": "_secondPackageCount",
          "type": "uint32"
        },
        {
          "internalType": "uint32",
          "name": "_thirdPackageCount",
          "type": "uint32"
        }
      ],
      "stateMutability": "view",
      "type": "function",
      "constant": true
    },
    {
      "inputs": [
        {
          "internalType": "uint256",
          "name": "_id",
          "type": "uint256"
        }
      ],
      "name": "getPackage",
      "outputs": [
        {
          "components": [
            {
              "internalType": "address",
              "name": "owner",
              "type": "address"
            },
            {
              "internalType": "uint256",
              "name": "packageId",
              "type": "uint256"
            },
            {
              "internalType": "uint8",
              "name": "quantity",
              "type": "uint8"
            },
            {
              "internalType": "enum PiecePackage.PackageType",
              "name": "packageType",
              "type": "uint8"
            },
            {
              "internalType": "uint64",
              "name": "birthTime",
              "type": "uint64"
            }
          ],
          "internalType": "struct PiecePackage.Package",
          "name": "package",
          "type": "tuple"
        }
      ],
      "stateMutability": "view",
      "type": "function",
      "constant": true
    },
    {
      "inputs": [
        {
          "internalType": "address",
          "name": "_from",
          "type": "address"
        },
        {
          "internalType": "address",
          "name": "_receiver",
          "type": "address"
        },
        {
          "internalType": "uint256",
          "name": "_tokenId",
          "type": "uint256"
        }
      ],
      "name": "transferFrom",
      "outputs": [],
      "stateMutability": "nonpayable",
      "type": "function"
    }
  ],
  "bytecode": "0x6080604052600b805460ff60a01b191690556101f460125560138054600160801b600160e01b031916784b000000af00000154000000000000000000000000000000001790556702c68af0bb1400006014556706f05b59d3b20000601555670c7d713b49da00006016556001601755674563918244f400006018553480156200008757600080fd5b50604080518082018252600d81526c4d656b61626f7420506965636560981b6020808301919091528251808401909352600c83526b4d656b615069656365506b6760a01b9083015290620000e26301ffc9a760e01b62000204565b8151620000f7906007906020850190620003ba565b5080516200010d906008906020840190620003ba565b50620001206380ac58cd60e01b62000204565b62000132635b5e139f60e01b62000204565b6200014463780e9d6360e01b62000204565b5050600b80546001600160a01b0319163390811790915560405181906000907f8be0079c531659141344cd1fd0a4f28419497f9722a3daafe3b4186f6b6457e0908290a3506001600c8190556019805461ffff19169055601454620001aa919062000289565b620001bf60026015546200028960201b60201c565b620001d460036016546200028960201b60201c565b620001e26001600262000317565b620001f06002600462000317565b620001fe6003600662000317565b620004b3565b6001600160e01b03198082161415620002645760405162461bcd60e51b815260206004820152601c60248201527f4552433136353a20696e76616c696420696e746572666163652069640000000060448201526064015b60405180910390fd5b6001600160e01b0319166000908152602081905260409020805460ff19166001179055565b600b546001600160a01b03163314620002d45760405162461bcd60e51b8152602060048201819052602482015260008051602062003df883398151915260448201526064016200025b565b8060106000846003811115620002ee57620002ee62000460565b600381111562000302576200030262000460565b81526020810191909152604001600020555050565b600b546001600160a01b03163314620003625760405162461bcd60e51b8152602060048201819052602482015260008051602062003df883398151915260448201526064016200025b565b80600f60008460038111156200037c576200037c62000460565b600381111562000390576200039062000460565b815260200190815260200160002060006101000a81548160ff021916908360ff1602179055505050565b828054620003c89062000476565b90600052602060002090601f016020900481019282620003ec576000855562000437565b82601f106200040757805160ff191683800117855562000437565b8280016001018555821562000437579182015b82811115620004375782518255916020019190600101906200041a565b506200044592915062000449565b5090565b5b808211156200044557600081556001016200044a565b634e487b7160e01b600052602160045260246000fd5b600181811c908216806200048b57607f821691505b60208210811415620004ad57634e487b7160e01b600052602260045260246000fd5b50919050565b61393580620004c36000396000f3fe6080604052600436106102c95760003560e01c80636c0360eb11610175578063ac511c3e116100dc578063c87b56dd11610095578063e7d90c731161006f578063e7d90c7314610885578063e985e9c5146108a5578063f2fde38b146108ee578063fc8234cb1461090e57600080fd5b8063c87b56dd14610807578063d41f90b014610827578063d525f5041461086b57600080fd5b8063ac511c3e14610752578063b88d4fde14610772578063b99dfe1814610792578063befc6cc3146107bf578063c201ca8a146107df578063c41e89f5146107f457600080fd5b80638da5cb5b1161012e5780638da5cb5b1461069f5780638f32d59b146106bd57806395d89b41146106dd5780639ae322a9146106f25780639f448edd14610712578063a22cb4651461073257600080fd5b80636c0360eb1461060057806370a0823114610615578063715018a61461063557806378bd80fc1461064a57806379f63c1b1461066a5780638456cb591461068a57600080fd5b806333f5bf3111610234578063570c8e3b116101ed5780635c86ea7c116101c75780635c86ea7c1461058b5780635c975abb146105aa5780635fd8c710146105cb5780636352211e146105e057600080fd5b8063570c8e3b1461053657806357962e9e1461054b5780635aeaf14c1461056b57600080fd5b806333f5bf31146104885780633f4ba83a1461049b57806342842e0e146104b057806347049c84146104d05780634986a917146104f65780634f6ccce71461051657600080fd5b80631da0603a116102865780631da0603a146103d157806323b872dd146103e657806326a4e8d214610406578063294cdf0d146104265780632f745c5914610453578063320b2ad91461047357600080fd5b806301ffc9a7146102ce57806306fdde031461031d578063081812fc1461033f578063095ea7b31461037757806312065fe01461039957806318160ddd146103bc575b600080fd5b3480156102da57600080fd5b506103086102e936600461303f565b6001600160e01b03191660009081526020819052604090205460ff1690565b60405190151581526020015b60405180910390f35b34801561032957600080fd5b50610332610923565b60405161031491906130b4565b34801561034b57600080fd5b5061035f61035a3660046130c7565b6109b5565b6040516001600160a01b039091168152602001610314565b34801561038357600080fd5b506103976103923660046130fc565b610a42565b005b3480156103a557600080fd5b506103ae610b58565b604051908152602001610314565b3480156103c857600080fd5b506103ae610bd0565b3480156103dd57600080fd5b50610397610bdc565b3480156103f257600080fd5b50610397610401366004613126565b610cb6565b34801561041257600080fd5b50610397610421366004613162565b610de1565b34801561043257600080fd5b50610446610441366004613162565b610e35565b604051610314919061317d565b34801561045f57600080fd5b506103ae61046e3660046130fc565b610f21565b34801561047f57600080fd5b50610308610f4c565b34801561049457600080fd5b50476103ae565b3480156104a757600080fd5b50610397610fd2565b3480156104bc57600080fd5b506103976104cb366004613126565b61101d565b3480156104dc57600080fd5b5060195461035f906201000090046001600160a01b031681565b34801561050257600080fd5b506103976105113660046131c1565b611038565b34801561052257600080fd5b506103ae6105313660046130c7565b611088565b34801561054257600080fd5b5061039761109e565b34801561055757600080fd5b50601a5461035f906001600160a01b031681565b34801561057757600080fd5b506103976105863660046131e7565b6110e5565b34801561059757600080fd5b5060195461030890610100900460ff1681565b3480156105b657600080fd5b50600b5461030890600160a01b900460ff1681565b3480156105d757600080fd5b50610397611423565b3480156105ec57600080fd5b5061035f6105fb3660046130c7565b6114ee565b34801561060c57600080fd5b50610332611516565b34801561062157600080fd5b506103ae610630366004613162565b611525565b34801561064157600080fd5b506103976115b1565b34801561065657600080fd5b506103976106653660046130c7565b611625565b34801561067657600080fd5b506103976106853660046131c1565b611654565b34801561069657600080fd5b506103976116a4565b3480156106ab57600080fd5b50600b546001600160a01b031661035f565b3480156106c957600080fd5b50600b546001600160a01b03163314610308565b3480156106e957600080fd5b506103326116ed565b3480156106fe57600080fd5b5061039761070d366004613226565b6116fc565b34801561071e57600080fd5b5061039761072d36600461326d565b6117f8565b34801561073e57600080fd5b5061039761074d3660046132aa565b611874565b34801561075e57600080fd5b5061039761076d3660046132d6565b611939565b34801561077e57600080fd5b5061039761078d366004613308565b6119a0565b34801561079e57600080fd5b506107b26107ad3660046130c7565b6119d8565b60405161031491906133fa565b3480156107cb57600080fd5b506103976107da3660046131c1565b611abd565b3480156107eb57600080fd5b50610397611b0d565b610397610802366004613467565b611b4b565b34801561081357600080fd5b506103326108223660046130c7565b611f48565b34801561083357600080fd5b506013546040805163ffffffff8084168252640100000000840481166020830152600160401b90930490921690820152606001610314565b34801561087757600080fd5b506019546103089060ff1681565b34801561089157600080fd5b506103976108a0366004613162565b6120b9565b3480156108b157600080fd5b506103086108c0366004613483565b6001600160a01b03918216600090815260066020908152604080832093909416825291909152205460ff1690565b3480156108fa57600080fd5b50610397610909366004613162565b612105565b34801561091a57600080fd5b50610308612138565b606060078054610932906134b6565b80601f016020809104026020016040519081016040528092919081815260200182805461095e906134b6565b80156109ab5780601f10610980576101008083540402835291602001916109ab565b820191906000526020600020905b81548152906001019060200180831161098e57829003601f168201915b5050505050905090565b60006109c0826121b7565b610a265760405162461bcd60e51b815260206004820152602c60248201527f4552433732313a20617070726f76656420717565727920666f72206e6f6e657860448201526b34b9ba32b73a103a37b5b2b760a11b60648201526084015b60405180910390fd5b506000908152600560205260409020546001600160a01b031690565b6000610a4d826114ee565b9050806001600160a01b0316836001600160a01b03161415610abb5760405162461bcd60e51b815260206004820152602160248201527f4552433732313a20617070726f76616c20746f2063757272656e74206f776e656044820152603960f91b6064820152608401610a1d565b336001600160a01b0382161480610ad75750610ad781336108c0565b610b495760405162461bcd60e51b815260206004820152603860248201527f4552433732313a20617070726f76652063616c6c6572206973206e6f74206f7760448201527f6e6572206e6f7220617070726f76656420666f7220616c6c00000000000000006064820152608401610a1d565b610b5383836121c4565b505050565b6019546040516370a0823160e01b81523060048201526000916201000090046001600160a01b0316906370a0823190602401602060405180830381865afa158015610ba7573d6000803e3d6000fd5b505050506040513d601f19601f82011682018060405250810190610bcb91906134f1565b905090565b6000610bcb6002612232565b600b546001600160a01b03163314610c065760405162461bcd60e51b8152600401610a1d9061350a565b476000610c1b600b546001600160a01b031690565b6001600160a01b03168260405160006040518083038185875af1925050503d8060008114610c65576040519150601f19603f3d011682016040523d82523d6000602084013e610c6a565b606091505b5050905080610cb25760405162461bcd60e51b81526020600482015260146024820152732330b4b632b2103a379039b2b7321022ba3432b960611b6044820152606401610a1d565b5050565b6002600c541415610d095760405162461bcd60e51b815260206004820152601f60248201527f5265656e7472616e637947756172643a207265656e7472616e742063616c6c006044820152606401610a1d565b6002600c556001600160a01b03831660009081526011602052604090205460ff1615610d6d5760405162461bcd60e51b81526020600482015260136024820152721859191c995cdccb589b1858dadb1a5cdd1959606a1b6044820152606401610a1d565b6001600160a01b03821660009081526011602052604090205460ff1615610dcc5760405162461bcd60e51b81526020600482015260136024820152721859191c995cdccb589b1858dadb1a5cdd1959606a1b6044820152606401610a1d565b610dd783838361223d565b50506001600c5550565b600b546001600160a01b03163314610e0b5760405162461bcd60e51b8152600401610a1d9061350a565b601980546001600160a01b03909216620100000262010000600160b01b0319909216919091179055565b6001600160a01b038116600090815260016020526040812060609190610e5a9061226e565b67ffffffffffffffff811115610e7257610e726132f2565b604051908082528060200260200182016040528015610e9b578160200160208202803683370190505b50905060005b6001600160a01b0384166000908152600160205260409020610ec29061226e565b811015610f1a576001600160a01b0384166000908152600160205260409020610eeb9082612278565b828281518110610efd57610efd61353f565b602090810291909101015280610f128161356b565b915050610ea1565b5092915050565b6001600160a01b0382166000908152600160205260408120610f439083612278565b90505b92915050565b600b546000906001600160a01b03163314610f795760405162461bcd60e51b8152600401610a1d9061350a565b600b54600160a01b900460ff1615610f9057600080fd5b600b805460ff60a01b1916600160a01b1790556040517f6985a02210a168e66602d3235cb6db0e70f92b3ba4d376a33c0f3d9434bff62590600090a150600190565b600b54600160a01b900460ff16610fe857600080fd5b600b546001600160a01b031633146110125760405162461bcd60e51b8152600401610a1d9061350a565b61101a612138565b50565b610b53838383604051806020016040528060008152506119a0565b600b546001600160a01b031633146110625760405162461bcd60e51b8152600401610a1d9061350a565b6013805463ffffffff909216600160801b0263ffffffff60801b19909216919091179055565b600080611096600284612284565b509392505050565b600b546001600160a01b031633146110c85760405162461bcd60e51b8152600401610a1d9061350a565b6019805461ff001981166101009182900460ff1615909102179055565b60195460ff166111265760405162461bcd60e51b815260206004820152600c60248201526b31b0b7103737ba1037b832b760a11b6044820152606401610a1d565b600b54600160a01b900460ff161561113d57600080fd5b33611147826114ee565b6001600160a01b03161461118d5760405162461bcd60e51b815260206004820152600d60248201526c3737ba103a34329037bbb732b960991b6044820152606401610a1d565b6018548210156111d05760405162461bcd60e51b815260206004820152600e60248201526d1253959053125108105353d5539560921b6044820152606401610a1d565b6019546040516323b872dd60e01b815233600482015230602482015260448101849052620100009091046001600160a01b0316906323b872dd906064016020604051808303816000875af115801561122c573d6000803e3d6000fd5b505050506040513d601f19601f820116820180604052508101906112509190613586565b61125957600080fd5b6000600d6112686001846135a3565b815481106112785761127861353f565b60009182526020918290206040805160a081018252600393840290920180546001600160a01b03168352600181015494830194909452600284015460ff8082169284019290925291939260608501926101009004909116908111156112df576112df6133e4565b60038111156112f0576112f06133e4565b81526002919091015462010000900467ffffffffffffffff16602090910152601a5460608201519192506001600160a01b031690636fed42d2903390600381111561133d5761133d6133e4565b60408086015190516001600160e01b031960e086901b1681526001600160a01b03909316600484015260ff9182166024840152166044820152606401600060405180830381600087803b15801561139357600080fd5b505af11580156113a7573d6000803e3d6000fd5b505050506113b4826122a0565b7f0bf4c6d3c4b37474b167ca1251166f61a1ad24afe4d0bee7834b830938bee6b93383836060015160038111156113ed576113ed6133e4565b604080516001600160a01b039094168452602084019290925260ff169082015242606082015260800160405180910390a1505050565b600b546001600160a01b0316331461144d5760405162461bcd60e51b8152600401610a1d9061350a565b6019546001600160a01b03620100009091041663a9059cbb611477600b546001600160a01b031690565b61147f610b58565b6040516001600160e01b031960e085901b1681526001600160a01b03909216600483015260248201526044016020604051808303816000875af11580156114ca573d6000803e3d6000fd5b505050506040513d601f19601f8201168201806040525081019061101a9190613586565b6000610f46826040518060600160405280602981526020016138b7602991396002919061231d565b6060600a8054610932906134b6565b60006001600160a01b0382166115905760405162461bcd60e51b815260206004820152602a60248201527f4552433732313a2062616c616e636520717565727920666f7220746865207a65604482015269726f206164647265737360b01b6064820152608401610a1d565b6001600160a01b0382166000908152600160205260409020610f469061226e565b600b546001600160a01b031633146115db5760405162461bcd60e51b8152600401610a1d9061350a565b600b546040516000916001600160a01b0316907f8be0079c531659141344cd1fd0a4f28419497f9722a3daafe3b4186f6b6457e0908390a3600b80546001600160a01b0319169055565b600b546001600160a01b0316331461164f5760405162461bcd60e51b8152600401610a1d9061350a565b601855565b600b546001600160a01b0316331461167e5760405162461bcd60e51b8152600401610a1d9061350a565b6013805463ffffffff909216600160a01b0263ffffffff60a01b19909216919091179055565b600b54600160a01b900460ff16156116bb57600080fd5b600b546001600160a01b031633146116e55760405162461bcd60e51b8152600401610a1d9061350a565b61101a610f4c565b606060088054610932906134b6565b600b546001600160a01b031633146117265760405162461bcd60e51b8152600401610a1d9061350a565b600082600381111561173a5761173a6133e4565b141561177a5760405162461bcd60e51b815260206004820152600f60248201526e696e76616c6964207061636b61676560881b6044820152606401610a1d565b6001600160a01b0383166117d05760405162461bcd60e51b815260206004820181905260248201527f4552433732313a206d696e7420746f20746865207a65726f20616464726573736044820152606401610a1d565b6117de836017548484612334565b601780549060006117ee8361356b565b9190505550505050565b600b546001600160a01b031633146118225760405162461bcd60e51b8152600401610a1d9061350a565b80600f6000846003811115611839576118396133e4565b600381111561184a5761184a6133e4565b815260200190815260200160002060006101000a81548160ff021916908360ff1602179055505050565b6001600160a01b0382163314156118cd5760405162461bcd60e51b815260206004820152601960248201527f4552433732313a20617070726f766520746f2063616c6c6572000000000000006044820152606401610a1d565b3360008181526006602090815260408083206001600160a01b03871680855290835292819020805460ff191686151590811790915590519081529192917f17307eab39ab6107e8899845ad3d59bd9653f200f220920489ca2b5937696c31910160405180910390a35050565b600b546001600160a01b031633146119635760405162461bcd60e51b8152600401610a1d9061350a565b806010600084600381111561197a5761197a6133e4565b600381111561198b5761198b6133e4565b81526020810191909152604001600020555050565b6119aa3383612594565b6119c65760405162461bcd60e51b8152600401610a1d906135ba565b6119d28484848461267e565b50505050565b6040805160a081018252600080825260208201819052918101829052606081018290526080810191909152600d611a106001846135a3565b81548110611a2057611a2061353f565b60009182526020918290206040805160a081018252600393840290920180546001600160a01b03168352600181015494830194909452600284015460ff808216928401929092529193926060850192610100900490911690811115611a8757611a876133e4565b6003811115611a9857611a986133e4565b81526002919091015462010000900467ffffffffffffffff1660209091015292915050565b600b546001600160a01b03163314611ae75760405162461bcd60e51b8152600401610a1d9061350a565b6013805463ffffffff909216600160c01b0263ffffffff60c01b19909216919091179055565b600b546001600160a01b03163314611b375760405162461bcd60e51b8152600401610a1d9061350a565b6019805460ff19811660ff90911615179055565b6002600c541415611b9e5760405162461bcd60e51b815260206004820152601f60248201527f5265656e7472616e637947756172643a207265656e7472616e742063616c6c006044820152606401610a1d565b6002600c55601954610100900460ff16611bf05760405162461bcd60e51b81526020600482015260136024820152727061636b61676520756e617661696c61626c6560681b6044820152606401610a1d565b600b54600160a01b900460ff1615611c0757600080fd5b601254336000908152600e602052604090205460ff1610611c615760405162461bcd60e51b81526020600482015260146024820152731dd85b1b195d0b5c1858dad859d94b5b1a5b5a5d60621b6044820152606401610a1d565b333b63ffffffff1615611cad5760405162461bcd60e51b815260206004820152601460248201527318dbdb9d1c9858dd081b9bdd08185b1b1bddd95960621b6044820152606401610a1d565b6000826003811115611cc157611cc16133e4565b1415611d015760405162461bcd60e51b815260206004820152600f60248201526e696e76616c6964207061636b61676560881b6044820152606401610a1d565b60106000836003811115611d1757611d176133e4565b6003811115611d2857611d286133e4565b8152602001908152602001600020543414611d765760405162461bcd60e51b815260206004820152600e60248201526d1253959053125108105353d5539560921b6044820152606401610a1d565b6001826003811115611d8a57611d8a6133e4565b1415611dfa5760135463ffffffff600160801b82048116911610611dc05760405162461bcd60e51b8152600401610a1d9061360b565b6013805463ffffffff16906000611dd68361362d565b91906101000a81548163ffffffff021916908363ffffffff16021790555050611ede565b6002826003811115611e0e57611e0e6133e4565b1415611e6a5760135463ffffffff600160a01b820481166401000000009092041610611e4c5760405162461bcd60e51b8152600401610a1d9061360b565b60138054640100000000900463ffffffff16906004611dd68361362d565b60135463ffffffff600160c01b82048116600160401b9092041610611ea15760405162461bcd60e51b8152600401610a1d9061360b565b60138054600160401b900463ffffffff16906008611ebe8361362d565b91906101000a81548163ffffffff021916908363ffffffff160217905550505b611eec336017548484612334565b336000908152600e6020526040902054611f0a9060ff166001613651565b336000908152600e60205260408120805460ff191660ff93909316929092179091556017805491611f3a8361356b565b90915550506001600c555050565b6060611f53826121b7565b611fb75760405162461bcd60e51b815260206004820152602f60248201527f4552433732314d657461646174613a2055524920717565727920666f72206e6f60448201526e3732bc34b9ba32b73a103a37b5b2b760891b6064820152608401610a1d565b60008281526009602052604081208054611fd0906134b6565b80601f0160208091040260200160405190810160405280929190818152602001828054611ffc906134b6565b80156120495780601f1061201e57610100808354040283529160200191612049565b820191906000526020600020905b81548152906001019060200180831161202c57829003601f168201915b50505050509050600a805461205d906134b6565b1515905061206b5792915050565b80511561209d57600a81604051602001612086929190613692565b604051602081830303815290604052915050919050565b600a6120a8846126b1565b604051602001612086929190613692565b600b546001600160a01b031633146120e35760405162461bcd60e51b8152600401610a1d9061350a565b601a80546001600160a01b0319166001600160a01b0392909216919091179055565b600b546001600160a01b0316331461212f5760405162461bcd60e51b8152600401610a1d9061350a565b61101a816127c8565b600b546000906001600160a01b031633146121655760405162461bcd60e51b8152600401610a1d9061350a565b600b54600160a01b900460ff1661217b57600080fd5b600b805460ff60a01b191690556040517f7805862f689e2f13df9f062ff482ad3ad112aca9e0847911ed832e158c525b3390600090a150600190565b6000610f46600283612889565b600081815260056020526040902080546001600160a01b0319166001600160a01b03841690811790915581906121f9826114ee565b6001600160a01b03167f8c5be1e5ebec7d5bd14f71427d1e84f3dd0314c0f7b2291e5b200ac8c7c3b92560405160405180910390a45050565b6000610f4682612895565b6122473382612594565b6122635760405162461bcd60e51b8152600401610a1d906135ba565b610b538383836128a0565b6000610f46825490565b6000610f438383612a1a565b60008080806122938686612a44565b9097909650945050505050565b60006122ab826114ee565b90506122b981600084612a6f565b6122c46000836121c4565b6001600160a01b03811660009081526001602052604090206122e69083612a86565b506122f2600283612a92565b5060405182906000906001600160a01b038416906000805160206138e0833981519152908390a45050565b600061232a848484612a9e565b90505b9392505050565b60006040518060a00160405280866001600160a01b03168152602001858152602001600f600086600381111561236c5761236c6133e4565b600381111561237d5761237d6133e4565b81526020808201929092526040016000205460ff168252018460038111156123a7576123a76133e4565b81526020014267ffffffffffffffff1681525090506123d6858560405180602001604052806000815250612ae1565b600d8054600181018255600091909152815160039182027fd7b6990105719101dabeb77144f2a3385c8033acd3af97e9423a695e81ad1eb5810180546001600160a01b039093166001600160a01b031990931692909217825560208401517fd7b6990105719101dabeb77144f2a3385c8033acd3af97e9423a695e81ad1eb682015560408401517fd7b6990105719101dabeb77144f2a3385c8033acd3af97e9423a695e81ad1eb7909101805460ff90921660ff1983168117825560608601518695909361ffff1916909117906101009084908111156124b8576124b86133e4565b021790555060808201518160020160026101000a81548167ffffffffffffffff021916908367ffffffffffffffff16021790555050507f9cd6172b8095a1baebea2053c4f84ef9c9d8a0e013638d24573f908c1e6d07fd8582602001518360600151600381111561252b5761252b6133e4565b604080516001600160a01b039094168452602084019290925260ff1690820152426060820152831515608082015260a00160405180910390a160208101516040516001600160a01b038716906000906000805160206138e0833981519152908290a45050505050565b600061259f826121b7565b6126005760405162461bcd60e51b815260206004820152602c60248201527f4552433732313a206f70657261746f7220717565727920666f72206e6f6e657860448201526b34b9ba32b73a103a37b5b2b760a11b6064820152608401610a1d565b600061260b836114ee565b9050806001600160a01b0316846001600160a01b031614806126465750836001600160a01b031661263b846109b5565b6001600160a01b0316145b8061267657506001600160a01b0380821660009081526006602090815260408083209388168352929052205460ff165b949350505050565b6126898484846128a0565b61269584848484612b14565b6119d25760405162461bcd60e51b8152600401610a1d90613739565b6060816126d55750506040805180820190915260018152600360fc1b602082015290565b8160005b81156126ff57806126e98161356b565b91506126f89050600a836137a1565b91506126d9565b60008167ffffffffffffffff81111561271a5761271a6132f2565b6040519080825280601f01601f191660200182016040528015612744576020820181803683370190505b50905060006127546001846135a3565b90508593505b83156127bf5761276b600a856137b5565b6127769060306137c9565b60f81b8282612784816137e1565b9350815181106127965761279661353f565b60200101906001600160f81b031916908160001a9053506127b8600a856137a1565b935061275a565b50949350505050565b6001600160a01b03811661282d5760405162461bcd60e51b815260206004820152602660248201527f4f776e61626c653a206e6577206f776e657220697320746865207a65726f206160448201526564647265737360d01b6064820152608401610a1d565b600b546040516001600160a01b038084169216907f8be0079c531659141344cd1fd0a4f28419497f9722a3daafe3b4186f6b6457e090600090a3600b80546001600160a01b0319166001600160a01b0392909216919091179055565b6000610f438383612be5565b6000610f468261226e565b826001600160a01b03166128b3826114ee565b6001600160a01b03161461291b5760405162461bcd60e51b815260206004820152602960248201527f4552433732313a207472616e73666572206f6620746f6b656e2074686174206960448201526839903737ba1037bbb760b91b6064820152608401610a1d565b6001600160a01b03821661297d5760405162461bcd60e51b8152602060048201526024808201527f4552433732313a207472616e7366657220746f20746865207a65726f206164646044820152637265737360e01b6064820152608401610a1d565b612988838383612a6f565b6129936000826121c4565b6001600160a01b03831660009081526001602052604090206129b59082612a86565b506001600160a01b03821660009081526001602052604090206129d89082612bf1565b506129e560028284612bfd565b5080826001600160a01b0316846001600160a01b03166000805160206138e083398151915260405160405180910390a4505050565b6000826000018281548110612a3157612a3161353f565b9060005260206000200154905092915050565b60008080612a528585612278565b600081815260029690960160205260409095205494959350505050565b600b54600160a01b900460ff1615610b5357600080fd5b6000610f438383612c13565b6000610f438383612d06565b600082815260028401602052604081205480151580612ac25750612ac28585612be5565b83906127bf5760405162461bcd60e51b8152600401610a1d91906130b4565b612aeb8383612d23565b612af86000848484612b14565b610b535760405162461bcd60e51b8152600401610a1d90613739565b60006001600160a01b0384163b612b2d57506001612676565b6000612bae630a85bd0160e11b33888787604051602401612b5194939291906137f8565b604051602081830303815290604052906001600160e01b0319166020820180516001600160e01b038381831617835250505050604051806060016040528060328152602001613885603291396001600160a01b0388169190612e35565b9050600081806020019051810190612bc69190613835565b6001600160e01b031916630a85bd0160e11b1492505050949350505050565b6000610f438383612e44565b6000610f438383612e5c565b600061232a84846001600160a01b038516612eab565b60008181526001830160205260408120548015612cfc576000612c376001836135a3565b8554909150600090612c4b906001906135a3565b9050818114612cb0576000866000018281548110612c6b57612c6b61353f565b9060005260206000200154905080876000018481548110612c8e57612c8e61353f565b6000918252602080832090910192909255918252600188019052604090208390555b8554869080612cc157612cc1613852565b600190038181906000526020600020016000905590558560010160008681526020019081526020016000206000905560019350505050610f46565b6000915050610f46565b60008181526002830160205260408120819055610f438383612a86565b6001600160a01b038216612d795760405162461bcd60e51b815260206004820181905260248201527f4552433732313a206d696e7420746f20746865207a65726f20616464726573736044820152606401610a1d565b612d82816121b7565b15612dcf5760405162461bcd60e51b815260206004820152601c60248201527f4552433732313a20746f6b656e20616c7265616479206d696e746564000000006044820152606401610a1d565b612ddb60008383612a6f565b6001600160a01b0382166000908152600160205260409020612dfd9082612bf1565b50612e0a60028284612bfd565b5060405181906001600160a01b038416906000906000805160206138e0833981519152908290a45050565b606061232a8484600085612ec8565b60008181526001830160205260408120541515610f43565b6000818152600183016020526040812054612ea357508154600181810184556000848152602080822090930184905584548482528286019093526040902091909155610f46565b506000610f46565b6000828152600284016020526040812082905561232a8484612bf1565b606082471015612f295760405162461bcd60e51b815260206004820152602660248201527f416464726573733a20696e73756666696369656e742062616c616e636520666f6044820152651c8818d85b1b60d21b6064820152608401610a1d565b843b612f775760405162461bcd60e51b815260206004820152601d60248201527f416464726573733a2063616c6c20746f206e6f6e2d636f6e74726163740000006044820152606401610a1d565b600080866001600160a01b03168587604051612f939190613868565b60006040518083038185875af1925050503d8060008114612fd0576040519150601f19603f3d011682016040523d82523d6000602084013e612fd5565b606091505b5091509150612fe5828286612ff0565b979650505050505050565b60608315612fff57508161232d565b82511561300f5782518084602001fd5b8160405162461bcd60e51b8152600401610a1d91906130b4565b6001600160e01b03198116811461101a57600080fd5b60006020828403121561305157600080fd5b813561232d81613029565b60005b8381101561307757818101518382015260200161305f565b838111156119d25750506000910152565b600081518084526130a081602086016020860161305c565b601f01601f19169290920160200192915050565b602081526000610f436020830184613088565b6000602082840312156130d957600080fd5b5035919050565b80356001600160a01b03811681146130f757600080fd5b919050565b6000806040838503121561310f57600080fd5b613118836130e0565b946020939093013593505050565b60008060006060848603121561313b57600080fd5b613144846130e0565b9250613152602085016130e0565b9150604084013590509250925092565b60006020828403121561317457600080fd5b610f43826130e0565b6020808252825182820181905260009190848201906040850190845b818110156131b557835183529284019291840191600101613199565b50909695505050505050565b6000602082840312156131d357600080fd5b813563ffffffff8116811461232d57600080fd5b600080604083850312156131fa57600080fd5b50508035926020909101359150565b8035600481106130f757600080fd5b801515811461101a57600080fd5b60008060006060848603121561323b57600080fd5b613244846130e0565b925061325260208501613209565b9150604084013561326281613218565b809150509250925092565b6000806040838503121561328057600080fd5b61328983613209565b9150602083013560ff8116811461329f57600080fd5b809150509250929050565b600080604083850312156132bd57600080fd5b6132c6836130e0565b9150602083013561329f81613218565b600080604083850312156132e957600080fd5b61311883613209565b634e487b7160e01b600052604160045260246000fd5b6000806000806080858703121561331e57600080fd5b613327856130e0565b9350613335602086016130e0565b925060408501359150606085013567ffffffffffffffff8082111561335957600080fd5b818701915087601f83011261336d57600080fd5b81358181111561337f5761337f6132f2565b604051601f8201601f19908116603f011681019083821181831017156133a7576133a76132f2565b816040528281528a60208487010111156133c057600080fd5b82602086016020830137600060208483010152809550505050505092959194509250565b634e487b7160e01b600052602160045260246000fd5b81516001600160a01b031681526020808301519082015260408083015160ff1690820152606082015160a08201906004811061344657634e487b7160e01b600052602160045260246000fd5b8060608401525067ffffffffffffffff608084015116608083015292915050565b6000806040838503121561347a57600080fd5b6132c683613209565b6000806040838503121561349657600080fd5b61349f836130e0565b91506134ad602084016130e0565b90509250929050565b600181811c908216806134ca57607f821691505b602082108114156134eb57634e487b7160e01b600052602260045260246000fd5b50919050565b60006020828403121561350357600080fd5b5051919050565b6020808252818101527f4f776e61626c653a2063616c6c6572206973206e6f7420746865206f776e6572604082015260600190565b634e487b7160e01b600052603260045260246000fd5b634e487b7160e01b600052601160045260246000fd5b600060001982141561357f5761357f613555565b5060010190565b60006020828403121561359857600080fd5b815161232d81613218565b6000828210156135b5576135b5613555565b500390565b60208082526031908201527f4552433732313a207472616e736665722063616c6c6572206973206e6f74206f6040820152701ddb995c881b9bdc88185c1c1c9bdd9959607a1b606082015260800190565b6020808252600890820152671cdbdb19081bdd5d60c21b604082015260600190565b600063ffffffff8083168181141561364757613647613555565b6001019392505050565b600060ff821660ff84168060ff0382111561366e5761366e613555565b019392505050565b6000815161368881856020860161305c565b9290920192915050565b600080845481600182811c9150808316806136ae57607f831692505b60208084108214156136ce57634e487b7160e01b86526022600452602486fd5b8180156136e257600181146136f357613720565b60ff19861689528489019650613720565b60008b81526020902060005b868110156137185781548b8201529085019083016136ff565b505084890196505b5050505050506137308185613676565b95945050505050565b60208082526032908201527f4552433732313a207472616e7366657220746f206e6f6e20455243373231526560408201527131b2b4bb32b91034b6b83632b6b2b73a32b960711b606082015260800190565b634e487b7160e01b600052601260045260246000fd5b6000826137b0576137b061378b565b500490565b6000826137c4576137c461378b565b500690565b600082198211156137dc576137dc613555565b500190565b6000816137f0576137f0613555565b506000190190565b6001600160a01b038581168252841660208201526040810183905260806060820181905260009061382b90830184613088565b9695505050505050565b60006020828403121561384757600080fd5b815161232d81613029565b634e487b7160e01b600052603160045260246000fd5b6000825161387a81846020870161305c565b919091019291505056fe4552433732313a207472616e7366657220746f206e6f6e20455243373231526563656976657220696d706c656d656e7465724552433732313a206f776e657220717565727920666f72206e6f6e6578697374656e7420746f6b656eddf252ad1be2c89b69c2b068fc378daa952ba7f163c4a11628f55a4df523b3efa264697066735822122054fefb13794300f78e24f85fa687d988aff7ded1362f72471232a984af5554a164736f6c634300080b00334f776e61626c653a2063616c6c6572206973206e6f7420746865206f776e6572",
  "immutableReferences": {},
  "source": "// SPDX-License-Identifier: MIT\r\npragma solidity ^0.8.2;\r\n\r\nimport \"./IBEP20.sol\";\r\nimport \"./IMarketplace.sol\";\r\nimport \"./SafeMath.sol\";\r\nimport \"./Ownable.sol\";\r\nimport \"./AccessControl.sol\";\r\nimport \"./IERC721.sol\";\r\nimport \"./ERC721Pausable.sol\";\r\nimport \"./IPieceCore.sol\";\r\nimport \"./ReentrancyGuard.sol\";\r\n\r\ncontract PiecePackage is Ownable, ERC721Pausable, ReentrancyGuard {\r\n    using SafeMath for uint256;\r\n\r\n    struct Package {\r\n        address owner;\r\n        uint256 packageId; // id of the package\r\n        uint8 quantity; // quantity of pieces in this package\r\n        PackageType packageType; //package type\r\n        uint64 birthTime; // The timestamp from the block when this Piece came into existence.\r\n    }\r\n\r\n    enum PackageType {\r\n        Default,\r\n        First,\r\n        Second,\r\n        Third\r\n    }\r\n\r\n    /*** STORAGE ***/\r\n    /// @dev An array containing the Piece struct for all pieces in existence. The ID\r\n    ///  of each Piece is actually an index into this array.\r\n    Package[] packages;\r\n\r\n    mapping(address => uint8) walletPackages;\r\n    mapping(PackageType => uint8) private _packageTypePieces;\r\n    mapping(PackageType => uint256) private _packageTypePrice;\r\n    mapping(address => bool) private banBlackList;\r\n\r\n    uint256 private totalPackagesOwner = 500;\r\n\r\n    uint32 firstPackageCount;\r\n    uint32 secondPackageCount;\r\n    uint32 thirdPackageCount;\r\n    uint32 fourthPackageCount;\r\n    uint32 firstPackageLimit = 340;\r\n    uint32 secondPackageLimit = 175;\r\n    uint32 thirdPackageLimit = 75;\r\n\r\n    uint256 private priceFirstPackage = 0.2 * 10**18; // to review\r\n    uint256 private priceSecondPackage = 0.5 * 10**18; // to review\r\n    uint256 private priceThirdPackage = 0.9 * 10**18; // to\r\n    uint256 private nextPackageTokenId = 1;\r\n    uint256 private piecePackagePrice = 5 * 10**18; // to review\r\n\r\n    /* SETTABLE VARIABLES */\r\n    bool public canUnpack;\r\n    bool public isPackageAvailable;\r\n    address public _mekaAddress;\r\n    address public _pieceAddress;\r\n\r\n    event PackageCreated(\r\n        address to,\r\n        uint256 packId,\r\n        uint8 packageType,\r\n        uint256 date,\r\n        bool isPresale\r\n    );\r\n    event Unpacked(\r\n        address from,\r\n        uint256 packId,\r\n        uint8 packageType,\r\n        uint256 date\r\n    );\r\n    event MintedPieceFromBundle(address from, uint256[] pieceId, uint256 date);\r\n\r\n    constructor() ERC721(\"Mekabot Piece\", \"MekaPiecePkg\") {\r\n        canUnpack = false;\r\n        isPackageAvailable = false;\r\n\r\n        setPackageTypePrice(PackageType.First, priceFirstPackage);\r\n        setPackageTypePrice(PackageType.Second, priceSecondPackage);\r\n        setPackageTypePrice(PackageType.Third, priceThirdPackage);\r\n        setPackageTypePieces(PackageType.First, 2);\r\n        setPackageTypePieces(PackageType.Second, 4);\r\n        setPackageTypePieces(PackageType.Third, 6);\r\n    }\r\n\r\n    function setFirstPackageLimit(uint32 quantity) external onlyOwner {\r\n        firstPackageLimit = quantity;\r\n    }\r\n\r\n    function setSecondPackageLimit(uint32 quantity) external onlyOwner {\r\n        secondPackageLimit = quantity;\r\n    }\r\n\r\n    function setThirdPackageLimit(uint32 quantity) external onlyOwner {\r\n        thirdPackageLimit = quantity;\r\n    }\r\n\r\n    function setPackageTypePieces(PackageType _packageType, uint8 quantity)\r\n        public\r\n        onlyOwner\r\n    {\r\n        _packageTypePieces[_packageType] = quantity;\r\n    }\r\n\r\n    function setPackageTypePrice(PackageType _packageType, uint256 amount)\r\n        public\r\n        onlyOwner\r\n    {\r\n        _packageTypePrice[_packageType] = amount;\r\n    }\r\n\r\n    function setPiecePackagePrice(uint256 _price) external onlyOwner {\r\n        piecePackagePrice = _price;\r\n    }\r\n\r\n    function setTokenAddress(address _addr) external onlyOwner {\r\n        _mekaAddress = _addr;\r\n    }\r\n\r\n    function setPieceAddress(address _addr) external onlyOwner {\r\n        _pieceAddress = _addr;\r\n    }\r\n\r\n    function updateCanUnpack() external onlyOwner {\r\n        canUnpack = !canUnpack;\r\n    }\r\n\r\n    function updatePackageAvailable() external onlyOwner {\r\n        isPackageAvailable = !isPackageAvailable;\r\n    }\r\n\r\n    modifier canOpen() {\r\n        require(canUnpack, \"can not open\");\r\n        _;\r\n    }\r\n\r\n    modifier packageAvailable() {\r\n        require(isPackageAvailable, \"package unavailable\");\r\n        _;\r\n    }\r\n\r\n    function withdrawBalance() external onlyOwner {\r\n        IBEP20(_mekaAddress).transfer(owner(), getBalance());\r\n    }\r\n\r\n    function withdrawBnb() external onlyOwner {\r\n        uint256 amount = address(this).balance;\r\n\r\n        (bool success, ) = payable(owner()).call{value: amount}(\"\");\r\n        require(success, \"Failed to send Ether\");\r\n    }\r\n\r\n    function getBalance() public view returns (uint256) {\r\n        return IBEP20(_mekaAddress).balanceOf(address(this));\r\n    }\r\n\r\n    function getBnbBalance() public view returns (uint256) {\r\n        return address(this).balance;\r\n    }\r\n\r\n    function pause() external whenNotPaused onlyOwner {\r\n        _pause();\r\n    }\r\n\r\n    function unpause() external whenPaused onlyOwner {\r\n        _unpause();\r\n    }\r\n\r\n    /* Piece PACKAGE */\r\n\r\n    function _mintPackage(\r\n        address _to,\r\n        uint256 _tokenId,\r\n        PackageType _packageType,\r\n        bool isPresale\r\n    ) private {\r\n        Package memory _package = Package({\r\n            owner: _to,\r\n            packageType: _packageType,\r\n            packageId: _tokenId,\r\n            quantity: _packageTypePieces[_packageType],\r\n            birthTime: uint64(block.timestamp)\r\n        });\r\n\r\n        _safeMint(_to, _tokenId, \"\");\r\n        packages.push(_package);\r\n\r\n        emit PackageCreated(\r\n            _to,\r\n            _package.packageId,\r\n            uint8(_package.packageType),\r\n            block.timestamp,\r\n            isPresale\r\n        );\r\n\r\n        emit Transfer(address(0), _to, _package.packageId);\r\n    }\r\n\r\n    function createPackage(PackageType _packageType, bool _isPresale)\r\n        external\r\n        payable\r\n        nonReentrant\r\n        packageAvailable\r\n        whenNotPaused\r\n    {\r\n        require(\r\n            walletPackages[msg.sender] < totalPackagesOwner,\r\n            \"wallet-package-limit\"\r\n        );\r\n        require(!isContract(msg.sender), \"contract not allowed\");\r\n        require(_packageType != PackageType.Default, \"invalid package\");\r\n        require(msg.value == _packageTypePrice[_packageType], \"INVALID AMOUNT\");\r\n\r\n        if (_packageType == PackageType.First) {\r\n            require(firstPackageCount < firstPackageLimit, \"sold out\");\r\n            firstPackageCount++;\r\n        } else if (_packageType == PackageType.Second) {\r\n            require(secondPackageCount < secondPackageLimit, \"sold out\");\r\n            secondPackageCount++;\r\n        } else {\r\n            require(thirdPackageCount < thirdPackageLimit, \"sold out\");\r\n            thirdPackageCount++;\r\n        }\r\n\r\n        _mintPackage(msg.sender, nextPackageTokenId, _packageType, _isPresale);\r\n        walletPackages[msg.sender] = walletPackages[msg.sender] + 1;\r\n        nextPackageTokenId++;\r\n    }\r\n\r\n    function createPackageExtra(\r\n        address _owner,\r\n        PackageType _packageType,\r\n        bool _isPresale\r\n    ) external onlyOwner {\r\n        require(_packageType != PackageType.Default, \"invalid package\");\r\n        require(_owner != address(0), \"ERC721: mint to the zero address\");\r\n\r\n        _mintPackage(_owner, nextPackageTokenId, _packageType, _isPresale);\r\n        nextPackageTokenId++;\r\n    }\r\n\r\n    function openPackage(uint256 _amount, uint256 _tokenId)\r\n        external\r\n        canOpen\r\n        whenNotPaused\r\n    {\r\n        require(ownerOf(_tokenId) == msg.sender, \"not the owner\");\r\n        require(_amount >= piecePackagePrice, \"INVALID AMOUNT\");\r\n        require(\r\n            IBEP20(_mekaAddress).transferFrom(\r\n                msg.sender,\r\n                address(this),\r\n                _amount\r\n            )\r\n        );\r\n        Package memory package = packages[_tokenId - 1];\r\n\r\n        IPieceCore(_pieceAddress).createPieceFromBundle(\r\n            msg.sender,\r\n            uint8(package.packageType),\r\n            package.quantity\r\n        );\r\n\r\n        _burn(_tokenId);\r\n\r\n        emit Unpacked(\r\n            msg.sender,\r\n            _tokenId,\r\n            uint8(package.packageType),\r\n            block.timestamp\r\n        );\r\n    }\r\n\r\n    /**\r\n     * @dev Identify an address is user address or contract address\r\n     */\r\n    function isContract(address _address) private view returns (bool) {\r\n        uint32 size;\r\n        assembly {\r\n            size := extcodesize(_address)\r\n        }\r\n        return (size > 0);\r\n    }\r\n\r\n    function getPackagesCount()\r\n        external\r\n        view\r\n        returns (\r\n            uint32 _firstPackageCount,\r\n            uint32 _secondPackageCount,\r\n            uint32 _thirdPackageCount\r\n        )\r\n    {\r\n        _firstPackageCount = firstPackageCount;\r\n        _secondPackageCount = secondPackageCount;\r\n        _thirdPackageCount = thirdPackageCount;\r\n    }\r\n\r\n    function getPackage(uint256 _id)\r\n        public\r\n        view\r\n        returns (Package memory package)\r\n    {\r\n        package = packages[_id - 1];\r\n    }\r\n\r\n    function transferFrom(\r\n        address _from,\r\n        address _receiver,\r\n        uint256 _tokenId\r\n    ) public override nonReentrant {\r\n        require(!banBlackList[_from], \"address-blacklisted\");\r\n        require(!banBlackList[_receiver], \"address-blacklisted\");\r\n\r\n        super.transferFrom(_from, _receiver, _tokenId);\r\n    }\r\n}\r\n",
  "sourcePath": "E:\\MekaMiners\\contracts\\PiecePackage.sol",
  "compiler": {
    "name": "solc",
    "version": "0.8.11+commit.d7f03943.Emscripten.clang"
  },
  "schemaVersion": "3.4.3",
  "updatedAt": "2022-01-18T23:39:32.758Z",
  "networkType": "ethereum",
  "devdoc": {
    "kind": "dev",
    "methods": {
      "_pause()": {
        "details": "called by the owner to pause, triggers stopped state"
      },
      "_unpause()": {
        "details": "called by the owner to unpause, returns to normal state"
      },
      "approve(address,uint256)": {
        "details": "See {IERC721-approve}."
      },
      "balanceOf(address)": {
        "details": "See {IERC721-balanceOf}."
      },
      "baseURI()": {
        "details": "Returns the base URI set via {_setBaseURI}. This will be automatically added as a prefix in {tokenURI} to each token's URI, or to the token ID if no specific URI is set for that token ID."
      },
      "getApproved(uint256)": {
        "details": "See {IERC721-getApproved}."
      },
      "isApprovedForAll(address,address)": {
        "details": "See {IERC721-isApprovedForAll}."
      },
      "isOwner()": {
        "details": "Returns true if the caller is the current owner."
      },
      "name()": {
        "details": "See {IERC721Metadata-name}."
      },
      "owner()": {
        "details": "Returns the address of the current owner."
      },
      "ownerOf(uint256)": {
        "details": "See {IERC721-ownerOf}."
      },
      "renounceOwnership()": {
        "details": "Leaves the contract without owner. It will not be possible to call `onlyOwner` functions anymore. Can only be called by the current owner. NOTE: Renouncing ownership will leave the contract without an owner, thereby removing any functionality that is only available to the owner."
      },
      "safeTransferFrom(address,address,uint256)": {
        "details": "See {IERC721-safeTransferFrom}."
      },
      "safeTransferFrom(address,address,uint256,bytes)": {
        "details": "See {IERC721-safeTransferFrom}."
      },
      "setApprovalForAll(address,bool)": {
        "details": "See {IERC721-setApprovalForAll}."
      },
      "supportsInterface(bytes4)": {
        "details": "See {IERC165-supportsInterface}. Time complexity O(1), guaranteed to always use less than 30 000 gas."
      },
      "symbol()": {
        "details": "See {IERC721Metadata-symbol}."
      },
      "tokenByIndex(uint256)": {
        "details": "See {IERC721Enumerable-tokenByIndex}."
      },
      "tokenOfOwner(address)": {
        "details": "See {IERC721Enumerable-tokenOfOwner}."
      },
      "tokenOfOwnerByIndex(address,uint256)": {
        "details": "See {IERC721Enumerable-tokenOfOwnerByIndex}."
      },
      "tokenURI(uint256)": {
        "details": "See {IERC721Metadata-tokenURI}."
      },
      "totalSupply()": {
        "details": "See {IERC721Enumerable-totalSupply}."
      },
      "transferOwnership(address)": {
        "details": "Transfers ownership of the contract to a new account (`newOwner`). Can only be called by the current owner."
      }
    },
    "stateVariables": {
      "packages": {
        "details": "An array containing the Piece struct for all pieces in existence. The ID  of each Piece is actually an index into this array."
      }
    },
    "version": 1
  },
  "userdoc": {
    "kind": "user",
    "methods": {},
    "version": 1
  }
}