{
  "contractName": "PiecePackage",
  "abi": [
    {
      "inputs": [],
      "stateMutability": "nonpayable",
      "type": "constructor"
    },
    {
      "anonymous": false,
      "inputs": [
        {
          "indexed": true,
          "internalType": "address",
          "name": "owner",
          "type": "address"
        },
        {
          "indexed": true,
          "internalType": "address",
          "name": "approved",
          "type": "address"
        },
        {
          "indexed": true,
          "internalType": "uint256",
          "name": "tokenId",
          "type": "uint256"
        }
      ],
      "name": "Approval",
      "type": "event"
    },
    {
      "anonymous": false,
      "inputs": [
        {
          "indexed": true,
          "internalType": "address",
          "name": "owner",
          "type": "address"
        },
        {
          "indexed": true,
          "internalType": "address",
          "name": "operator",
          "type": "address"
        },
        {
          "indexed": false,
          "internalType": "bool",
          "name": "approved",
          "type": "bool"
        }
      ],
      "name": "ApprovalForAll",
      "type": "event"
    },
    {
      "anonymous": false,
      "inputs": [
        {
          "indexed": false,
          "internalType": "address",
          "name": "owner",
          "type": "address"
        },
        {
          "indexed": false,
          "internalType": "uint256",
          "name": "tokenId",
          "type": "uint256"
        },
        {
          "indexed": false,
          "internalType": "uint256",
          "name": "date",
          "type": "uint256"
        }
      ],
      "name": "Birth",
      "type": "event"
    },
    {
      "anonymous": false,
      "inputs": [
        {
          "indexed": false,
          "internalType": "address",
          "name": "from",
          "type": "address"
        },
        {
          "indexed": false,
          "internalType": "uint256[]",
          "name": "pieceId",
          "type": "uint256[]"
        },
        {
          "indexed": false,
          "internalType": "uint256",
          "name": "date",
          "type": "uint256"
        }
      ],
      "name": "MintedPieceFromBundle",
      "type": "event"
    },
    {
      "anonymous": false,
      "inputs": [
        {
          "indexed": true,
          "internalType": "address",
          "name": "previousOwner",
          "type": "address"
        },
        {
          "indexed": true,
          "internalType": "address",
          "name": "newOwner",
          "type": "address"
        }
      ],
      "name": "OwnershipTransferred",
      "type": "event"
    },
    {
      "anonymous": false,
      "inputs": [
        {
          "indexed": false,
          "internalType": "address",
          "name": "to",
          "type": "address"
        },
        {
          "indexed": false,
          "internalType": "uint256",
          "name": "packId",
          "type": "uint256"
        },
        {
          "indexed": false,
          "internalType": "uint8",
          "name": "packageType",
          "type": "uint8"
        },
        {
          "indexed": false,
          "internalType": "uint256",
          "name": "date",
          "type": "uint256"
        }
      ],
      "name": "PackageCreated",
      "type": "event"
    },
    {
      "anonymous": false,
      "inputs": [],
      "name": "Pause",
      "type": "event"
    },
    {
      "anonymous": false,
      "inputs": [
        {
          "indexed": true,
          "internalType": "address",
          "name": "from",
          "type": "address"
        },
        {
          "indexed": true,
          "internalType": "address",
          "name": "to",
          "type": "address"
        },
        {
          "indexed": true,
          "internalType": "uint256",
          "name": "tokenId",
          "type": "uint256"
        }
      ],
      "name": "Transfer",
      "type": "event"
    },
    {
      "anonymous": false,
      "inputs": [
        {
          "indexed": false,
          "internalType": "address",
          "name": "from",
          "type": "address"
        },
        {
          "indexed": false,
          "internalType": "uint256",
          "name": "packId",
          "type": "uint256"
        },
        {
          "indexed": false,
          "internalType": "uint8",
          "name": "packageType",
          "type": "uint8"
        },
        {
          "indexed": false,
          "internalType": "uint256",
          "name": "date",
          "type": "uint256"
        }
      ],
      "name": "Unpacked",
      "type": "event"
    },
    {
      "anonymous": false,
      "inputs": [],
      "name": "Unpause",
      "type": "event"
    },
    {
      "inputs": [],
      "name": "_adminAddress",
      "outputs": [
        {
          "internalType": "address",
          "name": "",
          "type": "address"
        }
      ],
      "stateMutability": "view",
      "type": "function",
      "constant": true
    },
    {
      "inputs": [],
      "name": "_mekaAddress",
      "outputs": [
        {
          "internalType": "address",
          "name": "",
          "type": "address"
        }
      ],
      "stateMutability": "view",
      "type": "function",
      "constant": true
    },
    {
      "inputs": [],
      "name": "_pause",
      "outputs": [
        {
          "internalType": "bool",
          "name": "",
          "type": "bool"
        }
      ],
      "stateMutability": "nonpayable",
      "type": "function"
    },
    {
      "inputs": [],
      "name": "_pieceAddress",
      "outputs": [
        {
          "internalType": "address",
          "name": "",
          "type": "address"
        }
      ],
      "stateMutability": "view",
      "type": "function",
      "constant": true
    },
    {
      "inputs": [],
      "name": "_unpause",
      "outputs": [
        {
          "internalType": "bool",
          "name": "",
          "type": "bool"
        }
      ],
      "stateMutability": "nonpayable",
      "type": "function"
    },
    {
      "inputs": [
        {
          "internalType": "address",
          "name": "to",
          "type": "address"
        },
        {
          "internalType": "uint256",
          "name": "tokenId",
          "type": "uint256"
        }
      ],
      "name": "approve",
      "outputs": [],
      "stateMutability": "nonpayable",
      "type": "function"
    },
    {
      "inputs": [
        {
          "internalType": "address",
          "name": "owner",
          "type": "address"
        }
      ],
      "name": "balanceOf",
      "outputs": [
        {
          "internalType": "uint256",
          "name": "",
          "type": "uint256"
        }
      ],
      "stateMutability": "view",
      "type": "function",
      "constant": true
    },
    {
      "inputs": [],
      "name": "baseURI",
      "outputs": [
        {
          "internalType": "string",
          "name": "",
          "type": "string"
        }
      ],
      "stateMutability": "view",
      "type": "function",
      "constant": true
    },
    {
      "inputs": [],
      "name": "canUnpack",
      "outputs": [
        {
          "internalType": "bool",
          "name": "",
          "type": "bool"
        }
      ],
      "stateMutability": "view",
      "type": "function",
      "constant": true
    },
    {
      "inputs": [
        {
          "internalType": "uint256",
          "name": "tokenId",
          "type": "uint256"
        }
      ],
      "name": "getApproved",
      "outputs": [
        {
          "internalType": "address",
          "name": "",
          "type": "address"
        }
      ],
      "stateMutability": "view",
      "type": "function",
      "constant": true
    },
    {
      "inputs": [
        {
          "internalType": "address",
          "name": "owner",
          "type": "address"
        },
        {
          "internalType": "address",
          "name": "operator",
          "type": "address"
        }
      ],
      "name": "isApprovedForAll",
      "outputs": [
        {
          "internalType": "bool",
          "name": "",
          "type": "bool"
        }
      ],
      "stateMutability": "view",
      "type": "function",
      "constant": true
    },
    {
      "inputs": [],
      "name": "isOwner",
      "outputs": [
        {
          "internalType": "bool",
          "name": "",
          "type": "bool"
        }
      ],
      "stateMutability": "view",
      "type": "function",
      "constant": true
    },
    {
      "inputs": [],
      "name": "isPackageAvailable",
      "outputs": [
        {
          "internalType": "bool",
          "name": "",
          "type": "bool"
        }
      ],
      "stateMutability": "view",
      "type": "function",
      "constant": true
    },
    {
      "inputs": [],
      "name": "name",
      "outputs": [
        {
          "internalType": "string",
          "name": "",
          "type": "string"
        }
      ],
      "stateMutability": "view",
      "type": "function",
      "constant": true
    },
    {
      "inputs": [],
      "name": "owner",
      "outputs": [
        {
          "internalType": "address",
          "name": "",
          "type": "address"
        }
      ],
      "stateMutability": "view",
      "type": "function",
      "constant": true
    },
    {
      "inputs": [
        {
          "internalType": "uint256",
          "name": "tokenId",
          "type": "uint256"
        }
      ],
      "name": "ownerOf",
      "outputs": [
        {
          "internalType": "address",
          "name": "",
          "type": "address"
        }
      ],
      "stateMutability": "view",
      "type": "function",
      "constant": true
    },
    {
      "inputs": [],
      "name": "paused",
      "outputs": [
        {
          "internalType": "bool",
          "name": "",
          "type": "bool"
        }
      ],
      "stateMutability": "view",
      "type": "function",
      "constant": true
    },
    {
      "inputs": [],
      "name": "renounceOwnership",
      "outputs": [],
      "stateMutability": "nonpayable",
      "type": "function"
    },
    {
      "inputs": [
        {
          "internalType": "address",
          "name": "from",
          "type": "address"
        },
        {
          "internalType": "address",
          "name": "to",
          "type": "address"
        },
        {
          "internalType": "uint256",
          "name": "tokenId",
          "type": "uint256"
        }
      ],
      "name": "safeTransferFrom",
      "outputs": [],
      "stateMutability": "nonpayable",
      "type": "function"
    },
    {
      "inputs": [
        {
          "internalType": "address",
          "name": "from",
          "type": "address"
        },
        {
          "internalType": "address",
          "name": "to",
          "type": "address"
        },
        {
          "internalType": "uint256",
          "name": "tokenId",
          "type": "uint256"
        },
        {
          "internalType": "bytes",
          "name": "_data",
          "type": "bytes"
        }
      ],
      "name": "safeTransferFrom",
      "outputs": [],
      "stateMutability": "nonpayable",
      "type": "function"
    },
    {
      "inputs": [
        {
          "internalType": "address",
          "name": "operator",
          "type": "address"
        },
        {
          "internalType": "bool",
          "name": "approved",
          "type": "bool"
        }
      ],
      "name": "setApprovalForAll",
      "outputs": [],
      "stateMutability": "nonpayable",
      "type": "function"
    },
    {
      "inputs": [
        {
          "internalType": "bytes4",
          "name": "interfaceId",
          "type": "bytes4"
        }
      ],
      "name": "supportsInterface",
      "outputs": [
        {
          "internalType": "bool",
          "name": "",
          "type": "bool"
        }
      ],
      "stateMutability": "view",
      "type": "function",
      "constant": true
    },
    {
      "inputs": [],
      "name": "symbol",
      "outputs": [
        {
          "internalType": "string",
          "name": "",
          "type": "string"
        }
      ],
      "stateMutability": "view",
      "type": "function",
      "constant": true
    },
    {
      "inputs": [
        {
          "internalType": "uint256",
          "name": "index",
          "type": "uint256"
        }
      ],
      "name": "tokenByIndex",
      "outputs": [
        {
          "internalType": "uint256",
          "name": "",
          "type": "uint256"
        }
      ],
      "stateMutability": "view",
      "type": "function",
      "constant": true
    },
    {
      "inputs": [
        {
          "internalType": "address",
          "name": "owner",
          "type": "address"
        }
      ],
      "name": "tokenOfOwner",
      "outputs": [
        {
          "internalType": "uint256[]",
          "name": "",
          "type": "uint256[]"
        }
      ],
      "stateMutability": "view",
      "type": "function",
      "constant": true
    },
    {
      "inputs": [
        {
          "internalType": "address",
          "name": "owner",
          "type": "address"
        },
        {
          "internalType": "uint256",
          "name": "index",
          "type": "uint256"
        }
      ],
      "name": "tokenOfOwnerByIndex",
      "outputs": [
        {
          "internalType": "uint256",
          "name": "",
          "type": "uint256"
        }
      ],
      "stateMutability": "view",
      "type": "function",
      "constant": true
    },
    {
      "inputs": [
        {
          "internalType": "uint256",
          "name": "tokenId",
          "type": "uint256"
        }
      ],
      "name": "tokenURI",
      "outputs": [
        {
          "internalType": "string",
          "name": "",
          "type": "string"
        }
      ],
      "stateMutability": "view",
      "type": "function",
      "constant": true
    },
    {
      "inputs": [],
      "name": "totalSupply",
      "outputs": [
        {
          "internalType": "uint256",
          "name": "",
          "type": "uint256"
        }
      ],
      "stateMutability": "view",
      "type": "function",
      "constant": true
    },
    {
      "inputs": [
        {
          "internalType": "address",
          "name": "from",
          "type": "address"
        },
        {
          "internalType": "address",
          "name": "to",
          "type": "address"
        },
        {
          "internalType": "uint256",
          "name": "tokenId",
          "type": "uint256"
        }
      ],
      "name": "transferFrom",
      "outputs": [],
      "stateMutability": "nonpayable",
      "type": "function"
    },
    {
      "inputs": [
        {
          "internalType": "address",
          "name": "newOwner",
          "type": "address"
        }
      ],
      "name": "transferOwnership",
      "outputs": [],
      "stateMutability": "nonpayable",
      "type": "function"
    },
    {
      "inputs": [
        {
          "internalType": "address",
          "name": "adminAddress",
          "type": "address"
        }
      ],
      "name": "setAdminAddress",
      "outputs": [],
      "stateMutability": "nonpayable",
      "type": "function"
    },
    {
      "inputs": [
        {
          "internalType": "uint32",
          "name": "quantity",
          "type": "uint32"
        }
      ],
      "name": "setFirstPackageLimit",
      "outputs": [],
      "stateMutability": "nonpayable",
      "type": "function"
    },
    {
      "inputs": [
        {
          "internalType": "uint32",
          "name": "quantity",
          "type": "uint32"
        }
      ],
      "name": "setSecondPackageLimit",
      "outputs": [],
      "stateMutability": "nonpayable",
      "type": "function"
    },
    {
      "inputs": [
        {
          "internalType": "uint32",
          "name": "quantity",
          "type": "uint32"
        }
      ],
      "name": "setThirdPackageLimit",
      "outputs": [],
      "stateMutability": "nonpayable",
      "type": "function"
    },
    {
      "inputs": [
        {
          "internalType": "enum PiecePackage.PackageType",
          "name": "_packageType",
          "type": "uint8"
        },
        {
          "internalType": "uint8",
          "name": "quantity",
          "type": "uint8"
        }
      ],
      "name": "setPackageTypePieces",
      "outputs": [],
      "stateMutability": "nonpayable",
      "type": "function"
    },
    {
      "inputs": [
        {
          "internalType": "enum PiecePackage.PackageType",
          "name": "_packageType",
          "type": "uint8"
        },
        {
          "internalType": "uint256",
          "name": "amount",
          "type": "uint256"
        }
      ],
      "name": "setPackageTypePrice",
      "outputs": [],
      "stateMutability": "nonpayable",
      "type": "function"
    },
    {
      "inputs": [
        {
          "internalType": "uint256",
          "name": "_price",
          "type": "uint256"
        }
      ],
      "name": "setpiecePackagePrice",
      "outputs": [],
      "stateMutability": "nonpayable",
      "type": "function"
    },
    {
      "inputs": [
        {
          "internalType": "address",
          "name": "_addr",
          "type": "address"
        }
      ],
      "name": "setTokenAddress",
      "outputs": [],
      "stateMutability": "nonpayable",
      "type": "function"
    },
    {
      "inputs": [
        {
          "internalType": "address",
          "name": "_addr",
          "type": "address"
        }
      ],
      "name": "setPieceAddress",
      "outputs": [],
      "stateMutability": "nonpayable",
      "type": "function"
    },
    {
      "inputs": [],
      "name": "updateCanUnpack",
      "outputs": [],
      "stateMutability": "nonpayable",
      "type": "function"
    },
    {
      "inputs": [],
      "name": "updatePackageAvailable",
      "outputs": [],
      "stateMutability": "nonpayable",
      "type": "function"
    },
    {
      "inputs": [],
      "name": "withdrawBalance",
      "outputs": [],
      "stateMutability": "nonpayable",
      "type": "function"
    },
    {
      "inputs": [],
      "name": "withdrawBnb",
      "outputs": [],
      "stateMutability": "nonpayable",
      "type": "function"
    },
    {
      "inputs": [],
      "name": "getBalance",
      "outputs": [
        {
          "internalType": "uint256",
          "name": "",
          "type": "uint256"
        }
      ],
      "stateMutability": "view",
      "type": "function",
      "constant": true
    },
    {
      "inputs": [],
      "name": "getBnbBalance",
      "outputs": [
        {
          "internalType": "uint256",
          "name": "",
          "type": "uint256"
        }
      ],
      "stateMutability": "view",
      "type": "function",
      "constant": true
    },
    {
      "inputs": [],
      "name": "pause",
      "outputs": [],
      "stateMutability": "nonpayable",
      "type": "function"
    },
    {
      "inputs": [],
      "name": "unpause",
      "outputs": [],
      "stateMutability": "nonpayable",
      "type": "function"
    },
    {
      "inputs": [
        {
          "internalType": "uint256",
          "name": "_id",
          "type": "uint256"
        }
      ],
      "name": "getPackage",
      "outputs": [
        {
          "components": [
            {
              "internalType": "uint256",
              "name": "packageId",
              "type": "uint256"
            },
            {
              "internalType": "uint8",
              "name": "quantity",
              "type": "uint8"
            },
            {
              "internalType": "enum PiecePackage.PackageType",
              "name": "packageType",
              "type": "uint8"
            },
            {
              "internalType": "uint64",
              "name": "birthTime",
              "type": "uint64"
            }
          ],
          "internalType": "struct PiecePackage.Package",
          "name": "package",
          "type": "tuple"
        }
      ],
      "stateMutability": "view",
      "type": "function",
      "constant": true
    },
    {
      "inputs": [
        {
          "internalType": "address",
          "name": "_owner",
          "type": "address"
        },
        {
          "internalType": "uint256",
          "name": "_amount",
          "type": "uint256"
        },
        {
          "internalType": "enum PiecePackage.PackageType",
          "name": "_packageType",
          "type": "uint8"
        }
      ],
      "name": "createPackage",
      "outputs": [],
      "stateMutability": "payable",
      "type": "function",
      "payable": true
    },
    {
      "inputs": [
        {
          "internalType": "address",
          "name": "_owner",
          "type": "address"
        },
        {
          "internalType": "enum PiecePackage.PackageType",
          "name": "_packageType",
          "type": "uint8"
        }
      ],
      "name": "createPackageExtra",
      "outputs": [],
      "stateMutability": "nonpayable",
      "type": "function"
    },
    {
      "inputs": [
        {
          "internalType": "address",
          "name": "_to",
          "type": "address"
        },
        {
          "internalType": "uint256",
          "name": "_amount",
          "type": "uint256"
        },
        {
          "internalType": "uint256",
          "name": "_tokenId",
          "type": "uint256"
        }
      ],
      "name": "openPackage",
      "outputs": [],
      "stateMutability": "nonpayable",
      "type": "function"
    },
    {
      "inputs": [],
      "name": "getPackagesCount",
      "outputs": [
        {
          "internalType": "uint32",
          "name": "_firstPackageCount",
          "type": "uint32"
        },
        {
          "internalType": "uint32",
          "name": "_secondPackageCount",
          "type": "uint32"
        },
        {
          "internalType": "uint32",
          "name": "_thirdPackageCount",
          "type": "uint32"
        }
      ],
      "stateMutability": "view",
      "type": "function",
      "constant": true
    }
  ],
  "bytecode": "0x6080604052600b805460ff60a01b1916905560108054600160801b600160e01b031916784b000000af00000154000000000000000000000000000000001790556702c68af0bb1400006011556706f05b59d3b20000601255670c7d713b49da00006013556001601455674563918244f400006015553480156200008157600080fd5b50604080518082018252600d81526c4d656b61626f7420506965636560981b6020808301919091528251808401909352600c83526b4d656b615069656365506b6760a01b9083015290620000dc6301ffc9a760e01b620001fe565b8151620000f1906007906020850190620003b4565b50805162000107906008906020840190620003b4565b506200011a6380ac58cd60e01b620001fe565b6200012c635b5e139f60e01b620001fe565b6200013e63780e9d6360e01b620001fe565b5050600b80546001600160a01b0319163390811790915560405181906000907f8be0079c531659141344cd1fd0a4f28419497f9722a3daafe3b4186f6b6457e0908290a3506001600c8190556016805461ffff19169055601154620001a4919062000283565b620001b960026012546200028360201b60201c565b620001ce60036013546200028360201b60201c565b620001dc6001600262000311565b620001ea6002600462000311565b620001f86003600662000311565b620004ad565b6001600160e01b031980821614156200025e5760405162461bcd60e51b815260206004820152601c60248201527f4552433136353a20696e76616c696420696e746572666163652069640000000060448201526064015b60405180910390fd5b6001600160e01b0319166000908152602081905260409020805460ff19166001179055565b600b546001600160a01b03163314620002ce5760405162461bcd60e51b8152602060048201819052602482015260008051602062003c33833981519152604482015260640162000255565b80600f6000846003811115620002e857620002e86200045a565b6003811115620002fc57620002fc6200045a565b81526020810191909152604001600020555050565b600b546001600160a01b031633146200035c5760405162461bcd60e51b8152602060048201819052602482015260008051602062003c33833981519152604482015260640162000255565b80600e60008460038111156200037657620003766200045a565b60038111156200038a576200038a6200045a565b815260200190815260200160002060006101000a81548160ff021916908360ff1602179055505050565b828054620003c29062000470565b90600052602060002090601f016020900481019282620003e6576000855562000431565b82601f106200040157805160ff191683800117855562000431565b8280016001018555821562000431579182015b828111156200043157825182559160200191906001019062000414565b506200043f92915062000443565b5090565b5b808211156200043f576000815560010162000444565b634e487b7160e01b600052602160045260246000fd5b600181811c908216806200048557607f821691505b60208210811415620004a757634e487b7160e01b600052602260045260246000fd5b50919050565b61377680620004bd6000396000f3fe6080604052600436106102ff5760003560e01c80635c86ea7c11610190578063a22cb465116100dc578063c87b56dd11610095578063e7d90c731161006f578063e7d90c73146108fb578063e985e9c51461091b578063f2fde38b14610964578063fc8234cb1461098457600080fd5b8063c87b56dd1461087d578063d41f90b01461089d578063d525f504146108e157600080fd5b8063a22cb465146107bb578063ac511c3e146107db578063b88d4fde146107fb578063b99dfe181461081b578063befc6cc314610848578063c201ca8a1461086857600080fd5b8063715018a6116101495780638da5cb5b116101235780638da5cb5b146107485780638f32d59b1461076657806395d89b41146107865780639f448edd1461079b57600080fd5b8063715018a6146106fe57806379f63c1b146107135780638456cb591461073357600080fd5b80635c86ea7c146106545780635c975abb146106735780635fd8c710146106945780636352211e146106a95780636c0360eb146106c957806370a08231146106de57600080fd5b80632f745c591161024f57806347049c8411610208578063570c8e3b116101e2578063570c8e3b146105df57806357962e9e146105f457806358dec420146106145780635c1cb6911461063457600080fd5b806347049c84146105795780634986a9171461059f5780634f6ccce7146105bf57600080fd5b80632f745c59146104e9578063320b2ad91461050957806333f5bf311461051e5780633e0fd777146105315780633f4ba83a1461054457806342842e0e1461055957600080fd5b806318160ddd116102bc57806326a4e8d21161029657806326a4e8d21461045c57806328aeec2e1461047c578063294cdf0d1461049c5780632c1e816d146104c957600080fd5b806318160ddd146104125780631da0603a1461042757806323b872dd1461043c57600080fd5b806301ffc9a71461030457806306fdde0314610353578063081812fc14610375578063095ea7b3146103ad57806312065fe0146103cf578063136f25d9146103f2575b600080fd5b34801561031057600080fd5b5061033e61031f366004612e6f565b6001600160e01b03191660009081526020819052604090205460ff1690565b60405190151581526020015b60405180910390f35b34801561035f57600080fd5b50610368610999565b60405161034a9190612ee4565b34801561038157600080fd5b50610395610390366004612ef7565b610a2b565b6040516001600160a01b03909116815260200161034a565b3480156103b957600080fd5b506103cd6103c8366004612f2c565b610ab8565b005b3480156103db57600080fd5b506103e4610bce565b60405190815260200161034a565b3480156103fe57600080fd5b506103cd61040d366004612f65565b610c46565b34801561041e57600080fd5b506103e4610d10565b34801561043357600080fd5b506103cd610d1c565b34801561044857600080fd5b506103cd610457366004612f98565b610df6565b34801561046857600080fd5b506103cd610477366004612fd4565b610e27565b34801561048857600080fd5b506103cd610497366004612ef7565b610e7b565b3480156104a857600080fd5b506104bc6104b7366004612fd4565b610eaa565b60405161034a9190612fef565b3480156104d557600080fd5b506103cd6104e4366004612fd4565b610f96565b3480156104f557600080fd5b506103e4610504366004612f2c565b610fe2565b34801561051557600080fd5b5061033e61100d565b34801561052a57600080fd5b50476103e4565b6103cd61053f366004613033565b611093565b34801561055057600080fd5b506103cd61142d565b34801561056557600080fd5b506103cd610574366004612f98565b611478565b34801561058557600080fd5b50601654610395906201000090046001600160a01b031681565b3480156105ab57600080fd5b506103cd6105ba36600461306f565b611493565b3480156105cb57600080fd5b506103e46105da366004612ef7565b6114e3565b3480156105eb57600080fd5b506103cd6114f9565b34801561060057600080fd5b50601754610395906001600160a01b031681565b34801561062057600080fd5b506103cd61062f366004613095565b611540565b34801561064057600080fd5b50601854610395906001600160a01b031681565b34801561066057600080fd5b5060165461033e90610100900460ff1681565b34801561067f57600080fd5b50600b5461033e90600160a01b900460ff1681565b3480156106a057600080fd5b506103cd6118c3565b3480156106b557600080fd5b506103956106c4366004612ef7565b61198e565b3480156106d557600080fd5b506103686119b6565b3480156106ea57600080fd5b506103e46106f9366004612fd4565b6119c5565b34801561070a57600080fd5b506103cd611a51565b34801561071f57600080fd5b506103cd61072e36600461306f565b611ac5565b34801561073f57600080fd5b506103cd611b15565b34801561075457600080fd5b50600b546001600160a01b0316610395565b34801561077257600080fd5b50600b546001600160a01b0316331461033e565b34801561079257600080fd5b50610368611b5e565b3480156107a757600080fd5b506103cd6107b63660046130c8565b611b6d565b3480156107c757600080fd5b506103cd6107d6366004613113565b611be9565b3480156107e757600080fd5b506103cd6107f636600461313f565b611cae565b34801561080757600080fd5b506103cd610816366004613171565b611d15565b34801561082757600080fd5b5061083b610836366004612ef7565b611d4d565b60405161034a9190613263565b34801561085457600080fd5b506103cd61086336600461306f565b611e15565b34801561087457600080fd5b506103cd611e65565b34801561088957600080fd5b50610368610898366004612ef7565b611ea3565b3480156108a957600080fd5b506010546040805163ffffffff8084168252640100000000840481166020830152600160401b9093049092169082015260600161034a565b3480156108ed57600080fd5b5060165461033e9060ff1681565b34801561090757600080fd5b506103cd610916366004612fd4565b612014565b34801561092757600080fd5b5061033e6109363660046132bd565b6001600160a01b03918216600090815260066020908152604080832093909416825291909152205460ff1690565b34801561097057600080fd5b506103cd61097f366004612fd4565b612060565b34801561099057600080fd5b5061033e612093565b6060600780546109a8906132e7565b80601f01602080910402602001604051908101604052809291908181526020018280546109d4906132e7565b8015610a215780601f106109f657610100808354040283529160200191610a21565b820191906000526020600020905b815481529060010190602001808311610a0457829003601f168201915b5050505050905090565b6000610a3682612112565b610a9c5760405162461bcd60e51b815260206004820152602c60248201527f4552433732313a20617070726f76656420717565727920666f72206e6f6e657860448201526b34b9ba32b73a103a37b5b2b760a11b60648201526084015b60405180910390fd5b506000908152600560205260409020546001600160a01b031690565b6000610ac38261198e565b9050806001600160a01b0316836001600160a01b03161415610b315760405162461bcd60e51b815260206004820152602160248201527f4552433732313a20617070726f76616c20746f2063757272656e74206f776e656044820152603960f91b6064820152608401610a93565b336001600160a01b0382161480610b4d5750610b4d8133610936565b610bbf5760405162461bcd60e51b815260206004820152603860248201527f4552433732313a20617070726f76652063616c6c6572206973206e6f74206f7760448201527f6e6572206e6f7220617070726f76656420666f7220616c6c00000000000000006064820152608401610a93565b610bc9838361211f565b505050565b6016546040516370a0823160e01b81523060048201526000916201000090046001600160a01b0316906370a0823190602401602060405180830381865afa158015610c1d573d6000803e3d6000fd5b505050506040513d601f19601f82011682018060405250810190610c419190613322565b905090565b600b546001600160a01b03163314610c705760405162461bcd60e51b8152600401610a939061333b565b6000816003811115610c8457610c8461324d565b1415610cc45760405162461bcd60e51b815260206004820152600f60248201526e696e76616c6964207061636b61676560881b6044820152606401610a93565b6001600160a01b038216610cea5760405162461bcd60e51b8152600401610a9390613370565b610cf7826014548361218d565b60148054906000610d07836133bb565b91905055505050565b6000610c41600261238d565b600b546001600160a01b03163314610d465760405162461bcd60e51b8152600401610a939061333b565b476000610d5b600b546001600160a01b031690565b6001600160a01b03168260405160006040518083038185875af1925050503d8060008114610da5576040519150601f19603f3d011682016040523d82523d6000602084013e610daa565b606091505b5050905080610df25760405162461bcd60e51b81526020600482015260146024820152732330b4b632b2103a379039b2b7321022ba3432b960611b6044820152606401610a93565b5050565b610e003382612398565b610e1c5760405162461bcd60e51b8152600401610a93906133d6565b610bc9838383612482565b600b546001600160a01b03163314610e515760405162461bcd60e51b8152600401610a939061333b565b601680546001600160a01b03909216620100000262010000600160b01b0319909216919091179055565b600b546001600160a01b03163314610ea55760405162461bcd60e51b8152600401610a939061333b565b601555565b6001600160a01b038116600090815260016020526040812060609190610ecf906125fc565b67ffffffffffffffff811115610ee757610ee761315b565b604051908082528060200260200182016040528015610f10578160200160208202803683370190505b50905060005b6001600160a01b0384166000908152600160205260409020610f37906125fc565b811015610f8f576001600160a01b0384166000908152600160205260409020610f609082612606565b828281518110610f7257610f72613427565b602090810291909101015280610f87816133bb565b915050610f16565b5092915050565b600b546001600160a01b03163314610fc05760405162461bcd60e51b8152600401610a939061333b565b601880546001600160a01b0319166001600160a01b0392909216919091179055565b6001600160a01b03821660009081526001602052604081206110049083612606565b90505b92915050565b600b546000906001600160a01b0316331461103a5760405162461bcd60e51b8152600401610a939061333b565b600b54600160a01b900460ff161561105157600080fd5b600b805460ff60a01b1916600160a01b1790556040517f6985a02210a168e66602d3235cb6db0e70f92b3ba4d376a33c0f3d9434bff62590600090a150600190565b6002600c5414156110e65760405162461bcd60e51b815260206004820152601f60248201527f5265656e7472616e637947756172643a207265656e7472616e742063616c6c006044820152606401610a93565b6002600c55601654610100900460ff166111385760405162461bcd60e51b81526020600482015260136024820152727061636b61676520756e617661696c61626c6560681b6044820152606401610a93565b600b54600160a01b900460ff161561114f57600080fd5b60008160038111156111635761116361324d565b14156111a35760405162461bcd60e51b815260206004820152600f60248201526e696e76616c6964207061636b61676560881b6044820152606401610a93565b6001600160a01b0383166111c95760405162461bcd60e51b8152600401610a9390613370565b600f60008260038111156111df576111df61324d565b60038111156111f0576111f061324d565b81526020019081526020016000205482101561123f5760405162461bcd60e51b815260206004820152600e60248201526d1253959053125108105353d5539560921b6044820152606401610a93565b3482146112995760405162461bcd60e51b815260206004820152602260248201527f616d6f756e7420646966666572656e742066726f6d20626e6220726571756972604482015261195960f21b6064820152608401610a93565b60018160038111156112ad576112ad61324d565b141561131d5760105463ffffffff600160801b820481169116106112e35760405162461bcd60e51b8152600401610a939061343d565b6010805463ffffffff169060006112f98361345f565b91906101000a81548163ffffffff021916908363ffffffff16021790555050611401565b60028160038111156113315761133161324d565b141561138d5760105463ffffffff600160a01b82048116640100000000909204161061136f5760405162461bcd60e51b8152600401610a939061343d565b60108054640100000000900463ffffffff169060046112f98361345f565b60105463ffffffff600160c01b82048116600160401b90920416106113c45760405162461bcd60e51b8152600401610a939061343d565b60108054600160401b900463ffffffff169060086113e18361345f565b91906101000a81548163ffffffff021916908363ffffffff160217905550505b61140e836014548361218d565b6014805490600061141e836133bb565b90915550506001600c55505050565b600b54600160a01b900460ff1661144357600080fd5b600b546001600160a01b0316331461146d5760405162461bcd60e51b8152600401610a939061333b565b611475612093565b50565b610bc983838360405180602001604052806000815250611d15565b600b546001600160a01b031633146114bd5760405162461bcd60e51b8152600401610a939061333b565b6010805463ffffffff909216600160801b0263ffffffff60801b19909216919091179055565b6000806114f1600284612612565b509392505050565b600b546001600160a01b031633146115235760405162461bcd60e51b8152600401610a939061333b565b6016805461ff001981166101009182900460ff1615909102179055565b60165460ff166115815760405162461bcd60e51b815260206004820152600c60248201526b31b0b7103737ba1037b832b760a11b6044820152606401610a93565b600b54600160a01b900460ff161561159857600080fd5b336115a28261198e565b6001600160a01b0316146115e85760405162461bcd60e51b815260206004820152600d60248201526c3737ba103a34329037bbb732b960991b6044820152606401610a93565b60155482101561162b5760405162461bcd60e51b815260206004820152600e60248201526d1253959053125108105353d5539560921b6044820152606401610a93565b6001600160a01b0383166116815760405162461bcd60e51b815260206004820152601860248201527f6d696e7420746f20746865207a65726f206164647265737300000000000000006044820152606401610a93565b6016546040516323b872dd60e01b81526001600160a01b0385811660048301523060248301526044820185905262010000909204909116906323b872dd906064016020604051808303816000875af11580156116e1573d6000803e3d6000fd5b505050506040513d601f19601f820116820180604052508101906117059190613483565b61170e57600080fd5b6000600d61171d6001846134a0565b8154811061172d5761172d613427565b600091825260209182902060408051608081018252600290930290910180548352600181015460ff808216958501959095529293909291840191610100900416600381111561177e5761177e61324d565b600381111561178f5761178f61324d565b81526001919091015462010000900467ffffffffffffffff1660209091015260175460408201519192506001600160a01b031690636fed42d290869060038111156117dc576117dc61324d565b60208501516040516001600160e01b031960e086901b1681526001600160a01b03909316600484015260ff9182166024840152166044820152606401600060405180830381600087803b15801561183257600080fd5b505af1158015611846573d6000803e3d6000fd5b505050506118538261262e565b7f0bf4c6d3c4b37474b167ca1251166f61a1ad24afe4d0bee7834b830938bee6b984838360400151600381111561188c5761188c61324d565b604080516001600160a01b039094168452602084019290925260ff169082015242606082015260800160405180910390a150505050565b600b546001600160a01b031633146118ed5760405162461bcd60e51b8152600401610a939061333b565b6016546001600160a01b03620100009091041663a9059cbb611917600b546001600160a01b031690565b61191f610bce565b6040516001600160e01b031960e085901b1681526001600160a01b03909216600483015260248201526044016020604051808303816000875af115801561196a573d6000803e3d6000fd5b505050506040513d601f19601f820116820180604052508101906114759190613483565b6000611007826040518060600160405280602981526020016136f860299139600291906126ab565b6060600a80546109a8906132e7565b60006001600160a01b038216611a305760405162461bcd60e51b815260206004820152602a60248201527f4552433732313a2062616c616e636520717565727920666f7220746865207a65604482015269726f206164647265737360b01b6064820152608401610a93565b6001600160a01b0382166000908152600160205260409020611007906125fc565b600b546001600160a01b03163314611a7b5760405162461bcd60e51b8152600401610a939061333b565b600b546040516000916001600160a01b0316907f8be0079c531659141344cd1fd0a4f28419497f9722a3daafe3b4186f6b6457e0908390a3600b80546001600160a01b0319169055565b600b546001600160a01b03163314611aef5760405162461bcd60e51b8152600401610a939061333b565b6010805463ffffffff909216600160a01b0263ffffffff60a01b19909216919091179055565b600b54600160a01b900460ff1615611b2c57600080fd5b600b546001600160a01b03163314611b565760405162461bcd60e51b8152600401610a939061333b565b61147561100d565b6060600880546109a8906132e7565b600b546001600160a01b03163314611b975760405162461bcd60e51b8152600401610a939061333b565b80600e6000846003811115611bae57611bae61324d565b6003811115611bbf57611bbf61324d565b815260200190815260200160002060006101000a81548160ff021916908360ff1602179055505050565b6001600160a01b038216331415611c425760405162461bcd60e51b815260206004820152601960248201527f4552433732313a20617070726f766520746f2063616c6c6572000000000000006044820152606401610a93565b3360008181526006602090815260408083206001600160a01b03871680855290835292819020805460ff191686151590811790915590519081529192917f17307eab39ab6107e8899845ad3d59bd9653f200f220920489ca2b5937696c31910160405180910390a35050565b600b546001600160a01b03163314611cd85760405162461bcd60e51b8152600401610a939061333b565b80600f6000846003811115611cef57611cef61324d565b6003811115611d0057611d0061324d565b81526020810191909152604001600020555050565b611d1f3383612398565b611d3b5760405162461bcd60e51b8152600401610a93906133d6565b611d47848484846126c2565b50505050565b604080516080810182526000808252602082018190529181018290526060810191909152600d611d7e6001846134a0565b81548110611d8e57611d8e613427565b600091825260209182902060408051608081018252600290930290910180548352600181015460ff8082169585019590955292939092918401916101009004166003811115611ddf57611ddf61324d565b6003811115611df057611df061324d565b81526001919091015462010000900467ffffffffffffffff1660209091015292915050565b600b546001600160a01b03163314611e3f5760405162461bcd60e51b8152600401610a939061333b565b6010805463ffffffff909216600160c01b0263ffffffff60c01b19909216919091179055565b600b546001600160a01b03163314611e8f5760405162461bcd60e51b8152600401610a939061333b565b6016805460ff19811660ff90911615179055565b6060611eae82612112565b611f125760405162461bcd60e51b815260206004820152602f60248201527f4552433732314d657461646174613a2055524920717565727920666f72206e6f60448201526e3732bc34b9ba32b73a103a37b5b2b760891b6064820152608401610a93565b60008281526009602052604081208054611f2b906132e7565b80601f0160208091040260200160405190810160405280929190818152602001828054611f57906132e7565b8015611fa45780601f10611f7957610100808354040283529160200191611fa4565b820191906000526020600020905b815481529060010190602001808311611f8757829003601f168201915b50505050509050600a8054611fb8906132e7565b15159050611fc65792915050565b805115611ff857600a81604051602001611fe19291906134d3565b604051602081830303815290604052915050919050565b600a612003846126f5565b604051602001611fe19291906134d3565b600b546001600160a01b0316331461203e5760405162461bcd60e51b8152600401610a939061333b565b601780546001600160a01b0319166001600160a01b0392909216919091179055565b600b546001600160a01b0316331461208a5760405162461bcd60e51b8152600401610a939061333b565b6114758161280c565b600b546000906001600160a01b031633146120c05760405162461bcd60e51b8152600401610a939061333b565b600b54600160a01b900460ff166120d657600080fd5b600b805460ff60a01b191690556040517f7805862f689e2f13df9f062ff482ad3ad112aca9e0847911ed832e158c525b3390600090a150600190565b60006110076002836128cd565b600081815260056020526040902080546001600160a01b0319166001600160a01b03841690811790915581906121548261198e565b6001600160a01b03167f8c5be1e5ebec7d5bd14f71427d1e84f3dd0314c0f7b2291e5b200ac8c7c3b92560405160405180910390a45050565b60006040518060800160405280848152602001600e60008560038111156121b6576121b661324d565b60038111156121c7576121c761324d565b81526020808201929092526040016000205460ff168252018360038111156121f1576121f161324d565b81526020014267ffffffffffffffff1681525090506122208484604051806020016040528060008152506128d9565b600d805460018101825560009190915281517fd7b6990105719101dabeb77144f2a3385c8033acd3af97e9423a695e81ad1eb5600290920291820190815560208301517fd7b6990105719101dabeb77144f2a3385c8033acd3af97e9423a695e81ad1eb6909201805460ff19811660ff90941693841782556040850151859490929161ffff1916176101008360038111156122bd576122bd61324d565b021790555060608201518160010160026101000a81548167ffffffffffffffff021916908367ffffffffffffffff16021790555050507fb433297aca508fd04fd164f18aa58c77b7e2309d8c5659eea9d29b89f143e0c0848260000151836040015160038111156123305761233061324d565b604080516001600160a01b039094168452602084019290925260ff169082015242606082015260800160405180910390a180516040516001600160a01b03861690600090600080516020613721833981519152908290a450505050565b60006110078261290c565b60006123a382612112565b6124045760405162461bcd60e51b815260206004820152602c60248201527f4552433732313a206f70657261746f7220717565727920666f72206e6f6e657860448201526b34b9ba32b73a103a37b5b2b760a11b6064820152608401610a93565b600061240f8361198e565b9050806001600160a01b0316846001600160a01b0316148061244a5750836001600160a01b031661243f84610a2b565b6001600160a01b0316145b8061247a57506001600160a01b0380821660009081526006602090815260408083209388168352929052205460ff165b949350505050565b826001600160a01b03166124958261198e565b6001600160a01b0316146124fd5760405162461bcd60e51b815260206004820152602960248201527f4552433732313a207472616e73666572206f6620746f6b656e2074686174206960448201526839903737ba1037bbb760b91b6064820152608401610a93565b6001600160a01b03821661255f5760405162461bcd60e51b8152602060048201526024808201527f4552433732313a207472616e7366657220746f20746865207a65726f206164646044820152637265737360e01b6064820152608401610a93565b61256a838383612917565b61257560008261211f565b6001600160a01b0383166000908152600160205260409020612597908261292e565b506001600160a01b03821660009081526001602052604090206125ba908261293a565b506125c760028284612946565b5080826001600160a01b0316846001600160a01b031660008051602061372183398151915260405160405180910390a4505050565b6000611007825490565b6000611004838361295c565b60008080806126218686612986565b9097909650945050505050565b60006126398261198e565b905061264781600084612917565b61265260008361211f565b6001600160a01b0381166000908152600160205260409020612674908361292e565b506126806002836129b1565b5060405182906000906001600160a01b03841690600080516020613721833981519152908390a45050565b60006126b88484846129bd565b90505b9392505050565b6126cd848484612482565b6126d984848484612a00565b611d475760405162461bcd60e51b8152600401610a939061357a565b6060816127195750506040805180820190915260018152600360fc1b602082015290565b8160005b8115612743578061272d816133bb565b915061273c9050600a836135e2565b915061271d565b60008167ffffffffffffffff81111561275e5761275e61315b565b6040519080825280601f01601f191660200182016040528015612788576020820181803683370190505b50905060006127986001846134a0565b90508593505b8315612803576127af600a856135f6565b6127ba90603061360a565b60f81b82826127c881613622565b9350815181106127da576127da613427565b60200101906001600160f81b031916908160001a9053506127fc600a856135e2565b935061279e565b50949350505050565b6001600160a01b0381166128715760405162461bcd60e51b815260206004820152602660248201527f4f776e61626c653a206e6577206f776e657220697320746865207a65726f206160448201526564647265737360d01b6064820152608401610a93565b600b546040516001600160a01b038084169216907f8be0079c531659141344cd1fd0a4f28419497f9722a3daafe3b4186f6b6457e090600090a3600b80546001600160a01b0319166001600160a01b0392909216919091179055565b60006110048383612ad1565b6128e38383612af0565b6128f06000848484612a00565b610bc95760405162461bcd60e51b8152600401610a939061357a565b6000611007826125fc565b600b54600160a01b900460ff1615610bc957600080fd5b60006110048383612bd2565b60006110048383612cc5565b60006126b884846001600160a01b038516612d14565b600082600001828154811061297357612973613427565b9060005260206000200154905092915050565b600080806129948585612606565b600081815260029690960160205260409095205494959350505050565b60006110048383612d31565b6000828152600284016020526040812054801515806129e157506129e18585612ad1565b83906128035760405162461bcd60e51b8152600401610a939190612ee4565b60006001600160a01b0384163b612a195750600161247a565b6000612a9a630a85bd0160e11b33888787604051602401612a3d9493929190613639565b604051602081830303815290604052906001600160e01b0319166020820180516001600160e01b0383818316178352505050506040518060600160405280603281526020016136c6603291396001600160a01b0388169190612d4e565b9050600081806020019051810190612ab29190613676565b6001600160e01b031916630a85bd0160e11b1492505050949350505050565b6000611004838360008181526001830160205260408120541515611004565b6001600160a01b038216612b165760405162461bcd60e51b8152600401610a9390613370565b612b1f81612112565b15612b6c5760405162461bcd60e51b815260206004820152601c60248201527f4552433732313a20746f6b656e20616c7265616479206d696e746564000000006044820152606401610a93565b612b7860008383612917565b6001600160a01b0382166000908152600160205260409020612b9a908261293a565b50612ba760028284612946565b5060405181906001600160a01b03841690600090600080516020613721833981519152908290a45050565b60008181526001830160205260408120548015612cbb576000612bf66001836134a0565b8554909150600090612c0a906001906134a0565b9050818114612c6f576000866000018281548110612c2a57612c2a613427565b9060005260206000200154905080876000018481548110612c4d57612c4d613427565b6000918252602080832090910192909255918252600188019052604090208390555b8554869080612c8057612c80613693565b600190038181906000526020600020016000905590558560010160008681526020019081526020016000206000905560019350505050611007565b6000915050611007565b6000818152600183016020526040812054612d0c57508154600181810184556000848152602080822090930184905584548482528286019093526040902091909155611007565b506000611007565b600082815260028401602052604081208290556126b8848461293a565b60008181526002830160205260408120819055611004838361292e565b60606126b8848460008585843b612da75760405162461bcd60e51b815260206004820152601d60248201527f416464726573733a2063616c6c20746f206e6f6e2d636f6e74726163740000006044820152606401610a93565b600080866001600160a01b03168587604051612dc391906136a9565b60006040518083038185875af1925050503d8060008114612e00576040519150601f19603f3d011682016040523d82523d6000602084013e612e05565b606091505b5091509150612e15828286612e20565b979650505050505050565b60608315612e2f5750816126bb565b825115612e3f5782518084602001fd5b8160405162461bcd60e51b8152600401610a939190612ee4565b6001600160e01b03198116811461147557600080fd5b600060208284031215612e8157600080fd5b81356126bb81612e59565b60005b83811015612ea7578181015183820152602001612e8f565b83811115611d475750506000910152565b60008151808452612ed0816020860160208601612e8c565b601f01601f19169290920160200192915050565b6020815260006110046020830184612eb8565b600060208284031215612f0957600080fd5b5035919050565b80356001600160a01b0381168114612f2757600080fd5b919050565b60008060408385031215612f3f57600080fd5b612f4883612f10565b946020939093013593505050565b803560048110612f2757600080fd5b60008060408385031215612f7857600080fd5b612f8183612f10565b9150612f8f60208401612f56565b90509250929050565b600080600060608486031215612fad57600080fd5b612fb684612f10565b9250612fc460208501612f10565b9150604084013590509250925092565b600060208284031215612fe657600080fd5b61100482612f10565b6020808252825182820181905260009190848201906040850190845b818110156130275783518352928401929184019160010161300b565b50909695505050505050565b60008060006060848603121561304857600080fd5b61305184612f10565b92506020840135915061306660408501612f56565b90509250925092565b60006020828403121561308157600080fd5b813563ffffffff811681146126bb57600080fd5b6000806000606084860312156130aa57600080fd5b6130b384612f10565b95602085013595506040909401359392505050565b600080604083850312156130db57600080fd5b6130e483612f56565b9150602083013560ff811681146130fa57600080fd5b809150509250929050565b801515811461147557600080fd5b6000806040838503121561312657600080fd5b61312f83612f10565b915060208301356130fa81613105565b6000806040838503121561315257600080fd5b612f4883612f56565b634e487b7160e01b600052604160045260246000fd5b6000806000806080858703121561318757600080fd5b61319085612f10565b935061319e60208601612f10565b925060408501359150606085013567ffffffffffffffff808211156131c257600080fd5b818701915087601f8301126131d657600080fd5b8135818111156131e8576131e861315b565b604051601f8201601f19908116603f011681019083821181831017156132105761321061315b565b816040528281528a602084870101111561322957600080fd5b82602086016020830137600060208483010152809550505050505092959194509250565b634e487b7160e01b600052602160045260246000fd5b8151815260208083015160ff1690820152604082015160808201906004811061329c57634e487b7160e01b600052602160045260246000fd5b8060408401525067ffffffffffffffff606084015116606083015292915050565b600080604083850312156132d057600080fd5b6132d983612f10565b9150612f8f60208401612f10565b600181811c908216806132fb57607f821691505b6020821081141561331c57634e487b7160e01b600052602260045260246000fd5b50919050565b60006020828403121561333457600080fd5b5051919050565b6020808252818101527f4f776e61626c653a2063616c6c6572206973206e6f7420746865206f776e6572604082015260600190565b6020808252818101527f4552433732313a206d696e7420746f20746865207a65726f2061646472657373604082015260600190565b634e487b7160e01b600052601160045260246000fd5b60006000198214156133cf576133cf6133a5565b5060010190565b60208082526031908201527f4552433732313a207472616e736665722063616c6c6572206973206e6f74206f6040820152701ddb995c881b9bdc88185c1c1c9bdd9959607a1b606082015260800190565b634e487b7160e01b600052603260045260246000fd5b6020808252600890820152671cdbdb19081bdd5d60c21b604082015260600190565b600063ffffffff80831681811415613479576134796133a5565b6001019392505050565b60006020828403121561349557600080fd5b81516126bb81613105565b6000828210156134b2576134b26133a5565b500390565b600081516134c9818560208601612e8c565b9290920192915050565b600080845481600182811c9150808316806134ef57607f831692505b602080841082141561350f57634e487b7160e01b86526022600452602486fd5b818015613523576001811461353457613561565b60ff19861689528489019650613561565b60008b81526020902060005b868110156135595781548b820152908501908301613540565b505084890196505b50505050505061357181856134b7565b95945050505050565b60208082526032908201527f4552433732313a207472616e7366657220746f206e6f6e20455243373231526560408201527131b2b4bb32b91034b6b83632b6b2b73a32b960711b606082015260800190565b634e487b7160e01b600052601260045260246000fd5b6000826135f1576135f16135cc565b500490565b600082613605576136056135cc565b500690565b6000821982111561361d5761361d6133a5565b500190565b600081613631576136316133a5565b506000190190565b6001600160a01b038581168252841660208201526040810183905260806060820181905260009061366c90830184612eb8565b9695505050505050565b60006020828403121561368857600080fd5b81516126bb81612e59565b634e487b7160e01b600052603160045260246000fd5b600082516136bb818460208701612e8c565b919091019291505056fe4552433732313a207472616e7366657220746f206e6f6e20455243373231526563656976657220696d706c656d656e7465724552433732313a206f776e657220717565727920666f72206e6f6e6578697374656e7420746f6b656eddf252ad1be2c89b69c2b068fc378daa952ba7f163c4a11628f55a4df523b3efa2646970667358221220b22c2724354faaa7f49c8e696bbd138524eca6b55439eab6ff05bbae7eb79f6a64736f6c634300080a00334f776e61626c653a2063616c6c6572206973206e6f7420746865206f776e6572",
  "immutableReferences": {},
  "source": "// SPDX-License-Identifier: MIT\r\npragma solidity ^0.8.2;\r\n\r\nimport \"./IBEP20.sol\";\r\nimport \"./IMarketplace.sol\";\r\nimport \"./SafeMath.sol\";\r\nimport \"./Ownable.sol\";\r\nimport \"./AccessControl.sol\";\r\nimport \"./ERC721.sol\";\r\nimport \"./ERC721Pausable.sol\";\r\nimport \"./IPieceCore.sol\";\r\nimport \"./ReentrancyGuard.sol\";\r\n\r\ncontract PiecePackage is Ownable, ERC721Pausable, ReentrancyGuard {\r\n    using SafeMath for uint256;\r\n\r\n    struct Package {\r\n        uint256 packageId; // id of the package\r\n        uint8 quantity; // quantity of robots on this package\r\n        PackageType packageType; //package type\r\n        uint64 birthTime; // The timestamp from the block when this Robot came into existence.\r\n    }\r\n\r\n    enum PackageType {\r\n        Default,\r\n        First,\r\n        Second,\r\n        Third\r\n    }\r\n\r\n    /*** STORAGE ***/\r\n    /// @dev An array containing the Piece struct for all pieces in existence. The ID\r\n    ///  of each Piece is actually an index into this array.\r\n    Package[] packages;\r\n\r\n    mapping(PackageType => uint8) private _packageTypePieces;\r\n    mapping(PackageType => uint256) private _packageTypePrice;\r\n\r\n    uint32 firstPackageCount;\r\n    uint32 secondPackageCount;\r\n    uint32 thirdPackageCount;\r\n    uint32 fourthPackageCount;\r\n    uint32 firstPackageLimit = 340;\r\n    uint32 secondPackageLimit = 175;\r\n    uint32 thirdPackageLimit = 75;\r\n\r\n    uint256 private priceFirstPackage = 0.2 * 10**18; // to review\r\n    uint256 private priceSecondPackage = 0.5 * 10**18; // to review\r\n    uint256 private priceThirdPackage = 0.9 * 10**18; // to\r\n    uint256 private nextPackageTokenId = 1;\r\n    uint256 private piecePackagePrice = 5 * 10**18; // to review\r\n\r\n    /* SETTABLE VARIABLES */\r\n    bool public canUnpack;\r\n    bool public isPackageAvailable;\r\n    address public _mekaAddress;\r\n    address public _pieceAddress;\r\n    address public _adminAddress;\r\n\r\n    event PackageCreated(\r\n        address to,\r\n        uint256 packId,\r\n        uint8 packageType,\r\n        uint256 date\r\n    );\r\n    event Unpacked(\r\n        address from,\r\n        uint256 packId,\r\n        uint8 packageType,\r\n        uint256 date\r\n    );\r\n    event MintedPieceFromBundle(address from, uint256[] pieceId, uint256 date);\r\n\r\n    constructor() ERC721(\"Mekabot Piece\", \"MekaPiecePkg\") {\r\n        canUnpack = false;\r\n        isPackageAvailable = false;\r\n\r\n        setPackageTypePrice(PackageType.First, priceFirstPackage);\r\n        setPackageTypePrice(PackageType.Second, priceSecondPackage);\r\n        setPackageTypePrice(PackageType.Third, priceThirdPackage);\r\n        setPackageTypePieces(PackageType.First, 2);\r\n        setPackageTypePieces(PackageType.Second, 4);\r\n        setPackageTypePieces(PackageType.Third, 6);\r\n    }\r\n\r\n    function setAdminAddress(address adminAddress) external onlyOwner {\r\n        _adminAddress = adminAddress;\r\n    }\r\n\r\n    function setFirstPackageLimit(uint32 quantity) external onlyOwner {\r\n        firstPackageLimit = quantity;\r\n    }\r\n\r\n    function setSecondPackageLimit(uint32 quantity) external onlyOwner {\r\n        secondPackageLimit = quantity;\r\n    }\r\n\r\n    function setThirdPackageLimit(uint32 quantity) external onlyOwner {\r\n        thirdPackageLimit = quantity;\r\n    }\r\n\r\n    function setPackageTypePieces(PackageType _packageType, uint8 quantity)\r\n        public\r\n        onlyOwner\r\n    {\r\n        _packageTypePieces[_packageType] = quantity;\r\n    }\r\n\r\n    function setPackageTypePrice(PackageType _packageType, uint256 amount)\r\n        public\r\n        onlyOwner\r\n    {\r\n        _packageTypePrice[_packageType] = amount;\r\n    }\r\n\r\n    function setpiecePackagePrice(uint256 _price) external onlyOwner {\r\n        piecePackagePrice = _price;\r\n    }\r\n\r\n    function setTokenAddress(address _addr) external onlyOwner {\r\n        _mekaAddress = _addr;\r\n    }\r\n\r\n    function setPieceAddress(address _addr) external onlyOwner {\r\n        _pieceAddress = _addr;\r\n    }\r\n\r\n    function updateCanUnpack() external onlyOwner {\r\n        canUnpack = !canUnpack;\r\n    }\r\n\r\n    function updatePackageAvailable() external onlyOwner {\r\n        isPackageAvailable = !isPackageAvailable;\r\n    }\r\n\r\n    modifier canOpen() {\r\n        require(canUnpack, \"can not open\");\r\n        _;\r\n    }\r\n\r\n    modifier packageAvailable() {\r\n        require(isPackageAvailable, \"package unavailable\");\r\n        _;\r\n    }\r\n\r\n    function withdrawBalance() external onlyOwner {\r\n        IBEP20(_mekaAddress).transfer(owner(), getBalance());\r\n    }\r\n\r\n    function withdrawBnb() external onlyOwner {\r\n        uint256 amount = address(this).balance;\r\n\r\n        (bool success, ) = payable(owner()).call{value: amount}(\"\");\r\n        require(success, \"Failed to send Ether\");\r\n    }\r\n\r\n    function getBalance() public view returns (uint256) {\r\n        return IBEP20(_mekaAddress).balanceOf(address(this));\r\n    }\r\n\r\n    function getBnbBalance() public view returns (uint256) {\r\n        return address(this).balance;\r\n    }\r\n\r\n    function pause() external whenNotPaused onlyOwner {\r\n        _pause();\r\n    }\r\n\r\n    function unpause() external whenPaused onlyOwner {\r\n        _unpause();\r\n    }\r\n\r\n    /* Piece PACKAGE */\r\n\r\n    function getPackage(uint256 _id)\r\n        public\r\n        view\r\n        returns (Package memory package)\r\n    {\r\n        package = packages[_id - 1];\r\n    }\r\n\r\n    function _mintPackage(\r\n        address _to,\r\n        uint256 _tokenId,\r\n        PackageType _packageType\r\n    ) private {\r\n        Package memory _package = Package({\r\n            packageType: _packageType,\r\n            packageId: _tokenId,\r\n            quantity: _packageTypePieces[_packageType],\r\n            birthTime: uint64(block.timestamp)\r\n        });\r\n\r\n        _safeMint(_to, _tokenId, \"\");\r\n        packages.push(_package);\r\n\r\n        emit PackageCreated(\r\n            _to,\r\n            _package.packageId,\r\n            uint8(_package.packageType),\r\n            block.timestamp\r\n        );\r\n\r\n        emit Transfer(address(0), _to, _package.packageId);\r\n    }\r\n\r\n    function createPackage(\r\n        address _owner,\r\n        uint256 _amount,\r\n        PackageType _packageType\r\n    ) external payable nonReentrant packageAvailable whenNotPaused {\r\n        require(_packageType != PackageType.Default, \"invalid package\");\r\n        require(_owner != address(0), \"ERC721: mint to the zero address\");\r\n        require(_amount >= _packageTypePrice[_packageType], \"INVALID AMOUNT\");\r\n        require(_amount == msg.value, \"amount different from bnb required\");\r\n        if (_packageType == PackageType.First) {\r\n            require(firstPackageCount < firstPackageLimit, \"sold out\");\r\n            firstPackageCount++;\r\n        } else if (_packageType == PackageType.Second) {\r\n            require(secondPackageCount < secondPackageLimit, \"sold out\");\r\n            secondPackageCount++;\r\n        } else {\r\n            require(thirdPackageCount < thirdPackageLimit, \"sold out\");\r\n            thirdPackageCount++;\r\n        }\r\n\r\n        _mintPackage(_owner, nextPackageTokenId, _packageType);\r\n        nextPackageTokenId++;\r\n    }\r\n\r\n    function createPackageExtra(address _owner, PackageType _packageType)\r\n        external\r\n        onlyOwner\r\n    {\r\n        require(_packageType != PackageType.Default, \"invalid package\");\r\n        require(_owner != address(0), \"ERC721: mint to the zero address\");\r\n\r\n        _mintPackage(_owner, nextPackageTokenId, _packageType);\r\n        nextPackageTokenId++;\r\n    }\r\n\r\n    function openPackage(\r\n        address _to,\r\n        uint256 _amount,\r\n        uint256 _tokenId\r\n    ) external canOpen whenNotPaused {\r\n        require(ownerOf(_tokenId) == msg.sender, \"not the owner\");\r\n        require(_amount >= piecePackagePrice, \"INVALID AMOUNT\");\r\n        require(_to != address(0), \"mint to the zero address\");\r\n        require(IBEP20(_mekaAddress).transferFrom(_to, address(this), _amount));\r\n        Package memory package = packages[_tokenId - 1];\r\n\r\n        IPieceCore(_pieceAddress).createPieceFromBundle(\r\n            _to,\r\n            uint8(package.packageType),\r\n            package.quantity\r\n        );\r\n\r\n        _burn(_tokenId);\r\n\r\n        emit Unpacked(\r\n            _to,\r\n            _tokenId,\r\n            uint8(package.packageType),\r\n            block.timestamp\r\n        );\r\n    }\r\n\r\n    function getPackagesCount()\r\n        external\r\n        view\r\n        returns (\r\n            uint32 _firstPackageCount,\r\n            uint32 _secondPackageCount,\r\n            uint32 _thirdPackageCount\r\n        )\r\n    {\r\n        _firstPackageCount = firstPackageCount;\r\n        _secondPackageCount = secondPackageCount;\r\n        _thirdPackageCount = thirdPackageCount;\r\n    }\r\n}\r\n",
  "sourcePath": "E:\\MekaMiners\\contracts\\PiecePackage.sol",
  "compiler": {
    "name": "solc",
    "version": "0.8.10+commit.fc410830.Emscripten.clang"
  },
  "schemaVersion": "3.4.3",
  "updatedAt": "2021-11-29T17:41:41.142Z",
  "networkType": "ethereum",
  "devdoc": {
    "kind": "dev",
    "methods": {
      "_pause()": {
        "details": "called by the owner to pause, triggers stopped state"
      },
      "_unpause()": {
        "details": "called by the owner to unpause, returns to normal state"
      },
      "approve(address,uint256)": {
        "details": "See {IERC721-approve}."
      },
      "balanceOf(address)": {
        "details": "See {IERC721-balanceOf}."
      },
      "baseURI()": {
        "details": "Returns the base URI set via {_setBaseURI}. This will be automatically added as a prefix in {tokenURI} to each token's URI, or to the token ID if no specific URI is set for that token ID."
      },
      "getApproved(uint256)": {
        "details": "See {IERC721-getApproved}."
      },
      "isApprovedForAll(address,address)": {
        "details": "See {IERC721-isApprovedForAll}."
      },
      "isOwner()": {
        "details": "Returns true if the caller is the current owner."
      },
      "name()": {
        "details": "See {IERC721Metadata-name}."
      },
      "owner()": {
        "details": "Returns the address of the current owner."
      },
      "ownerOf(uint256)": {
        "details": "See {IERC721-ownerOf}."
      },
      "renounceOwnership()": {
        "details": "Leaves the contract without owner. It will not be possible to call `onlyOwner` functions anymore. Can only be called by the current owner. NOTE: Renouncing ownership will leave the contract without an owner, thereby removing any functionality that is only available to the owner."
      },
      "safeTransferFrom(address,address,uint256)": {
        "details": "See {IERC721-safeTransferFrom}."
      },
      "safeTransferFrom(address,address,uint256,bytes)": {
        "details": "See {IERC721-safeTransferFrom}."
      },
      "setApprovalForAll(address,bool)": {
        "details": "See {IERC721-setApprovalForAll}."
      },
      "supportsInterface(bytes4)": {
        "details": "See {IERC165-supportsInterface}. Time complexity O(1), guaranteed to always use less than 30 000 gas."
      },
      "symbol()": {
        "details": "See {IERC721Metadata-symbol}."
      },
      "tokenByIndex(uint256)": {
        "details": "See {IERC721Enumerable-tokenByIndex}."
      },
      "tokenOfOwner(address)": {
        "details": "See {IERC721Enumerable-tokenOfOwner}."
      },
      "tokenOfOwnerByIndex(address,uint256)": {
        "details": "See {IERC721Enumerable-tokenOfOwnerByIndex}."
      },
      "tokenURI(uint256)": {
        "details": "See {IERC721Metadata-tokenURI}."
      },
      "totalSupply()": {
        "details": "See {IERC721Enumerable-totalSupply}."
      },
      "transferFrom(address,address,uint256)": {
        "details": "See {IERC721-transferFrom}."
      },
      "transferOwnership(address)": {
        "details": "Transfers ownership of the contract to a new account (`newOwner`). Can only be called by the current owner."
      }
    },
    "stateVariables": {
      "packages": {
        "details": "An array containing the Piece struct for all pieces in existence. The ID  of each Piece is actually an index into this array."
      }
    },
    "version": 1
  },
  "userdoc": {
    "kind": "user",
    "methods": {},
    "version": 1
  }
}