{
  "contractName": "PieceCore",
  "abi": [
    {
      "inputs": [
        {
          "internalType": "address",
          "name": "mekaAddress",
          "type": "address"
        }
      ],
      "stateMutability": "nonpayable",
      "type": "constructor"
    },
    {
      "anonymous": false,
      "inputs": [
        {
          "indexed": true,
          "internalType": "address",
          "name": "owner",
          "type": "address"
        },
        {
          "indexed": true,
          "internalType": "address",
          "name": "approved",
          "type": "address"
        },
        {
          "indexed": true,
          "internalType": "uint256",
          "name": "tokenId",
          "type": "uint256"
        }
      ],
      "name": "Approval",
      "type": "event"
    },
    {
      "anonymous": false,
      "inputs": [
        {
          "indexed": true,
          "internalType": "address",
          "name": "owner",
          "type": "address"
        },
        {
          "indexed": true,
          "internalType": "address",
          "name": "operator",
          "type": "address"
        },
        {
          "indexed": false,
          "internalType": "bool",
          "name": "approved",
          "type": "bool"
        }
      ],
      "name": "ApprovalForAll",
      "type": "event"
    },
    {
      "anonymous": false,
      "inputs": [
        {
          "indexed": false,
          "internalType": "address",
          "name": "owner",
          "type": "address"
        },
        {
          "indexed": false,
          "internalType": "uint256",
          "name": "tokenId",
          "type": "uint256"
        },
        {
          "indexed": false,
          "internalType": "uint256",
          "name": "date",
          "type": "uint256"
        }
      ],
      "name": "Birth",
      "type": "event"
    },
    {
      "anonymous": false,
      "inputs": [
        {
          "indexed": false,
          "internalType": "address",
          "name": "from",
          "type": "address"
        },
        {
          "indexed": false,
          "internalType": "uint256",
          "name": "pieceId",
          "type": "uint256"
        },
        {
          "indexed": false,
          "internalType": "bool",
          "name": "fromFarm",
          "type": "bool"
        },
        {
          "indexed": false,
          "internalType": "uint256",
          "name": "date",
          "type": "uint256"
        }
      ],
      "name": "CreatePiece",
      "type": "event"
    },
    {
      "anonymous": false,
      "inputs": [
        {
          "indexed": false,
          "internalType": "address",
          "name": "from",
          "type": "address"
        },
        {
          "indexed": false,
          "internalType": "uint256[]",
          "name": "pieceId",
          "type": "uint256[]"
        },
        {
          "indexed": false,
          "internalType": "uint8",
          "name": "packageType",
          "type": "uint8"
        },
        {
          "indexed": false,
          "internalType": "uint256",
          "name": "date",
          "type": "uint256"
        }
      ],
      "name": "MintedPieceFromBundle",
      "type": "event"
    },
    {
      "anonymous": false,
      "inputs": [
        {
          "indexed": true,
          "internalType": "address",
          "name": "previousOwner",
          "type": "address"
        },
        {
          "indexed": true,
          "internalType": "address",
          "name": "newOwner",
          "type": "address"
        }
      ],
      "name": "OwnershipTransferred",
      "type": "event"
    },
    {
      "anonymous": false,
      "inputs": [],
      "name": "Pause",
      "type": "event"
    },
    {
      "anonymous": false,
      "inputs": [
        {
          "indexed": true,
          "internalType": "address",
          "name": "from",
          "type": "address"
        },
        {
          "indexed": true,
          "internalType": "address",
          "name": "to",
          "type": "address"
        },
        {
          "indexed": true,
          "internalType": "uint256",
          "name": "tokenId",
          "type": "uint256"
        }
      ],
      "name": "Transfer",
      "type": "event"
    },
    {
      "anonymous": false,
      "inputs": [],
      "name": "Unpause",
      "type": "event"
    },
    {
      "inputs": [],
      "name": "_pause",
      "outputs": [
        {
          "internalType": "bool",
          "name": "",
          "type": "bool"
        }
      ],
      "stateMutability": "nonpayable",
      "type": "function"
    },
    {
      "inputs": [],
      "name": "_unpause",
      "outputs": [
        {
          "internalType": "bool",
          "name": "",
          "type": "bool"
        }
      ],
      "stateMutability": "nonpayable",
      "type": "function"
    },
    {
      "inputs": [
        {
          "internalType": "address",
          "name": "to",
          "type": "address"
        },
        {
          "internalType": "uint256",
          "name": "tokenId",
          "type": "uint256"
        }
      ],
      "name": "approve",
      "outputs": [],
      "stateMutability": "nonpayable",
      "type": "function"
    },
    {
      "inputs": [
        {
          "internalType": "address",
          "name": "owner",
          "type": "address"
        }
      ],
      "name": "balanceOf",
      "outputs": [
        {
          "internalType": "uint256",
          "name": "",
          "type": "uint256"
        }
      ],
      "stateMutability": "view",
      "type": "function",
      "constant": true
    },
    {
      "inputs": [],
      "name": "baseURI",
      "outputs": [
        {
          "internalType": "string",
          "name": "",
          "type": "string"
        }
      ],
      "stateMutability": "view",
      "type": "function",
      "constant": true
    },
    {
      "inputs": [
        {
          "internalType": "uint256",
          "name": "tokenId",
          "type": "uint256"
        }
      ],
      "name": "getApproved",
      "outputs": [
        {
          "internalType": "address",
          "name": "",
          "type": "address"
        }
      ],
      "stateMutability": "view",
      "type": "function",
      "constant": true
    },
    {
      "inputs": [
        {
          "internalType": "address",
          "name": "owner",
          "type": "address"
        },
        {
          "internalType": "address",
          "name": "operator",
          "type": "address"
        }
      ],
      "name": "isApprovedForAll",
      "outputs": [
        {
          "internalType": "bool",
          "name": "",
          "type": "bool"
        }
      ],
      "stateMutability": "view",
      "type": "function",
      "constant": true
    },
    {
      "inputs": [],
      "name": "isOwner",
      "outputs": [
        {
          "internalType": "bool",
          "name": "",
          "type": "bool"
        }
      ],
      "stateMutability": "view",
      "type": "function",
      "constant": true
    },
    {
      "inputs": [],
      "name": "name",
      "outputs": [
        {
          "internalType": "string",
          "name": "",
          "type": "string"
        }
      ],
      "stateMutability": "view",
      "type": "function",
      "constant": true
    },
    {
      "inputs": [],
      "name": "owner",
      "outputs": [
        {
          "internalType": "address",
          "name": "",
          "type": "address"
        }
      ],
      "stateMutability": "view",
      "type": "function",
      "constant": true
    },
    {
      "inputs": [
        {
          "internalType": "uint256",
          "name": "tokenId",
          "type": "uint256"
        }
      ],
      "name": "ownerOf",
      "outputs": [
        {
          "internalType": "address",
          "name": "",
          "type": "address"
        }
      ],
      "stateMutability": "view",
      "type": "function",
      "constant": true
    },
    {
      "inputs": [],
      "name": "paused",
      "outputs": [
        {
          "internalType": "bool",
          "name": "",
          "type": "bool"
        }
      ],
      "stateMutability": "view",
      "type": "function",
      "constant": true
    },
    {
      "inputs": [],
      "name": "renounceOwnership",
      "outputs": [],
      "stateMutability": "nonpayable",
      "type": "function"
    },
    {
      "inputs": [
        {
          "internalType": "address",
          "name": "from",
          "type": "address"
        },
        {
          "internalType": "address",
          "name": "to",
          "type": "address"
        },
        {
          "internalType": "uint256",
          "name": "tokenId",
          "type": "uint256"
        }
      ],
      "name": "safeTransferFrom",
      "outputs": [],
      "stateMutability": "nonpayable",
      "type": "function"
    },
    {
      "inputs": [
        {
          "internalType": "address",
          "name": "from",
          "type": "address"
        },
        {
          "internalType": "address",
          "name": "to",
          "type": "address"
        },
        {
          "internalType": "uint256",
          "name": "tokenId",
          "type": "uint256"
        },
        {
          "internalType": "bytes",
          "name": "_data",
          "type": "bytes"
        }
      ],
      "name": "safeTransferFrom",
      "outputs": [],
      "stateMutability": "nonpayable",
      "type": "function"
    },
    {
      "inputs": [
        {
          "internalType": "address",
          "name": "operator",
          "type": "address"
        },
        {
          "internalType": "bool",
          "name": "approved",
          "type": "bool"
        }
      ],
      "name": "setApprovalForAll",
      "outputs": [],
      "stateMutability": "nonpayable",
      "type": "function"
    },
    {
      "inputs": [
        {
          "internalType": "bytes4",
          "name": "interfaceId",
          "type": "bytes4"
        }
      ],
      "name": "supportsInterface",
      "outputs": [
        {
          "internalType": "bool",
          "name": "",
          "type": "bool"
        }
      ],
      "stateMutability": "view",
      "type": "function",
      "constant": true
    },
    {
      "inputs": [],
      "name": "symbol",
      "outputs": [
        {
          "internalType": "string",
          "name": "",
          "type": "string"
        }
      ],
      "stateMutability": "view",
      "type": "function",
      "constant": true
    },
    {
      "inputs": [
        {
          "internalType": "uint256",
          "name": "index",
          "type": "uint256"
        }
      ],
      "name": "tokenByIndex",
      "outputs": [
        {
          "internalType": "uint256",
          "name": "",
          "type": "uint256"
        }
      ],
      "stateMutability": "view",
      "type": "function",
      "constant": true
    },
    {
      "inputs": [
        {
          "internalType": "address",
          "name": "owner",
          "type": "address"
        }
      ],
      "name": "tokenOfOwner",
      "outputs": [
        {
          "internalType": "uint256[]",
          "name": "",
          "type": "uint256[]"
        }
      ],
      "stateMutability": "view",
      "type": "function",
      "constant": true
    },
    {
      "inputs": [
        {
          "internalType": "address",
          "name": "owner",
          "type": "address"
        },
        {
          "internalType": "uint256",
          "name": "index",
          "type": "uint256"
        }
      ],
      "name": "tokenOfOwnerByIndex",
      "outputs": [
        {
          "internalType": "uint256",
          "name": "",
          "type": "uint256"
        }
      ],
      "stateMutability": "view",
      "type": "function",
      "constant": true
    },
    {
      "inputs": [
        {
          "internalType": "uint256",
          "name": "tokenId",
          "type": "uint256"
        }
      ],
      "name": "tokenURI",
      "outputs": [
        {
          "internalType": "string",
          "name": "",
          "type": "string"
        }
      ],
      "stateMutability": "view",
      "type": "function",
      "constant": true
    },
    {
      "inputs": [],
      "name": "totalSupply",
      "outputs": [
        {
          "internalType": "uint256",
          "name": "",
          "type": "uint256"
        }
      ],
      "stateMutability": "view",
      "type": "function",
      "constant": true
    },
    {
      "inputs": [
        {
          "internalType": "address",
          "name": "from",
          "type": "address"
        },
        {
          "internalType": "address",
          "name": "to",
          "type": "address"
        },
        {
          "internalType": "uint256",
          "name": "tokenId",
          "type": "uint256"
        }
      ],
      "name": "transferFrom",
      "outputs": [],
      "stateMutability": "nonpayable",
      "type": "function"
    },
    {
      "inputs": [
        {
          "internalType": "address",
          "name": "newOwner",
          "type": "address"
        }
      ],
      "name": "transferOwnership",
      "outputs": [],
      "stateMutability": "nonpayable",
      "type": "function"
    },
    {
      "inputs": [],
      "name": "getPricesData",
      "outputs": [
        {
          "internalType": "uint256",
          "name": "_bnbFee",
          "type": "uint256"
        },
        {
          "internalType": "uint256",
          "name": "_piecePrice",
          "type": "uint256"
        }
      ],
      "stateMutability": "view",
      "type": "function",
      "constant": true
    },
    {
      "inputs": [],
      "name": "getAddressesData",
      "outputs": [
        {
          "internalType": "address",
          "name": "tokenAddress",
          "type": "address"
        },
        {
          "internalType": "address",
          "name": "marketPlaceAddress",
          "type": "address"
        },
        {
          "internalType": "address",
          "name": "mekaDeployer",
          "type": "address"
        },
        {
          "internalType": "address",
          "name": "robotPackageGen0",
          "type": "address"
        },
        {
          "internalType": "address",
          "name": "robotPackageGen1",
          "type": "address"
        }
      ],
      "stateMutability": "view",
      "type": "function",
      "constant": true
    },
    {
      "inputs": [],
      "name": "getBooleansData",
      "outputs": [
        {
          "internalType": "bool",
          "name": "_isBurn",
          "type": "bool"
        },
        {
          "internalType": "bool",
          "name": "_acceptContracts",
          "type": "bool"
        },
        {
          "internalType": "bool",
          "name": "_isPieceFactoryOpen",
          "type": "bool"
        }
      ],
      "stateMutability": "view",
      "type": "function",
      "constant": true
    },
    {
      "inputs": [
        {
          "internalType": "address",
          "name": "contributor",
          "type": "address"
        },
        {
          "internalType": "uint256",
          "name": "pieceId",
          "type": "uint256"
        }
      ],
      "name": "setContributorPieceId",
      "outputs": [],
      "stateMutability": "nonpayable",
      "type": "function"
    },
    {
      "inputs": [],
      "name": "updateAcceptContract",
      "outputs": [],
      "stateMutability": "nonpayable",
      "type": "function"
    },
    {
      "inputs": [
        {
          "internalType": "uint256",
          "name": "fee",
          "type": "uint256"
        }
      ],
      "name": "setBnbFeeAddress",
      "outputs": [],
      "stateMutability": "nonpayable",
      "type": "function"
    },
    {
      "inputs": [
        {
          "internalType": "uint256[]",
          "name": "pieceIds",
          "type": "uint256[]"
        }
      ],
      "name": "setAvailablePieces",
      "outputs": [],
      "stateMutability": "nonpayable",
      "type": "function"
    },
    {
      "inputs": [
        {
          "internalType": "address",
          "name": "addr",
          "type": "address"
        }
      ],
      "name": "isBlacklisted",
      "outputs": [
        {
          "internalType": "bool",
          "name": "",
          "type": "bool"
        }
      ],
      "stateMutability": "view",
      "type": "function",
      "constant": true
    },
    {
      "inputs": [
        {
          "internalType": "address",
          "name": "addr",
          "type": "address"
        },
        {
          "internalType": "bool",
          "name": "isBlackListed",
          "type": "bool"
        }
      ],
      "name": "setBlackList",
      "outputs": [],
      "stateMutability": "nonpayable",
      "type": "function"
    },
    {
      "inputs": [
        {
          "internalType": "uint256",
          "name": "_price",
          "type": "uint256"
        }
      ],
      "name": "setPiecePrice",
      "outputs": [],
      "stateMutability": "nonpayable",
      "type": "function"
    },
    {
      "inputs": [
        {
          "internalType": "address",
          "name": "_addr",
          "type": "address"
        }
      ],
      "name": "setTokenAddress",
      "outputs": [],
      "stateMutability": "nonpayable",
      "type": "function"
    },
    {
      "inputs": [
        {
          "internalType": "address",
          "name": "_address",
          "type": "address"
        }
      ],
      "name": "setPiecePackageAddress",
      "outputs": [],
      "stateMutability": "nonpayable",
      "type": "function"
    },
    {
      "inputs": [
        {
          "internalType": "address",
          "name": "_address",
          "type": "address"
        }
      ],
      "name": "setPiecePackageGen1Address",
      "outputs": [],
      "stateMutability": "nonpayable",
      "type": "function"
    },
    {
      "inputs": [
        {
          "internalType": "address",
          "name": "_address",
          "type": "address"
        }
      ],
      "name": "setMarketplaceAddress",
      "outputs": [],
      "stateMutability": "nonpayable",
      "type": "function"
    },
    {
      "inputs": [
        {
          "internalType": "address",
          "name": "_mekaDeployAddr",
          "type": "address"
        }
      ],
      "name": "setMekaDeployerAddress",
      "outputs": [],
      "stateMutability": "nonpayable",
      "type": "function"
    },
    {
      "inputs": [],
      "name": "updateIsBurn",
      "outputs": [],
      "stateMutability": "nonpayable",
      "type": "function"
    },
    {
      "inputs": [],
      "name": "updatePieceFactory",
      "outputs": [],
      "stateMutability": "nonpayable",
      "type": "function"
    },
    {
      "inputs": [
        {
          "internalType": "string",
          "name": "baseUri",
          "type": "string"
        }
      ],
      "name": "setBaseUri",
      "outputs": [],
      "stateMutability": "nonpayable",
      "type": "function"
    },
    {
      "inputs": [],
      "name": "withdrawBalance",
      "outputs": [],
      "stateMutability": "nonpayable",
      "type": "function"
    },
    {
      "inputs": [],
      "name": "withdrawBnb",
      "outputs": [],
      "stateMutability": "nonpayable",
      "type": "function"
    },
    {
      "inputs": [
        {
          "internalType": "address",
          "name": "_owner",
          "type": "address"
        },
        {
          "internalType": "uint256",
          "name": "_amount",
          "type": "uint256"
        },
        {
          "internalType": "bool",
          "name": "_fromFarm",
          "type": "bool"
        }
      ],
      "name": "createPiece",
      "outputs": [],
      "stateMutability": "nonpayable",
      "type": "function"
    },
    {
      "inputs": [
        {
          "internalType": "uint256",
          "name": "_tokenId",
          "type": "uint256"
        },
        {
          "internalType": "uint256",
          "name": "_startingPrice",
          "type": "uint256"
        }
      ],
      "name": "createSale",
      "outputs": [],
      "stateMutability": "payable",
      "type": "function",
      "payable": true
    },
    {
      "inputs": [
        {
          "internalType": "uint256",
          "name": "_tokenId",
          "type": "uint256"
        }
      ],
      "name": "burnPiece",
      "outputs": [],
      "stateMutability": "nonpayable",
      "type": "function"
    },
    {
      "inputs": [
        {
          "internalType": "address",
          "name": "_contributor",
          "type": "address"
        }
      ],
      "name": "getContributorPieces",
      "outputs": [
        {
          "internalType": "uint256[]",
          "name": "_contributorPieces",
          "type": "uint256[]"
        }
      ],
      "stateMutability": "view",
      "type": "function",
      "constant": true
    },
    {
      "inputs": [
        {
          "internalType": "uint256",
          "name": "_id",
          "type": "uint256"
        }
      ],
      "name": "getPiece",
      "outputs": [
        {
          "components": [
            {
              "internalType": "uint256",
              "name": "tokenId",
              "type": "uint256"
            },
            {
              "internalType": "uint256",
              "name": "pieceId",
              "type": "uint256"
            },
            {
              "internalType": "uint64",
              "name": "birthTime",
              "type": "uint64"
            }
          ],
          "internalType": "struct PieceCore.Piece",
          "name": "piece",
          "type": "tuple"
        }
      ],
      "stateMutability": "view",
      "type": "function",
      "constant": true
    },
    {
      "inputs": [],
      "name": "getAvailablePieces",
      "outputs": [
        {
          "internalType": "uint256[]",
          "name": "pieceIds",
          "type": "uint256[]"
        }
      ],
      "stateMutability": "view",
      "type": "function",
      "constant": true
    },
    {
      "inputs": [],
      "name": "getBalance",
      "outputs": [
        {
          "internalType": "uint256",
          "name": "",
          "type": "uint256"
        }
      ],
      "stateMutability": "view",
      "type": "function",
      "constant": true
    },
    {
      "inputs": [],
      "name": "getBnbBalance",
      "outputs": [
        {
          "internalType": "uint256",
          "name": "",
          "type": "uint256"
        }
      ],
      "stateMutability": "view",
      "type": "function",
      "constant": true
    },
    {
      "inputs": [
        {
          "internalType": "address",
          "name": "_owner",
          "type": "address"
        },
        {
          "internalType": "uint8",
          "name": "packageType",
          "type": "uint8"
        },
        {
          "internalType": "uint8",
          "name": "pieceQuantity",
          "type": "uint8"
        }
      ],
      "name": "createPieceFromBundle",
      "outputs": [],
      "stateMutability": "nonpayable",
      "type": "function"
    }
  ],
  "bytecode": "0x6080604052600b805460ff60a01b191690556001601455674563918244f400006015556611c37937e08000601b553480156200003a57600080fd5b5060405162003e9b38038062003e9b8339810160408190526200005d91620002c5565b604080518082018252600a8152694d656b6120506965636560b01b602080830191909152825180840190935260098352684d656b61506965636560b81b9083015290620000b16301ffc9a760e01b6200019b565b8151620000c69060079060208501906200021f565b508051620000dc9060089060208401906200021f565b50620000ef6380ac58cd60e01b6200019b565b62000101635b5e139f60e01b6200019b565b6200011363780e9d6360e01b6200019b565b5050600b80546001600160a01b0319163390811790915560405181906000907f8be0079c531659141344cd1fd0a4f28419497f9722a3daafe3b4186f6b6457e0908290a3506001600c55601a8054601980546001600160a01b0319166001600160a01b03949094169390931790925561ffff60a01b1990911661010160a01b17905562000334565b6001600160e01b03198082161415620001fa5760405162461bcd60e51b815260206004820152601c60248201527f4552433136353a20696e76616c696420696e7465726661636520696400000000604482015260640160405180910390fd5b6001600160e01b0319166000908152602081905260409020805460ff19166001179055565b8280546200022d90620002f7565b90600052602060002090601f0160209004810192826200025157600085556200029c565b82601f106200026c57805160ff19168380011785556200029c565b828001600101855582156200029c579182015b828111156200029c5782518255916020019190600101906200027f565b50620002aa929150620002ae565b5090565b5b80821115620002aa5760008155600101620002af565b600060208284031215620002d857600080fd5b81516001600160a01b0381168114620002f057600080fd5b9392505050565b600181811c908216806200030c57607f821691505b602082108114156200032e57634e487b7160e01b600052602260045260246000fd5b50919050565b613b5780620003446000396000f3fe6080604052600436106103355760003560e01c80636c0360eb116101ab578063a22cb465116100f7578063e4e3754211610095578063f37746af1161006f578063f37746af14610a0c578063f3fc650b14610a2c578063fc8234cb14610a41578063fe575a8714610a5657600080fd5b8063e4e3754214610983578063e985e9c5146109a3578063f2fde38b146109ec57600080fd5b8063b88d4fde116100d1578063b88d4fde146108d7578063c696cc2e146108f7578063c87b56dd14610917578063d45eb3e71461093757600080fd5b8063a22cb46514610882578063b0bad405146108a2578063b47cc556146108b757600080fd5b80637b7959b8116101645780638f32d59b1161013e5780638f32d59b1461081857806393cf67031461083857806395d89b411461084d578063a0bcfc7f1461086257600080fd5b80637b7959b8146107ba5780637b85cfc2146107da5780638da5cb5b146107fa57600080fd5b80636c0360eb1461071b5780636fed42d2146107305780636ff451eb1461075057806370a0823114610770578063715018a61461079057806379627c2b146107a557600080fd5b80632f705c29116102855780635c975abb1161022357806360c9f222116101fd57806360c9f2221461066f5780636352211e1461068f57806368092bd9146106af5780636b45c9f2146106cf57600080fd5b80635c975abb146106265780635fd8c710146106475780636019061b1461065c57600080fd5b806333f5bf311161025f57806333f5bf31146105b357806342842e0e146105c65780634f6ccce7146105e657806357a373a41461060657600080fd5b80632f705c291461055e5780632f745c591461057e578063320b2ad91461059e57600080fd5b806312065fe0116102f25780631da0603a116102cc5780631da0603a146104e957806323b872dd146104fe57806326a4e8d21461051e578063294cdf0d1461053e57600080fd5b806312065fe01461048957806318160ddd146104ac5780631bf0595a146104c157600080fd5b806301ffc9a71461033a57806302a64ee81461038957806306fdde03146103e0578063081812fc14610402578063095ea7b31461043a5780630de7f7fa1461045c575b600080fd5b34801561034657600080fd5b506103746103553660046132a9565b6001600160e01b03191660009081526020819052604090205460ff1690565b60405190151581526020015b60405180910390f35b34801561039557600080fd5b50601954601a54601654601754601854604080516001600160a01b0396871681529486166020860152928516928401929092528316606083015291909116608082015260a001610380565b3480156103ec57600080fd5b506103f5610a8f565b604051610380919061331e565b34801561040e57600080fd5b5061042261041d366004613331565b610b21565b6040516001600160a01b039091168152602001610380565b34801561044657600080fd5b5061045a610455366004613366565b610bae565b005b34801561046857600080fd5b5061047c610477366004613390565b610cc4565b60405161038091906133e6565b34801561049557600080fd5b5061049e610cee565b604051908152602001610380565b3480156104b857600080fd5b5061049e610d60565b3480156104cd57600080fd5b50601b5460155460408051928352602083019190915201610380565b3480156104f557600080fd5b5061045a610d6c565b34801561050a57600080fd5b5061045a6105193660046133f9565b610e44565b34801561052a57600080fd5b5061045a610539366004613390565b610e75565b34801561054a57600080fd5b5061047c610559366004613390565b610ec1565b34801561056a57600080fd5b5061045a610579366004613331565b610fad565b34801561058a57600080fd5b5061049e610599366004613366565b610fdc565b3480156105aa57600080fd5b50610374611005565b3480156105bf57600080fd5b504761049e565b3480156105d257600080fd5b5061045a6105e13660046133f9565b61108b565b3480156105f257600080fd5b5061049e610601366004613331565b6110a6565b34801561061257600080fd5b5061045a610621366004613366565b6110bc565b34801561063257600080fd5b50600b5461037490600160a01b900460ff1681565b34801561065357600080fd5b5061045a61117c565b61045a61066a366004613435565b611243565b34801561067b57600080fd5b5061045a61068a366004613390565b611435565b34801561069b57600080fd5b506104226106aa366004613331565b611481565b3480156106bb57600080fd5b5061045a6106ca366004613465565b6114a9565b3480156106db57600080fd5b506106ef6106ea366004613331565b6114fe565b6040805182518152602080840151908201529181015167ffffffffffffffff1690820152606001610380565b34801561072757600080fd5b506103f5611593565b34801561073c57600080fd5b5061045a61074b3660046134ad565b6115a2565b34801561075c57600080fd5b5061045a61076b3660046134f0565b611781565b34801561077c57600080fd5b5061049e61078b366004613390565b6117b7565b34801561079c57600080fd5b5061045a611843565b3480156107b157600080fd5b5061045a6118b7565b3480156107c657600080fd5b5061045a6107d5366004613331565b611902565b3480156107e657600080fd5b5061045a6107f5366004613331565b6119e6565b34801561080657600080fd5b50600b546001600160a01b0316610422565b34801561082457600080fd5b50600b546001600160a01b03163314610374565b34801561084457600080fd5b5061045a611a15565b34801561085957600080fd5b506103f5611a60565b34801561086e57600080fd5b5061045a61087d3660046135f1565b611a6f565b34801561088e57600080fd5b5061045a61089d366004613465565b611aa2565b3480156108ae57600080fd5b5061045a611b67565b3480156108c357600080fd5b5061045a6108d2366004613390565b611bb2565b3480156108e357600080fd5b5061045a6108f236600461363a565b611bfe565b34801561090357600080fd5b5061045a610912366004613390565b611c36565b34801561092357600080fd5b506103f5610932366004613331565b611c82565b34801561094357600080fd5b50601a546040805160ff600160a01b8404811615158252600160b01b8404811615156020830152600160a81b909304909216151590820152606001610380565b34801561098f57600080fd5b5061045a61099e3660046136b6565b611df3565b3480156109af57600080fd5b506103746109be3660046136f6565b6001600160a01b03918216600090815260066020908152604080832093909416825291909152205460ff1690565b3480156109f857600080fd5b5061045a610a07366004613390565b61204c565b348015610a1857600080fd5b5061045a610a27366004613390565b61207f565b348015610a3857600080fd5b5061047c6120cb565b348015610a4d57600080fd5b50610374612122565b348015610a6257600080fd5b50610374610a71366004613390565b6001600160a01b03166000908152600f602052604090205460ff1690565b606060078054610a9e90613729565b80601f0160208091040260200160405190810160405280929190818152602001828054610aca90613729565b8015610b175780601f10610aec57610100808354040283529160200191610b17565b820191906000526020600020905b815481529060010190602001808311610afa57829003601f168201915b5050505050905090565b6000610b2c826121a1565b610b925760405162461bcd60e51b815260206004820152602c60248201527f4552433732313a20617070726f76656420717565727920666f72206e6f6e657860448201526b34b9ba32b73a103a37b5b2b760a11b60648201526084015b60405180910390fd5b506000908152600560205260409020546001600160a01b031690565b6000610bb982611481565b9050806001600160a01b0316836001600160a01b03161415610c275760405162461bcd60e51b815260206004820152602160248201527f4552433732313a20617070726f76616c20746f2063757272656e74206f776e656044820152603960f91b6064820152608401610b89565b336001600160a01b0382161480610c435750610c4381336109be565b610cb55760405162461bcd60e51b815260206004820152603860248201527f4552433732313a20617070726f76652063616c6c6572206973206e6f74206f7760448201527f6e6572206e6f7220617070726f76656420666f7220616c6c00000000000000006064820152608401610b89565b610cbf83836121ae565b505050565b6001600160a01b0381166000908152600e60205260409020606090610ce89061221c565b92915050565b6019546040516370a0823160e01b81523060048201526000916001600160a01b0316906370a0823190602401602060405180830381865afa158015610d37573d6000803e3d6000fd5b505050506040513d601f19601f82011682018060405250810190610d5b9190613764565b905090565b6000610d5b6002612229565b600b546001600160a01b03163314610d965760405162461bcd60e51b8152600401610b899061377d565b476000610dab600b546001600160a01b031690565b6001600160a01b03168260405160006040518083038185875af1925050503d8060008114610df5576040519150601f19603f3d011682016040523d82523d6000602084013e610dfa565b606091505b5050905080610e405760405162461bcd60e51b81526020600482015260126024820152712330b4b632b2103a379039b2b7321021373160711b6044820152606401610b89565b5050565b610e4e3382612234565b610e6a5760405162461bcd60e51b8152600401610b89906137b2565b610cbf83838361231e565b600b546001600160a01b03163314610e9f5760405162461bcd60e51b8152600401610b899061377d565b601980546001600160a01b0319166001600160a01b0392909216919091179055565b6001600160a01b038116600090815260016020526040812060609190610ee690612478565b67ffffffffffffffff811115610efe57610efe613565565b604051908082528060200260200182016040528015610f27578160200160208202803683370190505b50905060005b6001600160a01b0384166000908152600160205260409020610f4e90612478565b811015610fa6576001600160a01b0384166000908152600160205260409020610f779082612482565b828281518110610f8957610f89613803565b602090810291909101015280610f9e8161382f565b915050610f2d565b5092915050565b600b546001600160a01b03163314610fd75760405162461bcd60e51b8152600401610b899061377d565b601555565b6001600160a01b0382166000908152600160205260408120610ffe9083612482565b9392505050565b600b546000906001600160a01b031633146110325760405162461bcd60e51b8152600401610b899061377d565b600b54600160a01b900460ff161561104957600080fd5b600b805460ff60a01b1916600160a01b1790556040517f6985a02210a168e66602d3235cb6db0e70f92b3ba4d376a33c0f3d9434bff62590600090a150600190565b610cbf83838360405180602001604052806000815250611bfe565b6000806110b460028461248e565b509392505050565b600b546001600160a01b031633146110e65760405162461bcd60e51b8152600401610b899061377d565b6110f16011826124aa565b1561114d5760405162461bcd60e51b815260206004820152602660248201527f617070656172656e6365496420616c726561647920686173206120636f6e747260448201526534b13aba37b960d11b6064820152608401610b89565b6001600160a01b0382166000908152600e6020526040902061116f90826124b6565b50610cbf601182846124c2565b600b546001600160a01b031633146111a65760405162461bcd60e51b8152600401610b899061377d565b6019546001600160a01b031663a9059cbb6111c9600b546001600160a01b031690565b6111d1610cee565b6040516001600160e01b031960e085901b1681526001600160a01b03909216600483015260248201526044016020604051808303816000875af115801561121c573d6000803e3d6000fd5b505050506040513d601f19601f82011682018060405250810190611240919061384a565b50565b6002600c5414156112965760405162461bcd60e51b815260206004820152601f60248201527f5265656e7472616e637947756172643a207265656e7472616e742063616c6c006044820152606401610b89565b6002600c55600b54600160a01b900460ff16156112b257600080fd5b6112bb82611481565b6001600160a01b0316336001600160a01b0316146113075760405162461bcd60e51b81526020600482015260096024820152682737ba1037bbb732b960b91b6044820152606401610b89565b601b5434101561134e5760405162461bcd60e51b81526020600482015260126024820152716e6f7420656e6f75676820666f722066656560701b6044820152606401610b89565b6000611359836114fe565b601a54909150611372906001600160a01b0316846121ae565b601a5460208201516001600160a01b039091169063be22facd9085906113996011826124aa565b156113b45760208501516113af906011906124d8565b6113b7565b60005b6040516001600160e01b031960e086901b168152600481019390935260248301919091526001600160a01b031660448201526064810185905233608482015260a401600060405180830381600087803b15801561141357600080fd5b505af1158015611427573d6000803e3d6000fd5b50506001600c555050505050565b600b546001600160a01b0316331461145f5760405162461bcd60e51b8152600401610b899061377d565b601680546001600160a01b0319166001600160a01b0392909216919091179055565b6000610ce882604051806060016040528060298152602001613af960299139600291906124e4565b600b546001600160a01b031633146114d35760405162461bcd60e51b8152600401610b899061377d565b6001600160a01b03919091166000908152600f60205260409020805460ff1916911515919091179055565b61152c60405180606001604052806000815260200160008152602001600067ffffffffffffffff1681525090565b600d611539600184613867565b8154811061154957611549613803565b60009182526020918290206040805160608101825260039093029091018054835260018101549383019390935260029092015467ffffffffffffffff169181019190915292915050565b6060600a8054610a9e90613729565b6017546001600160a01b03163314806115c557506018546001600160a01b031633145b6115fe5760405162461bcd60e51b815260206004820152600a6024820152696e6f742062756e646c6560b01b6044820152606401610b89565b601a54600160a81b900460ff1661164e5760405162461bcd60e51b81526020600482015260146024820152731c1a5958d948199858dd1bdc9e4818db1bdcd95960621b6044820152606401610b89565b600b54600160a01b900460ff161561166557600080fd5b60008160ff1667ffffffffffffffff81111561168357611683613565565b6040519080825280602002602001820160405280156116ac578160200160208202803683370190505b50905060005b8260ff1681101561173d576014548282815181106116d2576116d2613803565b6020026020010181815250506117158560145460106116f56010805490506124f1565b8154811061170557611705613803565b9060005260206000200154612546565b601480549060006117258361382f565b919050555080806117359061382f565b9150506116b2565b507f18b31159dcd3bbb6f7dbd61f63d83d62ebdd840f02b1335e4327e1a5c75f307084828542604051611773949392919061387e565b60405180910390a150505050565b600b546001600160a01b031633146117ab5760405162461bcd60e51b8152600401610b899061377d565b610cbf601083836131bf565b60006001600160a01b0382166118225760405162461bcd60e51b815260206004820152602a60248201527f4552433732313a2062616c616e636520717565727920666f7220746865207a65604482015269726f206164647265737360b01b6064820152608401610b89565b6001600160a01b0382166000908152600160205260409020610ce890612478565b600b546001600160a01b0316331461186d5760405162461bcd60e51b8152600401610b899061377d565b600b546040516000916001600160a01b0316907f8be0079c531659141344cd1fd0a4f28419497f9722a3daafe3b4186f6b6457e0908390a3600b80546001600160a01b0319169055565b600b546001600160a01b031633146118e15760405162461bcd60e51b8152600401610b899061377d565b601a805460ff60a81b198116600160a81b9182900460ff1615909102179055565b600b54600160a01b900460ff161561191957600080fd5b601a54600160a01b900460ff1661196b5760405162461bcd60e51b8152602060048201526016602482015275109d5c9b9a5b99c81a5cc81b9bdd08185b1b1bddd95960521b6044820152606401610b89565b61197481611481565b6001600160a01b0316336001600160a01b0316148061199d57506016546001600160a01b031633145b6119dd5760405162461bcd60e51b81526020600482015260116024820152702737ba103a37b5b2b724b21037bbb732b960791b6044820152606401610b89565b6112408161271a565b600b546001600160a01b03163314611a105760405162461bcd60e51b8152600401610b899061377d565b601b55565b600b546001600160a01b03163314611a3f5760405162461bcd60e51b8152600401610b899061377d565b601a805460ff60b01b198116600160b01b9182900460ff1615909102179055565b606060088054610a9e90613729565b600b546001600160a01b03163314611a995760405162461bcd60e51b8152600401610b899061377d565b611240816127a9565b6001600160a01b038216331415611afb5760405162461bcd60e51b815260206004820152601960248201527f4552433732313a20617070726f766520746f2063616c6c6572000000000000006044820152606401610b89565b3360008181526006602090815260408083206001600160a01b03871680855290835292819020805460ff191686151590811790915590519081529192917f17307eab39ab6107e8899845ad3d59bd9653f200f220920489ca2b5937696c31910160405180910390a35050565b600b546001600160a01b03163314611b915760405162461bcd60e51b8152600401610b899061377d565b601a805460ff60a01b198116600160a01b9182900460ff1615909102179055565b600b546001600160a01b03163314611bdc5760405162461bcd60e51b8152600401610b899061377d565b601a80546001600160a01b0319166001600160a01b0392909216919091179055565b611c083383612234565b611c245760405162461bcd60e51b8152600401610b89906137b2565b611c30848484846127bc565b50505050565b600b546001600160a01b03163314611c605760405162461bcd60e51b8152600401610b899061377d565b601780546001600160a01b0319166001600160a01b0392909216919091179055565b6060611c8d826121a1565b611cf15760405162461bcd60e51b815260206004820152602f60248201527f4552433732314d657461646174613a2055524920717565727920666f72206e6f60448201526e3732bc34b9ba32b73a103a37b5b2b760891b6064820152608401610b89565b60008281526009602052604081208054611d0a90613729565b80601f0160208091040260200160405190810160405280929190818152602001828054611d3690613729565b8015611d835780601f10611d5857610100808354040283529160200191611d83565b820191906000526020600020905b815481529060010190602001808311611d6657829003601f168201915b50505050509050600a8054611d9790613729565b15159050611da55792915050565b805115611dd757600a81604051602001611dc09291906138d4565b604051602081830303815290604052915050919050565b600a611de2846127ef565b604051602001611dc09291906138d4565b6016546001600160a01b03163314611e3e5760405162461bcd60e51b815260206004820152600e60248201526d6e6f74206d656b616465706c6f7960901b6044820152606401610b89565b601a54600160a81b900460ff16611e8e5760405162461bcd60e51b81526020600482015260146024820152731c1a5958d948199858dd1bdc9e4818db1bdcd95960621b6044820152606401610b89565b600b54600160a01b900460ff1615611ea557600080fd5b823b63ffffffff1615611efa5760405162461bcd60e51b815260206004820152601b60248201527f6f776e65722063616e206e6f74206265206120636f6e747261637400000000006044820152606401610b89565b80611fc857601554821015611f425760405162461bcd60e51b815260206004820152600e60248201526d1253959053125108105353d5539560921b6044820152606401610b89565b6019546040516323b872dd60e01b81526001600160a01b03858116600483015230602483015260448201859052909116906323b872dd906064016020604051808303816000875af1158015611f9b573d6000803e3d6000fd5b505050506040513d601f19601f82011682018060405250810190611fbf919061384a565b611fc857600080fd5b611fdf8360145460106116f56010805490506124f1565b601454604080516001600160a01b0386168152602081019290925282151582820152426060830152517f63cb5c347b41ebe603c86941ae6985cfd9d7ff4a7cab7ec5ff56013aa586a9639181900360800190a1601480549060006120428361382f565b9190505550505050565b600b546001600160a01b031633146120765760405162461bcd60e51b8152600401610b899061377d565b61124081612906565b600b546001600160a01b031633146120a95760405162461bcd60e51b8152600401610b899061377d565b601880546001600160a01b0319166001600160a01b0392909216919091179055565b60606010805480602002602001604051908101604052809291908181526020018280548015610b1757602002820191906000526020600020905b815481526020019060010190808311612105575050505050905090565b600b546000906001600160a01b0316331461214f5760405162461bcd60e51b8152600401610b899061377d565b600b54600160a01b900460ff1661216557600080fd5b600b805460ff60a01b191690556040517f7805862f689e2f13df9f062ff482ad3ad112aca9e0847911ed832e158c525b3390600090a150600190565b6000610ce86002836124aa565b600081815260056020526040902080546001600160a01b0319166001600160a01b03841690811790915581906121e382611481565b6001600160a01b03167f8c5be1e5ebec7d5bd14f71427d1e84f3dd0314c0f7b2291e5b200ac8c7c3b92560405160405180910390a45050565b60606000610ffe836129c7565b6000610ce882612a23565b600061223f826121a1565b6122a05760405162461bcd60e51b815260206004820152602c60248201527f4552433732313a206f70657261746f7220717565727920666f72206e6f6e657860448201526b34b9ba32b73a103a37b5b2b760a11b6064820152608401610b89565b60006122ab83611481565b9050806001600160a01b0316846001600160a01b031614806122e65750836001600160a01b03166122db84610b21565b6001600160a01b0316145b8061231657506001600160a01b0380821660009081526006602090815260408083209388168352929052205460ff165b949350505050565b600b54600160a01b900460ff161561233557600080fd5b813b63ffffffff16151580156123555750601a54600160b01b900460ff16155b156123af57601a546001600160a01b038381169116146123af5760405162461bcd60e51b815260206004820152601560248201527418dbdb9d1c9858dd081b9bdd081858d8d95c1d1959605a1b6044820152606401610b89565b6001600160a01b0383166000908152600f602052604090205460ff161561240e5760405162461bcd60e51b81526020600482015260136024820152721859191c995cdcc8189b1858dadb1a5cdd1959606a1b6044820152606401610b89565b6001600160a01b0382166000908152600f602052604090205460ff161561246d5760405162461bcd60e51b81526020600482015260136024820152721859191c995cdcc8189b1858dadb1a5cdd1959606a1b6044820152606401610b89565b610cbf838383612a2e565b6000610ce8825490565b6000610ffe8383612bba565b600080808061249d8686612be4565b9097909650945050505050565b6000610ffe8383612c0f565b6000610ffe8383612c2e565b600061231684846001600160a01b038516612c7d565b6000610ffe8383612c9a565b6000612316848484612d0a565b604080514460208201526bffffffffffffffffffffffff193360601b169181019190915242605482015260009082906074016040516020818303038152906040528051906020012060001c610ce89190613991565b6001600160a01b03831661259c5760405162461bcd60e51b815260206004820181905260248201527f4552433732313a206d696e7420746f20746865207a65726f20616464726573736044820152606401610b89565b6125a5826121a1565b156125f25760405162461bcd60e51b815260206004820152601c60248201527f4552433732313a20746f6b656e20616c7265616479206d696e746564000000006044820152606401610b89565b6040805160608101825283815260208082018481524267ffffffffffffffff908116848601908152600d8054600181018255600091825286517fd7b6990105719101dabeb77144f2a3385c8033acd3af97e9423a695e81ad1eb560039092029182015593517fd7b6990105719101dabeb77144f2a3385c8033acd3af97e9423a695e81ad1eb685015590517fd7b6990105719101dabeb77144f2a3385c8033acd3af97e9423a695e81ad1eb7909301805467ffffffffffffffff1916939092169290921790558351918201909352918252906126d19085908590612d4d565b604080516001600160a01b03861681526020810185905242918101919091527f393ccba6479926a7c4a6471a3b4584229e2df48a1858c8caf57680927dced5ff90606001611773565b600061272582611481565b905061273381600084612d80565b61273e6000836121ae565b6001600160a01b03811660009081526001602052604090206127609083612d97565b5061276c600283612da3565b5060405182906000906001600160a01b038416907fddf252ad1be2c89b69c2b068fc378daa952ba7f163c4a11628f55a4df523b3ef908390a45050565b8051610e4090600a90602084019061320a565b6127c784848461231e565b6127d384848484612daf565b611c305760405162461bcd60e51b8152600401610b89906139a5565b6060816128135750506040805180820190915260018152600360fc1b602082015290565b8160005b811561283d57806128278161382f565b91506128369050600a836139f7565b9150612817565b60008167ffffffffffffffff81111561285857612858613565565b6040519080825280601f01601f191660200182016040528015612882576020820181803683370190505b5090506000612892600184613867565b90508593505b83156128fd576128a9600a85613991565b6128b4906030613a0b565b60f81b82826128c281613a23565b9350815181106128d4576128d4613803565b60200101906001600160f81b031916908160001a9053506128f6600a856139f7565b9350612898565b50949350505050565b6001600160a01b03811661296b5760405162461bcd60e51b815260206004820152602660248201527f4f776e61626c653a206e6577206f776e657220697320746865207a65726f206160448201526564647265737360d01b6064820152608401610b89565b600b546040516001600160a01b038084169216907f8be0079c531659141344cd1fd0a4f28419497f9722a3daafe3b4186f6b6457e090600090a3600b80546001600160a01b0319166001600160a01b0392909216919091179055565b606081600001805480602002602001604051908101604052809291908181526020018280548015612a1757602002820191906000526020600020905b815481526020019060010190808311612a03575b50505050509050919050565b6000610ce882612478565b826001600160a01b0316612a4182611481565b6001600160a01b031614612aa95760405162461bcd60e51b815260206004820152602960248201527f4552433732313a207472616e73666572206f6620746f6b656e2074686174206960448201526839903737ba1037bbb760b91b6064820152608401610b89565b6001600160a01b038216612b0b5760405162461bcd60e51b8152602060048201526024808201527f4552433732313a207472616e7366657220746f20746865207a65726f206164646044820152637265737360e01b6064820152608401610b89565b612b16838383612d80565b612b216000826121ae565b6001600160a01b0383166000908152600160205260409020612b439082612d97565b506001600160a01b0382166000908152600160205260409020612b6690826124b6565b50612b73600282846124c2565b5080826001600160a01b0316846001600160a01b03167fddf252ad1be2c89b69c2b068fc378daa952ba7f163c4a11628f55a4df523b3ef60405160405180910390a4505050565b6000826000018281548110612bd157612bd1613803565b9060005260206000200154905092915050565b60008080612bf28585612482565b600081815260029690960160205260409095205494959350505050565b6000610ffe838360008181526001830160205260408120541515610ffe565b6000818152600183016020526040812054612c7557508154600181810184556000848152602080822090930184905584548482528286019093526040902091909155610ce8565b506000610ce8565b6000828152600284016020526040812082905561231684846124b6565b600081815260028301602052604081205480151580612cbe5750612cbe8484612c0f565b610ffe5760405162461bcd60e51b815260206004820152601e60248201527f456e756d657261626c654d61703a206e6f6e6578697374656e74206b657900006044820152606401610b89565b600082815260028401602052604081205480151580612d2e5750612d2e8585612c0f565b83906128fd5760405162461bcd60e51b8152600401610b89919061331e565b612d578383612e80565b612d646000848484612daf565b610cbf5760405162461bcd60e51b8152600401610b89906139a5565b600b54600160a01b900460ff1615610cbf57600080fd5b6000610ffe8383612fa4565b6000610ffe8383613097565b60006001600160a01b0384163b612dc857506001612316565b6000612e49630a85bd0160e11b33888787604051602401612dec9493929190613a3a565b604051602081830303815290604052906001600160e01b0319166020820180516001600160e01b038381831617835250505050604051806060016040528060328152602001613ac7603291396001600160a01b03881691906130b4565b9050600081806020019051810190612e619190613a77565b6001600160e01b031916630a85bd0160e11b1492505050949350505050565b6001600160a01b038216612ed65760405162461bcd60e51b815260206004820181905260248201527f4552433732313a206d696e7420746f20746865207a65726f20616464726573736044820152606401610b89565b612edf816121a1565b15612f2c5760405162461bcd60e51b815260206004820152601c60248201527f4552433732313a20746f6b656e20616c7265616479206d696e746564000000006044820152606401610b89565b612f3860008383612d80565b6001600160a01b0382166000908152600160205260409020612f5a90826124b6565b50612f67600282846124c2565b5060405181906001600160a01b038416906000907fddf252ad1be2c89b69c2b068fc378daa952ba7f163c4a11628f55a4df523b3ef908290a45050565b6000818152600183016020526040812054801561308d576000612fc8600183613867565b8554909150600090612fdc90600190613867565b9050818114613041576000866000018281548110612ffc57612ffc613803565b906000526020600020015490508087600001848154811061301f5761301f613803565b6000918252602080832090910192909255918252600188019052604090208390555b855486908061305257613052613a94565b600190038181906000526020600020016000905590558560010160008681526020019081526020016000206000905560019350505050610ce8565b6000915050610ce8565b60008181526002830160205260408120819055610ffe8383612d97565b6060612316848460008585843b61310d5760405162461bcd60e51b815260206004820152601d60248201527f416464726573733a2063616c6c20746f206e6f6e2d636f6e74726163740000006044820152606401610b89565b600080866001600160a01b031685876040516131299190613aaa565b60006040518083038185875af1925050503d8060008114613166576040519150601f19603f3d011682016040523d82523d6000602084013e61316b565b606091505b509150915061317b828286613186565b979650505050505050565b60608315613195575081610ffe565b8251156131a55782518084602001fd5b8160405162461bcd60e51b8152600401610b89919061331e565b8280548282559060005260206000209081019282156131fa579160200282015b828111156131fa5782358255916020019190600101906131df565b5061320692915061327e565b5090565b82805461321690613729565b90600052602060002090601f01602090048101928261323857600085556131fa565b82601f1061325157805160ff19168380011785556131fa565b828001600101855582156131fa579182015b828111156131fa578251825591602001919060010190613263565b5b80821115613206576000815560010161327f565b6001600160e01b03198116811461124057600080fd5b6000602082840312156132bb57600080fd5b8135610ffe81613293565b60005b838110156132e15781810151838201526020016132c9565b83811115611c305750506000910152565b6000815180845261330a8160208601602086016132c6565b601f01601f19169290920160200192915050565b602081526000610ffe60208301846132f2565b60006020828403121561334357600080fd5b5035919050565b80356001600160a01b038116811461336157600080fd5b919050565b6000806040838503121561337957600080fd5b6133828361334a565b946020939093013593505050565b6000602082840312156133a257600080fd5b610ffe8261334a565b600081518084526020808501945080840160005b838110156133db578151875295820195908201906001016133bf565b509495945050505050565b602081526000610ffe60208301846133ab565b60008060006060848603121561340e57600080fd5b6134178461334a565b92506134256020850161334a565b9150604084013590509250925092565b6000806040838503121561344857600080fd5b50508035926020909101359150565b801515811461124057600080fd5b6000806040838503121561347857600080fd5b6134818361334a565b9150602083013561349181613457565b809150509250929050565b803560ff8116811461336157600080fd5b6000806000606084860312156134c257600080fd5b6134cb8461334a565b92506134d96020850161349c565b91506134e76040850161349c565b90509250925092565b6000806020838503121561350357600080fd5b823567ffffffffffffffff8082111561351b57600080fd5b818501915085601f83011261352f57600080fd5b81358181111561353e57600080fd5b8660208260051b850101111561355357600080fd5b60209290920196919550909350505050565b634e487b7160e01b600052604160045260246000fd5b600067ffffffffffffffff8084111561359657613596613565565b604051601f8501601f19908116603f011681019082821181831017156135be576135be613565565b816040528093508581528686860111156135d757600080fd5b858560208301376000602087830101525050509392505050565b60006020828403121561360357600080fd5b813567ffffffffffffffff81111561361a57600080fd5b8201601f8101841361362b57600080fd5b6123168482356020840161357b565b6000806000806080858703121561365057600080fd5b6136598561334a565b93506136676020860161334a565b925060408501359150606085013567ffffffffffffffff81111561368a57600080fd5b8501601f8101871361369b57600080fd5b6136aa8782356020840161357b565b91505092959194509250565b6000806000606084860312156136cb57600080fd5b6136d48461334a565b92506020840135915060408401356136eb81613457565b809150509250925092565b6000806040838503121561370957600080fd5b6137128361334a565b91506137206020840161334a565b90509250929050565b600181811c9082168061373d57607f821691505b6020821081141561375e57634e487b7160e01b600052602260045260246000fd5b50919050565b60006020828403121561377657600080fd5b5051919050565b6020808252818101527f4f776e61626c653a2063616c6c6572206973206e6f7420746865206f776e6572604082015260600190565b60208082526031908201527f4552433732313a207472616e736665722063616c6c6572206973206e6f74206f6040820152701ddb995c881b9bdc88185c1c1c9bdd9959607a1b606082015260800190565b634e487b7160e01b600052603260045260246000fd5b634e487b7160e01b600052601160045260246000fd5b600060001982141561384357613843613819565b5060010190565b60006020828403121561385c57600080fd5b8151610ffe81613457565b60008282101561387957613879613819565b500390565b6001600160a01b03851681526080602082018190526000906138a2908301866133ab565b60ff949094166040830152506060015292915050565b600081516138ca8185602086016132c6565b9290920192915050565b600080845481600182811c9150808316806138f057607f831692505b602080841082141561391057634e487b7160e01b86526022600452602486fd5b818015613924576001811461393557613962565b60ff19861689528489019650613962565b60008b81526020902060005b8681101561395a5781548b820152908501908301613941565b505084890196505b50505050505061397281856138b8565b95945050505050565b634e487b7160e01b600052601260045260246000fd5b6000826139a0576139a061397b565b500690565b60208082526032908201527f4552433732313a207472616e7366657220746f206e6f6e20455243373231526560408201527131b2b4bb32b91034b6b83632b6b2b73a32b960711b606082015260800190565b600082613a0657613a0661397b565b500490565b60008219821115613a1e57613a1e613819565b500190565b600081613a3257613a32613819565b506000190190565b6001600160a01b0385811682528416602082015260408101839052608060608201819052600090613a6d908301846132f2565b9695505050505050565b600060208284031215613a8957600080fd5b8151610ffe81613293565b634e487b7160e01b600052603160045260246000fd5b60008251613abc8184602087016132c6565b919091019291505056fe4552433732313a207472616e7366657220746f206e6f6e20455243373231526563656976657220696d706c656d656e7465724552433732313a206f776e657220717565727920666f72206e6f6e6578697374656e7420746f6b656ea26469706673582212204be65e6cd444ce7d7e1869fc1de4b07acffcea9e29851a436fe02175715daa0f64736f6c634300080b0033",
  "immutableReferences": {},
  "source": "// SPDX-License-Identifier: MIT\r\npragma solidity ^0.8.2;\r\n\r\nimport \"./IBEP20.sol\";\r\nimport \"./IMarketplace.sol\";\r\nimport \"./Ownable.sol\";\r\nimport \"./AccessControl.sol\";\r\nimport \"./ERC721.sol\";\r\nimport \"./ERC721Pausable.sol\";\r\nimport \"./EnumerableSet.sol\";\r\nimport \"./EnumerableMap.sol\";\r\nimport \"./IPieceCore.sol\";\r\nimport \"./ReentrancyGuard.sol\";\r\n\r\ncontract PieceCore is Ownable, ERC721Pausable, IPieceCore, ReentrancyGuard {\r\n    using EnumerableSet for EnumerableSet.UintSet;\r\n    using EnumerableMap for EnumerableMap.UintToAddressMap;\r\n\r\n    /*** DATA TYPES ***/\r\n    struct Piece {\r\n        uint256 tokenId; // current token id, theorically this will be the same as pieceId\r\n        uint256 pieceId;\r\n        uint64 birthTime; // The timestamp from the block when this Piece came into existence.\r\n    }\r\n\r\n    enum Rarity {\r\n        E,\r\n        D,\r\n        C,\r\n        B,\r\n        A,\r\n        S\r\n    }\r\n\r\n    enum PackageType {\r\n        Default,\r\n        First,\r\n        Second,\r\n        Third\r\n    }\r\n\r\n    /*** STORAGE ***/\r\n    /// @dev An array containing the Piece struct for all pieces in existence. The ID\r\n    ///  of each Piece is actually an index into this array.\r\n    Piece[] pieces;\r\n\r\n    /* PACKAGE VARIABLES */\r\n    mapping(address => EnumerableSet.UintSet) private _contributorPieceId;\r\n    mapping(address => bool) private _banBlackList;\r\n    uint256[] private _availablePieces;\r\n    EnumerableMap.UintToAddressMap private _pieceIdContributor;\r\n\r\n    uint256 private nextPieceTokenId = 1;\r\n    uint256 private piecePrice = 5 * 10**18; // to review\r\n\r\n    /* SETTABLE VARIABLES */\r\n    address private _mekaDeployerAddress;\r\n    address private _piecePackageAddress;\r\n    address private _piecePackageGen1Address;\r\n    address private _mekaAddress;\r\n    address private _marketplaceAddr;\r\n    bool private isBurn;\r\n    bool private isPieceFactoryOpen;\r\n    bool private acceptContracts;\r\n    uint256 private bnbFee = 0.005 * 10**18;\r\n\r\n    event MintedPieceFromBundle(\r\n        address from,\r\n        uint256[] pieceId,\r\n        uint8 packageType,\r\n        uint256 date\r\n    );\r\n    event CreatePiece(\r\n        address from,\r\n        uint256 pieceId,\r\n        bool fromFarm,\r\n        uint256 date\r\n    );\r\n\r\n    constructor(address mekaAddress) ERC721(\"Meka Piece\", \"MekaPiece\") {\r\n        isBurn = true;\r\n        _mekaAddress = mekaAddress;\r\n        isPieceFactoryOpen = true;\r\n    }\r\n\r\n    function getPricesData()\r\n        external\r\n        view\r\n        returns (uint256 _bnbFee, uint256 _piecePrice)\r\n    {\r\n        return (bnbFee, piecePrice);\r\n    }\r\n\r\n    function getAddressesData()\r\n        external\r\n        view\r\n        returns (\r\n            address tokenAddress,\r\n            address marketPlaceAddress,\r\n            address mekaDeployer,\r\n            address robotPackageGen0,\r\n            address robotPackageGen1\r\n        )\r\n    {\r\n        return (\r\n            _mekaAddress,\r\n            _marketplaceAddr,\r\n            _mekaDeployerAddress,\r\n            _piecePackageAddress,\r\n            _piecePackageGen1Address\r\n        );\r\n    }\r\n\r\n    function getBooleansData()\r\n        external\r\n        view\r\n        returns (\r\n            bool _isBurn,\r\n            bool _acceptContracts,\r\n            bool _isPieceFactoryOpen\r\n        )\r\n    {\r\n        return (isBurn, acceptContracts, isPieceFactoryOpen);\r\n    }\r\n\r\n    function setContributorPieceId(address contributor, uint256 pieceId)\r\n        external\r\n        onlyOwner\r\n    {\r\n        require(\r\n            !_pieceIdContributor.contains(pieceId),\r\n            \"appearenceId already has a contributor\"\r\n        );\r\n\r\n        _contributorPieceId[contributor].add(pieceId);\r\n        _pieceIdContributor.set(pieceId, contributor);\r\n    }\r\n\r\n    function updateAcceptContract() external onlyOwner {\r\n        acceptContracts = !acceptContracts;\r\n    }\r\n\r\n    function setBnbFeeAddress(uint256 fee) external onlyOwner {\r\n        bnbFee = fee;\r\n    }\r\n\r\n    function setAvailablePieces(uint256[] calldata pieceIds)\r\n        external\r\n        onlyOwner\r\n    {\r\n        _availablePieces = pieceIds;\r\n    }\r\n\r\n    function isBlacklisted(address addr) external view returns (bool) {\r\n        return _banBlackList[addr];\r\n    }\r\n\r\n    function setBlackList(address addr, bool isBlackListed) external onlyOwner {\r\n        _banBlackList[addr] = isBlackListed;\r\n    }\r\n\r\n    function setPiecePrice(uint256 _price) external onlyOwner {\r\n        piecePrice = _price;\r\n    }\r\n\r\n    function setTokenAddress(address _addr) external onlyOwner {\r\n        _mekaAddress = _addr;\r\n    }\r\n\r\n    function setPiecePackageAddress(address _address) external onlyOwner {\r\n        _piecePackageAddress = _address;\r\n    }\r\n\r\n    function setPiecePackageGen1Address(address _address) external onlyOwner {\r\n        _piecePackageGen1Address = _address;\r\n    }\r\n\r\n    // @dev Sets the reference to the sale.\r\n    /// @param _address - Address of sale contract.\r\n    function setMarketplaceAddress(address _address) external onlyOwner {\r\n        _marketplaceAddr = _address;\r\n    }\r\n\r\n    function setMekaDeployerAddress(address _mekaDeployAddr)\r\n        external\r\n        onlyOwner\r\n    {\r\n        _mekaDeployerAddress = _mekaDeployAddr;\r\n    }\r\n\r\n    // @dev Sets the reference to the burn.\r\n    function updateIsBurn() external onlyOwner {\r\n        isBurn = !isBurn;\r\n    }\r\n\r\n    function updatePieceFactory() external onlyOwner {\r\n        isPieceFactoryOpen = !isPieceFactoryOpen;\r\n    }\r\n\r\n    function setBaseUri(string memory baseUri) external onlyOwner {\r\n        _setBaseURI(baseUri);\r\n    }\r\n\r\n    modifier onlyBundle() {\r\n        require(\r\n            msg.sender == _piecePackageAddress ||\r\n                msg.sender == _piecePackageGen1Address,\r\n            \"not bundle\"\r\n        );\r\n        _;\r\n    }\r\n\r\n    modifier pieceFactory() {\r\n        require(isPieceFactoryOpen, \"piece factory closed\");\r\n        _;\r\n    }\r\n\r\n    modifier onlyMekaDeployer() {\r\n        require(msg.sender == _mekaDeployerAddress, \"not mekadeploy\");\r\n        _;\r\n    }\r\n\r\n    function withdrawBalance() external onlyOwner {\r\n        IBEP20(_mekaAddress).transfer(owner(), getBalance());\r\n    }\r\n\r\n    function withdrawBnb() external onlyOwner {\r\n        uint256 amount = address(this).balance;\r\n\r\n        (bool success, ) = payable(owner()).call{value: amount}(\"\");\r\n        require(success, \"Failed to send Bnb\");\r\n    }\r\n\r\n    function _mintPiece(\r\n        address to,\r\n        uint256 tokenId,\r\n        uint256 pieceId\r\n    ) private {\r\n        require(to != address(0), \"ERC721: mint to the zero address\");\r\n        require(!_exists(tokenId), \"ERC721: token already minted\");\r\n\r\n        Piece memory _piece = Piece({\r\n            tokenId: tokenId,\r\n            pieceId: pieceId,\r\n            birthTime: uint64(block.timestamp)\r\n        });\r\n\r\n        pieces.push(_piece);\r\n\r\n        _safeMint(to, tokenId, \"\");\r\n\r\n        emit Birth(to, tokenId, block.timestamp);\r\n    }\r\n\r\n    function createPiece(\r\n        address _owner,\r\n        uint256 _amount,\r\n        bool _fromFarm\r\n    ) external onlyMekaDeployer pieceFactory whenNotPaused {\r\n        require(!isContract(_owner), \"owner can not be a contract\");\r\n        if (!_fromFarm) {\r\n            require(_amount >= piecePrice, \"INVALID AMOUNT\");\r\n            require(\r\n                IBEP20(_mekaAddress).transferFrom(\r\n                    _owner,\r\n                    address(this),\r\n                    _amount\r\n                )\r\n            );\r\n        }\r\n        _mintPiece(\r\n            _owner,\r\n            nextPieceTokenId,\r\n            _availablePieces[random(_availablePieces.length)]\r\n        );\r\n\r\n        emit CreatePiece(_owner, nextPieceTokenId, _fromFarm, block.timestamp);\r\n        nextPieceTokenId++;\r\n    }\r\n\r\n    function createSale(uint256 _tokenId, uint256 _startingPrice)\r\n        external\r\n        payable\r\n        nonReentrant\r\n        whenNotPaused\r\n    {\r\n        require(msg.sender == ownerOf(_tokenId), \"Not owner\");\r\n        require(msg.value >= bnbFee, \"not enough for fee\");\r\n        Piece memory piece = getPiece(_tokenId);\r\n\r\n        _approve(_marketplaceAddr, _tokenId);\r\n        IMarketplace(_marketplaceAddr).createSale(\r\n            _tokenId,\r\n            piece.pieceId,\r\n            !_pieceIdContributor.contains(piece.pieceId)\r\n                ? address(0)\r\n                : _pieceIdContributor.get(piece.pieceId),\r\n            _startingPrice,\r\n            msg.sender\r\n        );\r\n    }\r\n\r\n    function burnPiece(uint256 _tokenId) external whenNotPaused {\r\n        require(isBurn, \"Burning is not allowed\");\r\n        require(\r\n            msg.sender == ownerOf(_tokenId) ||\r\n                msg.sender == _mekaDeployerAddress,\r\n            \"Not tokenId owner\"\r\n        );\r\n\r\n        _burn(_tokenId); // burn token\r\n    }\r\n\r\n    /// @notice Returns all pieces made by a specific contributor.\r\n    /// @param _contributor contributor wallet.\r\n    function getContributorPieces(address _contributor)\r\n        external\r\n        view\r\n        returns (uint256[] memory _contributorPieces)\r\n    {\r\n        _contributorPieces = _contributorPieceId[_contributor].values();\r\n    }\r\n\r\n    /// @notice Returns all the relevant information about a specific Piece.\r\n    /// @param _id The ID of the Piece of interest.\r\n    function getPiece(uint256 _id) public view returns (Piece memory piece) {\r\n        piece = pieces[_id - 1];\r\n    }\r\n\r\n    function getAvailablePieces()\r\n        external\r\n        view\r\n        returns (uint256[] memory pieceIds)\r\n    {\r\n        return _availablePieces;\r\n    }\r\n\r\n    function getBalance() public view returns (uint256) {\r\n        return IBEP20(_mekaAddress).balanceOf(address(this));\r\n    }\r\n\r\n    function getBnbBalance() public view returns (uint256) {\r\n        return address(this).balance;\r\n    }\r\n\r\n    function createPieceFromBundle(\r\n        address _owner,\r\n        uint8 packageType,\r\n        uint8 pieceQuantity\r\n    ) external onlyBundle pieceFactory whenNotPaused {\r\n        uint256[] memory allTokens = new uint256[](pieceQuantity);\r\n\r\n        for (uint256 index = 0; index < pieceQuantity; index++) {\r\n            allTokens[index] = nextPieceTokenId;\r\n            _mintPiece(\r\n                _owner,\r\n                nextPieceTokenId,\r\n                _availablePieces[random(_availablePieces.length)]\r\n            );\r\n            nextPieceTokenId++;\r\n        }\r\n\r\n        emit MintedPieceFromBundle(\r\n            _owner,\r\n            allTokens,\r\n            packageType,\r\n            block.timestamp\r\n        );\r\n    }\r\n\r\n    function _transfer(\r\n        address from,\r\n        address to,\r\n        uint256 tokenId\r\n    ) internal override whenNotPaused {\r\n        if (isContract(to) && !acceptContracts) {\r\n            require(to == _marketplaceAddr, \"contract not accepted\");\r\n        }\r\n        require(!_banBlackList[from], \"address blacklisted\");\r\n        require(!_banBlackList[to], \"address blacklisted\");\r\n\r\n        super._transfer(from, to, tokenId);\r\n    }\r\n\r\n    /**\r\n     * @dev Identify an address is user address or contract address\r\n     */\r\n    function isContract(address _address) private view returns (bool) {\r\n        uint32 size;\r\n        assembly {\r\n            size := extcodesize(_address)\r\n        }\r\n        return (size > 0);\r\n    }\r\n\r\n    function random(uint256 _modulus) private view returns (uint256) {\r\n        return\r\n            uint256(\r\n                keccak256(\r\n                    abi.encodePacked(\r\n                        block.difficulty,\r\n                        msg.sender,\r\n                        block.timestamp\r\n                    )\r\n                )\r\n            ) % _modulus;\r\n    }\r\n}\r\n",
  "sourcePath": "E:\\MekaMiners\\contracts\\PieceCore.sol",
  "compiler": {
    "name": "solc",
    "version": "0.8.11+commit.d7f03943.Emscripten.clang"
  },
  "schemaVersion": "3.4.3",
  "updatedAt": "2022-01-18T23:39:32.656Z",
  "networkType": "ethereum",
  "devdoc": {
    "kind": "dev",
    "methods": {
      "_pause()": {
        "details": "called by the owner to pause, triggers stopped state"
      },
      "_unpause()": {
        "details": "called by the owner to unpause, returns to normal state"
      },
      "approve(address,uint256)": {
        "details": "See {IERC721-approve}."
      },
      "balanceOf(address)": {
        "details": "See {IERC721-balanceOf}."
      },
      "baseURI()": {
        "details": "Returns the base URI set via {_setBaseURI}. This will be automatically added as a prefix in {tokenURI} to each token's URI, or to the token ID if no specific URI is set for that token ID."
      },
      "getApproved(uint256)": {
        "details": "See {IERC721-getApproved}."
      },
      "getContributorPieces(address)": {
        "params": {
          "_contributor": "contributor wallet."
        }
      },
      "getPiece(uint256)": {
        "params": {
          "_id": "The ID of the Piece of interest."
        }
      },
      "isApprovedForAll(address,address)": {
        "details": "See {IERC721-isApprovedForAll}."
      },
      "isOwner()": {
        "details": "Returns true if the caller is the current owner."
      },
      "name()": {
        "details": "See {IERC721Metadata-name}."
      },
      "owner()": {
        "details": "Returns the address of the current owner."
      },
      "ownerOf(uint256)": {
        "details": "See {IERC721-ownerOf}."
      },
      "renounceOwnership()": {
        "details": "Leaves the contract without owner. It will not be possible to call `onlyOwner` functions anymore. Can only be called by the current owner. NOTE: Renouncing ownership will leave the contract without an owner, thereby removing any functionality that is only available to the owner."
      },
      "safeTransferFrom(address,address,uint256)": {
        "details": "See {IERC721-safeTransferFrom}."
      },
      "safeTransferFrom(address,address,uint256,bytes)": {
        "details": "See {IERC721-safeTransferFrom}."
      },
      "setApprovalForAll(address,bool)": {
        "details": "See {IERC721-setApprovalForAll}."
      },
      "setMarketplaceAddress(address)": {
        "params": {
          "_address": "- Address of sale contract."
        }
      },
      "supportsInterface(bytes4)": {
        "details": "See {IERC165-supportsInterface}. Time complexity O(1), guaranteed to always use less than 30 000 gas."
      },
      "symbol()": {
        "details": "See {IERC721Metadata-symbol}."
      },
      "tokenByIndex(uint256)": {
        "details": "See {IERC721Enumerable-tokenByIndex}."
      },
      "tokenOfOwner(address)": {
        "details": "See {IERC721Enumerable-tokenOfOwner}."
      },
      "tokenOfOwnerByIndex(address,uint256)": {
        "details": "See {IERC721Enumerable-tokenOfOwnerByIndex}."
      },
      "tokenURI(uint256)": {
        "details": "See {IERC721Metadata-tokenURI}."
      },
      "totalSupply()": {
        "details": "See {IERC721Enumerable-totalSupply}."
      },
      "transferFrom(address,address,uint256)": {
        "details": "See {IERC721-transferFrom}."
      },
      "transferOwnership(address)": {
        "details": "Transfers ownership of the contract to a new account (`newOwner`). Can only be called by the current owner."
      }
    },
    "stateVariables": {
      "pieces": {
        "details": "An array containing the Piece struct for all pieces in existence. The ID  of each Piece is actually an index into this array."
      }
    },
    "version": 1
  },
  "userdoc": {
    "kind": "user",
    "methods": {
      "getContributorPieces(address)": {
        "notice": "Returns all pieces made by a specific contributor."
      },
      "getPiece(uint256)": {
        "notice": "Returns all the relevant information about a specific Piece."
      }
    },
    "version": 1
  }
}