{
  "contractName": "PiecePackage",
  "abi": [
    {
      "inputs": [],
      "stateMutability": "nonpayable",
      "type": "constructor"
    },
    {
      "anonymous": false,
      "inputs": [
        {
          "indexed": true,
          "internalType": "address",
          "name": "owner",
          "type": "address"
        },
        {
          "indexed": true,
          "internalType": "address",
          "name": "approved",
          "type": "address"
        },
        {
          "indexed": true,
          "internalType": "uint256",
          "name": "tokenId",
          "type": "uint256"
        }
      ],
      "name": "Approval",
      "type": "event"
    },
    {
      "anonymous": false,
      "inputs": [
        {
          "indexed": true,
          "internalType": "address",
          "name": "owner",
          "type": "address"
        },
        {
          "indexed": true,
          "internalType": "address",
          "name": "operator",
          "type": "address"
        },
        {
          "indexed": false,
          "internalType": "bool",
          "name": "approved",
          "type": "bool"
        }
      ],
      "name": "ApprovalForAll",
      "type": "event"
    },
    {
      "anonymous": false,
      "inputs": [
        {
          "indexed": false,
          "internalType": "address",
          "name": "owner",
          "type": "address"
        },
        {
          "indexed": false,
          "internalType": "uint256",
          "name": "tokenId",
          "type": "uint256"
        },
        {
          "indexed": false,
          "internalType": "uint256",
          "name": "date",
          "type": "uint256"
        }
      ],
      "name": "Birth",
      "type": "event"
    },
    {
      "anonymous": false,
      "inputs": [
        {
          "indexed": false,
          "internalType": "address",
          "name": "from",
          "type": "address"
        },
        {
          "indexed": false,
          "internalType": "uint256[]",
          "name": "pieceId",
          "type": "uint256[]"
        },
        {
          "indexed": false,
          "internalType": "uint256",
          "name": "date",
          "type": "uint256"
        }
      ],
      "name": "MintedPieceFromBundle",
      "type": "event"
    },
    {
      "anonymous": false,
      "inputs": [
        {
          "indexed": true,
          "internalType": "address",
          "name": "previousOwner",
          "type": "address"
        },
        {
          "indexed": true,
          "internalType": "address",
          "name": "newOwner",
          "type": "address"
        }
      ],
      "name": "OwnershipTransferred",
      "type": "event"
    },
    {
      "anonymous": false,
      "inputs": [
        {
          "indexed": false,
          "internalType": "address",
          "name": "to",
          "type": "address"
        },
        {
          "indexed": false,
          "internalType": "uint256",
          "name": "packId",
          "type": "uint256"
        },
        {
          "indexed": false,
          "internalType": "uint8",
          "name": "packageType",
          "type": "uint8"
        },
        {
          "indexed": false,
          "internalType": "uint256",
          "name": "date",
          "type": "uint256"
        },
        {
          "indexed": false,
          "internalType": "bool",
          "name": "isPresale",
          "type": "bool"
        }
      ],
      "name": "PackageCreated",
      "type": "event"
    },
    {
      "anonymous": false,
      "inputs": [],
      "name": "Pause",
      "type": "event"
    },
    {
      "anonymous": false,
      "inputs": [
        {
          "indexed": true,
          "internalType": "address",
          "name": "from",
          "type": "address"
        },
        {
          "indexed": true,
          "internalType": "address",
          "name": "to",
          "type": "address"
        },
        {
          "indexed": true,
          "internalType": "uint256",
          "name": "tokenId",
          "type": "uint256"
        }
      ],
      "name": "Transfer",
      "type": "event"
    },
    {
      "anonymous": false,
      "inputs": [
        {
          "indexed": false,
          "internalType": "address",
          "name": "from",
          "type": "address"
        },
        {
          "indexed": false,
          "internalType": "uint256",
          "name": "packId",
          "type": "uint256"
        },
        {
          "indexed": false,
          "internalType": "uint8",
          "name": "packageType",
          "type": "uint8"
        },
        {
          "indexed": false,
          "internalType": "uint256",
          "name": "date",
          "type": "uint256"
        }
      ],
      "name": "Unpacked",
      "type": "event"
    },
    {
      "anonymous": false,
      "inputs": [],
      "name": "Unpause",
      "type": "event"
    },
    {
      "inputs": [],
      "name": "_mekaAddress",
      "outputs": [
        {
          "internalType": "address",
          "name": "",
          "type": "address"
        }
      ],
      "stateMutability": "view",
      "type": "function",
      "constant": true
    },
    {
      "inputs": [],
      "name": "_pause",
      "outputs": [
        {
          "internalType": "bool",
          "name": "",
          "type": "bool"
        }
      ],
      "stateMutability": "nonpayable",
      "type": "function"
    },
    {
      "inputs": [],
      "name": "_pieceAddress",
      "outputs": [
        {
          "internalType": "address",
          "name": "",
          "type": "address"
        }
      ],
      "stateMutability": "view",
      "type": "function",
      "constant": true
    },
    {
      "inputs": [],
      "name": "_unpause",
      "outputs": [
        {
          "internalType": "bool",
          "name": "",
          "type": "bool"
        }
      ],
      "stateMutability": "nonpayable",
      "type": "function"
    },
    {
      "inputs": [
        {
          "internalType": "address",
          "name": "to",
          "type": "address"
        },
        {
          "internalType": "uint256",
          "name": "tokenId",
          "type": "uint256"
        }
      ],
      "name": "approve",
      "outputs": [],
      "stateMutability": "nonpayable",
      "type": "function"
    },
    {
      "inputs": [
        {
          "internalType": "address",
          "name": "owner",
          "type": "address"
        }
      ],
      "name": "balanceOf",
      "outputs": [
        {
          "internalType": "uint256",
          "name": "",
          "type": "uint256"
        }
      ],
      "stateMutability": "view",
      "type": "function",
      "constant": true
    },
    {
      "inputs": [],
      "name": "baseURI",
      "outputs": [
        {
          "internalType": "string",
          "name": "",
          "type": "string"
        }
      ],
      "stateMutability": "view",
      "type": "function",
      "constant": true
    },
    {
      "inputs": [],
      "name": "canUnpack",
      "outputs": [
        {
          "internalType": "bool",
          "name": "",
          "type": "bool"
        }
      ],
      "stateMutability": "view",
      "type": "function",
      "constant": true
    },
    {
      "inputs": [
        {
          "internalType": "uint256",
          "name": "tokenId",
          "type": "uint256"
        }
      ],
      "name": "getApproved",
      "outputs": [
        {
          "internalType": "address",
          "name": "",
          "type": "address"
        }
      ],
      "stateMutability": "view",
      "type": "function",
      "constant": true
    },
    {
      "inputs": [
        {
          "internalType": "address",
          "name": "owner",
          "type": "address"
        },
        {
          "internalType": "address",
          "name": "operator",
          "type": "address"
        }
      ],
      "name": "isApprovedForAll",
      "outputs": [
        {
          "internalType": "bool",
          "name": "",
          "type": "bool"
        }
      ],
      "stateMutability": "view",
      "type": "function",
      "constant": true
    },
    {
      "inputs": [],
      "name": "isOwner",
      "outputs": [
        {
          "internalType": "bool",
          "name": "",
          "type": "bool"
        }
      ],
      "stateMutability": "view",
      "type": "function",
      "constant": true
    },
    {
      "inputs": [],
      "name": "isPackageAvailable",
      "outputs": [
        {
          "internalType": "bool",
          "name": "",
          "type": "bool"
        }
      ],
      "stateMutability": "view",
      "type": "function",
      "constant": true
    },
    {
      "inputs": [],
      "name": "name",
      "outputs": [
        {
          "internalType": "string",
          "name": "",
          "type": "string"
        }
      ],
      "stateMutability": "view",
      "type": "function",
      "constant": true
    },
    {
      "inputs": [],
      "name": "owner",
      "outputs": [
        {
          "internalType": "address",
          "name": "",
          "type": "address"
        }
      ],
      "stateMutability": "view",
      "type": "function",
      "constant": true
    },
    {
      "inputs": [
        {
          "internalType": "uint256",
          "name": "tokenId",
          "type": "uint256"
        }
      ],
      "name": "ownerOf",
      "outputs": [
        {
          "internalType": "address",
          "name": "",
          "type": "address"
        }
      ],
      "stateMutability": "view",
      "type": "function",
      "constant": true
    },
    {
      "inputs": [],
      "name": "paused",
      "outputs": [
        {
          "internalType": "bool",
          "name": "",
          "type": "bool"
        }
      ],
      "stateMutability": "view",
      "type": "function",
      "constant": true
    },
    {
      "inputs": [],
      "name": "renounceOwnership",
      "outputs": [],
      "stateMutability": "nonpayable",
      "type": "function"
    },
    {
      "inputs": [
        {
          "internalType": "address",
          "name": "from",
          "type": "address"
        },
        {
          "internalType": "address",
          "name": "to",
          "type": "address"
        },
        {
          "internalType": "uint256",
          "name": "tokenId",
          "type": "uint256"
        }
      ],
      "name": "safeTransferFrom",
      "outputs": [],
      "stateMutability": "nonpayable",
      "type": "function"
    },
    {
      "inputs": [
        {
          "internalType": "address",
          "name": "from",
          "type": "address"
        },
        {
          "internalType": "address",
          "name": "to",
          "type": "address"
        },
        {
          "internalType": "uint256",
          "name": "tokenId",
          "type": "uint256"
        },
        {
          "internalType": "bytes",
          "name": "_data",
          "type": "bytes"
        }
      ],
      "name": "safeTransferFrom",
      "outputs": [],
      "stateMutability": "nonpayable",
      "type": "function"
    },
    {
      "inputs": [
        {
          "internalType": "address",
          "name": "operator",
          "type": "address"
        },
        {
          "internalType": "bool",
          "name": "approved",
          "type": "bool"
        }
      ],
      "name": "setApprovalForAll",
      "outputs": [],
      "stateMutability": "nonpayable",
      "type": "function"
    },
    {
      "inputs": [
        {
          "internalType": "bytes4",
          "name": "interfaceId",
          "type": "bytes4"
        }
      ],
      "name": "supportsInterface",
      "outputs": [
        {
          "internalType": "bool",
          "name": "",
          "type": "bool"
        }
      ],
      "stateMutability": "view",
      "type": "function",
      "constant": true
    },
    {
      "inputs": [],
      "name": "symbol",
      "outputs": [
        {
          "internalType": "string",
          "name": "",
          "type": "string"
        }
      ],
      "stateMutability": "view",
      "type": "function",
      "constant": true
    },
    {
      "inputs": [
        {
          "internalType": "uint256",
          "name": "index",
          "type": "uint256"
        }
      ],
      "name": "tokenByIndex",
      "outputs": [
        {
          "internalType": "uint256",
          "name": "",
          "type": "uint256"
        }
      ],
      "stateMutability": "view",
      "type": "function",
      "constant": true
    },
    {
      "inputs": [
        {
          "internalType": "address",
          "name": "owner",
          "type": "address"
        }
      ],
      "name": "tokenOfOwner",
      "outputs": [
        {
          "internalType": "uint256[]",
          "name": "",
          "type": "uint256[]"
        }
      ],
      "stateMutability": "view",
      "type": "function",
      "constant": true
    },
    {
      "inputs": [
        {
          "internalType": "address",
          "name": "owner",
          "type": "address"
        },
        {
          "internalType": "uint256",
          "name": "index",
          "type": "uint256"
        }
      ],
      "name": "tokenOfOwnerByIndex",
      "outputs": [
        {
          "internalType": "uint256",
          "name": "",
          "type": "uint256"
        }
      ],
      "stateMutability": "view",
      "type": "function",
      "constant": true
    },
    {
      "inputs": [
        {
          "internalType": "uint256",
          "name": "tokenId",
          "type": "uint256"
        }
      ],
      "name": "tokenURI",
      "outputs": [
        {
          "internalType": "string",
          "name": "",
          "type": "string"
        }
      ],
      "stateMutability": "view",
      "type": "function",
      "constant": true
    },
    {
      "inputs": [],
      "name": "totalSupply",
      "outputs": [
        {
          "internalType": "uint256",
          "name": "",
          "type": "uint256"
        }
      ],
      "stateMutability": "view",
      "type": "function",
      "constant": true
    },
    {
      "inputs": [
        {
          "internalType": "address",
          "name": "newOwner",
          "type": "address"
        }
      ],
      "name": "transferOwnership",
      "outputs": [],
      "stateMutability": "nonpayable",
      "type": "function"
    },
    {
      "inputs": [
        {
          "internalType": "uint32",
          "name": "quantity",
          "type": "uint32"
        }
      ],
      "name": "setPackageLimit",
      "outputs": [],
      "stateMutability": "nonpayable",
      "type": "function"
    },
    {
      "inputs": [
        {
          "internalType": "uint32",
          "name": "quantity",
          "type": "uint32"
        }
      ],
      "name": "setFirstPackageLimit",
      "outputs": [],
      "stateMutability": "nonpayable",
      "type": "function"
    },
    {
      "inputs": [
        {
          "internalType": "uint32",
          "name": "quantity",
          "type": "uint32"
        }
      ],
      "name": "setSecondPackageLimit",
      "outputs": [],
      "stateMutability": "nonpayable",
      "type": "function"
    },
    {
      "inputs": [
        {
          "internalType": "uint32",
          "name": "quantity",
          "type": "uint32"
        }
      ],
      "name": "setThirdPackageLimit",
      "outputs": [],
      "stateMutability": "nonpayable",
      "type": "function"
    },
    {
      "inputs": [
        {
          "internalType": "enum PiecePackage.PackageType",
          "name": "_packageType",
          "type": "uint8"
        },
        {
          "internalType": "uint8",
          "name": "quantity",
          "type": "uint8"
        }
      ],
      "name": "setPackageTypePieces",
      "outputs": [],
      "stateMutability": "nonpayable",
      "type": "function"
    },
    {
      "inputs": [
        {
          "internalType": "enum PiecePackage.PackageType",
          "name": "_packageType",
          "type": "uint8"
        },
        {
          "internalType": "uint256",
          "name": "amount",
          "type": "uint256"
        }
      ],
      "name": "setPackageTypePrice",
      "outputs": [],
      "stateMutability": "nonpayable",
      "type": "function"
    },
    {
      "inputs": [
        {
          "internalType": "uint256",
          "name": "_price",
          "type": "uint256"
        }
      ],
      "name": "setPiecePackagePrice",
      "outputs": [],
      "stateMutability": "nonpayable",
      "type": "function"
    },
    {
      "inputs": [
        {
          "internalType": "address",
          "name": "_addr",
          "type": "address"
        }
      ],
      "name": "setTokenAddress",
      "outputs": [],
      "stateMutability": "nonpayable",
      "type": "function"
    },
    {
      "inputs": [
        {
          "internalType": "address",
          "name": "_addr",
          "type": "address"
        }
      ],
      "name": "setPieceAddress",
      "outputs": [],
      "stateMutability": "nonpayable",
      "type": "function"
    },
    {
      "inputs": [],
      "name": "updateCanUnpack",
      "outputs": [],
      "stateMutability": "nonpayable",
      "type": "function"
    },
    {
      "inputs": [],
      "name": "updatePackageAvailable",
      "outputs": [],
      "stateMutability": "nonpayable",
      "type": "function"
    },
    {
      "inputs": [],
      "name": "withdrawBalance",
      "outputs": [],
      "stateMutability": "nonpayable",
      "type": "function"
    },
    {
      "inputs": [],
      "name": "withdrawBnb",
      "outputs": [],
      "stateMutability": "nonpayable",
      "type": "function"
    },
    {
      "inputs": [],
      "name": "getBalance",
      "outputs": [
        {
          "internalType": "uint256",
          "name": "",
          "type": "uint256"
        }
      ],
      "stateMutability": "view",
      "type": "function",
      "constant": true
    },
    {
      "inputs": [],
      "name": "getBnbBalance",
      "outputs": [
        {
          "internalType": "uint256",
          "name": "",
          "type": "uint256"
        }
      ],
      "stateMutability": "view",
      "type": "function",
      "constant": true
    },
    {
      "inputs": [],
      "name": "pause",
      "outputs": [],
      "stateMutability": "nonpayable",
      "type": "function"
    },
    {
      "inputs": [],
      "name": "unpause",
      "outputs": [],
      "stateMutability": "nonpayable",
      "type": "function"
    },
    {
      "inputs": [
        {
          "internalType": "enum PiecePackage.PackageType",
          "name": "_packageType",
          "type": "uint8"
        },
        {
          "internalType": "bool",
          "name": "_isPresale",
          "type": "bool"
        }
      ],
      "name": "createPackage",
      "outputs": [],
      "stateMutability": "payable",
      "type": "function",
      "payable": true
    },
    {
      "inputs": [
        {
          "internalType": "address",
          "name": "_owner",
          "type": "address"
        },
        {
          "internalType": "enum PiecePackage.PackageType",
          "name": "_packageType",
          "type": "uint8"
        },
        {
          "internalType": "bool",
          "name": "_isPresale",
          "type": "bool"
        }
      ],
      "name": "createPackageExtra",
      "outputs": [],
      "stateMutability": "nonpayable",
      "type": "function"
    },
    {
      "inputs": [
        {
          "internalType": "uint256",
          "name": "_amount",
          "type": "uint256"
        },
        {
          "internalType": "uint256",
          "name": "_tokenId",
          "type": "uint256"
        }
      ],
      "name": "openPackage",
      "outputs": [],
      "stateMutability": "nonpayable",
      "type": "function"
    },
    {
      "inputs": [],
      "name": "getPackagesCount",
      "outputs": [
        {
          "internalType": "uint32",
          "name": "_firstPackageCount",
          "type": "uint32"
        },
        {
          "internalType": "uint32",
          "name": "_secondPackageCount",
          "type": "uint32"
        },
        {
          "internalType": "uint32",
          "name": "_thirdPackageCount",
          "type": "uint32"
        }
      ],
      "stateMutability": "view",
      "type": "function",
      "constant": true
    },
    {
      "inputs": [
        {
          "internalType": "uint256",
          "name": "_id",
          "type": "uint256"
        }
      ],
      "name": "getPackage",
      "outputs": [
        {
          "components": [
            {
              "internalType": "address",
              "name": "owner",
              "type": "address"
            },
            {
              "internalType": "uint256",
              "name": "packageId",
              "type": "uint256"
            },
            {
              "internalType": "uint8",
              "name": "quantity",
              "type": "uint8"
            },
            {
              "internalType": "enum PiecePackage.PackageType",
              "name": "packageType",
              "type": "uint8"
            },
            {
              "internalType": "uint64",
              "name": "birthTime",
              "type": "uint64"
            }
          ],
          "internalType": "struct PiecePackage.Package",
          "name": "package",
          "type": "tuple"
        }
      ],
      "stateMutability": "view",
      "type": "function",
      "constant": true
    },
    {
      "inputs": [
        {
          "internalType": "address",
          "name": "_from",
          "type": "address"
        },
        {
          "internalType": "address",
          "name": "_receiver",
          "type": "address"
        },
        {
          "internalType": "uint256",
          "name": "_tokenId",
          "type": "uint256"
        }
      ],
      "name": "transferFrom",
      "outputs": [],
      "stateMutability": "nonpayable",
      "type": "function"
    }
  ],
  "bytecode": "0x6080604052600b805460ff60a01b19169055600560125560138054600160801b600160e01b031916784b000000af00000154000000000000000000000000000000001790556702c68af0bb1400006014556706f05b59d3b20000601555670c7d713b49da00006016556001601755674563918244f400006018553480156200008657600080fd5b50604080518082018252600d81526c4d656b61626f7420506965636560981b6020808301919091528251808401909352600c83526b4d656b615069656365506b6760a01b9083015290620000e16301ffc9a760e01b62000203565b8151620000f6906007906020850190620003b9565b5080516200010c906008906020840190620003b9565b506200011f6380ac58cd60e01b62000203565b62000131635b5e139f60e01b62000203565b6200014363780e9d6360e01b62000203565b5050600b80546001600160a01b0319163390811790915560405181906000907f8be0079c531659141344cd1fd0a4f28419497f9722a3daafe3b4186f6b6457e0908290a3506001600c8190556019805461ffff19169055601454620001a9919062000288565b620001be60026015546200028860201b60201c565b620001d360036016546200028860201b60201c565b620001e16001600262000316565b620001ef6002600462000316565b620001fd6003600662000316565b620004b2565b6001600160e01b03198082161415620002635760405162461bcd60e51b815260206004820152601c60248201527f4552433136353a20696e76616c696420696e746572666163652069640000000060448201526064015b60405180910390fd5b6001600160e01b0319166000908152602081905260409020805460ff19166001179055565b600b546001600160a01b03163314620002d35760405162461bcd60e51b8152602060048201819052602482015260008051602062003eb383398151915260448201526064016200025a565b8060106000846003811115620002ed57620002ed6200045f565b60038111156200030157620003016200045f565b81526020810191909152604001600020555050565b600b546001600160a01b03163314620003615760405162461bcd60e51b8152602060048201819052602482015260008051602062003eb383398151915260448201526064016200025a565b80600f60008460038111156200037b576200037b6200045f565b60038111156200038f576200038f6200045f565b815260200190815260200160002060006101000a81548160ff021916908360ff1602179055505050565b828054620003c79062000475565b90600052602060002090601f016020900481019282620003eb576000855562000436565b82601f106200040657805160ff191683800117855562000436565b8280016001018555821562000436579182015b828111156200043657825182559160200191906001019062000419565b506200044492915062000448565b5090565b5b8082111562000444576000815560010162000449565b634e487b7160e01b600052602160045260246000fd5b600181811c908216806200048a57607f821691505b60208210811415620004ac57634e487b7160e01b600052602260045260246000fd5b50919050565b6139f180620004c26000396000f3fe6080604052600436106102e45760003560e01c80636c0360eb11610190578063b88d4fde116100dc578063d41f90b011610095578063e7d90c731161006f578063e7d90c73146108c0578063e985e9c5146108e0578063f2fde38b14610929578063fc8234cb1461094957600080fd5b8063d41f90b014610842578063d525f50414610886578063dcbb46d7146108a057600080fd5b8063b88d4fde1461078d578063b99dfe18146107ad578063befc6cc3146107da578063c201ca8a146107fa578063c41e89f51461080f578063c87b56dd1461082257600080fd5b80638da5cb5b116101495780639ae322a9116101235780639ae322a91461070d5780639f448edd1461072d578063a22cb4651461074d578063ac511c3e1461076d57600080fd5b80638da5cb5b146106ba5780638f32d59b146106d857806395d89b41146106f857600080fd5b80636c0360eb1461061b57806370a0823114610630578063715018a61461065057806378bd80fc1461066557806379f63c1b146106855780638456cb59146106a557600080fd5b806333f5bf311161024f578063570c8e3b116102085780635c86ea7c116101e25780635c86ea7c146105a65780635c975abb146105c55780635fd8c710146105e65780636352211e146105fb57600080fd5b8063570c8e3b1461055157806357962e9e146105665780635aeaf14c1461058657600080fd5b806333f5bf31146104a35780633f4ba83a146104b657806342842e0e146104cb57806347049c84146104eb5780634986a917146105115780634f6ccce71461053157600080fd5b80631da0603a116102a15780631da0603a146103ec57806323b872dd1461040157806326a4e8d214610421578063294cdf0d146104415780632f745c591461046e578063320b2ad91461048e57600080fd5b806301ffc9a7146102e957806306fdde0314610338578063081812fc1461035a578063095ea7b31461039257806312065fe0146103b457806318160ddd146103d7575b600080fd5b3480156102f557600080fd5b506103236103043660046130fb565b6001600160e01b03191660009081526020819052604090205460ff1690565b60405190151581526020015b60405180910390f35b34801561034457600080fd5b5061034d61095e565b60405161032f9190613170565b34801561036657600080fd5b5061037a610375366004613183565b6109f0565b6040516001600160a01b03909116815260200161032f565b34801561039e57600080fd5b506103b26103ad3660046131b8565b610a7d565b005b3480156103c057600080fd5b506103c9610b93565b60405190815260200161032f565b3480156103e357600080fd5b506103c9610c0b565b3480156103f857600080fd5b506103b2610c17565b34801561040d57600080fd5b506103b261041c3660046131e2565b610cf1565b34801561042d57600080fd5b506103b261043c36600461321e565b610e1c565b34801561044d57600080fd5b5061046161045c36600461321e565b610e70565b60405161032f9190613239565b34801561047a57600080fd5b506103c96104893660046131b8565b610f5c565b34801561049a57600080fd5b50610323610f87565b3480156104af57600080fd5b50476103c9565b3480156104c257600080fd5b506103b261100d565b3480156104d757600080fd5b506103b26104e63660046131e2565b611058565b3480156104f757600080fd5b5060195461037a906201000090046001600160a01b031681565b34801561051d57600080fd5b506103b261052c36600461327d565b611073565b34801561053d57600080fd5b506103c961054c366004613183565b6110c3565b34801561055d57600080fd5b506103b26110d9565b34801561057257600080fd5b50601a5461037a906001600160a01b031681565b34801561059257600080fd5b506103b26105a13660046132a3565b611120565b3480156105b257600080fd5b5060195461032390610100900460ff1681565b3480156105d157600080fd5b50600b5461032390600160a01b900460ff1681565b3480156105f257600080fd5b506103b26114aa565b34801561060757600080fd5b5061037a610616366004613183565b611575565b34801561062757600080fd5b5061034d61159d565b34801561063c57600080fd5b506103c961064b36600461321e565b6115ac565b34801561065c57600080fd5b506103b2611638565b34801561067157600080fd5b506103b2610680366004613183565b6116ac565b34801561069157600080fd5b506103b26106a036600461327d565b6116db565b3480156106b157600080fd5b506103b261172b565b3480156106c657600080fd5b50600b546001600160a01b031661037a565b3480156106e457600080fd5b50600b546001600160a01b03163314610323565b34801561070457600080fd5b5061034d611774565b34801561071957600080fd5b506103b26107283660046132e2565b611783565b34801561073957600080fd5b506103b2610748366004613329565b61187f565b34801561075957600080fd5b506103b2610768366004613366565b6118fb565b34801561077957600080fd5b506103b2610788366004613392565b6119c0565b34801561079957600080fd5b506103b26107a83660046133c4565b611a27565b3480156107b957600080fd5b506107cd6107c8366004613183565b611a5f565b60405161032f91906134b6565b3480156107e657600080fd5b506103b26107f536600461327d565b611b44565b34801561080657600080fd5b506103b2611b94565b6103b261081d366004613523565b611bd2565b34801561082e57600080fd5b5061034d61083d366004613183565b611fcf565b34801561084e57600080fd5b506013546040805163ffffffff8084168252640100000000840481166020830152600160401b9093049092169082015260600161032f565b34801561089257600080fd5b506019546103239060ff1681565b3480156108ac57600080fd5b506103b26108bb36600461327d565b612140565b3480156108cc57600080fd5b506103b26108db36600461321e565b612175565b3480156108ec57600080fd5b506103236108fb36600461353f565b6001600160a01b03918216600090815260066020908152604080832093909416825291909152205460ff1690565b34801561093557600080fd5b506103b261094436600461321e565b6121c1565b34801561095557600080fd5b506103236121f4565b60606007805461096d90613572565b80601f016020809104026020016040519081016040528092919081815260200182805461099990613572565b80156109e65780601f106109bb576101008083540402835291602001916109e6565b820191906000526020600020905b8154815290600101906020018083116109c957829003601f168201915b5050505050905090565b60006109fb82612273565b610a615760405162461bcd60e51b815260206004820152602c60248201527f4552433732313a20617070726f76656420717565727920666f72206e6f6e657860448201526b34b9ba32b73a103a37b5b2b760a11b60648201526084015b60405180910390fd5b506000908152600560205260409020546001600160a01b031690565b6000610a8882611575565b9050806001600160a01b0316836001600160a01b03161415610af65760405162461bcd60e51b815260206004820152602160248201527f4552433732313a20617070726f76616c20746f2063757272656e74206f776e656044820152603960f91b6064820152608401610a58565b336001600160a01b0382161480610b125750610b1281336108fb565b610b845760405162461bcd60e51b815260206004820152603860248201527f4552433732313a20617070726f76652063616c6c6572206973206e6f74206f7760448201527f6e6572206e6f7220617070726f76656420666f7220616c6c00000000000000006064820152608401610a58565b610b8e8383612280565b505050565b6019546040516370a0823160e01b81523060048201526000916201000090046001600160a01b0316906370a0823190602401602060405180830381865afa158015610be2573d6000803e3d6000fd5b505050506040513d601f19601f82011682018060405250810190610c0691906135ad565b905090565b6000610c0660026122ee565b600b546001600160a01b03163314610c415760405162461bcd60e51b8152600401610a58906135c6565b476000610c56600b546001600160a01b031690565b6001600160a01b03168260405160006040518083038185875af1925050503d8060008114610ca0576040519150601f19603f3d011682016040523d82523d6000602084013e610ca5565b606091505b5050905080610ced5760405162461bcd60e51b81526020600482015260146024820152732330b4b632b2103a379039b2b7321022ba3432b960611b6044820152606401610a58565b5050565b6002600c541415610d445760405162461bcd60e51b815260206004820152601f60248201527f5265656e7472616e637947756172643a207265656e7472616e742063616c6c006044820152606401610a58565b6002600c556001600160a01b03831660009081526011602052604090205460ff1615610da85760405162461bcd60e51b81526020600482015260136024820152721859191c995cdccb589b1858dadb1a5cdd1959606a1b6044820152606401610a58565b6001600160a01b03821660009081526011602052604090205460ff1615610e075760405162461bcd60e51b81526020600482015260136024820152721859191c995cdccb589b1858dadb1a5cdd1959606a1b6044820152606401610a58565b610e128383836122f9565b50506001600c5550565b600b546001600160a01b03163314610e465760405162461bcd60e51b8152600401610a58906135c6565b601980546001600160a01b03909216620100000262010000600160b01b0319909216919091179055565b6001600160a01b038116600090815260016020526040812060609190610e959061232a565b67ffffffffffffffff811115610ead57610ead6133ae565b604051908082528060200260200182016040528015610ed6578160200160208202803683370190505b50905060005b6001600160a01b0384166000908152600160205260409020610efd9061232a565b811015610f55576001600160a01b0384166000908152600160205260409020610f269082612334565b828281518110610f3857610f386135fb565b602090810291909101015280610f4d81613627565b915050610edc565b5092915050565b6001600160a01b0382166000908152600160205260408120610f7e9083612334565b90505b92915050565b600b546000906001600160a01b03163314610fb45760405162461bcd60e51b8152600401610a58906135c6565b600b54600160a01b900460ff1615610fcb57600080fd5b600b805460ff60a01b1916600160a01b1790556040517f6985a02210a168e66602d3235cb6db0e70f92b3ba4d376a33c0f3d9434bff62590600090a150600190565b600b54600160a01b900460ff1661102357600080fd5b600b546001600160a01b0316331461104d5760405162461bcd60e51b8152600401610a58906135c6565b6110556121f4565b50565b610b8e83838360405180602001604052806000815250611a27565b600b546001600160a01b0316331461109d5760405162461bcd60e51b8152600401610a58906135c6565b6013805463ffffffff909216600160801b0263ffffffff60801b19909216919091179055565b6000806110d1600284612340565b509392505050565b600b546001600160a01b031633146111035760405162461bcd60e51b8152600401610a58906135c6565b6019805461ff001981166101009182900460ff1615909102179055565b60195460ff166111615760405162461bcd60e51b815260206004820152600c60248201526b31b0b7103737ba1037b832b760a11b6044820152606401610a58565b600b54600160a01b900460ff161561117857600080fd5b333b63ffffffff16156111c55760405162461bcd60e51b815260206004820152601560248201527418d85b881b9bdd08189948184818dbdb9d1c9858dd605a1b6044820152606401610a58565b336111cf82611575565b6001600160a01b0316146112155760405162461bcd60e51b815260206004820152600d60248201526c3737ba103a34329037bbb732b960991b6044820152606401610a58565b60185482146112575760405162461bcd60e51b815260206004820152600e60248201526d1253959053125108105353d5539560921b6044820152606401610a58565b6019546040516323b872dd60e01b815233600482015230602482015260448101849052620100009091046001600160a01b0316906323b872dd906064016020604051808303816000875af11580156112b3573d6000803e3d6000fd5b505050506040513d601f19601f820116820180604052508101906112d79190613642565b6112e057600080fd5b6000600d6112ef60018461365f565b815481106112ff576112ff6135fb565b60009182526020918290206040805160a081018252600393840290920180546001600160a01b03168352600181015494830194909452600284015460ff808216928401929092529193926060850192610100900490911690811115611366576113666134a0565b6003811115611377576113776134a0565b81526002919091015462010000900467ffffffffffffffff16602090910152601a5460608201519192506001600160a01b031690636fed42d290339060038111156113c4576113c46134a0565b60408086015190516001600160e01b031960e086901b1681526001600160a01b03909316600484015260ff9182166024840152166044820152606401600060405180830381600087803b15801561141a57600080fd5b505af115801561142e573d6000803e3d6000fd5b5050505061143b8261235c565b7f0bf4c6d3c4b37474b167ca1251166f61a1ad24afe4d0bee7834b830938bee6b9338383606001516003811115611474576114746134a0565b604080516001600160a01b039094168452602084019290925260ff169082015242606082015260800160405180910390a1505050565b600b546001600160a01b031633146114d45760405162461bcd60e51b8152600401610a58906135c6565b6019546001600160a01b03620100009091041663a9059cbb6114fe600b546001600160a01b031690565b611506610b93565b6040516001600160e01b031960e085901b1681526001600160a01b03909216600483015260248201526044016020604051808303816000875af1158015611551573d6000803e3d6000fd5b505050506040513d601f19601f820116820180604052508101906110559190613642565b6000610f818260405180606001604052806029815260200161397360299139600291906123d9565b6060600a805461096d90613572565b60006001600160a01b0382166116175760405162461bcd60e51b815260206004820152602a60248201527f4552433732313a2062616c616e636520717565727920666f7220746865207a65604482015269726f206164647265737360b01b6064820152608401610a58565b6001600160a01b0382166000908152600160205260409020610f819061232a565b600b546001600160a01b031633146116625760405162461bcd60e51b8152600401610a58906135c6565b600b546040516000916001600160a01b0316907f8be0079c531659141344cd1fd0a4f28419497f9722a3daafe3b4186f6b6457e0908390a3600b80546001600160a01b0319169055565b600b546001600160a01b031633146116d65760405162461bcd60e51b8152600401610a58906135c6565b601855565b600b546001600160a01b031633146117055760405162461bcd60e51b8152600401610a58906135c6565b6013805463ffffffff909216600160a01b0263ffffffff60a01b19909216919091179055565b600b54600160a01b900460ff161561174257600080fd5b600b546001600160a01b0316331461176c5760405162461bcd60e51b8152600401610a58906135c6565b611055610f87565b60606008805461096d90613572565b600b546001600160a01b031633146117ad5760405162461bcd60e51b8152600401610a58906135c6565b60008260038111156117c1576117c16134a0565b14156118015760405162461bcd60e51b815260206004820152600f60248201526e696e76616c6964207061636b61676560881b6044820152606401610a58565b6001600160a01b0383166118575760405162461bcd60e51b815260206004820181905260248201527f4552433732313a206d696e7420746f20746865207a65726f20616464726573736044820152606401610a58565b6118658360175484846123f0565b6017805490600061187583613627565b9190505550505050565b600b546001600160a01b031633146118a95760405162461bcd60e51b8152600401610a58906135c6565b80600f60008460038111156118c0576118c06134a0565b60038111156118d1576118d16134a0565b815260200190815260200160002060006101000a81548160ff021916908360ff1602179055505050565b6001600160a01b0382163314156119545760405162461bcd60e51b815260206004820152601960248201527f4552433732313a20617070726f766520746f2063616c6c6572000000000000006044820152606401610a58565b3360008181526006602090815260408083206001600160a01b03871680855290835292819020805460ff191686151590811790915590519081529192917f17307eab39ab6107e8899845ad3d59bd9653f200f220920489ca2b5937696c31910160405180910390a35050565b600b546001600160a01b031633146119ea5760405162461bcd60e51b8152600401610a58906135c6565b8060106000846003811115611a0157611a016134a0565b6003811115611a1257611a126134a0565b81526020810191909152604001600020555050565b611a313383612650565b611a4d5760405162461bcd60e51b8152600401610a5890613676565b611a598484848461273a565b50505050565b6040805160a081018252600080825260208201819052918101829052606081018290526080810191909152600d611a9760018461365f565b81548110611aa757611aa76135fb565b60009182526020918290206040805160a081018252600393840290920180546001600160a01b03168352600181015494830194909452600284015460ff808216928401929092529193926060850192610100900490911690811115611b0e57611b0e6134a0565b6003811115611b1f57611b1f6134a0565b81526002919091015462010000900467ffffffffffffffff1660209091015292915050565b600b546001600160a01b03163314611b6e5760405162461bcd60e51b8152600401610a58906135c6565b6013805463ffffffff909216600160c01b0263ffffffff60c01b19909216919091179055565b600b546001600160a01b03163314611bbe5760405162461bcd60e51b8152600401610a58906135c6565b6019805460ff19811660ff90911615179055565b6002600c541415611c255760405162461bcd60e51b815260206004820152601f60248201527f5265656e7472616e637947756172643a207265656e7472616e742063616c6c006044820152606401610a58565b6002600c55601954610100900460ff16611c775760405162461bcd60e51b81526020600482015260136024820152727061636b61676520756e617661696c61626c6560681b6044820152606401610a58565b600b54600160a01b900460ff1615611c8e57600080fd5b601254336000908152600e602052604090205460ff1610611ce85760405162461bcd60e51b81526020600482015260146024820152731dd85b1b195d0b5c1858dad859d94b5b1a5b5a5d60621b6044820152606401610a58565b333b63ffffffff1615611d345760405162461bcd60e51b815260206004820152601460248201527318dbdb9d1c9858dd081b9bdd08185b1b1bddd95960621b6044820152606401610a58565b6000826003811115611d4857611d486134a0565b1415611d885760405162461bcd60e51b815260206004820152600f60248201526e696e76616c6964207061636b61676560881b6044820152606401610a58565b60106000836003811115611d9e57611d9e6134a0565b6003811115611daf57611daf6134a0565b8152602001908152602001600020543414611dfd5760405162461bcd60e51b815260206004820152600e60248201526d1253959053125108105353d5539560921b6044820152606401610a58565b6001826003811115611e1157611e116134a0565b1415611e815760135463ffffffff600160801b82048116911610611e475760405162461bcd60e51b8152600401610a58906136c7565b6013805463ffffffff16906000611e5d836136e9565b91906101000a81548163ffffffff021916908363ffffffff16021790555050611f65565b6002826003811115611e9557611e956134a0565b1415611ef15760135463ffffffff600160a01b820481166401000000009092041610611ed35760405162461bcd60e51b8152600401610a58906136c7565b60138054640100000000900463ffffffff16906004611e5d836136e9565b60135463ffffffff600160c01b82048116600160401b9092041610611f285760405162461bcd60e51b8152600401610a58906136c7565b60138054600160401b900463ffffffff16906008611f45836136e9565b91906101000a81548163ffffffff021916908363ffffffff160217905550505b611f733360175484846123f0565b336000908152600e6020526040902054611f919060ff16600161370d565b336000908152600e60205260408120805460ff191660ff93909316929092179091556017805491611fc183613627565b90915550506001600c555050565b6060611fda82612273565b61203e5760405162461bcd60e51b815260206004820152602f60248201527f4552433732314d657461646174613a2055524920717565727920666f72206e6f60448201526e3732bc34b9ba32b73a103a37b5b2b760891b6064820152608401610a58565b6000828152600960205260408120805461205790613572565b80601f016020809104026020016040519081016040528092919081815260200182805461208390613572565b80156120d05780601f106120a5576101008083540402835291602001916120d0565b820191906000526020600020905b8154815290600101906020018083116120b357829003601f168201915b50505050509050600a80546120e490613572565b151590506120f25792915050565b80511561212457600a8160405160200161210d92919061374e565b604051602081830303815290604052915050919050565b600a61212f8461276d565b60405160200161210d92919061374e565b600b546001600160a01b0316331461216a5760405162461bcd60e51b8152600401610a58906135c6565b63ffffffff16601255565b600b546001600160a01b0316331461219f5760405162461bcd60e51b8152600401610a58906135c6565b601a80546001600160a01b0319166001600160a01b0392909216919091179055565b600b546001600160a01b031633146121eb5760405162461bcd60e51b8152600401610a58906135c6565b61105581612884565b600b546000906001600160a01b031633146122215760405162461bcd60e51b8152600401610a58906135c6565b600b54600160a01b900460ff1661223757600080fd5b600b805460ff60a01b191690556040517f7805862f689e2f13df9f062ff482ad3ad112aca9e0847911ed832e158c525b3390600090a150600190565b6000610f81600283612945565b600081815260056020526040902080546001600160a01b0319166001600160a01b03841690811790915581906122b582611575565b6001600160a01b03167f8c5be1e5ebec7d5bd14f71427d1e84f3dd0314c0f7b2291e5b200ac8c7c3b92560405160405180910390a45050565b6000610f8182612951565b6123033382612650565b61231f5760405162461bcd60e51b8152600401610a5890613676565b610b8e83838361295c565b6000610f81825490565b6000610f7e8383612ad6565b600080808061234f8686612b00565b9097909650945050505050565b600061236782611575565b905061237581600084612b2b565b612380600083612280565b6001600160a01b03811660009081526001602052604090206123a29083612b42565b506123ae600283612b4e565b5060405182906000906001600160a01b0384169060008051602061399c833981519152908390a45050565b60006123e6848484612b5a565b90505b9392505050565b60006040518060a00160405280866001600160a01b03168152602001858152602001600f6000866003811115612428576124286134a0565b6003811115612439576124396134a0565b81526020808201929092526040016000205460ff16825201846003811115612463576124636134a0565b81526020014267ffffffffffffffff168152509050612492858560405180602001604052806000815250612b9d565b600d8054600181018255600091909152815160039182027fd7b6990105719101dabeb77144f2a3385c8033acd3af97e9423a695e81ad1eb5810180546001600160a01b039093166001600160a01b031990931692909217825560208401517fd7b6990105719101dabeb77144f2a3385c8033acd3af97e9423a695e81ad1eb682015560408401517fd7b6990105719101dabeb77144f2a3385c8033acd3af97e9423a695e81ad1eb7909101805460ff90921660ff1983168117825560608601518695909361ffff191690911790610100908490811115612574576125746134a0565b021790555060808201518160020160026101000a81548167ffffffffffffffff021916908367ffffffffffffffff16021790555050507f9cd6172b8095a1baebea2053c4f84ef9c9d8a0e013638d24573f908c1e6d07fd858260200151836060015160038111156125e7576125e76134a0565b604080516001600160a01b039094168452602084019290925260ff1690820152426060820152831515608082015260a00160405180910390a160208101516040516001600160a01b0387169060009060008051602061399c833981519152908290a45050505050565b600061265b82612273565b6126bc5760405162461bcd60e51b815260206004820152602c60248201527f4552433732313a206f70657261746f7220717565727920666f72206e6f6e657860448201526b34b9ba32b73a103a37b5b2b760a11b6064820152608401610a58565b60006126c783611575565b9050806001600160a01b0316846001600160a01b031614806127025750836001600160a01b03166126f7846109f0565b6001600160a01b0316145b8061273257506001600160a01b0380821660009081526006602090815260408083209388168352929052205460ff165b949350505050565b61274584848461295c565b61275184848484612bd0565b611a595760405162461bcd60e51b8152600401610a58906137f5565b6060816127915750506040805180820190915260018152600360fc1b602082015290565b8160005b81156127bb57806127a581613627565b91506127b49050600a8361385d565b9150612795565b60008167ffffffffffffffff8111156127d6576127d66133ae565b6040519080825280601f01601f191660200182016040528015612800576020820181803683370190505b509050600061281060018461365f565b90508593505b831561287b57612827600a85613871565b612832906030613885565b60f81b82826128408161389d565b935081518110612852576128526135fb565b60200101906001600160f81b031916908160001a905350612874600a8561385d565b9350612816565b50949350505050565b6001600160a01b0381166128e95760405162461bcd60e51b815260206004820152602660248201527f4f776e61626c653a206e6577206f776e657220697320746865207a65726f206160448201526564647265737360d01b6064820152608401610a58565b600b546040516001600160a01b038084169216907f8be0079c531659141344cd1fd0a4f28419497f9722a3daafe3b4186f6b6457e090600090a3600b80546001600160a01b0319166001600160a01b0392909216919091179055565b6000610f7e8383612ca1565b6000610f818261232a565b826001600160a01b031661296f82611575565b6001600160a01b0316146129d75760405162461bcd60e51b815260206004820152602960248201527f4552433732313a207472616e73666572206f6620746f6b656e2074686174206960448201526839903737ba1037bbb760b91b6064820152608401610a58565b6001600160a01b038216612a395760405162461bcd60e51b8152602060048201526024808201527f4552433732313a207472616e7366657220746f20746865207a65726f206164646044820152637265737360e01b6064820152608401610a58565b612a44838383612b2b565b612a4f600082612280565b6001600160a01b0383166000908152600160205260409020612a719082612b42565b506001600160a01b0382166000908152600160205260409020612a949082612cad565b50612aa160028284612cb9565b5080826001600160a01b0316846001600160a01b031660008051602061399c83398151915260405160405180910390a4505050565b6000826000018281548110612aed57612aed6135fb565b9060005260206000200154905092915050565b60008080612b0e8585612334565b600081815260029690960160205260409095205494959350505050565b600b54600160a01b900460ff1615610b8e57600080fd5b6000610f7e8383612ccf565b6000610f7e8383612dc2565b600082815260028401602052604081205480151580612b7e5750612b7e8585612ca1565b839061287b5760405162461bcd60e51b8152600401610a589190613170565b612ba78383612ddf565b612bb46000848484612bd0565b610b8e5760405162461bcd60e51b8152600401610a58906137f5565b60006001600160a01b0384163b612be957506001612732565b6000612c6a630a85bd0160e11b33888787604051602401612c0d94939291906138b4565b604051602081830303815290604052906001600160e01b0319166020820180516001600160e01b038381831617835250505050604051806060016040528060328152602001613941603291396001600160a01b0388169190612ef1565b9050600081806020019051810190612c8291906138f1565b6001600160e01b031916630a85bd0160e11b1492505050949350505050565b6000610f7e8383612f00565b6000610f7e8383612f18565b60006123e684846001600160a01b038516612f67565b60008181526001830160205260408120548015612db8576000612cf360018361365f565b8554909150600090612d079060019061365f565b9050818114612d6c576000866000018281548110612d2757612d276135fb565b9060005260206000200154905080876000018481548110612d4a57612d4a6135fb565b6000918252602080832090910192909255918252600188019052604090208390555b8554869080612d7d57612d7d61390e565b600190038181906000526020600020016000905590558560010160008681526020019081526020016000206000905560019350505050610f81565b6000915050610f81565b60008181526002830160205260408120819055610f7e8383612b42565b6001600160a01b038216612e355760405162461bcd60e51b815260206004820181905260248201527f4552433732313a206d696e7420746f20746865207a65726f20616464726573736044820152606401610a58565b612e3e81612273565b15612e8b5760405162461bcd60e51b815260206004820152601c60248201527f4552433732313a20746f6b656e20616c7265616479206d696e746564000000006044820152606401610a58565b612e9760008383612b2b565b6001600160a01b0382166000908152600160205260409020612eb99082612cad565b50612ec660028284612cb9565b5060405181906001600160a01b0384169060009060008051602061399c833981519152908290a45050565b60606123e68484600085612f84565b60008181526001830160205260408120541515610f7e565b6000818152600183016020526040812054612f5f57508154600181810184556000848152602080822090930184905584548482528286019093526040902091909155610f81565b506000610f81565b600082815260028401602052604081208290556123e68484612cad565b606082471015612fe55760405162461bcd60e51b815260206004820152602660248201527f416464726573733a20696e73756666696369656e742062616c616e636520666f6044820152651c8818d85b1b60d21b6064820152608401610a58565b843b6130335760405162461bcd60e51b815260206004820152601d60248201527f416464726573733a2063616c6c20746f206e6f6e2d636f6e74726163740000006044820152606401610a58565b600080866001600160a01b0316858760405161304f9190613924565b60006040518083038185875af1925050503d806000811461308c576040519150601f19603f3d011682016040523d82523d6000602084013e613091565b606091505b50915091506130a18282866130ac565b979650505050505050565b606083156130bb5750816123e9565b8251156130cb5782518084602001fd5b8160405162461bcd60e51b8152600401610a589190613170565b6001600160e01b03198116811461105557600080fd5b60006020828403121561310d57600080fd5b81356123e9816130e5565b60005b8381101561313357818101518382015260200161311b565b83811115611a595750506000910152565b6000815180845261315c816020860160208601613118565b601f01601f19169290920160200192915050565b602081526000610f7e6020830184613144565b60006020828403121561319557600080fd5b5035919050565b80356001600160a01b03811681146131b357600080fd5b919050565b600080604083850312156131cb57600080fd5b6131d48361319c565b946020939093013593505050565b6000806000606084860312156131f757600080fd5b6132008461319c565b925061320e6020850161319c565b9150604084013590509250925092565b60006020828403121561323057600080fd5b610f7e8261319c565b6020808252825182820181905260009190848201906040850190845b8181101561327157835183529284019291840191600101613255565b50909695505050505050565b60006020828403121561328f57600080fd5b813563ffffffff811681146123e957600080fd5b600080604083850312156132b657600080fd5b50508035926020909101359150565b8035600481106131b357600080fd5b801515811461105557600080fd5b6000806000606084860312156132f757600080fd5b6133008461319c565b925061330e602085016132c5565b9150604084013561331e816132d4565b809150509250925092565b6000806040838503121561333c57600080fd5b613345836132c5565b9150602083013560ff8116811461335b57600080fd5b809150509250929050565b6000806040838503121561337957600080fd5b6133828361319c565b9150602083013561335b816132d4565b600080604083850312156133a557600080fd5b6131d4836132c5565b634e487b7160e01b600052604160045260246000fd5b600080600080608085870312156133da57600080fd5b6133e38561319c565b93506133f16020860161319c565b925060408501359150606085013567ffffffffffffffff8082111561341557600080fd5b818701915087601f83011261342957600080fd5b81358181111561343b5761343b6133ae565b604051601f8201601f19908116603f01168101908382118183101715613463576134636133ae565b816040528281528a602084870101111561347c57600080fd5b82602086016020830137600060208483010152809550505050505092959194509250565b634e487b7160e01b600052602160045260246000fd5b81516001600160a01b031681526020808301519082015260408083015160ff1690820152606082015160a08201906004811061350257634e487b7160e01b600052602160045260246000fd5b8060608401525067ffffffffffffffff608084015116608083015292915050565b6000806040838503121561353657600080fd5b613382836132c5565b6000806040838503121561355257600080fd5b61355b8361319c565b91506135696020840161319c565b90509250929050565b600181811c9082168061358657607f821691505b602082108114156135a757634e487b7160e01b600052602260045260246000fd5b50919050565b6000602082840312156135bf57600080fd5b5051919050565b6020808252818101527f4f776e61626c653a2063616c6c6572206973206e6f7420746865206f776e6572604082015260600190565b634e487b7160e01b600052603260045260246000fd5b634e487b7160e01b600052601160045260246000fd5b600060001982141561363b5761363b613611565b5060010190565b60006020828403121561365457600080fd5b81516123e9816132d4565b60008282101561367157613671613611565b500390565b60208082526031908201527f4552433732313a207472616e736665722063616c6c6572206973206e6f74206f6040820152701ddb995c881b9bdc88185c1c1c9bdd9959607a1b606082015260800190565b6020808252600890820152671cdbdb19081bdd5d60c21b604082015260600190565b600063ffffffff8083168181141561370357613703613611565b6001019392505050565b600060ff821660ff84168060ff0382111561372a5761372a613611565b019392505050565b60008151613744818560208601613118565b9290920192915050565b600080845481600182811c91508083168061376a57607f831692505b602080841082141561378a57634e487b7160e01b86526022600452602486fd5b81801561379e57600181146137af576137dc565b60ff198616895284890196506137dc565b60008b81526020902060005b868110156137d45781548b8201529085019083016137bb565b505084890196505b5050505050506137ec8185613732565b95945050505050565b60208082526032908201527f4552433732313a207472616e7366657220746f206e6f6e20455243373231526560408201527131b2b4bb32b91034b6b83632b6b2b73a32b960711b606082015260800190565b634e487b7160e01b600052601260045260246000fd5b60008261386c5761386c613847565b500490565b60008261388057613880613847565b500690565b6000821982111561389857613898613611565b500190565b6000816138ac576138ac613611565b506000190190565b6001600160a01b03858116825284166020820152604081018390526080606082018190526000906138e790830184613144565b9695505050505050565b60006020828403121561390357600080fd5b81516123e9816130e5565b634e487b7160e01b600052603160045260246000fd5b60008251613936818460208701613118565b919091019291505056fe4552433732313a207472616e7366657220746f206e6f6e20455243373231526563656976657220696d706c656d656e7465724552433732313a206f776e657220717565727920666f72206e6f6e6578697374656e7420746f6b656eddf252ad1be2c89b69c2b068fc378daa952ba7f163c4a11628f55a4df523b3efa2646970667358221220dc5f803c78a5ea38090d4b5edff63d970224949bbe58a258d3ab0aaf61d63b4664736f6c634300080b00334f776e61626c653a2063616c6c6572206973206e6f7420746865206f776e6572",
  "immutableReferences": {},
  "source": "// SPDX-License-Identifier: MIT\r\npragma solidity ^0.8.2;\r\n\r\nimport \"./IBEP20.sol\";\r\nimport \"./IMarketplace.sol\";\r\nimport \"./SafeMath.sol\";\r\nimport \"./Ownable.sol\";\r\nimport \"./AccessControl.sol\";\r\nimport \"./IERC721.sol\";\r\nimport \"./ERC721Pausable.sol\";\r\nimport \"./IPieceCore.sol\";\r\nimport \"./ReentrancyGuard.sol\";\r\n\r\ncontract PiecePackage is Ownable, ERC721Pausable, ReentrancyGuard {\r\n    using SafeMath for uint256;\r\n\r\n    struct Package {\r\n        address owner;\r\n        uint256 packageId; // id of the package\r\n        uint8 quantity; // quantity of pieces in this package\r\n        PackageType packageType; //package type\r\n        uint64 birthTime; // The timestamp from the block when this package came into existence.\r\n    }\r\n\r\n    enum PackageType {\r\n        Default,\r\n        First,\r\n        Second,\r\n        Third\r\n    }\r\n\r\n    /*** STORAGE ***/\r\n    /// @dev An array containing the Piece struct for all pieces in existence. The ID\r\n    ///  of each Piece is actually an index into this array.\r\n    Package[] packages;\r\n\r\n    mapping(address => uint8) walletPackages;\r\n    mapping(PackageType => uint8) private _packageTypePieces;\r\n    mapping(PackageType => uint256) private _packageTypePrice;\r\n    mapping(address => bool) private banBlackList;\r\n\r\n    uint256 private totalPackagesOwner = 5;\r\n\r\n    uint32 firstPackageCount;\r\n    uint32 secondPackageCount;\r\n    uint32 thirdPackageCount;\r\n    uint32 fourthPackageCount;\r\n    uint32 firstPackageLimit = 340;\r\n    uint32 secondPackageLimit = 175;\r\n    uint32 thirdPackageLimit = 75;\r\n\r\n    uint256 private priceFirstPackage = 0.2 * 10**18; // to review\r\n    uint256 private priceSecondPackage = 0.5 * 10**18; // to review\r\n    uint256 private priceThirdPackage = 0.9 * 10**18; // to\r\n    uint256 private nextPackageTokenId = 1;\r\n    uint256 private piecePackagePrice = 5 * 10**18; // to review\r\n\r\n    /* SETTABLE VARIABLES */\r\n    bool public canUnpack;\r\n    bool public isPackageAvailable;\r\n    address public _mekaAddress;\r\n    address public _pieceAddress;\r\n\r\n    event PackageCreated(\r\n        address to,\r\n        uint256 packId,\r\n        uint8 packageType,\r\n        uint256 date,\r\n        bool isPresale\r\n    );\r\n    event Unpacked(\r\n        address from,\r\n        uint256 packId,\r\n        uint8 packageType,\r\n        uint256 date\r\n    );\r\n    event MintedPieceFromBundle(address from, uint256[] pieceId, uint256 date);\r\n\r\n    constructor() ERC721(\"Mekabot Piece\", \"MekaPiecePkg\") {\r\n        canUnpack = false;\r\n        isPackageAvailable = false;\r\n\r\n        setPackageTypePrice(PackageType.First, priceFirstPackage);\r\n        setPackageTypePrice(PackageType.Second, priceSecondPackage);\r\n        setPackageTypePrice(PackageType.Third, priceThirdPackage);\r\n        setPackageTypePieces(PackageType.First, 2);\r\n        setPackageTypePieces(PackageType.Second, 4);\r\n        setPackageTypePieces(PackageType.Third, 6);\r\n    }\r\n\r\n    function setPackageLimit(uint32 quantity) external onlyOwner {\r\n        totalPackagesOwner = quantity;\r\n    }\r\n\r\n    function setFirstPackageLimit(uint32 quantity) external onlyOwner {\r\n        firstPackageLimit = quantity;\r\n    }\r\n\r\n    function setSecondPackageLimit(uint32 quantity) external onlyOwner {\r\n        secondPackageLimit = quantity;\r\n    }\r\n\r\n    function setThirdPackageLimit(uint32 quantity) external onlyOwner {\r\n        thirdPackageLimit = quantity;\r\n    }\r\n\r\n    function setPackageTypePieces(PackageType _packageType, uint8 quantity)\r\n        public\r\n        onlyOwner\r\n    {\r\n        _packageTypePieces[_packageType] = quantity;\r\n    }\r\n\r\n    function setPackageTypePrice(PackageType _packageType, uint256 amount)\r\n        public\r\n        onlyOwner\r\n    {\r\n        _packageTypePrice[_packageType] = amount;\r\n    }\r\n\r\n    function setPiecePackagePrice(uint256 _price) external onlyOwner {\r\n        piecePackagePrice = _price;\r\n    }\r\n\r\n    function setTokenAddress(address _addr) external onlyOwner {\r\n        _mekaAddress = _addr;\r\n    }\r\n\r\n    function setPieceAddress(address _addr) external onlyOwner {\r\n        _pieceAddress = _addr;\r\n    }\r\n\r\n    function updateCanUnpack() external onlyOwner {\r\n        canUnpack = !canUnpack;\r\n    }\r\n\r\n    function updatePackageAvailable() external onlyOwner {\r\n        isPackageAvailable = !isPackageAvailable;\r\n    }\r\n\r\n    modifier canOpen() {\r\n        require(canUnpack, \"can not open\");\r\n        _;\r\n    }\r\n\r\n    modifier packageAvailable() {\r\n        require(isPackageAvailable, \"package unavailable\");\r\n        _;\r\n    }\r\n\r\n    function withdrawBalance() external onlyOwner {\r\n        IBEP20(_mekaAddress).transfer(owner(), getBalance());\r\n    }\r\n\r\n    function withdrawBnb() external onlyOwner {\r\n        uint256 amount = address(this).balance;\r\n\r\n        (bool success, ) = payable(owner()).call{value: amount}(\"\");\r\n        require(success, \"Failed to send Ether\");\r\n    }\r\n\r\n    function getBalance() public view returns (uint256) {\r\n        return IBEP20(_mekaAddress).balanceOf(address(this));\r\n    }\r\n\r\n    function getBnbBalance() public view returns (uint256) {\r\n        return address(this).balance;\r\n    }\r\n\r\n    function pause() external whenNotPaused onlyOwner {\r\n        _pause();\r\n    }\r\n\r\n    function unpause() external whenPaused onlyOwner {\r\n        _unpause();\r\n    }\r\n\r\n    /* Piece PACKAGE */\r\n\r\n    function _mintPackage(\r\n        address _to,\r\n        uint256 _tokenId,\r\n        PackageType _packageType,\r\n        bool isPresale\r\n    ) private {\r\n        Package memory _package = Package({\r\n            owner: _to,\r\n            packageType: _packageType,\r\n            packageId: _tokenId,\r\n            quantity: _packageTypePieces[_packageType],\r\n            birthTime: uint64(block.timestamp)\r\n        });\r\n\r\n        _safeMint(_to, _tokenId, \"\");\r\n        packages.push(_package);\r\n\r\n        emit PackageCreated(\r\n            _to,\r\n            _package.packageId,\r\n            uint8(_package.packageType),\r\n            block.timestamp,\r\n            isPresale\r\n        );\r\n\r\n        emit Transfer(address(0), _to, _package.packageId);\r\n    }\r\n\r\n    function createPackage(PackageType _packageType, bool _isPresale)\r\n        external\r\n        payable\r\n        nonReentrant\r\n        packageAvailable\r\n        whenNotPaused\r\n    {\r\n        require(\r\n            walletPackages[msg.sender] < totalPackagesOwner,\r\n            \"wallet-package-limit\"\r\n        );\r\n        require(!isContract(msg.sender), \"contract not allowed\");\r\n        require(_packageType != PackageType.Default, \"invalid package\");\r\n        require(msg.value == _packageTypePrice[_packageType], \"INVALID AMOUNT\");\r\n\r\n        if (_packageType == PackageType.First) {\r\n            require(firstPackageCount < firstPackageLimit, \"sold out\");\r\n            firstPackageCount++;\r\n        } else if (_packageType == PackageType.Second) {\r\n            require(secondPackageCount < secondPackageLimit, \"sold out\");\r\n            secondPackageCount++;\r\n        } else {\r\n            require(thirdPackageCount < thirdPackageLimit, \"sold out\");\r\n            thirdPackageCount++;\r\n        }\r\n\r\n        _mintPackage(msg.sender, nextPackageTokenId, _packageType, _isPresale);\r\n        walletPackages[msg.sender] = walletPackages[msg.sender] + 1;\r\n        nextPackageTokenId++;\r\n    }\r\n\r\n    function createPackageExtra(\r\n        address _owner,\r\n        PackageType _packageType,\r\n        bool _isPresale\r\n    ) external onlyOwner {\r\n        require(_packageType != PackageType.Default, \"invalid package\");\r\n        require(_owner != address(0), \"ERC721: mint to the zero address\");\r\n\r\n        _mintPackage(_owner, nextPackageTokenId, _packageType, _isPresale);\r\n        nextPackageTokenId++;\r\n    }\r\n\r\n    function openPackage(uint256 _amount, uint256 _tokenId)\r\n        external\r\n        canOpen\r\n        whenNotPaused\r\n    {\r\n        require(!isContract(msg.sender), \"can not be a contract\");\r\n        require(ownerOf(_tokenId) == msg.sender, \"not the owner\");\r\n        require(_amount == piecePackagePrice, \"INVALID AMOUNT\");\r\n        require(\r\n            IBEP20(_mekaAddress).transferFrom(\r\n                msg.sender,\r\n                address(this),\r\n                _amount\r\n            )\r\n        );\r\n        Package memory package = packages[_tokenId - 1];\r\n\r\n        IPieceCore(_pieceAddress).createPieceFromBundle(\r\n            msg.sender,\r\n            uint8(package.packageType),\r\n            package.quantity\r\n        );\r\n\r\n        _burn(_tokenId);\r\n\r\n        emit Unpacked(\r\n            msg.sender,\r\n            _tokenId,\r\n            uint8(package.packageType),\r\n            block.timestamp\r\n        );\r\n    }\r\n\r\n    /**\r\n     * @dev Identify an address is user address or contract address\r\n     */\r\n    function isContract(address _address) private view returns (bool) {\r\n        uint32 size;\r\n        assembly {\r\n            size := extcodesize(_address)\r\n        }\r\n        return (size > 0);\r\n    }\r\n\r\n    function getPackagesCount()\r\n        external\r\n        view\r\n        returns (\r\n            uint32 _firstPackageCount,\r\n            uint32 _secondPackageCount,\r\n            uint32 _thirdPackageCount\r\n        )\r\n    {\r\n        _firstPackageCount = firstPackageCount;\r\n        _secondPackageCount = secondPackageCount;\r\n        _thirdPackageCount = thirdPackageCount;\r\n    }\r\n\r\n    function getPackage(uint256 _id)\r\n        public\r\n        view\r\n        returns (Package memory package)\r\n    {\r\n        package = packages[_id - 1];\r\n    }\r\n\r\n    function transferFrom(\r\n        address _from,\r\n        address _receiver,\r\n        uint256 _tokenId\r\n    ) public override nonReentrant {\r\n        require(!banBlackList[_from], \"address-blacklisted\");\r\n        require(!banBlackList[_receiver], \"address-blacklisted\");\r\n\r\n        super.transferFrom(_from, _receiver, _tokenId);\r\n    }\r\n}\r\n",
  "sourcePath": "E:\\MekaMiners\\contracts\\PiecePackage.sol",
  "compiler": {
    "name": "solc",
    "version": "0.8.11+commit.d7f03943.Emscripten.clang"
  },
  "schemaVersion": "3.4.3",
  "updatedAt": "2022-01-03T17:14:48.958Z",
  "networkType": "ethereum",
  "devdoc": {
    "kind": "dev",
    "methods": {
      "_pause()": {
        "details": "called by the owner to pause, triggers stopped state"
      },
      "_unpause()": {
        "details": "called by the owner to unpause, returns to normal state"
      },
      "approve(address,uint256)": {
        "details": "See {IERC721-approve}."
      },
      "balanceOf(address)": {
        "details": "See {IERC721-balanceOf}."
      },
      "baseURI()": {
        "details": "Returns the base URI set via {_setBaseURI}. This will be automatically added as a prefix in {tokenURI} to each token's URI, or to the token ID if no specific URI is set for that token ID."
      },
      "getApproved(uint256)": {
        "details": "See {IERC721-getApproved}."
      },
      "isApprovedForAll(address,address)": {
        "details": "See {IERC721-isApprovedForAll}."
      },
      "isOwner()": {
        "details": "Returns true if the caller is the current owner."
      },
      "name()": {
        "details": "See {IERC721Metadata-name}."
      },
      "owner()": {
        "details": "Returns the address of the current owner."
      },
      "ownerOf(uint256)": {
        "details": "See {IERC721-ownerOf}."
      },
      "renounceOwnership()": {
        "details": "Leaves the contract without owner. It will not be possible to call `onlyOwner` functions anymore. Can only be called by the current owner. NOTE: Renouncing ownership will leave the contract without an owner, thereby removing any functionality that is only available to the owner."
      },
      "safeTransferFrom(address,address,uint256)": {
        "details": "See {IERC721-safeTransferFrom}."
      },
      "safeTransferFrom(address,address,uint256,bytes)": {
        "details": "See {IERC721-safeTransferFrom}."
      },
      "setApprovalForAll(address,bool)": {
        "details": "See {IERC721-setApprovalForAll}."
      },
      "supportsInterface(bytes4)": {
        "details": "See {IERC165-supportsInterface}. Time complexity O(1), guaranteed to always use less than 30 000 gas."
      },
      "symbol()": {
        "details": "See {IERC721Metadata-symbol}."
      },
      "tokenByIndex(uint256)": {
        "details": "See {IERC721Enumerable-tokenByIndex}."
      },
      "tokenOfOwner(address)": {
        "details": "See {IERC721Enumerable-tokenOfOwner}."
      },
      "tokenOfOwnerByIndex(address,uint256)": {
        "details": "See {IERC721Enumerable-tokenOfOwnerByIndex}."
      },
      "tokenURI(uint256)": {
        "details": "See {IERC721Metadata-tokenURI}."
      },
      "totalSupply()": {
        "details": "See {IERC721Enumerable-totalSupply}."
      },
      "transferOwnership(address)": {
        "details": "Transfers ownership of the contract to a new account (`newOwner`). Can only be called by the current owner."
      }
    },
    "stateVariables": {
      "packages": {
        "details": "An array containing the Piece struct for all pieces in existence. The ID  of each Piece is actually an index into this array."
      }
    },
    "version": 1
  },
  "userdoc": {
    "kind": "user",
    "methods": {},
    "version": 1
  }
}