{
  "contractName": "RobotMarketplace",
  "abi": [
    {
      "inputs": [
        {
          "internalType": "address",
          "name": "_nftAddr",
          "type": "address"
        },
        {
          "internalType": "uint256",
          "name": "_cut",
          "type": "uint256"
        },
        {
          "internalType": "address",
          "name": "_mekaToken",
          "type": "address"
        }
      ],
      "stateMutability": "nonpayable",
      "type": "constructor"
    },
    {
      "anonymous": false,
      "inputs": [
        {
          "indexed": true,
          "internalType": "address",
          "name": "previousOwner",
          "type": "address"
        },
        {
          "indexed": true,
          "internalType": "address",
          "name": "newOwner",
          "type": "address"
        }
      ],
      "name": "OwnershipTransferred",
      "type": "event"
    },
    {
      "anonymous": false,
      "inputs": [],
      "name": "Pause",
      "type": "event"
    },
    {
      "anonymous": false,
      "inputs": [
        {
          "indexed": false,
          "internalType": "uint256",
          "name": "tokenId",
          "type": "uint256"
        }
      ],
      "name": "SaleCancelled",
      "type": "event"
    },
    {
      "anonymous": false,
      "inputs": [
        {
          "indexed": false,
          "internalType": "uint256",
          "name": "tokenId",
          "type": "uint256"
        },
        {
          "indexed": false,
          "internalType": "uint256",
          "name": "startingPrice",
          "type": "uint256"
        }
      ],
      "name": "SaleCreated",
      "type": "event"
    },
    {
      "anonymous": false,
      "inputs": [
        {
          "indexed": false,
          "internalType": "uint256",
          "name": "tokenId",
          "type": "uint256"
        },
        {
          "indexed": false,
          "internalType": "uint256",
          "name": "totalPrice",
          "type": "uint256"
        },
        {
          "indexed": false,
          "internalType": "address",
          "name": "winner",
          "type": "address"
        }
      ],
      "name": "SaleSuccessful",
      "type": "event"
    },
    {
      "anonymous": false,
      "inputs": [],
      "name": "Unpause",
      "type": "event"
    },
    {
      "inputs": [],
      "name": "MEKAToken",
      "outputs": [
        {
          "internalType": "address",
          "name": "",
          "type": "address"
        }
      ],
      "stateMutability": "view",
      "type": "function",
      "constant": true
    },
    {
      "inputs": [],
      "name": "_pause",
      "outputs": [
        {
          "internalType": "bool",
          "name": "",
          "type": "bool"
        }
      ],
      "stateMutability": "nonpayable",
      "type": "function"
    },
    {
      "inputs": [],
      "name": "_unpause",
      "outputs": [
        {
          "internalType": "bool",
          "name": "",
          "type": "bool"
        }
      ],
      "stateMutability": "nonpayable",
      "type": "function"
    },
    {
      "inputs": [
        {
          "internalType": "uint256",
          "name": "_tokenId",
          "type": "uint256"
        },
        {
          "internalType": "uint256",
          "name": "_amount",
          "type": "uint256"
        }
      ],
      "name": "bid",
      "outputs": [],
      "stateMutability": "payable",
      "type": "function",
      "payable": true
    },
    {
      "inputs": [
        {
          "internalType": "uint256",
          "name": "_tokenId",
          "type": "uint256"
        }
      ],
      "name": "cancelSale",
      "outputs": [],
      "stateMutability": "nonpayable",
      "type": "function"
    },
    {
      "inputs": [
        {
          "internalType": "uint256",
          "name": "_tokenId",
          "type": "uint256"
        }
      ],
      "name": "cancelSaleWhenPaused",
      "outputs": [],
      "stateMutability": "nonpayable",
      "type": "function"
    },
    {
      "inputs": [
        {
          "internalType": "uint256",
          "name": "_cut",
          "type": "uint256"
        }
      ],
      "name": "changeCut",
      "outputs": [],
      "stateMutability": "nonpayable",
      "type": "function"
    },
    {
      "inputs": [],
      "name": "contributorCut",
      "outputs": [
        {
          "internalType": "uint256",
          "name": "",
          "type": "uint256"
        }
      ],
      "stateMutability": "view",
      "type": "function",
      "constant": true
    },
    {
      "inputs": [],
      "name": "getBalance",
      "outputs": [
        {
          "internalType": "uint256",
          "name": "",
          "type": "uint256"
        }
      ],
      "stateMutability": "view",
      "type": "function",
      "constant": true
    },
    {
      "inputs": [
        {
          "internalType": "uint256",
          "name": "_tokenId",
          "type": "uint256"
        }
      ],
      "name": "getSale",
      "outputs": [
        {
          "internalType": "address",
          "name": "seller",
          "type": "address"
        },
        {
          "internalType": "uint256",
          "name": "startingPrice",
          "type": "uint256"
        },
        {
          "internalType": "uint256",
          "name": "startedAt",
          "type": "uint256"
        }
      ],
      "stateMutability": "view",
      "type": "function",
      "constant": true
    },
    {
      "inputs": [],
      "name": "isOwner",
      "outputs": [
        {
          "internalType": "bool",
          "name": "",
          "type": "bool"
        }
      ],
      "stateMutability": "view",
      "type": "function",
      "constant": true
    },
    {
      "inputs": [],
      "name": "nonFungibleContract",
      "outputs": [
        {
          "internalType": "address",
          "name": "",
          "type": "address"
        }
      ],
      "stateMutability": "view",
      "type": "function",
      "constant": true
    },
    {
      "inputs": [],
      "name": "owner",
      "outputs": [
        {
          "internalType": "address",
          "name": "",
          "type": "address"
        }
      ],
      "stateMutability": "view",
      "type": "function",
      "constant": true
    },
    {
      "inputs": [],
      "name": "ownerCut",
      "outputs": [
        {
          "internalType": "uint256",
          "name": "",
          "type": "uint256"
        }
      ],
      "stateMutability": "view",
      "type": "function",
      "constant": true
    },
    {
      "inputs": [],
      "name": "paused",
      "outputs": [
        {
          "internalType": "bool",
          "name": "",
          "type": "bool"
        }
      ],
      "stateMutability": "view",
      "type": "function",
      "constant": true
    },
    {
      "inputs": [],
      "name": "renounceOwnership",
      "outputs": [],
      "stateMutability": "nonpayable",
      "type": "function"
    },
    {
      "inputs": [
        {
          "internalType": "uint256",
          "name": "fee",
          "type": "uint256"
        }
      ],
      "name": "setBnbFeeAddress",
      "outputs": [],
      "stateMutability": "nonpayable",
      "type": "function"
    },
    {
      "inputs": [],
      "name": "shouldPayContributor",
      "outputs": [
        {
          "internalType": "bool",
          "name": "",
          "type": "bool"
        }
      ],
      "stateMutability": "view",
      "type": "function",
      "constant": true
    },
    {
      "inputs": [
        {
          "internalType": "address",
          "name": "newOwner",
          "type": "address"
        }
      ],
      "name": "transferOwnership",
      "outputs": [],
      "stateMutability": "nonpayable",
      "type": "function"
    },
    {
      "inputs": [],
      "name": "withdrawBalance",
      "outputs": [],
      "stateMutability": "nonpayable",
      "type": "function"
    },
    {
      "inputs": [],
      "name": "withdrawBnb",
      "outputs": [],
      "stateMutability": "nonpayable",
      "type": "function"
    },
    {
      "inputs": [
        {
          "internalType": "uint256",
          "name": "_tokenId",
          "type": "uint256"
        },
        {
          "internalType": "uint256",
          "name": "_appearenceId",
          "type": "uint256"
        },
        {
          "internalType": "address",
          "name": "_contributorAddress",
          "type": "address"
        },
        {
          "internalType": "uint256",
          "name": "_startingPrice",
          "type": "uint256"
        },
        {
          "internalType": "address",
          "name": "_seller",
          "type": "address"
        }
      ],
      "name": "createSale",
      "outputs": [],
      "stateMutability": "nonpayable",
      "type": "function"
    }
  ],
  "bytecode": "0x60806040526006805460ff60a01b191690556611c37937e080006008553480156200002957600080fd5b5060405162001596380380620015968339810160408190526200004c91620001bf565b600180546001600160a01b0319166001600160a01b038316179055828260008381620000753390565b600680546001600160a01b0319166001600160a01b038316908117909155604051919250906000907f8be0079c531659141344cd1fd0a4f28419497f9722a3daafe3b4186f6b6457e0908290a35060016007556127108311156200010f5760405162461bcd60e51b815260206004820152600c60248201526b0c6eae840e8dede40d0d2ced60a31b60448201526064015b60405180910390fd5b828210620001605760405162461bcd60e51b815260206004820152601760248201527f636f6e7472696275746f7243757420746f6f2068696768000000000000000000604482015260640162000106565b506002919091556003556004805460ff19166001179055600080546001600160a01b039092166001600160a01b03199092169190911790555062000200915050565b80516001600160a01b0381168114620001ba57600080fd5b919050565b600080600060608486031215620001d557600080fd5b620001e084620001a2565b925060208401519150620001f760408501620001a2565b90509250925092565b61138680620002106000396000f3fe6080604052600436106101355760003560e01c806383b5ff8b116100ab578063be22facd1161006f578063be22facd14610314578063cb17b20114610334578063d8f6d59614610354578063dd1b7a0f14610399578063f2fde38b146103b9578063fc8234cb146103d957600080fd5b806383b5ff8b1461026c5780638da5cb5b146102825780638f32d59b146102b4578063ab892eba146102d4578063bd94b005146102f457600080fd5b8063320b2ad9116100fd578063320b2ad9146101d9578063598647f8146101ee5780635c975abb146102015780635fd8c71014610222578063715018a6146102375780637b85cfc21461024c57600080fd5b806303cc9a7e1461013a57806312065fe0146101635780631da0603a146101785780631eeacde51461018f57806323edfb89146101b9575b600080fd5b34801561014657600080fd5b5061015060035481565b6040519081526020015b60405180910390f35b34801561016f57600080fd5b506101506103ee565b34801561018457600080fd5b5061018d610460565b005b34801561019b57600080fd5b506004546101a99060ff1681565b604051901515815260200161015a565b3480156101c557600080fd5b5061018d6101d4366004611172565b610541565b3480156101e557600080fd5b506101a96105d0565b61018d6101fc36600461118b565b610656565b34801561020d57600080fd5b506006546101a990600160a01b900460ff1681565b34801561022e57600080fd5b5061018d6107f1565b34801561024357600080fd5b5061018d6108a7565b34801561025857600080fd5b5061018d610267366004611172565b61091b565b34801561027857600080fd5b5061015060025481565b34801561028e57600080fd5b506006546001600160a01b03165b6040516001600160a01b03909116815260200161015a565b3480156102c057600080fd5b506006546001600160a01b031633146101a9565b3480156102e057600080fd5b5061018d6102ef366004611172565b61094a565b34801561030057600080fd5b5061018d61030f366004611172565b6109ba565b34801561032057600080fd5b5061018d61032f3660046111c9565b610a30565b34801561034057600080fd5b5060015461029c906001600160a01b031681565b34801561036057600080fd5b5061037461036f366004611172565b610ae1565b604080516001600160a01b03909416845260208401929092529082015260600161015a565b3480156103a557600080fd5b5060005461029c906001600160a01b031681565b3480156103c557600080fd5b5061018d6103d4366004611219565b610b4b565b3480156103e557600080fd5b506101a9610b7e565b6001546040516370a0823160e01b81523060048201526000916001600160a01b0316906370a0823190602401602060405180830381865afa158015610437573d6000803e3d6000fd5b505050506040513d601f19601f8201168201806040525081019061045b919061123b565b905090565b6006546001600160a01b031633146104935760405162461bcd60e51b815260040161048a90611254565b60405180910390fd5b4760006104a86006546001600160a01b031690565b6001600160a01b03168260405160006040518083038185875af1925050503d80600081146104f2576040519150601f19603f3d011682016040523d82523d6000602084013e6104f7565b606091505b505090508061053d5760405162461bcd60e51b81526020600482015260126024820152712330b4b632b2103a379039b2b7321021373160711b604482015260640161048a565b5050565b600654600160a01b900460ff1661055757600080fd5b6006546001600160a01b031633146105815760405162461bcd60e51b815260040161048a90611254565b6000818152600560205260409020600481015467ffffffffffffffff166105ba5760405162461bcd60e51b815260040161048a90611289565b805461053d9083906001600160a01b0316610bfd565b6006546000906001600160a01b031633146105fd5760405162461bcd60e51b815260040161048a90611254565b600654600160a01b900460ff161561061457600080fd5b6006805460ff60a01b1916600160a01b1790556040517f6985a02210a168e66602d3235cb6db0e70f92b3ba4d376a33c0f3d9434bff62590600090a150600190565b600260075414156106a95760405162461bcd60e51b815260206004820152601f60248201527f5265656e7472616e637947756172643a207265656e7472616e742063616c6c00604482015260640161048a565b6002600755600654600160a01b900460ff16156106c557600080fd5b60085434101561070c5760405162461bcd60e51b81526020600482015260126024820152716e6f7420656e6f75676820666f722066656560701b604482015260640161048a565b6001546040516323b872dd60e01b8152336004820152306024820152604481018390526001600160a01b03909116906323b872dd906064016020604051808303816000875af1158015610763573d6000803e3d6000fd5b505050506040513d601f19601f8201168201806040525081019061078791906112c0565b6107d35760405162461bcd60e51b815260206004820152601760248201527f7472616e73666572206e6f7420617574686f72697a6564000000000000000000604482015260640161048a565b6107dd8282610c48565b506107e83383610eb8565b50506001600755565b6006546001600160a01b0316331461081b5760405162461bcd60e51b815260040161048a90611254565b6001546001600160a01b031663a9059cbb336108356103ee565b6040516001600160e01b031960e085901b1681526001600160a01b03909216600483015260248201526044016020604051808303816000875af1158015610880573d6000803e3d6000fd5b505050506040513d601f19601f820116820180604052508101906108a491906112c0565b50565b6006546001600160a01b031633146108d15760405162461bcd60e51b815260040161048a90611254565b6006546040516000916001600160a01b0316907f8be0079c531659141344cd1fd0a4f28419497f9722a3daafe3b4186f6b6457e0908390a3600680546001600160a01b0319169055565b6006546001600160a01b031633146109455760405162461bcd60e51b815260040161048a90611254565b600855565b6006546001600160a01b031633146109745760405162461bcd60e51b815260040161048a90611254565b6127108111156109b55760405162461bcd60e51b815260206004820152600c60248201526b0c6eae840e8dede40d0d2ced60a31b604482015260640161048a565b600255565b600654600160a01b900460ff16156109d157600080fd5b6000818152600560205260409020600481015467ffffffffffffffff16610a0a5760405162461bcd60e51b815260040161048a90611289565b80546001600160a01b0316338114610a2157600080fd5b610a2b8382610bfd565b505050565b6000546001600160a01b03163314610a7e5760405162461bcd60e51b81526020600482015260116024820152701bdb9b1e481b999d0818dbdb9d1c9858dd607a1b604482015260640161048a565b610a888186610f21565b60006040518060a00160405280836001600160a01b03168152602001868152602001856001600160a01b031681526020018481526020014267ffffffffffffffff168152509050610ad98682610f60565b505050505050565b600081815260056020526040812060048101548291829167ffffffffffffffff16610b1e5760405162461bcd60e51b815260040161048a90611289565b805460038201546004909201546001600160a01b039091169691955067ffffffffffffffff169350915050565b6006546001600160a01b03163314610b755760405162461bcd60e51b815260040161048a90611254565b6108a481611015565b6006546000906001600160a01b03163314610bab5760405162461bcd60e51b815260040161048a90611254565b600654600160a01b900460ff16610bc157600080fd5b6006805460ff60a01b191690556040517f7805862f689e2f13df9f062ff482ad3ad112aca9e0847911ed832e158c525b3390600090a150600190565b610c06826110d6565b610c108183610eb8565b6040518281527f2c56893f6f6026d19bd17b7d05c9f15c522de1ae2b1c3a825f91a73c799321f2906020015b60405180910390a15050565b6000828152600560205260408120600481015467ffffffffffffffff16610c9f5760405162461bcd60e51b815260206004820152600b60248201526a6e6f74206f6e2073616c6560a81b604482015260640161048a565b6003810154838114610cf35760405162461bcd60e51b815260206004820152601860248201527f62696420646966666572656e742066726f6d2070726963650000000000000000604482015260640161048a565b8154600183015460028401546001600160a01b039283169216610d15886110d6565b8315610e6d57600080610d2b8660008611611122565b90925090506000610d3c83886112f8565b90506001600160a01b03841615801590610d565750600082115b8015610d64575060045460ff165b15610de95760015460405163a9059cbb60e01b81526001600160a01b038681166004830152602482018590529091169063a9059cbb906044016020604051808303816000875af1158015610dbc573d6000803e3d6000fd5b505050506040513d601f19601f82011682018060405250810190610de091906112c0565b610de957600080fd5b60015460405163a9059cbb60e01b81526001600160a01b038881166004830152602482018490529091169063a9059cbb906044016020604051808303816000875af1158015610e3c573d6000803e3d6000fd5b505050506040513d601f19601f82011682018060405250810190610e6091906112c0565b610e6957600080fd5b5050505b6040805189815260208101869052338183015290517f9f2881bde82d4b6e9c19bec262dbbdba7266ff214c4c822aa94035f21b263f339181900360600190a150919695505050505050565b6000546040516323b872dd60e01b81523060048201526001600160a01b03848116602483015260448201849052909116906323b872dd906064015b600060405180830381600087803b158015610f0d57600080fd5b505af1158015610ad9573d6000803e3d6000fd5b6000546040516323b872dd60e01b81526001600160a01b03848116600483015230602483015260448201849052909116906323b872dd90606401610ef3565b600082815260056020908152604091829020835181546001600160a01b03199081166001600160a01b0392831617835585840151600184015585850151600284018054909216921691909117905560608401516003820181905560808501516004909201805467ffffffffffffffff191667ffffffffffffffff909316929092179091558251858152918201527f35f25ba6c68be9e7f0a8a50f4d284bb035a4a21d856a0e7d3fd7945079c5ab309101610c3c565b6001600160a01b03811661107a5760405162461bcd60e51b815260206004820152602660248201527f4f776e61626c653a206e6577206f776e657220697320746865207a65726f206160448201526564647265737360d01b606482015260840161048a565b6006546040516001600160a01b038084169216907f8be0079c531659141344cd1fd0a4f28419497f9722a3daafe3b4186f6b6457e090600090a3600680546001600160a01b0319166001600160a01b0392909216919091179055565b600090815260056020526040812080546001600160a01b031990811682556001820183905560028201805490911690556003810191909155600401805467ffffffffffffffff19169055565b6000808261113157600061114c565b61271060035485611142919061130f565b61114c919061132e565b90506127106002548561115f919061130f565b611169919061132e565b91509250929050565b60006020828403121561118457600080fd5b5035919050565b6000806040838503121561119e57600080fd5b50508035926020909101359150565b80356001600160a01b03811681146111c457600080fd5b919050565b600080600080600060a086880312156111e157600080fd5b85359450602086013593506111f8604087016111ad565b92506060860135915061120d608087016111ad565b90509295509295909350565b60006020828403121561122b57600080fd5b611234826111ad565b9392505050565b60006020828403121561124d57600080fd5b5051919050565b6020808252818101527f4f776e61626c653a2063616c6c6572206973206e6f7420746865206f776e6572604082015260600190565b60208082526019908201527f546f6b656e49442069732061206d757374206f6e2073616c6500000000000000604082015260600190565b6000602082840312156112d257600080fd5b8151801515811461123457600080fd5b634e487b7160e01b600052601160045260246000fd5b60008282101561130a5761130a6112e2565b500390565b6000816000190483118215151615611329576113296112e2565b500290565b60008261134b57634e487b7160e01b600052601260045260246000fd5b50049056fea2646970667358221220964f1fbcef021a039732a415b835cbb1aa8c53150b90948f312f7eade268232964736f6c634300080a0033",
  "immutableReferences": {},
  "source": "// SPDX-License-Identifier: MIT\r\npragma solidity ^0.8.2;\r\n\r\nimport \"./Marketplace.sol\";\r\n\r\n/// @title Clock sale modified for sale of Robot\r\ncontract RobotMarketplace is Marketplace {\r\n\r\n    constructor(address _nftAddr, uint256 _cut, address _mekaToken) Marketplace(_nftAddr, _cut, 0, _mekaToken) {}\r\n\r\n    /// @dev Creates and begins a new sale.\r\n    /// @param _tokenId - ID of token to sale, sender must be owner.\r\n    /// @param _startingPrice - Price of item (in wei).\r\n    /// @param _seller - Seller, if not the message sender\r\n    function createSale(\r\n        uint256 _tokenId,\r\n        uint256 _appearenceId,\r\n        address _contributorAddress,\r\n        uint256 _startingPrice,\r\n        address _seller\r\n    )\r\n        override external\r\n    {\r\n        require(msg.sender == address(nonFungibleContract), \"only nft contract\");\r\n\r\n        _escrow(_seller, _tokenId);\r\n        Sale memory sale = Sale(\r\n            _seller,\r\n            _appearenceId,\r\n            _contributorAddress,\r\n            _startingPrice,\r\n            uint64(block.timestamp)\r\n        );\r\n        _addSale(_tokenId, sale);\r\n    }\r\n}",
  "sourcePath": "E:\\MekaMiners\\contracts\\RobotMarketplace.sol",
  "compiler": {
    "name": "solc",
    "version": "0.8.10+commit.fc410830.Emscripten.clang"
  },
  "schemaVersion": "3.4.3",
  "updatedAt": "2021-12-19T22:55:21.179Z",
  "networkType": "ethereum",
  "devdoc": {
    "kind": "dev",
    "methods": {
      "_pause()": {
        "details": "called by the owner to pause, triggers stopped state"
      },
      "_unpause()": {
        "details": "called by the owner to unpause, returns to normal state"
      },
      "bid(uint256,uint256)": {
        "details": "Bids on an open sale, completing the sale and transferring",
        "params": {
          "_tokenId": "- ID of token to bid on."
        }
      },
      "cancelSale(uint256)": {
        "details": "Cancels an sale that hasn't been won yet.  Returns the NFT to original owner.",
        "params": {
          "_tokenId": "- ID of token on sale"
        }
      },
      "cancelSaleWhenPaused(uint256)": {
        "details": "Cancels an sale when the contract is paused.  Only the owner may do this, and NFTs are returned to  the seller. This should only be used in emergencies.",
        "params": {
          "_tokenId": "- ID of the NFT on sale to cancel."
        }
      },
      "createSale(uint256,uint256,address,uint256,address)": {
        "details": "Creates and begins a new sale.",
        "params": {
          "_seller": "- Seller, if not the message sender",
          "_startingPrice": "- Price of item (in wei).",
          "_tokenId": "- ID of token to sale, sender must be owner."
        }
      },
      "getSale(uint256)": {
        "details": "Returns sale info for an NFT on sale.",
        "params": {
          "_tokenId": "- ID of NFT on sale."
        }
      },
      "isOwner()": {
        "details": "Returns true if the caller is the current owner."
      },
      "owner()": {
        "details": "Returns the address of the current owner."
      },
      "renounceOwnership()": {
        "details": "Leaves the contract without owner. It will not be possible to call `onlyOwner` functions anymore. Can only be called by the current owner. NOTE: Renouncing ownership will leave the contract without an owner, thereby removing any functionality that is only available to the owner."
      },
      "transferOwnership(address)": {
        "details": "Transfers ownership of the contract to a new account (`newOwner`). Can only be called by the current owner."
      }
    },
    "title": "Clock sale modified for sale of Robot",
    "version": 1
  },
  "userdoc": {
    "kind": "user",
    "methods": {
      "cancelSale(uint256)": {
        "notice": "This is a state-modifying function that can  be called while the contract is paused."
      }
    },
    "version": 1
  }
}