{
  "contractName": "RobotPackageGen1",
  "abi": [
    {
      "inputs": [],
      "stateMutability": "nonpayable",
      "type": "constructor"
    },
    {
      "anonymous": false,
      "inputs": [
        {
          "indexed": true,
          "internalType": "address",
          "name": "owner",
          "type": "address"
        },
        {
          "indexed": true,
          "internalType": "address",
          "name": "approved",
          "type": "address"
        },
        {
          "indexed": true,
          "internalType": "uint256",
          "name": "tokenId",
          "type": "uint256"
        }
      ],
      "name": "Approval",
      "type": "event"
    },
    {
      "anonymous": false,
      "inputs": [
        {
          "indexed": true,
          "internalType": "address",
          "name": "owner",
          "type": "address"
        },
        {
          "indexed": true,
          "internalType": "address",
          "name": "operator",
          "type": "address"
        },
        {
          "indexed": false,
          "internalType": "bool",
          "name": "approved",
          "type": "bool"
        }
      ],
      "name": "ApprovalForAll",
      "type": "event"
    },
    {
      "anonymous": false,
      "inputs": [
        {
          "indexed": false,
          "internalType": "address",
          "name": "owner",
          "type": "address"
        },
        {
          "indexed": false,
          "internalType": "uint256",
          "name": "tokenId",
          "type": "uint256"
        },
        {
          "indexed": false,
          "internalType": "uint256",
          "name": "date",
          "type": "uint256"
        }
      ],
      "name": "Birth",
      "type": "event"
    },
    {
      "anonymous": false,
      "inputs": [
        {
          "indexed": true,
          "internalType": "address",
          "name": "previousOwner",
          "type": "address"
        },
        {
          "indexed": true,
          "internalType": "address",
          "name": "newOwner",
          "type": "address"
        }
      ],
      "name": "OwnershipTransferred",
      "type": "event"
    },
    {
      "anonymous": false,
      "inputs": [
        {
          "indexed": false,
          "internalType": "address",
          "name": "to",
          "type": "address"
        },
        {
          "indexed": false,
          "internalType": "uint256",
          "name": "packId",
          "type": "uint256"
        },
        {
          "indexed": false,
          "internalType": "uint8",
          "name": "packageType",
          "type": "uint8"
        },
        {
          "indexed": false,
          "internalType": "uint256",
          "name": "date",
          "type": "uint256"
        },
        {
          "indexed": false,
          "internalType": "bool",
          "name": "isPresale",
          "type": "bool"
        }
      ],
      "name": "PackageCreatedGen1",
      "type": "event"
    },
    {
      "anonymous": false,
      "inputs": [],
      "name": "Pause",
      "type": "event"
    },
    {
      "anonymous": false,
      "inputs": [
        {
          "indexed": true,
          "internalType": "address",
          "name": "from",
          "type": "address"
        },
        {
          "indexed": true,
          "internalType": "address",
          "name": "to",
          "type": "address"
        },
        {
          "indexed": true,
          "internalType": "uint256",
          "name": "tokenId",
          "type": "uint256"
        }
      ],
      "name": "Transfer",
      "type": "event"
    },
    {
      "anonymous": false,
      "inputs": [
        {
          "indexed": false,
          "internalType": "address",
          "name": "owner",
          "type": "address"
        },
        {
          "indexed": false,
          "internalType": "uint256",
          "name": "packId",
          "type": "uint256"
        },
        {
          "indexed": false,
          "internalType": "uint8",
          "name": "packageType",
          "type": "uint8"
        },
        {
          "indexed": false,
          "internalType": "uint256",
          "name": "date",
          "type": "uint256"
        }
      ],
      "name": "UnpackedGen1",
      "type": "event"
    },
    {
      "anonymous": false,
      "inputs": [],
      "name": "Unpause",
      "type": "event"
    },
    {
      "inputs": [],
      "name": "_mekaAddress",
      "outputs": [
        {
          "internalType": "address",
          "name": "",
          "type": "address"
        }
      ],
      "stateMutability": "view",
      "type": "function",
      "constant": true
    },
    {
      "inputs": [],
      "name": "_pause",
      "outputs": [
        {
          "internalType": "bool",
          "name": "",
          "type": "bool"
        }
      ],
      "stateMutability": "nonpayable",
      "type": "function"
    },
    {
      "inputs": [],
      "name": "_robotCoreAddress",
      "outputs": [
        {
          "internalType": "address",
          "name": "",
          "type": "address"
        }
      ],
      "stateMutability": "view",
      "type": "function",
      "constant": true
    },
    {
      "inputs": [],
      "name": "_unpause",
      "outputs": [
        {
          "internalType": "bool",
          "name": "",
          "type": "bool"
        }
      ],
      "stateMutability": "nonpayable",
      "type": "function"
    },
    {
      "inputs": [
        {
          "internalType": "address",
          "name": "to",
          "type": "address"
        },
        {
          "internalType": "uint256",
          "name": "tokenId",
          "type": "uint256"
        }
      ],
      "name": "approve",
      "outputs": [],
      "stateMutability": "nonpayable",
      "type": "function"
    },
    {
      "inputs": [
        {
          "internalType": "address",
          "name": "owner",
          "type": "address"
        }
      ],
      "name": "balanceOf",
      "outputs": [
        {
          "internalType": "uint256",
          "name": "",
          "type": "uint256"
        }
      ],
      "stateMutability": "view",
      "type": "function",
      "constant": true
    },
    {
      "inputs": [],
      "name": "baseURI",
      "outputs": [
        {
          "internalType": "string",
          "name": "",
          "type": "string"
        }
      ],
      "stateMutability": "view",
      "type": "function",
      "constant": true
    },
    {
      "inputs": [],
      "name": "canUnpack",
      "outputs": [
        {
          "internalType": "bool",
          "name": "",
          "type": "bool"
        }
      ],
      "stateMutability": "view",
      "type": "function",
      "constant": true
    },
    {
      "inputs": [
        {
          "internalType": "uint256",
          "name": "tokenId",
          "type": "uint256"
        }
      ],
      "name": "getApproved",
      "outputs": [
        {
          "internalType": "address",
          "name": "",
          "type": "address"
        }
      ],
      "stateMutability": "view",
      "type": "function",
      "constant": true
    },
    {
      "inputs": [
        {
          "internalType": "address",
          "name": "owner",
          "type": "address"
        },
        {
          "internalType": "address",
          "name": "operator",
          "type": "address"
        }
      ],
      "name": "isApprovedForAll",
      "outputs": [
        {
          "internalType": "bool",
          "name": "",
          "type": "bool"
        }
      ],
      "stateMutability": "view",
      "type": "function",
      "constant": true
    },
    {
      "inputs": [],
      "name": "isOwner",
      "outputs": [
        {
          "internalType": "bool",
          "name": "",
          "type": "bool"
        }
      ],
      "stateMutability": "view",
      "type": "function",
      "constant": true
    },
    {
      "inputs": [],
      "name": "isPackageAvailable",
      "outputs": [
        {
          "internalType": "bool",
          "name": "",
          "type": "bool"
        }
      ],
      "stateMutability": "view",
      "type": "function",
      "constant": true
    },
    {
      "inputs": [],
      "name": "name",
      "outputs": [
        {
          "internalType": "string",
          "name": "",
          "type": "string"
        }
      ],
      "stateMutability": "view",
      "type": "function",
      "constant": true
    },
    {
      "inputs": [],
      "name": "owner",
      "outputs": [
        {
          "internalType": "address",
          "name": "",
          "type": "address"
        }
      ],
      "stateMutability": "view",
      "type": "function",
      "constant": true
    },
    {
      "inputs": [
        {
          "internalType": "uint256",
          "name": "tokenId",
          "type": "uint256"
        }
      ],
      "name": "ownerOf",
      "outputs": [
        {
          "internalType": "address",
          "name": "",
          "type": "address"
        }
      ],
      "stateMutability": "view",
      "type": "function",
      "constant": true
    },
    {
      "inputs": [],
      "name": "paused",
      "outputs": [
        {
          "internalType": "bool",
          "name": "",
          "type": "bool"
        }
      ],
      "stateMutability": "view",
      "type": "function",
      "constant": true
    },
    {
      "inputs": [],
      "name": "renounceOwnership",
      "outputs": [],
      "stateMutability": "nonpayable",
      "type": "function"
    },
    {
      "inputs": [
        {
          "internalType": "address",
          "name": "from",
          "type": "address"
        },
        {
          "internalType": "address",
          "name": "to",
          "type": "address"
        },
        {
          "internalType": "uint256",
          "name": "tokenId",
          "type": "uint256"
        }
      ],
      "name": "safeTransferFrom",
      "outputs": [],
      "stateMutability": "nonpayable",
      "type": "function"
    },
    {
      "inputs": [
        {
          "internalType": "address",
          "name": "from",
          "type": "address"
        },
        {
          "internalType": "address",
          "name": "to",
          "type": "address"
        },
        {
          "internalType": "uint256",
          "name": "tokenId",
          "type": "uint256"
        },
        {
          "internalType": "bytes",
          "name": "_data",
          "type": "bytes"
        }
      ],
      "name": "safeTransferFrom",
      "outputs": [],
      "stateMutability": "nonpayable",
      "type": "function"
    },
    {
      "inputs": [
        {
          "internalType": "address",
          "name": "operator",
          "type": "address"
        },
        {
          "internalType": "bool",
          "name": "approved",
          "type": "bool"
        }
      ],
      "name": "setApprovalForAll",
      "outputs": [],
      "stateMutability": "nonpayable",
      "type": "function"
    },
    {
      "inputs": [
        {
          "internalType": "bytes4",
          "name": "interfaceId",
          "type": "bytes4"
        }
      ],
      "name": "supportsInterface",
      "outputs": [
        {
          "internalType": "bool",
          "name": "",
          "type": "bool"
        }
      ],
      "stateMutability": "view",
      "type": "function",
      "constant": true
    },
    {
      "inputs": [],
      "name": "symbol",
      "outputs": [
        {
          "internalType": "string",
          "name": "",
          "type": "string"
        }
      ],
      "stateMutability": "view",
      "type": "function",
      "constant": true
    },
    {
      "inputs": [
        {
          "internalType": "uint256",
          "name": "index",
          "type": "uint256"
        }
      ],
      "name": "tokenByIndex",
      "outputs": [
        {
          "internalType": "uint256",
          "name": "",
          "type": "uint256"
        }
      ],
      "stateMutability": "view",
      "type": "function",
      "constant": true
    },
    {
      "inputs": [
        {
          "internalType": "address",
          "name": "owner",
          "type": "address"
        }
      ],
      "name": "tokenOfOwner",
      "outputs": [
        {
          "internalType": "uint256[]",
          "name": "",
          "type": "uint256[]"
        }
      ],
      "stateMutability": "view",
      "type": "function",
      "constant": true
    },
    {
      "inputs": [
        {
          "internalType": "address",
          "name": "owner",
          "type": "address"
        },
        {
          "internalType": "uint256",
          "name": "index",
          "type": "uint256"
        }
      ],
      "name": "tokenOfOwnerByIndex",
      "outputs": [
        {
          "internalType": "uint256",
          "name": "",
          "type": "uint256"
        }
      ],
      "stateMutability": "view",
      "type": "function",
      "constant": true
    },
    {
      "inputs": [
        {
          "internalType": "uint256",
          "name": "tokenId",
          "type": "uint256"
        }
      ],
      "name": "tokenURI",
      "outputs": [
        {
          "internalType": "string",
          "name": "",
          "type": "string"
        }
      ],
      "stateMutability": "view",
      "type": "function",
      "constant": true
    },
    {
      "inputs": [],
      "name": "totalSupply",
      "outputs": [
        {
          "internalType": "uint256",
          "name": "",
          "type": "uint256"
        }
      ],
      "stateMutability": "view",
      "type": "function",
      "constant": true
    },
    {
      "inputs": [
        {
          "internalType": "address",
          "name": "newOwner",
          "type": "address"
        }
      ],
      "name": "transferOwnership",
      "outputs": [],
      "stateMutability": "nonpayable",
      "type": "function"
    },
    {
      "inputs": [
        {
          "internalType": "address",
          "name": "addr",
          "type": "address"
        }
      ],
      "name": "isBlacklisted",
      "outputs": [
        {
          "internalType": "bool",
          "name": "",
          "type": "bool"
        }
      ],
      "stateMutability": "view",
      "type": "function",
      "constant": true
    },
    {
      "inputs": [
        {
          "internalType": "address",
          "name": "wallet",
          "type": "address"
        },
        {
          "internalType": "bool",
          "name": "isBanned",
          "type": "bool"
        }
      ],
      "name": "setBlackList",
      "outputs": [],
      "stateMutability": "nonpayable",
      "type": "function"
    },
    {
      "inputs": [
        {
          "internalType": "uint8",
          "name": "limit",
          "type": "uint8"
        }
      ],
      "name": "setPackageLimit",
      "outputs": [],
      "stateMutability": "nonpayable",
      "type": "function"
    },
    {
      "inputs": [
        {
          "internalType": "address",
          "name": "_addr",
          "type": "address"
        }
      ],
      "name": "setTokenAddress",
      "outputs": [],
      "stateMutability": "nonpayable",
      "type": "function"
    },
    {
      "inputs": [
        {
          "internalType": "address",
          "name": "robotAddress",
          "type": "address"
        }
      ],
      "name": "setRobotAddress",
      "outputs": [],
      "stateMutability": "nonpayable",
      "type": "function"
    },
    {
      "inputs": [
        {
          "internalType": "uint32",
          "name": "quantity",
          "type": "uint32"
        }
      ],
      "name": "setFirstPackageLimit",
      "outputs": [],
      "stateMutability": "nonpayable",
      "type": "function"
    },
    {
      "inputs": [
        {
          "internalType": "uint32",
          "name": "quantity",
          "type": "uint32"
        }
      ],
      "name": "setSecondPackageLimit",
      "outputs": [],
      "stateMutability": "nonpayable",
      "type": "function"
    },
    {
      "inputs": [
        {
          "internalType": "uint32",
          "name": "quantity",
          "type": "uint32"
        }
      ],
      "name": "setThirdPackageLimit",
      "outputs": [],
      "stateMutability": "nonpayable",
      "type": "function"
    },
    {
      "inputs": [
        {
          "internalType": "enum RobotPackageGen1.PackageType",
          "name": "_packageType",
          "type": "uint8"
        },
        {
          "internalType": "uint256",
          "name": "amount",
          "type": "uint256"
        }
      ],
      "name": "setPackageTypePrice",
      "outputs": [],
      "stateMutability": "nonpayable",
      "type": "function"
    },
    {
      "inputs": [
        {
          "internalType": "enum RobotPackageGen1.PackageType",
          "name": "_packageType",
          "type": "uint8"
        },
        {
          "internalType": "uint8",
          "name": "quantity",
          "type": "uint8"
        }
      ],
      "name": "setPackageTypeRobots",
      "outputs": [],
      "stateMutability": "nonpayable",
      "type": "function"
    },
    {
      "inputs": [],
      "name": "updateCanUnpack",
      "outputs": [],
      "stateMutability": "nonpayable",
      "type": "function"
    },
    {
      "inputs": [],
      "name": "updatePackageAvailable",
      "outputs": [],
      "stateMutability": "nonpayable",
      "type": "function"
    },
    {
      "inputs": [],
      "name": "withdrawBalance",
      "outputs": [],
      "stateMutability": "nonpayable",
      "type": "function"
    },
    {
      "inputs": [],
      "name": "withdrawBnb",
      "outputs": [],
      "stateMutability": "nonpayable",
      "type": "function"
    },
    {
      "inputs": [],
      "name": "getBalance",
      "outputs": [
        {
          "internalType": "uint256",
          "name": "",
          "type": "uint256"
        }
      ],
      "stateMutability": "view",
      "type": "function",
      "constant": true
    },
    {
      "inputs": [],
      "name": "getBnbBalance",
      "outputs": [
        {
          "internalType": "uint256",
          "name": "",
          "type": "uint256"
        }
      ],
      "stateMutability": "view",
      "type": "function",
      "constant": true
    },
    {
      "inputs": [
        {
          "internalType": "enum RobotPackageGen1.PackageType",
          "name": "_packageType",
          "type": "uint8"
        },
        {
          "internalType": "bool",
          "name": "_isPresale",
          "type": "bool"
        }
      ],
      "name": "createPackage",
      "outputs": [],
      "stateMutability": "payable",
      "type": "function",
      "payable": true
    },
    {
      "inputs": [
        {
          "internalType": "address",
          "name": "_to",
          "type": "address"
        },
        {
          "internalType": "enum RobotPackageGen1.PackageType",
          "name": "_packageType",
          "type": "uint8"
        },
        {
          "internalType": "bool",
          "name": "_isPresale",
          "type": "bool"
        }
      ],
      "name": "createPackageExtra",
      "outputs": [],
      "stateMutability": "nonpayable",
      "type": "function"
    },
    {
      "inputs": [
        {
          "internalType": "uint256",
          "name": "_amount",
          "type": "uint256"
        },
        {
          "internalType": "uint256",
          "name": "_tokenId",
          "type": "uint256"
        }
      ],
      "name": "openPackage",
      "outputs": [],
      "stateMutability": "nonpayable",
      "type": "function"
    },
    {
      "inputs": [],
      "name": "getPackagesCount",
      "outputs": [
        {
          "internalType": "uint32",
          "name": "_firstPackageCount",
          "type": "uint32"
        },
        {
          "internalType": "uint32",
          "name": "_secondPackageCount",
          "type": "uint32"
        },
        {
          "internalType": "uint32",
          "name": "_thirdPackageCount",
          "type": "uint32"
        }
      ],
      "stateMutability": "view",
      "type": "function",
      "constant": true
    },
    {
      "inputs": [
        {
          "internalType": "uint256",
          "name": "_id",
          "type": "uint256"
        }
      ],
      "name": "getPackage",
      "outputs": [
        {
          "components": [
            {
              "internalType": "address",
              "name": "owner",
              "type": "address"
            },
            {
              "internalType": "uint256",
              "name": "packageId",
              "type": "uint256"
            },
            {
              "internalType": "uint8",
              "name": "robotQuantity",
              "type": "uint8"
            },
            {
              "internalType": "enum RobotPackageGen1.PackageType",
              "name": "packageType",
              "type": "uint8"
            },
            {
              "internalType": "uint64",
              "name": "birthTime",
              "type": "uint64"
            }
          ],
          "internalType": "struct RobotPackageGen1.Package",
          "name": "package",
          "type": "tuple"
        }
      ],
      "stateMutability": "view",
      "type": "function",
      "constant": true
    },
    {
      "inputs": [
        {
          "internalType": "address",
          "name": "_from",
          "type": "address"
        },
        {
          "internalType": "address",
          "name": "_receiver",
          "type": "address"
        },
        {
          "internalType": "uint256",
          "name": "_tokenId",
          "type": "uint256"
        }
      ],
      "name": "transferFrom",
      "outputs": [],
      "stateMutability": "nonpayable",
      "type": "function"
    }
  ],
  "bytecode": "0x6080604052600b805460ff60a01b191690556001600e556702c68af0bb1400006013556706f05b59d3b20000601455670c7d713b49da0000601555674563918244f400006016556017805460ff600160681b03600160c81b03191675c80000019000000258000000000000000000000000051790553480156200008157600080fd5b50604080518082018252600b81526a4d656b61626f7420506b6760a81b6020808301919091528251808401909352600a8352694d656b61626f74506b6760b01b9083015290620000d86301ffc9a760e01b620001fd565b8151620000ed906007906020850190620003b3565b50805162000103906008906020840190620003b3565b50620001166380ac58cd60e01b620001fd565b62000128635b5e139f60e01b620001fd565b6200013a63780e9d6360e01b620001fd565b5050600b80546001600160a01b0319163390811790915560405181906000907f8be0079c531659141344cd1fd0a4f28419497f9722a3daafe3b4186f6b6457e0908290a3506001600c556019805461ffff60a01b19169055601354620001a39060049062000282565b620001b860056014546200028260201b60201c565b620001cd60066015546200028260201b60201c565b620001db6004600162000310565b620001e96005600262000310565b620001f76006600362000310565b620004ac565b6001600160e01b031980821614156200025d5760405162461bcd60e51b815260206004820152601c60248201527f4552433136353a20696e76616c696420696e746572666163652069640000000060448201526064015b60405180910390fd5b6001600160e01b0319166000908152602081905260409020805460ff19166001179055565b600b546001600160a01b03163314620002cd5760405162461bcd60e51b8152602060048201819052602482015260008051602062003f19833981519152604482015260640162000254565b8060116000846006811115620002e757620002e762000459565b6006811115620002fb57620002fb62000459565b81526020810191909152604001600020555050565b600b546001600160a01b031633146200035b5760405162461bcd60e51b8152602060048201819052602482015260008051602062003f19833981519152604482015260640162000254565b806010600084600681111562000375576200037562000459565b600681111562000389576200038962000459565b815260200190815260200160002060006101000a81548160ff021916908360ff1602179055505050565b828054620003c1906200046f565b90600052602060002090601f016020900481019282620003e5576000855562000430565b82601f106200040057805160ff191683800117855562000430565b8280016001018555821562000430579182015b828111156200043057825182559160200191906001019062000413565b506200043e92915062000442565b5090565b5b808211156200043e576000815560010162000443565b634e487b7160e01b600052602160045260246000fd5b600181811c908216806200048457607f821691505b60208210811415620004a657634e487b7160e01b600052602260045260246000fd5b50919050565b613a5d80620004bc6000396000f3fe6080604052600436106102c95760003560e01c80636c0360eb11610175578063b88d4fde116100dc578063d41f90b011610095578063f2fde38b1161006f578063f2fde38b146108cc578063f9cdfbcc146108ec578063fc8234cb1461090c578063fe575a871461092157600080fd5b8063d41f90b014610819578063d525f50414610862578063e985e9c51461088357600080fd5b8063b88d4fde14610764578063b99dfe1814610784578063befc6cc3146107b1578063c201ca8a146107d1578063c41e89f5146107e6578063c87b56dd146107f957600080fd5b80638f32d59b1161012e5780638f32d59b146106af5780639124e0ac146106cf57806395d89b41146106ef5780639ae322a914610704578063a22cb46514610724578063ac511c3e1461074457600080fd5b80636c0360eb146106075780636e11a9bc1461061c57806370a082311461063c578063715018a61461065c57806379f63c1b146106715780638da5cb5b1461069157600080fd5b8063320b2ad911610234578063570c8e3b116101ed5780635c975abb116101c75780635c975abb146105915780635fd8c710146105b25780636352211e146105c757806368092bd9146105e757600080fd5b8063570c8e3b1461053b5780635aeaf14c146105505780635c86ea7c1461057057600080fd5b8063320b2ad91461049357806333f5bf31146104a857806342842e0e146104bb57806347049c84146104db5780634986a917146104fb5780634f6ccce71461051b57600080fd5b806318160ddd1161028657806318160ddd146103dc5780631da0603a146103f157806323b872dd1461040657806326a4e8d214610426578063294cdf0d146104465780632f745c591461047357600080fd5b806301ffc9a7146102ce578063045090631461031d57806306fdde031461033f578063081812fc14610361578063095ea7b31461039957806312065fe0146103b9575b600080fd5b3480156102da57600080fd5b506103086102e9366004613163565b6001600160e01b03191660009081526020819052604090205460ff1690565b60405190151581526020015b60405180910390f35b34801561032957600080fd5b5061033d61033836600461319c565b61095a565b005b34801561034b57600080fd5b506103546109af565b604051610314919061320f565b34801561036d57600080fd5b5061038161037c366004613222565b610a41565b6040516001600160a01b039091168152602001610314565b3480156103a557600080fd5b5061033d6103b436600461323b565b610ac9565b3480156103c557600080fd5b506103ce610bdf565b604051908152602001610314565b3480156103e857600080fd5b506103ce610c51565b3480156103fd57600080fd5b5061033d610c5d565b34801561041257600080fd5b5061033d610421366004613265565b610d37565b34801561043257600080fd5b5061033d61044136600461319c565b610e4b565b34801561045257600080fd5b5061046661046136600461319c565b610e97565b60405161031491906132a1565b34801561047f57600080fd5b506103ce61048e36600461323b565b610f83565b34801561049f57600080fd5b50610308610fae565b3480156104b457600080fd5b50476103ce565b3480156104c757600080fd5b5061033d6104d6366004613265565b611034565b3480156104e757600080fd5b50601854610381906001600160a01b031681565b34801561050757600080fd5b5061033d6105163660046132e5565b61104f565b34801561052757600080fd5b506103ce610536366004613222565b61109f565b34801561054757600080fd5b5061033d6110b5565b34801561055c57600080fd5b5061033d61056b36600461330b565b611100565b34801561057c57600080fd5b5060195461030890600160a81b900460ff1681565b34801561059d57600080fd5b50600b5461030890600160a01b900460ff1681565b3480156105be57600080fd5b5061033d61148c565b3480156105d357600080fd5b506103816105e2366004613222565b611553565b3480156105f357600080fd5b5061033d61060236600461333b565b61157b565b34801561061357600080fd5b506103546115d0565b34801561062857600080fd5b5061033d610637366004613392565b6115df565b34801561064857600080fd5b506103ce61065736600461319c565b61165b565b34801561066857600080fd5b5061033d6116e7565b34801561067d57600080fd5b5061033d61068c3660046132e5565b61175b565b34801561069d57600080fd5b50600b546001600160a01b0316610381565b3480156106bb57600080fd5b50600b546001600160a01b03163314610308565b3480156106db57600080fd5b5061033d6106ea3660046133c5565b6117ab565b3480156106fb57600080fd5b506103546117eb565b34801561071057600080fd5b5061033d61071f3660046133e0565b6117fa565b34801561073057600080fd5b5061033d61073f36600461333b565b611958565b34801561075057600080fd5b5061033d61075f366004613427565b611a1d565b34801561077057600080fd5b5061033d61077f366004613459565b611a84565b34801561079057600080fd5b506107a461079f366004613222565b611abc565b604051610314919061354b565b3480156107bd57600080fd5b5061033d6107cc3660046132e5565b611ba1565b3480156107dd57600080fd5b5061033d611bf1565b61033d6107f43660046135b8565b611c3c565b34801561080557600080fd5b50610354610814366004613222565b6120ad565b34801561082557600080fd5b506017546040805163ffffffff61010084048116825265010000000000840481166020830152600160481b90930490921690820152606001610314565b34801561086e57600080fd5b5060195461030890600160a01b900460ff1681565b34801561088f57600080fd5b5061030861089e3660046135d4565b6001600160a01b03918216600090815260066020908152604080832093909416825291909152205460ff1690565b3480156108d857600080fd5b5061033d6108e736600461319c565b61221e565b3480156108f857600080fd5b50601954610381906001600160a01b031681565b34801561091857600080fd5b50610308612251565b34801561092d57600080fd5b5061030861093c36600461319c565b6001600160a01b031660009081526012602052604090205460ff1690565b600b546001600160a01b0316331461098d5760405162461bcd60e51b8152600401610984906135fe565b60405180910390fd5b601980546001600160a01b0319166001600160a01b0392909216919091179055565b6060600780546109be90613633565b80601f01602080910402602001604051908101604052809291908181526020018280546109ea90613633565b8015610a375780601f10610a0c57610100808354040283529160200191610a37565b820191906000526020600020905b815481529060010190602001808311610a1a57829003601f168201915b5050505050905090565b6000610a4c826122d0565b610aad5760405162461bcd60e51b815260206004820152602c60248201527f4552433732313a20617070726f76656420717565727920666f72206e6f6e657860448201526b34b9ba32b73a103a37b5b2b760a11b6064820152608401610984565b506000908152600560205260409020546001600160a01b031690565b6000610ad482611553565b9050806001600160a01b0316836001600160a01b03161415610b425760405162461bcd60e51b815260206004820152602160248201527f4552433732313a20617070726f76616c20746f2063757272656e74206f776e656044820152603960f91b6064820152608401610984565b336001600160a01b0382161480610b5e5750610b5e813361089e565b610bd05760405162461bcd60e51b815260206004820152603860248201527f4552433732313a20617070726f76652063616c6c6572206973206e6f74206f7760448201527f6e6572206e6f7220617070726f76656420666f7220616c6c00000000000000006064820152608401610984565b610bda83836122dd565b505050565b6018546040516370a0823160e01b81523060048201526000916001600160a01b0316906370a0823190602401602060405180830381865afa158015610c28573d6000803e3d6000fd5b505050506040513d601f19601f82011682018060405250810190610c4c919061366e565b905090565b6000610c4c600261234b565b600b546001600160a01b03163314610c875760405162461bcd60e51b8152600401610984906135fe565b476000610c9c600b546001600160a01b031690565b6001600160a01b03168260405160006040518083038185875af1925050503d8060008114610ce6576040519150601f19603f3d011682016040523d82523d6000602084013e610ceb565b606091505b5050905080610d335760405162461bcd60e51b81526020600482015260146024820152732330b4b632b2103a379039b2b7321022ba3432b960611b6044820152606401610984565b5050565b813b63ffffffff1615610d825760405162461bcd60e51b815260206004820152601360248201527218d85b881b9bdd0818994818dbdb9d1c9858dd606a1b6044820152606401610984565b6001600160a01b03831660009081526012602052604090205460ff1615610de15760405162461bcd60e51b81526020600482015260136024820152721859191c995cdccb589b1858dadb1a5cdd1959606a1b6044820152606401610984565b6001600160a01b03821660009081526012602052604090205460ff1615610e405760405162461bcd60e51b81526020600482015260136024820152721859191c995cdccb589b1858dadb1a5cdd1959606a1b6044820152606401610984565b610bda838383612356565b600b546001600160a01b03163314610e755760405162461bcd60e51b8152600401610984906135fe565b601880546001600160a01b0319166001600160a01b0392909216919091179055565b6001600160a01b038116600090815260016020526040812060609190610ebc90612387565b67ffffffffffffffff811115610ed457610ed4613443565b604051908082528060200260200182016040528015610efd578160200160208202803683370190505b50905060005b6001600160a01b0384166000908152600160205260409020610f2490612387565b811015610f7c576001600160a01b0384166000908152600160205260409020610f4d9082612391565b828281518110610f5f57610f5f613687565b602090810291909101015280610f74816136b3565b915050610f03565b5092915050565b6001600160a01b0382166000908152600160205260408120610fa59083612391565b90505b92915050565b600b546000906001600160a01b03163314610fdb5760405162461bcd60e51b8152600401610984906135fe565b600b54600160a01b900460ff1615610ff257600080fd5b600b805460ff60a01b1916600160a01b1790556040517f6985a02210a168e66602d3235cb6db0e70f92b3ba4d376a33c0f3d9434bff62590600090a150600190565b610bda83838360405180602001604052806000815250611a84565b600b546001600160a01b031633146110795760405162461bcd60e51b8152600401610984906135fe565b6017805463ffffffff909216600160681b0263ffffffff60681b19909216919091179055565b6000806110ad60028461239d565b509392505050565b600b546001600160a01b031633146110df5760405162461bcd60e51b8152600401610984906135fe565b6019805460ff60a81b198116600160a81b9182900460ff1615909102179055565b601954600160a01b900460ff166111485760405162461bcd60e51b815260206004820152600c60248201526b31b0b7103737ba1037b832b760a11b6044820152606401610984565b600b54600160a01b900460ff161561115f57600080fd5b333b63ffffffff16156111ac5760405162461bcd60e51b815260206004820152601560248201527418d85b881b9bdd08189948184818dbdb9d1c9858dd605a1b6044820152606401610984565b60165482146111ee5760405162461bcd60e51b815260206004820152600e60248201526d1253959053125108105353d5539560921b6044820152606401610984565b336111f882611553565b6001600160a01b03161461123e5760405162461bcd60e51b815260206004820152600d60248201526c3737ba103a34329037bbb732b960991b6044820152606401610984565b6018546040516323b872dd60e01b8152336004820152306024820152604481018490526001600160a01b03909116906323b872dd906064016020604051808303816000875af1158015611295573d6000803e3d6000fd5b505050506040513d601f19601f820116820180604052508101906112b991906136ce565b6112c257600080fd5b6000600d6112d16001846136eb565b815481106112e1576112e1613687565b60009182526020918290206040805160a081018252600390930290910180546001600160a01b03168352600181015493830193909352600283015460ff80821692840192909252919291606084019161010090910416600681111561134857611348613535565b600681111561135957611359613535565b81526002919091015462010000900467ffffffffffffffff1660209091015260195460608201519192506001600160a01b031690637de166b190339060068111156113a6576113a6613535565b60408086015190516001600160e01b031960e086901b1681526001600160a01b03909316600484015260ff9182166024840152166044820152606401600060405180830381600087803b1580156113fc57600080fd5b505af1158015611410573d6000803e3d6000fd5b5050505061141d826123b9565b7fc4cab6bcbed720e4fd0f5ae56c9207c1583b8081a8f8bd9bbd595363ffcdfed333838360600151600681111561145657611456613535565b604080516001600160a01b039094168452602084019290925260ff169082015242606082015260800160405180910390a1505050565b600b546001600160a01b031633146114b65760405162461bcd60e51b8152600401610984906135fe565b6018546001600160a01b031663a9059cbb6114d9600b546001600160a01b031690565b6114e1610bdf565b6040516001600160e01b031960e085901b1681526001600160a01b03909216600483015260248201526044016020604051808303816000875af115801561152c573d6000803e3d6000fd5b505050506040513d601f19601f8201168201806040525081019061155091906136ce565b50565b6000610fa8826040518060600160405280602981526020016139ff6029913960029190612448565b600b546001600160a01b031633146115a55760405162461bcd60e51b8152600401610984906135fe565b6001600160a01b03919091166000908152601260205260409020805460ff1916911515919091179055565b6060600a80546109be90613633565b600b546001600160a01b031633146116095760405162461bcd60e51b8152600401610984906135fe565b806010600084600681111561162057611620613535565b600681111561163157611631613535565b815260200190815260200160002060006101000a81548160ff021916908360ff1602179055505050565b60006001600160a01b0382166116c65760405162461bcd60e51b815260206004820152602a60248201527f4552433732313a2062616c616e636520717565727920666f7220746865207a65604482015269726f206164647265737360b01b6064820152608401610984565b6001600160a01b0382166000908152600160205260409020610fa890612387565b600b546001600160a01b031633146117115760405162461bcd60e51b8152600401610984906135fe565b600b546040516000916001600160a01b0316907f8be0079c531659141344cd1fd0a4f28419497f9722a3daafe3b4186f6b6457e0908390a3600b80546001600160a01b0319169055565b600b546001600160a01b031633146117855760405162461bcd60e51b8152600401610984906135fe565b6017805463ffffffff909216600160881b0263ffffffff60881b19909216919091179055565b600b546001600160a01b031633146117d55760405162461bcd60e51b8152600401610984906135fe565b6017805460ff191660ff92909216919091179055565b6060600880546109be90613633565b600b546001600160a01b031633146118245760405162461bcd60e51b8152600401610984906135fe565b600082600681111561183857611838613535565b14156118785760405162461bcd60e51b815260206004820152600f60248201526e696e76616c6964207061636b61676560881b6044820152606401610984565b6001600160a01b0383166118ce5760405162461bcd60e51b815260206004820181905260248201527f4552433732313a206d696e7420746f20746865207a65726f20616464726573736044820152606401610984565b60048260068111156118e2576118e2613535565b10156119305760405162461bcd60e51b815260206004820152601c60248201527f666f722067656e203020757365206f7468657220636f6e7472616374000000006044820152606401610984565b61193e83600e54848461245f565b600e805490600061194e836136b3565b9190505550505050565b6001600160a01b0382163314156119b15760405162461bcd60e51b815260206004820152601960248201527f4552433732313a20617070726f766520746f2063616c6c6572000000000000006044820152606401610984565b3360008181526006602090815260408083206001600160a01b03871680855290835292819020805460ff191686151590811790915590519081529192917f17307eab39ab6107e8899845ad3d59bd9653f200f220920489ca2b5937696c31910160405180910390a35050565b600b546001600160a01b03163314611a475760405162461bcd60e51b8152600401610984906135fe565b8060116000846006811115611a5e57611a5e613535565b6006811115611a6f57611a6f613535565b81526020810191909152604001600020555050565b611a8e3383612694565b611aaa5760405162461bcd60e51b815260040161098490613702565b611ab68484848461277e565b50505050565b6040805160a081018252600080825260208201819052918101829052606081018290526080810191909152600d611af46001846136eb565b81548110611b0457611b04613687565b60009182526020918290206040805160a081018252600390930290910180546001600160a01b03168352600181015493830193909352600283015460ff808216928401929092529192916060840191610100909104166006811115611b6b57611b6b613535565b6006811115611b7c57611b7c613535565b81526002919091015462010000900467ffffffffffffffff1660209091015292915050565b600b546001600160a01b03163314611bcb5760405162461bcd60e51b8152600401610984906135fe565b6017805463ffffffff909216600160a81b0263ffffffff60a81b19909216919091179055565b600b546001600160a01b03163314611c1b5760405162461bcd60e51b8152600401610984906135fe565b6019805460ff60a01b198116600160a01b9182900460ff1615909102179055565b6002600c541415611c8f5760405162461bcd60e51b815260206004820152601f60248201527f5265656e7472616e637947756172643a207265656e7472616e742063616c6c006044820152606401610984565b6002600c55601954600160a81b900460ff16611ce35760405162461bcd60e51b81526020600482015260136024820152727061636b61676520756e617661696c61626c6560681b6044820152606401610984565b600b54600160a01b900460ff1615611cfa57600080fd5b601754336000908152600f602052604090205460ff918216911610611d585760405162461bcd60e51b81526020600482015260146024820152731dd85b1b195d0b5c1858dad859d94b5b1a5b5a5d60621b6044820152606401610984565b6004826006811115611d6c57611d6c613535565b1015611dba5760405162461bcd60e51b815260206004820152601c60248201527f666f722067656e203020757365206f7468657220636f6e7472616374000000006044820152606401610984565b333b63ffffffff1615611e065760405162461bcd60e51b815260206004820152601460248201527318dbdb9d1c9858dd081b9bdd08185b1b1bddd95960621b6044820152606401610984565b6000826006811115611e1a57611e1a613535565b1415611e5a5760405162461bcd60e51b815260206004820152600f60248201526e696e76616c6964207061636b61676560881b6044820152606401610984565b60116000836006811115611e7057611e70613535565b6006811115611e8157611e81613535565b8152602001908152602001600020543414611ecf5760405162461bcd60e51b815260206004820152600e60248201526d1253959053125108105353d5539560921b6044820152606401610984565b6004826006811115611ee357611ee3613535565b1415611f5d5760175463ffffffff600160681b820481166101009092041610611f1e5760405162461bcd60e51b815260040161098490613753565b60178054610100900463ffffffff16906001611f3983613775565b91906101000a81548163ffffffff021916908363ffffffff16021790555050612043565b6005826006811115611f7157611f71613535565b1415611fcf5760175463ffffffff600160881b82048116650100000000009092041610611fb05760405162461bcd60e51b815260040161098490613753565b6017805465010000000000900463ffffffff16906005611f3983613775565b60175463ffffffff600160a81b82048116600160481b90920416106120065760405162461bcd60e51b815260040161098490613753565b60178054600160481b900463ffffffff1690600961202383613775565b91906101000a81548163ffffffff021916908363ffffffff160217905550505b61205133600e54848461245f565b336000908152600f602052604090205461206f9060ff166001613799565b336000908152600f60205260408120805460ff191660ff9390931692909217909155600e80549161209f836136b3565b90915550506001600c555050565b60606120b8826122d0565b61211c5760405162461bcd60e51b815260206004820152602f60248201527f4552433732314d657461646174613a2055524920717565727920666f72206e6f60448201526e3732bc34b9ba32b73a103a37b5b2b760891b6064820152608401610984565b6000828152600960205260408120805461213590613633565b80601f016020809104026020016040519081016040528092919081815260200182805461216190613633565b80156121ae5780601f10612183576101008083540402835291602001916121ae565b820191906000526020600020905b81548152906001019060200180831161219157829003601f168201915b50505050509050600a80546121c290613633565b151590506121d05792915050565b80511561220257600a816040516020016121eb9291906137da565b604051602081830303815290604052915050919050565b600a61220d846127b1565b6040516020016121eb9291906137da565b600b546001600160a01b031633146122485760405162461bcd60e51b8152600401610984906135fe565b611550816128c8565b600b546000906001600160a01b0316331461227e5760405162461bcd60e51b8152600401610984906135fe565b600b54600160a01b900460ff1661229457600080fd5b600b805460ff60a01b191690556040517f7805862f689e2f13df9f062ff482ad3ad112aca9e0847911ed832e158c525b3390600090a150600190565b6000610fa8600283612989565b600081815260056020526040902080546001600160a01b0319166001600160a01b038416908117909155819061231282611553565b6001600160a01b03167f8c5be1e5ebec7d5bd14f71427d1e84f3dd0314c0f7b2291e5b200ac8c7c3b92560405160405180910390a45050565b6000610fa882612995565b6123603382612694565b61237c5760405162461bcd60e51b815260040161098490613702565b610bda8383836129a0565b6000610fa8825490565b6000610fa58383612b2c565b60008080806123ac8686612b56565b9097909650945050505050565b60006123c482611553565b90506123d281600084612b81565b6123dd6000836122dd565b6001600160a01b03811660009081526001602052604090206123ff9083612b98565b5061240b600283612ba4565b5060405182906000906001600160a01b038416907fddf252ad1be2c89b69c2b068fc378daa952ba7f163c4a11628f55a4df523b3ef908390a45050565b6000612455848484612bb0565b90505b9392505050565b60006040518060a00160405280866001600160a01b031681526020018581526020016010600086600681111561249757612497613535565b60068111156124a8576124a8613535565b81526020808201929092526040016000205460ff168252018460068111156124d2576124d2613535565b81526020014267ffffffffffffffff168152509050612501858560405180602001604052806000815250612bf3565b600d805460018101825560009190915281517fd7b6990105719101dabeb77144f2a3385c8033acd3af97e9423a695e81ad1eb5600390920291820180546001600160a01b0319166001600160a01b0390921691909117815560208301517fd7b6990105719101dabeb77144f2a3385c8033acd3af97e9423a695e81ad1eb683015560408301517fd7b6990105719101dabeb77144f2a3385c8033acd3af97e9423a695e81ad1eb7909201805460ff19811660ff90941693841782556060850151859490929161ffff1916176101008360068111156125e1576125e1613535565b021790555060808201518160020160026101000a81548167ffffffffffffffff021916908367ffffffffffffffff16021790555050507fb1c756a28a26aa12f9134fbacf6c30a5e0db29f35e2aa5aff388e7e46605883d8582602001518360600151600681111561265457612654613535565b604080516001600160a01b039094168452602084019290925260ff1690820152426060820152831515608082015260a00160405180910390a15050505050565b600061269f826122d0565b6127005760405162461bcd60e51b815260206004820152602c60248201527f4552433732313a206f70657261746f7220717565727920666f72206e6f6e657860448201526b34b9ba32b73a103a37b5b2b760a11b6064820152608401610984565b600061270b83611553565b9050806001600160a01b0316846001600160a01b031614806127465750836001600160a01b031661273b84610a41565b6001600160a01b0316145b8061277657506001600160a01b0380821660009081526006602090815260408083209388168352929052205460ff165b949350505050565b6127898484846129a0565b61279584848484612c26565b611ab65760405162461bcd60e51b815260040161098490613881565b6060816127d55750506040805180820190915260018152600360fc1b602082015290565b8160005b81156127ff57806127e9816136b3565b91506127f89050600a836138e9565b91506127d9565b60008167ffffffffffffffff81111561281a5761281a613443565b6040519080825280601f01601f191660200182016040528015612844576020820181803683370190505b50905060006128546001846136eb565b90508593505b83156128bf5761286b600a856138fd565b612876906030613911565b60f81b828261288481613929565b93508151811061289657612896613687565b60200101906001600160f81b031916908160001a9053506128b8600a856138e9565b935061285a565b50949350505050565b6001600160a01b03811661292d5760405162461bcd60e51b815260206004820152602660248201527f4f776e61626c653a206e6577206f776e657220697320746865207a65726f206160448201526564647265737360d01b6064820152608401610984565b600b546040516001600160a01b038084169216907f8be0079c531659141344cd1fd0a4f28419497f9722a3daafe3b4186f6b6457e090600090a3600b80546001600160a01b0319166001600160a01b0392909216919091179055565b6000610fa58383612cf7565b6000610fa882612387565b826001600160a01b03166129b382611553565b6001600160a01b031614612a1b5760405162461bcd60e51b815260206004820152602960248201527f4552433732313a207472616e73666572206f6620746f6b656e2074686174206960448201526839903737ba1037bbb760b91b6064820152608401610984565b6001600160a01b038216612a7d5760405162461bcd60e51b8152602060048201526024808201527f4552433732313a207472616e7366657220746f20746865207a65726f206164646044820152637265737360e01b6064820152608401610984565b612a88838383612b81565b612a936000826122dd565b6001600160a01b0383166000908152600160205260409020612ab59082612b98565b506001600160a01b0382166000908152600160205260409020612ad89082612d03565b50612ae560028284612d0f565b5080826001600160a01b0316846001600160a01b03167fddf252ad1be2c89b69c2b068fc378daa952ba7f163c4a11628f55a4df523b3ef60405160405180910390a4505050565b6000826000018281548110612b4357612b43613687565b9060005260206000200154905092915050565b60008080612b648585612391565b600081815260029690960160205260409095205494959350505050565b600b54600160a01b900460ff1615610bda57600080fd5b6000610fa58383612d25565b6000610fa58383612e18565b600082815260028401602052604081205480151580612bd45750612bd48585612cf7565b83906128bf5760405162461bcd60e51b8152600401610984919061320f565b612bfd8383612e35565b612c0a6000848484612c26565b610bda5760405162461bcd60e51b815260040161098490613881565b60006001600160a01b0384163b612c3f57506001612776565b6000612cc0630a85bd0160e11b33888787604051602401612c639493929190613940565b604051602081830303815290604052906001600160e01b0319166020820180516001600160e01b0383818316178352505050506040518060600160405280603281526020016139cd603291396001600160a01b0388169190612f59565b9050600081806020019051810190612cd8919061397d565b6001600160e01b031916630a85bd0160e11b1492505050949350505050565b6000610fa58383612f68565b6000610fa58383612f80565b600061245584846001600160a01b038516612fcf565b60008181526001830160205260408120548015612e0e576000612d496001836136eb565b8554909150600090612d5d906001906136eb565b9050818114612dc2576000866000018281548110612d7d57612d7d613687565b9060005260206000200154905080876000018481548110612da057612da0613687565b6000918252602080832090910192909255918252600188019052604090208390555b8554869080612dd357612dd361399a565b600190038181906000526020600020016000905590558560010160008681526020019081526020016000206000905560019350505050610fa8565b6000915050610fa8565b60008181526002830160205260408120819055610fa58383612b98565b6001600160a01b038216612e8b5760405162461bcd60e51b815260206004820181905260248201527f4552433732313a206d696e7420746f20746865207a65726f20616464726573736044820152606401610984565b612e94816122d0565b15612ee15760405162461bcd60e51b815260206004820152601c60248201527f4552433732313a20746f6b656e20616c7265616479206d696e746564000000006044820152606401610984565b612eed60008383612b81565b6001600160a01b0382166000908152600160205260409020612f0f9082612d03565b50612f1c60028284612d0f565b5060405181906001600160a01b038416906000907fddf252ad1be2c89b69c2b068fc378daa952ba7f163c4a11628f55a4df523b3ef908290a45050565b60606124558484600085612fec565b60008181526001830160205260408120541515610fa5565b6000818152600183016020526040812054612fc757508154600181810184556000848152602080822090930184905584548482528286019093526040902091909155610fa8565b506000610fa8565b600082815260028401602052604081208290556124558484612d03565b60608247101561304d5760405162461bcd60e51b815260206004820152602660248201527f416464726573733a20696e73756666696369656e742062616c616e636520666f6044820152651c8818d85b1b60d21b6064820152608401610984565b843b61309b5760405162461bcd60e51b815260206004820152601d60248201527f416464726573733a2063616c6c20746f206e6f6e2d636f6e74726163740000006044820152606401610984565b600080866001600160a01b031685876040516130b791906139b0565b60006040518083038185875af1925050503d80600081146130f4576040519150601f19603f3d011682016040523d82523d6000602084013e6130f9565b606091505b5091509150613109828286613114565b979650505050505050565b60608315613123575081612458565b8251156131335782518084602001fd5b8160405162461bcd60e51b8152600401610984919061320f565b6001600160e01b03198116811461155057600080fd5b60006020828403121561317557600080fd5b81356124588161314d565b80356001600160a01b038116811461319757600080fd5b919050565b6000602082840312156131ae57600080fd5b610fa582613180565b60005b838110156131d25781810151838201526020016131ba565b83811115611ab65750506000910152565b600081518084526131fb8160208601602086016131b7565b601f01601f19169290920160200192915050565b602081526000610fa560208301846131e3565b60006020828403121561323457600080fd5b5035919050565b6000806040838503121561324e57600080fd5b61325783613180565b946020939093013593505050565b60008060006060848603121561327a57600080fd5b61328384613180565b925061329160208501613180565b9150604084013590509250925092565b6020808252825182820181905260009190848201906040850190845b818110156132d9578351835292840192918401916001016132bd565b50909695505050505050565b6000602082840312156132f757600080fd5b813563ffffffff8116811461245857600080fd5b6000806040838503121561331e57600080fd5b50508035926020909101359150565b801515811461155057600080fd5b6000806040838503121561334e57600080fd5b61335783613180565b915060208301356133678161332d565b809150509250929050565b80356007811061319757600080fd5b803560ff8116811461319757600080fd5b600080604083850312156133a557600080fd5b6133ae83613372565b91506133bc60208401613381565b90509250929050565b6000602082840312156133d757600080fd5b610fa582613381565b6000806000606084860312156133f557600080fd5b6133fe84613180565b925061340c60208501613372565b9150604084013561341c8161332d565b809150509250925092565b6000806040838503121561343a57600080fd5b61325783613372565b634e487b7160e01b600052604160045260246000fd5b6000806000806080858703121561346f57600080fd5b61347885613180565b935061348660208601613180565b925060408501359150606085013567ffffffffffffffff808211156134aa57600080fd5b818701915087601f8301126134be57600080fd5b8135818111156134d0576134d0613443565b604051601f8201601f19908116603f011681019083821181831017156134f8576134f8613443565b816040528281528a602084870101111561351157600080fd5b82602086016020830137600060208483010152809550505050505092959194509250565b634e487b7160e01b600052602160045260246000fd5b81516001600160a01b031681526020808301519082015260408083015160ff1690820152606082015160a08201906007811061359757634e487b7160e01b600052602160045260246000fd5b8060608401525067ffffffffffffffff608084015116608083015292915050565b600080604083850312156135cb57600080fd5b61335783613372565b600080604083850312156135e757600080fd5b6135f083613180565b91506133bc60208401613180565b6020808252818101527f4f776e61626c653a2063616c6c6572206973206e6f7420746865206f776e6572604082015260600190565b600181811c9082168061364757607f821691505b6020821081141561366857634e487b7160e01b600052602260045260246000fd5b50919050565b60006020828403121561368057600080fd5b5051919050565b634e487b7160e01b600052603260045260246000fd5b634e487b7160e01b600052601160045260246000fd5b60006000198214156136c7576136c761369d565b5060010190565b6000602082840312156136e057600080fd5b81516124588161332d565b6000828210156136fd576136fd61369d565b500390565b60208082526031908201527f4552433732313a207472616e736665722063616c6c6572206973206e6f74206f6040820152701ddb995c881b9bdc88185c1c1c9bdd9959607a1b606082015260800190565b6020808252600890820152671cdbdb19081bdd5d60c21b604082015260600190565b600063ffffffff8083168181141561378f5761378f61369d565b6001019392505050565b600060ff821660ff84168060ff038211156137b6576137b661369d565b019392505050565b600081516137d08185602086016131b7565b9290920192915050565b600080845481600182811c9150808316806137f657607f831692505b602080841082141561381657634e487b7160e01b86526022600452602486fd5b81801561382a576001811461383b57613868565b60ff19861689528489019650613868565b60008b81526020902060005b868110156138605781548b820152908501908301613847565b505084890196505b50505050505061387881856137be565b95945050505050565b60208082526032908201527f4552433732313a207472616e7366657220746f206e6f6e20455243373231526560408201527131b2b4bb32b91034b6b83632b6b2b73a32b960711b606082015260800190565b634e487b7160e01b600052601260045260246000fd5b6000826138f8576138f86138d3565b500490565b60008261390c5761390c6138d3565b500690565b600082198211156139245761392461369d565b500190565b6000816139385761393861369d565b506000190190565b6001600160a01b0385811682528416602082015260408101839052608060608201819052600090613973908301846131e3565b9695505050505050565b60006020828403121561398f57600080fd5b81516124588161314d565b634e487b7160e01b600052603160045260246000fd5b600082516139c28184602087016131b7565b919091019291505056fe4552433732313a207472616e7366657220746f206e6f6e20455243373231526563656976657220696d706c656d656e7465724552433732313a206f776e657220717565727920666f72206e6f6e6578697374656e7420746f6b656ea2646970667358221220e60a15b45dd628d27d21af0fd9d0696cd63fa707c3d6256d5a85551279d0093564736f6c634300080b00334f776e61626c653a2063616c6c6572206973206e6f7420746865206f776e6572",
  "immutableReferences": {},
  "source": "// SPDX-License-Identifier: MIT\r\npragma solidity ^0.8.2;\r\n\r\nimport \"./IBEP20.sol\";\r\nimport \"./IMarketplace.sol\";\r\nimport \"./Ownable.sol\";\r\nimport \"./ERC721.sol\";\r\nimport \"./ERC721Pausable.sol\";\r\nimport \"./IRobotCore.sol\";\r\nimport \"./ReentrancyGuard.sol\";\r\n\r\ncontract RobotPackageGen1 is Ownable, ERC721Pausable, ReentrancyGuard {\r\n    struct Package {\r\n        address owner;\r\n        uint256 packageId; // id of the package\r\n        uint8 robotQuantity; // quantity of robots on this package\r\n        PackageType packageType; //package type\r\n        uint64 birthTime; // The timestamp from the block when this package came into existence.\r\n    }\r\n\r\n    enum PackageType {\r\n        Default,\r\n        First,\r\n        Second,\r\n        Third,\r\n        Fourth,\r\n        Fifth,\r\n        Sixth\r\n    }\r\n\r\n    /*** STORAGE ***/\r\n    /// @dev An array containing the package struct for all packages in existence. The ID\r\n    ///  of each package is actually an index into this array.\r\n    Package[] packages;\r\n\r\n    event PackageCreatedGen1(\r\n        address to,\r\n        uint256 packId,\r\n        uint8 packageType,\r\n        uint256 date,\r\n        bool isPresale\r\n    );\r\n\r\n    event UnpackedGen1(\r\n        address owner,\r\n        uint256 packId,\r\n        uint8 packageType,\r\n        uint256 date\r\n    );\r\n\r\n    /* PACKAGE VARIABLES */\r\n    uint256 private nextPackageTokenId = 1;\r\n\r\n    mapping(address => uint8) walletPackages;\r\n    mapping(PackageType => uint8) private _packageTypeRobots;\r\n    mapping(PackageType => uint256) private _packageTypePrice;\r\n    mapping(address => bool) private banBlackList;\r\n\r\n    uint256 private priceFirstPackage = 0.2 * 10**18;\r\n    uint256 private priceSecondPackage = 0.5 * 10**18;\r\n    uint256 private priceThirdPackage = 0.9 * 10**18;\r\n    uint256 private openPackagePrice = 5 * 10**18;\r\n    uint8 private totalPackagesOwner = 5;\r\n\r\n    uint32 firstPackageCount;\r\n    uint32 secondPackageCount;\r\n    uint32 thirdPackageCount;\r\n    uint32 firstPackageLimit = 600;\r\n    uint32 secondPackageLimit = 400;\r\n    uint32 thirdPackageLimit = 200;\r\n\r\n    address public _mekaAddress;\r\n    address public _robotCoreAddress;\r\n    bool public canUnpack;\r\n    bool public isPackageAvailable;\r\n\r\n    constructor() ERC721(\"Mekabot Pkg\", \"MekabotPkg\") {\r\n        //Package Configs\r\n        canUnpack = false;\r\n        isPackageAvailable = false;\r\n\r\n        setPackageTypePrice(PackageType.Fourth, priceFirstPackage);\r\n        setPackageTypePrice(PackageType.Fifth, priceSecondPackage);\r\n        setPackageTypePrice(PackageType.Sixth, priceThirdPackage);\r\n\r\n        setPackageTypeRobots(PackageType.Fourth, 1);\r\n        setPackageTypeRobots(PackageType.Fifth, 2);\r\n        setPackageTypeRobots(PackageType.Sixth, 3);\r\n    }\r\n\r\n    function isBlacklisted(address addr) external view returns (bool) {\r\n        return banBlackList[addr];\r\n    }\r\n\r\n    function setBlackList(address wallet, bool isBanned) external onlyOwner {\r\n        banBlackList[wallet] = isBanned;\r\n    }\r\n\r\n    function setPackageLimit(uint8 limit) external onlyOwner {\r\n        totalPackagesOwner = limit;\r\n    }\r\n\r\n    function setTokenAddress(address _addr) external onlyOwner {\r\n        _mekaAddress = _addr;\r\n    }\r\n\r\n    function setRobotAddress(address robotAddress) external onlyOwner {\r\n        _robotCoreAddress = robotAddress;\r\n    }\r\n\r\n    function setFirstPackageLimit(uint32 quantity) external onlyOwner {\r\n        firstPackageLimit = quantity;\r\n    }\r\n\r\n    function setSecondPackageLimit(uint32 quantity) external onlyOwner {\r\n        secondPackageLimit = quantity;\r\n    }\r\n\r\n    function setThirdPackageLimit(uint32 quantity) external onlyOwner {\r\n        thirdPackageLimit = quantity;\r\n    }\r\n\r\n    function setPackageTypePrice(PackageType _packageType, uint256 amount)\r\n        public\r\n        onlyOwner\r\n    {\r\n        _packageTypePrice[_packageType] = amount;\r\n    }\r\n\r\n    function setPackageTypeRobots(PackageType _packageType, uint8 quantity)\r\n        public\r\n        onlyOwner\r\n    {\r\n        _packageTypeRobots[_packageType] = quantity;\r\n    }\r\n\r\n    function updateCanUnpack() external onlyOwner {\r\n        canUnpack = !canUnpack;\r\n    }\r\n\r\n    function updatePackageAvailable() external onlyOwner {\r\n        isPackageAvailable = !isPackageAvailable;\r\n    }\r\n\r\n    modifier canOpen() {\r\n        require(canUnpack, \"can not open\");\r\n        _;\r\n    }\r\n\r\n    modifier packageAvailable() {\r\n        require(isPackageAvailable, \"package unavailable\");\r\n        _;\r\n    }\r\n\r\n    function withdrawBalance() external onlyOwner {\r\n        IBEP20(_mekaAddress).transfer(owner(), getBalance());\r\n    }\r\n\r\n    function withdrawBnb() external onlyOwner {\r\n        uint256 amount = address(this).balance;\r\n\r\n        (bool success, ) = payable(owner()).call{value: amount}(\"\");\r\n        require(success, \"Failed to send Ether\");\r\n    }\r\n\r\n    function getBalance() public view returns (uint256) {\r\n        return IBEP20(_mekaAddress).balanceOf(address(this));\r\n    }\r\n\r\n    function getBnbBalance() public view returns (uint256) {\r\n        return address(this).balance;\r\n    }\r\n\r\n    /* ROBOT PACKAGE */\r\n    function _mintPackage(\r\n        address _to,\r\n        uint256 _tokenId,\r\n        PackageType _packageType,\r\n        bool isPresale\r\n    ) private {\r\n        Package memory _package = Package({\r\n            owner: _to,\r\n            packageType: _packageType,\r\n            packageId: _tokenId,\r\n            robotQuantity: _packageTypeRobots[_packageType],\r\n            birthTime: uint64(block.timestamp)\r\n        });\r\n\r\n        _safeMint(_to, _tokenId, \"\");\r\n        packages.push(_package);\r\n\r\n        emit PackageCreatedGen1(\r\n            _to,\r\n            _package.packageId,\r\n            uint8(_package.packageType),\r\n            block.timestamp,\r\n            isPresale\r\n        );\r\n    }\r\n\r\n    function createPackage(PackageType _packageType, bool _isPresale)\r\n        external\r\n        payable\r\n        nonReentrant\r\n        packageAvailable\r\n        whenNotPaused\r\n    {\r\n        require(\r\n            walletPackages[msg.sender] < totalPackagesOwner,\r\n            \"wallet-package-limit\"\r\n        );\r\n        require(\r\n            _packageType >= PackageType.Fourth,\r\n            \"for gen 0 use other contract\"\r\n        );\r\n        require(!isContract(msg.sender), \"contract not allowed\");\r\n        require(_packageType != PackageType.Default, \"invalid package\");\r\n        require(msg.value == _packageTypePrice[_packageType], \"INVALID AMOUNT\");\r\n\r\n        if (_packageType == PackageType.Fourth) {\r\n            require(firstPackageCount < firstPackageLimit, \"sold out\");\r\n            firstPackageCount++;\r\n        } else if (_packageType == PackageType.Fifth) {\r\n            require(secondPackageCount < secondPackageLimit, \"sold out\");\r\n            secondPackageCount++;\r\n        } else {\r\n            require(thirdPackageCount < thirdPackageLimit, \"sold out\");\r\n            thirdPackageCount++;\r\n        }\r\n\r\n        _mintPackage(msg.sender, nextPackageTokenId, _packageType, _isPresale);\r\n        walletPackages[msg.sender] = walletPackages[msg.sender] + 1;\r\n        nextPackageTokenId++;\r\n    }\r\n\r\n    function createPackageExtra(\r\n        address _to,\r\n        PackageType _packageType,\r\n        bool _isPresale\r\n    ) external onlyOwner {\r\n        require(_packageType != PackageType.Default, \"invalid package\");\r\n        require(_to != address(0), \"ERC721: mint to the zero address\");\r\n        require(\r\n            _packageType >= PackageType.Fourth,\r\n            \"for gen 0 use other contract\"\r\n        );\r\n        _mintPackage(_to, nextPackageTokenId, _packageType, _isPresale);\r\n        nextPackageTokenId++;\r\n    }\r\n\r\n    function openPackage(uint256 _amount, uint256 _tokenId)\r\n        external\r\n        canOpen\r\n        whenNotPaused\r\n    {\r\n        require(!isContract(msg.sender), \"can not be a contract\");\r\n        require(_amount == openPackagePrice, \"INVALID AMOUNT\");\r\n        require(ownerOf(_tokenId) == msg.sender, \"not the owner\");\r\n        require(\r\n            IBEP20(_mekaAddress).transferFrom(\r\n                msg.sender,\r\n                address(this),\r\n                _amount\r\n            )\r\n        );\r\n\r\n        Package memory package = packages[_tokenId - 1];\r\n\r\n        IRobotCore(_robotCoreAddress).createRobotFromBundle(\r\n            msg.sender,\r\n            uint8(package.packageType),\r\n            package.robotQuantity\r\n        );\r\n\r\n        _burn(_tokenId);\r\n\r\n        emit UnpackedGen1(\r\n            msg.sender,\r\n            _tokenId,\r\n            uint8(package.packageType),\r\n            block.timestamp\r\n        );\r\n    }\r\n\r\n    /**\r\n     * @dev Identify an address is user address or contract address\r\n     */\r\n    function isContract(address _address) private view returns (bool) {\r\n        uint32 size;\r\n        assembly {\r\n            size := extcodesize(_address)\r\n        }\r\n        return (size > 0);\r\n    }\r\n\r\n    function getPackagesCount()\r\n        external\r\n        view\r\n        returns (\r\n            uint32 _firstPackageCount,\r\n            uint32 _secondPackageCount,\r\n            uint32 _thirdPackageCount\r\n        )\r\n    {\r\n        _firstPackageCount = firstPackageCount;\r\n        _secondPackageCount = secondPackageCount;\r\n        _thirdPackageCount = thirdPackageCount;\r\n    }\r\n\r\n    function getPackage(uint256 _id)\r\n        public\r\n        view\r\n        returns (Package memory package)\r\n    {\r\n        package = packages[_id - 1];\r\n    }\r\n\r\n    function transferFrom(\r\n        address _from,\r\n        address _receiver,\r\n        uint256 _tokenId\r\n    ) public override {\r\n        require(!isContract(_receiver), \"can not be contract\");\r\n        require(!banBlackList[_from], \"address-blacklisted\");\r\n        require(!banBlackList[_receiver], \"address-blacklisted\");\r\n\r\n        super.transferFrom(_from, _receiver, _tokenId);\r\n    }\r\n}\r\n",
  "sourcePath": "E:\\MekaMiners\\contracts\\RobotPackageGen1.sol",
  "compiler": {
    "name": "solc",
    "version": "0.8.11+commit.d7f03943.Emscripten.clang"
  },
  "schemaVersion": "3.4.3",
  "updatedAt": "2022-01-14T17:52:52.051Z",
  "networkType": "ethereum",
  "devdoc": {
    "kind": "dev",
    "methods": {
      "_pause()": {
        "details": "called by the owner to pause, triggers stopped state"
      },
      "_unpause()": {
        "details": "called by the owner to unpause, returns to normal state"
      },
      "approve(address,uint256)": {
        "details": "See {IERC721-approve}."
      },
      "balanceOf(address)": {
        "details": "See {IERC721-balanceOf}."
      },
      "baseURI()": {
        "details": "Returns the base URI set via {_setBaseURI}. This will be automatically added as a prefix in {tokenURI} to each token's URI, or to the token ID if no specific URI is set for that token ID."
      },
      "getApproved(uint256)": {
        "details": "See {IERC721-getApproved}."
      },
      "isApprovedForAll(address,address)": {
        "details": "See {IERC721-isApprovedForAll}."
      },
      "isOwner()": {
        "details": "Returns true if the caller is the current owner."
      },
      "name()": {
        "details": "See {IERC721Metadata-name}."
      },
      "owner()": {
        "details": "Returns the address of the current owner."
      },
      "ownerOf(uint256)": {
        "details": "See {IERC721-ownerOf}."
      },
      "renounceOwnership()": {
        "details": "Leaves the contract without owner. It will not be possible to call `onlyOwner` functions anymore. Can only be called by the current owner. NOTE: Renouncing ownership will leave the contract without an owner, thereby removing any functionality that is only available to the owner."
      },
      "safeTransferFrom(address,address,uint256)": {
        "details": "See {IERC721-safeTransferFrom}."
      },
      "safeTransferFrom(address,address,uint256,bytes)": {
        "details": "See {IERC721-safeTransferFrom}."
      },
      "setApprovalForAll(address,bool)": {
        "details": "See {IERC721-setApprovalForAll}."
      },
      "supportsInterface(bytes4)": {
        "details": "See {IERC165-supportsInterface}. Time complexity O(1), guaranteed to always use less than 30 000 gas."
      },
      "symbol()": {
        "details": "See {IERC721Metadata-symbol}."
      },
      "tokenByIndex(uint256)": {
        "details": "See {IERC721Enumerable-tokenByIndex}."
      },
      "tokenOfOwner(address)": {
        "details": "See {IERC721Enumerable-tokenOfOwner}."
      },
      "tokenOfOwnerByIndex(address,uint256)": {
        "details": "See {IERC721Enumerable-tokenOfOwnerByIndex}."
      },
      "tokenURI(uint256)": {
        "details": "See {IERC721Metadata-tokenURI}."
      },
      "totalSupply()": {
        "details": "See {IERC721Enumerable-totalSupply}."
      },
      "transferOwnership(address)": {
        "details": "Transfers ownership of the contract to a new account (`newOwner`). Can only be called by the current owner."
      }
    },
    "stateVariables": {
      "packages": {
        "details": "An array containing the package struct for all packages in existence. The ID  of each package is actually an index into this array."
      }
    },
    "version": 1
  },
  "userdoc": {
    "kind": "user",
    "methods": {},
    "version": 1
  }
}