{
  "contractName": "RobotCore",
  "abi": [
    {
      "inputs": [
        {
          "internalType": "address",
          "name": "_mekaToken",
          "type": "address"
        }
      ],
      "stateMutability": "nonpayable",
      "type": "constructor"
    },
    {
      "anonymous": false,
      "inputs": [
        {
          "indexed": true,
          "internalType": "address",
          "name": "owner",
          "type": "address"
        },
        {
          "indexed": true,
          "internalType": "address",
          "name": "approved",
          "type": "address"
        },
        {
          "indexed": true,
          "internalType": "uint256",
          "name": "tokenId",
          "type": "uint256"
        }
      ],
      "name": "Approval",
      "type": "event"
    },
    {
      "anonymous": false,
      "inputs": [
        {
          "indexed": true,
          "internalType": "address",
          "name": "owner",
          "type": "address"
        },
        {
          "indexed": true,
          "internalType": "address",
          "name": "operator",
          "type": "address"
        },
        {
          "indexed": false,
          "internalType": "bool",
          "name": "approved",
          "type": "bool"
        }
      ],
      "name": "ApprovalForAll",
      "type": "event"
    },
    {
      "anonymous": false,
      "inputs": [
        {
          "indexed": false,
          "internalType": "address",
          "name": "owner",
          "type": "address"
        },
        {
          "indexed": false,
          "internalType": "uint256",
          "name": "tokenId",
          "type": "uint256"
        },
        {
          "indexed": false,
          "internalType": "uint256",
          "name": "date",
          "type": "uint256"
        }
      ],
      "name": "Birth",
      "type": "event"
    },
    {
      "anonymous": false,
      "inputs": [
        {
          "indexed": false,
          "internalType": "address",
          "name": "from",
          "type": "address"
        },
        {
          "indexed": false,
          "internalType": "uint256[]",
          "name": "robotIds",
          "type": "uint256[]"
        },
        {
          "indexed": false,
          "internalType": "uint256",
          "name": "date",
          "type": "uint256"
        }
      ],
      "name": "MintedRobotFromBundle",
      "type": "event"
    },
    {
      "anonymous": false,
      "inputs": [
        {
          "indexed": true,
          "internalType": "address",
          "name": "previousOwner",
          "type": "address"
        },
        {
          "indexed": true,
          "internalType": "address",
          "name": "newOwner",
          "type": "address"
        }
      ],
      "name": "OwnershipTransferred",
      "type": "event"
    },
    {
      "anonymous": false,
      "inputs": [],
      "name": "Pause",
      "type": "event"
    },
    {
      "anonymous": false,
      "inputs": [
        {
          "indexed": true,
          "internalType": "address",
          "name": "from",
          "type": "address"
        },
        {
          "indexed": true,
          "internalType": "address",
          "name": "to",
          "type": "address"
        },
        {
          "indexed": true,
          "internalType": "uint256",
          "name": "tokenId",
          "type": "uint256"
        }
      ],
      "name": "Transfer",
      "type": "event"
    },
    {
      "anonymous": false,
      "inputs": [],
      "name": "Unpause",
      "type": "event"
    },
    {
      "inputs": [],
      "name": "_marketplaceAddr",
      "outputs": [
        {
          "internalType": "address",
          "name": "",
          "type": "address"
        }
      ],
      "stateMutability": "view",
      "type": "function",
      "constant": true
    },
    {
      "inputs": [],
      "name": "_mekaAddress",
      "outputs": [
        {
          "internalType": "address",
          "name": "",
          "type": "address"
        }
      ],
      "stateMutability": "view",
      "type": "function",
      "constant": true
    },
    {
      "inputs": [],
      "name": "_mekaDeployerAddress",
      "outputs": [
        {
          "internalType": "address",
          "name": "",
          "type": "address"
        }
      ],
      "stateMutability": "view",
      "type": "function",
      "constant": true
    },
    {
      "inputs": [],
      "name": "_mekaDeployerEnabled",
      "outputs": [
        {
          "internalType": "bool",
          "name": "",
          "type": "bool"
        }
      ],
      "stateMutability": "view",
      "type": "function",
      "constant": true
    },
    {
      "inputs": [],
      "name": "_pause",
      "outputs": [
        {
          "internalType": "bool",
          "name": "",
          "type": "bool"
        }
      ],
      "stateMutability": "nonpayable",
      "type": "function"
    },
    {
      "inputs": [],
      "name": "_robotPackageAddress",
      "outputs": [
        {
          "internalType": "address",
          "name": "",
          "type": "address"
        }
      ],
      "stateMutability": "view",
      "type": "function",
      "constant": true
    },
    {
      "inputs": [],
      "name": "_unpause",
      "outputs": [
        {
          "internalType": "bool",
          "name": "",
          "type": "bool"
        }
      ],
      "stateMutability": "nonpayable",
      "type": "function"
    },
    {
      "inputs": [
        {
          "internalType": "address",
          "name": "to",
          "type": "address"
        },
        {
          "internalType": "uint256",
          "name": "tokenId",
          "type": "uint256"
        }
      ],
      "name": "approve",
      "outputs": [],
      "stateMutability": "nonpayable",
      "type": "function"
    },
    {
      "inputs": [
        {
          "internalType": "address",
          "name": "owner",
          "type": "address"
        }
      ],
      "name": "balanceOf",
      "outputs": [
        {
          "internalType": "uint256",
          "name": "",
          "type": "uint256"
        }
      ],
      "stateMutability": "view",
      "type": "function",
      "constant": true
    },
    {
      "inputs": [],
      "name": "baseURI",
      "outputs": [
        {
          "internalType": "string",
          "name": "",
          "type": "string"
        }
      ],
      "stateMutability": "view",
      "type": "function",
      "constant": true
    },
    {
      "inputs": [
        {
          "internalType": "uint256",
          "name": "tokenId",
          "type": "uint256"
        }
      ],
      "name": "getApproved",
      "outputs": [
        {
          "internalType": "address",
          "name": "",
          "type": "address"
        }
      ],
      "stateMutability": "view",
      "type": "function",
      "constant": true
    },
    {
      "inputs": [
        {
          "internalType": "address",
          "name": "owner",
          "type": "address"
        },
        {
          "internalType": "address",
          "name": "operator",
          "type": "address"
        }
      ],
      "name": "isApprovedForAll",
      "outputs": [
        {
          "internalType": "bool",
          "name": "",
          "type": "bool"
        }
      ],
      "stateMutability": "view",
      "type": "function",
      "constant": true
    },
    {
      "inputs": [],
      "name": "isBurn",
      "outputs": [
        {
          "internalType": "bool",
          "name": "",
          "type": "bool"
        }
      ],
      "stateMutability": "view",
      "type": "function",
      "constant": true
    },
    {
      "inputs": [],
      "name": "isOwner",
      "outputs": [
        {
          "internalType": "bool",
          "name": "",
          "type": "bool"
        }
      ],
      "stateMutability": "view",
      "type": "function",
      "constant": true
    },
    {
      "inputs": [],
      "name": "isRobotFactoryOpen",
      "outputs": [
        {
          "internalType": "bool",
          "name": "",
          "type": "bool"
        }
      ],
      "stateMutability": "view",
      "type": "function",
      "constant": true
    },
    {
      "inputs": [],
      "name": "name",
      "outputs": [
        {
          "internalType": "string",
          "name": "",
          "type": "string"
        }
      ],
      "stateMutability": "view",
      "type": "function",
      "constant": true
    },
    {
      "inputs": [],
      "name": "owner",
      "outputs": [
        {
          "internalType": "address",
          "name": "",
          "type": "address"
        }
      ],
      "stateMutability": "view",
      "type": "function",
      "constant": true
    },
    {
      "inputs": [
        {
          "internalType": "uint256",
          "name": "tokenId",
          "type": "uint256"
        }
      ],
      "name": "ownerOf",
      "outputs": [
        {
          "internalType": "address",
          "name": "",
          "type": "address"
        }
      ],
      "stateMutability": "view",
      "type": "function",
      "constant": true
    },
    {
      "inputs": [],
      "name": "paused",
      "outputs": [
        {
          "internalType": "bool",
          "name": "",
          "type": "bool"
        }
      ],
      "stateMutability": "view",
      "type": "function",
      "constant": true
    },
    {
      "inputs": [],
      "name": "renounceOwnership",
      "outputs": [],
      "stateMutability": "nonpayable",
      "type": "function"
    },
    {
      "inputs": [
        {
          "internalType": "address",
          "name": "from",
          "type": "address"
        },
        {
          "internalType": "address",
          "name": "to",
          "type": "address"
        },
        {
          "internalType": "uint256",
          "name": "tokenId",
          "type": "uint256"
        }
      ],
      "name": "safeTransferFrom",
      "outputs": [],
      "stateMutability": "nonpayable",
      "type": "function"
    },
    {
      "inputs": [
        {
          "internalType": "address",
          "name": "from",
          "type": "address"
        },
        {
          "internalType": "address",
          "name": "to",
          "type": "address"
        },
        {
          "internalType": "uint256",
          "name": "tokenId",
          "type": "uint256"
        },
        {
          "internalType": "bytes",
          "name": "_data",
          "type": "bytes"
        }
      ],
      "name": "safeTransferFrom",
      "outputs": [],
      "stateMutability": "nonpayable",
      "type": "function"
    },
    {
      "inputs": [
        {
          "internalType": "address",
          "name": "operator",
          "type": "address"
        },
        {
          "internalType": "bool",
          "name": "approved",
          "type": "bool"
        }
      ],
      "name": "setApprovalForAll",
      "outputs": [],
      "stateMutability": "nonpayable",
      "type": "function"
    },
    {
      "inputs": [
        {
          "internalType": "bytes4",
          "name": "interfaceId",
          "type": "bytes4"
        }
      ],
      "name": "supportsInterface",
      "outputs": [
        {
          "internalType": "bool",
          "name": "",
          "type": "bool"
        }
      ],
      "stateMutability": "view",
      "type": "function",
      "constant": true
    },
    {
      "inputs": [],
      "name": "symbol",
      "outputs": [
        {
          "internalType": "string",
          "name": "",
          "type": "string"
        }
      ],
      "stateMutability": "view",
      "type": "function",
      "constant": true
    },
    {
      "inputs": [
        {
          "internalType": "uint256",
          "name": "index",
          "type": "uint256"
        }
      ],
      "name": "tokenByIndex",
      "outputs": [
        {
          "internalType": "uint256",
          "name": "",
          "type": "uint256"
        }
      ],
      "stateMutability": "view",
      "type": "function",
      "constant": true
    },
    {
      "inputs": [
        {
          "internalType": "address",
          "name": "owner",
          "type": "address"
        }
      ],
      "name": "tokenOfOwner",
      "outputs": [
        {
          "internalType": "uint256[]",
          "name": "",
          "type": "uint256[]"
        }
      ],
      "stateMutability": "view",
      "type": "function",
      "constant": true
    },
    {
      "inputs": [
        {
          "internalType": "address",
          "name": "owner",
          "type": "address"
        },
        {
          "internalType": "uint256",
          "name": "index",
          "type": "uint256"
        }
      ],
      "name": "tokenOfOwnerByIndex",
      "outputs": [
        {
          "internalType": "uint256",
          "name": "",
          "type": "uint256"
        }
      ],
      "stateMutability": "view",
      "type": "function",
      "constant": true
    },
    {
      "inputs": [
        {
          "internalType": "uint256",
          "name": "tokenId",
          "type": "uint256"
        }
      ],
      "name": "tokenURI",
      "outputs": [
        {
          "internalType": "string",
          "name": "",
          "type": "string"
        }
      ],
      "stateMutability": "view",
      "type": "function",
      "constant": true
    },
    {
      "inputs": [],
      "name": "totalSupply",
      "outputs": [
        {
          "internalType": "uint256",
          "name": "",
          "type": "uint256"
        }
      ],
      "stateMutability": "view",
      "type": "function",
      "constant": true
    },
    {
      "inputs": [
        {
          "internalType": "address",
          "name": "newOwner",
          "type": "address"
        }
      ],
      "name": "transferOwnership",
      "outputs": [],
      "stateMutability": "nonpayable",
      "type": "function"
    },
    {
      "inputs": [
        {
          "internalType": "address",
          "name": "addr",
          "type": "address"
        }
      ],
      "name": "isBlacklisted",
      "outputs": [
        {
          "internalType": "bool",
          "name": "",
          "type": "bool"
        }
      ],
      "stateMutability": "view",
      "type": "function",
      "constant": true
    },
    {
      "inputs": [
        {
          "internalType": "address",
          "name": "addr",
          "type": "address"
        }
      ],
      "name": "addBanList",
      "outputs": [],
      "stateMutability": "nonpayable",
      "type": "function"
    },
    {
      "inputs": [
        {
          "internalType": "address",
          "name": "addr",
          "type": "address"
        }
      ],
      "name": "removeBanList",
      "outputs": [],
      "stateMutability": "nonpayable",
      "type": "function"
    },
    {
      "inputs": [
        {
          "internalType": "uint256",
          "name": "fee",
          "type": "uint256"
        }
      ],
      "name": "setBnbFee",
      "outputs": [],
      "stateMutability": "nonpayable",
      "type": "function"
    },
    {
      "inputs": [
        {
          "internalType": "enum RobotCore.Rarity",
          "name": "rarity",
          "type": "uint8"
        },
        {
          "internalType": "uint8",
          "name": "percentage",
          "type": "uint8"
        }
      ],
      "name": "setBaseRarity",
      "outputs": [],
      "stateMutability": "nonpayable",
      "type": "function"
    },
    {
      "inputs": [
        {
          "internalType": "enum RobotCore.Rarity",
          "name": "rarity",
          "type": "uint8"
        },
        {
          "internalType": "uint8",
          "name": "percentage",
          "type": "uint8"
        }
      ],
      "name": "setBox2Rarity",
      "outputs": [],
      "stateMutability": "nonpayable",
      "type": "function"
    },
    {
      "inputs": [
        {
          "internalType": "enum RobotCore.Rarity",
          "name": "rarity",
          "type": "uint8"
        },
        {
          "internalType": "uint8",
          "name": "percentage",
          "type": "uint8"
        }
      ],
      "name": "setBox3Rarity",
      "outputs": [],
      "stateMutability": "nonpayable",
      "type": "function"
    },
    {
      "inputs": [
        {
          "internalType": "address",
          "name": "_address",
          "type": "address"
        }
      ],
      "name": "setMarketplaceAddress",
      "outputs": [],
      "stateMutability": "nonpayable",
      "type": "function"
    },
    {
      "inputs": [
        {
          "internalType": "address",
          "name": "_address",
          "type": "address"
        }
      ],
      "name": "setRobotPackageAddress",
      "outputs": [],
      "stateMutability": "nonpayable",
      "type": "function"
    },
    {
      "inputs": [
        {
          "internalType": "address",
          "name": "_mekaDeployAddr",
          "type": "address"
        }
      ],
      "name": "setMekaDeployerAddress",
      "outputs": [],
      "stateMutability": "nonpayable",
      "type": "function"
    },
    {
      "inputs": [],
      "name": "setMekaDeployerEnabled",
      "outputs": [],
      "stateMutability": "nonpayable",
      "type": "function"
    },
    {
      "inputs": [
        {
          "internalType": "uint256",
          "name": "_price",
          "type": "uint256"
        }
      ],
      "name": "setRobotPrice",
      "outputs": [],
      "stateMutability": "nonpayable",
      "type": "function"
    },
    {
      "inputs": [
        {
          "internalType": "address",
          "name": "_addr",
          "type": "address"
        }
      ],
      "name": "setTokenAddress",
      "outputs": [],
      "stateMutability": "nonpayable",
      "type": "function"
    },
    {
      "inputs": [
        {
          "internalType": "uint256",
          "name": "tokenId",
          "type": "uint256"
        },
        {
          "internalType": "string",
          "name": "_tokenURI",
          "type": "string"
        }
      ],
      "name": "setTokenURI",
      "outputs": [],
      "stateMutability": "nonpayable",
      "type": "function"
    },
    {
      "inputs": [],
      "name": "updateIsBurn",
      "outputs": [],
      "stateMutability": "nonpayable",
      "type": "function"
    },
    {
      "inputs": [],
      "name": "updateRobotFactory",
      "outputs": [],
      "stateMutability": "nonpayable",
      "type": "function"
    },
    {
      "inputs": [],
      "name": "withdrawBalance",
      "outputs": [],
      "stateMutability": "nonpayable",
      "type": "function"
    },
    {
      "inputs": [],
      "name": "withdrawBnb",
      "outputs": [],
      "stateMutability": "nonpayable",
      "type": "function"
    },
    {
      "inputs": [
        {
          "internalType": "address",
          "name": "_owner",
          "type": "address"
        },
        {
          "internalType": "uint256",
          "name": "_robotId",
          "type": "uint256"
        },
        {
          "internalType": "uint256",
          "name": "_pieceId",
          "type": "uint256"
        },
        {
          "internalType": "uint8",
          "name": "_pieceType",
          "type": "uint8"
        },
        {
          "internalType": "uint256",
          "name": "_amount",
          "type": "uint256"
        }
      ],
      "name": "attachPiece",
      "outputs": [],
      "stateMutability": "nonpayable",
      "type": "function"
    },
    {
      "inputs": [
        {
          "internalType": "address",
          "name": "_owner",
          "type": "address"
        },
        {
          "internalType": "uint256",
          "name": "_amount",
          "type": "uint256"
        },
        {
          "internalType": "bool",
          "name": "_withOre",
          "type": "bool"
        },
        {
          "internalType": "string",
          "name": "tokenURI",
          "type": "string"
        }
      ],
      "name": "createRobot",
      "outputs": [],
      "stateMutability": "nonpayable",
      "type": "function"
    },
    {
      "inputs": [
        {
          "internalType": "uint256",
          "name": "_tokenId",
          "type": "uint256"
        },
        {
          "internalType": "uint256",
          "name": "_startingPrice",
          "type": "uint256"
        }
      ],
      "name": "createSale",
      "outputs": [],
      "stateMutability": "payable",
      "type": "function",
      "payable": true
    },
    {
      "inputs": [
        {
          "internalType": "uint256",
          "name": "_tokenId",
          "type": "uint256"
        }
      ],
      "name": "burnRobot",
      "outputs": [],
      "stateMutability": "nonpayable",
      "type": "function"
    },
    {
      "inputs": [
        {
          "internalType": "uint256",
          "name": "_id",
          "type": "uint256"
        }
      ],
      "name": "getRobot",
      "outputs": [
        {
          "components": [
            {
              "internalType": "uint256",
              "name": "robotId",
              "type": "uint256"
            },
            {
              "internalType": "enum RobotCore.Rarity",
              "name": "rarity",
              "type": "uint8"
            },
            {
              "internalType": "enum RobotCore.RobotType",
              "name": "robotType",
              "type": "uint8"
            },
            {
              "internalType": "uint256",
              "name": "head",
              "type": "uint256"
            },
            {
              "internalType": "uint256",
              "name": "larm",
              "type": "uint256"
            },
            {
              "internalType": "uint256",
              "name": "rarm",
              "type": "uint256"
            },
            {
              "internalType": "uint256",
              "name": "legs",
              "type": "uint256"
            },
            {
              "internalType": "uint256",
              "name": "chest",
              "type": "uint256"
            },
            {
              "internalType": "uint64",
              "name": "birthTime",
              "type": "uint64"
            }
          ],
          "internalType": "struct RobotCore.Robot",
          "name": "robot",
          "type": "tuple"
        }
      ],
      "stateMutability": "view",
      "type": "function",
      "constant": true
    },
    {
      "inputs": [],
      "name": "getBalance",
      "outputs": [
        {
          "internalType": "uint256",
          "name": "",
          "type": "uint256"
        }
      ],
      "stateMutability": "view",
      "type": "function",
      "constant": true
    },
    {
      "inputs": [],
      "name": "pause",
      "outputs": [],
      "stateMutability": "nonpayable",
      "type": "function"
    },
    {
      "inputs": [],
      "name": "unpause",
      "outputs": [],
      "stateMutability": "nonpayable",
      "type": "function"
    },
    {
      "inputs": [
        {
          "internalType": "address",
          "name": "_owner",
          "type": "address"
        },
        {
          "internalType": "uint8",
          "name": "packageType",
          "type": "uint8"
        },
        {
          "internalType": "uint8",
          "name": "robotQuantity",
          "type": "uint8"
        }
      ],
      "name": "createRobotFromBundle",
      "outputs": [],
      "stateMutability": "nonpayable",
      "type": "function"
    },
    {
      "inputs": [
        {
          "internalType": "address",
          "name": "from",
          "type": "address"
        },
        {
          "internalType": "address",
          "name": "to",
          "type": "address"
        },
        {
          "internalType": "uint256",
          "name": "tokenId",
          "type": "uint256"
        }
      ],
      "name": "transferFrom",
      "outputs": [],
      "stateMutability": "nonpayable",
      "type": "function"
    }
  ],
  "bytecode": "0x6080604052600b805460ff60a01b191690556611c37937e08000600e556001600f55680340aad21b3b7000006010556729a2241af62c00006012553480156200004757600080fd5b5060405162004e9e38038062004e9e8339810160408190526200006a9162000700565b60408051808201825260078082526613595ad8589bdd60ca1b602080840182905284518086019095529184529083015290620000ad6301ffc9a760e01b620005d6565b8151620000c29060079060208501906200065a565b508051620000d89060089060208401906200065a565b50620000eb6380ac58cd60e01b620005d6565b620000fd635b5e139f60e01b620005d6565b6200010f63780e9d6360e01b620005d6565b5050600b80546001600160a01b0319163390811790915560405181906000907f8be0079c531659141344cd1fd0a4f28419497f9722a3daafe3b4186f6b6457e0908290a3506001600c5560198054601b80546001600160a01b0319166001600160a01b03851617905561ffff60a01b191661010160a01b179055603160146000806005811115620001a457620001a462000732565b815260200190815260200160002060006101000a81548160ff021916908360ff16021790555060456014600060016005811115620001e657620001e662000732565b6005811115620001fa57620001fa62000732565b815260200190815260200160002060006101000a81548160ff021916908360ff160217905550605460146000600260058111156200023c576200023c62000732565b600581111562000250576200025062000732565b815260200190815260200160002060006101000a81548160ff021916908360ff160217905550605e601460006003600581111562000292576200029262000732565b6005811115620002a657620002a662000732565b815260200190815260200160002060006101000a81548160ff021916908360ff16021790555060626014600060046005811115620002e857620002e862000732565b6005811115620002fc57620002fc62000732565b815260200190815260200160002060006101000a81548160ff021916908360ff1602179055506063601460006005808111156200033d576200033d62000732565b600581111562000351576200035162000732565b815260200190815260200160002060006101000a81548160ff021916908360ff1602179055506045601560006002600581111562000393576200039362000732565b6005811115620003a757620003a762000732565b815260200190815260200160002060006101000a81548160ff021916908360ff16021790555060596015600060036005811115620003e957620003e962000732565b6005811115620003fd57620003fd62000732565b815260200190815260200160002060006101000a81548160ff021916908360ff160217905550606060156000600460058111156200043f576200043f62000732565b600581111562000453576200045362000732565b815260200190815260200160002060006101000a81548160ff021916908360ff16021790555060636015600060058081111562000494576200049462000732565b6005811115620004a857620004a862000732565b815260200190815260200160002060006101000a81548160ff021916908360ff16021790555060406016600060036005811115620004ea57620004ea62000732565b6005811115620004fe57620004fe62000732565b815260200190815260200160002060006101000a81548160ff021916908360ff160217905550605d601660006004600581111562000540576200054062000732565b600581111562000554576200055462000732565b815260200190815260200160002060006101000a81548160ff021916908360ff16021790555060636016600060058081111562000595576200059562000732565b6005811115620005a957620005a962000732565b815260200190815260200160002060006101000a81548160ff021916908360ff1602179055505062000785565b6001600160e01b03198082161415620006355760405162461bcd60e51b815260206004820152601c60248201527f4552433136353a20696e76616c696420696e7465726661636520696400000000604482015260640160405180910390fd5b6001600160e01b0319166000908152602081905260409020805460ff19166001179055565b828054620006689062000748565b90600052602060002090601f0160209004810192826200068c5760008555620006d7565b82601f10620006a757805160ff1916838001178555620006d7565b82800160010185558215620006d7579182015b82811115620006d7578251825591602001919060010190620006ba565b50620006e5929150620006e9565b5090565b5b80821115620006e55760008155600101620006ea565b6000602082840312156200071357600080fd5b81516001600160a01b03811681146200072b57600080fd5b9392505050565b634e487b7160e01b600052602160045260246000fd5b600181811c908216806200075d57607f821691505b602082108114156200077f57634e487b7160e01b600052602260045260246000fd5b50919050565b61470980620007956000396000f3fe60806040526004361061038c5760003560e01c806360c9f222116101dc578063a22cb46511610102578063c87b56dd116100a0578063ecc835861161006f578063ecc8358614610a73578063f2fde38b14610a93578063fc8234cb14610ab3578063fe575a8714610ac857600080fd5b8063c87b56dd146109c9578063c89e08f7146109e9578063e985e9c514610a0a578063ec317f8014610a5357600080fd5b8063b88d4fde116100dc578063b88d4fde14610954578063bbc1bd9014610974578063c090dfe314610994578063c569a794146109a957600080fd5b8063a22cb465146108ff578063b0bad4051461091f578063b47cc5561461093457600080fd5b80637de166b11161017a5780638da5cb5b116101495780638da5cb5b1461087f5780638f32d59b1461089d57806395d89b41146108bd57806395e26422146108d257600080fd5b80637de166b11461080a5780637f5a75de1461082a5780638456cb591461084a5780638a47446c1461085f57600080fd5b80636ce027d9116101b65780636ce027d91461079557806370a08231146107b5578063715018a6146107d5578063789d9a86146107ea57600080fd5b806360c9f222146107405780636352211e146107605780636c0360eb1461078057600080fd5b806323b872dd116102c15780633c8d14f61161025f5780634f6ccce71161022e5780634f6ccce7146106d75780635c975abb146106f75780635fd8c710146107185780636019061b1461072d57600080fd5b80633c8d14f6146106625780633f4ba83a1461068257806342842e0e1461069757806347049c84146106b757600080fd5b80632d067d4c1161029b5780632d067d4c146105ec5780632f745c591461060d578063320b2ad91461062d57806334175e1b1461064257600080fd5b806323b872dd1461057f57806326a4e8d21461059f578063294cdf0d146105bf57600080fd5b806312065fe01161032e5780631695a261116103085780631695a261146105145780631739e5da1461053457806318160ddd146105555780631da0603a1461056a57600080fd5b806312065fe0146104b157806313a131c7146104d4578063162094c4146104f457600080fd5b8063081812fc1161036a578063081812fc14610419578063095ea7b3146104515780630b93c519146104715780630d6516d91461049157600080fd5b806301ffc9a7146103915780630671ddfe146103e057806306fdde03146103f7575b600080fd5b34801561039d57600080fd5b506103cb6103ac366004613cfb565b6001600160e01b03191660009081526020819052604090205460ff1690565b60405190151581526020015b60405180910390f35b3480156103ec57600080fd5b506103f5610ae8565b005b34801561040357600080fd5b5061040c610b3c565b6040516103d79190613d70565b34801561042557600080fd5b50610439610434366004613d83565b610bce565b6040516001600160a01b0390911681526020016103d7565b34801561045d57600080fd5b506103f561046c366004613db3565b610c56565b34801561047d57600080fd5b506103f561048c366004613d83565b610d6c565b34801561049d57600080fd5b50601a54610439906001600160a01b031681565b3480156104bd57600080fd5b506104c6610e55565b6040519081526020016103d7565b3480156104e057600080fd5b506103f56104ef366004613dee565b610ec7565b34801561050057600080fd5b506103f561050f366004613ed2565b610f43565b34801561052057600080fd5b506103f561052f366004613f18565b610f7b565b34801561054057600080fd5b506019546103cb90600160a81b900460ff1681565b34801561056157600080fd5b506104c66114b1565b34801561057657600080fd5b506103f56114bd565b34801561058b57600080fd5b506103f561059a366004613f66565b611593565b3480156105ab57600080fd5b506103f56105ba366004613fa2565b61165c565b3480156105cb57600080fd5b506105df6105da366004613fa2565b6116a8565b6040516103d79190613ff8565b3480156105f857600080fd5b506019546103cb90600160a01b900460ff1681565b34801561061957600080fd5b506104c6610628366004613db3565b611793565b34801561063957600080fd5b506103cb6117be565b34801561064e57600080fd5b50601954610439906001600160a01b031681565b34801561066e57600080fd5b506103f561067d366004613fa2565b611844565b34801561068e57600080fd5b506103f561188f565b3480156106a357600080fd5b506103f56106b2366004613f66565b6118d7565b3480156106c357600080fd5b50601b54610439906001600160a01b031681565b3480156106e357600080fd5b506104c66106f2366004613d83565b6118f2565b34801561070357600080fd5b50600b546103cb90600160a01b900460ff1681565b34801561072457600080fd5b506103f5611908565b6103f561073b36600461400b565b6119cc565b34801561074c57600080fd5b506103f561075b366004613fa2565b611b0e565b34801561076c57600080fd5b5061043961077b366004613d83565b611b5a565b34801561078c57600080fd5b5061040c611b82565b3480156107a157600080fd5b506103f56107b0366004613dee565b611b91565b3480156107c157600080fd5b506104c66107d0366004613fa2565b611bd2565b3480156107e157600080fd5b506103f5611c5e565b3480156107f657600080fd5b506103f5610805366004613fa2565b611cd2565b34801561081657600080fd5b506103f561082536600461402d565b611d1e565b34801561083657600080fd5b506103f561084536600461407e565b611f8a565b34801561085657600080fd5b506103f5612349565b34801561086b57600080fd5b506103f561087a366004613d83565b612392565b34801561088b57600080fd5b50600b546001600160a01b0316610439565b3480156108a957600080fd5b50600b546001600160a01b031633146103cb565b3480156108c957600080fd5b5061040c6123c1565b3480156108de57600080fd5b506108f26108ed366004613d83565b6123d0565b6040516103d79190614111565b34801561090b57600080fd5b506103f561091a36600461419f565b612527565b34801561092b57600080fd5b506103f56125ec565b34801561094057600080fd5b506103f561094f366004613fa2565b612637565b34801561096057600080fd5b506103f561096f3660046141d6565b612683565b34801561098057600080fd5b50601854610439906001600160a01b031681565b3480156109a057600080fd5b506103f56126b5565b3480156109b557600080fd5b506103f56109c4366004613d83565b612700565b3480156109d557600080fd5b5061040c6109e4366004613d83565b61272f565b3480156109f557600080fd5b506018546103cb90600160a01b900460ff1681565b348015610a1657600080fd5b506103cb610a25366004614245565b6001600160a01b03918216600090815260066020908152604080832093909416825291909152205460ff1690565b348015610a5f57600080fd5b506103f5610a6e366004613fa2565b6128a0565b348015610a7f57600080fd5b506103f5610a8e366004613dee565b6128ee565b348015610a9f57600080fd5b506103f5610aae366004613fa2565b61292f565b348015610abf57600080fd5b506103cb612962565b348015610ad457600080fd5b506103cb610ae3366004613fa2565b6129e1565b600b546001600160a01b03163314610b1b5760405162461bcd60e51b8152600401610b129061426f565b60405180910390fd5b6019805460ff60a81b198116600160a81b9182900460ff1615909102179055565b606060078054610b4b906142a4565b80601f0160208091040260200160405190810160405280929190818152602001828054610b77906142a4565b8015610bc45780601f10610b9957610100808354040283529160200191610bc4565b820191906000526020600020905b815481529060010190602001808311610ba757829003601f168201915b5050505050905090565b6000610bd982612a31565b610c3a5760405162461bcd60e51b815260206004820152602c60248201527f4552433732313a20617070726f76656420717565727920666f72206e6f6e657860448201526b34b9ba32b73a103a37b5b2b760a11b6064820152608401610b12565b506000908152600560205260409020546001600160a01b031690565b6000610c6182611b5a565b9050806001600160a01b0316836001600160a01b03161415610ccf5760405162461bcd60e51b815260206004820152602160248201527f4552433732313a20617070726f76616c20746f2063757272656e74206f776e656044820152603960f91b6064820152608401610b12565b336001600160a01b0382161480610ceb5750610ceb8133610a25565b610d5d5760405162461bcd60e51b815260206004820152603860248201527f4552433732313a20617070726f76652063616c6c6572206973206e6f74206f7760448201527f6e6572206e6f7220617070726f76656420666f7220616c6c00000000000000006064820152608401610b12565b610d678383612a3e565b505050565b601954600160a81b900460ff16610d955760405162461bcd60e51b8152600401610b12906142df565b601954600160a01b900460ff161515600114610dec5760405162461bcd60e51b8152602060048201526016602482015275109d5c9b9a5b99c81a5cc81b9bdd08185b1b1bddd95960521b6044820152606401610b12565b610df581611b5a565b6001600160a01b0316336001600160a01b031614610e495760405162461bcd60e51b81526020600482015260116024820152702737ba103a37b5b2b724b21037bbb732b960791b6044820152606401610b12565b610e5281612aac565b50565b601b546040516370a0823160e01b81523060048201526000916001600160a01b0316906370a0823190602401602060405180830381865afa158015610e9e573d6000803e3d6000fd5b505050506040513d601f19601f82011682018060405250810190610ec2919061430d565b905090565b600b546001600160a01b03163314610ef15760405162461bcd60e51b8152600401610b129061426f565b8060156000846005811115610f0857610f086140e7565b6005811115610f1957610f196140e7565b815260200190815260200160002060006101000a81548160ff021916908360ff1602179055505050565b600b546001600160a01b03163314610f6d5760405162461bcd60e51b8152600401610b129061426f565b610f778282612b29565b5050565b601854600160a01b900460ff1615611243576018546001600160a01b03163314610fd85760405162461bcd60e51b815260206004820152600e60248201526d6e6f74206d656b616465706c6f7960901b6044820152606401610b12565b601954600160a81b900460ff166110015760405162461bcd60e51b8152600401610b12906142df565b6012548110156110445760405162461bcd60e51b815260206004820152600e60248201526d616d6f756e7420746f6f206c6f7760901b6044820152606401610b12565b61104d84611b5a565b6001600160a01b0316326001600160a01b03161461109f5760405162461bcd60e51b815260206004820152600f60248201526e3737ba103937b137ba1037bbb732b960891b6044820152606401610b12565b601b546040516323b872dd60e01b81526001600160a01b03909116906323b872dd906110d390889030908690600401614326565b6020604051808303816000875af11580156110f2573d6000803e3d6000fd5b505050506040513d601f19601f82011682018060405250810190611116919061434a565b61111f57600080fd5b6000600d61112e60018761437d565b8154811061113e5761113e614394565b60009182526020822060089091020191508360ff166004811115611164576111646140e7565b6004811115611175576111756140e7565b1415611187576002810184905561123d565b60048360ff16600481111561119e5761119e6140e7565b60048111156111af576111af6140e7565b14156111c1576006810184905561123d565b60018360ff1660048111156111d8576111d86140e7565b60048111156111e9576111e96140e7565b14156111fb576003810184905561123d565b60028360ff166004811115611212576112126140e7565b6004811115611223576112236140e7565b1415611235576004810184905561123d565b600581018490555b506114aa565b601954600160a81b900460ff1661126c5760405162461bcd60e51b8152600401610b12906142df565b6012548110156112af5760405162461bcd60e51b815260206004820152600e60248201526d616d6f756e7420746f6f206c6f7760901b6044820152606401610b12565b6112b884611b5a565b6001600160a01b0316326001600160a01b03161461130a5760405162461bcd60e51b815260206004820152600f60248201526e3737ba103937b137ba1037bbb732b960891b6044820152606401610b12565b601b546040516323b872dd60e01b81526001600160a01b03909116906323b872dd9061133e90889030908690600401614326565b6020604051808303816000875af115801561135d573d6000803e3d6000fd5b505050506040513d601f19601f82011682018060405250810190611381919061434a565b61138a57600080fd5b6000600d61139960018761437d565b815481106113a9576113a9614394565b60009182526020822060089091020191508360ff1660048111156113cf576113cf6140e7565b60048111156113e0576113e06140e7565b14156113f257600281018490556114a8565b60048360ff166004811115611409576114096140e7565b600481111561141a5761141a6140e7565b141561142c57600681018490556114a8565b60018360ff166004811115611443576114436140e7565b6004811115611454576114546140e7565b141561146657600381018490556114a8565b60028360ff16600481111561147d5761147d6140e7565b600481111561148e5761148e6140e7565b14156114a057600481018490556114a8565b600581018490555b505b5050505050565b6000610ec26002612bb2565b600b546001600160a01b031633146114e75760405162461bcd60e51b8152600401610b129061426f565b4760006114fc600b546001600160a01b031690565b6001600160a01b03168260405160006040518083038185875af1925050503d8060008114611546576040519150601f19603f3d011682016040523d82523d6000602084013e61154b565b606091505b5050905080610f775760405162461bcd60e51b81526020600482015260146024820152732330b4b632b2103a379039b2b7321022ba3432b960611b6044820152606401610b12565b6001600160a01b03831660009081526013602052604090205460ff16156115f25760405162461bcd60e51b81526020600482015260136024820152721859191c995cdcc8189b1858dadb1a5cdd1959606a1b6044820152606401610b12565b6001600160a01b03821660009081526013602052604090205460ff16156116515760405162461bcd60e51b81526020600482015260136024820152721859191c995cdcc8189b1858dadb1a5cdd1959606a1b6044820152606401610b12565b610d67838383612bbd565b600b546001600160a01b031633146116865760405162461bcd60e51b8152600401610b129061426f565b601b80546001600160a01b0319166001600160a01b0392909216919091179055565b6001600160a01b0381166000908152600160205260408120606091906116cd90612bee565b6001600160401b038111156116e4576116e4613e27565b60405190808252806020026020018201604052801561170d578160200160208202803683370190505b50905060005b6001600160a01b038416600090815260016020526040902061173490612bee565b81101561178c576001600160a01b038416600090815260016020526040902061175d9082612bf8565b82828151811061176f5761176f614394565b602090810291909101015280611784816143aa565b915050611713565b5092915050565b6001600160a01b03821660009081526001602052604081206117b59083612bf8565b90505b92915050565b600b546000906001600160a01b031633146117eb5760405162461bcd60e51b8152600401610b129061426f565b600b54600160a01b900460ff161561180257600080fd5b600b805460ff60a01b1916600160a01b1790556040517f6985a02210a168e66602d3235cb6db0e70f92b3ba4d376a33c0f3d9434bff62590600090a150600190565b600b546001600160a01b0316331461186e5760405162461bcd60e51b8152600401610b129061426f565b6001600160a01b03166000908152601360205260409020805460ff19169055565b600b54600160a01b900460ff166118a557600080fd5b600b546001600160a01b031633146118cf5760405162461bcd60e51b8152600401610b129061426f565b610e52612962565b610d6783838360405180602001604052806000815250612683565b600080611900600284612c04565b509392505050565b600b546001600160a01b031633146119325760405162461bcd60e51b8152600401610b129061426f565b601b546001600160a01b031663a9059cbb611955600b546001600160a01b031690565b61195d610e55565b6040516001600160e01b031960e085901b1681526001600160a01b03909216600483015260248201526044016020604051808303816000875af11580156119a8573d6000803e3d6000fd5b505050506040513d601f19601f82011682018060405250810190610e52919061434a565b600b54600160a01b900460ff16156119e357600080fd5b600e54341015611a265760405162461bcd60e51b815260206004820152600e60248201526d3737ba1032b737bab3b41031373160911b6044820152606401610b12565b611a2f82611b5a565b6001600160a01b0316336001600160a01b031614611a835760405162461bcd60e51b81526020600482015260116024820152702737ba103a37b5b2b724b21037bbb732b960791b6044820152606401610b12565b601a54611a99906001600160a01b031683612a3e565b601a5460405163be22facd60e01b8152600481018490526000602482018190526044820152606481018390523360848201526001600160a01b039091169063be22facd9060a401600060405180830381600087803b158015611afa57600080fd5b505af11580156114a8573d6000803e3d6000fd5b600b546001600160a01b03163314611b385760405162461bcd60e51b8152600401610b129061426f565b601880546001600160a01b0319166001600160a01b0392909216919091179055565b60006117b88260405180606001604052806029815260200161468b6029913960029190612c20565b6060600a8054610b4b906142a4565b600b546001600160a01b03163314611bbb5760405162461bcd60e51b8152600401610b129061426f565b8060166000846005811115610f0857610f086140e7565b60006001600160a01b038216611c3d5760405162461bcd60e51b815260206004820152602a60248201527f4552433732313a2062616c616e636520717565727920666f7220746865207a65604482015269726f206164647265737360b01b6064820152608401610b12565b6001600160a01b03821660009081526001602052604090206117b890612bee565b600b546001600160a01b03163314611c885760405162461bcd60e51b8152600401610b129061426f565b600b546040516000916001600160a01b0316907f8be0079c531659141344cd1fd0a4f28419497f9722a3daafe3b4186f6b6457e0908390a3600b80546001600160a01b0319169055565b600b546001600160a01b03163314611cfc5760405162461bcd60e51b8152600401610b129061426f565b601980546001600160a01b0319166001600160a01b0392909216919091179055565b6019546001600160a01b03163314611d655760405162461bcd60e51b815260206004820152600a6024820152696e6f742062756e646c6560b01b6044820152606401610b12565b601954600160a81b900460ff16611d8e5760405162461bcd60e51b8152600401610b12906142df565b60008260ff166003811115611da557611da56140e7565b905060008260ff166001600160401b03811115611dc457611dc4613e27565b604051908082528060200260200182016040528015611ded578160200160208202803683370190505b5090506001826003811115611e0457611e046140e7565b1415611e5a57600f5481600081518110611e2057611e20614394565b602002602001018181525050611e4085600f54611e3b612c37565b612d80565b600f8054906000611e50836143aa565b9190505550611f48565b6002826003811115611e6e57611e6e6140e7565b1415611ee05760005b8360ff16811015611eda57600f54828281518110611e9757611e97614394565b602002602001018181525050611eb286600f54611e3b613064565b600f8054906000611ec2836143aa565b91905055508080611ed2906143aa565b915050611e77565b50611f48565b60005b8360ff16811015611f4657600f54828281518110611f0357611f03614394565b602002602001018181525050611f1e86600f54611e3b6130f9565b600f8054906000611f2e836143aa565b91905055508080611f3e906143aa565b915050611ee3565b505b7f0163fbc8bbc6c17e611577f692c5492b7e471faace279e1c9b6189402e57e728858242604051611f7b939291906143c5565b60405180910390a15050505050565b601854600160a01b900460ff1615612197576018546001600160a01b03163314611fe75760405162461bcd60e51b815260206004820152600e60248201526d6e6f74206d656b616465706c6f7960901b6044820152606401610b12565b601954600160a81b900460ff166120105760405162461bcd60e51b8152600401610b12906142df565b811561209f576001600160a01b03841660009081526017602052604090205460ff166120775760405162461bcd60e51b81526020600482015260166024820152756e6f742d617661696c61626c652d776974682d6f726560501b6044820152606401610b12565b6001600160a01b0384166000908152601760205260409020805460ff19166001179055612162565b6010548310156120e25760405162461bcd60e51b815260206004820152600e60248201526d1253959053125108105353d5539560921b6044820152606401610b12565b601b546040516323b872dd60e01b81526001600160a01b03909116906323b872dd9061211690879030908890600401614326565b6020604051808303816000875af1158015612135573d6000803e3d6000fd5b505050506040513d601f19601f82011682018060405250810190612159919061434a565b61216257600080fd5b600f546121728582611e3b612c37565b61217c8183612b29565b600f805490600061218c836143aa565b919050555050612343565b601954600160a81b900460ff166121c05760405162461bcd60e51b8152600401610b12906142df565b811561224f576001600160a01b03841660009081526017602052604090205460ff166122275760405162461bcd60e51b81526020600482015260166024820152756e6f742d617661696c61626c652d776974682d6f726560501b6044820152606401610b12565b6001600160a01b0384166000908152601760205260409020805460ff19166001179055612312565b6010548310156122925760405162461bcd60e51b815260206004820152600e60248201526d1253959053125108105353d5539560921b6044820152606401610b12565b601b546040516323b872dd60e01b81526001600160a01b03909116906323b872dd906122c690879030908890600401614326565b6020604051808303816000875af11580156122e5573d6000803e3d6000fd5b505050506040513d601f19601f82011682018060405250810190612309919061434a565b61231257600080fd5b600f546123228582611e3b612c37565b61232c8183612b29565b600f805490600061233c836143aa565b9190505550505b50505050565b600b54600160a01b900460ff161561236057600080fd5b600b546001600160a01b0316331461238a5760405162461bcd60e51b8152600401610b129061426f565b610e526117be565b600b546001600160a01b031633146123bc5760405162461bcd60e51b8152600401610b129061426f565b600e55565b606060088054610b4b906142a4565b61242960408051610120810190915260008082526020820190815260200160008152602001600081526020016000815260200160008152602001600081526020016000815260200160006001600160401b031681525090565b600d61243660018461437d565b8154811061244657612446614394565b906000526020600020906008020160405180610120016040529081600082015481526020016001820160009054906101000a900460ff16600581111561248e5761248e6140e7565b600581111561249f5761249f6140e7565b81526020016001820160019054906101000a900460ff1660028111156124c7576124c76140e7565b60028111156124d8576124d86140e7565b815260028201546020820152600382015460408201526004820154606082015260058201546080820152600682015460a08201526007909101546001600160401b031660c09091015292915050565b6001600160a01b0382163314156125805760405162461bcd60e51b815260206004820152601960248201527f4552433732313a20617070726f766520746f2063616c6c6572000000000000006044820152606401610b12565b3360008181526006602090815260408083206001600160a01b03871680855290835292819020805460ff191686151590811790915590519081529192917f17307eab39ab6107e8899845ad3d59bd9653f200f220920489ca2b5937696c31910160405180910390a35050565b600b546001600160a01b031633146126165760405162461bcd60e51b8152600401610b129061426f565b6019805460ff60a01b198116600160a01b9182900460ff1615909102179055565b600b546001600160a01b031633146126615760405162461bcd60e51b8152600401610b129061426f565b601a80546001600160a01b0319166001600160a01b0392909216919091179055565b61268d3383613151565b6126a95760405162461bcd60e51b8152600401610b12906143f9565b6123438484848461323b565b600b546001600160a01b031633146126df5760405162461bcd60e51b8152600401610b129061426f565b6018805460ff60a01b198116600160a01b9182900460ff1615909102179055565b600b546001600160a01b0316331461272a5760405162461bcd60e51b8152600401610b129061426f565b601055565b606061273a82612a31565b61279e5760405162461bcd60e51b815260206004820152602f60248201527f4552433732314d657461646174613a2055524920717565727920666f72206e6f60448201526e3732bc34b9ba32b73a103a37b5b2b760891b6064820152608401610b12565b600082815260096020526040812080546127b7906142a4565b80601f01602080910402602001604051908101604052809291908181526020018280546127e3906142a4565b80156128305780601f1061280557610100808354040283529160200191612830565b820191906000526020600020905b81548152906001019060200180831161281357829003601f168201915b50505050509050600a8054612844906142a4565b151590506128525792915050565b80511561288457600a8160405160200161286d929190614466565b604051602081830303815290604052915050919050565b600a61288f8461326e565b60405160200161286d929190614466565b600b546001600160a01b031633146128ca5760405162461bcd60e51b8152600401610b129061426f565b6001600160a01b03166000908152601360205260409020805460ff19166001179055565b600b546001600160a01b031633146129185760405162461bcd60e51b8152600401610b129061426f565b8060146000846005811115610f0857610f086140e7565b600b546001600160a01b031633146129595760405162461bcd60e51b8152600401610b129061426f565b610e5281613384565b600b546000906001600160a01b0316331461298f5760405162461bcd60e51b8152600401610b129061426f565b600b54600160a01b900460ff166129a557600080fd5b600b805460ff60a01b191690556040517f7805862f689e2f13df9f062ff482ad3ad112aca9e0847911ed832e158c525b3390600090a150600190565b600b546000906001600160a01b03163314612a0e5760405162461bcd60e51b8152600401610b129061426f565b506001600160a01b03811660009081526013602052604090205460ff165b919050565b60006117b8600283613445565b600081815260056020526040902080546001600160a01b0319166001600160a01b0384169081179091558190612a7382611b5a565b6001600160a01b03167f8c5be1e5ebec7d5bd14f71427d1e84f3dd0314c0f7b2291e5b200ac8c7c3b92560405160405180910390a45050565b6000612ab782611b5a565b9050612ac581600084613451565b612ad0600083612a3e565b6001600160a01b0381166000908152600160205260409020612af29083613468565b50612afe600283613474565b5060405182906000906001600160a01b038416906000805160206146b4833981519152908390a45050565b612b3282612a31565b612b935760405162461bcd60e51b815260206004820152602c60248201527f4552433732314d657461646174613a2055524920736574206f66206e6f6e657860448201526b34b9ba32b73a103a37b5b2b760a11b6064820152608401610b12565b60008281526009602090815260409091208251610d6792840190613c55565b60006117b882613480565b612bc73382613151565b612be35760405162461bcd60e51b8152600401610b12906143f9565b610d6783838361348b565b60006117b8825490565b60006117b58383613605565b6000808080612c13868661362f565b9097909650945050505050565b6000612c2d84848461365a565b90505b9392505050565b600080612c44606461369d565b6000805260146020527f4f26c3876aa9f4b92579780beea1161a61f87ebf1ec6ee865b299e447ecba99c5490915060ff168111612c8357600091505090565b600160005260146020527fb6c61a840592cc84133e4b25bd509abf4659307c57b160799b38490a5aa48f2c5460ff168111612cc057600191505090565b600260005260146020527fa1930aa930426c54c34daad2b9ada7c5d0ef0c96078a3c5bb79f6fa6602c4a7a5460ff168111612cfd57600291505090565b600360005260146020527f63d87a887046e0430be80fdeb014107d7198c879cbf2cddf39a6df195c86cb385460ff168111612d3a57600391505090565b6014600060045b6005811115612d5257612d526140e7565b815260208101919091526040016000205460ff168111612d7457600491505090565b600591505090565b5090565b6001600160a01b038316612dd65760405162461bcd60e51b815260206004820181905260248201527f4552433732313a206d696e7420746f20746865207a65726f20616464726573736044820152606401610b12565b612ddf82612a31565b15612e2c5760405162461bcd60e51b815260206004820152601c60248201527f4552433732313a20746f6b656e20616c7265616479206d696e746564000000006044820152606401610b12565b6000604051806101200160405280848152602001836005811115612e5257612e526140e7565b8152602001612e61600361369d565b6002811115612e7257612e726140e7565b6002811115612e8357612e836140e7565b81526000602080830182905260408301829052606083018290526080830182905260a08301829052426001600160401b031660c090930192909252600d8054600180820183559190925283517fd7b6990105719101dabeb77144f2a3385c8033acd3af97e9423a695e81ad1eb56008909302928301908155928401517fd7b6990105719101dabeb77144f2a3385c8033acd3af97e9423a695e81ad1eb690920180549495508594909160ff1990911690836005811115612f4557612f456140e7565b0217905550604082015160018201805461ff001916610100836002811115612f6f57612f6f6140e7565b0217905550606082015181600201556080820151816003015560a0820151816004015560c0820151816005015560e082015181600601556101008201518160070160006101000a8154816001600160401b0302191690836001600160401b031602179055505050612ff084846040518060200160405280600081525061370d565b604080516001600160a01b038616815260208101859052428183015290517f393ccba6479926a7c4a6471a3b4584229e2df48a1858c8caf57680927dced5ff9181900360600190a160405183906001600160a01b038616906000906000805160206146b4833981519152908290a450505050565b600080613071606461369d565b600260005260156020527f07d4ff730d9753101d832555708a37d38c2c45fce8cacaefc99f06074e93fe0b5490915060ff1681116130b157600291505090565b600360005260156020527fb3a65e8276bd33b3e4f7d6081ebd9899187264822358758dca2e2bc37b2a9c275460ff1681116130ee57600391505090565b601560006004612d41565b600080613106606461369d565b600360005260166020527ff06d282f967055cb1eee17e04aa005b9682a620f4bbcfaee55ba78607a3d87ae5490915060ff16811161314657600391505090565b601660006004612d41565b600061315c82612a31565b6131bd5760405162461bcd60e51b815260206004820152602c60248201527f4552433732313a206f70657261746f7220717565727920666f72206e6f6e657860448201526b34b9ba32b73a103a37b5b2b760a11b6064820152608401610b12565b60006131c883611b5a565b9050806001600160a01b0316846001600160a01b031614806132035750836001600160a01b03166131f884610bce565b6001600160a01b0316145b8061323357506001600160a01b0380821660009081526006602090815260408083209388168352929052205460ff165b949350505050565b61324684848461348b565b61325284848484613740565b6123435760405162461bcd60e51b8152600401610b129061450d565b6060816132925750506040805180820190915260018152600360fc1b602082015290565b8160005b81156132bc57806132a6816143aa565b91506132b59050600a83614575565b9150613296565b6000816001600160401b038111156132d6576132d6613e27565b6040519080825280601f01601f191660200182016040528015613300576020820181803683370190505b509050600061331060018461437d565b90508593505b831561337b57613327600a85614589565b61333290603061459d565b60f81b8282613340816145b5565b93508151811061335257613352614394565b60200101906001600160f81b031916908160001a905350613374600a85614575565b9350613316565b50949350505050565b6001600160a01b0381166133e95760405162461bcd60e51b815260206004820152602660248201527f4f776e61626c653a206e6577206f776e657220697320746865207a65726f206160448201526564647265737360d01b6064820152608401610b12565b600b546040516001600160a01b038084169216907f8be0079c531659141344cd1fd0a4f28419497f9722a3daafe3b4186f6b6457e090600090a3600b80546001600160a01b0319166001600160a01b0392909216919091179055565b60006117b58383613811565b600b54600160a01b900460ff1615610d6757600080fd5b60006117b5838361381d565b60006117b58383613910565b60006117b882612bee565b826001600160a01b031661349e82611b5a565b6001600160a01b0316146135065760405162461bcd60e51b815260206004820152602960248201527f4552433732313a207472616e73666572206f6620746f6b656e2074686174206960448201526839903737ba1037bbb760b91b6064820152608401610b12565b6001600160a01b0382166135685760405162461bcd60e51b8152602060048201526024808201527f4552433732313a207472616e7366657220746f20746865207a65726f206164646044820152637265737360e01b6064820152608401610b12565b613573838383613451565b61357e600082612a3e565b6001600160a01b03831660009081526001602052604090206135a09082613468565b506001600160a01b03821660009081526001602052604090206135c3908261392d565b506135d060028284613939565b5080826001600160a01b0316846001600160a01b03166000805160206146b483398151915260405160405180910390a4505050565b600082600001828154811061361c5761361c614394565b9060005260206000200154905092915050565b6000808061363d8585612bf8565b600081815260029690960160205260409095205494959350505050565b60008281526002840160205260408120548015158061367e575061367e8585613811565b839061337b5760405162461bcd60e51b8152600401610b129190613d70565b60118054600091826136ae836143aa565b9091555050601154604080514460208201526bffffffffffffffffffffffff193360601b1691810191909152605481019190915260ff8316906074016040516020818303038152906040528051906020012060001c6117b89190614589565b613717838361394f565b6137246000848484613740565b610d675760405162461bcd60e51b8152600401610b129061450d565b60006001600160a01b0384163b61375957506001613233565b60006137da630a85bd0160e11b3388878760405160240161377d94939291906145cc565b604051602081830303815290604052906001600160e01b0319166020820180516001600160e01b038381831617835250505050604051806060016040528060328152602001614659603291396001600160a01b0388169190613a61565b90506000818060200190518101906137f29190614609565b6001600160e01b031916630a85bd0160e11b1492505050949350505050565b60006117b58383613a70565b6000818152600183016020526040812054801561390657600061384160018361437d565b85549091506000906138559060019061437d565b90508181146138ba57600086600001828154811061387557613875614394565b906000526020600020015490508087600001848154811061389857613898614394565b6000918252602080832090910192909255918252600188019052604090208390555b85548690806138cb576138cb614626565b6001900381819060005260206000200160009055905585600101600086815260200190815260200160002060009055600193505050506117b8565b60009150506117b8565b600081815260028301602052604081208190556117b58383613468565b60006117b58383613a88565b6000612c2d84846001600160a01b038516613ad7565b6001600160a01b0382166139a55760405162461bcd60e51b815260206004820181905260248201527f4552433732313a206d696e7420746f20746865207a65726f20616464726573736044820152606401610b12565b6139ae81612a31565b156139fb5760405162461bcd60e51b815260206004820152601c60248201527f4552433732313a20746f6b656e20616c7265616479206d696e746564000000006044820152606401610b12565b613a0760008383613451565b6001600160a01b0382166000908152600160205260409020613a29908261392d565b50613a3660028284613939565b5060405181906001600160a01b038416906000906000805160206146b4833981519152908290a45050565b6060612c2d8484600085613af4565b600081815260018301602052604081205415156117b5565b6000818152600183016020526040812054613acf575081546001818101845560008481526020808220909301849055845484825282860190935260409020919091556117b8565b5060006117b8565b60008281526002840160205260408120829055612c2d848461392d565b606082471015613b555760405162461bcd60e51b815260206004820152602660248201527f416464726573733a20696e73756666696369656e742062616c616e636520666f6044820152651c8818d85b1b60d21b6064820152608401610b12565b843b613ba35760405162461bcd60e51b815260206004820152601d60248201527f416464726573733a2063616c6c20746f206e6f6e2d636f6e74726163740000006044820152606401610b12565b600080866001600160a01b03168587604051613bbf919061463c565b60006040518083038185875af1925050503d8060008114613bfc576040519150601f19603f3d011682016040523d82523d6000602084013e613c01565b606091505b5091509150613c11828286613c1c565b979650505050505050565b60608315613c2b575081612c30565b825115613c3b5782518084602001fd5b8160405162461bcd60e51b8152600401610b129190613d70565b828054613c61906142a4565b90600052602060002090601f016020900481019282613c835760008555613cc9565b82601f10613c9c57805160ff1916838001178555613cc9565b82800160010185558215613cc9579182015b82811115613cc9578251825591602001919060010190613cae565b50612d7c9291505b80821115612d7c5760008155600101613cd1565b6001600160e01b031981168114610e5257600080fd5b600060208284031215613d0d57600080fd5b8135612c3081613ce5565b60005b83811015613d33578181015183820152602001613d1b565b838111156123435750506000910152565b60008151808452613d5c816020860160208601613d18565b601f01601f19169290920160200192915050565b6020815260006117b56020830184613d44565b600060208284031215613d9557600080fd5b5035919050565b80356001600160a01b0381168114612a2c57600080fd5b60008060408385031215613dc657600080fd5b613dcf83613d9c565b946020939093013593505050565b803560ff81168114612a2c57600080fd5b60008060408385031215613e0157600080fd5b823560068110613e1057600080fd5b9150613e1e60208401613ddd565b90509250929050565b634e487b7160e01b600052604160045260246000fd5b60006001600160401b0380841115613e5757613e57613e27565b604051601f8501601f19908116603f01168101908282118183101715613e7f57613e7f613e27565b81604052809350858152868686011115613e9857600080fd5b858560208301376000602087830101525050509392505050565b600082601f830112613ec357600080fd5b6117b583833560208501613e3d565b60008060408385031215613ee557600080fd5b8235915060208301356001600160401b03811115613f0257600080fd5b613f0e85828601613eb2565b9150509250929050565b600080600080600060a08688031215613f3057600080fd5b613f3986613d9c565b94506020860135935060408601359250613f5560608701613ddd565b949793965091946080013592915050565b600080600060608486031215613f7b57600080fd5b613f8484613d9c565b9250613f9260208501613d9c565b9150604084013590509250925092565b600060208284031215613fb457600080fd5b6117b582613d9c565b600081518084526020808501945080840160005b83811015613fed57815187529582019590820190600101613fd1565b509495945050505050565b6020815260006117b56020830184613fbd565b6000806040838503121561401e57600080fd5b50508035926020909101359150565b60008060006060848603121561404257600080fd5b61404b84613d9c565b925061405960208501613ddd565b915061406760408501613ddd565b90509250925092565b8015158114610e5257600080fd5b6000806000806080858703121561409457600080fd5b61409d85613d9c565b93506020850135925060408501356140b481614070565b915060608501356001600160401b038111156140cf57600080fd5b6140db87828801613eb2565b91505092959194509250565b634e487b7160e01b600052602160045260246000fd5b6003811061410d5761410d6140e7565b9052565b81518152602082015161012082019060068110614130576141306140e7565b80602084015250604083015161414960408401826140fd565b50606083015160608301526080830151608083015260a083015160a083015260c083015160c083015260e083015160e083015261010080840151614197828501826001600160401b03169052565b505092915050565b600080604083850312156141b257600080fd5b6141bb83613d9c565b915060208301356141cb81614070565b809150509250929050565b600080600080608085870312156141ec57600080fd5b6141f585613d9c565b935061420360208601613d9c565b92506040850135915060608501356001600160401b0381111561422557600080fd5b8501601f8101871361423657600080fd5b6140db87823560208401613e3d565b6000806040838503121561425857600080fd5b61426183613d9c565b9150613e1e60208401613d9c565b6020808252818101527f4f776e61626c653a2063616c6c6572206973206e6f7420746865206f776e6572604082015260600190565b600181811c908216806142b857607f821691505b602082108114156142d957634e487b7160e01b600052602260045260246000fd5b50919050565b6020808252601490820152731c9bd89bdd08199858dd1bdc9e4818db1bdcd95960621b604082015260600190565b60006020828403121561431f57600080fd5b5051919050565b6001600160a01b039384168152919092166020820152604081019190915260600190565b60006020828403121561435c57600080fd5b8151612c3081614070565b634e487b7160e01b600052601160045260246000fd5b60008282101561438f5761438f614367565b500390565b634e487b7160e01b600052603260045260246000fd5b60006000198214156143be576143be614367565b5060010190565b6001600160a01b03841681526060602082018190526000906143e990830185613fbd565b9050826040830152949350505050565b60208082526031908201527f4552433732313a207472616e736665722063616c6c6572206973206e6f74206f6040820152701ddb995c881b9bdc88185c1c1c9bdd9959607a1b606082015260800190565b6000815161445c818560208601613d18565b9290920192915050565b600080845481600182811c91508083168061448257607f831692505b60208084108214156144a257634e487b7160e01b86526022600452602486fd5b8180156144b657600181146144c7576144f4565b60ff198616895284890196506144f4565b60008b81526020902060005b868110156144ec5781548b8201529085019083016144d3565b505084890196505b505050505050614504818561444a565b95945050505050565b60208082526032908201527f4552433732313a207472616e7366657220746f206e6f6e20455243373231526560408201527131b2b4bb32b91034b6b83632b6b2b73a32b960711b606082015260800190565b634e487b7160e01b600052601260045260246000fd5b6000826145845761458461455f565b500490565b6000826145985761459861455f565b500690565b600082198211156145b0576145b0614367565b500190565b6000816145c4576145c4614367565b506000190190565b6001600160a01b03858116825284166020820152604081018390526080606082018190526000906145ff90830184613d44565b9695505050505050565b60006020828403121561461b57600080fd5b8151612c3081613ce5565b634e487b7160e01b600052603160045260246000fd5b6000825161464e818460208701613d18565b919091019291505056fe4552433732313a207472616e7366657220746f206e6f6e20455243373231526563656976657220696d706c656d656e7465724552433732313a206f776e657220717565727920666f72206e6f6e6578697374656e7420746f6b656eddf252ad1be2c89b69c2b068fc378daa952ba7f163c4a11628f55a4df523b3efa264697066735822122066fe2bfb1ea4ab024c91ab186ad05a308c59954279030173f128a176967619a364736f6c634300080a0033",
  "immutableReferences": {},
  "source": "// SPDX-License-Identifier: MIT\r\npragma solidity ^0.8.2;\r\n\r\nimport \"./IBEP20.sol\";\r\nimport \"./IMarketplace.sol\";\r\nimport \"./SafeMath.sol\";\r\nimport \"./Ownable.sol\";\r\nimport \"./ERC721.sol\";\r\nimport \"./ERC721Pausable.sol\";\r\nimport \"./EnumerableSet.sol\";\r\nimport \"./EnumerableMap.sol\";\r\nimport \"./IRobotCore.sol\";\r\nimport \"./ReentrancyGuard.sol\";\r\n\r\ncontract RobotCore is Ownable, ERC721Pausable, IRobotCore, ReentrancyGuard {\r\n    using SafeMath for uint256;\r\n    using EnumerableSet for EnumerableSet.UintSet;\r\n    using EnumerableMap for EnumerableMap.UintToAddressMap;\r\n\r\n    struct Robot {\r\n        uint256 robotId; // id of the robot\r\n        Rarity rarity;\r\n        RobotType robotType;\r\n        uint256 head;\r\n        uint256 larm;\r\n        uint256 rarm;\r\n        uint256 legs;\r\n        uint256 chest;\r\n        uint64 birthTime; // The timestamp from the block when this Robot came into existence.\r\n    }\r\n\r\n    enum Rarity {\r\n        E,\r\n        D,\r\n        C,\r\n        B,\r\n        A,\r\n        S\r\n    }\r\n\r\n    enum PieceType {\r\n        Head,\r\n        LArm,\r\n        RArm,\r\n        Legs,\r\n        Chest\r\n    }\r\n\r\n    enum RobotType {\r\n        Tank,\r\n        Stealth,\r\n        Basic\r\n    }\r\n\r\n    enum PackageType {\r\n        Default,\r\n        First,\r\n        Second,\r\n        Third\r\n    }\r\n\r\n    /*** STORAGE ***/\r\n    /// @dev An array containing the Robot struct for all robots in existence. The ID\r\n    ///  of each Robot is actually an index into this array.\r\n    Robot[] robots;\r\n\r\n    event MintedRobotFromBundle(address from, uint256[] robotIds, uint256 date);\r\n\r\n    uint256 bnbFee = 0.005 * 10**18;\r\n    uint256 private nextRobotTokenId = 1;\r\n    uint256 robotPrice = 60 * 10**18; // to review\r\n    uint256 private randNonce;\r\n    uint256 attachPrice = 3 * 10**18;\r\n\r\n    mapping(address => bool) private banBlackList;\r\n\r\n    mapping(Rarity => uint8) private _baseRarityPercentage;\r\n    mapping(Rarity => uint8) private _box2RarityPercentage;\r\n    mapping(Rarity => uint8) private _box3RarityPercentage;\r\n\r\n    mapping(address => bool) private _walletBoughtWithOre;\r\n\r\n    /* SETTABLE VARIABLES */\r\n    address public _mekaDeployerAddress;\r\n    bool public _mekaDeployerEnabled;\r\n    address public _robotPackageAddress;\r\n    bool public isBurn;\r\n    bool public isRobotFactoryOpen;\r\n    address public _marketplaceAddr;\r\n    address public _mekaAddress;\r\n\r\n    constructor(address _mekaToken) ERC721(\"Mekabot\", \"Mekabot\") {\r\n        isBurn = true;\r\n        _mekaAddress = _mekaToken;\r\n        isRobotFactoryOpen = true;\r\n\r\n        _baseRarityPercentage[Rarity.E] = 49;\r\n        _baseRarityPercentage[Rarity.D] = 69;\r\n        _baseRarityPercentage[Rarity.C] = 84;\r\n        _baseRarityPercentage[Rarity.B] = 94;\r\n        _baseRarityPercentage[Rarity.A] = 98;\r\n        _baseRarityPercentage[Rarity.S] = 99;\r\n\r\n        _box2RarityPercentage[Rarity.C] = 69;\r\n        _box2RarityPercentage[Rarity.B] = 89;\r\n        _box2RarityPercentage[Rarity.A] = 96;\r\n        _box2RarityPercentage[Rarity.S] = 99;\r\n\r\n        _box3RarityPercentage[Rarity.B] = 64;\r\n        _box3RarityPercentage[Rarity.A] = 93;\r\n        _box3RarityPercentage[Rarity.S] = 99;\r\n    }\r\n\r\n    function isBlacklisted(address addr)\r\n        external\r\n        view\r\n        onlyOwner\r\n        returns (bool)\r\n    {\r\n        return banBlackList[addr];\r\n    }\r\n\r\n    function addBanList(address addr) external onlyOwner {\r\n        banBlackList[addr] = true;\r\n    }\r\n\r\n    function removeBanList(address addr) external onlyOwner {\r\n        banBlackList[addr] = false;\r\n    }\r\n\r\n    function setBnbFee(uint256 fee) external onlyOwner {\r\n        bnbFee = fee;\r\n    }\r\n\r\n    function setBaseRarity(Rarity rarity, uint8 percentage) external onlyOwner {\r\n        _baseRarityPercentage[rarity] = percentage;\r\n    }\r\n\r\n    function setBox2Rarity(Rarity rarity, uint8 percentage) external onlyOwner {\r\n        _box2RarityPercentage[rarity] = percentage;\r\n    }\r\n\r\n    function setBox3Rarity(Rarity rarity, uint8 percentage) external onlyOwner {\r\n        _box3RarityPercentage[rarity] = percentage;\r\n    }\r\n\r\n    function setMarketplaceAddress(address _address) external onlyOwner {\r\n        _marketplaceAddr = _address;\r\n    }\r\n\r\n    function setRobotPackageAddress(address _address) external onlyOwner {\r\n        _robotPackageAddress = _address;\r\n    }\r\n\r\n    function setMekaDeployerAddress(address _mekaDeployAddr)\r\n        external\r\n        onlyOwner\r\n    {\r\n        _mekaDeployerAddress = _mekaDeployAddr;\r\n    }\r\n\r\n    function setMekaDeployerEnabled() external onlyOwner {\r\n        _mekaDeployerEnabled = !_mekaDeployerEnabled;\r\n    }\r\n\r\n    function setRobotPrice(uint256 _price) external onlyOwner {\r\n        robotPrice = _price;\r\n    }\r\n\r\n    function setTokenAddress(address _addr) external onlyOwner {\r\n        _mekaAddress = _addr;\r\n    }\r\n\r\n    function setTokenURI(uint256 tokenId, string memory _tokenURI)\r\n        external\r\n        onlyOwner\r\n    {\r\n        _setTokenURI(tokenId, _tokenURI);\r\n    }\r\n\r\n    function updateIsBurn() external onlyOwner {\r\n        isBurn = !isBurn;\r\n    }\r\n\r\n    function updateRobotFactory() external onlyOwner {\r\n        isRobotFactoryOpen = !isRobotFactoryOpen;\r\n    }\r\n\r\n    modifier onlyBundle() {\r\n        require(msg.sender == _robotPackageAddress, \"not bundle\");\r\n        _;\r\n    }\r\n\r\n    modifier robotFactory() {\r\n        require(isRobotFactoryOpen, \"robot factory closed\");\r\n        _;\r\n    }\r\n\r\n    modifier onlyMekaDeploy() {\r\n        if (_mekaDeployerEnabled) {\r\n            require(msg.sender == _mekaDeployerAddress, \"not mekadeploy\");\r\n            _;\r\n        } else {\r\n            _;\r\n        }\r\n    }\r\n\r\n    function withdrawBalance() external onlyOwner {\r\n        IBEP20(_mekaAddress).transfer(owner(), getBalance());\r\n    }\r\n\r\n    function withdrawBnb() external onlyOwner {\r\n        uint256 amount = address(this).balance;\r\n\r\n        (bool success, ) = payable(owner()).call{value: amount}(\"\");\r\n        require(success, \"Failed to send Ether\");\r\n    }\r\n\r\n    function _mintRobot(\r\n        address to,\r\n        uint256 tokenId,\r\n        Rarity rarity\r\n    ) private {\r\n        require(to != address(0), \"ERC721: mint to the zero address\");\r\n        require(!_exists(tokenId), \"ERC721: token already minted\");\r\n\r\n        Robot memory _robot = Robot({\r\n            robotId: tokenId,\r\n            rarity: rarity,\r\n            robotType: RobotType(random(3)),\r\n            head: 0,\r\n            larm: 0,\r\n            rarm: 0,\r\n            legs: 0,\r\n            chest: 0,\r\n            birthTime: uint64(block.timestamp)\r\n        });\r\n\r\n        robots.push(_robot);\r\n\r\n        _safeMint(to, tokenId, \"\");\r\n\r\n        emit Birth(to, tokenId, block.timestamp);\r\n\r\n        emit Transfer(address(0), to, tokenId);\r\n    }\r\n\r\n    function attachPiece(\r\n        address _owner,\r\n        uint256 _robotId,\r\n        uint256 _pieceId,\r\n        uint8 _pieceType,\r\n        uint256 _amount\r\n    ) external onlyMekaDeploy robotFactory {\r\n        require(_amount >= attachPrice, \"amount too low\");\r\n        require(tx.origin == ownerOf(_robotId), \"not robot owner\");\r\n        require(\r\n            IBEP20(_mekaAddress).transferFrom(_owner, address(this), _amount)\r\n        );\r\n\r\n        Robot storage bot = robots[_robotId - 1];\r\n\r\n        if (PieceType(_pieceType) == PieceType.Head) {\r\n            bot.head = _pieceId;\r\n        } else if (PieceType(_pieceType) == PieceType.Chest) {\r\n            bot.chest = _pieceId;\r\n        } else if (PieceType(_pieceType) == PieceType.LArm) {\r\n            bot.larm = _pieceId;\r\n        } else if (PieceType(_pieceType) == PieceType.RArm) {\r\n            bot.rarm = _pieceId;\r\n        } else {\r\n            bot.legs = _pieceId;\r\n        }\r\n    }\r\n\r\n    function createRobot(\r\n        address _owner,\r\n        uint256 _amount,\r\n        bool _withOre,\r\n        string memory tokenURI\r\n    ) external onlyMekaDeploy robotFactory {\r\n        if (_withOre) {\r\n            require(_walletBoughtWithOre[_owner], \"not-available-with-ore\");\r\n            _walletBoughtWithOre[_owner] = true;\r\n        } else {\r\n            require(_amount >= robotPrice, \"INVALID AMOUNT\");\r\n            require(\r\n                IBEP20(_mekaAddress).transferFrom(\r\n                    _owner,\r\n                    address(this),\r\n                    _amount\r\n                )\r\n            );\r\n        }\r\n\r\n        uint256 tokenId = nextRobotTokenId;\r\n\r\n        _mintRobot(_owner, tokenId, randomizeBaseRarity());\r\n        _setTokenURI(tokenId, tokenURI);\r\n\r\n        nextRobotTokenId++;\r\n    }\r\n\r\n    function createSale(uint256 _tokenId, uint256 _startingPrice)\r\n        external\r\n        payable\r\n        whenNotPaused\r\n    {\r\n        require(msg.value >= bnbFee, \"not enough bnb\");\r\n        require(msg.sender == ownerOf(_tokenId), \"Not tokenId owner\");\r\n\r\n        _approve(_marketplaceAddr, _tokenId);\r\n        IMarketplace(_marketplaceAddr).createSale(\r\n            _tokenId,\r\n            0,\r\n            address(0),\r\n            _startingPrice,\r\n            msg.sender\r\n        );\r\n    }\r\n\r\n    function burnRobot(uint256 _tokenId) external robotFactory {\r\n        require(isBurn == true, \"Burning is not allowed\");\r\n        require(msg.sender == ownerOf(_tokenId), \"Not tokenId owner\");\r\n\r\n        _burn(_tokenId); // burn token\r\n    }\r\n\r\n    /// @notice Returns all the relevant information about a specific Robot.\r\n    /// @param _id The ID of the Robot of interest.\r\n    function getRobot(uint256 _id) external view returns (Robot memory robot) {\r\n        return robots[_id - 1];\r\n    }\r\n\r\n    function getBalance() public view returns (uint256) {\r\n        return IBEP20(_mekaAddress).balanceOf(address(this));\r\n    }\r\n\r\n    function pause() public whenNotPaused onlyOwner {\r\n        _pause();\r\n    }\r\n\r\n    function unpause() public whenPaused onlyOwner {\r\n        _unpause();\r\n    }\r\n\r\n    function createRobotFromBundle(\r\n        address _owner,\r\n        uint8 packageType,\r\n        uint8 robotQuantity\r\n    ) external onlyBundle robotFactory {\r\n        PackageType pkgType = PackageType(packageType);\r\n\r\n        uint256[] memory allTokens = new uint256[](robotQuantity);\r\n\r\n        if (pkgType == PackageType.First) {\r\n            allTokens[0] = nextRobotTokenId;\r\n            _mintRobot(_owner, nextRobotTokenId, randomizeBaseRarity());\r\n            nextRobotTokenId++;\r\n        } else if (pkgType == PackageType.Second) {\r\n            for (uint256 index = 0; index < robotQuantity; index++) {\r\n                allTokens[index] = nextRobotTokenId;\r\n                _mintRobot(_owner, nextRobotTokenId, randomizeBox2Rarity());\r\n                nextRobotTokenId++;\r\n            }\r\n        } else {\r\n            for (uint256 index = 0; index < robotQuantity; index++) {\r\n                allTokens[index] = nextRobotTokenId;\r\n                _mintRobot(_owner, nextRobotTokenId, randomizeBox3Rarity());\r\n                nextRobotTokenId++;\r\n            }\r\n        }\r\n\r\n        emit MintedRobotFromBundle(_owner, allTokens, block.timestamp);\r\n    }\r\n\r\n    function transferFrom(\r\n        address from,\r\n        address to,\r\n        uint256 tokenId\r\n    ) public override {\r\n        require(!banBlackList[from], \"address blacklisted\");\r\n        require(!banBlackList[to], \"address blacklisted\");\r\n\r\n        super.transferFrom(from, to, tokenId);\r\n    }\r\n\r\n    function random(uint8 _modulus) private returns (uint256) {\r\n        randNonce++;\r\n        return\r\n            uint256(\r\n                keccak256(\r\n                    abi.encodePacked(block.difficulty, msg.sender, randNonce)\r\n                )\r\n            ) % _modulus;\r\n    }\r\n\r\n    function randomizeBaseRarity() private returns (Rarity) {\r\n        uint256 randNumber = random(100);\r\n\r\n        if (randNumber <= _baseRarityPercentage[Rarity.E]) {\r\n            return Rarity.E;\r\n        } else if (randNumber <= _baseRarityPercentage[Rarity.D]) {\r\n            return Rarity.D;\r\n        } else if (randNumber <= _baseRarityPercentage[Rarity.C]) {\r\n            return Rarity.C;\r\n        } else if (randNumber <= _baseRarityPercentage[Rarity.B]) {\r\n            return Rarity.B;\r\n        } else if (randNumber <= _baseRarityPercentage[Rarity.A]) {\r\n            return Rarity.A;\r\n        } else {\r\n            return Rarity.S;\r\n        }\r\n    }\r\n\r\n    function randomizeBox2Rarity() private returns (Rarity) {\r\n        uint256 randNumber = random(100);\r\n\r\n        if (randNumber <= _box2RarityPercentage[Rarity.C]) {\r\n            return Rarity.C;\r\n        } else if (randNumber <= _box2RarityPercentage[Rarity.B]) {\r\n            return Rarity.B;\r\n        } else if (randNumber <= _box2RarityPercentage[Rarity.A]) {\r\n            return Rarity.A;\r\n        } else {\r\n            return Rarity.S;\r\n        }\r\n    }\r\n\r\n    function randomizeBox3Rarity() private returns (Rarity) {\r\n        uint256 randNumber = random(100);\r\n\r\n        if (randNumber <= _box3RarityPercentage[Rarity.B]) {\r\n            return Rarity.B;\r\n        } else if (randNumber <= _box3RarityPercentage[Rarity.A]) {\r\n            return Rarity.A;\r\n        } else {\r\n            return Rarity.S;\r\n        }\r\n    }\r\n}\r\n",
  "sourcePath": "E:\\MekaMiners\\contracts\\RobotCore.sol",
  "compiler": {
    "name": "solc",
    "version": "0.8.10+commit.fc410830.Emscripten.clang"
  },
  "schemaVersion": "3.4.3",
  "updatedAt": "2021-11-29T17:41:40.957Z",
  "networkType": "ethereum",
  "devdoc": {
    "kind": "dev",
    "methods": {
      "_pause()": {
        "details": "called by the owner to pause, triggers stopped state"
      },
      "_unpause()": {
        "details": "called by the owner to unpause, returns to normal state"
      },
      "approve(address,uint256)": {
        "details": "See {IERC721-approve}."
      },
      "balanceOf(address)": {
        "details": "See {IERC721-balanceOf}."
      },
      "baseURI()": {
        "details": "Returns the base URI set via {_setBaseURI}. This will be automatically added as a prefix in {tokenURI} to each token's URI, or to the token ID if no specific URI is set for that token ID."
      },
      "getApproved(uint256)": {
        "details": "See {IERC721-getApproved}."
      },
      "getRobot(uint256)": {
        "params": {
          "_id": "The ID of the Robot of interest."
        }
      },
      "isApprovedForAll(address,address)": {
        "details": "See {IERC721-isApprovedForAll}."
      },
      "isOwner()": {
        "details": "Returns true if the caller is the current owner."
      },
      "name()": {
        "details": "See {IERC721Metadata-name}."
      },
      "owner()": {
        "details": "Returns the address of the current owner."
      },
      "ownerOf(uint256)": {
        "details": "See {IERC721-ownerOf}."
      },
      "renounceOwnership()": {
        "details": "Leaves the contract without owner. It will not be possible to call `onlyOwner` functions anymore. Can only be called by the current owner. NOTE: Renouncing ownership will leave the contract without an owner, thereby removing any functionality that is only available to the owner."
      },
      "safeTransferFrom(address,address,uint256)": {
        "details": "See {IERC721-safeTransferFrom}."
      },
      "safeTransferFrom(address,address,uint256,bytes)": {
        "details": "See {IERC721-safeTransferFrom}."
      },
      "setApprovalForAll(address,bool)": {
        "details": "See {IERC721-setApprovalForAll}."
      },
      "supportsInterface(bytes4)": {
        "details": "See {IERC165-supportsInterface}. Time complexity O(1), guaranteed to always use less than 30 000 gas."
      },
      "symbol()": {
        "details": "See {IERC721Metadata-symbol}."
      },
      "tokenByIndex(uint256)": {
        "details": "See {IERC721Enumerable-tokenByIndex}."
      },
      "tokenOfOwner(address)": {
        "details": "See {IERC721Enumerable-tokenOfOwner}."
      },
      "tokenOfOwnerByIndex(address,uint256)": {
        "details": "See {IERC721Enumerable-tokenOfOwnerByIndex}."
      },
      "tokenURI(uint256)": {
        "details": "See {IERC721Metadata-tokenURI}."
      },
      "totalSupply()": {
        "details": "See {IERC721Enumerable-totalSupply}."
      },
      "transferFrom(address,address,uint256)": {
        "details": "See {IERC721-transferFrom}."
      },
      "transferOwnership(address)": {
        "details": "Transfers ownership of the contract to a new account (`newOwner`). Can only be called by the current owner."
      }
    },
    "stateVariables": {
      "robots": {
        "details": "An array containing the Robot struct for all robots in existence. The ID  of each Robot is actually an index into this array."
      }
    },
    "version": 1
  },
  "userdoc": {
    "kind": "user",
    "methods": {
      "getRobot(uint256)": {
        "notice": "Returns all the relevant information about a specific Robot."
      }
    },
    "version": 1
  }
}