{
  "contractName": "RobotCore",
  "abi": [
    {
      "inputs": [
        {
          "internalType": "address",
          "name": "_mekaToken",
          "type": "address"
        }
      ],
      "stateMutability": "nonpayable",
      "type": "constructor"
    },
    {
      "anonymous": false,
      "inputs": [
        {
          "indexed": true,
          "internalType": "address",
          "name": "owner",
          "type": "address"
        },
        {
          "indexed": true,
          "internalType": "address",
          "name": "approved",
          "type": "address"
        },
        {
          "indexed": true,
          "internalType": "uint256",
          "name": "tokenId",
          "type": "uint256"
        }
      ],
      "name": "Approval",
      "type": "event"
    },
    {
      "anonymous": false,
      "inputs": [
        {
          "indexed": true,
          "internalType": "address",
          "name": "owner",
          "type": "address"
        },
        {
          "indexed": true,
          "internalType": "address",
          "name": "operator",
          "type": "address"
        },
        {
          "indexed": false,
          "internalType": "bool",
          "name": "approved",
          "type": "bool"
        }
      ],
      "name": "ApprovalForAll",
      "type": "event"
    },
    {
      "anonymous": false,
      "inputs": [
        {
          "indexed": false,
          "internalType": "address",
          "name": "owner",
          "type": "address"
        },
        {
          "indexed": false,
          "internalType": "uint256",
          "name": "tokenId",
          "type": "uint256"
        },
        {
          "indexed": false,
          "internalType": "uint256",
          "name": "date",
          "type": "uint256"
        }
      ],
      "name": "Birth",
      "type": "event"
    },
    {
      "anonymous": false,
      "inputs": [
        {
          "indexed": false,
          "internalType": "address",
          "name": "from",
          "type": "address"
        },
        {
          "indexed": false,
          "internalType": "uint256[]",
          "name": "robotIds",
          "type": "uint256[]"
        },
        {
          "indexed": false,
          "internalType": "uint256",
          "name": "date",
          "type": "uint256"
        }
      ],
      "name": "MintedRobotFromBundle",
      "type": "event"
    },
    {
      "anonymous": false,
      "inputs": [
        {
          "indexed": true,
          "internalType": "address",
          "name": "previousOwner",
          "type": "address"
        },
        {
          "indexed": true,
          "internalType": "address",
          "name": "newOwner",
          "type": "address"
        }
      ],
      "name": "OwnershipTransferred",
      "type": "event"
    },
    {
      "anonymous": false,
      "inputs": [],
      "name": "Pause",
      "type": "event"
    },
    {
      "anonymous": false,
      "inputs": [
        {
          "indexed": true,
          "internalType": "address",
          "name": "from",
          "type": "address"
        },
        {
          "indexed": true,
          "internalType": "address",
          "name": "to",
          "type": "address"
        },
        {
          "indexed": true,
          "internalType": "uint256",
          "name": "tokenId",
          "type": "uint256"
        }
      ],
      "name": "Transfer",
      "type": "event"
    },
    {
      "anonymous": false,
      "inputs": [],
      "name": "Unpause",
      "type": "event"
    },
    {
      "inputs": [],
      "name": "_marketplaceAddr",
      "outputs": [
        {
          "internalType": "address",
          "name": "",
          "type": "address"
        }
      ],
      "stateMutability": "view",
      "type": "function",
      "constant": true
    },
    {
      "inputs": [],
      "name": "_mekaAddress",
      "outputs": [
        {
          "internalType": "address",
          "name": "",
          "type": "address"
        }
      ],
      "stateMutability": "view",
      "type": "function",
      "constant": true
    },
    {
      "inputs": [],
      "name": "_mekaDeployerAddress",
      "outputs": [
        {
          "internalType": "address",
          "name": "",
          "type": "address"
        }
      ],
      "stateMutability": "view",
      "type": "function",
      "constant": true
    },
    {
      "inputs": [],
      "name": "_mekaDeployerEnabled",
      "outputs": [
        {
          "internalType": "bool",
          "name": "",
          "type": "bool"
        }
      ],
      "stateMutability": "view",
      "type": "function",
      "constant": true
    },
    {
      "inputs": [],
      "name": "_pause",
      "outputs": [
        {
          "internalType": "bool",
          "name": "",
          "type": "bool"
        }
      ],
      "stateMutability": "nonpayable",
      "type": "function"
    },
    {
      "inputs": [],
      "name": "_robotPackageAddress",
      "outputs": [
        {
          "internalType": "address",
          "name": "",
          "type": "address"
        }
      ],
      "stateMutability": "view",
      "type": "function",
      "constant": true
    },
    {
      "inputs": [],
      "name": "_unpause",
      "outputs": [
        {
          "internalType": "bool",
          "name": "",
          "type": "bool"
        }
      ],
      "stateMutability": "nonpayable",
      "type": "function"
    },
    {
      "inputs": [
        {
          "internalType": "address",
          "name": "to",
          "type": "address"
        },
        {
          "internalType": "uint256",
          "name": "tokenId",
          "type": "uint256"
        }
      ],
      "name": "approve",
      "outputs": [],
      "stateMutability": "nonpayable",
      "type": "function"
    },
    {
      "inputs": [
        {
          "internalType": "address",
          "name": "owner",
          "type": "address"
        }
      ],
      "name": "balanceOf",
      "outputs": [
        {
          "internalType": "uint256",
          "name": "",
          "type": "uint256"
        }
      ],
      "stateMutability": "view",
      "type": "function",
      "constant": true
    },
    {
      "inputs": [],
      "name": "baseURI",
      "outputs": [
        {
          "internalType": "string",
          "name": "",
          "type": "string"
        }
      ],
      "stateMutability": "view",
      "type": "function",
      "constant": true
    },
    {
      "inputs": [
        {
          "internalType": "uint256",
          "name": "tokenId",
          "type": "uint256"
        }
      ],
      "name": "getApproved",
      "outputs": [
        {
          "internalType": "address",
          "name": "",
          "type": "address"
        }
      ],
      "stateMutability": "view",
      "type": "function",
      "constant": true
    },
    {
      "inputs": [
        {
          "internalType": "address",
          "name": "owner",
          "type": "address"
        },
        {
          "internalType": "address",
          "name": "operator",
          "type": "address"
        }
      ],
      "name": "isApprovedForAll",
      "outputs": [
        {
          "internalType": "bool",
          "name": "",
          "type": "bool"
        }
      ],
      "stateMutability": "view",
      "type": "function",
      "constant": true
    },
    {
      "inputs": [],
      "name": "isBurn",
      "outputs": [
        {
          "internalType": "bool",
          "name": "",
          "type": "bool"
        }
      ],
      "stateMutability": "view",
      "type": "function",
      "constant": true
    },
    {
      "inputs": [],
      "name": "isOwner",
      "outputs": [
        {
          "internalType": "bool",
          "name": "",
          "type": "bool"
        }
      ],
      "stateMutability": "view",
      "type": "function",
      "constant": true
    },
    {
      "inputs": [],
      "name": "isRobotFactoryOpen",
      "outputs": [
        {
          "internalType": "bool",
          "name": "",
          "type": "bool"
        }
      ],
      "stateMutability": "view",
      "type": "function",
      "constant": true
    },
    {
      "inputs": [],
      "name": "name",
      "outputs": [
        {
          "internalType": "string",
          "name": "",
          "type": "string"
        }
      ],
      "stateMutability": "view",
      "type": "function",
      "constant": true
    },
    {
      "inputs": [],
      "name": "owner",
      "outputs": [
        {
          "internalType": "address",
          "name": "",
          "type": "address"
        }
      ],
      "stateMutability": "view",
      "type": "function",
      "constant": true
    },
    {
      "inputs": [
        {
          "internalType": "uint256",
          "name": "tokenId",
          "type": "uint256"
        }
      ],
      "name": "ownerOf",
      "outputs": [
        {
          "internalType": "address",
          "name": "",
          "type": "address"
        }
      ],
      "stateMutability": "view",
      "type": "function",
      "constant": true
    },
    {
      "inputs": [],
      "name": "paused",
      "outputs": [
        {
          "internalType": "bool",
          "name": "",
          "type": "bool"
        }
      ],
      "stateMutability": "view",
      "type": "function",
      "constant": true
    },
    {
      "inputs": [],
      "name": "renounceOwnership",
      "outputs": [],
      "stateMutability": "nonpayable",
      "type": "function"
    },
    {
      "inputs": [
        {
          "internalType": "address",
          "name": "from",
          "type": "address"
        },
        {
          "internalType": "address",
          "name": "to",
          "type": "address"
        },
        {
          "internalType": "uint256",
          "name": "tokenId",
          "type": "uint256"
        }
      ],
      "name": "safeTransferFrom",
      "outputs": [],
      "stateMutability": "nonpayable",
      "type": "function"
    },
    {
      "inputs": [
        {
          "internalType": "address",
          "name": "from",
          "type": "address"
        },
        {
          "internalType": "address",
          "name": "to",
          "type": "address"
        },
        {
          "internalType": "uint256",
          "name": "tokenId",
          "type": "uint256"
        },
        {
          "internalType": "bytes",
          "name": "_data",
          "type": "bytes"
        }
      ],
      "name": "safeTransferFrom",
      "outputs": [],
      "stateMutability": "nonpayable",
      "type": "function"
    },
    {
      "inputs": [
        {
          "internalType": "address",
          "name": "operator",
          "type": "address"
        },
        {
          "internalType": "bool",
          "name": "approved",
          "type": "bool"
        }
      ],
      "name": "setApprovalForAll",
      "outputs": [],
      "stateMutability": "nonpayable",
      "type": "function"
    },
    {
      "inputs": [
        {
          "internalType": "bytes4",
          "name": "interfaceId",
          "type": "bytes4"
        }
      ],
      "name": "supportsInterface",
      "outputs": [
        {
          "internalType": "bool",
          "name": "",
          "type": "bool"
        }
      ],
      "stateMutability": "view",
      "type": "function",
      "constant": true
    },
    {
      "inputs": [],
      "name": "symbol",
      "outputs": [
        {
          "internalType": "string",
          "name": "",
          "type": "string"
        }
      ],
      "stateMutability": "view",
      "type": "function",
      "constant": true
    },
    {
      "inputs": [
        {
          "internalType": "uint256",
          "name": "index",
          "type": "uint256"
        }
      ],
      "name": "tokenByIndex",
      "outputs": [
        {
          "internalType": "uint256",
          "name": "",
          "type": "uint256"
        }
      ],
      "stateMutability": "view",
      "type": "function",
      "constant": true
    },
    {
      "inputs": [
        {
          "internalType": "address",
          "name": "owner",
          "type": "address"
        }
      ],
      "name": "tokenOfOwner",
      "outputs": [
        {
          "internalType": "uint256[]",
          "name": "",
          "type": "uint256[]"
        }
      ],
      "stateMutability": "view",
      "type": "function",
      "constant": true
    },
    {
      "inputs": [
        {
          "internalType": "address",
          "name": "owner",
          "type": "address"
        },
        {
          "internalType": "uint256",
          "name": "index",
          "type": "uint256"
        }
      ],
      "name": "tokenOfOwnerByIndex",
      "outputs": [
        {
          "internalType": "uint256",
          "name": "",
          "type": "uint256"
        }
      ],
      "stateMutability": "view",
      "type": "function",
      "constant": true
    },
    {
      "inputs": [
        {
          "internalType": "uint256",
          "name": "tokenId",
          "type": "uint256"
        }
      ],
      "name": "tokenURI",
      "outputs": [
        {
          "internalType": "string",
          "name": "",
          "type": "string"
        }
      ],
      "stateMutability": "view",
      "type": "function",
      "constant": true
    },
    {
      "inputs": [],
      "name": "totalSupply",
      "outputs": [
        {
          "internalType": "uint256",
          "name": "",
          "type": "uint256"
        }
      ],
      "stateMutability": "view",
      "type": "function",
      "constant": true
    },
    {
      "inputs": [
        {
          "internalType": "address",
          "name": "from",
          "type": "address"
        },
        {
          "internalType": "address",
          "name": "to",
          "type": "address"
        },
        {
          "internalType": "uint256",
          "name": "tokenId",
          "type": "uint256"
        }
      ],
      "name": "transferFrom",
      "outputs": [],
      "stateMutability": "nonpayable",
      "type": "function"
    },
    {
      "inputs": [
        {
          "internalType": "address",
          "name": "newOwner",
          "type": "address"
        }
      ],
      "name": "transferOwnership",
      "outputs": [],
      "stateMutability": "nonpayable",
      "type": "function"
    },
    {
      "inputs": [
        {
          "internalType": "enum RobotCore.Rarity",
          "name": "rarity",
          "type": "uint8"
        },
        {
          "internalType": "uint8",
          "name": "percentage",
          "type": "uint8"
        }
      ],
      "name": "setBaseRarity",
      "outputs": [],
      "stateMutability": "nonpayable",
      "type": "function"
    },
    {
      "inputs": [
        {
          "internalType": "enum RobotCore.Rarity",
          "name": "rarity",
          "type": "uint8"
        },
        {
          "internalType": "uint8",
          "name": "percentage",
          "type": "uint8"
        }
      ],
      "name": "setBox2Rarity",
      "outputs": [],
      "stateMutability": "nonpayable",
      "type": "function"
    },
    {
      "inputs": [
        {
          "internalType": "enum RobotCore.Rarity",
          "name": "rarity",
          "type": "uint8"
        },
        {
          "internalType": "uint8",
          "name": "percentage",
          "type": "uint8"
        }
      ],
      "name": "setBox3Rarity",
      "outputs": [],
      "stateMutability": "nonpayable",
      "type": "function"
    },
    {
      "inputs": [
        {
          "internalType": "address",
          "name": "_address",
          "type": "address"
        }
      ],
      "name": "setMarketplaceAddress",
      "outputs": [],
      "stateMutability": "nonpayable",
      "type": "function"
    },
    {
      "inputs": [
        {
          "internalType": "address",
          "name": "_address",
          "type": "address"
        }
      ],
      "name": "setRobotPackageAddress",
      "outputs": [],
      "stateMutability": "nonpayable",
      "type": "function"
    },
    {
      "inputs": [
        {
          "internalType": "address",
          "name": "_mekaDeployAddr",
          "type": "address"
        }
      ],
      "name": "setMekaDeployerAddress",
      "outputs": [],
      "stateMutability": "nonpayable",
      "type": "function"
    },
    {
      "inputs": [],
      "name": "setMekaDeployerEnabled",
      "outputs": [],
      "stateMutability": "nonpayable",
      "type": "function"
    },
    {
      "inputs": [
        {
          "internalType": "uint256",
          "name": "_price",
          "type": "uint256"
        }
      ],
      "name": "setRobotPrice",
      "outputs": [],
      "stateMutability": "nonpayable",
      "type": "function"
    },
    {
      "inputs": [
        {
          "internalType": "address",
          "name": "_addr",
          "type": "address"
        }
      ],
      "name": "setTokenAddress",
      "outputs": [],
      "stateMutability": "nonpayable",
      "type": "function"
    },
    {
      "inputs": [
        {
          "internalType": "uint256",
          "name": "tokenId",
          "type": "uint256"
        },
        {
          "internalType": "string",
          "name": "_tokenURI",
          "type": "string"
        }
      ],
      "name": "setTokenURI",
      "outputs": [],
      "stateMutability": "nonpayable",
      "type": "function"
    },
    {
      "inputs": [],
      "name": "updateIsBurn",
      "outputs": [],
      "stateMutability": "nonpayable",
      "type": "function"
    },
    {
      "inputs": [],
      "name": "updateRobotFactory",
      "outputs": [],
      "stateMutability": "nonpayable",
      "type": "function"
    },
    {
      "inputs": [],
      "name": "withdrawBalance",
      "outputs": [],
      "stateMutability": "nonpayable",
      "type": "function"
    },
    {
      "inputs": [],
      "name": "withdrawBnb",
      "outputs": [],
      "stateMutability": "nonpayable",
      "type": "function"
    },
    {
      "inputs": [
        {
          "internalType": "address",
          "name": "_owner",
          "type": "address"
        },
        {
          "internalType": "uint256",
          "name": "_robotId",
          "type": "uint256"
        },
        {
          "internalType": "uint256",
          "name": "_pieceId",
          "type": "uint256"
        },
        {
          "internalType": "uint256",
          "name": "_amount",
          "type": "uint256"
        }
      ],
      "name": "attachPiece",
      "outputs": [],
      "stateMutability": "nonpayable",
      "type": "function"
    },
    {
      "inputs": [
        {
          "internalType": "address",
          "name": "_owner",
          "type": "address"
        },
        {
          "internalType": "uint256",
          "name": "_amount",
          "type": "uint256"
        },
        {
          "internalType": "string",
          "name": "tokenURI",
          "type": "string"
        }
      ],
      "name": "createRobot",
      "outputs": [],
      "stateMutability": "nonpayable",
      "type": "function"
    },
    {
      "inputs": [
        {
          "internalType": "uint256",
          "name": "_tokenId",
          "type": "uint256"
        },
        {
          "internalType": "uint256",
          "name": "_startingPrice",
          "type": "uint256"
        }
      ],
      "name": "createSale",
      "outputs": [],
      "stateMutability": "nonpayable",
      "type": "function"
    },
    {
      "inputs": [
        {
          "internalType": "uint256",
          "name": "_tokenId",
          "type": "uint256"
        }
      ],
      "name": "burnRobot",
      "outputs": [],
      "stateMutability": "nonpayable",
      "type": "function"
    },
    {
      "inputs": [
        {
          "internalType": "uint256",
          "name": "_id",
          "type": "uint256"
        }
      ],
      "name": "getRobot",
      "outputs": [
        {
          "components": [
            {
              "internalType": "uint256",
              "name": "robotId",
              "type": "uint256"
            },
            {
              "internalType": "enum RobotCore.Rarity",
              "name": "rarity",
              "type": "uint8"
            },
            {
              "internalType": "enum RobotCore.RobotType",
              "name": "robotType",
              "type": "uint8"
            },
            {
              "internalType": "uint256[]",
              "name": "pieces",
              "type": "uint256[]"
            },
            {
              "internalType": "uint64",
              "name": "birthTime",
              "type": "uint64"
            }
          ],
          "internalType": "struct RobotCore.Robot",
          "name": "robot",
          "type": "tuple"
        }
      ],
      "stateMutability": "view",
      "type": "function",
      "constant": true
    },
    {
      "inputs": [],
      "name": "getBalance",
      "outputs": [
        {
          "internalType": "uint256",
          "name": "",
          "type": "uint256"
        }
      ],
      "stateMutability": "view",
      "type": "function",
      "constant": true
    },
    {
      "inputs": [],
      "name": "pause",
      "outputs": [],
      "stateMutability": "nonpayable",
      "type": "function"
    },
    {
      "inputs": [],
      "name": "unpause",
      "outputs": [],
      "stateMutability": "nonpayable",
      "type": "function"
    },
    {
      "inputs": [
        {
          "internalType": "address",
          "name": "_owner",
          "type": "address"
        },
        {
          "internalType": "uint8",
          "name": "packageType",
          "type": "uint8"
        },
        {
          "internalType": "uint8",
          "name": "robotQuantity",
          "type": "uint8"
        }
      ],
      "name": "createRobotFromBundle",
      "outputs": [],
      "stateMutability": "nonpayable",
      "type": "function"
    }
  ],
  "bytecode": "0x6080604052600b805460ff60a01b191690556001600e55674563918244f40000600f556729a2241af62c00006011553480156200003b57600080fd5b506040516200465d3803806200465d8339810160408190526200005e91620006f4565b60408051808201825260078082526613595ad8589bdd60ca1b602080840182905284518086019095529184529083015290620000a16301ffc9a760e01b620005ca565b8151620000b69060079060208501906200064e565b508051620000cc9060089060208401906200064e565b50620000df6380ac58cd60e01b620005ca565b620000f1635b5e139f60e01b620005ca565b6200010363780e9d6360e01b620005ca565b5050600b80546001600160a01b0319163390811790915560405181906000907f8be0079c531659141344cd1fd0a4f28419497f9722a3daafe3b4186f6b6457e0908290a3506001600c5560178054601980546001600160a01b0319166001600160a01b03851617905561ffff60a01b191661010160a01b17905560316012600080600581111562000198576200019862000726565b815260200190815260200160002060006101000a81548160ff021916908360ff16021790555060456012600060016005811115620001da57620001da62000726565b6005811115620001ee57620001ee62000726565b815260200190815260200160002060006101000a81548160ff021916908360ff1602179055506054601260006002600581111562000230576200023062000726565b600581111562000244576200024462000726565b815260200190815260200160002060006101000a81548160ff021916908360ff160217905550605e601260006003600581111562000286576200028662000726565b60058111156200029a576200029a62000726565b815260200190815260200160002060006101000a81548160ff021916908360ff16021790555060626012600060046005811115620002dc57620002dc62000726565b6005811115620002f057620002f062000726565b815260200190815260200160002060006101000a81548160ff021916908360ff16021790555060636012600060058081111562000331576200033162000726565b600581111562000345576200034562000726565b815260200190815260200160002060006101000a81548160ff021916908360ff1602179055506045601360006002600581111562000387576200038762000726565b60058111156200039b576200039b62000726565b815260200190815260200160002060006101000a81548160ff021916908360ff16021790555060596013600060036005811115620003dd57620003dd62000726565b6005811115620003f157620003f162000726565b815260200190815260200160002060006101000a81548160ff021916908360ff1602179055506060601360006004600581111562000433576200043362000726565b600581111562000447576200044762000726565b815260200190815260200160002060006101000a81548160ff021916908360ff16021790555060636013600060058081111562000488576200048862000726565b60058111156200049c576200049c62000726565b815260200190815260200160002060006101000a81548160ff021916908360ff16021790555060406014600060036005811115620004de57620004de62000726565b6005811115620004f257620004f262000726565b815260200190815260200160002060006101000a81548160ff021916908360ff160217905550605d601460006004600581111562000534576200053462000726565b600581111562000548576200054862000726565b815260200190815260200160002060006101000a81548160ff021916908360ff16021790555060636014600060058081111562000589576200058962000726565b60058111156200059d576200059d62000726565b815260200190815260200160002060006101000a81548160ff021916908360ff1602179055505062000779565b6001600160e01b03198082161415620006295760405162461bcd60e51b815260206004820152601c60248201527f4552433136353a20696e76616c696420696e7465726661636520696400000000604482015260640160405180910390fd5b6001600160e01b0319166000908152602081905260409020805460ff19166001179055565b8280546200065c906200073c565b90600052602060002090601f016020900481019282620006805760008555620006cb565b82601f106200069b57805160ff1916838001178555620006cb565b82800160010185558215620006cb579182015b82811115620006cb578251825591602001919060010190620006ae565b50620006d9929150620006dd565b5090565b5b80821115620006d95760008155600101620006de565b6000602082840312156200070757600080fd5b81516001600160a01b03811681146200071f57600080fd5b9392505050565b634e487b7160e01b600052602160045260246000fd5b600181811c908216806200075157607f821691505b602082108114156200077357634e487b7160e01b600052602260045260246000fd5b50919050565b613ed480620007896000396000f3fe608060405234801561001057600080fd5b506004361061035c5760003560e01c80636019061b116101d3578063a22cb46511610104578063c569a794116100a2578063e985e9c51161007c578063e985e9c514610710578063ecc835861461074c578063f2fde38b1461075f578063fc8234cb1461077257600080fd5b8063c569a794146106d6578063c87b56dd146106e9578063c89e08f7146106fc57600080fd5b8063b47cc556116100de578063b47cc55614610695578063b88d4fde146106a8578063bbc1bd90146106bb578063c090dfe3146106ce57600080fd5b8063a22cb46514610667578063a7683cb91461067a578063b0bad4051461068d57600080fd5b8063789d9a86116101715780638da5cb5b1161014b5780638da5cb5b1461061b5780638f32d59b1461062c57806395d89b411461063f57806395e264221461064757600080fd5b8063789d9a86146105ed5780637de166b1146106005780638456cb591461061357600080fd5b80636c0360eb116101ad5780636c0360eb146105b75780636ce027d9146105bf57806370a08231146105d2578063715018a6146105e557600080fd5b80636019061b1461057e57806360c9f222146105915780636352211e146105a457600080fd5b80631da0603a116102ad57806334175e1b1161024b57806347049c841161022557806347049c841461053c5780634f6ccce71461054f5780635c975abb146105625780635fd8c7101461057657600080fd5b806334175e1b1461050e5780633f4ba83a1461052157806342842e0e1461052957600080fd5b8063294cdf0d11610287578063294cdf0d146104bf5780632d067d4c146104df5780632f745c59146104f3578063320b2ad91461050657600080fd5b80631da0603a1461049157806323b872dd1461049957806326a4e8d2146104ac57600080fd5b80630b93c5191161031a57806313a131c7116102f457806313a131c71461044f578063162094c4146104625780631739e5da1461047557806318160ddd1461048957600080fd5b80630b93c519146104135780630d6516d91461042657806312065fe01461043957600080fd5b806276f42c1461036157806301ffc9a7146103765780630671ddfe146103b857806306fdde03146103c0578063081812fc146103d5578063095ea7b314610400575b600080fd5b61037461036f3660046135d3565b61077a565b005b6103a3610384366004613640565b6001600160e01b03191660009081526020819052604090205460ff1690565b60405190151581526020015b60405180910390f35b61037461090d565b6103c8610958565b6040516103af91906136b5565b6103e86103e33660046136c8565b6109ea565b6040516001600160a01b0390911681526020016103af565b61037461040e3660046136e1565b610a72565b6103746104213660046136c8565b610b83565b6018546103e8906001600160a01b031681565b610441610c6c565b6040519081526020016103af565b61037461045d36600461371c565b610cde565b610374610470366004613755565b610d5a565b6017546103a390600160a81b900460ff1681565b610441610d92565b610374610d9e565b6103746104a736600461379c565b610e74565b6103746104ba3660046137d8565b610ea5565b6104d26104cd3660046137d8565b610ef1565b6040516103af919061382e565b6017546103a390600160a01b900460ff1681565b6104416105013660046136e1565b610fdd565b6103a3611008565b6017546103e8906001600160a01b031681565b61037461108e565b61037461053736600461379c565b6110d6565b6019546103e8906001600160a01b031681565b61044161055d3660046136c8565b6110f1565b600b546103a390600160a01b900460ff1681565b610374611107565b61037461058c366004613841565b6111cb565b61037461059f3660046137d8565b6112d2565b6103e86105b23660046136c8565b61131e565b6103c8611346565b6103746105cd36600461371c565b611355565b6104416105e03660046137d8565b611396565b610374611422565b6103746105fb3660046137d8565b611496565b61037461060e366004613863565b6114e2565b61037461174a565b600b546001600160a01b03166103e8565b600b546001600160a01b031633146103a3565b6103c8611793565b61065a6106553660046136c8565b6117a2565b6040516103af91906138bc565b610374610675366004613948565b6118fb565b61037461068836600461397f565b6119c0565b610374611eb7565b6103746106a33660046137d8565b611f02565b6103746106b63660046139b8565b611f4e565b6016546103e8906001600160a01b031681565b610374611f80565b6103746106e43660046136c8565b611fcb565b6103c86106f73660046136c8565b611ffa565b6016546103a390600160a01b900460ff1681565b6103a361071e366004613a34565b6001600160a01b03918216600090815260066020908152604080832093909416825291909152205460ff1690565b61037461075a36600461371c565b61216b565b61037461076d3660046137d8565b6121ac565b6103a36121df565b601654600160a01b900460ff16156107dc576016546001600160a01b031633146107dc5760405162461bcd60e51b815260206004820152600e60248201526d6e6f74206d656b616465706c6f7960901b60448201526064015b60405180910390fd5b601754600160a81b900460ff166108055760405162461bcd60e51b81526004016107d390613a5e565b600f548210156108485760405162461bcd60e51b815260206004820152600e60248201526d1253959053125108105353d5539560921b60448201526064016107d3565b6019546040516323b872dd60e01b81526001600160a01b03858116600483015230602483015260448201859052909116906323b872dd906064016020604051808303816000875af11580156108a1573d6000803e3d6000fd5b505050506040513d601f19601f820116820180604052508101906108c59190613a8c565b6108ce57600080fd5b600e546108e384826108de61225e565b6123a7565b6108ed8183612675565b600e80549060006108fd83613abf565b919050555050505050565b505050565b600b546001600160a01b031633146109375760405162461bcd60e51b81526004016107d390613ada565b6017805460ff60a81b198116600160a81b9182900460ff1615909102179055565b60606007805461096790613b0f565b80601f016020809104026020016040519081016040528092919081815260200182805461099390613b0f565b80156109e05780601f106109b5576101008083540402835291602001916109e0565b820191906000526020600020905b8154815290600101906020018083116109c357829003601f168201915b5050505050905090565b60006109f5826126fe565b610a565760405162461bcd60e51b815260206004820152602c60248201527f4552433732313a20617070726f76656420717565727920666f72206e6f6e657860448201526b34b9ba32b73a103a37b5b2b760a11b60648201526084016107d3565b506000908152600560205260409020546001600160a01b031690565b6000610a7d8261131e565b9050806001600160a01b0316836001600160a01b03161415610aeb5760405162461bcd60e51b815260206004820152602160248201527f4552433732313a20617070726f76616c20746f2063757272656e74206f776e656044820152603960f91b60648201526084016107d3565b336001600160a01b0382161480610b075750610b07813361071e565b610b795760405162461bcd60e51b815260206004820152603860248201527f4552433732313a20617070726f76652063616c6c6572206973206e6f74206f7760448201527f6e6572206e6f7220617070726f76656420666f7220616c6c000000000000000060648201526084016107d3565b610908838361270b565b601754600160a81b900460ff16610bac5760405162461bcd60e51b81526004016107d390613a5e565b601754600160a01b900460ff161515600114610c035760405162461bcd60e51b8152602060048201526016602482015275109d5c9b9a5b99c81a5cc81b9bdd08185b1b1bddd95960521b60448201526064016107d3565b610c0c8161131e565b6001600160a01b0316336001600160a01b031614610c605760405162461bcd60e51b81526020600482015260116024820152702737ba103a37b5b2b724b21037bbb732b960791b60448201526064016107d3565b610c6981612779565b50565b6019546040516370a0823160e01b81523060048201526000916001600160a01b0316906370a0823190602401602060405180830381865afa158015610cb5573d6000803e3d6000fd5b505050506040513d601f19601f82011682018060405250810190610cd99190613b4a565b905090565b600b546001600160a01b03163314610d085760405162461bcd60e51b81526004016107d390613ada565b8060136000846005811115610d1f57610d1f6138a6565b6005811115610d3057610d306138a6565b815260200190815260200160002060006101000a81548160ff021916908360ff1602179055505050565b600b546001600160a01b03163314610d845760405162461bcd60e51b81526004016107d390613ada565b610d8e8282612675565b5050565b6000610cd960026127f6565b600b546001600160a01b03163314610dc85760405162461bcd60e51b81526004016107d390613ada565b476000610ddd600b546001600160a01b031690565b6001600160a01b03168260405160006040518083038185875af1925050503d8060008114610e27576040519150601f19603f3d011682016040523d82523d6000602084013e610e2c565b606091505b5050905080610d8e5760405162461bcd60e51b81526020600482015260146024820152732330b4b632b2103a379039b2b7321022ba3432b960611b60448201526064016107d3565b610e7e3382612801565b610e9a5760405162461bcd60e51b81526004016107d390613b63565b6109088383836128eb565b600b546001600160a01b03163314610ecf5760405162461bcd60e51b81526004016107d390613ada565b601980546001600160a01b0319166001600160a01b0392909216919091179055565b6001600160a01b038116600090815260016020526040812060609190610f1690612a65565b67ffffffffffffffff811115610f2e57610f2e613527565b604051908082528060200260200182016040528015610f57578160200160208202803683370190505b50905060005b6001600160a01b0384166000908152600160205260409020610f7e90612a65565b811015610fd6576001600160a01b0384166000908152600160205260409020610fa79082612a6f565b828281518110610fb957610fb9613bb4565b602090810291909101015280610fce81613abf565b915050610f5d565b5092915050565b6001600160a01b0382166000908152600160205260408120610fff9083612a6f565b90505b92915050565b600b546000906001600160a01b031633146110355760405162461bcd60e51b81526004016107d390613ada565b600b54600160a01b900460ff161561104c57600080fd5b600b805460ff60a01b1916600160a01b1790556040517f6985a02210a168e66602d3235cb6db0e70f92b3ba4d376a33c0f3d9434bff62590600090a150600190565b600b54600160a01b900460ff166110a457600080fd5b600b546001600160a01b031633146110ce5760405162461bcd60e51b81526004016107d390613ada565b610c696121df565b61090883838360405180602001604052806000815250611f4e565b6000806110ff600284612a7b565b509392505050565b600b546001600160a01b031633146111315760405162461bcd60e51b81526004016107d390613ada565b6019546001600160a01b031663a9059cbb611154600b546001600160a01b031690565b61115c610c6c565b6040516001600160e01b031960e085901b1681526001600160a01b03909216600483015260248201526044016020604051808303816000875af11580156111a7573d6000803e3d6000fd5b505050506040513d601f19601f82011682018060405250810190610c699190613a8c565b600b54600160a01b900460ff16156111e257600080fd5b6111eb8261131e565b6001600160a01b0316336001600160a01b03161461123f5760405162461bcd60e51b81526020600482015260116024820152702737ba103a37b5b2b724b21037bbb732b960791b60448201526064016107d3565b601854611255906001600160a01b03168361270b565b60185460405163be22facd60e01b8152600481018490526000602482018190526044820152606481018390523360848201526001600160a01b039091169063be22facd9060a401600060405180830381600087803b1580156112b657600080fd5b505af11580156112ca573d6000803e3d6000fd5b505050505050565b600b546001600160a01b031633146112fc5760405162461bcd60e51b81526004016107d390613ada565b601680546001600160a01b0319166001600160a01b0392909216919091179055565b600061100282604051806060016040528060298152602001613e566029913960029190612a97565b6060600a805461096790613b0f565b600b546001600160a01b0316331461137f5760405162461bcd60e51b81526004016107d390613ada565b8060146000846005811115610d1f57610d1f6138a6565b60006001600160a01b0382166114015760405162461bcd60e51b815260206004820152602a60248201527f4552433732313a2062616c616e636520717565727920666f7220746865207a65604482015269726f206164647265737360b01b60648201526084016107d3565b6001600160a01b038216600090815260016020526040902061100290612a65565b600b546001600160a01b0316331461144c5760405162461bcd60e51b81526004016107d390613ada565b600b546040516000916001600160a01b0316907f8be0079c531659141344cd1fd0a4f28419497f9722a3daafe3b4186f6b6457e0908390a3600b80546001600160a01b0319169055565b600b546001600160a01b031633146114c05760405162461bcd60e51b81526004016107d390613ada565b601780546001600160a01b0319166001600160a01b0392909216919091179055565b6017546001600160a01b031633146115295760405162461bcd60e51b815260206004820152600a6024820152696e6f742062756e646c6560b01b60448201526064016107d3565b601754600160a81b900460ff166115525760405162461bcd60e51b81526004016107d390613a5e565b60008260ff166003811115611569576115696138a6565b905060008260ff1667ffffffffffffffff81111561158957611589613527565b6040519080825280602002602001820160405280156115b2578160200160208202803683370190505b50905060018260038111156115c9576115c96138a6565b141561161a57600e54816000815181106115e5576115e5613bb4565b60200260200101818152505061160085600e546108de61225e565b600e805490600061161083613abf565b9190505550611708565b600282600381111561162e5761162e6138a6565b14156116a05760005b8360ff1681101561169a57600e5482828151811061165757611657613bb4565b60200260200101818152505061167286600e546108de612aae565b600e805490600061168283613abf565b9190505550808061169290613abf565b915050611637565b50611708565b60005b8360ff1681101561170657600e548282815181106116c3576116c3613bb4565b6020026020010181815250506116de86600e546108de612b43565b600e80549060006116ee83613abf565b919050555080806116fe90613abf565b9150506116a3565b505b7f0163fbc8bbc6c17e611577f692c5492b7e471faace279e1c9b6189402e57e72885824260405161173b93929190613bca565b60405180910390a15050505050565b600b54600160a01b900460ff161561176157600080fd5b600b546001600160a01b0316331461178b5760405162461bcd60e51b81526004016107d390613ada565b610c69611008565b60606008805461096790613b0f565b6117d56040805160a081019091526000808252602082019081526020016000815260606020820152600060409091015290565b600d6117e2600184613bfe565b815481106117f2576117f2613bb4565b90600052602060002090600402016040518060a0016040529081600082015481526020016001820160009054906101000a900460ff166005811115611839576118396138a6565b600581111561184a5761184a6138a6565b81526020016001820160019054906101000a900460ff166002811115611872576118726138a6565b6002811115611883576118836138a6565b8152602001600282018054806020026020016040519081016040528092919081815260200182805480156118d657602002820191906000526020600020905b8154815260200190600101908083116118c2575b50505091835250506003919091015467ffffffffffffffff1660209091015292915050565b6001600160a01b0382163314156119545760405162461bcd60e51b815260206004820152601960248201527f4552433732313a20617070726f766520746f2063616c6c65720000000000000060448201526064016107d3565b3360008181526006602090815260408083206001600160a01b03871680855290835292819020805460ff191686151590811790915590519081529192917f17307eab39ab6107e8899845ad3d59bd9653f200f220920489ca2b5937696c31910160405180910390a35050565b601654600160a01b900460ff1615611c69576016546001600160a01b03163314611a1d5760405162461bcd60e51b815260206004820152600e60248201526d6e6f74206d656b616465706c6f7960901b60448201526064016107d3565b601754600160a81b900460ff16611a465760405162461bcd60e51b81526004016107d390613a5e565b601154811015611a895760405162461bcd60e51b815260206004820152600e60248201526d616d6f756e7420746f6f206c6f7760901b60448201526064016107d3565b611a928361131e565b6001600160a01b0316326001600160a01b031614611ae45760405162461bcd60e51b815260206004820152600f60248201526e3737ba103937b137ba1037bbb732b960891b60448201526064016107d3565b6000838152601560205260409020600590611afe90612a65565b10611b405760405162461bcd60e51b81526020600482015260126024820152716e6f20736c6f747320617661696c61626c6560701b60448201526064016107d3565b6019546040516323b872dd60e01b81526001600160a01b03868116600483015230602483015260448201849052909116906323b872dd906064016020604051808303816000875af1158015611b99573d6000803e3d6000fd5b505050506040513d601f19601f82011682018060405250810190611bbd9190613a8c565b611bc657600080fd5b6000600d611bd5600186613bfe565b81548110611be557611be5613bb4565b90600052602060002090600402019050611c1a8360156000878152602001908152602001600020612b9b90919063ffffffff16565b5082816002016001611c3d60156000898152602001908152602001600020612a65565b611c479190613bfe565b81548110611c5757611c57613bb4565b60009182526020909120015550611eb1565b601754600160a81b900460ff16611c925760405162461bcd60e51b81526004016107d390613a5e565b601154811015611cd55760405162461bcd60e51b815260206004820152600e60248201526d616d6f756e7420746f6f206c6f7760901b60448201526064016107d3565b611cde8361131e565b6001600160a01b0316326001600160a01b031614611d305760405162461bcd60e51b815260206004820152600f60248201526e3737ba103937b137ba1037bbb732b960891b60448201526064016107d3565b6000838152601560205260409020600590611d4a90612a65565b10611d8c5760405162461bcd60e51b81526020600482015260126024820152716e6f20736c6f747320617661696c61626c6560701b60448201526064016107d3565b6019546040516323b872dd60e01b81526001600160a01b03868116600483015230602483015260448201849052909116906323b872dd906064016020604051808303816000875af1158015611de5573d6000803e3d6000fd5b505050506040513d601f19601f82011682018060405250810190611e099190613a8c565b611e1257600080fd5b6000600d611e21600186613bfe565b81548110611e3157611e31613bb4565b90600052602060002090600402019050611e668360156000878152602001908152602001600020612b9b90919063ffffffff16565b5082816002016001611e8960156000898152602001908152602001600020612a65565b611e939190613bfe565b81548110611ea357611ea3613bb4565b600091825260209091200155505b50505050565b600b546001600160a01b03163314611ee15760405162461bcd60e51b81526004016107d390613ada565b6017805460ff60a01b198116600160a01b9182900460ff1615909102179055565b600b546001600160a01b03163314611f2c5760405162461bcd60e51b81526004016107d390613ada565b601880546001600160a01b0319166001600160a01b0392909216919091179055565b611f583383612801565b611f745760405162461bcd60e51b81526004016107d390613b63565b611eb184848484612ba7565b600b546001600160a01b03163314611faa5760405162461bcd60e51b81526004016107d390613ada565b6016805460ff60a01b198116600160a01b9182900460ff1615909102179055565b600b546001600160a01b03163314611ff55760405162461bcd60e51b81526004016107d390613ada565b600f55565b6060612005826126fe565b6120695760405162461bcd60e51b815260206004820152602f60248201527f4552433732314d657461646174613a2055524920717565727920666f72206e6f60448201526e3732bc34b9ba32b73a103a37b5b2b760891b60648201526084016107d3565b6000828152600960205260408120805461208290613b0f565b80601f01602080910402602001604051908101604052809291908181526020018280546120ae90613b0f565b80156120fb5780601f106120d0576101008083540402835291602001916120fb565b820191906000526020600020905b8154815290600101906020018083116120de57829003601f168201915b50505050509050600a805461210f90613b0f565b1515905061211d5792915050565b80511561214f57600a81604051602001612138929190613c31565b604051602081830303815290604052915050919050565b600a61215a84612bda565b604051602001612138929190613c31565b600b546001600160a01b031633146121955760405162461bcd60e51b81526004016107d390613ada565b8060126000846005811115610d1f57610d1f6138a6565b600b546001600160a01b031633146121d65760405162461bcd60e51b81526004016107d390613ada565b610c6981612cf1565b600b546000906001600160a01b0316331461220c5760405162461bcd60e51b81526004016107d390613ada565b600b54600160a01b900460ff1661222257600080fd5b600b805460ff60a01b191690556040517f7805862f689e2f13df9f062ff482ad3ad112aca9e0847911ed832e158c525b3390600090a150600190565b60008061226b6064612db2565b6000805260126020527f7e7fa33969761a458e04f477e039a608702b4f924981d6653935a8319a08ad7b5490915060ff1681116122aa57600091505090565b600160005260126020527f71a67924699a20698523213e55fe499d539379d7769cd5567e2c45d583f815a35460ff1681116122e757600191505090565b600260005260126020527f8e1fee8c88a9e04123b21e90cae2727a7715bf522a1e46eb5934ccd05203a6b25460ff16811161232457600291505090565b600360005260126020527f0f36ad39aee03e7108cc48f54934702a5f0d4066f10344cebf8198978d86976a5460ff16811161236157600391505090565b6012600060045b6005811115612379576123796138a6565b815260208101919091526040016000205460ff16811161239b57600491505090565b600591505090565b5090565b6001600160a01b0383166123fd5760405162461bcd60e51b815260206004820181905260248201527f4552433732313a206d696e7420746f20746865207a65726f206164647265737360448201526064016107d3565b612406826126fe565b156124535760405162461bcd60e51b815260206004820152601c60248201527f4552433732313a20746f6b656e20616c7265616479206d696e7465640000000060448201526064016107d3565b60006040518060a00160405280848152602001836005811115612478576124786138a6565b81526020016124876003612db2565b6002811115612498576124986138a6565b60028111156124a9576124a96138a6565b815260408051600580825260c08201909252602092830192909190820160a08036833750505081524267ffffffffffffffff16602091820152600d80546001808201835560009290925283517fd7b6990105719101dabeb77144f2a3385c8033acd3af97e9423a695e81ad1eb56004909202918201908155928401517fd7b6990105719101dabeb77144f2a3385c8033acd3af97e9423a695e81ad1eb6909101805494955085949192909160ff19169083600581111561256b5761256b6138a6565b0217905550604082015160018201805461ff001916610100836002811115612595576125956138a6565b0217905550606082015180516125b591600284019160209091019061343c565b5060808201518160030160006101000a81548167ffffffffffffffff021916908367ffffffffffffffff1602179055505050612601848460405180602001604052806000815250612e22565b604080516001600160a01b038616815260208101859052428183015290517f393ccba6479926a7c4a6471a3b4584229e2df48a1858c8caf57680927dced5ff9181900360600190a160405183906001600160a01b03861690600090600080516020613e7f833981519152908290a450505050565b61267e826126fe565b6126df5760405162461bcd60e51b815260206004820152602c60248201527f4552433732314d657461646174613a2055524920736574206f66206e6f6e657860448201526b34b9ba32b73a103a37b5b2b760a11b60648201526084016107d3565b6000828152600960209081526040909120825161090892840190613483565b6000611002600283612e55565b600081815260056020526040902080546001600160a01b0319166001600160a01b03841690811790915581906127408261131e565b6001600160a01b03167f8c5be1e5ebec7d5bd14f71427d1e84f3dd0314c0f7b2291e5b200ac8c7c3b92560405160405180910390a45050565b60006127848261131e565b905061279281600084612e61565b61279d60008361270b565b6001600160a01b03811660009081526001602052604090206127bf9083612e78565b506127cb600283612e84565b5060405182906000906001600160a01b03841690600080516020613e7f833981519152908390a45050565b600061100282612e90565b600061280c826126fe565b61286d5760405162461bcd60e51b815260206004820152602c60248201527f4552433732313a206f70657261746f7220717565727920666f72206e6f6e657860448201526b34b9ba32b73a103a37b5b2b760a11b60648201526084016107d3565b60006128788361131e565b9050806001600160a01b0316846001600160a01b031614806128b35750836001600160a01b03166128a8846109ea565b6001600160a01b0316145b806128e357506001600160a01b0380821660009081526006602090815260408083209388168352929052205460ff165b949350505050565b826001600160a01b03166128fe8261131e565b6001600160a01b0316146129665760405162461bcd60e51b815260206004820152602960248201527f4552433732313a207472616e73666572206f6620746f6b656e2074686174206960448201526839903737ba1037bbb760b91b60648201526084016107d3565b6001600160a01b0382166129c85760405162461bcd60e51b8152602060048201526024808201527f4552433732313a207472616e7366657220746f20746865207a65726f206164646044820152637265737360e01b60648201526084016107d3565b6129d3838383612e61565b6129de60008261270b565b6001600160a01b0383166000908152600160205260409020612a009082612e78565b506001600160a01b0382166000908152600160205260409020612a239082612b9b565b50612a3060028284612e9b565b5080826001600160a01b0316846001600160a01b0316600080516020613e7f83398151915260405160405180910390a4505050565b6000611002825490565b6000610fff8383612eb1565b6000808080612a8a8686612edb565b9097909650945050505050565b6000612aa4848484612f06565b90505b9392505050565b600080612abb6064612db2565b600260005260136020527f0b9d2c0c271bb30544eb78c59bdaebdae2728e5f65814c07768a0abe90ed19235490915060ff168111612afb57600291505090565b600360005260136020527f0d2a6872ef858a7f8ead18dc4f3f2e8d35c853d47e2816cbb9cdd49202554e0c5460ff168111612b3857600391505090565b601360006004612368565b600080612b506064612db2565b600360005260146020527f63d87a887046e0430be80fdeb014107d7198c879cbf2cddf39a6df195c86cb385490915060ff168111612b9057600391505090565b601460006004612368565b6000610fff8383612f49565b612bb28484846128eb565b612bbe84848484612f98565b611eb15760405162461bcd60e51b81526004016107d390613cd8565b606081612bfe5750506040805180820190915260018152600360fc1b602082015290565b8160005b8115612c285780612c1281613abf565b9150612c219050600a83613d40565b9150612c02565b60008167ffffffffffffffff811115612c4357612c43613527565b6040519080825280601f01601f191660200182016040528015612c6d576020820181803683370190505b5090506000612c7d600184613bfe565b90508593505b8315612ce857612c94600a85613d54565b612c9f906030613d68565b60f81b8282612cad81613d80565b935081518110612cbf57612cbf613bb4565b60200101906001600160f81b031916908160001a905350612ce1600a85613d40565b9350612c83565b50949350505050565b6001600160a01b038116612d565760405162461bcd60e51b815260206004820152602660248201527f4f776e61626c653a206e6577206f776e657220697320746865207a65726f206160448201526564647265737360d01b60648201526084016107d3565b600b546040516001600160a01b038084169216907f8be0079c531659141344cd1fd0a4f28419497f9722a3daafe3b4186f6b6457e090600090a3600b80546001600160a01b0319166001600160a01b0392909216919091179055565b6010805460009182612dc383613abf565b9091555050601054604080514460208201526bffffffffffffffffffffffff193360601b1691810191909152605481019190915260ff8316906074016040516020818303038152906040528051906020012060001c6110029190613d54565b612e2c8383613069565b612e396000848484612f98565b6109085760405162461bcd60e51b81526004016107d390613cd8565b6000610fff838361317b565b600b54600160a01b900460ff161561090857600080fd5b6000610fff8383613187565b6000610fff838361327a565b600061100282612a65565b6000612aa484846001600160a01b038516613297565b6000826000018281548110612ec857612ec8613bb4565b9060005260206000200154905092915050565b60008080612ee98585612a6f565b600081815260029690960160205260409095205494959350505050565b600082815260028401602052604081205480151580612f2a5750612f2a858561317b565b8390612ce85760405162461bcd60e51b81526004016107d391906136b5565b6000818152600183016020526040812054612f9057508154600181810184556000848152602080822090930184905584548482528286019093526040902091909155611002565b506000611002565b60006001600160a01b0384163b612fb1575060016128e3565b6000613032630a85bd0160e11b33888787604051602401612fd59493929190613d97565b604051602081830303815290604052906001600160e01b0319166020820180516001600160e01b038381831617835250505050604051806060016040528060328152602001613e24603291396001600160a01b03881691906132b4565b905060008180602001905181019061304a9190613dd4565b6001600160e01b031916630a85bd0160e11b1492505050949350505050565b6001600160a01b0382166130bf5760405162461bcd60e51b815260206004820181905260248201527f4552433732313a206d696e7420746f20746865207a65726f206164647265737360448201526064016107d3565b6130c8816126fe565b156131155760405162461bcd60e51b815260206004820152601c60248201527f4552433732313a20746f6b656e20616c7265616479206d696e7465640000000060448201526064016107d3565b61312160008383612e61565b6001600160a01b03821660009081526001602052604090206131439082612b9b565b5061315060028284612e9b565b5060405181906001600160a01b03841690600090600080516020613e7f833981519152908290a45050565b6000610fff83836132c3565b600081815260018301602052604081205480156132705760006131ab600183613bfe565b85549091506000906131bf90600190613bfe565b90508181146132245760008660000182815481106131df576131df613bb4565b906000526020600020015490508087600001848154811061320257613202613bb4565b6000918252602080832090910192909255918252600188019052604090208390555b855486908061323557613235613df1565b600190038181906000526020600020016000905590558560010160008681526020019081526020016000206000905560019350505050611002565b6000915050611002565b60008181526002830160205260408120819055610fff8383612e78565b60008281526002840160205260408120829055612aa48484612b9b565b6060612aa484846000856132db565b60008181526001830160205260408120541515610fff565b60608247101561333c5760405162461bcd60e51b815260206004820152602660248201527f416464726573733a20696e73756666696369656e742062616c616e636520666f6044820152651c8818d85b1b60d21b60648201526084016107d3565b843b61338a5760405162461bcd60e51b815260206004820152601d60248201527f416464726573733a2063616c6c20746f206e6f6e2d636f6e747261637400000060448201526064016107d3565b600080866001600160a01b031685876040516133a69190613e07565b60006040518083038185875af1925050503d80600081146133e3576040519150601f19603f3d011682016040523d82523d6000602084013e6133e8565b606091505b50915091506133f8828286613403565b979650505050505050565b60608315613412575081612aa7565b8251156134225782518084602001fd5b8160405162461bcd60e51b81526004016107d391906136b5565b828054828255906000526020600020908101928215613477579160200282015b8281111561347757825182559160200191906001019061345c565b506123a39291506134f6565b82805461348f90613b0f565b90600052602060002090601f0160209004810192826134b15760008555613477565b82601f106134ca57805160ff1916838001178555613477565b82800160010185558215613477579182018281111561347757825182559160200191906001019061345c565b5b808211156123a357600081556001016134f7565b80356001600160a01b038116811461352257600080fd5b919050565b634e487b7160e01b600052604160045260246000fd5b600067ffffffffffffffff8084111561355857613558613527565b604051601f8501601f19908116603f0116810190828211818310171561358057613580613527565b8160405280935085815286868601111561359957600080fd5b858560208301376000602087830101525050509392505050565b600082601f8301126135c457600080fd5b610fff8383356020850161353d565b6000806000606084860312156135e857600080fd5b6135f18461350b565b925060208401359150604084013567ffffffffffffffff81111561361457600080fd5b613620868287016135b3565b9150509250925092565b6001600160e01b031981168114610c6957600080fd5b60006020828403121561365257600080fd5b8135612aa78161362a565b60005b83811015613678578181015183820152602001613660565b83811115611eb15750506000910152565b600081518084526136a181602086016020860161365d565b601f01601f19169290920160200192915050565b602081526000610fff6020830184613689565b6000602082840312156136da57600080fd5b5035919050565b600080604083850312156136f457600080fd5b6136fd8361350b565b946020939093013593505050565b803560ff8116811461352257600080fd5b6000806040838503121561372f57600080fd5b82356006811061373e57600080fd5b915061374c6020840161370b565b90509250929050565b6000806040838503121561376857600080fd5b82359150602083013567ffffffffffffffff81111561378657600080fd5b613792858286016135b3565b9150509250929050565b6000806000606084860312156137b157600080fd5b6137ba8461350b565b92506137c86020850161350b565b9150604084013590509250925092565b6000602082840312156137ea57600080fd5b610fff8261350b565b600081518084526020808501945080840160005b8381101561382357815187529582019590820190600101613807565b509495945050505050565b602081526000610fff60208301846137f3565b6000806040838503121561385457600080fd5b50508035926020909101359150565b60008060006060848603121561387857600080fd5b6138818461350b565b925061388f6020850161370b565b915061389d6040850161370b565b90509250925092565b634e487b7160e01b600052602160045260246000fd5b602081528151602082015260006020830151600681106138de576138de6138a6565b806040840152506040830151600381106138fa576138fa6138a6565b80606084015250606083015160a0608084015261391a60c08401826137f3565b905067ffffffffffffffff60808501511660a08401528091505092915050565b8015158114610c6957600080fd5b6000806040838503121561395b57600080fd5b6139648361350b565b915060208301356139748161393a565b809150509250929050565b6000806000806080858703121561399557600080fd5b61399e8561350b565b966020860135965060408601359560600135945092505050565b600080600080608085870312156139ce57600080fd5b6139d78561350b565b93506139e56020860161350b565b925060408501359150606085013567ffffffffffffffff811115613a0857600080fd5b8501601f81018713613a1957600080fd5b613a288782356020840161353d565b91505092959194509250565b60008060408385031215613a4757600080fd5b613a508361350b565b915061374c6020840161350b565b6020808252601490820152731c9bd89bdd08199858dd1bdc9e4818db1bdcd95960621b604082015260600190565b600060208284031215613a9e57600080fd5b8151612aa78161393a565b634e487b7160e01b600052601160045260246000fd5b6000600019821415613ad357613ad3613aa9565b5060010190565b6020808252818101527f4f776e61626c653a2063616c6c6572206973206e6f7420746865206f776e6572604082015260600190565b600181811c90821680613b2357607f821691505b60208210811415613b4457634e487b7160e01b600052602260045260246000fd5b50919050565b600060208284031215613b5c57600080fd5b5051919050565b60208082526031908201527f4552433732313a207472616e736665722063616c6c6572206973206e6f74206f6040820152701ddb995c881b9bdc88185c1c1c9bdd9959607a1b606082015260800190565b634e487b7160e01b600052603260045260246000fd5b6001600160a01b0384168152606060208201819052600090613bee908301856137f3565b9050826040830152949350505050565b600082821015613c1057613c10613aa9565b500390565b60008151613c2781856020860161365d565b9290920192915050565b600080845481600182811c915080831680613c4d57607f831692505b6020808410821415613c6d57634e487b7160e01b86526022600452602486fd5b818015613c815760018114613c9257613cbf565b60ff19861689528489019650613cbf565b60008b81526020902060005b86811015613cb75781548b820152908501908301613c9e565b505084890196505b505050505050613ccf8185613c15565b95945050505050565b60208082526032908201527f4552433732313a207472616e7366657220746f206e6f6e20455243373231526560408201527131b2b4bb32b91034b6b83632b6b2b73a32b960711b606082015260800190565b634e487b7160e01b600052601260045260246000fd5b600082613d4f57613d4f613d2a565b500490565b600082613d6357613d63613d2a565b500690565b60008219821115613d7b57613d7b613aa9565b500190565b600081613d8f57613d8f613aa9565b506000190190565b6001600160a01b0385811682528416602082015260408101839052608060608201819052600090613dca90830184613689565b9695505050505050565b600060208284031215613de657600080fd5b8151612aa78161362a565b634e487b7160e01b600052603160045260246000fd5b60008251613e1981846020870161365d565b919091019291505056fe4552433732313a207472616e7366657220746f206e6f6e20455243373231526563656976657220696d706c656d656e7465724552433732313a206f776e657220717565727920666f72206e6f6e6578697374656e7420746f6b656eddf252ad1be2c89b69c2b068fc378daa952ba7f163c4a11628f55a4df523b3efa2646970667358221220262ea30cc5c77fb271c5285d9144d7eb88cf25bdb1bd11ab8ff3d4edfbce8a0664736f6c634300080a0033",
  "immutableReferences": {},
  "source": "// SPDX-License-Identifier: MIT\r\npragma solidity ^0.8.2;\r\n\r\nimport \"./IBEP20.sol\";\r\nimport \"./IMarketplace.sol\";\r\nimport \"./SafeMath.sol\";\r\nimport \"./Ownable.sol\";\r\nimport \"./ERC721.sol\";\r\nimport \"./ERC721Pausable.sol\";\r\nimport \"./EnumerableSet.sol\";\r\nimport \"./EnumerableMap.sol\";\r\nimport \"./IRobotCore.sol\";\r\nimport \"./ReentrancyGuard.sol\";\r\n\r\ncontract RobotCore is Ownable, ERC721Pausable, IRobotCore, ReentrancyGuard {\r\n    using SafeMath for uint256;\r\n    using EnumerableSet for EnumerableSet.UintSet;\r\n    using EnumerableMap for EnumerableMap.UintToAddressMap;\r\n\r\n    struct Robot {\r\n        uint256 robotId; // id of the robot\r\n        Rarity rarity;\r\n        RobotType robotType;\r\n        uint256[] pieces;\r\n        uint64 birthTime; // The timestamp from the block when this Robot came into existence.\r\n    }\r\n\r\n    enum Rarity {\r\n        E,\r\n        D,\r\n        C,\r\n        B,\r\n        A,\r\n        S\r\n    }\r\n\r\n    enum RobotType {\r\n        Tank,\r\n        Stealth,\r\n        Basic\r\n    }\r\n\r\n    enum PackageType {\r\n        Default,\r\n        First,\r\n        Second,\r\n        Third\r\n    }\r\n\r\n    /*** STORAGE ***/\r\n    /// @dev An array containing the Robot struct for all robots in existence. The ID\r\n    ///  of each Robot is actually an index into this array.\r\n    Robot[] robots;\r\n\r\n    event MintedRobotFromBundle(address from, uint256[] robotIds, uint256 date);\r\n\r\n    uint256 private nextRobotTokenId = 1;\r\n    uint256 private robotPrice = 5 * 10**18; // to review\r\n    uint256 private randNonce;\r\n    uint256 private attachPrice = 3 * 10**18;\r\n\r\n    mapping(Rarity => uint8) private _baseRarityPercentage;\r\n    mapping(Rarity => uint8) private _box2RarityPercentage;\r\n    mapping(Rarity => uint8) private _box3RarityPercentage;\r\n\r\n    mapping(uint256 => EnumerableSet.UintSet) private _robotPiecesId;\r\n\r\n    /* SETTABLE VARIABLES */\r\n    address public _mekaDeployerAddress;\r\n    bool public _mekaDeployerEnabled;\r\n    address public _robotPackageAddress;\r\n    bool public isBurn;\r\n    bool public isRobotFactoryOpen;\r\n    address public _marketplaceAddr;\r\n    address public _mekaAddress;\r\n\r\n    constructor(address _mekaToken) ERC721(\"Mekabot\", \"Mekabot\") {\r\n        isBurn = true;\r\n        _mekaAddress = _mekaToken;\r\n        isRobotFactoryOpen = true;\r\n\r\n        _baseRarityPercentage[Rarity.E] = 49;\r\n        _baseRarityPercentage[Rarity.D] = 69;\r\n        _baseRarityPercentage[Rarity.C] = 84;\r\n        _baseRarityPercentage[Rarity.B] = 94;\r\n        _baseRarityPercentage[Rarity.A] = 98;\r\n        _baseRarityPercentage[Rarity.S] = 99;\r\n\r\n        _box2RarityPercentage[Rarity.C] = 69;\r\n        _box2RarityPercentage[Rarity.B] = 89;\r\n        _box2RarityPercentage[Rarity.A] = 96;\r\n        _box2RarityPercentage[Rarity.S] = 99;\r\n\r\n        _box3RarityPercentage[Rarity.B] = 64;\r\n        _box3RarityPercentage[Rarity.A] = 93;\r\n        _box3RarityPercentage[Rarity.S] = 99;\r\n    }\r\n\r\n    function setBaseRarity(Rarity rarity, uint8 percentage) external onlyOwner {\r\n        _baseRarityPercentage[rarity] = percentage;\r\n    }\r\n\r\n    function setBox2Rarity(Rarity rarity, uint8 percentage) external onlyOwner {\r\n        _box2RarityPercentage[rarity] = percentage;\r\n    }\r\n\r\n    function setBox3Rarity(Rarity rarity, uint8 percentage) external onlyOwner {\r\n        _box3RarityPercentage[rarity] = percentage;\r\n    }\r\n\r\n    function setMarketplaceAddress(address _address) external onlyOwner {\r\n        _marketplaceAddr = _address;\r\n    }\r\n\r\n    function setRobotPackageAddress(address _address) external onlyOwner {\r\n        _robotPackageAddress = _address;\r\n    }\r\n\r\n    function setMekaDeployerAddress(address _mekaDeployAddr)\r\n        external\r\n        onlyOwner\r\n    {\r\n        _mekaDeployerAddress = _mekaDeployAddr;\r\n    }\r\n\r\n    function setMekaDeployerEnabled() external onlyOwner {\r\n        _mekaDeployerEnabled = !_mekaDeployerEnabled;\r\n    }\r\n\r\n    function setRobotPrice(uint256 _price) external onlyOwner {\r\n        robotPrice = _price;\r\n    }\r\n\r\n    function setTokenAddress(address _addr) external onlyOwner {\r\n        _mekaAddress = _addr;\r\n    }\r\n\r\n    function setTokenURI(uint256 tokenId, string memory _tokenURI)\r\n        external\r\n        onlyOwner\r\n    {\r\n        _setTokenURI(tokenId, _tokenURI);\r\n    }\r\n\r\n    function updateIsBurn() external onlyOwner {\r\n        isBurn = !isBurn;\r\n    }\r\n\r\n    function updateRobotFactory() external onlyOwner {\r\n        isRobotFactoryOpen = !isRobotFactoryOpen;\r\n    }\r\n\r\n    modifier onlyBundle() {\r\n        require(msg.sender == _robotPackageAddress, \"not bundle\");\r\n        _;\r\n    }\r\n\r\n    modifier robotFactory() {\r\n        require(isRobotFactoryOpen, \"robot factory closed\");\r\n        _;\r\n    }\r\n\r\n    modifier onlyMekaDeploy() {\r\n        if (_mekaDeployerEnabled) {\r\n            require(msg.sender == _mekaDeployerAddress, \"not mekadeploy\");\r\n            _;\r\n        } else {\r\n            _;\r\n        }\r\n    }\r\n\r\n    function withdrawBalance() external onlyOwner {\r\n        IBEP20(_mekaAddress).transfer(owner(), getBalance());\r\n    }\r\n\r\n    function withdrawBnb() external onlyOwner {\r\n        uint256 amount = address(this).balance;\r\n\r\n        (bool success, ) = payable(owner()).call{value: amount}(\"\");\r\n        require(success, \"Failed to send Ether\");\r\n    }\r\n\r\n    function _mintRobot(\r\n        address to,\r\n        uint256 tokenId,\r\n        Rarity rarity\r\n    ) private {\r\n        require(to != address(0), \"ERC721: mint to the zero address\");\r\n        require(!_exists(tokenId), \"ERC721: token already minted\");\r\n\r\n        Robot memory _robot = Robot({\r\n            robotId: tokenId,\r\n            rarity: rarity,\r\n            robotType: RobotType(random(3)),\r\n            pieces: new uint256[](5),\r\n            birthTime: uint64(block.timestamp)\r\n        });\r\n\r\n        robots.push(_robot);\r\n\r\n        _safeMint(to, tokenId, \"\");\r\n\r\n        emit Birth(to, tokenId, block.timestamp);\r\n\r\n        emit Transfer(address(0), to, tokenId);\r\n    }\r\n\r\n    function attachPiece(\r\n        address _owner,\r\n        uint256 _robotId,\r\n        uint256 _pieceId,\r\n        uint256 _amount\r\n    ) external onlyMekaDeploy robotFactory {\r\n        require(_amount >= attachPrice, \"amount too low\");\r\n        require(tx.origin == ownerOf(_robotId), \"not robot owner\");\r\n        require(_robotPiecesId[_robotId].length() < 5, \"no slots available\");\r\n        require(\r\n            IBEP20(_mekaAddress).transferFrom(_owner, address(this), _amount)\r\n        );\r\n\r\n        Robot storage bot = robots[_robotId - 1];\r\n        _robotPiecesId[_robotId].add(_pieceId);\r\n        bot.pieces[_robotPiecesId[_robotId].length() - 1] = _pieceId;\r\n    }\r\n\r\n    function createRobot(\r\n        address _owner,\r\n        uint256 _amount,\r\n        string memory tokenURI\r\n    ) external onlyMekaDeploy robotFactory {\r\n        require(_amount >= robotPrice, \"INVALID AMOUNT\");\r\n        require(\r\n            IBEP20(_mekaAddress).transferFrom(_owner, address(this), _amount)\r\n        );\r\n\r\n        uint256 tokenId = nextRobotTokenId;\r\n\r\n        _mintRobot(_owner, tokenId, randomizeBaseRarity());\r\n        _setTokenURI(tokenId, tokenURI);\r\n\r\n        nextRobotTokenId++;\r\n    }\r\n\r\n    function createSale(uint256 _tokenId, uint256 _startingPrice)\r\n        external\r\n        whenNotPaused\r\n    {\r\n        require(msg.sender == ownerOf(_tokenId), \"Not tokenId owner\");\r\n\r\n        _approve(_marketplaceAddr, _tokenId);\r\n        IMarketplace(_marketplaceAddr).createSale(\r\n            _tokenId,\r\n            0,\r\n            address(0),\r\n            _startingPrice,\r\n            msg.sender\r\n        );\r\n    }\r\n\r\n    function burnRobot(uint256 _tokenId) external robotFactory {\r\n        require(isBurn == true, \"Burning is not allowed\");\r\n        require(msg.sender == ownerOf(_tokenId), \"Not tokenId owner\");\r\n\r\n        _burn(_tokenId); // burn token\r\n    }\r\n\r\n    /// @notice Returns all the relevant information about a specific Robot.\r\n    /// @param _id The ID of the Robot of interest.\r\n    function getRobot(uint256 _id) external view returns (Robot memory robot) {\r\n        return robots[_id - 1];\r\n    }\r\n\r\n    function getBalance() public view returns (uint256) {\r\n        return IBEP20(_mekaAddress).balanceOf(address(this));\r\n    }\r\n\r\n    function pause() public whenNotPaused onlyOwner {\r\n        _pause();\r\n    }\r\n\r\n    function unpause() public whenPaused onlyOwner {\r\n        _unpause();\r\n    }\r\n\r\n    function createRobotFromBundle(\r\n        address _owner,\r\n        uint8 packageType,\r\n        uint8 robotQuantity\r\n    ) external onlyBundle robotFactory {\r\n        PackageType pkgType = PackageType(packageType);\r\n\r\n        uint256[] memory allTokens = new uint256[](robotQuantity);\r\n\r\n        if (pkgType == PackageType.First) {\r\n            allTokens[0] = nextRobotTokenId;\r\n            _mintRobot(_owner, nextRobotTokenId, randomizeBaseRarity());\r\n            nextRobotTokenId++;\r\n        } else if (pkgType == PackageType.Second) {\r\n            for (uint256 index = 0; index < robotQuantity; index++) {\r\n                allTokens[index] = nextRobotTokenId;\r\n                _mintRobot(_owner, nextRobotTokenId, randomizeBox2Rarity());\r\n                nextRobotTokenId++;\r\n            }\r\n        } else {\r\n            for (uint256 index = 0; index < robotQuantity; index++) {\r\n                allTokens[index] = nextRobotTokenId;\r\n                _mintRobot(_owner, nextRobotTokenId, randomizeBox3Rarity());\r\n                nextRobotTokenId++;\r\n            }\r\n        }\r\n\r\n        emit MintedRobotFromBundle(_owner, allTokens, block.timestamp);\r\n    }\r\n\r\n    function random(uint8 _modulus) private returns (uint256) {\r\n        randNonce++;\r\n        return\r\n            uint256(\r\n                keccak256(\r\n                    abi.encodePacked(block.difficulty, msg.sender, randNonce)\r\n                )\r\n            ) % _modulus;\r\n    }\r\n\r\n    function randomizeBaseRarity() private returns (Rarity) {\r\n        uint256 randNumber = random(100);\r\n\r\n        if (randNumber <= _baseRarityPercentage[Rarity.E]) {\r\n            return Rarity.E;\r\n        } else if (randNumber <= _baseRarityPercentage[Rarity.D]) {\r\n            return Rarity.D;\r\n        } else if (randNumber <= _baseRarityPercentage[Rarity.C]) {\r\n            return Rarity.C;\r\n        } else if (randNumber <= _baseRarityPercentage[Rarity.B]) {\r\n            return Rarity.B;\r\n        } else if (randNumber <= _baseRarityPercentage[Rarity.A]) {\r\n            return Rarity.A;\r\n        } else {\r\n            return Rarity.S;\r\n        }\r\n    }\r\n\r\n    function randomizeBox2Rarity() private returns (Rarity) {\r\n        uint256 randNumber = random(100);\r\n\r\n        if (randNumber <= _box2RarityPercentage[Rarity.C]) {\r\n            return Rarity.C;\r\n        } else if (randNumber <= _box2RarityPercentage[Rarity.B]) {\r\n            return Rarity.B;\r\n        } else if (randNumber <= _box2RarityPercentage[Rarity.A]) {\r\n            return Rarity.A;\r\n        } else {\r\n            return Rarity.S;\r\n        }\r\n    }\r\n\r\n    function randomizeBox3Rarity() private returns (Rarity) {\r\n        uint256 randNumber = random(100);\r\n\r\n        if (randNumber <= _box3RarityPercentage[Rarity.B]) {\r\n            return Rarity.B;\r\n        } else if (randNumber <= _box3RarityPercentage[Rarity.A]) {\r\n            return Rarity.A;\r\n        } else {\r\n            return Rarity.S;\r\n        }\r\n    }\r\n}\r\n",
  "sourcePath": "E:\\MekaMiners\\contracts\\RobotCore.sol",
  "compiler": {
    "name": "solc",
    "version": "0.8.10+commit.fc410830.Emscripten.clang"
  },
  "schemaVersion": "3.4.3",
  "updatedAt": "2021-11-14T21:16:25.691Z",
  "networkType": "ethereum",
  "devdoc": {
    "kind": "dev",
    "methods": {
      "_pause()": {
        "details": "called by the owner to pause, triggers stopped state"
      },
      "_unpause()": {
        "details": "called by the owner to unpause, returns to normal state"
      },
      "approve(address,uint256)": {
        "details": "See {IERC721-approve}."
      },
      "balanceOf(address)": {
        "details": "See {IERC721-balanceOf}."
      },
      "baseURI()": {
        "details": "Returns the base URI set via {_setBaseURI}. This will be automatically added as a prefix in {tokenURI} to each token's URI, or to the token ID if no specific URI is set for that token ID."
      },
      "getApproved(uint256)": {
        "details": "See {IERC721-getApproved}."
      },
      "getRobot(uint256)": {
        "params": {
          "_id": "The ID of the Robot of interest."
        }
      },
      "isApprovedForAll(address,address)": {
        "details": "See {IERC721-isApprovedForAll}."
      },
      "isOwner()": {
        "details": "Returns true if the caller is the current owner."
      },
      "name()": {
        "details": "See {IERC721Metadata-name}."
      },
      "owner()": {
        "details": "Returns the address of the current owner."
      },
      "ownerOf(uint256)": {
        "details": "See {IERC721-ownerOf}."
      },
      "renounceOwnership()": {
        "details": "Leaves the contract without owner. It will not be possible to call `onlyOwner` functions anymore. Can only be called by the current owner. NOTE: Renouncing ownership will leave the contract without an owner, thereby removing any functionality that is only available to the owner."
      },
      "safeTransferFrom(address,address,uint256)": {
        "details": "See {IERC721-safeTransferFrom}."
      },
      "safeTransferFrom(address,address,uint256,bytes)": {
        "details": "See {IERC721-safeTransferFrom}."
      },
      "setApprovalForAll(address,bool)": {
        "details": "See {IERC721-setApprovalForAll}."
      },
      "supportsInterface(bytes4)": {
        "details": "See {IERC165-supportsInterface}. Time complexity O(1), guaranteed to always use less than 30 000 gas."
      },
      "symbol()": {
        "details": "See {IERC721Metadata-symbol}."
      },
      "tokenByIndex(uint256)": {
        "details": "See {IERC721Enumerable-tokenByIndex}."
      },
      "tokenOfOwner(address)": {
        "details": "See {IERC721Enumerable-tokenOfOwner}."
      },
      "tokenOfOwnerByIndex(address,uint256)": {
        "details": "See {IERC721Enumerable-tokenOfOwnerByIndex}."
      },
      "tokenURI(uint256)": {
        "details": "See {IERC721Metadata-tokenURI}."
      },
      "totalSupply()": {
        "details": "See {IERC721Enumerable-totalSupply}."
      },
      "transferFrom(address,address,uint256)": {
        "details": "See {IERC721-transferFrom}."
      },
      "transferOwnership(address)": {
        "details": "Transfers ownership of the contract to a new account (`newOwner`). Can only be called by the current owner."
      }
    },
    "stateVariables": {
      "robots": {
        "details": "An array containing the Robot struct for all robots in existence. The ID  of each Robot is actually an index into this array."
      }
    },
    "version": 1
  },
  "userdoc": {
    "kind": "user",
    "methods": {
      "getRobot(uint256)": {
        "notice": "Returns all the relevant information about a specific Robot."
      }
    },
    "version": 1
  }
}