{
  "contractName": "RobotPackage",
  "abi": [
    {
      "inputs": [],
      "stateMutability": "nonpayable",
      "type": "constructor"
    },
    {
      "anonymous": false,
      "inputs": [
        {
          "indexed": true,
          "internalType": "address",
          "name": "owner",
          "type": "address"
        },
        {
          "indexed": true,
          "internalType": "address",
          "name": "approved",
          "type": "address"
        },
        {
          "indexed": true,
          "internalType": "uint256",
          "name": "tokenId",
          "type": "uint256"
        }
      ],
      "name": "Approval",
      "type": "event"
    },
    {
      "anonymous": false,
      "inputs": [
        {
          "indexed": true,
          "internalType": "address",
          "name": "owner",
          "type": "address"
        },
        {
          "indexed": true,
          "internalType": "address",
          "name": "operator",
          "type": "address"
        },
        {
          "indexed": false,
          "internalType": "bool",
          "name": "approved",
          "type": "bool"
        }
      ],
      "name": "ApprovalForAll",
      "type": "event"
    },
    {
      "anonymous": false,
      "inputs": [
        {
          "indexed": false,
          "internalType": "address",
          "name": "owner",
          "type": "address"
        },
        {
          "indexed": false,
          "internalType": "uint256",
          "name": "tokenId",
          "type": "uint256"
        },
        {
          "indexed": false,
          "internalType": "uint256",
          "name": "date",
          "type": "uint256"
        }
      ],
      "name": "Birth",
      "type": "event"
    },
    {
      "anonymous": false,
      "inputs": [
        {
          "indexed": true,
          "internalType": "address",
          "name": "previousOwner",
          "type": "address"
        },
        {
          "indexed": true,
          "internalType": "address",
          "name": "newOwner",
          "type": "address"
        }
      ],
      "name": "OwnershipTransferred",
      "type": "event"
    },
    {
      "anonymous": false,
      "inputs": [
        {
          "indexed": false,
          "internalType": "address",
          "name": "to",
          "type": "address"
        },
        {
          "indexed": false,
          "internalType": "uint256",
          "name": "packId",
          "type": "uint256"
        },
        {
          "indexed": false,
          "internalType": "uint8",
          "name": "packageType",
          "type": "uint8"
        },
        {
          "indexed": false,
          "internalType": "uint256",
          "name": "date",
          "type": "uint256"
        }
      ],
      "name": "PackageCreated",
      "type": "event"
    },
    {
      "anonymous": false,
      "inputs": [],
      "name": "Pause",
      "type": "event"
    },
    {
      "anonymous": false,
      "inputs": [
        {
          "indexed": true,
          "internalType": "address",
          "name": "from",
          "type": "address"
        },
        {
          "indexed": true,
          "internalType": "address",
          "name": "to",
          "type": "address"
        },
        {
          "indexed": true,
          "internalType": "uint256",
          "name": "tokenId",
          "type": "uint256"
        }
      ],
      "name": "Transfer",
      "type": "event"
    },
    {
      "anonymous": false,
      "inputs": [
        {
          "indexed": false,
          "internalType": "address",
          "name": "from",
          "type": "address"
        },
        {
          "indexed": false,
          "internalType": "uint256",
          "name": "packId",
          "type": "uint256"
        },
        {
          "indexed": false,
          "internalType": "uint8",
          "name": "packageType",
          "type": "uint8"
        },
        {
          "indexed": false,
          "internalType": "uint256",
          "name": "date",
          "type": "uint256"
        }
      ],
      "name": "Unpacked",
      "type": "event"
    },
    {
      "anonymous": false,
      "inputs": [],
      "name": "Unpause",
      "type": "event"
    },
    {
      "inputs": [],
      "name": "_adminAddress",
      "outputs": [
        {
          "internalType": "address",
          "name": "",
          "type": "address"
        }
      ],
      "stateMutability": "view",
      "type": "function",
      "constant": true
    },
    {
      "inputs": [],
      "name": "_mekaAddress",
      "outputs": [
        {
          "internalType": "address",
          "name": "",
          "type": "address"
        }
      ],
      "stateMutability": "view",
      "type": "function",
      "constant": true
    },
    {
      "inputs": [],
      "name": "_pause",
      "outputs": [
        {
          "internalType": "bool",
          "name": "",
          "type": "bool"
        }
      ],
      "stateMutability": "nonpayable",
      "type": "function"
    },
    {
      "inputs": [],
      "name": "_robotCoreAddress",
      "outputs": [
        {
          "internalType": "address",
          "name": "",
          "type": "address"
        }
      ],
      "stateMutability": "view",
      "type": "function",
      "constant": true
    },
    {
      "inputs": [],
      "name": "_unpause",
      "outputs": [
        {
          "internalType": "bool",
          "name": "",
          "type": "bool"
        }
      ],
      "stateMutability": "nonpayable",
      "type": "function"
    },
    {
      "inputs": [
        {
          "internalType": "address",
          "name": "to",
          "type": "address"
        },
        {
          "internalType": "uint256",
          "name": "tokenId",
          "type": "uint256"
        }
      ],
      "name": "approve",
      "outputs": [],
      "stateMutability": "nonpayable",
      "type": "function"
    },
    {
      "inputs": [
        {
          "internalType": "address",
          "name": "owner",
          "type": "address"
        }
      ],
      "name": "balanceOf",
      "outputs": [
        {
          "internalType": "uint256",
          "name": "",
          "type": "uint256"
        }
      ],
      "stateMutability": "view",
      "type": "function",
      "constant": true
    },
    {
      "inputs": [],
      "name": "baseURI",
      "outputs": [
        {
          "internalType": "string",
          "name": "",
          "type": "string"
        }
      ],
      "stateMutability": "view",
      "type": "function",
      "constant": true
    },
    {
      "inputs": [],
      "name": "canUnpack",
      "outputs": [
        {
          "internalType": "bool",
          "name": "",
          "type": "bool"
        }
      ],
      "stateMutability": "view",
      "type": "function",
      "constant": true
    },
    {
      "inputs": [
        {
          "internalType": "uint256",
          "name": "tokenId",
          "type": "uint256"
        }
      ],
      "name": "getApproved",
      "outputs": [
        {
          "internalType": "address",
          "name": "",
          "type": "address"
        }
      ],
      "stateMutability": "view",
      "type": "function",
      "constant": true
    },
    {
      "inputs": [
        {
          "internalType": "address",
          "name": "owner",
          "type": "address"
        },
        {
          "internalType": "address",
          "name": "operator",
          "type": "address"
        }
      ],
      "name": "isApprovedForAll",
      "outputs": [
        {
          "internalType": "bool",
          "name": "",
          "type": "bool"
        }
      ],
      "stateMutability": "view",
      "type": "function",
      "constant": true
    },
    {
      "inputs": [],
      "name": "isOwner",
      "outputs": [
        {
          "internalType": "bool",
          "name": "",
          "type": "bool"
        }
      ],
      "stateMutability": "view",
      "type": "function",
      "constant": true
    },
    {
      "inputs": [],
      "name": "isPackageAvailable",
      "outputs": [
        {
          "internalType": "bool",
          "name": "",
          "type": "bool"
        }
      ],
      "stateMutability": "view",
      "type": "function",
      "constant": true
    },
    {
      "inputs": [],
      "name": "name",
      "outputs": [
        {
          "internalType": "string",
          "name": "",
          "type": "string"
        }
      ],
      "stateMutability": "view",
      "type": "function",
      "constant": true
    },
    {
      "inputs": [],
      "name": "owner",
      "outputs": [
        {
          "internalType": "address",
          "name": "",
          "type": "address"
        }
      ],
      "stateMutability": "view",
      "type": "function",
      "constant": true
    },
    {
      "inputs": [
        {
          "internalType": "uint256",
          "name": "tokenId",
          "type": "uint256"
        }
      ],
      "name": "ownerOf",
      "outputs": [
        {
          "internalType": "address",
          "name": "",
          "type": "address"
        }
      ],
      "stateMutability": "view",
      "type": "function",
      "constant": true
    },
    {
      "inputs": [],
      "name": "paused",
      "outputs": [
        {
          "internalType": "bool",
          "name": "",
          "type": "bool"
        }
      ],
      "stateMutability": "view",
      "type": "function",
      "constant": true
    },
    {
      "inputs": [],
      "name": "renounceOwnership",
      "outputs": [],
      "stateMutability": "nonpayable",
      "type": "function"
    },
    {
      "inputs": [
        {
          "internalType": "address",
          "name": "from",
          "type": "address"
        },
        {
          "internalType": "address",
          "name": "to",
          "type": "address"
        },
        {
          "internalType": "uint256",
          "name": "tokenId",
          "type": "uint256"
        }
      ],
      "name": "safeTransferFrom",
      "outputs": [],
      "stateMutability": "nonpayable",
      "type": "function"
    },
    {
      "inputs": [
        {
          "internalType": "address",
          "name": "from",
          "type": "address"
        },
        {
          "internalType": "address",
          "name": "to",
          "type": "address"
        },
        {
          "internalType": "uint256",
          "name": "tokenId",
          "type": "uint256"
        },
        {
          "internalType": "bytes",
          "name": "_data",
          "type": "bytes"
        }
      ],
      "name": "safeTransferFrom",
      "outputs": [],
      "stateMutability": "nonpayable",
      "type": "function"
    },
    {
      "inputs": [
        {
          "internalType": "address",
          "name": "operator",
          "type": "address"
        },
        {
          "internalType": "bool",
          "name": "approved",
          "type": "bool"
        }
      ],
      "name": "setApprovalForAll",
      "outputs": [],
      "stateMutability": "nonpayable",
      "type": "function"
    },
    {
      "inputs": [
        {
          "internalType": "bytes4",
          "name": "interfaceId",
          "type": "bytes4"
        }
      ],
      "name": "supportsInterface",
      "outputs": [
        {
          "internalType": "bool",
          "name": "",
          "type": "bool"
        }
      ],
      "stateMutability": "view",
      "type": "function",
      "constant": true
    },
    {
      "inputs": [],
      "name": "symbol",
      "outputs": [
        {
          "internalType": "string",
          "name": "",
          "type": "string"
        }
      ],
      "stateMutability": "view",
      "type": "function",
      "constant": true
    },
    {
      "inputs": [
        {
          "internalType": "uint256",
          "name": "index",
          "type": "uint256"
        }
      ],
      "name": "tokenByIndex",
      "outputs": [
        {
          "internalType": "uint256",
          "name": "",
          "type": "uint256"
        }
      ],
      "stateMutability": "view",
      "type": "function",
      "constant": true
    },
    {
      "inputs": [
        {
          "internalType": "address",
          "name": "owner",
          "type": "address"
        }
      ],
      "name": "tokenOfOwner",
      "outputs": [
        {
          "internalType": "uint256[]",
          "name": "",
          "type": "uint256[]"
        }
      ],
      "stateMutability": "view",
      "type": "function",
      "constant": true
    },
    {
      "inputs": [
        {
          "internalType": "address",
          "name": "owner",
          "type": "address"
        },
        {
          "internalType": "uint256",
          "name": "index",
          "type": "uint256"
        }
      ],
      "name": "tokenOfOwnerByIndex",
      "outputs": [
        {
          "internalType": "uint256",
          "name": "",
          "type": "uint256"
        }
      ],
      "stateMutability": "view",
      "type": "function",
      "constant": true
    },
    {
      "inputs": [
        {
          "internalType": "uint256",
          "name": "tokenId",
          "type": "uint256"
        }
      ],
      "name": "tokenURI",
      "outputs": [
        {
          "internalType": "string",
          "name": "",
          "type": "string"
        }
      ],
      "stateMutability": "view",
      "type": "function",
      "constant": true
    },
    {
      "inputs": [],
      "name": "totalSupply",
      "outputs": [
        {
          "internalType": "uint256",
          "name": "",
          "type": "uint256"
        }
      ],
      "stateMutability": "view",
      "type": "function",
      "constant": true
    },
    {
      "inputs": [
        {
          "internalType": "address",
          "name": "from",
          "type": "address"
        },
        {
          "internalType": "address",
          "name": "to",
          "type": "address"
        },
        {
          "internalType": "uint256",
          "name": "tokenId",
          "type": "uint256"
        }
      ],
      "name": "transferFrom",
      "outputs": [],
      "stateMutability": "nonpayable",
      "type": "function"
    },
    {
      "inputs": [
        {
          "internalType": "address",
          "name": "newOwner",
          "type": "address"
        }
      ],
      "name": "transferOwnership",
      "outputs": [],
      "stateMutability": "nonpayable",
      "type": "function"
    },
    {
      "inputs": [
        {
          "internalType": "address",
          "name": "adminAddress",
          "type": "address"
        }
      ],
      "name": "setAdminAddress",
      "outputs": [],
      "stateMutability": "nonpayable",
      "type": "function"
    },
    {
      "inputs": [
        {
          "internalType": "address",
          "name": "_addr",
          "type": "address"
        }
      ],
      "name": "setTokenAddress",
      "outputs": [],
      "stateMutability": "nonpayable",
      "type": "function"
    },
    {
      "inputs": [
        {
          "internalType": "address",
          "name": "robotAddress",
          "type": "address"
        }
      ],
      "name": "setRobotAddress",
      "outputs": [],
      "stateMutability": "nonpayable",
      "type": "function"
    },
    {
      "inputs": [
        {
          "internalType": "uint32",
          "name": "quantity",
          "type": "uint32"
        }
      ],
      "name": "setFirstPackageLimit",
      "outputs": [],
      "stateMutability": "nonpayable",
      "type": "function"
    },
    {
      "inputs": [
        {
          "internalType": "uint32",
          "name": "quantity",
          "type": "uint32"
        }
      ],
      "name": "setSecondPackageLimit",
      "outputs": [],
      "stateMutability": "nonpayable",
      "type": "function"
    },
    {
      "inputs": [
        {
          "internalType": "uint32",
          "name": "quantity",
          "type": "uint32"
        }
      ],
      "name": "setThirdPackageLimit",
      "outputs": [],
      "stateMutability": "nonpayable",
      "type": "function"
    },
    {
      "inputs": [
        {
          "internalType": "uint8",
          "name": "quantity",
          "type": "uint8"
        }
      ],
      "name": "setTotalPackagesOwner",
      "outputs": [],
      "stateMutability": "nonpayable",
      "type": "function"
    },
    {
      "inputs": [
        {
          "internalType": "enum RobotPackage.PackageType",
          "name": "_packageType",
          "type": "uint8"
        },
        {
          "internalType": "uint256",
          "name": "amount",
          "type": "uint256"
        }
      ],
      "name": "setPackageTypePrice",
      "outputs": [],
      "stateMutability": "nonpayable",
      "type": "function"
    },
    {
      "inputs": [
        {
          "internalType": "enum RobotPackage.PackageType",
          "name": "_packageType",
          "type": "uint8"
        },
        {
          "internalType": "uint8",
          "name": "quantity",
          "type": "uint8"
        }
      ],
      "name": "setPackageTypeRobots",
      "outputs": [],
      "stateMutability": "nonpayable",
      "type": "function"
    },
    {
      "inputs": [],
      "name": "updateCanUnpack",
      "outputs": [],
      "stateMutability": "nonpayable",
      "type": "function"
    },
    {
      "inputs": [],
      "name": "updatePackageAvailable",
      "outputs": [],
      "stateMutability": "nonpayable",
      "type": "function"
    },
    {
      "inputs": [],
      "name": "withdrawBalance",
      "outputs": [],
      "stateMutability": "nonpayable",
      "type": "function"
    },
    {
      "inputs": [],
      "name": "withdrawBnb",
      "outputs": [],
      "stateMutability": "nonpayable",
      "type": "function"
    },
    {
      "inputs": [],
      "name": "getBalance",
      "outputs": [
        {
          "internalType": "uint256",
          "name": "",
          "type": "uint256"
        }
      ],
      "stateMutability": "view",
      "type": "function",
      "constant": true
    },
    {
      "inputs": [],
      "name": "getBnbBalance",
      "outputs": [
        {
          "internalType": "uint256",
          "name": "",
          "type": "uint256"
        }
      ],
      "stateMutability": "view",
      "type": "function",
      "constant": true
    },
    {
      "inputs": [],
      "name": "pause",
      "outputs": [],
      "stateMutability": "nonpayable",
      "type": "function"
    },
    {
      "inputs": [],
      "name": "unpause",
      "outputs": [],
      "stateMutability": "nonpayable",
      "type": "function"
    },
    {
      "inputs": [
        {
          "internalType": "address",
          "name": "_owner",
          "type": "address"
        },
        {
          "internalType": "uint256",
          "name": "_amount",
          "type": "uint256"
        },
        {
          "internalType": "enum RobotPackage.PackageType",
          "name": "_packageType",
          "type": "uint8"
        }
      ],
      "name": "createPackage",
      "outputs": [],
      "stateMutability": "payable",
      "type": "function",
      "payable": true
    },
    {
      "inputs": [
        {
          "internalType": "address",
          "name": "_to",
          "type": "address"
        },
        {
          "internalType": "enum RobotPackage.PackageType",
          "name": "_packageType",
          "type": "uint8"
        }
      ],
      "name": "createPackageExtra",
      "outputs": [],
      "stateMutability": "nonpayable",
      "type": "function"
    },
    {
      "inputs": [
        {
          "internalType": "address",
          "name": "_to",
          "type": "address"
        },
        {
          "internalType": "uint256",
          "name": "_amount",
          "type": "uint256"
        },
        {
          "internalType": "uint256",
          "name": "_tokenId",
          "type": "uint256"
        }
      ],
      "name": "openPackage",
      "outputs": [],
      "stateMutability": "nonpayable",
      "type": "function"
    },
    {
      "inputs": [],
      "name": "getPackagesCount",
      "outputs": [
        {
          "internalType": "uint32",
          "name": "_firstPackageCount",
          "type": "uint32"
        },
        {
          "internalType": "uint32",
          "name": "_secondPackageCount",
          "type": "uint32"
        },
        {
          "internalType": "uint32",
          "name": "_thirdPackageCount",
          "type": "uint32"
        }
      ],
      "stateMutability": "view",
      "type": "function",
      "constant": true
    },
    {
      "inputs": [
        {
          "internalType": "uint256",
          "name": "_id",
          "type": "uint256"
        }
      ],
      "name": "getPackage",
      "outputs": [
        {
          "components": [
            {
              "internalType": "address",
              "name": "owner",
              "type": "address"
            },
            {
              "internalType": "uint256",
              "name": "packageId",
              "type": "uint256"
            },
            {
              "internalType": "uint8",
              "name": "quantity",
              "type": "uint8"
            },
            {
              "internalType": "enum RobotPackage.PackageType",
              "name": "packageType",
              "type": "uint8"
            },
            {
              "internalType": "uint64",
              "name": "birthTime",
              "type": "uint64"
            }
          ],
          "internalType": "struct RobotPackage.Package",
          "name": "package",
          "type": "tuple"
        }
      ],
      "stateMutability": "view",
      "type": "function",
      "constant": true
    }
  ],
  "bytecode": "0x6080604052600b805460ff60a01b191690556001600e556702c68af0bb1400006012556706f05b59d3b20000601355670c7d713b49da0000601455674563918244f40000601555600260165560178054600160601b600160c01b0319167432000000780000012c0000000000000000000000001790553480156200008257600080fd5b50604080518082018252600f81526e4d656b61626f74205061636b61676560881b6020808301919091528251808401909352600a8352694d656b61626f74506b6760b01b9083015290620000dd6301ffc9a760e01b62000213565b8151620000f2906007906020850190620003c9565b50805162000108906008906020840190620003c9565b506200011b6380ac58cd60e01b62000213565b6200012d635b5e139f60e01b62000213565b6200013f63780e9d6360e01b62000213565b5050600b80546001600160a01b0319163390811790915560405181906000907f8be0079c531659141344cd1fd0a4f28419497f9722a3daafe3b4186f6b6457e0908290a3506001600c819055600b54601a80546001600160b01b0319166001600160a01b03909216919091179055601254620001bc919062000298565b620001d160026013546200029860201b60201c565b620001e660036014546200029860201b60201c565b620001f360018062000326565b6200020060028062000326565b6200020d60038062000326565b620004c2565b6001600160e01b03198082161415620002735760405162461bcd60e51b815260206004820152601c60248201527f4552433136353a20696e76616c696420696e746572666163652069640000000060448201526064015b60405180910390fd5b6001600160e01b0319166000908152602081905260409020805460ff19166001179055565b600b546001600160a01b03163314620002e35760405162461bcd60e51b8152602060048201819052602482015260008051602062003df883398151915260448201526064016200026a565b8060116000846003811115620002fd57620002fd6200046f565b60038111156200031157620003116200046f565b81526020810191909152604001600020555050565b600b546001600160a01b03163314620003715760405162461bcd60e51b8152602060048201819052602482015260008051602062003df883398151915260448201526064016200026a565b80601060008460038111156200038b576200038b6200046f565b60038111156200039f576200039f6200046f565b815260200190815260200160002060006101000a81548160ff021916908360ff1602179055505050565b828054620003d79062000485565b90600052602060002090601f016020900481019282620003fb576000855562000446565b82601f106200041657805160ff191683800117855562000446565b8280016001018555821562000446579182015b828111156200044657825182559160200191906001019062000429565b506200045492915062000458565b5090565b5b8082111562000454576000815560010162000459565b634e487b7160e01b600052602160045260246000fd5b600181811c908216806200049a57607f821691505b60208210811415620004bc57634e487b7160e01b600052602260045260246000fd5b50919050565b61392680620004d26000396000f3fe6080604052600436106102ff5760003560e01c80635c86ea7c11610190578063a22cb465116100dc578063c87b56dd11610095578063e985e9c51161006f578063e985e9c5146108fe578063f2fde38b14610947578063f9cdfbcc14610967578063fc8234cb1461098757600080fd5b8063c87b56dd14610879578063d41f90b014610899578063d525f504146108dd57600080fd5b8063a22cb465146107b7578063ac511c3e146107d7578063b88d4fde146107f7578063b99dfe1814610817578063befc6cc314610844578063c201ca8a1461086457600080fd5b806370a08231116101495780638456cb59116101235780638456cb591461074f5780638da5cb5b146107645780638f32d59b1461078257806395d89b41146107a257600080fd5b806370a08231146106fa578063715018a61461071a57806379f63c1b1461072f57600080fd5b80635c86ea7c1461064e5780635c975abb1461066f5780635fd8c710146106905780636352211e146106a55780636c0360eb146106c55780636e11a9bc146106da57600080fd5b80632c1e816d1161024f57806342842e0e116102085780634f6ccce7116101e25780634f6ccce7146105d9578063570c8e3b146105f957806358dec4201461060e5780635c1cb6911461062e57600080fd5b806342842e0e1461057957806347049c84146105995780634986a917146105b957600080fd5b80632c1e816d146104e95780632f745c5914610509578063320b2ad91461052957806333f5bf311461053e5780633e0fd777146105515780633f4ba83a1461056457600080fd5b8063136f25d9116102bc57806323b872dd1161029657806323b872dd1461045c57806326a4e8d21461047c578063294cdf0d1461049c5780632b91515d146104c957600080fd5b8063136f25d91461041257806318160ddd146104325780631da0603a1461044757600080fd5b806301ffc9a714610304578063045090631461035357806306fdde0314610375578063081812fc14610397578063095ea7b3146103cf57806312065fe0146103ef575b600080fd5b34801561031057600080fd5b5061033e61031f366004612fc8565b6001600160e01b03191660009081526020819052604090205460ff1690565b60405190151581526020015b60405180910390f35b34801561035f57600080fd5b5061037361036e366004613001565b61099c565b005b34801561038157600080fd5b5061038a6109f1565b60405161034a9190613074565b3480156103a357600080fd5b506103b76103b2366004613087565b610a83565b6040516001600160a01b03909116815260200161034a565b3480156103db57600080fd5b506103736103ea3660046130a0565b610b0b565b3480156103fb57600080fd5b50610404610c21565b60405190815260200161034a565b34801561041e57600080fd5b5061037361042d3660046130d9565b610c93565b34801561043e57600080fd5b50610404610d5d565b34801561045357600080fd5b50610373610d69565b34801561046857600080fd5b5061037361047736600461310c565b610e43565b34801561048857600080fd5b50610373610497366004613001565b610e74565b3480156104a857600080fd5b506104bc6104b7366004613001565b610ec0565b60405161034a9190613148565b3480156104d557600080fd5b506103736104e436600461319d565b610fac565b3480156104f557600080fd5b50610373610504366004613001565b610fde565b34801561051557600080fd5b506104046105243660046130a0565b61102a565b34801561053557600080fd5b5061033e611055565b34801561054a57600080fd5b5047610404565b61037361055f3660046131b8565b6110db565b34801561057057600080fd5b50610373611540565b34801561058557600080fd5b5061037361059436600461310c565b61158b565b3480156105a557600080fd5b506018546103b7906001600160a01b031681565b3480156105c557600080fd5b506103736105d43660046131f4565b6115a6565b3480156105e557600080fd5b506104046105f4366004613087565b6115f6565b34801561060557600080fd5b5061037361160c565b34801561061a57600080fd5b5061037361062936600461321a565b611657565b34801561063a57600080fd5b50601a546103b7906001600160a01b031681565b34801561065a57600080fd5b50601a5461033e90600160a81b900460ff1681565b34801561067b57600080fd5b50600b5461033e90600160a01b900460ff1681565b34801561069c57600080fd5b506103736119ee565b3480156106b157600080fd5b506103b76106c0366004613087565b611ab2565b3480156106d157600080fd5b5061038a611ada565b3480156106e657600080fd5b506103736106f536600461324d565b611ae9565b34801561070657600080fd5b50610404610715366004613001565b611b65565b34801561072657600080fd5b50610373611bf1565b34801561073b57600080fd5b5061037361074a3660046131f4565b611c65565b34801561075b57600080fd5b50610373611cb5565b34801561077057600080fd5b50600b546001600160a01b03166103b7565b34801561078e57600080fd5b50600b546001600160a01b0316331461033e565b3480156107ae57600080fd5b5061038a611cfe565b3480156107c357600080fd5b506103736107d2366004613285565b611d0d565b3480156107e357600080fd5b506103736107f23660046132bc565b611dd2565b34801561080357600080fd5b506103736108123660046132ee565b611e39565b34801561082357600080fd5b50610837610832366004613087565b611e71565b60405161034a91906133e0565b34801561085057600080fd5b5061037361085f3660046131f4565b611f56565b34801561087057600080fd5b50610373611fa6565b34801561088557600080fd5b5061038a610894366004613087565b611ff1565b3480156108a557600080fd5b506017546040805163ffffffff8084168252640100000000840481166020830152600160401b9093049092169082015260600161034a565b3480156108e957600080fd5b50601a5461033e90600160a01b900460ff1681565b34801561090a57600080fd5b5061033e61091936600461344d565b6001600160a01b03918216600090815260066020908152604080832093909416825291909152205460ff1690565b34801561095357600080fd5b50610373610962366004613001565b612162565b34801561097357600080fd5b506019546103b7906001600160a01b031681565b34801561099357600080fd5b5061033e612195565b600b546001600160a01b031633146109cf5760405162461bcd60e51b81526004016109c690613477565b60405180910390fd5b601980546001600160a01b0319166001600160a01b0392909216919091179055565b606060078054610a00906134ac565b80601f0160208091040260200160405190810160405280929190818152602001828054610a2c906134ac565b8015610a795780601f10610a4e57610100808354040283529160200191610a79565b820191906000526020600020905b815481529060010190602001808311610a5c57829003601f168201915b5050505050905090565b6000610a8e82612214565b610aef5760405162461bcd60e51b815260206004820152602c60248201527f4552433732313a20617070726f76656420717565727920666f72206e6f6e657860448201526b34b9ba32b73a103a37b5b2b760a11b60648201526084016109c6565b506000908152600560205260409020546001600160a01b031690565b6000610b1682611ab2565b9050806001600160a01b0316836001600160a01b03161415610b845760405162461bcd60e51b815260206004820152602160248201527f4552433732313a20617070726f76616c20746f2063757272656e74206f776e656044820152603960f91b60648201526084016109c6565b336001600160a01b0382161480610ba05750610ba08133610919565b610c125760405162461bcd60e51b815260206004820152603860248201527f4552433732313a20617070726f76652063616c6c6572206973206e6f74206f7760448201527f6e6572206e6f7220617070726f76656420666f7220616c6c000000000000000060648201526084016109c6565b610c1c8383612221565b505050565b6018546040516370a0823160e01b81523060048201526000916001600160a01b0316906370a0823190602401602060405180830381865afa158015610c6a573d6000803e3d6000fd5b505050506040513d601f19601f82011682018060405250810190610c8e91906134e7565b905090565b600b546001600160a01b03163314610cbd5760405162461bcd60e51b81526004016109c690613477565b6000816003811115610cd157610cd16133ca565b1415610d115760405162461bcd60e51b815260206004820152600f60248201526e696e76616c6964207061636b61676560881b60448201526064016109c6565b6001600160a01b038216610d375760405162461bcd60e51b81526004016109c690613500565b610d4482600e548361228f565b600e8054906000610d548361354b565b91905055505050565b6000610c8e60026124e6565b600b546001600160a01b03163314610d935760405162461bcd60e51b81526004016109c690613477565b476000610da8600b546001600160a01b031690565b6001600160a01b03168260405160006040518083038185875af1925050503d8060008114610df2576040519150601f19603f3d011682016040523d82523d6000602084013e610df7565b606091505b5050905080610e3f5760405162461bcd60e51b81526020600482015260146024820152732330b4b632b2103a379039b2b7321022ba3432b960611b60448201526064016109c6565b5050565b610e4d33826124f1565b610e695760405162461bcd60e51b81526004016109c690613566565b610c1c8383836125db565b600b546001600160a01b03163314610e9e5760405162461bcd60e51b81526004016109c690613477565b601880546001600160a01b0319166001600160a01b0392909216919091179055565b6001600160a01b038116600090815260016020526040812060609190610ee590612755565b67ffffffffffffffff811115610efd57610efd6132d8565b604051908082528060200260200182016040528015610f26578160200160208202803683370190505b50905060005b6001600160a01b0384166000908152600160205260409020610f4d90612755565b811015610fa5576001600160a01b0384166000908152600160205260409020610f76908261275f565b828281518110610f8857610f886135b7565b602090810291909101015280610f9d8161354b565b915050610f2c565b5092915050565b600b546001600160a01b03163314610fd65760405162461bcd60e51b81526004016109c690613477565b60ff16601655565b600b546001600160a01b031633146110085760405162461bcd60e51b81526004016109c690613477565b601a80546001600160a01b0319166001600160a01b0392909216919091179055565b6001600160a01b038216600090815260016020526040812061104c908361275f565b90505b92915050565b600b546000906001600160a01b031633146110825760405162461bcd60e51b81526004016109c690613477565b600b54600160a01b900460ff161561109957600080fd5b600b805460ff60a01b1916600160a01b1790556040517f6985a02210a168e66602d3235cb6db0e70f92b3ba4d376a33c0f3d9434bff62590600090a150600190565b6002600c54141561112e5760405162461bcd60e51b815260206004820152601f60248201527f5265656e7472616e637947756172643a207265656e7472616e742063616c6c0060448201526064016109c6565b6002600c55601a54600160a81b900460ff166111825760405162461bcd60e51b81526020600482015260136024820152727061636b61676520756e617661696c61626c6560681b60448201526064016109c6565b600b54600160a01b900460ff161561119957600080fd5b6016546001600160a01b0384166000908152600f602052604090205460ff16106111fc5760405162461bcd60e51b81526020600482015260146024820152731dd85b1b195d0b5c1858dad859d94b5b1a5b5a5d60621b60448201526064016109c6565b6000816003811115611210576112106133ca565b14156112505760405162461bcd60e51b815260206004820152600f60248201526e696e76616c6964207061636b61676560881b60448201526064016109c6565b6001600160a01b0383166112765760405162461bcd60e51b81526004016109c690613500565b6011600082600381111561128c5761128c6133ca565b600381111561129d5761129d6133ca565b81526020019081526020016000205482146112eb5760405162461bcd60e51b815260206004820152600e60248201526d1253959053125108105353d5539560921b60448201526064016109c6565b3482146113455760405162461bcd60e51b815260206004820152602260248201527f616d6f756e7420646966666572656e742066726f6d20626e6220726571756972604482015261195960f21b60648201526084016109c6565b6001816003811115611359576113596133ca565b14156113c95760175463ffffffff600160601b8204811691161061138f5760405162461bcd60e51b81526004016109c6906135cd565b6017805463ffffffff169060006113a5836135ef565b91906101000a81548163ffffffff021916908363ffffffff160217905550506114ad565b60028160038111156113dd576113dd6133ca565b14156114395760175463ffffffff600160801b82048116640100000000909204161061141b5760405162461bcd60e51b81526004016109c6906135cd565b60178054640100000000900463ffffffff169060046113a5836135ef565b60175463ffffffff600160a01b82048116600160401b90920416106114705760405162461bcd60e51b81526004016109c6906135cd565b60178054600160401b900463ffffffff1690600861148d836135ef565b91906101000a81548163ffffffff021916908363ffffffff160217905550505b6114ba83600e548361228f565b6001600160a01b0383166000908152600f60205260408120805460ff16916114e183613613565b82546101009290920a60ff8181021990931691831602179091556001600160a01b0385166000908152600f60205260408120805460ff191693909216929092179055600e8054916115318361354b565b90915550506001600c55505050565b600b54600160a01b900460ff1661155657600080fd5b600b546001600160a01b031633146115805760405162461bcd60e51b81526004016109c690613477565b611588612195565b50565b610c1c83838360405180602001604052806000815250611e39565b600b546001600160a01b031633146115d05760405162461bcd60e51b81526004016109c690613477565b6017805463ffffffff909216600160601b0263ffffffff60601b19909216919091179055565b60008061160460028461276b565b509392505050565b600b546001600160a01b031633146116365760405162461bcd60e51b81526004016109c690613477565b601a805460ff60a81b198116600160a81b9182900460ff1615909102179055565b601a54600160a01b900460ff1661169f5760405162461bcd60e51b815260206004820152600c60248201526b31b0b7103737ba1037b832b760a11b60448201526064016109c6565b600b54600160a01b900460ff16156116b657600080fd5b6015548210156116f95760405162461bcd60e51b815260206004820152600e60248201526d1253959053125108105353d5539560921b60448201526064016109c6565b6001600160a01b03831661174f5760405162461bcd60e51b815260206004820152601860248201527f6d696e7420746f20746865207a65726f2061646472657373000000000000000060448201526064016109c6565b3361175982611ab2565b6001600160a01b03161461179f5760405162461bcd60e51b815260206004820152600d60248201526c3737ba103a34329037bbb732b960991b60448201526064016109c6565b6018546040516323b872dd60e01b8152336004820152306024820152604481018490526001600160a01b03909116906323b872dd906064016020604051808303816000875af11580156117f6573d6000803e3d6000fd5b505050506040513d601f19601f8201168201806040525081019061181a9190613633565b61182357600080fd5b6000600d611832600184613650565b81548110611842576118426135b7565b60009182526020918290206040805160a081018252600393840290920180546001600160a01b03168352600181015494830194909452600284015460ff8082169284019290925291939260608501926101009004909116908111156118a9576118a96133ca565b60038111156118ba576118ba6133ca565b81526002919091015462010000900467ffffffffffffffff1660209091015260195460608201519192506001600160a01b031690637de166b19086906003811115611907576119076133ca565b60408086015190516001600160e01b031960e086901b1681526001600160a01b03909316600484015260ff9182166024840152166044820152606401600060405180830381600087803b15801561195d57600080fd5b505af1158015611971573d6000803e3d6000fd5b5050505061197e82612787565b7f0bf4c6d3c4b37474b167ca1251166f61a1ad24afe4d0bee7834b830938bee6b98483836060015160038111156119b7576119b76133ca565b604080516001600160a01b039094168452602084019290925260ff169082015242606082015260800160405180910390a150505050565b600b546001600160a01b03163314611a185760405162461bcd60e51b81526004016109c690613477565b6018546001600160a01b031663a9059cbb611a3b600b546001600160a01b031690565b611a43610c21565b6040516001600160e01b031960e085901b1681526001600160a01b03909216600483015260248201526044016020604051808303816000875af1158015611a8e573d6000803e3d6000fd5b505050506040513d601f19601f820116820180604052508101906115889190613633565b600061104f826040518060600160405280602981526020016138a86029913960029190612804565b6060600a8054610a00906134ac565b600b546001600160a01b03163314611b135760405162461bcd60e51b81526004016109c690613477565b8060106000846003811115611b2a57611b2a6133ca565b6003811115611b3b57611b3b6133ca565b815260200190815260200160002060006101000a81548160ff021916908360ff1602179055505050565b60006001600160a01b038216611bd05760405162461bcd60e51b815260206004820152602a60248201527f4552433732313a2062616c616e636520717565727920666f7220746865207a65604482015269726f206164647265737360b01b60648201526084016109c6565b6001600160a01b038216600090815260016020526040902061104f90612755565b600b546001600160a01b03163314611c1b5760405162461bcd60e51b81526004016109c690613477565b600b546040516000916001600160a01b0316907f8be0079c531659141344cd1fd0a4f28419497f9722a3daafe3b4186f6b6457e0908390a3600b80546001600160a01b0319169055565b600b546001600160a01b03163314611c8f5760405162461bcd60e51b81526004016109c690613477565b6017805463ffffffff909216600160801b0263ffffffff60801b19909216919091179055565b600b54600160a01b900460ff1615611ccc57600080fd5b600b546001600160a01b03163314611cf65760405162461bcd60e51b81526004016109c690613477565b611588611055565b606060088054610a00906134ac565b6001600160a01b038216331415611d665760405162461bcd60e51b815260206004820152601960248201527f4552433732313a20617070726f766520746f2063616c6c65720000000000000060448201526064016109c6565b3360008181526006602090815260408083206001600160a01b03871680855290835292819020805460ff191686151590811790915590519081529192917f17307eab39ab6107e8899845ad3d59bd9653f200f220920489ca2b5937696c31910160405180910390a35050565b600b546001600160a01b03163314611dfc5760405162461bcd60e51b81526004016109c690613477565b8060116000846003811115611e1357611e136133ca565b6003811115611e2457611e246133ca565b81526020810191909152604001600020555050565b611e4333836124f1565b611e5f5760405162461bcd60e51b81526004016109c690613566565b611e6b8484848461281b565b50505050565b6040805160a081018252600080825260208201819052918101829052606081018290526080810191909152600d611ea9600184613650565b81548110611eb957611eb96135b7565b60009182526020918290206040805160a081018252600393840290920180546001600160a01b03168352600181015494830194909452600284015460ff808216928401929092529193926060850192610100900490911690811115611f2057611f206133ca565b6003811115611f3157611f316133ca565b81526002919091015462010000900467ffffffffffffffff1660209091015292915050565b600b546001600160a01b03163314611f805760405162461bcd60e51b81526004016109c690613477565b6017805463ffffffff909216600160a01b0263ffffffff60a01b19909216919091179055565b600b546001600160a01b03163314611fd05760405162461bcd60e51b81526004016109c690613477565b601a805460ff60a01b198116600160a01b9182900460ff1615909102179055565b6060611ffc82612214565b6120605760405162461bcd60e51b815260206004820152602f60248201527f4552433732314d657461646174613a2055524920717565727920666f72206e6f60448201526e3732bc34b9ba32b73a103a37b5b2b760891b60648201526084016109c6565b60008281526009602052604081208054612079906134ac565b80601f01602080910402602001604051908101604052809291908181526020018280546120a5906134ac565b80156120f25780601f106120c7576101008083540402835291602001916120f2565b820191906000526020600020905b8154815290600101906020018083116120d557829003601f168201915b50505050509050600a8054612106906134ac565b151590506121145792915050565b80511561214657600a8160405160200161212f929190613683565b604051602081830303815290604052915050919050565b600a6121518461284e565b60405160200161212f929190613683565b600b546001600160a01b0316331461218c5760405162461bcd60e51b81526004016109c690613477565b61158881612965565b600b546000906001600160a01b031633146121c25760405162461bcd60e51b81526004016109c690613477565b600b54600160a01b900460ff166121d857600080fd5b600b805460ff60a01b191690556040517f7805862f689e2f13df9f062ff482ad3ad112aca9e0847911ed832e158c525b3390600090a150600190565b600061104f600283612a26565b600081815260056020526040902080546001600160a01b0319166001600160a01b038416908117909155819061225682611ab2565b6001600160a01b03167f8c5be1e5ebec7d5bd14f71427d1e84f3dd0314c0f7b2291e5b200ac8c7c3b92560405160405180910390a45050565b60006040518060a00160405280856001600160a01b03168152602001848152602001601060008560038111156122c7576122c76133ca565b60038111156122d8576122d86133ca565b81526020808201929092526040016000205460ff16825201836003811115612302576123026133ca565b81526020014267ffffffffffffffff168152509050612331848460405180602001604052806000815250612a32565b600d8054600181018255600091909152815160039182027fd7b6990105719101dabeb77144f2a3385c8033acd3af97e9423a695e81ad1eb5810180546001600160a01b039093166001600160a01b031990931692909217825560208401517fd7b6990105719101dabeb77144f2a3385c8033acd3af97e9423a695e81ad1eb682015560408401517fd7b6990105719101dabeb77144f2a3385c8033acd3af97e9423a695e81ad1eb7909101805460ff90921660ff1983168117825560608601518695909361ffff191690911790610100908490811115612413576124136133ca565b021790555060808201518160020160026101000a81548167ffffffffffffffff021916908367ffffffffffffffff16021790555050507fb433297aca508fd04fd164f18aa58c77b7e2309d8c5659eea9d29b89f143e0c084826020015183606001516003811115612486576124866133ca565b604080516001600160a01b039094168452602084019290925260ff169082015242606082015260800160405180910390a160208101516040516001600160a01b038616906000906000805160206138d1833981519152908290a450505050565b600061104f82612a65565b60006124fc82612214565b61255d5760405162461bcd60e51b815260206004820152602c60248201527f4552433732313a206f70657261746f7220717565727920666f72206e6f6e657860448201526b34b9ba32b73a103a37b5b2b760a11b60648201526084016109c6565b600061256883611ab2565b9050806001600160a01b0316846001600160a01b031614806125a35750836001600160a01b031661259884610a83565b6001600160a01b0316145b806125d357506001600160a01b0380821660009081526006602090815260408083209388168352929052205460ff165b949350505050565b826001600160a01b03166125ee82611ab2565b6001600160a01b0316146126565760405162461bcd60e51b815260206004820152602960248201527f4552433732313a207472616e73666572206f6620746f6b656e2074686174206960448201526839903737ba1037bbb760b91b60648201526084016109c6565b6001600160a01b0382166126b85760405162461bcd60e51b8152602060048201526024808201527f4552433732313a207472616e7366657220746f20746865207a65726f206164646044820152637265737360e01b60648201526084016109c6565b6126c3838383612a70565b6126ce600082612221565b6001600160a01b03831660009081526001602052604090206126f09082612a87565b506001600160a01b03821660009081526001602052604090206127139082612a93565b5061272060028284612a9f565b5080826001600160a01b0316846001600160a01b03166000805160206138d183398151915260405160405180910390a4505050565b600061104f825490565b600061104c8383612ab5565b600080808061277a8686612adf565b9097909650945050505050565b600061279282611ab2565b90506127a081600084612a70565b6127ab600083612221565b6001600160a01b03811660009081526001602052604090206127cd9083612a87565b506127d9600283612b0a565b5060405182906000906001600160a01b038416906000805160206138d1833981519152908390a45050565b6000612811848484612b16565b90505b9392505050565b6128268484846125db565b61283284848484612b59565b611e6b5760405162461bcd60e51b81526004016109c69061372a565b6060816128725750506040805180820190915260018152600360fc1b602082015290565b8160005b811561289c57806128868161354b565b91506128959050600a83613792565b9150612876565b60008167ffffffffffffffff8111156128b7576128b76132d8565b6040519080825280601f01601f1916602001820160405280156128e1576020820181803683370190505b50905060006128f1600184613650565b90508593505b831561295c57612908600a856137a6565b6129139060306137ba565b60f81b8282612921816137d2565b935081518110612933576129336135b7565b60200101906001600160f81b031916908160001a905350612955600a85613792565b93506128f7565b50949350505050565b6001600160a01b0381166129ca5760405162461bcd60e51b815260206004820152602660248201527f4f776e61626c653a206e6577206f776e657220697320746865207a65726f206160448201526564647265737360d01b60648201526084016109c6565b600b546040516001600160a01b038084169216907f8be0079c531659141344cd1fd0a4f28419497f9722a3daafe3b4186f6b6457e090600090a3600b80546001600160a01b0319166001600160a01b0392909216919091179055565b600061104c8383612c2a565b612a3c8383612c49565b612a496000848484612b59565b610c1c5760405162461bcd60e51b81526004016109c69061372a565b600061104f82612755565b600b54600160a01b900460ff1615610c1c57600080fd5b600061104c8383612d2b565b600061104c8383612e1e565b600061281184846001600160a01b038516612e6d565b6000826000018281548110612acc57612acc6135b7565b9060005260206000200154905092915050565b60008080612aed858561275f565b600081815260029690960160205260409095205494959350505050565b600061104c8383612e8a565b600082815260028401602052604081205480151580612b3a5750612b3a8585612c2a565b839061295c5760405162461bcd60e51b81526004016109c69190613074565b60006001600160a01b0384163b612b72575060016125d3565b6000612bf3630a85bd0160e11b33888787604051602401612b9694939291906137e9565b604051602081830303815290604052906001600160e01b0319166020820180516001600160e01b038381831617835250505050604051806060016040528060328152602001613876603291396001600160a01b0388169190612ea7565b9050600081806020019051810190612c0b9190613826565b6001600160e01b031916630a85bd0160e11b1492505050949350505050565b600061104c83836000818152600183016020526040812054151561104c565b6001600160a01b038216612c6f5760405162461bcd60e51b81526004016109c690613500565b612c7881612214565b15612cc55760405162461bcd60e51b815260206004820152601c60248201527f4552433732313a20746f6b656e20616c7265616479206d696e7465640000000060448201526064016109c6565b612cd160008383612a70565b6001600160a01b0382166000908152600160205260409020612cf39082612a93565b50612d0060028284612a9f565b5060405181906001600160a01b038416906000906000805160206138d1833981519152908290a45050565b60008181526001830160205260408120548015612e14576000612d4f600183613650565b8554909150600090612d6390600190613650565b9050818114612dc8576000866000018281548110612d8357612d836135b7565b9060005260206000200154905080876000018481548110612da657612da66135b7565b6000918252602080832090910192909255918252600188019052604090208390555b8554869080612dd957612dd9613843565b60019003818190600052602060002001600090559055856001016000868152602001908152602001600020600090556001935050505061104f565b600091505061104f565b6000818152600183016020526040812054612e655750815460018181018455600084815260208082209093018490558454848252828601909352604090209190915561104f565b50600061104f565b600082815260028401602052604081208290556128118484612a93565b6000818152600283016020526040812081905561104c8383612a87565b6060612811848460008585843b612f005760405162461bcd60e51b815260206004820152601d60248201527f416464726573733a2063616c6c20746f206e6f6e2d636f6e747261637400000060448201526064016109c6565b600080866001600160a01b03168587604051612f1c9190613859565b60006040518083038185875af1925050503d8060008114612f59576040519150601f19603f3d011682016040523d82523d6000602084013e612f5e565b606091505b5091509150612f6e828286612f79565b979650505050505050565b60608315612f88575081612814565b825115612f985782518084602001fd5b8160405162461bcd60e51b81526004016109c69190613074565b6001600160e01b03198116811461158857600080fd5b600060208284031215612fda57600080fd5b813561281481612fb2565b80356001600160a01b0381168114612ffc57600080fd5b919050565b60006020828403121561301357600080fd5b61104c82612fe5565b60005b8381101561303757818101518382015260200161301f565b83811115611e6b5750506000910152565b6000815180845261306081602086016020860161301c565b601f01601f19169290920160200192915050565b60208152600061104c6020830184613048565b60006020828403121561309957600080fd5b5035919050565b600080604083850312156130b357600080fd5b6130bc83612fe5565b946020939093013593505050565b803560048110612ffc57600080fd5b600080604083850312156130ec57600080fd5b6130f583612fe5565b9150613103602084016130ca565b90509250929050565b60008060006060848603121561312157600080fd5b61312a84612fe5565b925061313860208501612fe5565b9150604084013590509250925092565b6020808252825182820181905260009190848201906040850190845b8181101561318057835183529284019291840191600101613164565b50909695505050505050565b803560ff81168114612ffc57600080fd5b6000602082840312156131af57600080fd5b61104c8261318c565b6000806000606084860312156131cd57600080fd5b6131d684612fe5565b9250602084013591506131eb604085016130ca565b90509250925092565b60006020828403121561320657600080fd5b813563ffffffff8116811461281457600080fd5b60008060006060848603121561322f57600080fd5b61323884612fe5565b95602085013595506040909401359392505050565b6000806040838503121561326057600080fd5b613269836130ca565b91506131036020840161318c565b801515811461158857600080fd5b6000806040838503121561329857600080fd5b6132a183612fe5565b915060208301356132b181613277565b809150509250929050565b600080604083850312156132cf57600080fd5b6130bc836130ca565b634e487b7160e01b600052604160045260246000fd5b6000806000806080858703121561330457600080fd5b61330d85612fe5565b935061331b60208601612fe5565b925060408501359150606085013567ffffffffffffffff8082111561333f57600080fd5b818701915087601f83011261335357600080fd5b813581811115613365576133656132d8565b604051601f8201601f19908116603f0116810190838211818310171561338d5761338d6132d8565b816040528281528a60208487010111156133a657600080fd5b82602086016020830137600060208483010152809550505050505092959194509250565b634e487b7160e01b600052602160045260246000fd5b81516001600160a01b031681526020808301519082015260408083015160ff1690820152606082015160a08201906004811061342c57634e487b7160e01b600052602160045260246000fd5b8060608401525067ffffffffffffffff608084015116608083015292915050565b6000806040838503121561346057600080fd5b61346983612fe5565b915061310360208401612fe5565b6020808252818101527f4f776e61626c653a2063616c6c6572206973206e6f7420746865206f776e6572604082015260600190565b600181811c908216806134c057607f821691505b602082108114156134e157634e487b7160e01b600052602260045260246000fd5b50919050565b6000602082840312156134f957600080fd5b5051919050565b6020808252818101527f4552433732313a206d696e7420746f20746865207a65726f2061646472657373604082015260600190565b634e487b7160e01b600052601160045260246000fd5b600060001982141561355f5761355f613535565b5060010190565b60208082526031908201527f4552433732313a207472616e736665722063616c6c6572206973206e6f74206f6040820152701ddb995c881b9bdc88185c1c1c9bdd9959607a1b606082015260800190565b634e487b7160e01b600052603260045260246000fd5b6020808252600890820152671cdbdb19081bdd5d60c21b604082015260600190565b600063ffffffff8083168181141561360957613609613535565b6001019392505050565b600060ff821660ff81141561362a5761362a613535565b60010192915050565b60006020828403121561364557600080fd5b815161281481613277565b60008282101561366257613662613535565b500390565b6000815161367981856020860161301c565b9290920192915050565b600080845481600182811c91508083168061369f57607f831692505b60208084108214156136bf57634e487b7160e01b86526022600452602486fd5b8180156136d357600181146136e457613711565b60ff19861689528489019650613711565b60008b81526020902060005b868110156137095781548b8201529085019083016136f0565b505084890196505b5050505050506137218185613667565b95945050505050565b60208082526032908201527f4552433732313a207472616e7366657220746f206e6f6e20455243373231526560408201527131b2b4bb32b91034b6b83632b6b2b73a32b960711b606082015260800190565b634e487b7160e01b600052601260045260246000fd5b6000826137a1576137a161377c565b500490565b6000826137b5576137b561377c565b500690565b600082198211156137cd576137cd613535565b500190565b6000816137e1576137e1613535565b506000190190565b6001600160a01b038581168252841660208201526040810183905260806060820181905260009061381c90830184613048565b9695505050505050565b60006020828403121561383857600080fd5b815161281481612fb2565b634e487b7160e01b600052603160045260246000fd5b6000825161386b81846020870161301c565b919091019291505056fe4552433732313a207472616e7366657220746f206e6f6e20455243373231526563656976657220696d706c656d656e7465724552433732313a206f776e657220717565727920666f72206e6f6e6578697374656e7420746f6b656eddf252ad1be2c89b69c2b068fc378daa952ba7f163c4a11628f55a4df523b3efa26469706673582212206e94f2e033e853613c48bd7cdd333bfde4ae62496b3b1d68db086fe25c5380f364736f6c634300080a00334f776e61626c653a2063616c6c6572206973206e6f7420746865206f776e6572",
  "immutableReferences": {},
  "source": "// SPDX-License-Identifier: MIT\r\npragma solidity ^0.8.2;\r\n\r\nimport \"./IBEP20.sol\";\r\nimport \"./IMarketplace.sol\";\r\nimport \"./SafeMath.sol\";\r\nimport \"./Ownable.sol\";\r\nimport \"./ERC721.sol\";\r\nimport \"./ERC721Pausable.sol\";\r\nimport \"./IRobotCore.sol\";\r\nimport \"./ReentrancyGuard.sol\";\r\n\r\ncontract RobotPackage is Ownable, ERC721Pausable, ReentrancyGuard {\r\n    using SafeMath for uint256;\r\n\r\n    struct Package {\r\n        address owner;\r\n        uint256 packageId; // id of the package\r\n        uint8 quantity; // quantity of robots on this package\r\n        PackageType packageType; //package type\r\n        uint64 birthTime; // The timestamp from the block when this Robot came into existence.\r\n    }\r\n\r\n    enum PackageType {\r\n        Default,\r\n        First,\r\n        Second,\r\n        Third\r\n    }\r\n\r\n    /*** STORAGE ***/\r\n    /// @dev An array containing the Robot struct for all packages in existence. The ID\r\n    ///  of each package is actually an index into this array.\r\n    Package[] packages;\r\n\r\n    event PackageCreated(\r\n        address to,\r\n        uint256 packId,\r\n        uint8 packageType,\r\n        uint256 date\r\n    );\r\n\r\n    event Unpacked(\r\n        address from,\r\n        uint256 packId,\r\n        uint8 packageType,\r\n        uint256 date\r\n    );\r\n\r\n    /* PACKAGE VARIABLES */\r\n    uint256 private nextPackageTokenId = 1;\r\n\r\n    mapping(address => uint8) walletPackages;\r\n    mapping(PackageType => uint8) private _packageTypeRobots;\r\n    mapping(PackageType => uint256) private _packageTypePrice;\r\n\r\n    uint256 private priceFirstPackage = 0.2 * 10**18;\r\n    uint256 private priceSecondPackage = 0.5 * 10**18;\r\n    uint256 private priceThirdPackage = 0.9 * 10**18;\r\n    uint256 private openPackagePrice = 5 * 10**18;\r\n    uint256 private totalPackagesOwner = 2;\r\n\r\n    uint32 firstPackageCount;\r\n    uint32 secondPackageCount;\r\n    uint32 thirdPackageCount;\r\n    uint32 firstPackageLimit = 300;\r\n    uint32 secondPackageLimit = 120;\r\n    uint32 thirdPackageLimit = 50;\r\n\r\n    /* SETTABLE VARIABLES */\r\n    address public _mekaAddress;\r\n    address public _robotCoreAddress;\r\n    address public _adminAddress;\r\n\r\n    bool public canUnpack;\r\n    bool public isPackageAvailable;\r\n\r\n    constructor() ERC721(\"Mekabot Package\", \"MekabotPkg\") {\r\n        _adminAddress = owner();\r\n\r\n        //Package Configs\r\n        canUnpack = false;\r\n        isPackageAvailable = false;\r\n\r\n        setPackageTypePrice(PackageType.First, priceFirstPackage);\r\n        setPackageTypePrice(PackageType.Second, priceSecondPackage);\r\n        setPackageTypePrice(PackageType.Third, priceThirdPackage);\r\n        setPackageTypeRobots(PackageType.First, 1);\r\n        setPackageTypeRobots(PackageType.Second, 2);\r\n        setPackageTypeRobots(PackageType.Third, 3);\r\n    }\r\n\r\n    function setAdminAddress(address adminAddress) external onlyOwner {\r\n        _adminAddress = adminAddress;\r\n    }\r\n\r\n    function setTokenAddress(address _addr) external onlyOwner {\r\n        _mekaAddress = _addr;\r\n    }\r\n\r\n    function setRobotAddress(address robotAddress) external onlyOwner {\r\n        _robotCoreAddress = robotAddress;\r\n    }\r\n\r\n    function setFirstPackageLimit(uint32 quantity) external onlyOwner {\r\n        firstPackageLimit = quantity;\r\n    }\r\n\r\n    function setSecondPackageLimit(uint32 quantity) external onlyOwner {\r\n        secondPackageLimit = quantity;\r\n    }\r\n\r\n    function setThirdPackageLimit(uint32 quantity) external onlyOwner {\r\n        thirdPackageLimit = quantity;\r\n    }\r\n\r\n    function setTotalPackagesOwner(uint8 quantity) external onlyOwner {\r\n        totalPackagesOwner = quantity;\r\n    }\r\n\r\n    function setPackageTypePrice(PackageType _packageType, uint256 amount)\r\n        public\r\n        onlyOwner\r\n    {\r\n        _packageTypePrice[_packageType] = amount;\r\n    }\r\n\r\n    function setPackageTypeRobots(PackageType _packageType, uint8 quantity)\r\n        public\r\n        onlyOwner\r\n    {\r\n        _packageTypeRobots[_packageType] = quantity;\r\n    }\r\n\r\n    function updateCanUnpack() external onlyOwner {\r\n        canUnpack = !canUnpack;\r\n    }\r\n\r\n    function updatePackageAvailable() external onlyOwner {\r\n        isPackageAvailable = !isPackageAvailable;\r\n    }\r\n\r\n    modifier canOpen() {\r\n        require(canUnpack, \"can not open\");\r\n        _;\r\n    }\r\n\r\n    modifier packageAvailable() {\r\n        require(isPackageAvailable, \"package unavailable\");\r\n        _;\r\n    }\r\n\r\n    function withdrawBalance() external onlyOwner {\r\n        IBEP20(_mekaAddress).transfer(owner(), getBalance());\r\n    }\r\n\r\n    function withdrawBnb() external onlyOwner {\r\n        uint256 amount = address(this).balance;\r\n\r\n        (bool success, ) = payable(owner()).call{value: amount}(\"\");\r\n        require(success, \"Failed to send Ether\");\r\n    }\r\n\r\n    function getBalance() public view returns (uint256) {\r\n        return IBEP20(_mekaAddress).balanceOf(address(this));\r\n    }\r\n\r\n    function getBnbBalance() public view returns (uint256) {\r\n        return address(this).balance;\r\n    }\r\n\r\n    function pause() public whenNotPaused onlyOwner {\r\n        _pause();\r\n    }\r\n\r\n    function unpause() public whenPaused onlyOwner {\r\n        _unpause();\r\n    }\r\n\r\n    /* ROBOT PACKAGE */\r\n    function _mintPackage(\r\n        address _to,\r\n        uint256 _tokenId,\r\n        PackageType _packageType\r\n    ) private {\r\n        Package memory _package = Package({\r\n            owner: _to,\r\n            packageType: _packageType,\r\n            packageId: _tokenId,\r\n            quantity: _packageTypeRobots[_packageType],\r\n            birthTime: uint64(block.timestamp)\r\n        });\r\n\r\n        _safeMint(_to, _tokenId, \"\");\r\n        packages.push(_package);\r\n\r\n        emit PackageCreated(\r\n            _to,\r\n            _package.packageId,\r\n            uint8(_package.packageType),\r\n            block.timestamp\r\n        );\r\n\r\n        emit Transfer(address(0), _to, _package.packageId);\r\n    }\r\n\r\n    function createPackage(\r\n        address _owner,\r\n        uint256 _amount,\r\n        PackageType _packageType\r\n    ) external payable nonReentrant packageAvailable whenNotPaused {\r\n        require(\r\n            walletPackages[_owner] < totalPackagesOwner,\r\n            \"wallet-package-limit\"\r\n        );\r\n        require(_packageType != PackageType.Default, \"invalid package\");\r\n        require(_owner != address(0), \"ERC721: mint to the zero address\");\r\n        require(_amount == _packageTypePrice[_packageType], \"INVALID AMOUNT\");\r\n        require(_amount == msg.value, \"amount different from bnb required\");\r\n\r\n        if (_packageType == PackageType.First) {\r\n            require(firstPackageCount < firstPackageLimit, \"sold out\");\r\n            firstPackageCount++;\r\n        } else if (_packageType == PackageType.Second) {\r\n            require(secondPackageCount < secondPackageLimit, \"sold out\");\r\n            secondPackageCount++;\r\n        } else {\r\n            require(thirdPackageCount < thirdPackageLimit, \"sold out\");\r\n            thirdPackageCount++;\r\n        }\r\n\r\n        _mintPackage(_owner, nextPackageTokenId, _packageType);\r\n        walletPackages[_owner] = walletPackages[_owner]++;\r\n        nextPackageTokenId++;\r\n    }\r\n\r\n    function createPackageExtra(address _to, PackageType _packageType)\r\n        external\r\n        onlyOwner\r\n    {\r\n        require(_packageType != PackageType.Default, \"invalid package\");\r\n        require(_to != address(0), \"ERC721: mint to the zero address\");\r\n\r\n        _mintPackage(_to, nextPackageTokenId, _packageType);\r\n        nextPackageTokenId++;\r\n    }\r\n\r\n    function openPackage(\r\n        address _to,\r\n        uint256 _amount,\r\n        uint256 _tokenId\r\n    ) external canOpen whenNotPaused {\r\n        require(_amount >= openPackagePrice, \"INVALID AMOUNT\");\r\n        require(_to != address(0), \"mint to the zero address\");\r\n        require(ownerOf(_tokenId) == msg.sender, \"not the owner\");\r\n        require(\r\n            IBEP20(_mekaAddress).transferFrom(\r\n                msg.sender,\r\n                address(this),\r\n                _amount\r\n            )\r\n        );\r\n\r\n        Package memory package = packages[_tokenId - 1];\r\n\r\n        IRobotCore(_robotCoreAddress).createRobotFromBundle(\r\n            _to,\r\n            uint8(package.packageType),\r\n            package.quantity\r\n        );\r\n\r\n        _burn(_tokenId);\r\n\r\n        emit Unpacked(\r\n            _to,\r\n            _tokenId,\r\n            uint8(package.packageType),\r\n            block.timestamp\r\n        );\r\n    }\r\n\r\n    function getPackagesCount()\r\n        external\r\n        view\r\n        returns (\r\n            uint32 _firstPackageCount,\r\n            uint32 _secondPackageCount,\r\n            uint32 _thirdPackageCount\r\n        )\r\n    {\r\n        _firstPackageCount = firstPackageCount;\r\n        _secondPackageCount = secondPackageCount;\r\n        _thirdPackageCount = thirdPackageCount;\r\n    }\r\n\r\n    function getPackage(uint256 _id)\r\n        public\r\n        view\r\n        returns (Package memory package)\r\n    {\r\n        package = packages[_id - 1];\r\n    }\r\n}\r\n",
  "sourcePath": "E:\\MekaMiners\\contracts\\RobotPackage.sol",
  "compiler": {
    "name": "solc",
    "version": "0.8.10+commit.fc410830.Emscripten.clang"
  },
  "schemaVersion": "3.4.3",
  "updatedAt": "2021-11-29T17:41:41.106Z",
  "networkType": "ethereum",
  "devdoc": {
    "kind": "dev",
    "methods": {
      "_pause()": {
        "details": "called by the owner to pause, triggers stopped state"
      },
      "_unpause()": {
        "details": "called by the owner to unpause, returns to normal state"
      },
      "approve(address,uint256)": {
        "details": "See {IERC721-approve}."
      },
      "balanceOf(address)": {
        "details": "See {IERC721-balanceOf}."
      },
      "baseURI()": {
        "details": "Returns the base URI set via {_setBaseURI}. This will be automatically added as a prefix in {tokenURI} to each token's URI, or to the token ID if no specific URI is set for that token ID."
      },
      "getApproved(uint256)": {
        "details": "See {IERC721-getApproved}."
      },
      "isApprovedForAll(address,address)": {
        "details": "See {IERC721-isApprovedForAll}."
      },
      "isOwner()": {
        "details": "Returns true if the caller is the current owner."
      },
      "name()": {
        "details": "See {IERC721Metadata-name}."
      },
      "owner()": {
        "details": "Returns the address of the current owner."
      },
      "ownerOf(uint256)": {
        "details": "See {IERC721-ownerOf}."
      },
      "renounceOwnership()": {
        "details": "Leaves the contract without owner. It will not be possible to call `onlyOwner` functions anymore. Can only be called by the current owner. NOTE: Renouncing ownership will leave the contract without an owner, thereby removing any functionality that is only available to the owner."
      },
      "safeTransferFrom(address,address,uint256)": {
        "details": "See {IERC721-safeTransferFrom}."
      },
      "safeTransferFrom(address,address,uint256,bytes)": {
        "details": "See {IERC721-safeTransferFrom}."
      },
      "setApprovalForAll(address,bool)": {
        "details": "See {IERC721-setApprovalForAll}."
      },
      "supportsInterface(bytes4)": {
        "details": "See {IERC165-supportsInterface}. Time complexity O(1), guaranteed to always use less than 30 000 gas."
      },
      "symbol()": {
        "details": "See {IERC721Metadata-symbol}."
      },
      "tokenByIndex(uint256)": {
        "details": "See {IERC721Enumerable-tokenByIndex}."
      },
      "tokenOfOwner(address)": {
        "details": "See {IERC721Enumerable-tokenOfOwner}."
      },
      "tokenOfOwnerByIndex(address,uint256)": {
        "details": "See {IERC721Enumerable-tokenOfOwnerByIndex}."
      },
      "tokenURI(uint256)": {
        "details": "See {IERC721Metadata-tokenURI}."
      },
      "totalSupply()": {
        "details": "See {IERC721Enumerable-totalSupply}."
      },
      "transferFrom(address,address,uint256)": {
        "details": "See {IERC721-transferFrom}."
      },
      "transferOwnership(address)": {
        "details": "Transfers ownership of the contract to a new account (`newOwner`). Can only be called by the current owner."
      }
    },
    "stateVariables": {
      "packages": {
        "details": "An array containing the Robot struct for all packages in existence. The ID  of each package is actually an index into this array."
      }
    },
    "version": 1
  },
  "userdoc": {
    "kind": "user",
    "methods": {},
    "version": 1
  }
}