{
  "contractName": "RobotPackage",
  "abi": [
    {
      "inputs": [],
      "stateMutability": "nonpayable",
      "type": "constructor"
    },
    {
      "anonymous": false,
      "inputs": [
        {
          "indexed": true,
          "internalType": "address",
          "name": "owner",
          "type": "address"
        },
        {
          "indexed": true,
          "internalType": "address",
          "name": "approved",
          "type": "address"
        },
        {
          "indexed": true,
          "internalType": "uint256",
          "name": "tokenId",
          "type": "uint256"
        }
      ],
      "name": "Approval",
      "type": "event"
    },
    {
      "anonymous": false,
      "inputs": [
        {
          "indexed": true,
          "internalType": "address",
          "name": "owner",
          "type": "address"
        },
        {
          "indexed": true,
          "internalType": "address",
          "name": "operator",
          "type": "address"
        },
        {
          "indexed": false,
          "internalType": "bool",
          "name": "approved",
          "type": "bool"
        }
      ],
      "name": "ApprovalForAll",
      "type": "event"
    },
    {
      "anonymous": false,
      "inputs": [
        {
          "indexed": false,
          "internalType": "address",
          "name": "owner",
          "type": "address"
        },
        {
          "indexed": false,
          "internalType": "uint256",
          "name": "tokenId",
          "type": "uint256"
        },
        {
          "indexed": false,
          "internalType": "uint256",
          "name": "date",
          "type": "uint256"
        }
      ],
      "name": "Birth",
      "type": "event"
    },
    {
      "anonymous": false,
      "inputs": [
        {
          "indexed": true,
          "internalType": "address",
          "name": "previousOwner",
          "type": "address"
        },
        {
          "indexed": true,
          "internalType": "address",
          "name": "newOwner",
          "type": "address"
        }
      ],
      "name": "OwnershipTransferred",
      "type": "event"
    },
    {
      "anonymous": false,
      "inputs": [
        {
          "indexed": false,
          "internalType": "address",
          "name": "to",
          "type": "address"
        },
        {
          "indexed": false,
          "internalType": "uint256",
          "name": "packId",
          "type": "uint256"
        },
        {
          "indexed": false,
          "internalType": "uint8",
          "name": "packageType",
          "type": "uint8"
        },
        {
          "indexed": false,
          "internalType": "uint256",
          "name": "date",
          "type": "uint256"
        },
        {
          "indexed": false,
          "internalType": "bool",
          "name": "isPresale",
          "type": "bool"
        }
      ],
      "name": "PackageCreated",
      "type": "event"
    },
    {
      "anonymous": false,
      "inputs": [],
      "name": "Pause",
      "type": "event"
    },
    {
      "anonymous": false,
      "inputs": [
        {
          "indexed": true,
          "internalType": "address",
          "name": "from",
          "type": "address"
        },
        {
          "indexed": true,
          "internalType": "address",
          "name": "to",
          "type": "address"
        },
        {
          "indexed": true,
          "internalType": "uint256",
          "name": "tokenId",
          "type": "uint256"
        }
      ],
      "name": "Transfer",
      "type": "event"
    },
    {
      "anonymous": false,
      "inputs": [
        {
          "indexed": false,
          "internalType": "address",
          "name": "owner",
          "type": "address"
        },
        {
          "indexed": false,
          "internalType": "uint256",
          "name": "packId",
          "type": "uint256"
        },
        {
          "indexed": false,
          "internalType": "uint8",
          "name": "packageType",
          "type": "uint8"
        },
        {
          "indexed": false,
          "internalType": "uint256",
          "name": "date",
          "type": "uint256"
        }
      ],
      "name": "Unpacked",
      "type": "event"
    },
    {
      "anonymous": false,
      "inputs": [],
      "name": "Unpause",
      "type": "event"
    },
    {
      "inputs": [],
      "name": "_mekaAddress",
      "outputs": [
        {
          "internalType": "address",
          "name": "",
          "type": "address"
        }
      ],
      "stateMutability": "view",
      "type": "function",
      "constant": true
    },
    {
      "inputs": [],
      "name": "_pause",
      "outputs": [
        {
          "internalType": "bool",
          "name": "",
          "type": "bool"
        }
      ],
      "stateMutability": "nonpayable",
      "type": "function"
    },
    {
      "inputs": [],
      "name": "_robotCoreAddress",
      "outputs": [
        {
          "internalType": "address",
          "name": "",
          "type": "address"
        }
      ],
      "stateMutability": "view",
      "type": "function",
      "constant": true
    },
    {
      "inputs": [],
      "name": "_unpause",
      "outputs": [
        {
          "internalType": "bool",
          "name": "",
          "type": "bool"
        }
      ],
      "stateMutability": "nonpayable",
      "type": "function"
    },
    {
      "inputs": [
        {
          "internalType": "address",
          "name": "to",
          "type": "address"
        },
        {
          "internalType": "uint256",
          "name": "tokenId",
          "type": "uint256"
        }
      ],
      "name": "approve",
      "outputs": [],
      "stateMutability": "nonpayable",
      "type": "function"
    },
    {
      "inputs": [
        {
          "internalType": "address",
          "name": "owner",
          "type": "address"
        }
      ],
      "name": "balanceOf",
      "outputs": [
        {
          "internalType": "uint256",
          "name": "",
          "type": "uint256"
        }
      ],
      "stateMutability": "view",
      "type": "function",
      "constant": true
    },
    {
      "inputs": [],
      "name": "baseURI",
      "outputs": [
        {
          "internalType": "string",
          "name": "",
          "type": "string"
        }
      ],
      "stateMutability": "view",
      "type": "function",
      "constant": true
    },
    {
      "inputs": [],
      "name": "canUnpack",
      "outputs": [
        {
          "internalType": "bool",
          "name": "",
          "type": "bool"
        }
      ],
      "stateMutability": "view",
      "type": "function",
      "constant": true
    },
    {
      "inputs": [
        {
          "internalType": "uint256",
          "name": "tokenId",
          "type": "uint256"
        }
      ],
      "name": "getApproved",
      "outputs": [
        {
          "internalType": "address",
          "name": "",
          "type": "address"
        }
      ],
      "stateMutability": "view",
      "type": "function",
      "constant": true
    },
    {
      "inputs": [
        {
          "internalType": "address",
          "name": "owner",
          "type": "address"
        },
        {
          "internalType": "address",
          "name": "operator",
          "type": "address"
        }
      ],
      "name": "isApprovedForAll",
      "outputs": [
        {
          "internalType": "bool",
          "name": "",
          "type": "bool"
        }
      ],
      "stateMutability": "view",
      "type": "function",
      "constant": true
    },
    {
      "inputs": [],
      "name": "isOwner",
      "outputs": [
        {
          "internalType": "bool",
          "name": "",
          "type": "bool"
        }
      ],
      "stateMutability": "view",
      "type": "function",
      "constant": true
    },
    {
      "inputs": [],
      "name": "isPackageAvailable",
      "outputs": [
        {
          "internalType": "bool",
          "name": "",
          "type": "bool"
        }
      ],
      "stateMutability": "view",
      "type": "function",
      "constant": true
    },
    {
      "inputs": [],
      "name": "name",
      "outputs": [
        {
          "internalType": "string",
          "name": "",
          "type": "string"
        }
      ],
      "stateMutability": "view",
      "type": "function",
      "constant": true
    },
    {
      "inputs": [],
      "name": "owner",
      "outputs": [
        {
          "internalType": "address",
          "name": "",
          "type": "address"
        }
      ],
      "stateMutability": "view",
      "type": "function",
      "constant": true
    },
    {
      "inputs": [
        {
          "internalType": "uint256",
          "name": "tokenId",
          "type": "uint256"
        }
      ],
      "name": "ownerOf",
      "outputs": [
        {
          "internalType": "address",
          "name": "",
          "type": "address"
        }
      ],
      "stateMutability": "view",
      "type": "function",
      "constant": true
    },
    {
      "inputs": [],
      "name": "paused",
      "outputs": [
        {
          "internalType": "bool",
          "name": "",
          "type": "bool"
        }
      ],
      "stateMutability": "view",
      "type": "function",
      "constant": true
    },
    {
      "inputs": [],
      "name": "renounceOwnership",
      "outputs": [],
      "stateMutability": "nonpayable",
      "type": "function"
    },
    {
      "inputs": [
        {
          "internalType": "address",
          "name": "from",
          "type": "address"
        },
        {
          "internalType": "address",
          "name": "to",
          "type": "address"
        },
        {
          "internalType": "uint256",
          "name": "tokenId",
          "type": "uint256"
        }
      ],
      "name": "safeTransferFrom",
      "outputs": [],
      "stateMutability": "nonpayable",
      "type": "function"
    },
    {
      "inputs": [
        {
          "internalType": "address",
          "name": "from",
          "type": "address"
        },
        {
          "internalType": "address",
          "name": "to",
          "type": "address"
        },
        {
          "internalType": "uint256",
          "name": "tokenId",
          "type": "uint256"
        },
        {
          "internalType": "bytes",
          "name": "_data",
          "type": "bytes"
        }
      ],
      "name": "safeTransferFrom",
      "outputs": [],
      "stateMutability": "nonpayable",
      "type": "function"
    },
    {
      "inputs": [
        {
          "internalType": "address",
          "name": "operator",
          "type": "address"
        },
        {
          "internalType": "bool",
          "name": "approved",
          "type": "bool"
        }
      ],
      "name": "setApprovalForAll",
      "outputs": [],
      "stateMutability": "nonpayable",
      "type": "function"
    },
    {
      "inputs": [
        {
          "internalType": "bytes4",
          "name": "interfaceId",
          "type": "bytes4"
        }
      ],
      "name": "supportsInterface",
      "outputs": [
        {
          "internalType": "bool",
          "name": "",
          "type": "bool"
        }
      ],
      "stateMutability": "view",
      "type": "function",
      "constant": true
    },
    {
      "inputs": [],
      "name": "symbol",
      "outputs": [
        {
          "internalType": "string",
          "name": "",
          "type": "string"
        }
      ],
      "stateMutability": "view",
      "type": "function",
      "constant": true
    },
    {
      "inputs": [
        {
          "internalType": "uint256",
          "name": "index",
          "type": "uint256"
        }
      ],
      "name": "tokenByIndex",
      "outputs": [
        {
          "internalType": "uint256",
          "name": "",
          "type": "uint256"
        }
      ],
      "stateMutability": "view",
      "type": "function",
      "constant": true
    },
    {
      "inputs": [
        {
          "internalType": "address",
          "name": "owner",
          "type": "address"
        }
      ],
      "name": "tokenOfOwner",
      "outputs": [
        {
          "internalType": "uint256[]",
          "name": "",
          "type": "uint256[]"
        }
      ],
      "stateMutability": "view",
      "type": "function",
      "constant": true
    },
    {
      "inputs": [
        {
          "internalType": "address",
          "name": "owner",
          "type": "address"
        },
        {
          "internalType": "uint256",
          "name": "index",
          "type": "uint256"
        }
      ],
      "name": "tokenOfOwnerByIndex",
      "outputs": [
        {
          "internalType": "uint256",
          "name": "",
          "type": "uint256"
        }
      ],
      "stateMutability": "view",
      "type": "function",
      "constant": true
    },
    {
      "inputs": [
        {
          "internalType": "uint256",
          "name": "tokenId",
          "type": "uint256"
        }
      ],
      "name": "tokenURI",
      "outputs": [
        {
          "internalType": "string",
          "name": "",
          "type": "string"
        }
      ],
      "stateMutability": "view",
      "type": "function",
      "constant": true
    },
    {
      "inputs": [],
      "name": "totalSupply",
      "outputs": [
        {
          "internalType": "uint256",
          "name": "",
          "type": "uint256"
        }
      ],
      "stateMutability": "view",
      "type": "function",
      "constant": true
    },
    {
      "inputs": [
        {
          "internalType": "address",
          "name": "newOwner",
          "type": "address"
        }
      ],
      "name": "transferOwnership",
      "outputs": [],
      "stateMutability": "nonpayable",
      "type": "function"
    },
    {
      "inputs": [
        {
          "internalType": "uint8",
          "name": "limit",
          "type": "uint8"
        }
      ],
      "name": "setPackageLimit",
      "outputs": [],
      "stateMutability": "nonpayable",
      "type": "function"
    },
    {
      "inputs": [
        {
          "internalType": "address",
          "name": "_addr",
          "type": "address"
        }
      ],
      "name": "setTokenAddress",
      "outputs": [],
      "stateMutability": "nonpayable",
      "type": "function"
    },
    {
      "inputs": [
        {
          "internalType": "address",
          "name": "robotAddress",
          "type": "address"
        }
      ],
      "name": "setRobotAddress",
      "outputs": [],
      "stateMutability": "nonpayable",
      "type": "function"
    },
    {
      "inputs": [
        {
          "internalType": "uint32",
          "name": "quantity",
          "type": "uint32"
        }
      ],
      "name": "setFirstPackageLimit",
      "outputs": [],
      "stateMutability": "nonpayable",
      "type": "function"
    },
    {
      "inputs": [
        {
          "internalType": "uint32",
          "name": "quantity",
          "type": "uint32"
        }
      ],
      "name": "setSecondPackageLimit",
      "outputs": [],
      "stateMutability": "nonpayable",
      "type": "function"
    },
    {
      "inputs": [
        {
          "internalType": "uint32",
          "name": "quantity",
          "type": "uint32"
        }
      ],
      "name": "setThirdPackageLimit",
      "outputs": [],
      "stateMutability": "nonpayable",
      "type": "function"
    },
    {
      "inputs": [
        {
          "internalType": "uint8",
          "name": "quantity",
          "type": "uint8"
        }
      ],
      "name": "setTotalPackagesOwner",
      "outputs": [],
      "stateMutability": "nonpayable",
      "type": "function"
    },
    {
      "inputs": [
        {
          "internalType": "enum RobotPackage.PackageType",
          "name": "_packageType",
          "type": "uint8"
        },
        {
          "internalType": "uint256",
          "name": "amount",
          "type": "uint256"
        }
      ],
      "name": "setPackageTypePrice",
      "outputs": [],
      "stateMutability": "nonpayable",
      "type": "function"
    },
    {
      "inputs": [
        {
          "internalType": "enum RobotPackage.PackageType",
          "name": "_packageType",
          "type": "uint8"
        },
        {
          "internalType": "uint8",
          "name": "quantity",
          "type": "uint8"
        }
      ],
      "name": "setPackageTypeRobots",
      "outputs": [],
      "stateMutability": "nonpayable",
      "type": "function"
    },
    {
      "inputs": [],
      "name": "updateCanUnpack",
      "outputs": [],
      "stateMutability": "nonpayable",
      "type": "function"
    },
    {
      "inputs": [],
      "name": "updatePackageAvailable",
      "outputs": [],
      "stateMutability": "nonpayable",
      "type": "function"
    },
    {
      "inputs": [],
      "name": "withdrawBalance",
      "outputs": [],
      "stateMutability": "nonpayable",
      "type": "function"
    },
    {
      "inputs": [],
      "name": "withdrawBnb",
      "outputs": [],
      "stateMutability": "nonpayable",
      "type": "function"
    },
    {
      "inputs": [],
      "name": "getBalance",
      "outputs": [
        {
          "internalType": "uint256",
          "name": "",
          "type": "uint256"
        }
      ],
      "stateMutability": "view",
      "type": "function",
      "constant": true
    },
    {
      "inputs": [],
      "name": "getBnbBalance",
      "outputs": [
        {
          "internalType": "uint256",
          "name": "",
          "type": "uint256"
        }
      ],
      "stateMutability": "view",
      "type": "function",
      "constant": true
    },
    {
      "inputs": [],
      "name": "pause",
      "outputs": [],
      "stateMutability": "nonpayable",
      "type": "function"
    },
    {
      "inputs": [],
      "name": "unpause",
      "outputs": [],
      "stateMutability": "nonpayable",
      "type": "function"
    },
    {
      "inputs": [
        {
          "internalType": "enum RobotPackage.PackageType",
          "name": "_packageType",
          "type": "uint8"
        },
        {
          "internalType": "bool",
          "name": "_isPresale",
          "type": "bool"
        }
      ],
      "name": "createPackage",
      "outputs": [],
      "stateMutability": "payable",
      "type": "function",
      "payable": true
    },
    {
      "inputs": [
        {
          "internalType": "address",
          "name": "_to",
          "type": "address"
        },
        {
          "internalType": "enum RobotPackage.PackageType",
          "name": "_packageType",
          "type": "uint8"
        },
        {
          "internalType": "bool",
          "name": "_isPresale",
          "type": "bool"
        }
      ],
      "name": "createPackageExtra",
      "outputs": [],
      "stateMutability": "nonpayable",
      "type": "function"
    },
    {
      "inputs": [
        {
          "internalType": "uint256",
          "name": "_amount",
          "type": "uint256"
        },
        {
          "internalType": "uint256",
          "name": "_tokenId",
          "type": "uint256"
        }
      ],
      "name": "openPackage",
      "outputs": [],
      "stateMutability": "nonpayable",
      "type": "function"
    },
    {
      "inputs": [],
      "name": "getPackagesCount",
      "outputs": [
        {
          "internalType": "uint32",
          "name": "_firstPackageCount",
          "type": "uint32"
        },
        {
          "internalType": "uint32",
          "name": "_secondPackageCount",
          "type": "uint32"
        },
        {
          "internalType": "uint32",
          "name": "_thirdPackageCount",
          "type": "uint32"
        }
      ],
      "stateMutability": "view",
      "type": "function",
      "constant": true
    },
    {
      "inputs": [
        {
          "internalType": "uint256",
          "name": "_id",
          "type": "uint256"
        }
      ],
      "name": "getPackage",
      "outputs": [
        {
          "components": [
            {
              "internalType": "address",
              "name": "owner",
              "type": "address"
            },
            {
              "internalType": "uint256",
              "name": "packageId",
              "type": "uint256"
            },
            {
              "internalType": "uint8",
              "name": "robotQuantity",
              "type": "uint8"
            },
            {
              "internalType": "enum RobotPackage.PackageType",
              "name": "packageType",
              "type": "uint8"
            },
            {
              "internalType": "uint64",
              "name": "birthTime",
              "type": "uint64"
            }
          ],
          "internalType": "struct RobotPackage.Package",
          "name": "package",
          "type": "tuple"
        }
      ],
      "stateMutability": "view",
      "type": "function",
      "constant": true
    },
    {
      "inputs": [
        {
          "internalType": "address",
          "name": "_from",
          "type": "address"
        },
        {
          "internalType": "address",
          "name": "_receiver",
          "type": "address"
        },
        {
          "internalType": "uint256",
          "name": "_tokenId",
          "type": "uint256"
        }
      ],
      "name": "transferFrom",
      "outputs": [],
      "stateMutability": "nonpayable",
      "type": "function"
    }
  ],
  "bytecode": "0x6080604052600b805460ff60a01b191690556001600e556702c68af0bb1400006013556706f05b59d3b20000601455670c7d713b49da0000601555674563918244f400006016556017805460ff600160681b03600160c81b0319167532000000780000012c000000000000000000000000021790553480156200008157600080fd5b50604080518082018252600f81526e4d656b61626f74205061636b61676560881b6020808301919091528251808401909352600a8352694d656b61626f74506b6760b01b9083015290620000dc6301ffc9a760e01b620001fe565b8151620000f1906007906020850190620003b4565b50805162000107906008906020840190620003b4565b506200011a6380ac58cd60e01b620001fe565b6200012c635b5e139f60e01b620001fe565b6200013e63780e9d6360e01b620001fe565b5050600b80546001600160a01b0319163390811790915560405181906000907f8be0079c531659141344cd1fd0a4f28419497f9722a3daafe3b4186f6b6457e0908290a3506001600c8190556019805461ffff60a01b19169055601354620001a7919062000283565b620001bc60026014546200028360201b60201c565b620001d160036015546200028360201b60201c565b620001de60018062000311565b620001eb60028062000311565b620001f860038062000311565b620004ad565b6001600160e01b031980821614156200025e5760405162461bcd60e51b815260206004820152601c60248201527f4552433136353a20696e76616c696420696e746572666163652069640000000060448201526064015b60405180910390fd5b6001600160e01b0319166000908152602081905260409020805460ff19166001179055565b600b546001600160a01b03163314620002ce5760405162461bcd60e51b8152602060048201819052602482015260008051602062003e27833981519152604482015260640162000255565b8060116000846003811115620002e857620002e86200045a565b6003811115620002fc57620002fc6200045a565b81526020810191909152604001600020555050565b600b546001600160a01b031633146200035c5760405162461bcd60e51b8152602060048201819052602482015260008051602062003e27833981519152604482015260640162000255565b80601060008460038111156200037657620003766200045a565b60038111156200038a576200038a6200045a565b815260200190815260200160002060006101000a81548160ff021916908360ff1602179055505050565b828054620003c29062000470565b90600052602060002090601f016020900481019282620003e6576000855562000431565b82601f106200040157805160ff191683800117855562000431565b8280016001018555821562000431579182015b828111156200043157825182559160200191906001019062000414565b506200043f92915062000443565b5090565b5b808211156200043f576000815560010162000444565b634e487b7160e01b600052602160045260246000fd5b600181811c908216806200048557607f821691505b60208210811415620004a757634e487b7160e01b600052602260045260246000fd5b50919050565b61396a80620004bd6000396000f3fe6080604052600436106102e45760003560e01c80636352211e11610190578063ac511c3e116100dc578063c87b56dd11610095578063e985e9c51161006f578063e985e9c5146108a8578063f2fde38b146108f1578063f9cdfbcc14610911578063fc8234cb1461093157600080fd5b8063c87b56dd1461081e578063d41f90b01461083e578063d525f5041461088757600080fd5b8063ac511c3e14610769578063b88d4fde14610789578063b99dfe18146107a9578063befc6cc3146107d6578063c201ca8a146107f6578063c41e89f51461080b57600080fd5b80638456cb59116101495780639124e0ac116101235780639124e0ac1461048e57806395d89b41146107145780639ae322a914610729578063a22cb4651461074957600080fd5b80638456cb59146106c15780638da5cb5b146106d65780638f32d59b146106f457600080fd5b80636352211e146106175780636c0360eb146106375780636e11a9bc1461064c57806370a082311461066c578063715018a61461068c57806379f63c1b146106a157600080fd5b80632f745c591161024f5780634986a917116102085780635aeaf14c116101e25780635aeaf14c146105a05780635c86ea7c146105c05780635c975abb146105e15780635fd8c7101461060257600080fd5b80634986a9171461054b5780634f6ccce71461056b578063570c8e3b1461058b57600080fd5b80632f745c59146104ae578063320b2ad9146104ce57806333f5bf31146104e35780633f4ba83a146104f657806342842e0e1461050b57806347049c841461052b57600080fd5b806318160ddd116102a157806318160ddd146103f75780631da0603a1461040c57806323b872dd1461042157806326a4e8d214610441578063294cdf0d146104615780632b91515d1461048e57600080fd5b806301ffc9a7146102e9578063045090631461033857806306fdde031461035a578063081812fc1461037c578063095ea7b3146103b457806312065fe0146103d4575b600080fd5b3480156102f557600080fd5b5061032361030436600461303b565b6001600160e01b03191660009081526020819052604090205460ff1690565b60405190151581526020015b60405180910390f35b34801561034457600080fd5b50610358610353366004613074565b610946565b005b34801561036657600080fd5b5061036f61099b565b60405161032f91906130e7565b34801561038857600080fd5b5061039c6103973660046130fa565b610a2d565b6040516001600160a01b03909116815260200161032f565b3480156103c057600080fd5b506103586103cf366004613113565b610ab5565b3480156103e057600080fd5b506103e9610bcb565b60405190815260200161032f565b34801561040357600080fd5b506103e9610c3d565b34801561041857600080fd5b50610358610c49565b34801561042d57600080fd5b5061035861043c36600461313d565b610d23565b34801561044d57600080fd5b5061035861045c366004613074565b610dec565b34801561046d57600080fd5b5061048161047c366004613074565b610e38565b60405161032f9190613179565b34801561049a57600080fd5b506103586104a93660046131ce565b610f24565b3480156104ba57600080fd5b506103e96104c9366004613113565b610f64565b3480156104da57600080fd5b50610323610f8f565b3480156104ef57600080fd5b50476103e9565b34801561050257600080fd5b50610358611015565b34801561051757600080fd5b5061035861052636600461313d565b611060565b34801561053757600080fd5b5060185461039c906001600160a01b031681565b34801561055757600080fd5b506103586105663660046131e9565b61107b565b34801561057757600080fd5b506103e96105863660046130fa565b6110cb565b34801561059757600080fd5b506103586110e1565b3480156105ac57600080fd5b506103586105bb36600461320f565b61112c565b3480156105cc57600080fd5b5060195461032390600160a81b900460ff1681565b3480156105ed57600080fd5b50600b5461032390600160a01b900460ff1681565b34801561060e57600080fd5b506103586114b8565b34801561062357600080fd5b5061039c6106323660046130fa565b61157c565b34801561064357600080fd5b5061036f6115a4565b34801561065857600080fd5b50610358610667366004613240565b6115b3565b34801561067857600080fd5b506103e9610687366004613074565b61162f565b34801561069857600080fd5b506103586116bb565b3480156106ad57600080fd5b506103586106bc3660046131e9565b61172f565b3480156106cd57600080fd5b5061035861177f565b3480156106e257600080fd5b50600b546001600160a01b031661039c565b34801561070057600080fd5b50600b546001600160a01b03163314610323565b34801561072057600080fd5b5061036f6117c8565b34801561073557600080fd5b50610358610744366004613281565b6117d7565b34801561075557600080fd5b506103586107643660046132c8565b6118a3565b34801561077557600080fd5b506103586107843660046132ff565b611968565b34801561079557600080fd5b506103586107a4366004613331565b6119cf565b3480156107b557600080fd5b506107c96107c43660046130fa565b611a07565b60405161032f9190613423565b3480156107e257600080fd5b506103586107f13660046131e9565b611aec565b34801561080257600080fd5b50610358611b3c565b610358610819366004613490565b611b87565b34801561082a57600080fd5b5061036f6108393660046130fa565b611fb3565b34801561084a57600080fd5b506017546040805163ffffffff61010084048116825265010000000000840481166020830152600160481b9093049092169082015260600161032f565b34801561089357600080fd5b5060195461032390600160a01b900460ff1681565b3480156108b457600080fd5b506103236108c33660046134ac565b6001600160a01b03918216600090815260066020908152604080832093909416825291909152205460ff1690565b3480156108fd57600080fd5b5061035861090c366004613074565b612124565b34801561091d57600080fd5b5060195461039c906001600160a01b031681565b34801561093d57600080fd5b50610323612157565b600b546001600160a01b031633146109795760405162461bcd60e51b8152600401610970906134d6565b60405180910390fd5b601980546001600160a01b0319166001600160a01b0392909216919091179055565b6060600780546109aa9061350b565b80601f01602080910402602001604051908101604052809291908181526020018280546109d69061350b565b8015610a235780601f106109f857610100808354040283529160200191610a23565b820191906000526020600020905b815481529060010190602001808311610a0657829003601f168201915b5050505050905090565b6000610a38826121d6565b610a995760405162461bcd60e51b815260206004820152602c60248201527f4552433732313a20617070726f76656420717565727920666f72206e6f6e657860448201526b34b9ba32b73a103a37b5b2b760a11b6064820152608401610970565b506000908152600560205260409020546001600160a01b031690565b6000610ac08261157c565b9050806001600160a01b0316836001600160a01b03161415610b2e5760405162461bcd60e51b815260206004820152602160248201527f4552433732313a20617070726f76616c20746f2063757272656e74206f776e656044820152603960f91b6064820152608401610970565b336001600160a01b0382161480610b4a5750610b4a81336108c3565b610bbc5760405162461bcd60e51b815260206004820152603860248201527f4552433732313a20617070726f76652063616c6c6572206973206e6f74206f7760448201527f6e6572206e6f7220617070726f76656420666f7220616c6c00000000000000006064820152608401610970565b610bc683836121e3565b505050565b6018546040516370a0823160e01b81523060048201526000916001600160a01b0316906370a0823190602401602060405180830381865afa158015610c14573d6000803e3d6000fd5b505050506040513d601f19601f82011682018060405250810190610c389190613546565b905090565b6000610c386002612251565b600b546001600160a01b03163314610c735760405162461bcd60e51b8152600401610970906134d6565b476000610c88600b546001600160a01b031690565b6001600160a01b03168260405160006040518083038185875af1925050503d8060008114610cd2576040519150601f19603f3d011682016040523d82523d6000602084013e610cd7565b606091505b5050905080610d1f5760405162461bcd60e51b81526020600482015260146024820152732330b4b632b2103a379039b2b7321022ba3432b960611b6044820152606401610970565b5050565b6001600160a01b03831660009081526012602052604090205460ff1615610d825760405162461bcd60e51b81526020600482015260136024820152721859191c995cdccb589b1858dadb1a5cdd1959606a1b6044820152606401610970565b6001600160a01b03821660009081526012602052604090205460ff1615610de15760405162461bcd60e51b81526020600482015260136024820152721859191c995cdccb589b1858dadb1a5cdd1959606a1b6044820152606401610970565b610bc683838361225c565b600b546001600160a01b03163314610e165760405162461bcd60e51b8152600401610970906134d6565b601880546001600160a01b0319166001600160a01b0392909216919091179055565b6001600160a01b038116600090815260016020526040812060609190610e5d9061228d565b67ffffffffffffffff811115610e7557610e7561331b565b604051908082528060200260200182016040528015610e9e578160200160208202803683370190505b50905060005b6001600160a01b0384166000908152600160205260409020610ec59061228d565b811015610f1d576001600160a01b0384166000908152600160205260409020610eee9082612297565b828281518110610f0057610f0061355f565b602090810291909101015280610f158161358b565b915050610ea4565b5092915050565b600b546001600160a01b03163314610f4e5760405162461bcd60e51b8152600401610970906134d6565b6017805460ff191660ff92909216919091179055565b6001600160a01b0382166000908152600160205260408120610f869083612297565b90505b92915050565b600b546000906001600160a01b03163314610fbc5760405162461bcd60e51b8152600401610970906134d6565b600b54600160a01b900460ff1615610fd357600080fd5b600b805460ff60a01b1916600160a01b1790556040517f6985a02210a168e66602d3235cb6db0e70f92b3ba4d376a33c0f3d9434bff62590600090a150600190565b600b54600160a01b900460ff1661102b57600080fd5b600b546001600160a01b031633146110555760405162461bcd60e51b8152600401610970906134d6565b61105d612157565b50565b610bc6838383604051806020016040528060008152506119cf565b600b546001600160a01b031633146110a55760405162461bcd60e51b8152600401610970906134d6565b6017805463ffffffff909216600160681b0263ffffffff60681b19909216919091179055565b6000806110d96002846122a3565b509392505050565b600b546001600160a01b0316331461110b5760405162461bcd60e51b8152600401610970906134d6565b6019805460ff60a81b198116600160a81b9182900460ff1615909102179055565b601954600160a01b900460ff166111745760405162461bcd60e51b815260206004820152600c60248201526b31b0b7103737ba1037b832b760a11b6044820152606401610970565b600b54600160a01b900460ff161561118b57600080fd5b333b63ffffffff16156111d85760405162461bcd60e51b815260206004820152601560248201527418d85b881b9bdd08189948184818dbdb9d1c9858dd605a1b6044820152606401610970565b601654821461121a5760405162461bcd60e51b815260206004820152600e60248201526d1253959053125108105353d5539560921b6044820152606401610970565b336112248261157c565b6001600160a01b03161461126a5760405162461bcd60e51b815260206004820152600d60248201526c3737ba103a34329037bbb732b960991b6044820152606401610970565b6018546040516323b872dd60e01b8152336004820152306024820152604481018490526001600160a01b03909116906323b872dd906064016020604051808303816000875af11580156112c1573d6000803e3d6000fd5b505050506040513d601f19601f820116820180604052508101906112e591906135a6565b6112ee57600080fd5b6000600d6112fd6001846135c3565b8154811061130d5761130d61355f565b60009182526020918290206040805160a081018252600393840290920180546001600160a01b03168352600181015494830194909452600284015460ff8082169284019290925291939260608501926101009004909116908111156113745761137461340d565b60038111156113855761138561340d565b81526002919091015462010000900467ffffffffffffffff1660209091015260195460608201519192506001600160a01b031690637de166b190339060038111156113d2576113d261340d565b60408086015190516001600160e01b031960e086901b1681526001600160a01b03909316600484015260ff9182166024840152166044820152606401600060405180830381600087803b15801561142857600080fd5b505af115801561143c573d6000803e3d6000fd5b50505050611449826122bf565b7f0bf4c6d3c4b37474b167ca1251166f61a1ad24afe4d0bee7834b830938bee6b93383836060015160038111156114825761148261340d565b604080516001600160a01b039094168452602084019290925260ff169082015242606082015260800160405180910390a1505050565b600b546001600160a01b031633146114e25760405162461bcd60e51b8152600401610970906134d6565b6018546001600160a01b031663a9059cbb611505600b546001600160a01b031690565b61150d610bcb565b6040516001600160e01b031960e085901b1681526001600160a01b03909216600483015260248201526044016020604051808303816000875af1158015611558573d6000803e3d6000fd5b505050506040513d601f19601f8201168201806040525081019061105d91906135a6565b6000610f898260405180606001604052806029815260200161390c602991396002919061234e565b6060600a80546109aa9061350b565b600b546001600160a01b031633146115dd5760405162461bcd60e51b8152600401610970906134d6565b80601060008460038111156115f4576115f461340d565b60038111156116055761160561340d565b815260200190815260200160002060006101000a81548160ff021916908360ff1602179055505050565b60006001600160a01b03821661169a5760405162461bcd60e51b815260206004820152602a60248201527f4552433732313a2062616c616e636520717565727920666f7220746865207a65604482015269726f206164647265737360b01b6064820152608401610970565b6001600160a01b0382166000908152600160205260409020610f899061228d565b600b546001600160a01b031633146116e55760405162461bcd60e51b8152600401610970906134d6565b600b546040516000916001600160a01b0316907f8be0079c531659141344cd1fd0a4f28419497f9722a3daafe3b4186f6b6457e0908390a3600b80546001600160a01b0319169055565b600b546001600160a01b031633146117595760405162461bcd60e51b8152600401610970906134d6565b6017805463ffffffff909216600160881b0263ffffffff60881b19909216919091179055565b600b54600160a01b900460ff161561179657600080fd5b600b546001600160a01b031633146117c05760405162461bcd60e51b8152600401610970906134d6565b61105d610f8f565b6060600880546109aa9061350b565b600b546001600160a01b031633146118015760405162461bcd60e51b8152600401610970906134d6565b60008260038111156118155761181561340d565b14156118555760405162461bcd60e51b815260206004820152600f60248201526e696e76616c6964207061636b61676560881b6044820152606401610970565b6001600160a01b03831661187b5760405162461bcd60e51b8152600401610970906135da565b61188983600e548484612365565b600e80549060006118998361358b565b9190505550505050565b6001600160a01b0382163314156118fc5760405162461bcd60e51b815260206004820152601960248201527f4552433732313a20617070726f766520746f2063616c6c6572000000000000006044820152606401610970565b3360008181526006602090815260408083206001600160a01b03871680855290835292819020805460ff191686151590811790915590519081529192917f17307eab39ab6107e8899845ad3d59bd9653f200f220920489ca2b5937696c31910160405180910390a35050565b600b546001600160a01b031633146119925760405162461bcd60e51b8152600401610970906134d6565b80601160008460038111156119a9576119a961340d565b60038111156119ba576119ba61340d565b81526020810191909152604001600020555050565b6119d9338361259c565b6119f55760405162461bcd60e51b81526004016109709061360f565b611a0184848484612686565b50505050565b6040805160a081018252600080825260208201819052918101829052606081018290526080810191909152600d611a3f6001846135c3565b81548110611a4f57611a4f61355f565b60009182526020918290206040805160a081018252600393840290920180546001600160a01b03168352600181015494830194909452600284015460ff808216928401929092529193926060850192610100900490911690811115611ab657611ab661340d565b6003811115611ac757611ac761340d565b81526002919091015462010000900467ffffffffffffffff1660209091015292915050565b600b546001600160a01b03163314611b165760405162461bcd60e51b8152600401610970906134d6565b6017805463ffffffff909216600160a81b0263ffffffff60a81b19909216919091179055565b600b546001600160a01b03163314611b665760405162461bcd60e51b8152600401610970906134d6565b6019805460ff60a01b198116600160a01b9182900460ff1615909102179055565b6002600c541415611bda5760405162461bcd60e51b815260206004820152601f60248201527f5265656e7472616e637947756172643a207265656e7472616e742063616c6c006044820152606401610970565b6002600c55601954600160a81b900460ff16611c2e5760405162461bcd60e51b81526020600482015260136024820152727061636b61676520756e617661696c61626c6560681b6044820152606401610970565b600b54600160a01b900460ff1615611c4557600080fd5b601754336000908152600f602052604090205460ff918216911610611ca35760405162461bcd60e51b81526020600482015260146024820152731dd85b1b195d0b5c1858dad859d94b5b1a5b5a5d60621b6044820152606401610970565b333b63ffffffff1615611cef5760405162461bcd60e51b815260206004820152601460248201527318dbdb9d1c9858dd081b9bdd08185b1b1bddd95960621b6044820152606401610970565b6000826003811115611d0357611d0361340d565b1415611d435760405162461bcd60e51b815260206004820152600f60248201526e696e76616c6964207061636b61676560881b6044820152606401610970565b33611d605760405162461bcd60e51b8152600401610970906135da565b60116000836003811115611d7657611d7661340d565b6003811115611d8757611d8761340d565b8152602001908152602001600020543414611dd55760405162461bcd60e51b815260206004820152600e60248201526d1253959053125108105353d5539560921b6044820152606401610970565b6001826003811115611de957611de961340d565b1415611e635760175463ffffffff600160681b820481166101009092041610611e245760405162461bcd60e51b815260040161097090613660565b60178054610100900463ffffffff16906001611e3f83613682565b91906101000a81548163ffffffff021916908363ffffffff16021790555050611f49565b6002826003811115611e7757611e7761340d565b1415611ed55760175463ffffffff600160881b82048116650100000000009092041610611eb65760405162461bcd60e51b815260040161097090613660565b6017805465010000000000900463ffffffff16906005611e3f83613682565b60175463ffffffff600160a81b82048116600160481b9092041610611f0c5760405162461bcd60e51b815260040161097090613660565b60178054600160481b900463ffffffff16906009611f2983613682565b91906101000a81548163ffffffff021916908363ffffffff160217905550505b611f5733600e548484612365565b336000908152600f6020526040902054611f759060ff1660016136a6565b336000908152600f60205260408120805460ff191660ff9390931692909217909155600e805491611fa58361358b565b90915550506001600c555050565b6060611fbe826121d6565b6120225760405162461bcd60e51b815260206004820152602f60248201527f4552433732314d657461646174613a2055524920717565727920666f72206e6f60448201526e3732bc34b9ba32b73a103a37b5b2b760891b6064820152608401610970565b6000828152600960205260408120805461203b9061350b565b80601f01602080910402602001604051908101604052809291908181526020018280546120679061350b565b80156120b45780601f10612089576101008083540402835291602001916120b4565b820191906000526020600020905b81548152906001019060200180831161209757829003601f168201915b50505050509050600a80546120c89061350b565b151590506120d65792915050565b80511561210857600a816040516020016120f19291906136e7565b604051602081830303815290604052915050919050565b600a612113846126b9565b6040516020016120f19291906136e7565b600b546001600160a01b0316331461214e5760405162461bcd60e51b8152600401610970906134d6565b61105d816127d0565b600b546000906001600160a01b031633146121845760405162461bcd60e51b8152600401610970906134d6565b600b54600160a01b900460ff1661219a57600080fd5b600b805460ff60a01b191690556040517f7805862f689e2f13df9f062ff482ad3ad112aca9e0847911ed832e158c525b3390600090a150600190565b6000610f89600283612891565b600081815260056020526040902080546001600160a01b0319166001600160a01b03841690811790915581906122188261157c565b6001600160a01b03167f8c5be1e5ebec7d5bd14f71427d1e84f3dd0314c0f7b2291e5b200ac8c7c3b92560405160405180910390a45050565b6000610f898261289d565b612266338261259c565b6122825760405162461bcd60e51b81526004016109709061360f565b610bc68383836128a8565b6000610f89825490565b6000610f868383612a34565b60008080806122b28686612a5e565b9097909650945050505050565b60006122ca8261157c565b90506122d881600084612a89565b6122e36000836121e3565b6001600160a01b03811660009081526001602052604090206123059083612aa0565b50612311600283612aac565b5060405182906000906001600160a01b038416907fddf252ad1be2c89b69c2b068fc378daa952ba7f163c4a11628f55a4df523b3ef908390a45050565b600061235b848484612ab8565b90505b9392505050565b60006040518060a00160405280866001600160a01b031681526020018581526020016010600086600381111561239d5761239d61340d565b60038111156123ae576123ae61340d565b81526020808201929092526040016000205460ff168252018460038111156123d8576123d861340d565b81526020014267ffffffffffffffff168152509050612407858560405180602001604052806000815250612afb565b600d8054600181018255600091909152815160039182027fd7b6990105719101dabeb77144f2a3385c8033acd3af97e9423a695e81ad1eb5810180546001600160a01b039093166001600160a01b031990931692909217825560208401517fd7b6990105719101dabeb77144f2a3385c8033acd3af97e9423a695e81ad1eb682015560408401517fd7b6990105719101dabeb77144f2a3385c8033acd3af97e9423a695e81ad1eb7909101805460ff90921660ff1983168117825560608601518695909361ffff1916909117906101009084908111156124e9576124e961340d565b021790555060808201518160020160026101000a81548167ffffffffffffffff021916908367ffffffffffffffff16021790555050507f9cd6172b8095a1baebea2053c4f84ef9c9d8a0e013638d24573f908c1e6d07fd8582602001518360600151600381111561255c5761255c61340d565b604080516001600160a01b039094168452602084019290925260ff1690820152426060820152831515608082015260a00160405180910390a15050505050565b60006125a7826121d6565b6126085760405162461bcd60e51b815260206004820152602c60248201527f4552433732313a206f70657261746f7220717565727920666f72206e6f6e657860448201526b34b9ba32b73a103a37b5b2b760a11b6064820152608401610970565b60006126138361157c565b9050806001600160a01b0316846001600160a01b0316148061264e5750836001600160a01b031661264384610a2d565b6001600160a01b0316145b8061267e57506001600160a01b0380821660009081526006602090815260408083209388168352929052205460ff165b949350505050565b6126918484846128a8565b61269d84848484612b2e565b611a015760405162461bcd60e51b81526004016109709061378e565b6060816126dd5750506040805180820190915260018152600360fc1b602082015290565b8160005b811561270757806126f18161358b565b91506127009050600a836137f6565b91506126e1565b60008167ffffffffffffffff8111156127225761272261331b565b6040519080825280601f01601f19166020018201604052801561274c576020820181803683370190505b509050600061275c6001846135c3565b90508593505b83156127c757612773600a8561380a565b61277e90603061381e565b60f81b828261278c81613836565b93508151811061279e5761279e61355f565b60200101906001600160f81b031916908160001a9053506127c0600a856137f6565b9350612762565b50949350505050565b6001600160a01b0381166128355760405162461bcd60e51b815260206004820152602660248201527f4f776e61626c653a206e6577206f776e657220697320746865207a65726f206160448201526564647265737360d01b6064820152608401610970565b600b546040516001600160a01b038084169216907f8be0079c531659141344cd1fd0a4f28419497f9722a3daafe3b4186f6b6457e090600090a3600b80546001600160a01b0319166001600160a01b0392909216919091179055565b6000610f868383612bff565b6000610f898261228d565b826001600160a01b03166128bb8261157c565b6001600160a01b0316146129235760405162461bcd60e51b815260206004820152602960248201527f4552433732313a207472616e73666572206f6620746f6b656e2074686174206960448201526839903737ba1037bbb760b91b6064820152608401610970565b6001600160a01b0382166129855760405162461bcd60e51b8152602060048201526024808201527f4552433732313a207472616e7366657220746f20746865207a65726f206164646044820152637265737360e01b6064820152608401610970565b612990838383612a89565b61299b6000826121e3565b6001600160a01b03831660009081526001602052604090206129bd9082612aa0565b506001600160a01b03821660009081526001602052604090206129e09082612c0b565b506129ed60028284612c17565b5080826001600160a01b0316846001600160a01b03167fddf252ad1be2c89b69c2b068fc378daa952ba7f163c4a11628f55a4df523b3ef60405160405180910390a4505050565b6000826000018281548110612a4b57612a4b61355f565b9060005260206000200154905092915050565b60008080612a6c8585612297565b600081815260029690960160205260409095205494959350505050565b600b54600160a01b900460ff1615610bc657600080fd5b6000610f868383612c2d565b6000610f868383612d20565b600082815260028401602052604081205480151580612adc5750612adc8585612bff565b83906127c75760405162461bcd60e51b815260040161097091906130e7565b612b058383612d3d565b612b126000848484612b2e565b610bc65760405162461bcd60e51b81526004016109709061378e565b60006001600160a01b0384163b612b475750600161267e565b6000612bc8630a85bd0160e11b33888787604051602401612b6b949392919061384d565b604051602081830303815290604052906001600160e01b0319166020820180516001600160e01b0383818316178352505050506040518060600160405280603281526020016138da603291396001600160a01b0388169190612e31565b9050600081806020019051810190612be0919061388a565b6001600160e01b031916630a85bd0160e11b1492505050949350505050565b6000610f868383612e40565b6000610f868383612e58565b600061235b84846001600160a01b038516612ea7565b60008181526001830160205260408120548015612d16576000612c516001836135c3565b8554909150600090612c65906001906135c3565b9050818114612cca576000866000018281548110612c8557612c8561355f565b9060005260206000200154905080876000018481548110612ca857612ca861355f565b6000918252602080832090910192909255918252600188019052604090208390555b8554869080612cdb57612cdb6138a7565b600190038181906000526020600020016000905590558560010160008681526020019081526020016000206000905560019350505050610f89565b6000915050610f89565b60008181526002830160205260408120819055610f868383612aa0565b6001600160a01b038216612d635760405162461bcd60e51b8152600401610970906135da565b612d6c816121d6565b15612db95760405162461bcd60e51b815260206004820152601c60248201527f4552433732313a20746f6b656e20616c7265616479206d696e746564000000006044820152606401610970565b612dc560008383612a89565b6001600160a01b0382166000908152600160205260409020612de79082612c0b565b50612df460028284612c17565b5060405181906001600160a01b038416906000907fddf252ad1be2c89b69c2b068fc378daa952ba7f163c4a11628f55a4df523b3ef908290a45050565b606061235b8484600085612ec4565b60008181526001830160205260408120541515610f86565b6000818152600183016020526040812054612e9f57508154600181810184556000848152602080822090930184905584548482528286019093526040902091909155610f89565b506000610f89565b6000828152600284016020526040812082905561235b8484612c0b565b606082471015612f255760405162461bcd60e51b815260206004820152602660248201527f416464726573733a20696e73756666696369656e742062616c616e636520666f6044820152651c8818d85b1b60d21b6064820152608401610970565b843b612f735760405162461bcd60e51b815260206004820152601d60248201527f416464726573733a2063616c6c20746f206e6f6e2d636f6e74726163740000006044820152606401610970565b600080866001600160a01b03168587604051612f8f91906138bd565b60006040518083038185875af1925050503d8060008114612fcc576040519150601f19603f3d011682016040523d82523d6000602084013e612fd1565b606091505b5091509150612fe1828286612fec565b979650505050505050565b60608315612ffb57508161235e565b82511561300b5782518084602001fd5b8160405162461bcd60e51b815260040161097091906130e7565b6001600160e01b03198116811461105d57600080fd5b60006020828403121561304d57600080fd5b813561235e81613025565b80356001600160a01b038116811461306f57600080fd5b919050565b60006020828403121561308657600080fd5b610f8682613058565b60005b838110156130aa578181015183820152602001613092565b83811115611a015750506000910152565b600081518084526130d381602086016020860161308f565b601f01601f19169290920160200192915050565b602081526000610f8660208301846130bb565b60006020828403121561310c57600080fd5b5035919050565b6000806040838503121561312657600080fd5b61312f83613058565b946020939093013593505050565b60008060006060848603121561315257600080fd5b61315b84613058565b925061316960208501613058565b9150604084013590509250925092565b6020808252825182820181905260009190848201906040850190845b818110156131b157835183529284019291840191600101613195565b50909695505050505050565b803560ff8116811461306f57600080fd5b6000602082840312156131e057600080fd5b610f86826131bd565b6000602082840312156131fb57600080fd5b813563ffffffff8116811461235e57600080fd5b6000806040838503121561322257600080fd5b50508035926020909101359150565b80356004811061306f57600080fd5b6000806040838503121561325357600080fd5b61325c83613231565b915061326a602084016131bd565b90509250929050565b801515811461105d57600080fd5b60008060006060848603121561329657600080fd5b61329f84613058565b92506132ad60208501613231565b915060408401356132bd81613273565b809150509250925092565b600080604083850312156132db57600080fd5b6132e483613058565b915060208301356132f481613273565b809150509250929050565b6000806040838503121561331257600080fd5b61312f83613231565b634e487b7160e01b600052604160045260246000fd5b6000806000806080858703121561334757600080fd5b61335085613058565b935061335e60208601613058565b925060408501359150606085013567ffffffffffffffff8082111561338257600080fd5b818701915087601f83011261339657600080fd5b8135818111156133a8576133a861331b565b604051601f8201601f19908116603f011681019083821181831017156133d0576133d061331b565b816040528281528a60208487010111156133e957600080fd5b82602086016020830137600060208483010152809550505050505092959194509250565b634e487b7160e01b600052602160045260246000fd5b81516001600160a01b031681526020808301519082015260408083015160ff1690820152606082015160a08201906004811061346f57634e487b7160e01b600052602160045260246000fd5b8060608401525067ffffffffffffffff608084015116608083015292915050565b600080604083850312156134a357600080fd5b6132e483613231565b600080604083850312156134bf57600080fd5b6134c883613058565b915061326a60208401613058565b6020808252818101527f4f776e61626c653a2063616c6c6572206973206e6f7420746865206f776e6572604082015260600190565b600181811c9082168061351f57607f821691505b6020821081141561354057634e487b7160e01b600052602260045260246000fd5b50919050565b60006020828403121561355857600080fd5b5051919050565b634e487b7160e01b600052603260045260246000fd5b634e487b7160e01b600052601160045260246000fd5b600060001982141561359f5761359f613575565b5060010190565b6000602082840312156135b857600080fd5b815161235e81613273565b6000828210156135d5576135d5613575565b500390565b6020808252818101527f4552433732313a206d696e7420746f20746865207a65726f2061646472657373604082015260600190565b60208082526031908201527f4552433732313a207472616e736665722063616c6c6572206973206e6f74206f6040820152701ddb995c881b9bdc88185c1c1c9bdd9959607a1b606082015260800190565b6020808252600890820152671cdbdb19081bdd5d60c21b604082015260600190565b600063ffffffff8083168181141561369c5761369c613575565b6001019392505050565b600060ff821660ff84168060ff038211156136c3576136c3613575565b019392505050565b600081516136dd81856020860161308f565b9290920192915050565b600080845481600182811c91508083168061370357607f831692505b602080841082141561372357634e487b7160e01b86526022600452602486fd5b818015613737576001811461374857613775565b60ff19861689528489019650613775565b60008b81526020902060005b8681101561376d5781548b820152908501908301613754565b505084890196505b50505050505061378581856136cb565b95945050505050565b60208082526032908201527f4552433732313a207472616e7366657220746f206e6f6e20455243373231526560408201527131b2b4bb32b91034b6b83632b6b2b73a32b960711b606082015260800190565b634e487b7160e01b600052601260045260246000fd5b600082613805576138056137e0565b500490565b600082613819576138196137e0565b500690565b6000821982111561383157613831613575565b500190565b60008161384557613845613575565b506000190190565b6001600160a01b0385811682528416602082015260408101839052608060608201819052600090613880908301846130bb565b9695505050505050565b60006020828403121561389c57600080fd5b815161235e81613025565b634e487b7160e01b600052603160045260246000fd5b600082516138cf81846020870161308f565b919091019291505056fe4552433732313a207472616e7366657220746f206e6f6e20455243373231526563656976657220696d706c656d656e7465724552433732313a206f776e657220717565727920666f72206e6f6e6578697374656e7420746f6b656ea2646970667358221220afcd27280171bd91cf37330e4dfda3b27f7853270dc10ddb3a5f71232c7dcf1d64736f6c634300080b00334f776e61626c653a2063616c6c6572206973206e6f7420746865206f776e6572",
  "immutableReferences": {},
  "source": "// SPDX-License-Identifier: MIT\r\npragma solidity ^0.8.2;\r\n\r\nimport \"./IBEP20.sol\";\r\nimport \"./IMarketplace.sol\";\r\nimport \"./SafeMath.sol\";\r\nimport \"./Ownable.sol\";\r\nimport \"./ERC721.sol\";\r\nimport \"./ERC721Pausable.sol\";\r\nimport \"./IRobotCore.sol\";\r\nimport \"./ReentrancyGuard.sol\";\r\n\r\ncontract RobotPackage is Ownable, ERC721Pausable, ReentrancyGuard {\r\n    using SafeMath for uint256;\r\n\r\n    struct Package {\r\n        address owner;\r\n        uint256 packageId; // id of the package\r\n        uint8 robotQuantity; // quantity of robots on this package\r\n        PackageType packageType; //package type\r\n        uint64 birthTime; // The timestamp from the block when this package came into existence.\r\n    }\r\n\r\n    enum PackageType {\r\n        Default,\r\n        First,\r\n        Second,\r\n        Third\r\n    }\r\n\r\n    /*** STORAGE ***/\r\n    /// @dev An array containing the package struct for all packages in existence. The ID\r\n    ///  of each package is actually an index into this array.\r\n    Package[] packages;\r\n\r\n    event PackageCreated(\r\n        address to,\r\n        uint256 packId,\r\n        uint8 packageType,\r\n        uint256 date,\r\n        bool isPresale\r\n    );\r\n\r\n    event Unpacked(\r\n        address owner,\r\n        uint256 packId,\r\n        uint8 packageType,\r\n        uint256 date\r\n    );\r\n\r\n    /* PACKAGE VARIABLES */\r\n    uint256 private nextPackageTokenId = 1;\r\n\r\n    mapping(address => uint8) walletPackages;\r\n    mapping(PackageType => uint8) private _packageTypeRobots;\r\n    mapping(PackageType => uint256) private _packageTypePrice;\r\n    mapping(address => bool) private banBlackList;\r\n\r\n    uint256 private priceFirstPackage = 0.2 * 10**18;\r\n    uint256 private priceSecondPackage = 0.5 * 10**18;\r\n    uint256 private priceThirdPackage = 0.9 * 10**18;\r\n    uint256 private openPackagePrice = 5 * 10**18;\r\n    uint8 private totalPackagesOwner = 2;\r\n\r\n    uint32 firstPackageCount;\r\n    uint32 secondPackageCount;\r\n    uint32 thirdPackageCount;\r\n    uint32 firstPackageLimit = 300;\r\n    uint32 secondPackageLimit = 120;\r\n    uint32 thirdPackageLimit = 50;\r\n\r\n    address public _mekaAddress;\r\n    address public _robotCoreAddress;\r\n    bool public canUnpack;\r\n    bool public isPackageAvailable;\r\n\r\n    constructor() ERC721(\"Mekabot Package\", \"MekabotPkg\") {\r\n        //Package Configs\r\n        canUnpack = false;\r\n        isPackageAvailable = false;\r\n\r\n        setPackageTypePrice(PackageType.First, priceFirstPackage);\r\n        setPackageTypePrice(PackageType.Second, priceSecondPackage);\r\n        setPackageTypePrice(PackageType.Third, priceThirdPackage);\r\n        setPackageTypeRobots(PackageType.First, 1);\r\n        setPackageTypeRobots(PackageType.Second, 2);\r\n        setPackageTypeRobots(PackageType.Third, 3);\r\n    }\r\n\r\n    function setPackageLimit(uint8 limit) external onlyOwner {\r\n        totalPackagesOwner = limit;\r\n    }\r\n\r\n    function setTokenAddress(address _addr) external onlyOwner {\r\n        _mekaAddress = _addr;\r\n    }\r\n\r\n    function setRobotAddress(address robotAddress) external onlyOwner {\r\n        _robotCoreAddress = robotAddress;\r\n    }\r\n\r\n    function setFirstPackageLimit(uint32 quantity) external onlyOwner {\r\n        firstPackageLimit = quantity;\r\n    }\r\n\r\n    function setSecondPackageLimit(uint32 quantity) external onlyOwner {\r\n        secondPackageLimit = quantity;\r\n    }\r\n\r\n    function setThirdPackageLimit(uint32 quantity) external onlyOwner {\r\n        thirdPackageLimit = quantity;\r\n    }\r\n\r\n    function setTotalPackagesOwner(uint8 quantity) external onlyOwner {\r\n        totalPackagesOwner = quantity;\r\n    }\r\n\r\n    function setPackageTypePrice(PackageType _packageType, uint256 amount)\r\n        public\r\n        onlyOwner\r\n    {\r\n        _packageTypePrice[_packageType] = amount;\r\n    }\r\n\r\n    function setPackageTypeRobots(PackageType _packageType, uint8 quantity)\r\n        public\r\n        onlyOwner\r\n    {\r\n        _packageTypeRobots[_packageType] = quantity;\r\n    }\r\n\r\n    function updateCanUnpack() external onlyOwner {\r\n        canUnpack = !canUnpack;\r\n    }\r\n\r\n    function updatePackageAvailable() external onlyOwner {\r\n        isPackageAvailable = !isPackageAvailable;\r\n    }\r\n\r\n    modifier canOpen() {\r\n        require(canUnpack, \"can not open\");\r\n        _;\r\n    }\r\n\r\n    modifier packageAvailable() {\r\n        require(isPackageAvailable, \"package unavailable\");\r\n        _;\r\n    }\r\n\r\n    function withdrawBalance() external onlyOwner {\r\n        IBEP20(_mekaAddress).transfer(owner(), getBalance());\r\n    }\r\n\r\n    function withdrawBnb() external onlyOwner {\r\n        uint256 amount = address(this).balance;\r\n\r\n        (bool success, ) = payable(owner()).call{value: amount}(\"\");\r\n        require(success, \"Failed to send Ether\");\r\n    }\r\n\r\n    function getBalance() public view returns (uint256) {\r\n        return IBEP20(_mekaAddress).balanceOf(address(this));\r\n    }\r\n\r\n    function getBnbBalance() public view returns (uint256) {\r\n        return address(this).balance;\r\n    }\r\n\r\n    function pause() public whenNotPaused onlyOwner {\r\n        _pause();\r\n    }\r\n\r\n    function unpause() public whenPaused onlyOwner {\r\n        _unpause();\r\n    }\r\n\r\n    /* ROBOT PACKAGE */\r\n    function _mintPackage(\r\n        address _to,\r\n        uint256 _tokenId,\r\n        PackageType _packageType,\r\n        bool isPresale\r\n    ) private {\r\n        Package memory _package = Package({\r\n            owner: _to,\r\n            packageType: _packageType,\r\n            packageId: _tokenId,\r\n            robotQuantity: _packageTypeRobots[_packageType],\r\n            birthTime: uint64(block.timestamp)\r\n        });\r\n\r\n        _safeMint(_to, _tokenId, \"\");\r\n        packages.push(_package);\r\n\r\n        emit PackageCreated(\r\n            _to,\r\n            _package.packageId,\r\n            uint8(_package.packageType),\r\n            block.timestamp,\r\n            isPresale\r\n        );\r\n    }\r\n\r\n    function createPackage(PackageType _packageType, bool _isPresale)\r\n        external\r\n        payable\r\n        nonReentrant\r\n        packageAvailable\r\n        whenNotPaused\r\n    {\r\n        require(\r\n            walletPackages[msg.sender] < totalPackagesOwner,\r\n            \"wallet-package-limit\"\r\n        );\r\n        require(!isContract(msg.sender), \"contract not allowed\");\r\n        require(_packageType != PackageType.Default, \"invalid package\");\r\n        require(msg.sender != address(0), \"ERC721: mint to the zero address\");\r\n        require(msg.value == _packageTypePrice[_packageType], \"INVALID AMOUNT\");\r\n\r\n        if (_packageType == PackageType.First) {\r\n            require(firstPackageCount < firstPackageLimit, \"sold out\");\r\n            firstPackageCount++;\r\n        } else if (_packageType == PackageType.Second) {\r\n            require(secondPackageCount < secondPackageLimit, \"sold out\");\r\n            secondPackageCount++;\r\n        } else {\r\n            require(thirdPackageCount < thirdPackageLimit, \"sold out\");\r\n            thirdPackageCount++;\r\n        }\r\n\r\n        _mintPackage(msg.sender, nextPackageTokenId, _packageType, _isPresale);\r\n        walletPackages[msg.sender] = walletPackages[msg.sender] + 1;\r\n        nextPackageTokenId++;\r\n    }\r\n\r\n    function createPackageExtra(\r\n        address _to,\r\n        PackageType _packageType,\r\n        bool _isPresale\r\n    ) external onlyOwner {\r\n        require(_packageType != PackageType.Default, \"invalid package\");\r\n        require(_to != address(0), \"ERC721: mint to the zero address\");\r\n\r\n        _mintPackage(_to, nextPackageTokenId, _packageType, _isPresale);\r\n        nextPackageTokenId++;\r\n    }\r\n\r\n    function openPackage(uint256 _amount, uint256 _tokenId)\r\n        external\r\n        canOpen\r\n        whenNotPaused\r\n    {\r\n        require(!isContract(msg.sender), \"can not be a contract\");\r\n        require(_amount == openPackagePrice, \"INVALID AMOUNT\");\r\n        require(ownerOf(_tokenId) == msg.sender, \"not the owner\");\r\n        require(\r\n            IBEP20(_mekaAddress).transferFrom(\r\n                msg.sender,\r\n                address(this),\r\n                _amount\r\n            )\r\n        );\r\n\r\n        Package memory package = packages[_tokenId - 1];\r\n\r\n        IRobotCore(_robotCoreAddress).createRobotFromBundle(\r\n            msg.sender,\r\n            uint8(package.packageType),\r\n            package.robotQuantity\r\n        );\r\n\r\n        _burn(_tokenId);\r\n\r\n        emit Unpacked(\r\n            msg.sender,\r\n            _tokenId,\r\n            uint8(package.packageType),\r\n            block.timestamp\r\n        );\r\n    }\r\n\r\n    /**\r\n     * @dev Identify an address is user address or contract address\r\n     */\r\n    function isContract(address _address) private view returns (bool) {\r\n        uint32 size;\r\n        assembly {\r\n            size := extcodesize(_address)\r\n        }\r\n        return (size > 0);\r\n    }\r\n\r\n    function getPackagesCount()\r\n        external\r\n        view\r\n        returns (\r\n            uint32 _firstPackageCount,\r\n            uint32 _secondPackageCount,\r\n            uint32 _thirdPackageCount\r\n        )\r\n    {\r\n        _firstPackageCount = firstPackageCount;\r\n        _secondPackageCount = secondPackageCount;\r\n        _thirdPackageCount = thirdPackageCount;\r\n    }\r\n\r\n    function getPackage(uint256 _id)\r\n        public\r\n        view\r\n        returns (Package memory package)\r\n    {\r\n        package = packages[_id - 1];\r\n    }\r\n\r\n    function transferFrom(\r\n        address _from,\r\n        address _receiver,\r\n        uint256 _tokenId\r\n    ) public override {\r\n        require(!banBlackList[_from], \"address-blacklisted\");\r\n        require(!banBlackList[_receiver], \"address-blacklisted\");\r\n\r\n        super.transferFrom(_from, _receiver, _tokenId);\r\n    }\r\n}\r\n",
  "sourcePath": "E:\\MekaMiners\\contracts\\RobotPackage.sol",
  "compiler": {
    "name": "solc",
    "version": "0.8.11+commit.d7f03943.Emscripten.clang"
  },
  "schemaVersion": "3.4.3",
  "updatedAt": "2022-01-18T23:39:32.703Z",
  "networkType": "ethereum",
  "devdoc": {
    "kind": "dev",
    "methods": {
      "_pause()": {
        "details": "called by the owner to pause, triggers stopped state"
      },
      "_unpause()": {
        "details": "called by the owner to unpause, returns to normal state"
      },
      "approve(address,uint256)": {
        "details": "See {IERC721-approve}."
      },
      "balanceOf(address)": {
        "details": "See {IERC721-balanceOf}."
      },
      "baseURI()": {
        "details": "Returns the base URI set via {_setBaseURI}. This will be automatically added as a prefix in {tokenURI} to each token's URI, or to the token ID if no specific URI is set for that token ID."
      },
      "getApproved(uint256)": {
        "details": "See {IERC721-getApproved}."
      },
      "isApprovedForAll(address,address)": {
        "details": "See {IERC721-isApprovedForAll}."
      },
      "isOwner()": {
        "details": "Returns true if the caller is the current owner."
      },
      "name()": {
        "details": "See {IERC721Metadata-name}."
      },
      "owner()": {
        "details": "Returns the address of the current owner."
      },
      "ownerOf(uint256)": {
        "details": "See {IERC721-ownerOf}."
      },
      "renounceOwnership()": {
        "details": "Leaves the contract without owner. It will not be possible to call `onlyOwner` functions anymore. Can only be called by the current owner. NOTE: Renouncing ownership will leave the contract without an owner, thereby removing any functionality that is only available to the owner."
      },
      "safeTransferFrom(address,address,uint256)": {
        "details": "See {IERC721-safeTransferFrom}."
      },
      "safeTransferFrom(address,address,uint256,bytes)": {
        "details": "See {IERC721-safeTransferFrom}."
      },
      "setApprovalForAll(address,bool)": {
        "details": "See {IERC721-setApprovalForAll}."
      },
      "supportsInterface(bytes4)": {
        "details": "See {IERC165-supportsInterface}. Time complexity O(1), guaranteed to always use less than 30 000 gas."
      },
      "symbol()": {
        "details": "See {IERC721Metadata-symbol}."
      },
      "tokenByIndex(uint256)": {
        "details": "See {IERC721Enumerable-tokenByIndex}."
      },
      "tokenOfOwner(address)": {
        "details": "See {IERC721Enumerable-tokenOfOwner}."
      },
      "tokenOfOwnerByIndex(address,uint256)": {
        "details": "See {IERC721Enumerable-tokenOfOwnerByIndex}."
      },
      "tokenURI(uint256)": {
        "details": "See {IERC721Metadata-tokenURI}."
      },
      "totalSupply()": {
        "details": "See {IERC721Enumerable-totalSupply}."
      },
      "transferOwnership(address)": {
        "details": "Transfers ownership of the contract to a new account (`newOwner`). Can only be called by the current owner."
      }
    },
    "stateVariables": {
      "packages": {
        "details": "An array containing the package struct for all packages in existence. The ID  of each package is actually an index into this array."
      }
    },
    "version": 1
  },
  "userdoc": {
    "kind": "user",
    "methods": {},
    "version": 1
  }
}