{
  "contractName": "RobotMarketplace",
  "abi": [
    {
      "inputs": [
        {
          "internalType": "address",
          "name": "_nftAddr",
          "type": "address"
        },
        {
          "internalType": "uint256",
          "name": "_cut",
          "type": "uint256"
        },
        {
          "internalType": "address",
          "name": "_mekaToken",
          "type": "address"
        }
      ],
      "stateMutability": "nonpayable",
      "type": "constructor"
    },
    {
      "anonymous": false,
      "inputs": [
        {
          "indexed": true,
          "internalType": "address",
          "name": "previousOwner",
          "type": "address"
        },
        {
          "indexed": true,
          "internalType": "address",
          "name": "newOwner",
          "type": "address"
        }
      ],
      "name": "OwnershipTransferred",
      "type": "event"
    },
    {
      "anonymous": false,
      "inputs": [],
      "name": "Pause",
      "type": "event"
    },
    {
      "anonymous": false,
      "inputs": [
        {
          "indexed": false,
          "internalType": "uint256",
          "name": "tokenId",
          "type": "uint256"
        }
      ],
      "name": "SaleCancelled",
      "type": "event"
    },
    {
      "anonymous": false,
      "inputs": [
        {
          "indexed": false,
          "internalType": "uint256",
          "name": "tokenId",
          "type": "uint256"
        },
        {
          "indexed": false,
          "internalType": "uint256",
          "name": "startingPrice",
          "type": "uint256"
        }
      ],
      "name": "SaleCreated",
      "type": "event"
    },
    {
      "anonymous": false,
      "inputs": [
        {
          "indexed": false,
          "internalType": "uint256",
          "name": "tokenId",
          "type": "uint256"
        },
        {
          "indexed": false,
          "internalType": "uint256",
          "name": "totalPrice",
          "type": "uint256"
        },
        {
          "indexed": false,
          "internalType": "address",
          "name": "winner",
          "type": "address"
        }
      ],
      "name": "SaleSuccessful",
      "type": "event"
    },
    {
      "anonymous": false,
      "inputs": [],
      "name": "Unpause",
      "type": "event"
    },
    {
      "inputs": [],
      "name": "MEKAToken",
      "outputs": [
        {
          "internalType": "address",
          "name": "",
          "type": "address"
        }
      ],
      "stateMutability": "view",
      "type": "function",
      "constant": true
    },
    {
      "inputs": [],
      "name": "_pause",
      "outputs": [
        {
          "internalType": "bool",
          "name": "",
          "type": "bool"
        }
      ],
      "stateMutability": "nonpayable",
      "type": "function"
    },
    {
      "inputs": [],
      "name": "_unpause",
      "outputs": [
        {
          "internalType": "bool",
          "name": "",
          "type": "bool"
        }
      ],
      "stateMutability": "nonpayable",
      "type": "function"
    },
    {
      "inputs": [
        {
          "internalType": "uint256",
          "name": "_tokenId",
          "type": "uint256"
        },
        {
          "internalType": "uint256",
          "name": "_amount",
          "type": "uint256"
        }
      ],
      "name": "bid",
      "outputs": [],
      "stateMutability": "payable",
      "type": "function",
      "payable": true
    },
    {
      "inputs": [
        {
          "internalType": "uint256",
          "name": "_tokenId",
          "type": "uint256"
        }
      ],
      "name": "cancelSale",
      "outputs": [],
      "stateMutability": "nonpayable",
      "type": "function"
    },
    {
      "inputs": [
        {
          "internalType": "uint256",
          "name": "_tokenId",
          "type": "uint256"
        }
      ],
      "name": "cancelSaleWhenPaused",
      "outputs": [],
      "stateMutability": "nonpayable",
      "type": "function"
    },
    {
      "inputs": [
        {
          "internalType": "uint256",
          "name": "_cut",
          "type": "uint256"
        }
      ],
      "name": "changeCut",
      "outputs": [],
      "stateMutability": "nonpayable",
      "type": "function"
    },
    {
      "inputs": [],
      "name": "contributorCut",
      "outputs": [
        {
          "internalType": "uint256",
          "name": "",
          "type": "uint256"
        }
      ],
      "stateMutability": "view",
      "type": "function",
      "constant": true
    },
    {
      "inputs": [],
      "name": "getBalance",
      "outputs": [
        {
          "internalType": "uint256",
          "name": "",
          "type": "uint256"
        }
      ],
      "stateMutability": "view",
      "type": "function",
      "constant": true
    },
    {
      "inputs": [],
      "name": "getBnbBalance",
      "outputs": [
        {
          "internalType": "uint256",
          "name": "",
          "type": "uint256"
        }
      ],
      "stateMutability": "view",
      "type": "function",
      "constant": true
    },
    {
      "inputs": [
        {
          "internalType": "uint256",
          "name": "_tokenId",
          "type": "uint256"
        }
      ],
      "name": "getSale",
      "outputs": [
        {
          "internalType": "address",
          "name": "seller",
          "type": "address"
        },
        {
          "internalType": "uint256",
          "name": "startingPrice",
          "type": "uint256"
        },
        {
          "internalType": "uint256",
          "name": "startedAt",
          "type": "uint256"
        }
      ],
      "stateMutability": "view",
      "type": "function",
      "constant": true
    },
    {
      "inputs": [],
      "name": "isOwner",
      "outputs": [
        {
          "internalType": "bool",
          "name": "",
          "type": "bool"
        }
      ],
      "stateMutability": "view",
      "type": "function",
      "constant": true
    },
    {
      "inputs": [],
      "name": "nonFungibleContract",
      "outputs": [
        {
          "internalType": "address",
          "name": "",
          "type": "address"
        }
      ],
      "stateMutability": "view",
      "type": "function",
      "constant": true
    },
    {
      "inputs": [],
      "name": "owner",
      "outputs": [
        {
          "internalType": "address",
          "name": "",
          "type": "address"
        }
      ],
      "stateMutability": "view",
      "type": "function",
      "constant": true
    },
    {
      "inputs": [],
      "name": "ownerCut",
      "outputs": [
        {
          "internalType": "uint256",
          "name": "",
          "type": "uint256"
        }
      ],
      "stateMutability": "view",
      "type": "function",
      "constant": true
    },
    {
      "inputs": [],
      "name": "paused",
      "outputs": [
        {
          "internalType": "bool",
          "name": "",
          "type": "bool"
        }
      ],
      "stateMutability": "view",
      "type": "function",
      "constant": true
    },
    {
      "inputs": [],
      "name": "renounceOwnership",
      "outputs": [],
      "stateMutability": "nonpayable",
      "type": "function"
    },
    {
      "inputs": [
        {
          "internalType": "uint256",
          "name": "fee",
          "type": "uint256"
        }
      ],
      "name": "setBnbFeeAddress",
      "outputs": [],
      "stateMutability": "nonpayable",
      "type": "function"
    },
    {
      "inputs": [
        {
          "internalType": "address",
          "name": "nftAddress",
          "type": "address"
        }
      ],
      "name": "setNftContractAddress",
      "outputs": [],
      "stateMutability": "nonpayable",
      "type": "function"
    },
    {
      "inputs": [],
      "name": "shouldPayContributor",
      "outputs": [
        {
          "internalType": "bool",
          "name": "",
          "type": "bool"
        }
      ],
      "stateMutability": "view",
      "type": "function",
      "constant": true
    },
    {
      "inputs": [
        {
          "internalType": "address",
          "name": "newOwner",
          "type": "address"
        }
      ],
      "name": "transferOwnership",
      "outputs": [],
      "stateMutability": "nonpayable",
      "type": "function"
    },
    {
      "inputs": [],
      "name": "withdrawBalance",
      "outputs": [],
      "stateMutability": "nonpayable",
      "type": "function"
    },
    {
      "inputs": [],
      "name": "withdrawBnb",
      "outputs": [],
      "stateMutability": "nonpayable",
      "type": "function"
    },
    {
      "inputs": [
        {
          "internalType": "uint256",
          "name": "_tokenId",
          "type": "uint256"
        },
        {
          "internalType": "uint256",
          "name": "_appearenceId",
          "type": "uint256"
        },
        {
          "internalType": "address",
          "name": "_contributorAddress",
          "type": "address"
        },
        {
          "internalType": "uint256",
          "name": "_startingPrice",
          "type": "uint256"
        },
        {
          "internalType": "address",
          "name": "_seller",
          "type": "address"
        }
      ],
      "name": "createSale",
      "outputs": [],
      "stateMutability": "nonpayable",
      "type": "function"
    }
  ],
  "bytecode": "0x60806040526006805460ff60a01b191690556611c37937e080006008553480156200002957600080fd5b5060405162001671380380620016718339810160408190526200004c91620001bb565b600180546001600160a01b0319166001600160a01b038316179055828260008381620000753390565b600680546001600160a01b0319166001600160a01b038316908117909155604051919250906000907f8be0079c531659141344cd1fd0a4f28419497f9722a3daafe3b4186f6b6457e0908290a35060016007556127108311156200010f5760405162461bcd60e51b815260206004820152600c60248201526b0c6eae840e8dede40d0d2ced60a31b60448201526064015b60405180910390fd5b828210620001605760405162461bcd60e51b815260206004820152601760248201527f636f6e7472696275746f7243757420746f6f2068696768000000000000000000604482015260640162000106565b506002919091556003556004805460ff19169055600080546001600160a01b0319166001600160a01b039290921691909117905550620001fc915050565b80516001600160a01b0381168114620001b657600080fd5b919050565b600080600060608486031215620001d157600080fd5b620001dc846200019e565b925060208401519150620001f3604085016200019e565b90509250925092565b611465806200020c6000396000f3fe60806040526004361061014b5760003560e01c806383b5ff8b116100b6578063cb17b2011161006f578063cb17b2011461035d578063d8f6d5961461037d578063da31d640146103c2578063dd1b7a0f146103e2578063f2fde38b14610402578063fc8234cb1461042257600080fd5b806383b5ff8b146102955780638da5cb5b146102ab5780638f32d59b146102dd578063ab892eba146102fd578063bd94b0051461031d578063be22facd1461033d57600080fd5b806333f5bf311161010857806333f5bf3114610204578063598647f8146102175780635c975abb1461022a5780635fd8c7101461024b578063715018a6146102605780637b85cfc21461027557600080fd5b806303cc9a7e1461015057806312065fe0146101795780631da0603a1461018e5780631eeacde5146101a557806323edfb89146101cf578063320b2ad9146101ef575b600080fd5b34801561015c57600080fd5b5061016660035481565b6040519081526020015b60405180910390f35b34801561018557600080fd5b50610166610437565b34801561019a57600080fd5b506101a36104a9565b005b3480156101b157600080fd5b506004546101bf9060ff1681565b6040519015158152602001610170565b3480156101db57600080fd5b506101a36101ea366004611251565b61058a565b3480156101fb57600080fd5b506101bf610619565b34801561021057600080fd5b5047610166565b6101a361022536600461126a565b61069f565b34801561023657600080fd5b506006546101bf90600160a01b900460ff1681565b34801561025757600080fd5b506101a3610839565b34801561026c57600080fd5b506101a36108ef565b34801561028157600080fd5b506101a3610290366004611251565b610963565b3480156102a157600080fd5b5061016660025481565b3480156102b757600080fd5b506006546001600160a01b03165b6040516001600160a01b039091168152602001610170565b3480156102e957600080fd5b506006546001600160a01b031633146101bf565b34801561030957600080fd5b506101a3610318366004611251565b610992565b34801561032957600080fd5b506101a3610338366004611251565b610a02565b34801561034957600080fd5b506101a36103583660046112a8565b610a78565b34801561036957600080fd5b506001546102c5906001600160a01b031681565b34801561038957600080fd5b5061039d610398366004611251565b610b29565b604080516001600160a01b039094168452602084019290925290820152606001610170565b3480156103ce57600080fd5b506101a36103dd3660046112f8565b610b93565b3480156103ee57600080fd5b506000546102c5906001600160a01b031681565b34801561040e57600080fd5b506101a361041d3660046112f8565b610bdf565b34801561042e57600080fd5b506101bf610c12565b6001546040516370a0823160e01b81523060048201526000916001600160a01b0316906370a0823190602401602060405180830381865afa158015610480573d6000803e3d6000fd5b505050506040513d601f19601f820116820180604052508101906104a4919061131a565b905090565b6006546001600160a01b031633146104dc5760405162461bcd60e51b81526004016104d390611333565b60405180910390fd5b4760006104f16006546001600160a01b031690565b6001600160a01b03168260405160006040518083038185875af1925050503d806000811461053b576040519150601f19603f3d011682016040523d82523d6000602084013e610540565b606091505b50509050806105865760405162461bcd60e51b81526020600482015260126024820152712330b4b632b2103a379039b2b7321021373160711b60448201526064016104d3565b5050565b600654600160a01b900460ff166105a057600080fd5b6006546001600160a01b031633146105ca5760405162461bcd60e51b81526004016104d390611333565b6000818152600560205260409020600481015467ffffffffffffffff166106035760405162461bcd60e51b81526004016104d390611368565b80546105869083906001600160a01b0316610c91565b6006546000906001600160a01b031633146106465760405162461bcd60e51b81526004016104d390611333565b600654600160a01b900460ff161561065d57600080fd5b6006805460ff60a01b1916600160a01b1790556040517f6985a02210a168e66602d3235cb6db0e70f92b3ba4d376a33c0f3d9434bff62590600090a150600190565b600260075414156106f25760405162461bcd60e51b815260206004820152601f60248201527f5265656e7472616e637947756172643a207265656e7472616e742063616c6c0060448201526064016104d3565b6002600755600654600160a01b900460ff161561070e57600080fd5b60085434146107545760405162461bcd60e51b81526020600482015260126024820152716e6f7420656e6f75676820666f722066656560701b60448201526064016104d3565b6001546040516323b872dd60e01b8152336004820152306024820152604481018390526001600160a01b03909116906323b872dd906064016020604051808303816000875af11580156107ab573d6000803e3d6000fd5b505050506040513d601f19601f820116820180604052508101906107cf919061139f565b61081b5760405162461bcd60e51b815260206004820152601760248201527f7472616e73666572206e6f7420617574686f72697a656400000000000000000060448201526064016104d3565b6108258282610cdc565b506108303383610f97565b50506001600755565b6006546001600160a01b031633146108635760405162461bcd60e51b81526004016104d390611333565b6001546001600160a01b031663a9059cbb3361087d610437565b6040516001600160e01b031960e085901b1681526001600160a01b03909216600483015260248201526044016020604051808303816000875af11580156108c8573d6000803e3d6000fd5b505050506040513d601f19601f820116820180604052508101906108ec919061139f565b50565b6006546001600160a01b031633146109195760405162461bcd60e51b81526004016104d390611333565b6006546040516000916001600160a01b0316907f8be0079c531659141344cd1fd0a4f28419497f9722a3daafe3b4186f6b6457e0908390a3600680546001600160a01b0319169055565b6006546001600160a01b0316331461098d5760405162461bcd60e51b81526004016104d390611333565b600855565b6006546001600160a01b031633146109bc5760405162461bcd60e51b81526004016104d390611333565b6127108111156109fd5760405162461bcd60e51b815260206004820152600c60248201526b0c6eae840e8dede40d0d2ced60a31b60448201526064016104d3565b600255565b600654600160a01b900460ff1615610a1957600080fd5b6000818152600560205260409020600481015467ffffffffffffffff16610a525760405162461bcd60e51b81526004016104d390611368565b80546001600160a01b0316338114610a6957600080fd5b610a738382610c91565b505050565b6000546001600160a01b03163314610ac65760405162461bcd60e51b81526020600482015260116024820152701bdb9b1e481b999d0818dbdb9d1c9858dd607a1b60448201526064016104d3565b610ad08186611000565b60006040518060a00160405280836001600160a01b03168152602001868152602001856001600160a01b031681526020018481526020014267ffffffffffffffff168152509050610b21868261103f565b505050505050565b600081815260056020526040812060048101548291829167ffffffffffffffff16610b665760405162461bcd60e51b81526004016104d390611368565b805460038201546004909201546001600160a01b039091169691955067ffffffffffffffff169350915050565b6006546001600160a01b03163314610bbd5760405162461bcd60e51b81526004016104d390611333565b600080546001600160a01b0319166001600160a01b0392909216919091179055565b6006546001600160a01b03163314610c095760405162461bcd60e51b81526004016104d390611333565b6108ec816110f4565b6006546000906001600160a01b03163314610c3f5760405162461bcd60e51b81526004016104d390611333565b600654600160a01b900460ff16610c5557600080fd5b6006805460ff60a01b191690556040517f7805862f689e2f13df9f062ff482ad3ad112aca9e0847911ed832e158c525b3390600090a150600190565b610c9a826111b5565b610ca48183610f97565b6040518281527f2c56893f6f6026d19bd17b7d05c9f15c522de1ae2b1c3a825f91a73c799321f2906020015b60405180910390a15050565b6000828152600560205260408120600481015467ffffffffffffffff16610d335760405162461bcd60e51b815260206004820152600b60248201526a6e6f74206f6e2073616c6560a81b60448201526064016104d3565b80546001600160a01b0316331415610d7e5760405162461bcd60e51b815260206004820152600e60248201526d39b0b6b29030b99039b2b63632b960911b60448201526064016104d3565b6003810154838114610dd25760405162461bcd60e51b815260206004820152601860248201527f62696420646966666572656e742066726f6d207072696365000000000000000060448201526064016104d3565b8154600183015460028401546001600160a01b039283169216610df4886111b5565b8315610f4c57600080610e0a8660008611611201565b90925090506000610e1b83886113d7565b90506001600160a01b03841615801590610e355750600082115b8015610e43575060045460ff165b15610ec85760015460405163a9059cbb60e01b81526001600160a01b038681166004830152602482018590529091169063a9059cbb906044016020604051808303816000875af1158015610e9b573d6000803e3d6000fd5b505050506040513d601f19601f82011682018060405250810190610ebf919061139f565b610ec857600080fd5b60015460405163a9059cbb60e01b81526001600160a01b038881166004830152602482018490529091169063a9059cbb906044016020604051808303816000875af1158015610f1b573d6000803e3d6000fd5b505050506040513d601f19601f82011682018060405250810190610f3f919061139f565b610f4857600080fd5b5050505b6040805189815260208101869052338183015290517f9f2881bde82d4b6e9c19bec262dbbdba7266ff214c4c822aa94035f21b263f339181900360600190a150919695505050505050565b6000546040516323b872dd60e01b81523060048201526001600160a01b03848116602483015260448201849052909116906323b872dd906064015b600060405180830381600087803b158015610fec57600080fd5b505af1158015610b21573d6000803e3d6000fd5b6000546040516323b872dd60e01b81526001600160a01b03848116600483015230602483015260448201849052909116906323b872dd90606401610fd2565b600082815260056020908152604091829020835181546001600160a01b03199081166001600160a01b0392831617835585840151600184015585850151600284018054909216921691909117905560608401516003820181905560808501516004909201805467ffffffffffffffff191667ffffffffffffffff909316929092179091558251858152918201527f35f25ba6c68be9e7f0a8a50f4d284bb035a4a21d856a0e7d3fd7945079c5ab309101610cd0565b6001600160a01b0381166111595760405162461bcd60e51b815260206004820152602660248201527f4f776e61626c653a206e6577206f776e657220697320746865207a65726f206160448201526564647265737360d01b60648201526084016104d3565b6006546040516001600160a01b038084169216907f8be0079c531659141344cd1fd0a4f28419497f9722a3daafe3b4186f6b6457e090600090a3600680546001600160a01b0319166001600160a01b0392909216919091179055565b600090815260056020526040812080546001600160a01b031990811682556001820183905560028201805490911690556003810191909155600401805467ffffffffffffffff19169055565b6000808261121057600061122b565b6127106003548561122191906113ee565b61122b919061140d565b90506127106002548561123e91906113ee565b611248919061140d565b91509250929050565b60006020828403121561126357600080fd5b5035919050565b6000806040838503121561127d57600080fd5b50508035926020909101359150565b80356001600160a01b03811681146112a357600080fd5b919050565b600080600080600060a086880312156112c057600080fd5b85359450602086013593506112d76040870161128c565b9250606086013591506112ec6080870161128c565b90509295509295909350565b60006020828403121561130a57600080fd5b6113138261128c565b9392505050565b60006020828403121561132c57600080fd5b5051919050565b6020808252818101527f4f776e61626c653a2063616c6c6572206973206e6f7420746865206f776e6572604082015260600190565b60208082526019908201527f546f6b656e49442069732061206d757374206f6e2073616c6500000000000000604082015260600190565b6000602082840312156113b157600080fd5b8151801515811461131357600080fd5b634e487b7160e01b600052601160045260246000fd5b6000828210156113e9576113e96113c1565b500390565b6000816000190483118215151615611408576114086113c1565b500290565b60008261142a57634e487b7160e01b600052601260045260246000fd5b50049056fea264697066735822122060562f12c447a8a2dbdad21b49a76ac9a8c264420db5389f03a65159df7f4ee664736f6c634300080b0033",
  "immutableReferences": {},
  "source": "// SPDX-License-Identifier: MIT\r\npragma solidity ^0.8.2;\r\n\r\nimport \"./Marketplace.sol\";\r\n\r\n/// @title Clock sale modified for sale of Robot\r\ncontract RobotMarketplace is Marketplace {\r\n    constructor(\r\n        address _nftAddr,\r\n        uint256 _cut,\r\n        address _mekaToken\r\n    ) Marketplace(_nftAddr, _cut, 0, _mekaToken) {}\r\n\r\n    /// @dev Creates and begins a new sale.\r\n    /// @param _tokenId - ID of token to sale, sender must be owner.\r\n    /// @param _startingPrice - Price of item (in wei).\r\n    /// @param _seller - Seller, if not the message sender\r\n    function createSale(\r\n        uint256 _tokenId,\r\n        uint256 _appearenceId,\r\n        address _contributorAddress,\r\n        uint256 _startingPrice,\r\n        address _seller\r\n    ) external override {\r\n        require(\r\n            msg.sender == address(nonFungibleContract),\r\n            \"only nft contract\"\r\n        );\r\n\r\n        _escrow(_seller, _tokenId);\r\n        Sale memory sale = Sale(\r\n            _seller,\r\n            _appearenceId,\r\n            _contributorAddress,\r\n            _startingPrice,\r\n            uint64(block.timestamp)\r\n        );\r\n        _addSale(_tokenId, sale);\r\n    }\r\n}\r\n",
  "sourcePath": "E:\\MekaMiners\\contracts\\RobotMarketplace.sol",
  "compiler": {
    "name": "solc",
    "version": "0.8.11+commit.d7f03943.Emscripten.clang"
  },
  "schemaVersion": "3.4.3",
  "updatedAt": "2022-01-25T03:30:59.684Z",
  "networkType": "ethereum",
  "devdoc": {
    "kind": "dev",
    "methods": {
      "_pause()": {
        "details": "called by the owner to pause, triggers stopped state"
      },
      "_unpause()": {
        "details": "called by the owner to unpause, returns to normal state"
      },
      "bid(uint256,uint256)": {
        "details": "Bids on an open sale, completing the sale and transferring",
        "params": {
          "_tokenId": "- ID of token to bid on."
        }
      },
      "cancelSale(uint256)": {
        "details": "Cancels an sale that hasn't been won yet.  Returns the NFT to original owner.",
        "params": {
          "_tokenId": "- ID of token on sale"
        }
      },
      "cancelSaleWhenPaused(uint256)": {
        "details": "Cancels an sale when the contract is paused.  Only the owner may do this, and NFTs are returned to  the seller. This should only be used in emergencies.",
        "params": {
          "_tokenId": "- ID of the NFT on sale to cancel."
        }
      },
      "createSale(uint256,uint256,address,uint256,address)": {
        "details": "Creates and begins a new sale.",
        "params": {
          "_seller": "- Seller, if not the message sender",
          "_startingPrice": "- Price of item (in wei).",
          "_tokenId": "- ID of token to sale, sender must be owner."
        }
      },
      "getSale(uint256)": {
        "details": "Returns sale info for an NFT on sale.",
        "params": {
          "_tokenId": "- ID of NFT on sale."
        }
      },
      "isOwner()": {
        "details": "Returns true if the caller is the current owner."
      },
      "owner()": {
        "details": "Returns the address of the current owner."
      },
      "renounceOwnership()": {
        "details": "Leaves the contract without owner. It will not be possible to call `onlyOwner` functions anymore. Can only be called by the current owner. NOTE: Renouncing ownership will leave the contract without an owner, thereby removing any functionality that is only available to the owner."
      },
      "transferOwnership(address)": {
        "details": "Transfers ownership of the contract to a new account (`newOwner`). Can only be called by the current owner."
      }
    },
    "title": "Clock sale modified for sale of Robot",
    "version": 1
  },
  "userdoc": {
    "kind": "user",
    "methods": {
      "cancelSale(uint256)": {
        "notice": "This is a state-modifying function that can  be called while the contract is paused."
      }
    },
    "version": 1
  }
}