{
  "contractName": "RobotCore",
  "abi": [
    {
      "inputs": [
        {
          "internalType": "address",
          "name": "_mekaToken",
          "type": "address"
        }
      ],
      "stateMutability": "nonpayable",
      "type": "constructor"
    },
    {
      "anonymous": false,
      "inputs": [
        {
          "indexed": true,
          "internalType": "address",
          "name": "owner",
          "type": "address"
        },
        {
          "indexed": true,
          "internalType": "address",
          "name": "approved",
          "type": "address"
        },
        {
          "indexed": true,
          "internalType": "uint256",
          "name": "tokenId",
          "type": "uint256"
        }
      ],
      "name": "Approval",
      "type": "event"
    },
    {
      "anonymous": false,
      "inputs": [
        {
          "indexed": true,
          "internalType": "address",
          "name": "owner",
          "type": "address"
        },
        {
          "indexed": true,
          "internalType": "address",
          "name": "operator",
          "type": "address"
        },
        {
          "indexed": false,
          "internalType": "bool",
          "name": "approved",
          "type": "bool"
        }
      ],
      "name": "ApprovalForAll",
      "type": "event"
    },
    {
      "anonymous": false,
      "inputs": [
        {
          "indexed": false,
          "internalType": "address",
          "name": "owner",
          "type": "address"
        },
        {
          "indexed": false,
          "internalType": "uint256",
          "name": "tokenId",
          "type": "uint256"
        },
        {
          "indexed": false,
          "internalType": "uint256",
          "name": "date",
          "type": "uint256"
        }
      ],
      "name": "Birth",
      "type": "event"
    },
    {
      "anonymous": false,
      "inputs": [
        {
          "indexed": false,
          "internalType": "address",
          "name": "from",
          "type": "address"
        },
        {
          "indexed": false,
          "internalType": "uint256",
          "name": "tokenId",
          "type": "uint256"
        },
        {
          "indexed": false,
          "internalType": "uint256",
          "name": "date",
          "type": "uint256"
        }
      ],
      "name": "MintedRobot",
      "type": "event"
    },
    {
      "anonymous": false,
      "inputs": [
        {
          "indexed": false,
          "internalType": "address",
          "name": "from",
          "type": "address"
        },
        {
          "indexed": false,
          "internalType": "uint256[]",
          "name": "robotIds",
          "type": "uint256[]"
        },
        {
          "indexed": false,
          "internalType": "uint8",
          "name": "packageType",
          "type": "uint8"
        },
        {
          "indexed": false,
          "internalType": "uint8",
          "name": "gen",
          "type": "uint8"
        },
        {
          "indexed": false,
          "internalType": "uint256",
          "name": "date",
          "type": "uint256"
        }
      ],
      "name": "MintedRobotFromBundle",
      "type": "event"
    },
    {
      "anonymous": false,
      "inputs": [
        {
          "indexed": true,
          "internalType": "address",
          "name": "previousOwner",
          "type": "address"
        },
        {
          "indexed": true,
          "internalType": "address",
          "name": "newOwner",
          "type": "address"
        }
      ],
      "name": "OwnershipTransferred",
      "type": "event"
    },
    {
      "anonymous": false,
      "inputs": [],
      "name": "Pause",
      "type": "event"
    },
    {
      "anonymous": false,
      "inputs": [
        {
          "indexed": false,
          "internalType": "address",
          "name": "owner",
          "type": "address"
        },
        {
          "indexed": false,
          "internalType": "uint256",
          "name": "robotId",
          "type": "uint256"
        },
        {
          "indexed": false,
          "internalType": "uint256",
          "name": "pieceId",
          "type": "uint256"
        },
        {
          "indexed": false,
          "internalType": "uint8",
          "name": "pieceType",
          "type": "uint8"
        },
        {
          "indexed": false,
          "internalType": "uint256",
          "name": "date",
          "type": "uint256"
        }
      ],
      "name": "PieceAttached",
      "type": "event"
    },
    {
      "anonymous": false,
      "inputs": [
        {
          "indexed": true,
          "internalType": "address",
          "name": "from",
          "type": "address"
        },
        {
          "indexed": true,
          "internalType": "address",
          "name": "to",
          "type": "address"
        },
        {
          "indexed": true,
          "internalType": "uint256",
          "name": "tokenId",
          "type": "uint256"
        }
      ],
      "name": "Transfer",
      "type": "event"
    },
    {
      "anonymous": false,
      "inputs": [],
      "name": "Unpause",
      "type": "event"
    },
    {
      "inputs": [],
      "name": "_marketplaceAddr",
      "outputs": [
        {
          "internalType": "address",
          "name": "",
          "type": "address"
        }
      ],
      "stateMutability": "view",
      "type": "function",
      "constant": true
    },
    {
      "inputs": [],
      "name": "_mekaAddress",
      "outputs": [
        {
          "internalType": "address",
          "name": "",
          "type": "address"
        }
      ],
      "stateMutability": "view",
      "type": "function",
      "constant": true
    },
    {
      "inputs": [],
      "name": "_mekaDeployerAddress",
      "outputs": [
        {
          "internalType": "address",
          "name": "",
          "type": "address"
        }
      ],
      "stateMutability": "view",
      "type": "function",
      "constant": true
    },
    {
      "inputs": [],
      "name": "_pause",
      "outputs": [
        {
          "internalType": "bool",
          "name": "",
          "type": "bool"
        }
      ],
      "stateMutability": "nonpayable",
      "type": "function"
    },
    {
      "inputs": [],
      "name": "_robotPackageAddress",
      "outputs": [
        {
          "internalType": "address",
          "name": "",
          "type": "address"
        }
      ],
      "stateMutability": "view",
      "type": "function",
      "constant": true
    },
    {
      "inputs": [],
      "name": "_robotPackageGen1Address",
      "outputs": [
        {
          "internalType": "address",
          "name": "",
          "type": "address"
        }
      ],
      "stateMutability": "view",
      "type": "function",
      "constant": true
    },
    {
      "inputs": [],
      "name": "_unpause",
      "outputs": [
        {
          "internalType": "bool",
          "name": "",
          "type": "bool"
        }
      ],
      "stateMutability": "nonpayable",
      "type": "function"
    },
    {
      "inputs": [],
      "name": "acceptContracts",
      "outputs": [
        {
          "internalType": "bool",
          "name": "",
          "type": "bool"
        }
      ],
      "stateMutability": "view",
      "type": "function",
      "constant": true
    },
    {
      "inputs": [
        {
          "internalType": "address",
          "name": "to",
          "type": "address"
        },
        {
          "internalType": "uint256",
          "name": "tokenId",
          "type": "uint256"
        }
      ],
      "name": "approve",
      "outputs": [],
      "stateMutability": "nonpayable",
      "type": "function"
    },
    {
      "inputs": [
        {
          "internalType": "address",
          "name": "owner",
          "type": "address"
        }
      ],
      "name": "balanceOf",
      "outputs": [
        {
          "internalType": "uint256",
          "name": "",
          "type": "uint256"
        }
      ],
      "stateMutability": "view",
      "type": "function",
      "constant": true
    },
    {
      "inputs": [],
      "name": "baseURI",
      "outputs": [
        {
          "internalType": "string",
          "name": "",
          "type": "string"
        }
      ],
      "stateMutability": "view",
      "type": "function",
      "constant": true
    },
    {
      "inputs": [],
      "name": "canReplacePiece",
      "outputs": [
        {
          "internalType": "bool",
          "name": "",
          "type": "bool"
        }
      ],
      "stateMutability": "view",
      "type": "function",
      "constant": true
    },
    {
      "inputs": [
        {
          "internalType": "uint256",
          "name": "tokenId",
          "type": "uint256"
        }
      ],
      "name": "getApproved",
      "outputs": [
        {
          "internalType": "address",
          "name": "",
          "type": "address"
        }
      ],
      "stateMutability": "view",
      "type": "function",
      "constant": true
    },
    {
      "inputs": [
        {
          "internalType": "address",
          "name": "owner",
          "type": "address"
        },
        {
          "internalType": "address",
          "name": "operator",
          "type": "address"
        }
      ],
      "name": "isApprovedForAll",
      "outputs": [
        {
          "internalType": "bool",
          "name": "",
          "type": "bool"
        }
      ],
      "stateMutability": "view",
      "type": "function",
      "constant": true
    },
    {
      "inputs": [],
      "name": "isBurn",
      "outputs": [
        {
          "internalType": "bool",
          "name": "",
          "type": "bool"
        }
      ],
      "stateMutability": "view",
      "type": "function",
      "constant": true
    },
    {
      "inputs": [],
      "name": "isOwner",
      "outputs": [
        {
          "internalType": "bool",
          "name": "",
          "type": "bool"
        }
      ],
      "stateMutability": "view",
      "type": "function",
      "constant": true
    },
    {
      "inputs": [],
      "name": "isRobotFactoryOpen",
      "outputs": [
        {
          "internalType": "bool",
          "name": "",
          "type": "bool"
        }
      ],
      "stateMutability": "view",
      "type": "function",
      "constant": true
    },
    {
      "inputs": [],
      "name": "name",
      "outputs": [
        {
          "internalType": "string",
          "name": "",
          "type": "string"
        }
      ],
      "stateMutability": "view",
      "type": "function",
      "constant": true
    },
    {
      "inputs": [],
      "name": "owner",
      "outputs": [
        {
          "internalType": "address",
          "name": "",
          "type": "address"
        }
      ],
      "stateMutability": "view",
      "type": "function",
      "constant": true
    },
    {
      "inputs": [
        {
          "internalType": "uint256",
          "name": "tokenId",
          "type": "uint256"
        }
      ],
      "name": "ownerOf",
      "outputs": [
        {
          "internalType": "address",
          "name": "",
          "type": "address"
        }
      ],
      "stateMutability": "view",
      "type": "function",
      "constant": true
    },
    {
      "inputs": [],
      "name": "paused",
      "outputs": [
        {
          "internalType": "bool",
          "name": "",
          "type": "bool"
        }
      ],
      "stateMutability": "view",
      "type": "function",
      "constant": true
    },
    {
      "inputs": [],
      "name": "renounceOwnership",
      "outputs": [],
      "stateMutability": "nonpayable",
      "type": "function"
    },
    {
      "inputs": [
        {
          "internalType": "address",
          "name": "from",
          "type": "address"
        },
        {
          "internalType": "address",
          "name": "to",
          "type": "address"
        },
        {
          "internalType": "uint256",
          "name": "tokenId",
          "type": "uint256"
        }
      ],
      "name": "safeTransferFrom",
      "outputs": [],
      "stateMutability": "nonpayable",
      "type": "function"
    },
    {
      "inputs": [
        {
          "internalType": "address",
          "name": "from",
          "type": "address"
        },
        {
          "internalType": "address",
          "name": "to",
          "type": "address"
        },
        {
          "internalType": "uint256",
          "name": "tokenId",
          "type": "uint256"
        },
        {
          "internalType": "bytes",
          "name": "_data",
          "type": "bytes"
        }
      ],
      "name": "safeTransferFrom",
      "outputs": [],
      "stateMutability": "nonpayable",
      "type": "function"
    },
    {
      "inputs": [
        {
          "internalType": "address",
          "name": "operator",
          "type": "address"
        },
        {
          "internalType": "bool",
          "name": "approved",
          "type": "bool"
        }
      ],
      "name": "setApprovalForAll",
      "outputs": [],
      "stateMutability": "nonpayable",
      "type": "function"
    },
    {
      "inputs": [
        {
          "internalType": "bytes4",
          "name": "interfaceId",
          "type": "bytes4"
        }
      ],
      "name": "supportsInterface",
      "outputs": [
        {
          "internalType": "bool",
          "name": "",
          "type": "bool"
        }
      ],
      "stateMutability": "view",
      "type": "function",
      "constant": true
    },
    {
      "inputs": [],
      "name": "symbol",
      "outputs": [
        {
          "internalType": "string",
          "name": "",
          "type": "string"
        }
      ],
      "stateMutability": "view",
      "type": "function",
      "constant": true
    },
    {
      "inputs": [
        {
          "internalType": "uint256",
          "name": "index",
          "type": "uint256"
        }
      ],
      "name": "tokenByIndex",
      "outputs": [
        {
          "internalType": "uint256",
          "name": "",
          "type": "uint256"
        }
      ],
      "stateMutability": "view",
      "type": "function",
      "constant": true
    },
    {
      "inputs": [
        {
          "internalType": "address",
          "name": "owner",
          "type": "address"
        }
      ],
      "name": "tokenOfOwner",
      "outputs": [
        {
          "internalType": "uint256[]",
          "name": "",
          "type": "uint256[]"
        }
      ],
      "stateMutability": "view",
      "type": "function",
      "constant": true
    },
    {
      "inputs": [
        {
          "internalType": "address",
          "name": "owner",
          "type": "address"
        },
        {
          "internalType": "uint256",
          "name": "index",
          "type": "uint256"
        }
      ],
      "name": "tokenOfOwnerByIndex",
      "outputs": [
        {
          "internalType": "uint256",
          "name": "",
          "type": "uint256"
        }
      ],
      "stateMutability": "view",
      "type": "function",
      "constant": true
    },
    {
      "inputs": [
        {
          "internalType": "uint256",
          "name": "tokenId",
          "type": "uint256"
        }
      ],
      "name": "tokenURI",
      "outputs": [
        {
          "internalType": "string",
          "name": "",
          "type": "string"
        }
      ],
      "stateMutability": "view",
      "type": "function",
      "constant": true
    },
    {
      "inputs": [],
      "name": "totalSupply",
      "outputs": [
        {
          "internalType": "uint256",
          "name": "",
          "type": "uint256"
        }
      ],
      "stateMutability": "view",
      "type": "function",
      "constant": true
    },
    {
      "inputs": [
        {
          "internalType": "address",
          "name": "newOwner",
          "type": "address"
        }
      ],
      "name": "transferOwnership",
      "outputs": [],
      "stateMutability": "nonpayable",
      "type": "function"
    },
    {
      "inputs": [],
      "name": "updateAcceptContract",
      "outputs": [],
      "stateMutability": "nonpayable",
      "type": "function"
    },
    {
      "inputs": [],
      "name": "updateCanReplacePiece",
      "outputs": [],
      "stateMutability": "nonpayable",
      "type": "function"
    },
    {
      "inputs": [
        {
          "internalType": "address",
          "name": "addr",
          "type": "address"
        }
      ],
      "name": "isBlacklisted",
      "outputs": [
        {
          "internalType": "bool",
          "name": "",
          "type": "bool"
        }
      ],
      "stateMutability": "view",
      "type": "function",
      "constant": true
    },
    {
      "inputs": [
        {
          "internalType": "address",
          "name": "wallet",
          "type": "address"
        },
        {
          "internalType": "bool",
          "name": "isBlackListed",
          "type": "bool"
        }
      ],
      "name": "setBlackList",
      "outputs": [],
      "stateMutability": "nonpayable",
      "type": "function"
    },
    {
      "inputs": [
        {
          "internalType": "uint8",
          "name": "limit",
          "type": "uint8"
        }
      ],
      "name": "setPackageLimit",
      "outputs": [],
      "stateMutability": "nonpayable",
      "type": "function"
    },
    {
      "inputs": [
        {
          "internalType": "uint256",
          "name": "fee",
          "type": "uint256"
        }
      ],
      "name": "setBnbFee",
      "outputs": [],
      "stateMutability": "nonpayable",
      "type": "function"
    },
    {
      "inputs": [
        {
          "internalType": "address",
          "name": "_address",
          "type": "address"
        }
      ],
      "name": "setMarketplaceAddress",
      "outputs": [],
      "stateMutability": "nonpayable",
      "type": "function"
    },
    {
      "inputs": [
        {
          "internalType": "address",
          "name": "_address",
          "type": "address"
        }
      ],
      "name": "setRobotPackageAddress",
      "outputs": [],
      "stateMutability": "nonpayable",
      "type": "function"
    },
    {
      "inputs": [
        {
          "internalType": "address",
          "name": "_address",
          "type": "address"
        }
      ],
      "name": "setRobotPackageGen1Address",
      "outputs": [],
      "stateMutability": "nonpayable",
      "type": "function"
    },
    {
      "inputs": [
        {
          "internalType": "address",
          "name": "_mekaDeployAddr",
          "type": "address"
        }
      ],
      "name": "setMekaDeployerAddress",
      "outputs": [],
      "stateMutability": "nonpayable",
      "type": "function"
    },
    {
      "inputs": [
        {
          "internalType": "uint256",
          "name": "_price",
          "type": "uint256"
        }
      ],
      "name": "setRobotPrice",
      "outputs": [],
      "stateMutability": "nonpayable",
      "type": "function"
    },
    {
      "inputs": [
        {
          "internalType": "address",
          "name": "_addr",
          "type": "address"
        }
      ],
      "name": "setTokenAddress",
      "outputs": [],
      "stateMutability": "nonpayable",
      "type": "function"
    },
    {
      "inputs": [
        {
          "internalType": "uint256",
          "name": "tokenId",
          "type": "uint256"
        },
        {
          "internalType": "string",
          "name": "_tokenURI",
          "type": "string"
        }
      ],
      "name": "setTokenURI",
      "outputs": [],
      "stateMutability": "nonpayable",
      "type": "function"
    },
    {
      "inputs": [],
      "name": "updateIsBurn",
      "outputs": [],
      "stateMutability": "nonpayable",
      "type": "function"
    },
    {
      "inputs": [],
      "name": "updateRobotFactory",
      "outputs": [],
      "stateMutability": "nonpayable",
      "type": "function"
    },
    {
      "inputs": [],
      "name": "withdrawBalance",
      "outputs": [],
      "stateMutability": "nonpayable",
      "type": "function"
    },
    {
      "inputs": [],
      "name": "withdrawBnb",
      "outputs": [],
      "stateMutability": "nonpayable",
      "type": "function"
    },
    {
      "inputs": [
        {
          "internalType": "address",
          "name": "_owner",
          "type": "address"
        },
        {
          "internalType": "uint256",
          "name": "_robotId",
          "type": "uint256"
        },
        {
          "internalType": "uint256",
          "name": "_pieceId",
          "type": "uint256"
        },
        {
          "internalType": "uint8",
          "name": "_pieceType",
          "type": "uint8"
        },
        {
          "internalType": "uint256",
          "name": "_amount",
          "type": "uint256"
        }
      ],
      "name": "attachPiece",
      "outputs": [],
      "stateMutability": "nonpayable",
      "type": "function"
    },
    {
      "inputs": [
        {
          "internalType": "address",
          "name": "_owner",
          "type": "address"
        },
        {
          "internalType": "uint256",
          "name": "_amount",
          "type": "uint256"
        },
        {
          "internalType": "bool",
          "name": "_withOre",
          "type": "bool"
        },
        {
          "internalType": "string",
          "name": "_tokenURI",
          "type": "string"
        }
      ],
      "name": "createRobot",
      "outputs": [],
      "stateMutability": "nonpayable",
      "type": "function"
    },
    {
      "inputs": [
        {
          "internalType": "uint256",
          "name": "_tokenId",
          "type": "uint256"
        },
        {
          "internalType": "uint256",
          "name": "_startingPrice",
          "type": "uint256"
        }
      ],
      "name": "createSale",
      "outputs": [],
      "stateMutability": "payable",
      "type": "function",
      "payable": true
    },
    {
      "inputs": [
        {
          "internalType": "uint256",
          "name": "_tokenId",
          "type": "uint256"
        }
      ],
      "name": "burnRobot",
      "outputs": [],
      "stateMutability": "nonpayable",
      "type": "function"
    },
    {
      "inputs": [
        {
          "internalType": "uint256",
          "name": "_id",
          "type": "uint256"
        }
      ],
      "name": "getRobot",
      "outputs": [
        {
          "components": [
            {
              "internalType": "uint256",
              "name": "robotId",
              "type": "uint256"
            },
            {
              "internalType": "uint256",
              "name": "head",
              "type": "uint256"
            },
            {
              "internalType": "uint256",
              "name": "larm",
              "type": "uint256"
            },
            {
              "internalType": "uint256",
              "name": "rarm",
              "type": "uint256"
            },
            {
              "internalType": "uint256",
              "name": "legs",
              "type": "uint256"
            },
            {
              "internalType": "uint256",
              "name": "chest",
              "type": "uint256"
            },
            {
              "internalType": "uint64",
              "name": "birthTime",
              "type": "uint64"
            }
          ],
          "internalType": "struct RobotCore.Robot",
          "name": "robot",
          "type": "tuple"
        }
      ],
      "stateMutability": "view",
      "type": "function",
      "constant": true
    },
    {
      "inputs": [],
      "name": "getBalance",
      "outputs": [
        {
          "internalType": "uint256",
          "name": "",
          "type": "uint256"
        }
      ],
      "stateMutability": "view",
      "type": "function",
      "constant": true
    },
    {
      "inputs": [
        {
          "internalType": "address",
          "name": "_owner",
          "type": "address"
        },
        {
          "internalType": "uint8",
          "name": "packageType",
          "type": "uint8"
        },
        {
          "internalType": "uint8",
          "name": "robotQuantity",
          "type": "uint8"
        }
      ],
      "name": "createRobotFromBundle",
      "outputs": [],
      "stateMutability": "nonpayable",
      "type": "function"
    },
    {
      "inputs": [
        {
          "internalType": "address",
          "name": "from",
          "type": "address"
        },
        {
          "internalType": "address",
          "name": "to",
          "type": "address"
        },
        {
          "internalType": "uint256",
          "name": "tokenId",
          "type": "uint256"
        }
      ],
      "name": "transferFrom",
      "outputs": [],
      "stateMutability": "nonpayable",
      "type": "function"
    }
  ],
  "bytecode": "0x6080604052600b805460ff60a01b191690556611c37937e08000600e556001600f55680340aad21b3b700000601055674563918244f400006011556012805460ff191660051790553480156200005457600080fd5b50604051620043b6380380620043b68339810160408190526200007791620002d2565b60408051808201825260078082526613595ad8589bdd60ca1b602080840182905284518086019095529184529083015290620000ba6301ffc9a760e01b620001a8565b8151620000cf9060079060208501906200022c565b508051620000e59060089060208401906200022c565b50620000f86380ac58cd60e01b620001a8565b6200010a635b5e139f60e01b620001a8565b6200011c63780e9d6360e01b620001a8565b5050600b80546001600160a01b0319163390811790915560405181906000907f8be0079c531659141344cd1fd0a4f28419497f9722a3daafe3b4186f6b6457e0908290a3506001600c5560188054601a80546001600160a01b0319166001600160a01b03949094169390931790925563ff0000ff60a01b19909116630100000160a01b17905562000341565b6001600160e01b03198082161415620002075760405162461bcd60e51b815260206004820152601c60248201527f4552433136353a20696e76616c696420696e7465726661636520696400000000604482015260640160405180910390fd5b6001600160e01b0319166000908152602081905260409020805460ff19166001179055565b8280546200023a9062000304565b90600052602060002090601f0160209004810192826200025e5760008555620002a9565b82601f106200027957805160ff1916838001178555620002a9565b82800160010185558215620002a9579182015b82811115620002a95782518255916020019190600101906200028c565b50620002b7929150620002bb565b5090565b5b80821115620002b75760008155600101620002bc565b600060208284031215620002e557600080fd5b81516001600160a01b0381168114620002fd57600080fd5b9392505050565b600181811c908216806200031957607f821691505b602082108114156200033b57634e487b7160e01b600052602260045260246000fd5b50919050565b61406580620003516000396000f3fe6080604052600436106103815760003560e01c80636352211e116101d157806395e2642211610102578063c37d1930116100a0578063e985e9c51161006f578063e985e9c514610a7e578063f2fde38b14610ac7578063fc8234cb14610ae7578063fe575a8714610afc57600080fd5b8063c37d1930146109fd578063c569a79414610a1d578063c87b56dd14610a3d578063ca92fbff14610a5d57600080fd5b8063b0bad405116100dc578063b0bad40514610988578063b47cc5561461099d578063b88d4fde146109bd578063bbc1bd90146109dd57600080fd5b806395e26422146108d3578063a22cb46514610953578063b086a27c1461097357600080fd5b80637f5a75de1161016f5780638f32d59b116101495780638f32d59b146108695780639124e0ac1461088957806393cf6703146108a957806395d89b41146108be57600080fd5b80637f5a75de1461080b5780638a47446c1461082b5780638da5cb5b1461084b57600080fd5b806370a08231116101ab57806370a0823114610796578063715018a6146107b6578063789d9a86146107cb5780637de166b1146107eb57600080fd5b80636352211e1461074157806368092bd9146107615780636c0360eb1461078157600080fd5b806325e6ad8f116102b657806334ae0d24116102545780635c975abb116102235780635c975abb146106d85780635fd8c710146106f95780636019061b1461070e57806360c9f2221461072157600080fd5b806334ae0d241461065757806342842e0e1461067857806347049c84146106985780634f6ccce7146106b857600080fd5b80632d067d4c116102905780632d067d4c146105e15780632f745c5914610602578063320b2ad91461062257806334175e1b1461063757600080fd5b806325e6ad8f1461057457806326a4e8d214610594578063294cdf0d146105b457600080fd5b806312065fe0116103235780631739e5da116102fd5780631739e5da1461050957806318160ddd1461052a5780631da0603a1461053f57806323b872dd1461055457600080fd5b806312065fe0146104a6578063162094c4146104c95780631695a261146104e957600080fd5b8063081812fc1161035f578063081812fc1461040e578063095ea7b3146104465780630b93c519146104665780630d6516d91461048657600080fd5b806301ffc9a7146103865780630671ddfe146103d557806306fdde03146103ec575b600080fd5b34801561039257600080fd5b506103c06103a1366004613744565b6001600160e01b03191660009081526020819052604090205460ff1690565b60405190151581526020015b60405180910390f35b3480156103e157600080fd5b506103ea610b35565b005b3480156103f857600080fd5b50610401610b89565b6040516103cc91906137b9565b34801561041a57600080fd5b5061042e6104293660046137cc565b610c1b565b6040516001600160a01b0390911681526020016103cc565b34801561045257600080fd5b506103ea610461366004613801565b610ca3565b34801561047257600080fd5b506103ea6104813660046137cc565b610db9565b34801561049257600080fd5b5060195461042e906001600160a01b031681565b3480156104b257600080fd5b506104bb610e90565b6040519081526020016103cc565b3480156104d557600080fd5b506103ea6104e43660046138d7565b610f02565b3480156104f557600080fd5b506103ea61050436600461392f565b610f5c565b34801561051557600080fd5b506018546103c090600160b81b900460ff1681565b34801561053657600080fd5b506104bb61133e565b34801561054b57600080fd5b506103ea61134a565b34801561056057600080fd5b506103ea61056f36600461397d565b611420565b34801561058057600080fd5b5060185461042e906001600160a01b031681565b3480156105a057600080fd5b506103ea6105af3660046139b9565b61157a565b3480156105c057600080fd5b506105d46105cf3660046139b9565b6115c6565b6040516103cc9190613a0f565b3480156105ed57600080fd5b506018546103c090600160a01b900460ff1681565b34801561060e57600080fd5b506104bb61061d366004613801565b6116b2565b34801561062e57600080fd5b506103c06116dd565b34801561064357600080fd5b5060175461042e906001600160a01b031681565b34801561066357600080fd5b506018546103c090600160b01b900460ff1681565b34801561068457600080fd5b506103ea61069336600461397d565b611763565b3480156106a457600080fd5b50601a5461042e906001600160a01b031681565b3480156106c457600080fd5b506104bb6106d33660046137cc565b61177e565b3480156106e457600080fd5b50600b546103c090600160a01b900460ff1681565b34801561070557600080fd5b506103ea611794565b6103ea61071c366004613a22565b611858565b34801561072d57600080fd5b506103ea61073c3660046139b9565b6119a2565b34801561074d57600080fd5b5061042e61075c3660046137cc565b6119ee565b34801561076d57600080fd5b506103ea61077c366004613a52565b611a16565b34801561078d57600080fd5b50610401611a6b565b3480156107a257600080fd5b506104bb6107b13660046139b9565b611a7a565b3480156107c257600080fd5b506103ea611b06565b3480156107d757600080fd5b506103ea6107e63660046139b9565b611b7a565b3480156107f757600080fd5b506103ea610806366004613a89565b611bc6565b34801561081757600080fd5b506103ea610826366004613acc565b611ddf565b34801561083757600080fd5b506103ea6108463660046137cc565b61211e565b34801561085757600080fd5b50600b546001600160a01b031661042e565b34801561087557600080fd5b50600b546001600160a01b031633146103c0565b34801561089557600080fd5b506103ea6108a4366004613b36565b61214d565b3480156108b557600080fd5b506103ea61218d565b3480156108ca57600080fd5b506104016121d8565b3480156108df57600080fd5b506108f36108ee3660046137cc565b6121e7565b6040516103cc9190600060e082019050825182526020830151602083015260408301516040830152606083015160608301526080830151608083015260a083015160a083015267ffffffffffffffff60c08401511660c083015292915050565b34801561095f57600080fd5b506103ea61096e366004613a52565b6122bd565b34801561097f57600080fd5b506103ea612382565b34801561099457600080fd5b506103ea6123cd565b3480156109a957600080fd5b506103ea6109b83660046139b9565b612418565b3480156109c957600080fd5b506103ea6109d8366004613b51565b612464565b3480156109e957600080fd5b5060165461042e906001600160a01b031681565b348015610a0957600080fd5b506103ea610a183660046139b9565b61249c565b348015610a2957600080fd5b506103ea610a383660046137cc565b6124e8565b348015610a4957600080fd5b50610401610a583660046137cc565b612517565b348015610a6957600080fd5b506018546103c090600160a81b900460ff1681565b348015610a8a57600080fd5b506103c0610a99366004613bc1565b6001600160a01b03918216600090815260066020908152604080832093909416825291909152205460ff1690565b348015610ad357600080fd5b506103ea610ae23660046139b9565b612688565b348015610af357600080fd5b506103c06126bb565b348015610b0857600080fd5b506103c0610b173660046139b9565b6001600160a01b031660009081526014602052604090205460ff1690565b600b546001600160a01b03163314610b685760405162461bcd60e51b8152600401610b5f90613bf4565b60405180910390fd5b6018805460ff60b81b198116600160b81b9182900460ff1615909102179055565b606060078054610b9890613c29565b80601f0160208091040260200160405190810160405280929190818152602001828054610bc490613c29565b8015610c115780601f10610be657610100808354040283529160200191610c11565b820191906000526020600020905b815481529060010190602001808311610bf457829003601f168201915b5050505050905090565b6000610c268261273a565b610c875760405162461bcd60e51b815260206004820152602c60248201527f4552433732313a20617070726f76656420717565727920666f72206e6f6e657860448201526b34b9ba32b73a103a37b5b2b760a11b6064820152608401610b5f565b506000908152600560205260409020546001600160a01b031690565b6000610cae826119ee565b9050806001600160a01b0316836001600160a01b03161415610d1c5760405162461bcd60e51b815260206004820152602160248201527f4552433732313a20617070726f76616c20746f2063757272656e74206f776e656044820152603960f91b6064820152608401610b5f565b336001600160a01b0382161480610d385750610d388133610a99565b610daa5760405162461bcd60e51b815260206004820152603860248201527f4552433732313a20617070726f76652063616c6c6572206973206e6f74206f7760448201527f6e6572206e6f7220617070726f76656420666f7220616c6c00000000000000006064820152608401610b5f565b610db48383612747565b505050565b600b54600160a01b900460ff1615610dd057600080fd5b601854600160a01b900460ff161515600114610e275760405162461bcd60e51b8152602060048201526016602482015275109d5c9b9a5b99c81a5cc81b9bdd08185b1b1bddd95960521b6044820152606401610b5f565b610e30816119ee565b6001600160a01b0316336001600160a01b031614610e845760405162461bcd60e51b81526020600482015260116024820152702737ba103a37b5b2b724b21037bbb732b960791b6044820152606401610b5f565b610e8d816127b5565b50565b601a546040516370a0823160e01b81523060048201526000916001600160a01b0316906370a0823190602401602060405180830381865afa158015610ed9573d6000803e3d6000fd5b505050506040513d601f19601f82011682018060405250810190610efd9190613c64565b905090565b33610f0c836119ee565b6001600160a01b031614610f4e5760405162461bcd60e51b81526020600482015260096024820152683737ba1037bbb732b960b91b6044820152606401610b5f565b610f588282612844565b5050565b6016546001600160a01b03163314610fa75760405162461bcd60e51b815260206004820152600e60248201526d6e6f74206d656b616465706c6f7960901b6044820152606401610b5f565b600b54600160a01b900460ff1615610fbe57600080fd5b6011548110156110015760405162461bcd60e51b815260206004820152600e60248201526d616d6f756e7420746f6f206c6f7760901b6044820152606401610b5f565b61100a846119ee565b6001600160a01b0316326001600160a01b03161461105c5760405162461bcd60e51b815260206004820152600f60248201526e3737ba103937b137ba1037bbb732b960891b6044820152606401610b5f565b601a546040516323b872dd60e01b81526001600160a01b03878116600483015230602483015260448201849052909116906323b872dd906064016020604051808303816000875af11580156110b5573d6000803e3d6000fd5b505050506040513d601f19601f820116820180604052508101906110d99190613c7d565b6110e257600080fd5b6000600d6110f1600187613cb0565b8154811061110157611101613cc7565b60009182526020822060079091020191508360ff16600481111561112757611127613cdd565b600481111561113857611138613cdd565b1415611176576000816001015411801561115c5750601854600160a81b900460ff16155b611166578361116c565b80600101545b60018201556112dc565b60048360ff16600481111561118d5761118d613cdd565b600481111561119e5761119e613cdd565b14156111dc57600081600501541180156111c25750601854600160a81b900460ff16155b6111cc57836111d2565b80600501545b60058201556112dc565b60018360ff1660048111156111f3576111f3613cdd565b600481111561120457611204613cdd565b141561124257600081600201541180156112285750601854600160a81b900460ff16155b6112325783611238565b80600201545b60028201556112dc565b60028360ff16600481111561125957611259613cdd565b600481111561126a5761126a613cdd565b14156112a8576000816003015411801561128e5750601854600160a81b900460ff16155b611298578361129e565b80600301545b60038201556112dc565b600081600401541180156112c65750601854600160a81b900460ff16155b6112d057836112d6565b80600401545b60048201555b604080516001600160a01b03881681526020810187905290810185905260ff841660608201524260808201527fed4cb83ee8aaf3c7ce0e28cc5e28ebd459e33e8e935fb98513e81607b50fc9ab9060a0015b60405180910390a1505050505050565b6000610efd60026128cd565b600b546001600160a01b031633146113745760405162461bcd60e51b8152600401610b5f90613bf4565b476000611389600b546001600160a01b031690565b6001600160a01b03168260405160006040518083038185875af1925050503d80600081146113d3576040519150601f19603f3d011682016040523d82523d6000602084013e6113d8565b606091505b5050905080610f585760405162461bcd60e51b81526020600482015260146024820152732330b4b632b2103a379039b2b7321022ba3432b960611b6044820152606401610b5f565b600b54600160a01b900460ff161561143757600080fd5b813b63ffffffff16151580156114575750601854600160b01b900460ff16155b156114b1576019546001600160a01b038381169116146114b15760405162461bcd60e51b815260206004820152601560248201527418dbdb9d1c9858dd081b9bdd081858d8d95c1d1959605a1b6044820152606401610b5f565b6001600160a01b03831660009081526014602052604090205460ff16156115105760405162461bcd60e51b81526020600482015260136024820152721859191c995cdcc8189b1858dadb1a5cdd1959606a1b6044820152606401610b5f565b6001600160a01b03821660009081526014602052604090205460ff161561156f5760405162461bcd60e51b81526020600482015260136024820152721859191c995cdcc8189b1858dadb1a5cdd1959606a1b6044820152606401610b5f565b610db48383836128d8565b600b546001600160a01b031633146115a45760405162461bcd60e51b8152600401610b5f90613bf4565b601a80546001600160a01b0319166001600160a01b0392909216919091179055565b6001600160a01b0381166000908152600160205260408120606091906115eb90612909565b67ffffffffffffffff8111156116035761160361382b565b60405190808252806020026020018201604052801561162c578160200160208202803683370190505b50905060005b6001600160a01b038416600090815260016020526040902061165390612909565b8110156116ab576001600160a01b038416600090815260016020526040902061167c9082612913565b82828151811061168e5761168e613cc7565b6020908102919091010152806116a381613cf3565b915050611632565b5092915050565b6001600160a01b03821660009081526001602052604081206116d49083612913565b90505b92915050565b600b546000906001600160a01b0316331461170a5760405162461bcd60e51b8152600401610b5f90613bf4565b600b54600160a01b900460ff161561172157600080fd5b600b805460ff60a01b1916600160a01b1790556040517f6985a02210a168e66602d3235cb6db0e70f92b3ba4d376a33c0f3d9434bff62590600090a150600190565b610db483838360405180602001604052806000815250612464565b60008061178c60028461291f565b509392505050565b600b546001600160a01b031633146117be5760405162461bcd60e51b8152600401610b5f90613bf4565b601a546001600160a01b031663a9059cbb6117e1600b546001600160a01b031690565b6117e9610e90565b6040516001600160e01b031960e085901b1681526001600160a01b03909216600483015260248201526044016020604051808303816000875af1158015611834573d6000803e3d6000fd5b505050506040513d601f19601f82011682018060405250810190610e8d9190613c7d565b600b54600160a01b900460ff161561186f57600080fd5b600e543410156118b25760405162461bcd60e51b815260206004820152600e60248201526d3737ba1032b737bab3b41031373160911b6044820152606401610b5f565b6118bb826119ee565b6001600160a01b0316336001600160a01b03161461190f5760405162461bcd60e51b81526020600482015260116024820152702737ba103a37b5b2b724b21037bbb732b960791b6044820152606401610b5f565b601954611925906001600160a01b031683612747565b60195460405163be22facd60e01b8152600481018490526000602482018190526044820152606481018390523360848201526001600160a01b039091169063be22facd9060a401600060405180830381600087803b15801561198657600080fd5b505af115801561199a573d6000803e3d6000fd5b505050505050565b600b546001600160a01b031633146119cc5760405162461bcd60e51b8152600401610b5f90613bf4565b601680546001600160a01b0319166001600160a01b0392909216919091179055565b60006116d782604051806060016040528060298152602001614007602991396002919061293b565b600b546001600160a01b03163314611a405760405162461bcd60e51b8152600401610b5f90613bf4565b6001600160a01b03919091166000908152601460205260409020805460ff1916911515919091179055565b6060600a8054610b9890613c29565b60006001600160a01b038216611ae55760405162461bcd60e51b815260206004820152602a60248201527f4552433732313a2062616c616e636520717565727920666f7220746865207a65604482015269726f206164647265737360b01b6064820152608401610b5f565b6001600160a01b03821660009081526001602052604090206116d790612909565b600b546001600160a01b03163314611b305760405162461bcd60e51b8152600401610b5f90613bf4565b600b546040516000916001600160a01b0316907f8be0079c531659141344cd1fd0a4f28419497f9722a3daafe3b4186f6b6457e0908390a3600b80546001600160a01b0319169055565b600b546001600160a01b03163314611ba45760405162461bcd60e51b8152600401610b5f90613bf4565b601780546001600160a01b0319166001600160a01b0392909216919091179055565b6017546001600160a01b0316331480611be957506018546001600160a01b031633145b611c225760405162461bcd60e51b815260206004820152600a6024820152696e6f742062756e646c6560b01b6044820152606401610b5f565b601854600160b81b900460ff16611c725760405162461bcd60e51b81526020600482015260146024820152731c9bd89bdd08199858dd1bdc9e4818db1bdcd95960621b6044820152606401610b5f565b600b54600160a01b900460ff1615611c8957600080fd5b60008260ff166006811115611ca057611ca0613cdd565b90506000808360ff1667ffffffffffffffff811115611cc157611cc161382b565b604051908082528060200260200182016040528015611cea578160200160208202803683370190505b5090506004836006811115611d0157611d01613cdd565b1480611d1e57506005836006811115611d1c57611d1c613cdd565b145b80611d3a57506006836006811115611d3857611d38613cdd565b145b15611d4457600191505b60005b8460ff16811015611da757600f54828281518110611d6757611d67613cc7565b602002602001018181525050611d7f87600f54612952565b600f8054906000611d8f83613cf3565b91905055508080611d9f90613cf3565b915050611d47565b507f30ccb109aad3c13ff5d87de6a3ca8c9c592995fecf5c507badb715a32b0473f7868287854260405161132e959493929190613d0e565b6016546001600160a01b03163314611e2a5760405162461bcd60e51b815260206004820152600e60248201526d6e6f74206d656b616465706c6f7960901b6044820152606401610b5f565b601854600160b81b900460ff16611e7a5760405162461bcd60e51b81526020600482015260146024820152731c9bd89bdd08199858dd1bdc9e4818db1bdcd95960621b6044820152606401610b5f565b600b54600160a01b900460ff1615611e9157600080fd5b6012546001600160a01b03851660009081526013602052604090205460ff918216911610611ef85760405162461bcd60e51b81526020600482015260146024820152731dd85b1b195d0b5c1858dad859d94b5b1a5b5a5d60621b6044820152606401610b5f565b8115611f87576001600160a01b03841660009081526015602052604090205460ff16611f5f5760405162461bcd60e51b81526020600482015260166024820152756e6f742d617661696c61626c652d776974682d6f726560501b6044820152606401610b5f565b6001600160a01b0384166000908152601560205260409020805460ff19166001179055612050565b601054831015611fca5760405162461bcd60e51b815260206004820152600e60248201526d1253959053125108105353d5539560921b6044820152606401610b5f565b601a546040516323b872dd60e01b81526001600160a01b03868116600483015230602483015260448201869052909116906323b872dd906064016020604051808303816000875af1158015612023573d6000803e3d6000fd5b505050506040513d601f19601f820116820180604052508101906120479190613c7d565b61205057600080fd5b61205c84600f54612952565b612068600f5482612844565b600f54604080516001600160a01b038716815260208101929092524282820152517f7d816da1adb7ef5049c497193343fba3874ed2088af0688691603d113a4597d19181900360600190a16001600160a01b0384166000908152601360205260409020546120da9060ff166001613d50565b6001600160a01b0385166000908152601360205260408120805460ff191660ff9390931692909217909155600f80549161211383613cf3565b919050555050505050565b600b546001600160a01b031633146121485760405162461bcd60e51b8152600401610b5f90613bf4565b600e55565b600b546001600160a01b031633146121775760405162461bcd60e51b8152600401610b5f90613bf4565b6012805460ff191660ff92909216919091179055565b600b546001600160a01b031633146121b75760405162461bcd60e51b8152600401610b5f90613bf4565b6018805460ff60b01b198116600160b01b9182900460ff1615909102179055565b606060088054610b9890613c29565b6122316040518060e00160405280600081526020016000815260200160008152602001600081526020016000815260200160008152602001600067ffffffffffffffff1681525090565b600d61223e600184613cb0565b8154811061224e5761224e613cc7565b60009182526020918290206040805160e0810182526007909302909101805483526001810154938301939093526002830154908201526003820154606082015260048201546080820152600582015460a082015260069091015467ffffffffffffffff1660c082015292915050565b6001600160a01b0382163314156123165760405162461bcd60e51b815260206004820152601960248201527f4552433732313a20617070726f766520746f2063616c6c6572000000000000006044820152606401610b5f565b3360008181526006602090815260408083206001600160a01b03871680855290835292819020805460ff191686151590811790915590519081529192917f17307eab39ab6107e8899845ad3d59bd9653f200f220920489ca2b5937696c31910160405180910390a35050565b600b546001600160a01b031633146123ac5760405162461bcd60e51b8152600401610b5f90613bf4565b6018805460ff60a81b198116600160a81b9182900460ff1615909102179055565b600b546001600160a01b031633146123f75760405162461bcd60e51b8152600401610b5f90613bf4565b6018805460ff60a01b198116600160a01b9182900460ff1615909102179055565b600b546001600160a01b031633146124425760405162461bcd60e51b8152600401610b5f90613bf4565b601980546001600160a01b0319166001600160a01b0392909216919091179055565b61246e3383612bdc565b61248a5760405162461bcd60e51b8152600401610b5f90613d75565b61249684848484612cc6565b50505050565b600b546001600160a01b031633146124c65760405162461bcd60e51b8152600401610b5f90613bf4565b601880546001600160a01b0319166001600160a01b0392909216919091179055565b600b546001600160a01b031633146125125760405162461bcd60e51b8152600401610b5f90613bf4565b601055565b60606125228261273a565b6125865760405162461bcd60e51b815260206004820152602f60248201527f4552433732314d657461646174613a2055524920717565727920666f72206e6f60448201526e3732bc34b9ba32b73a103a37b5b2b760891b6064820152608401610b5f565b6000828152600960205260408120805461259f90613c29565b80601f01602080910402602001604051908101604052809291908181526020018280546125cb90613c29565b80156126185780601f106125ed57610100808354040283529160200191612618565b820191906000526020600020905b8154815290600101906020018083116125fb57829003601f168201915b50505050509050600a805461262c90613c29565b1515905061263a5792915050565b80511561266c57600a81604051602001612655929190613de2565b604051602081830303815290604052915050919050565b600a61267784612cf9565b604051602001612655929190613de2565b600b546001600160a01b031633146126b25760405162461bcd60e51b8152600401610b5f90613bf4565b610e8d81612e10565b600b546000906001600160a01b031633146126e85760405162461bcd60e51b8152600401610b5f90613bf4565b600b54600160a01b900460ff166126fe57600080fd5b600b805460ff60a01b191690556040517f7805862f689e2f13df9f062ff482ad3ad112aca9e0847911ed832e158c525b3390600090a150600190565b60006116d7600283612ed1565b600081815260056020526040902080546001600160a01b0319166001600160a01b038416908117909155819061277c826119ee565b6001600160a01b03167f8c5be1e5ebec7d5bd14f71427d1e84f3dd0314c0f7b2291e5b200ac8c7c3b92560405160405180910390a45050565b60006127c0826119ee565b90506127ce81600084612edd565b6127d9600083612747565b6001600160a01b03811660009081526001602052604090206127fb9083612ef4565b50612807600283612f00565b5060405182906000906001600160a01b038416907fddf252ad1be2c89b69c2b068fc378daa952ba7f163c4a11628f55a4df523b3ef908390a45050565b61284d8261273a565b6128ae5760405162461bcd60e51b815260206004820152602c60248201527f4552433732314d657461646174613a2055524920736574206f66206e6f6e657860448201526b34b9ba32b73a103a37b5b2b760a11b6064820152608401610b5f565b60008281526009602090815260409091208251610db492840190613695565b60006116d782612f0c565b6128e23382612bdc565b6128fe5760405162461bcd60e51b8152600401610b5f90613d75565b610db4838383612f17565b60006116d7825490565b60006116d483836130a3565b600080808061292e86866130cd565b9097909650945050505050565b60006129488484846130f8565b90505b9392505050565b6001600160a01b0382166129a85760405162461bcd60e51b815260206004820181905260248201527f4552433732313a206d696e7420746f20746865207a65726f20616464726573736044820152606401610b5f565b6129b18161273a565b156129fe5760405162461bcd60e51b815260206004820152601c60248201527f4552433732313a20746f6b656e20616c7265616479206d696e746564000000006044820152606401610b5f565b6040805160e08101825282815260006020808301828152838501838152606085018481526080860185815260a087018681524267ffffffffffffffff90811660c08a01908152600d8054600181018255908a528a517fd7b6990105719101dabeb77144f2a3385c8033acd3af97e9423a695e81ad1eb560079092029182015596517fd7b6990105719101dabeb77144f2a3385c8033acd3af97e9423a695e81ad1eb688015594517fd7b6990105719101dabeb77144f2a3385c8033acd3af97e9423a695e81ad1eb787015592517fd7b6990105719101dabeb77144f2a3385c8033acd3af97e9423a695e81ad1eb886015590517fd7b6990105719101dabeb77144f2a3385c8033acd3af97e9423a695e81ad1eb9850155517fd7b6990105719101dabeb77144f2a3385c8033acd3af97e9423a695e81ad1eba84015590517fd7b6990105719101dabeb77144f2a3385c8033acd3af97e9423a695e81ad1ebb909201805467ffffffffffffffff1916929091169190911790558351908101909352825290612b8f908490849061313b565b604080516001600160a01b038516815260208101849052428183015290517f393ccba6479926a7c4a6471a3b4584229e2df48a1858c8caf57680927dced5ff9181900360600190a1505050565b6000612be78261273a565b612c485760405162461bcd60e51b815260206004820152602c60248201527f4552433732313a206f70657261746f7220717565727920666f72206e6f6e657860448201526b34b9ba32b73a103a37b5b2b760a11b6064820152608401610b5f565b6000612c53836119ee565b9050806001600160a01b0316846001600160a01b03161480612c8e5750836001600160a01b0316612c8384610c1b565b6001600160a01b0316145b80612cbe57506001600160a01b0380821660009081526006602090815260408083209388168352929052205460ff165b949350505050565b612cd1848484612f17565b612cdd8484848461316e565b6124965760405162461bcd60e51b8152600401610b5f90613e89565b606081612d1d5750506040805180820190915260018152600360fc1b602082015290565b8160005b8115612d475780612d3181613cf3565b9150612d409050600a83613ef1565b9150612d21565b60008167ffffffffffffffff811115612d6257612d6261382b565b6040519080825280601f01601f191660200182016040528015612d8c576020820181803683370190505b5090506000612d9c600184613cb0565b90508593505b8315612e0757612db3600a85613f05565b612dbe906030613f19565b60f81b8282612dcc81613f31565b935081518110612dde57612dde613cc7565b60200101906001600160f81b031916908160001a905350612e00600a85613ef1565b9350612da2565b50949350505050565b6001600160a01b038116612e755760405162461bcd60e51b815260206004820152602660248201527f4f776e61626c653a206e6577206f776e657220697320746865207a65726f206160448201526564647265737360d01b6064820152608401610b5f565b600b546040516001600160a01b038084169216907f8be0079c531659141344cd1fd0a4f28419497f9722a3daafe3b4186f6b6457e090600090a3600b80546001600160a01b0319166001600160a01b0392909216919091179055565b60006116d4838361323f565b600b54600160a01b900460ff1615610db457600080fd5b60006116d4838361324b565b60006116d4838361333e565b60006116d782612909565b826001600160a01b0316612f2a826119ee565b6001600160a01b031614612f925760405162461bcd60e51b815260206004820152602960248201527f4552433732313a207472616e73666572206f6620746f6b656e2074686174206960448201526839903737ba1037bbb760b91b6064820152608401610b5f565b6001600160a01b038216612ff45760405162461bcd60e51b8152602060048201526024808201527f4552433732313a207472616e7366657220746f20746865207a65726f206164646044820152637265737360e01b6064820152608401610b5f565b612fff838383612edd565b61300a600082612747565b6001600160a01b038316600090815260016020526040902061302c9082612ef4565b506001600160a01b038216600090815260016020526040902061304f908261335b565b5061305c60028284613367565b5080826001600160a01b0316846001600160a01b03167fddf252ad1be2c89b69c2b068fc378daa952ba7f163c4a11628f55a4df523b3ef60405160405180910390a4505050565b60008260000182815481106130ba576130ba613cc7565b9060005260206000200154905092915050565b600080806130db8585612913565b600081815260029690960160205260409095205494959350505050565b60008281526002840160205260408120548015158061311c575061311c858561323f565b8390612e075760405162461bcd60e51b8152600401610b5f91906137b9565b613145838361337d565b613152600084848461316e565b610db45760405162461bcd60e51b8152600401610b5f90613e89565b60006001600160a01b0384163b61318757506001612cbe565b6000613208630a85bd0160e11b338887876040516024016131ab9493929190613f48565b604051602081830303815290604052906001600160e01b0319166020820180516001600160e01b038381831617835250505050604051806060016040528060328152602001613fd5603291396001600160a01b03881691906134a1565b90506000818060200190518101906132209190613f85565b6001600160e01b031916630a85bd0160e11b1492505050949350505050565b60006116d483836134b0565b6000818152600183016020526040812054801561333457600061326f600183613cb0565b855490915060009061328390600190613cb0565b90508181146132e85760008660000182815481106132a3576132a3613cc7565b90600052602060002001549050808760000184815481106132c6576132c6613cc7565b6000918252602080832090910192909255918252600188019052604090208390555b85548690806132f9576132f9613fa2565b6001900381819060005260206000200160009055905585600101600086815260200190815260200160002060009055600193505050506116d7565b60009150506116d7565b600081815260028301602052604081208190556116d48383612ef4565b60006116d483836134c8565b600061294884846001600160a01b038516613517565b6001600160a01b0382166133d35760405162461bcd60e51b815260206004820181905260248201527f4552433732313a206d696e7420746f20746865207a65726f20616464726573736044820152606401610b5f565b6133dc8161273a565b156134295760405162461bcd60e51b815260206004820152601c60248201527f4552433732313a20746f6b656e20616c7265616479206d696e746564000000006044820152606401610b5f565b61343560008383612edd565b6001600160a01b0382166000908152600160205260409020613457908261335b565b5061346460028284613367565b5060405181906001600160a01b038416906000907fddf252ad1be2c89b69c2b068fc378daa952ba7f163c4a11628f55a4df523b3ef908290a45050565b60606129488484600085613534565b600081815260018301602052604081205415156116d4565b600081815260018301602052604081205461350f575081546001818101845560008481526020808220909301849055845484825282860190935260409020919091556116d7565b5060006116d7565b60008281526002840160205260408120829055612948848461335b565b6060824710156135955760405162461bcd60e51b815260206004820152602660248201527f416464726573733a20696e73756666696369656e742062616c616e636520666f6044820152651c8818d85b1b60d21b6064820152608401610b5f565b843b6135e35760405162461bcd60e51b815260206004820152601d60248201527f416464726573733a2063616c6c20746f206e6f6e2d636f6e74726163740000006044820152606401610b5f565b600080866001600160a01b031685876040516135ff9190613fb8565b60006040518083038185875af1925050503d806000811461363c576040519150601f19603f3d011682016040523d82523d6000602084013e613641565b606091505b509150915061365182828661365c565b979650505050505050565b6060831561366b57508161294b565b82511561367b5782518084602001fd5b8160405162461bcd60e51b8152600401610b5f91906137b9565b8280546136a190613c29565b90600052602060002090601f0160209004810192826136c35760008555613709565b82601f106136dc57805160ff1916838001178555613709565b82800160010185558215613709579182015b828111156137095782518255916020019190600101906136ee565b50613715929150613719565b5090565b5b80821115613715576000815560010161371a565b6001600160e01b031981168114610e8d57600080fd5b60006020828403121561375657600080fd5b813561294b8161372e565b60005b8381101561377c578181015183820152602001613764565b838111156124965750506000910152565b600081518084526137a5816020860160208601613761565b601f01601f19169290920160200192915050565b6020815260006116d4602083018461378d565b6000602082840312156137de57600080fd5b5035919050565b80356001600160a01b03811681146137fc57600080fd5b919050565b6000806040838503121561381457600080fd5b61381d836137e5565b946020939093013593505050565b634e487b7160e01b600052604160045260246000fd5b600067ffffffffffffffff8084111561385c5761385c61382b565b604051601f8501601f19908116603f011681019082821181831017156138845761388461382b565b8160405280935085815286868601111561389d57600080fd5b858560208301376000602087830101525050509392505050565b600082601f8301126138c857600080fd5b6116d483833560208501613841565b600080604083850312156138ea57600080fd5b82359150602083013567ffffffffffffffff81111561390857600080fd5b613914858286016138b7565b9150509250929050565b803560ff811681146137fc57600080fd5b600080600080600060a0868803121561394757600080fd5b613950866137e5565b9450602086013593506040860135925061396c6060870161391e565b949793965091946080013592915050565b60008060006060848603121561399257600080fd5b61399b846137e5565b92506139a9602085016137e5565b9150604084013590509250925092565b6000602082840312156139cb57600080fd5b6116d4826137e5565b600081518084526020808501945080840160005b83811015613a04578151875295820195908201906001016139e8565b509495945050505050565b6020815260006116d460208301846139d4565b60008060408385031215613a3557600080fd5b50508035926020909101359150565b8015158114610e8d57600080fd5b60008060408385031215613a6557600080fd5b613a6e836137e5565b91506020830135613a7e81613a44565b809150509250929050565b600080600060608486031215613a9e57600080fd5b613aa7846137e5565b9250613ab56020850161391e565b9150613ac36040850161391e565b90509250925092565b60008060008060808587031215613ae257600080fd5b613aeb856137e5565b9350602085013592506040850135613b0281613a44565b9150606085013567ffffffffffffffff811115613b1e57600080fd5b613b2a878288016138b7565b91505092959194509250565b600060208284031215613b4857600080fd5b6116d48261391e565b60008060008060808587031215613b6757600080fd5b613b70856137e5565b9350613b7e602086016137e5565b925060408501359150606085013567ffffffffffffffff811115613ba157600080fd5b8501601f81018713613bb257600080fd5b613b2a87823560208401613841565b60008060408385031215613bd457600080fd5b613bdd836137e5565b9150613beb602084016137e5565b90509250929050565b6020808252818101527f4f776e61626c653a2063616c6c6572206973206e6f7420746865206f776e6572604082015260600190565b600181811c90821680613c3d57607f821691505b60208210811415613c5e57634e487b7160e01b600052602260045260246000fd5b50919050565b600060208284031215613c7657600080fd5b5051919050565b600060208284031215613c8f57600080fd5b815161294b81613a44565b634e487b7160e01b600052601160045260246000fd5b600082821015613cc257613cc2613c9a565b500390565b634e487b7160e01b600052603260045260246000fd5b634e487b7160e01b600052602160045260246000fd5b6000600019821415613d0757613d07613c9a565b5060010190565b6001600160a01b038616815260a060208201819052600090613d32908301876139d4565b60ff9586166040840152939094166060820152608001529392505050565b600060ff821660ff84168060ff03821115613d6d57613d6d613c9a565b019392505050565b60208082526031908201527f4552433732313a207472616e736665722063616c6c6572206973206e6f74206f6040820152701ddb995c881b9bdc88185c1c1c9bdd9959607a1b606082015260800190565b60008151613dd8818560208601613761565b9290920192915050565b600080845481600182811c915080831680613dfe57607f831692505b6020808410821415613e1e57634e487b7160e01b86526022600452602486fd5b818015613e325760018114613e4357613e70565b60ff19861689528489019650613e70565b60008b81526020902060005b86811015613e685781548b820152908501908301613e4f565b505084890196505b505050505050613e808185613dc6565b95945050505050565b60208082526032908201527f4552433732313a207472616e7366657220746f206e6f6e20455243373231526560408201527131b2b4bb32b91034b6b83632b6b2b73a32b960711b606082015260800190565b634e487b7160e01b600052601260045260246000fd5b600082613f0057613f00613edb565b500490565b600082613f1457613f14613edb565b500690565b60008219821115613f2c57613f2c613c9a565b500190565b600081613f4057613f40613c9a565b506000190190565b6001600160a01b0385811682528416602082015260408101839052608060608201819052600090613f7b9083018461378d565b9695505050505050565b600060208284031215613f9757600080fd5b815161294b8161372e565b634e487b7160e01b600052603160045260246000fd5b60008251613fca818460208701613761565b919091019291505056fe4552433732313a207472616e7366657220746f206e6f6e20455243373231526563656976657220696d706c656d656e7465724552433732313a206f776e657220717565727920666f72206e6f6e6578697374656e7420746f6b656ea2646970667358221220232103b6c582c7dc384cd77b1f517d9af2beacb72088c36ad10f837ad0549d3b64736f6c634300080b0033",
  "immutableReferences": {},
  "source": "// SPDX-License-Identifier: MIT\r\npragma solidity ^0.8.2;\r\n\r\nimport \"./IBEP20.sol\";\r\nimport \"./IMarketplace.sol\";\r\nimport \"./Ownable.sol\";\r\nimport \"./ERC721.sol\";\r\nimport \"./ERC721Pausable.sol\";\r\nimport \"./EnumerableSet.sol\";\r\nimport \"./EnumerableMap.sol\";\r\nimport \"./IRobotCore.sol\";\r\nimport \"./ReentrancyGuard.sol\";\r\n\r\ncontract RobotCore is Ownable, ERC721Pausable, IRobotCore, ReentrancyGuard {\r\n    using EnumerableSet for EnumerableSet.UintSet;\r\n    using EnumerableMap for EnumerableMap.UintToAddressMap;\r\n\r\n    struct Robot {\r\n        uint256 robotId; // id of the robot\r\n        uint256 head;\r\n        uint256 larm;\r\n        uint256 rarm;\r\n        uint256 legs;\r\n        uint256 chest;\r\n        uint64 birthTime; // The timestamp from the block when this Robot came into existence.\r\n    }\r\n\r\n    enum Rarity {\r\n        E,\r\n        D,\r\n        C,\r\n        B,\r\n        A,\r\n        S\r\n    }\r\n\r\n    enum PieceType {\r\n        Head,\r\n        LArm,\r\n        RArm,\r\n        Legs,\r\n        Chest\r\n    }\r\n\r\n    enum RobotType {\r\n        Tank,\r\n        Stealth,\r\n        Basic\r\n    }\r\n\r\n    enum PackageType {\r\n        Default,\r\n        First,\r\n        Second,\r\n        Third,\r\n        Fourth,\r\n        Fifth,\r\n        Sixth\r\n    }\r\n\r\n    /*** STORAGE ***/\r\n    /// @dev An array containing the Robot struct for all robots in existence. The ID\r\n    ///  of each Robot is actually an index into this array.\r\n    Robot[] robots;\r\n\r\n    event MintedRobotFromBundle(\r\n        address from,\r\n        uint256[] robotIds,\r\n        uint8 packageType,\r\n        uint8 gen,\r\n        uint256 date\r\n    );\r\n\r\n    event PieceAttached(\r\n        address owner,\r\n        uint256 robotId,\r\n        uint256 pieceId,\r\n        uint8 pieceType,\r\n        uint256 date\r\n    );\r\n\r\n    event MintedRobot(address from, uint256 tokenId, uint256 date);\r\n\r\n    uint256 bnbFee = 0.005 * 10**18;\r\n    uint256 private nextRobotTokenId = 1;\r\n    uint256 robotPrice = 60 * 10**18; // to review\r\n    uint256 attachPrice = 5 * 10**18;\r\n    uint8 private totalPackagesOwner = 5;\r\n\r\n    mapping(address => uint8) walletPackages;\r\n    mapping(address => bool) private banBlackList;\r\n\r\n    mapping(address => bool) private _walletBoughtWithOre;\r\n\r\n    /* SETTABLE VARIABLES */\r\n    address public _mekaDeployerAddress;\r\n    address public _robotPackageAddress;\r\n    address public _robotPackageGen1Address;\r\n    bool public isBurn;\r\n    bool public canReplacePiece;\r\n    bool public acceptContracts;\r\n    bool public isRobotFactoryOpen;\r\n    address public _marketplaceAddr;\r\n    address public _mekaAddress;\r\n\r\n    constructor(address _mekaToken) ERC721(\"Mekabot\", \"Mekabot\") {\r\n        isBurn = true;\r\n        _mekaAddress = _mekaToken;\r\n        isRobotFactoryOpen = true;\r\n    }\r\n\r\n    function updateAcceptContract() external onlyOwner {\r\n        acceptContracts = !acceptContracts;\r\n    }\r\n\r\n    function updateCanReplacePiece() external onlyOwner {\r\n        canReplacePiece = !canReplacePiece;\r\n    }\r\n\r\n    function isBlacklisted(address addr) external view returns (bool) {\r\n        return banBlackList[addr];\r\n    }\r\n\r\n    function setBlackList(address wallet, bool isBlackListed)\r\n        external\r\n        onlyOwner\r\n    {\r\n        banBlackList[wallet] = isBlackListed;\r\n    }\r\n\r\n    function setPackageLimit(uint8 limit) external onlyOwner {\r\n        totalPackagesOwner = limit;\r\n    }\r\n\r\n    function setBnbFee(uint256 fee) external onlyOwner {\r\n        bnbFee = fee;\r\n    }\r\n\r\n    function setMarketplaceAddress(address _address) external onlyOwner {\r\n        _marketplaceAddr = _address;\r\n    }\r\n\r\n    function setRobotPackageAddress(address _address) external onlyOwner {\r\n        _robotPackageAddress = _address;\r\n    }\r\n\r\n    function setRobotPackageGen1Address(address _address) external onlyOwner {\r\n        _robotPackageGen1Address = _address;\r\n    }\r\n\r\n    function setMekaDeployerAddress(address _mekaDeployAddr)\r\n        external\r\n        onlyOwner\r\n    {\r\n        _mekaDeployerAddress = _mekaDeployAddr;\r\n    }\r\n\r\n    function setRobotPrice(uint256 _price) external onlyOwner {\r\n        robotPrice = _price;\r\n    }\r\n\r\n    function setTokenAddress(address _addr) external onlyOwner {\r\n        _mekaAddress = _addr;\r\n    }\r\n\r\n    function setTokenURI(uint256 tokenId, string memory _tokenURI) external {\r\n        require(ownerOf(tokenId) == msg.sender, \"not owner\");\r\n        _setTokenURI(tokenId, _tokenURI);\r\n    }\r\n\r\n    function updateIsBurn() external onlyOwner {\r\n        isBurn = !isBurn;\r\n    }\r\n\r\n    function updateRobotFactory() external onlyOwner {\r\n        isRobotFactoryOpen = !isRobotFactoryOpen;\r\n    }\r\n\r\n    modifier onlyBundle() {\r\n        require(\r\n            msg.sender == _robotPackageAddress ||\r\n                msg.sender == _robotPackageGen1Address,\r\n            \"not bundle\"\r\n        );\r\n        _;\r\n    }\r\n\r\n    modifier robotFactory() {\r\n        require(isRobotFactoryOpen, \"robot factory closed\");\r\n        _;\r\n    }\r\n\r\n    modifier onlyMekaDeploy() {\r\n        require(msg.sender == _mekaDeployerAddress, \"not mekadeploy\");\r\n        _;\r\n    }\r\n\r\n    function withdrawBalance() external onlyOwner {\r\n        IBEP20(_mekaAddress).transfer(owner(), getBalance());\r\n    }\r\n\r\n    function withdrawBnb() external onlyOwner {\r\n        uint256 amount = address(this).balance;\r\n\r\n        (bool success, ) = payable(owner()).call{value: amount}(\"\");\r\n        require(success, \"Failed to send Ether\");\r\n    }\r\n\r\n    function _mintRobot(address to, uint256 tokenId) private {\r\n        require(to != address(0), \"ERC721: mint to the zero address\");\r\n        require(!_exists(tokenId), \"ERC721: token already minted\");\r\n\r\n        Robot memory _robot = Robot({\r\n            robotId: tokenId,\r\n            head: 0,\r\n            larm: 0,\r\n            rarm: 0,\r\n            legs: 0,\r\n            chest: 0,\r\n            birthTime: uint64(block.timestamp)\r\n        });\r\n\r\n        robots.push(_robot);\r\n\r\n        _safeMint(to, tokenId, \"\");\r\n\r\n        emit Birth(to, tokenId, block.timestamp);\r\n    }\r\n\r\n    function attachPiece(\r\n        address _owner,\r\n        uint256 _robotId,\r\n        uint256 _pieceId,\r\n        uint8 _pieceType,\r\n        uint256 _amount\r\n    ) external onlyMekaDeploy whenNotPaused {\r\n        require(_amount >= attachPrice, \"amount too low\");\r\n        require(tx.origin == ownerOf(_robotId), \"not robot owner\");\r\n        require(\r\n            IBEP20(_mekaAddress).transferFrom(_owner, address(this), _amount)\r\n        );\r\n\r\n        Robot storage bot = robots[_robotId - 1];\r\n\r\n        if (PieceType(_pieceType) == PieceType.Head) {\r\n            bot.head = bot.head > 0 && !canReplacePiece ? bot.head : _pieceId;\r\n        } else if (PieceType(_pieceType) == PieceType.Chest) {\r\n            bot.chest = bot.chest > 0 && !canReplacePiece\r\n                ? bot.chest\r\n                : _pieceId;\r\n        } else if (PieceType(_pieceType) == PieceType.LArm) {\r\n            bot.larm = bot.larm > 0 && !canReplacePiece ? bot.larm : _pieceId;\r\n        } else if (PieceType(_pieceType) == PieceType.RArm) {\r\n            bot.rarm = bot.rarm > 0 && !canReplacePiece ? bot.rarm : _pieceId;\r\n        } else {\r\n            bot.legs = bot.legs > 0 && !canReplacePiece ? bot.legs : _pieceId;\r\n        }\r\n\r\n        emit PieceAttached(\r\n            _owner,\r\n            _robotId,\r\n            _pieceId,\r\n            _pieceType,\r\n            block.timestamp\r\n        );\r\n    }\r\n\r\n    function createRobot(\r\n        address _owner,\r\n        uint256 _amount,\r\n        bool _withOre,\r\n        string memory _tokenURI\r\n    ) external onlyMekaDeploy robotFactory whenNotPaused {\r\n        require(\r\n            walletPackages[_owner] < totalPackagesOwner,\r\n            \"wallet-package-limit\"\r\n        );\r\n        if (_withOre) {\r\n            require(_walletBoughtWithOre[_owner], \"not-available-with-ore\");\r\n            _walletBoughtWithOre[_owner] = true;\r\n        } else {\r\n            require(_amount >= robotPrice, \"INVALID AMOUNT\");\r\n            require(\r\n                IBEP20(_mekaAddress).transferFrom(\r\n                    _owner,\r\n                    address(this),\r\n                    _amount\r\n                )\r\n            );\r\n        }\r\n\r\n        _mintRobot(_owner, nextRobotTokenId);\r\n        _setTokenURI(nextRobotTokenId, _tokenURI);\r\n        emit MintedRobot(_owner, nextRobotTokenId, block.timestamp);\r\n        walletPackages[_owner] = walletPackages[_owner] + 1;\r\n        nextRobotTokenId++;\r\n    }\r\n\r\n    function createSale(uint256 _tokenId, uint256 _startingPrice)\r\n        external\r\n        payable\r\n        whenNotPaused\r\n    {\r\n        require(msg.value >= bnbFee, \"not enough bnb\");\r\n        require(msg.sender == ownerOf(_tokenId), \"Not tokenId owner\");\r\n\r\n        _approve(_marketplaceAddr, _tokenId);\r\n        IMarketplace(_marketplaceAddr).createSale(\r\n            _tokenId,\r\n            0,\r\n            address(0),\r\n            _startingPrice,\r\n            msg.sender\r\n        );\r\n    }\r\n\r\n    function burnRobot(uint256 _tokenId) external whenNotPaused {\r\n        require(isBurn == true, \"Burning is not allowed\");\r\n        require(msg.sender == ownerOf(_tokenId), \"Not tokenId owner\");\r\n\r\n        _burn(_tokenId); // burn token\r\n    }\r\n\r\n    /// @notice Returns all the relevant information about a specific Robot.\r\n    /// @param _id The ID of the Robot of interest.\r\n    function getRobot(uint256 _id) external view returns (Robot memory robot) {\r\n        return robots[_id - 1];\r\n    }\r\n\r\n    function getBalance() public view returns (uint256) {\r\n        return IBEP20(_mekaAddress).balanceOf(address(this));\r\n    }\r\n\r\n    function createRobotFromBundle(\r\n        address _owner,\r\n        uint8 packageType,\r\n        uint8 robotQuantity\r\n    ) external onlyBundle robotFactory whenNotPaused {\r\n        PackageType pkgType = PackageType(packageType);\r\n        uint8 gen = 0;\r\n        uint256[] memory allTokens = new uint256[](robotQuantity);\r\n\r\n        if (\r\n            pkgType == PackageType.Fourth ||\r\n            pkgType == PackageType.Fifth ||\r\n            pkgType == PackageType.Sixth\r\n        ) {\r\n            gen = 1;\r\n        }\r\n\r\n        for (uint256 index = 0; index < robotQuantity; index++) {\r\n            allTokens[index] = nextRobotTokenId;\r\n            _mintRobot(_owner, nextRobotTokenId);\r\n            nextRobotTokenId++;\r\n        }\r\n\r\n        emit MintedRobotFromBundle(\r\n            _owner,\r\n            allTokens,\r\n            packageType,\r\n            gen,\r\n            block.timestamp\r\n        );\r\n    }\r\n\r\n    function transferFrom(\r\n        address from,\r\n        address to,\r\n        uint256 tokenId\r\n    ) public override whenNotPaused {\r\n        if (isContract(to) && !acceptContracts) {\r\n            require(to == _marketplaceAddr, \"contract not accepted\");\r\n        }\r\n        require(!banBlackList[from], \"address blacklisted\");\r\n        require(!banBlackList[to], \"address blacklisted\");\r\n\r\n        super.transferFrom(from, to, tokenId);\r\n    }\r\n\r\n    /**\r\n     * @dev Identify an address is user address or contract address\r\n     */\r\n    function isContract(address _address) private view returns (bool) {\r\n        uint32 size;\r\n        assembly {\r\n            size := extcodesize(_address)\r\n        }\r\n        return (size > 0);\r\n    }\r\n}\r\n",
  "sourcePath": "E:\\MekaMiners\\contracts\\RobotCore.sol",
  "compiler": {
    "name": "solc",
    "version": "0.8.11+commit.d7f03943.Emscripten.clang"
  },
  "schemaVersion": "3.4.3",
  "updatedAt": "2022-01-03T15:19:30.997Z",
  "networkType": "ethereum",
  "devdoc": {
    "kind": "dev",
    "methods": {
      "_pause()": {
        "details": "called by the owner to pause, triggers stopped state"
      },
      "_unpause()": {
        "details": "called by the owner to unpause, returns to normal state"
      },
      "approve(address,uint256)": {
        "details": "See {IERC721-approve}."
      },
      "balanceOf(address)": {
        "details": "See {IERC721-balanceOf}."
      },
      "baseURI()": {
        "details": "Returns the base URI set via {_setBaseURI}. This will be automatically added as a prefix in {tokenURI} to each token's URI, or to the token ID if no specific URI is set for that token ID."
      },
      "getApproved(uint256)": {
        "details": "See {IERC721-getApproved}."
      },
      "getRobot(uint256)": {
        "params": {
          "_id": "The ID of the Robot of interest."
        }
      },
      "isApprovedForAll(address,address)": {
        "details": "See {IERC721-isApprovedForAll}."
      },
      "isOwner()": {
        "details": "Returns true if the caller is the current owner."
      },
      "name()": {
        "details": "See {IERC721Metadata-name}."
      },
      "owner()": {
        "details": "Returns the address of the current owner."
      },
      "ownerOf(uint256)": {
        "details": "See {IERC721-ownerOf}."
      },
      "renounceOwnership()": {
        "details": "Leaves the contract without owner. It will not be possible to call `onlyOwner` functions anymore. Can only be called by the current owner. NOTE: Renouncing ownership will leave the contract without an owner, thereby removing any functionality that is only available to the owner."
      },
      "safeTransferFrom(address,address,uint256)": {
        "details": "See {IERC721-safeTransferFrom}."
      },
      "safeTransferFrom(address,address,uint256,bytes)": {
        "details": "See {IERC721-safeTransferFrom}."
      },
      "setApprovalForAll(address,bool)": {
        "details": "See {IERC721-setApprovalForAll}."
      },
      "supportsInterface(bytes4)": {
        "details": "See {IERC165-supportsInterface}. Time complexity O(1), guaranteed to always use less than 30 000 gas."
      },
      "symbol()": {
        "details": "See {IERC721Metadata-symbol}."
      },
      "tokenByIndex(uint256)": {
        "details": "See {IERC721Enumerable-tokenByIndex}."
      },
      "tokenOfOwner(address)": {
        "details": "See {IERC721Enumerable-tokenOfOwner}."
      },
      "tokenOfOwnerByIndex(address,uint256)": {
        "details": "See {IERC721Enumerable-tokenOfOwnerByIndex}."
      },
      "tokenURI(uint256)": {
        "details": "See {IERC721Metadata-tokenURI}."
      },
      "totalSupply()": {
        "details": "See {IERC721Enumerable-totalSupply}."
      },
      "transferFrom(address,address,uint256)": {
        "details": "See {IERC721-transferFrom}."
      },
      "transferOwnership(address)": {
        "details": "Transfers ownership of the contract to a new account (`newOwner`). Can only be called by the current owner."
      }
    },
    "stateVariables": {
      "robots": {
        "details": "An array containing the Robot struct for all robots in existence. The ID  of each Robot is actually an index into this array."
      }
    },
    "version": 1
  },
  "userdoc": {
    "kind": "user",
    "methods": {
      "getRobot(uint256)": {
        "notice": "Returns all the relevant information about a specific Robot."
      }
    },
    "version": 1
  }
}