{
  "contractName": "RobotPackage",
  "abi": [
    {
      "inputs": [
        {
          "internalType": "address",
          "name": "mekaAddress",
          "type": "address"
        },
        {
          "internalType": "address",
          "name": "robotCoreAddress",
          "type": "address"
        }
      ],
      "stateMutability": "nonpayable",
      "type": "constructor"
    },
    {
      "anonymous": false,
      "inputs": [
        {
          "indexed": true,
          "internalType": "address",
          "name": "owner",
          "type": "address"
        },
        {
          "indexed": true,
          "internalType": "address",
          "name": "approved",
          "type": "address"
        },
        {
          "indexed": true,
          "internalType": "uint256",
          "name": "tokenId",
          "type": "uint256"
        }
      ],
      "name": "Approval",
      "type": "event"
    },
    {
      "anonymous": false,
      "inputs": [
        {
          "indexed": true,
          "internalType": "address",
          "name": "owner",
          "type": "address"
        },
        {
          "indexed": true,
          "internalType": "address",
          "name": "operator",
          "type": "address"
        },
        {
          "indexed": false,
          "internalType": "bool",
          "name": "approved",
          "type": "bool"
        }
      ],
      "name": "ApprovalForAll",
      "type": "event"
    },
    {
      "anonymous": false,
      "inputs": [
        {
          "indexed": false,
          "internalType": "address",
          "name": "owner",
          "type": "address"
        },
        {
          "indexed": false,
          "internalType": "uint256",
          "name": "tokenId",
          "type": "uint256"
        },
        {
          "indexed": false,
          "internalType": "uint256",
          "name": "date",
          "type": "uint256"
        }
      ],
      "name": "Birth",
      "type": "event"
    },
    {
      "anonymous": false,
      "inputs": [
        {
          "indexed": true,
          "internalType": "address",
          "name": "previousOwner",
          "type": "address"
        },
        {
          "indexed": true,
          "internalType": "address",
          "name": "newOwner",
          "type": "address"
        }
      ],
      "name": "OwnershipTransferred",
      "type": "event"
    },
    {
      "anonymous": false,
      "inputs": [
        {
          "indexed": false,
          "internalType": "address",
          "name": "to",
          "type": "address"
        },
        {
          "indexed": false,
          "internalType": "uint256",
          "name": "packId",
          "type": "uint256"
        },
        {
          "indexed": false,
          "internalType": "uint8",
          "name": "packageType",
          "type": "uint8"
        },
        {
          "indexed": false,
          "internalType": "uint256",
          "name": "date",
          "type": "uint256"
        }
      ],
      "name": "PackageCreated",
      "type": "event"
    },
    {
      "anonymous": false,
      "inputs": [],
      "name": "Pause",
      "type": "event"
    },
    {
      "anonymous": false,
      "inputs": [
        {
          "indexed": true,
          "internalType": "address",
          "name": "from",
          "type": "address"
        },
        {
          "indexed": true,
          "internalType": "address",
          "name": "to",
          "type": "address"
        },
        {
          "indexed": true,
          "internalType": "uint256",
          "name": "tokenId",
          "type": "uint256"
        }
      ],
      "name": "Transfer",
      "type": "event"
    },
    {
      "anonymous": false,
      "inputs": [
        {
          "indexed": false,
          "internalType": "address",
          "name": "from",
          "type": "address"
        },
        {
          "indexed": false,
          "internalType": "uint256",
          "name": "packId",
          "type": "uint256"
        },
        {
          "indexed": false,
          "internalType": "uint8",
          "name": "packageType",
          "type": "uint8"
        },
        {
          "indexed": false,
          "internalType": "uint256",
          "name": "date",
          "type": "uint256"
        }
      ],
      "name": "Unpacked",
      "type": "event"
    },
    {
      "anonymous": false,
      "inputs": [],
      "name": "Unpause",
      "type": "event"
    },
    {
      "inputs": [],
      "name": "_adminAddress",
      "outputs": [
        {
          "internalType": "address",
          "name": "",
          "type": "address"
        }
      ],
      "stateMutability": "view",
      "type": "function",
      "constant": true
    },
    {
      "inputs": [],
      "name": "_mekaAddress",
      "outputs": [
        {
          "internalType": "address",
          "name": "",
          "type": "address"
        }
      ],
      "stateMutability": "view",
      "type": "function",
      "constant": true
    },
    {
      "inputs": [],
      "name": "_pause",
      "outputs": [
        {
          "internalType": "bool",
          "name": "",
          "type": "bool"
        }
      ],
      "stateMutability": "nonpayable",
      "type": "function"
    },
    {
      "inputs": [],
      "name": "_robotCoreAddress",
      "outputs": [
        {
          "internalType": "address",
          "name": "",
          "type": "address"
        }
      ],
      "stateMutability": "view",
      "type": "function",
      "constant": true
    },
    {
      "inputs": [],
      "name": "_unpause",
      "outputs": [
        {
          "internalType": "bool",
          "name": "",
          "type": "bool"
        }
      ],
      "stateMutability": "nonpayable",
      "type": "function"
    },
    {
      "inputs": [
        {
          "internalType": "address",
          "name": "to",
          "type": "address"
        },
        {
          "internalType": "uint256",
          "name": "tokenId",
          "type": "uint256"
        }
      ],
      "name": "approve",
      "outputs": [],
      "stateMutability": "nonpayable",
      "type": "function"
    },
    {
      "inputs": [
        {
          "internalType": "address",
          "name": "owner",
          "type": "address"
        }
      ],
      "name": "balanceOf",
      "outputs": [
        {
          "internalType": "uint256",
          "name": "",
          "type": "uint256"
        }
      ],
      "stateMutability": "view",
      "type": "function",
      "constant": true
    },
    {
      "inputs": [],
      "name": "baseURI",
      "outputs": [
        {
          "internalType": "string",
          "name": "",
          "type": "string"
        }
      ],
      "stateMutability": "view",
      "type": "function",
      "constant": true
    },
    {
      "inputs": [],
      "name": "canUnpack",
      "outputs": [
        {
          "internalType": "bool",
          "name": "",
          "type": "bool"
        }
      ],
      "stateMutability": "view",
      "type": "function",
      "constant": true
    },
    {
      "inputs": [
        {
          "internalType": "uint256",
          "name": "tokenId",
          "type": "uint256"
        }
      ],
      "name": "getApproved",
      "outputs": [
        {
          "internalType": "address",
          "name": "",
          "type": "address"
        }
      ],
      "stateMutability": "view",
      "type": "function",
      "constant": true
    },
    {
      "inputs": [
        {
          "internalType": "address",
          "name": "owner",
          "type": "address"
        },
        {
          "internalType": "address",
          "name": "operator",
          "type": "address"
        }
      ],
      "name": "isApprovedForAll",
      "outputs": [
        {
          "internalType": "bool",
          "name": "",
          "type": "bool"
        }
      ],
      "stateMutability": "view",
      "type": "function",
      "constant": true
    },
    {
      "inputs": [],
      "name": "isOwner",
      "outputs": [
        {
          "internalType": "bool",
          "name": "",
          "type": "bool"
        }
      ],
      "stateMutability": "view",
      "type": "function",
      "constant": true
    },
    {
      "inputs": [],
      "name": "isPackageAvailable",
      "outputs": [
        {
          "internalType": "bool",
          "name": "",
          "type": "bool"
        }
      ],
      "stateMutability": "view",
      "type": "function",
      "constant": true
    },
    {
      "inputs": [],
      "name": "name",
      "outputs": [
        {
          "internalType": "string",
          "name": "",
          "type": "string"
        }
      ],
      "stateMutability": "view",
      "type": "function",
      "constant": true
    },
    {
      "inputs": [],
      "name": "owner",
      "outputs": [
        {
          "internalType": "address",
          "name": "",
          "type": "address"
        }
      ],
      "stateMutability": "view",
      "type": "function",
      "constant": true
    },
    {
      "inputs": [
        {
          "internalType": "uint256",
          "name": "tokenId",
          "type": "uint256"
        }
      ],
      "name": "ownerOf",
      "outputs": [
        {
          "internalType": "address",
          "name": "",
          "type": "address"
        }
      ],
      "stateMutability": "view",
      "type": "function",
      "constant": true
    },
    {
      "inputs": [],
      "name": "paused",
      "outputs": [
        {
          "internalType": "bool",
          "name": "",
          "type": "bool"
        }
      ],
      "stateMutability": "view",
      "type": "function",
      "constant": true
    },
    {
      "inputs": [],
      "name": "renounceOwnership",
      "outputs": [],
      "stateMutability": "nonpayable",
      "type": "function"
    },
    {
      "inputs": [
        {
          "internalType": "address",
          "name": "from",
          "type": "address"
        },
        {
          "internalType": "address",
          "name": "to",
          "type": "address"
        },
        {
          "internalType": "uint256",
          "name": "tokenId",
          "type": "uint256"
        }
      ],
      "name": "safeTransferFrom",
      "outputs": [],
      "stateMutability": "nonpayable",
      "type": "function"
    },
    {
      "inputs": [
        {
          "internalType": "address",
          "name": "from",
          "type": "address"
        },
        {
          "internalType": "address",
          "name": "to",
          "type": "address"
        },
        {
          "internalType": "uint256",
          "name": "tokenId",
          "type": "uint256"
        },
        {
          "internalType": "bytes",
          "name": "_data",
          "type": "bytes"
        }
      ],
      "name": "safeTransferFrom",
      "outputs": [],
      "stateMutability": "nonpayable",
      "type": "function"
    },
    {
      "inputs": [
        {
          "internalType": "address",
          "name": "operator",
          "type": "address"
        },
        {
          "internalType": "bool",
          "name": "approved",
          "type": "bool"
        }
      ],
      "name": "setApprovalForAll",
      "outputs": [],
      "stateMutability": "nonpayable",
      "type": "function"
    },
    {
      "inputs": [
        {
          "internalType": "bytes4",
          "name": "interfaceId",
          "type": "bytes4"
        }
      ],
      "name": "supportsInterface",
      "outputs": [
        {
          "internalType": "bool",
          "name": "",
          "type": "bool"
        }
      ],
      "stateMutability": "view",
      "type": "function",
      "constant": true
    },
    {
      "inputs": [],
      "name": "symbol",
      "outputs": [
        {
          "internalType": "string",
          "name": "",
          "type": "string"
        }
      ],
      "stateMutability": "view",
      "type": "function",
      "constant": true
    },
    {
      "inputs": [
        {
          "internalType": "uint256",
          "name": "index",
          "type": "uint256"
        }
      ],
      "name": "tokenByIndex",
      "outputs": [
        {
          "internalType": "uint256",
          "name": "",
          "type": "uint256"
        }
      ],
      "stateMutability": "view",
      "type": "function",
      "constant": true
    },
    {
      "inputs": [
        {
          "internalType": "address",
          "name": "owner",
          "type": "address"
        }
      ],
      "name": "tokenOfOwner",
      "outputs": [
        {
          "internalType": "uint256[]",
          "name": "",
          "type": "uint256[]"
        }
      ],
      "stateMutability": "view",
      "type": "function",
      "constant": true
    },
    {
      "inputs": [
        {
          "internalType": "address",
          "name": "owner",
          "type": "address"
        },
        {
          "internalType": "uint256",
          "name": "index",
          "type": "uint256"
        }
      ],
      "name": "tokenOfOwnerByIndex",
      "outputs": [
        {
          "internalType": "uint256",
          "name": "",
          "type": "uint256"
        }
      ],
      "stateMutability": "view",
      "type": "function",
      "constant": true
    },
    {
      "inputs": [
        {
          "internalType": "uint256",
          "name": "tokenId",
          "type": "uint256"
        }
      ],
      "name": "tokenURI",
      "outputs": [
        {
          "internalType": "string",
          "name": "",
          "type": "string"
        }
      ],
      "stateMutability": "view",
      "type": "function",
      "constant": true
    },
    {
      "inputs": [],
      "name": "totalSupply",
      "outputs": [
        {
          "internalType": "uint256",
          "name": "",
          "type": "uint256"
        }
      ],
      "stateMutability": "view",
      "type": "function",
      "constant": true
    },
    {
      "inputs": [
        {
          "internalType": "address",
          "name": "from",
          "type": "address"
        },
        {
          "internalType": "address",
          "name": "to",
          "type": "address"
        },
        {
          "internalType": "uint256",
          "name": "tokenId",
          "type": "uint256"
        }
      ],
      "name": "transferFrom",
      "outputs": [],
      "stateMutability": "nonpayable",
      "type": "function"
    },
    {
      "inputs": [
        {
          "internalType": "address",
          "name": "newOwner",
          "type": "address"
        }
      ],
      "name": "transferOwnership",
      "outputs": [],
      "stateMutability": "nonpayable",
      "type": "function"
    },
    {
      "inputs": [
        {
          "internalType": "address",
          "name": "adminAddress",
          "type": "address"
        }
      ],
      "name": "setAdminAddress",
      "outputs": [],
      "stateMutability": "nonpayable",
      "type": "function"
    },
    {
      "inputs": [
        {
          "internalType": "address",
          "name": "robotAddress",
          "type": "address"
        }
      ],
      "name": "setRobotAddress",
      "outputs": [],
      "stateMutability": "nonpayable",
      "type": "function"
    },
    {
      "inputs": [
        {
          "internalType": "uint32",
          "name": "quantity",
          "type": "uint32"
        }
      ],
      "name": "setFirstPackageLimit",
      "outputs": [],
      "stateMutability": "nonpayable",
      "type": "function"
    },
    {
      "inputs": [
        {
          "internalType": "uint32",
          "name": "quantity",
          "type": "uint32"
        }
      ],
      "name": "setSecondPackageLimit",
      "outputs": [],
      "stateMutability": "nonpayable",
      "type": "function"
    },
    {
      "inputs": [
        {
          "internalType": "uint32",
          "name": "quantity",
          "type": "uint32"
        }
      ],
      "name": "setThirdPackageLimit",
      "outputs": [],
      "stateMutability": "nonpayable",
      "type": "function"
    },
    {
      "inputs": [
        {
          "internalType": "uint8",
          "name": "quantity",
          "type": "uint8"
        }
      ],
      "name": "setTotalPackagesOwner",
      "outputs": [],
      "stateMutability": "nonpayable",
      "type": "function"
    },
    {
      "inputs": [
        {
          "internalType": "enum RobotPackage.PackageType",
          "name": "_packageType",
          "type": "uint8"
        },
        {
          "internalType": "uint256",
          "name": "amount",
          "type": "uint256"
        }
      ],
      "name": "setPackageTypePrice",
      "outputs": [],
      "stateMutability": "nonpayable",
      "type": "function"
    },
    {
      "inputs": [
        {
          "internalType": "enum RobotPackage.PackageType",
          "name": "_packageType",
          "type": "uint8"
        },
        {
          "internalType": "uint8",
          "name": "quantity",
          "type": "uint8"
        }
      ],
      "name": "setPackageTypeRobots",
      "outputs": [],
      "stateMutability": "nonpayable",
      "type": "function"
    },
    {
      "inputs": [],
      "name": "updateCanUnpack",
      "outputs": [],
      "stateMutability": "nonpayable",
      "type": "function"
    },
    {
      "inputs": [],
      "name": "updatePackageAvailable",
      "outputs": [],
      "stateMutability": "nonpayable",
      "type": "function"
    },
    {
      "inputs": [],
      "name": "withdrawBalance",
      "outputs": [],
      "stateMutability": "nonpayable",
      "type": "function"
    },
    {
      "inputs": [],
      "name": "withdrawBnb",
      "outputs": [],
      "stateMutability": "nonpayable",
      "type": "function"
    },
    {
      "inputs": [],
      "name": "getBalance",
      "outputs": [
        {
          "internalType": "uint256",
          "name": "",
          "type": "uint256"
        }
      ],
      "stateMutability": "view",
      "type": "function",
      "constant": true
    },
    {
      "inputs": [],
      "name": "getBnbBalance",
      "outputs": [
        {
          "internalType": "uint256",
          "name": "",
          "type": "uint256"
        }
      ],
      "stateMutability": "view",
      "type": "function",
      "constant": true
    },
    {
      "inputs": [],
      "name": "pause",
      "outputs": [],
      "stateMutability": "nonpayable",
      "type": "function"
    },
    {
      "inputs": [],
      "name": "unpause",
      "outputs": [],
      "stateMutability": "nonpayable",
      "type": "function"
    },
    {
      "inputs": [
        {
          "internalType": "uint256",
          "name": "_id",
          "type": "uint256"
        }
      ],
      "name": "getPackage",
      "outputs": [
        {
          "components": [
            {
              "internalType": "uint256",
              "name": "packageId",
              "type": "uint256"
            },
            {
              "internalType": "uint8",
              "name": "quantity",
              "type": "uint8"
            },
            {
              "internalType": "enum RobotPackage.PackageType",
              "name": "packageType",
              "type": "uint8"
            },
            {
              "internalType": "uint64",
              "name": "birthTime",
              "type": "uint64"
            }
          ],
          "internalType": "struct RobotPackage.Package",
          "name": "package",
          "type": "tuple"
        }
      ],
      "stateMutability": "view",
      "type": "function",
      "constant": true
    },
    {
      "inputs": [
        {
          "internalType": "address",
          "name": "_owner",
          "type": "address"
        },
        {
          "internalType": "uint256",
          "name": "_amount",
          "type": "uint256"
        },
        {
          "internalType": "enum RobotPackage.PackageType",
          "name": "_packageType",
          "type": "uint8"
        }
      ],
      "name": "createPackage1",
      "outputs": [],
      "stateMutability": "payable",
      "type": "function",
      "payable": true
    },
    {
      "inputs": [
        {
          "internalType": "address",
          "name": "_owner",
          "type": "address"
        },
        {
          "internalType": "uint256",
          "name": "_amount",
          "type": "uint256"
        },
        {
          "internalType": "enum RobotPackage.PackageType",
          "name": "_packageType",
          "type": "uint8"
        }
      ],
      "name": "createPackage2",
      "outputs": [],
      "stateMutability": "payable",
      "type": "function",
      "payable": true
    },
    {
      "inputs": [
        {
          "internalType": "address",
          "name": "_owner",
          "type": "address"
        },
        {
          "internalType": "uint256",
          "name": "_amount",
          "type": "uint256"
        },
        {
          "internalType": "enum RobotPackage.PackageType",
          "name": "_packageType",
          "type": "uint8"
        }
      ],
      "name": "createPackage3",
      "outputs": [],
      "stateMutability": "payable",
      "type": "function",
      "payable": true
    },
    {
      "inputs": [
        {
          "internalType": "address",
          "name": "_owner",
          "type": "address"
        },
        {
          "internalType": "enum RobotPackage.PackageType",
          "name": "_packageType",
          "type": "uint8"
        }
      ],
      "name": "createPackageExtra",
      "outputs": [],
      "stateMutability": "nonpayable",
      "type": "function"
    },
    {
      "inputs": [
        {
          "internalType": "address",
          "name": "_to",
          "type": "address"
        },
        {
          "internalType": "uint256",
          "name": "_amount",
          "type": "uint256"
        },
        {
          "internalType": "uint256",
          "name": "_tokenId",
          "type": "uint256"
        }
      ],
      "name": "openPackage",
      "outputs": [],
      "stateMutability": "nonpayable",
      "type": "function"
    },
    {
      "inputs": [],
      "name": "getPackagesCount",
      "outputs": [
        {
          "internalType": "uint32",
          "name": "_firstPackageCount",
          "type": "uint32"
        },
        {
          "internalType": "uint32",
          "name": "_secondPackageCount",
          "type": "uint32"
        },
        {
          "internalType": "uint32",
          "name": "_thirdPackageCount",
          "type": "uint32"
        }
      ],
      "stateMutability": "view",
      "type": "function",
      "constant": true
    }
  ],
  "bytecode": "0x6080604052600b805460ff60a01b191690556001600e556702c68af0bb1400006012556706f05b59d3b20000601355670c7d713b49da0000601455674563918244f40000601555600260165560178054600160601b600160c01b0319167432000000780000012c0000000000000000000000001790553480156200008257600080fd5b506040516200400638038062004006833981016040819052620000a591620004f8565b604080518082018252600f81526e4d656b61626f74205061636b61676560881b6020808301919091528251808401909352600a8352694d656b61626f74506b6760b01b9083015290620000ff6301ffc9a760e01b6200027f565b81516200011490600790602085019062000435565b5080516200012a90600890602084019062000435565b506200013d6380ac58cd60e01b6200027f565b6200014f635b5e139f60e01b6200027f565b6200016163780e9d6360e01b6200027f565b5050600b80546001600160a01b0319163390811790915560405181906000907f8be0079c531659141344cd1fd0a4f28419497f9722a3daafe3b4186f6b6457e0908290a3506001600c55601980546001600160a01b038381166001600160a01b031992831617909255601880548584169216919091179055600b5416601a805460ff60a81b196001600160a81b03199091166001600160a01b039390931692909217600160a01b1791909116600160a81b179055601254620002269060019062000304565b6200023b60026013546200030460201b60201c565b6200025060036014546200030460201b60201c565b6200025d60018062000392565b6200026a60028062000392565b6200027760038062000392565b505062000583565b6001600160e01b03198082161415620002df5760405162461bcd60e51b815260206004820152601c60248201527f4552433136353a20696e76616c696420696e746572666163652069640000000060448201526064015b60405180910390fd5b6001600160e01b0319166000908152602081905260409020805460ff19166001179055565b600b546001600160a01b031633146200034f5760405162461bcd60e51b8152602060048201819052602482015260008051602062003fe68339815191526044820152606401620002d6565b806011600084600381111562000369576200036962000530565b60038111156200037d576200037d62000530565b81526020810191909152604001600020555050565b600b546001600160a01b03163314620003dd5760405162461bcd60e51b8152602060048201819052602482015260008051602062003fe68339815191526044820152606401620002d6565b8060106000846003811115620003f757620003f762000530565b60038111156200040b576200040b62000530565b815260200190815260200160002060006101000a81548160ff021916908360ff1602179055505050565b828054620004439062000546565b90600052602060002090601f016020900481019282620004675760008555620004b2565b82601f106200048257805160ff1916838001178555620004b2565b82800160010185558215620004b2579182015b82811115620004b257825182559160200191906001019062000495565b50620004c0929150620004c4565b5090565b5b80821115620004c05760008155600101620004c5565b80516001600160a01b0381168114620004f357600080fd5b919050565b600080604083850312156200050c57600080fd5b6200051783620004db565b91506200052760208401620004db565b90509250929050565b634e487b7160e01b600052602160045260246000fd5b600181811c908216806200055b57607f821691505b602082108114156200057d57634e487b7160e01b600052602260045260246000fd5b50919050565b613a5380620005936000396000f3fe60806040526004361061031a5760003560e01c80635c975abb116101ab57806395d89b41116100f7578063c87b56dd11610095578063e985e9c51161006f578063e985e9c51461091f578063f2fde38b14610968578063f9cdfbcc14610988578063fc8234cb146109a857600080fd5b8063c87b56dd1461089a578063d41f90b0146108ba578063d525f504146108fe57600080fd5b8063b88d4fde116100d1578063b88d4fde14610818578063b99dfe1814610838578063befc6cc314610865578063c201ca8a1461088557600080fd5b806395d89b41146107c3578063a22cb465146107d8578063ac511c3e146107f857600080fd5b806370a08231116101645780637a9058ba1161013e5780637a9058ba1461075d5780638456cb59146107705780638da5cb5b146107855780638f32d59b146107a357600080fd5b806370a0823114610708578063715018a61461072857806379f63c1b1461073d57600080fd5b80635c975abb1461066a5780635d10a7e21461068b5780635fd8c7101461069e5780636352211e146106b35780636c0360eb146106d35780636e11a9bc146106e857600080fd5b80632c1e816d1161026a57806347049c8411610223578063570c8e3b116101fd578063570c8e3b146105f457806358dec420146106095780635c1cb691146106295780635c86ea7c1461064957600080fd5b806347049c84146105945780634986a917146105b45780634f6ccce7146105d457600080fd5b80632c1e816d146104f75780632f745c5914610517578063320b2ad91461053757806333f5bf311461054c5780633f4ba83a1461055f57806342842e0e1461057457600080fd5b8063136f25d9116102d75780631da0603a116102b15780631da0603a1461047557806323b872dd1461048a578063294cdf0d146104aa5780632b91515d146104d757600080fd5b8063136f25d91461042d57806314b3607e1461044d57806318160ddd1461046057600080fd5b806301ffc9a71461031f578063045090631461036e57806306fdde0314610390578063081812fc146103b2578063095ea7b3146103ea57806312065fe01461040a575b600080fd5b34801561032b57600080fd5b5061035961033a366004612fde565b6001600160e01b03191660009081526020819052604090205460ff1690565b60405190151581526020015b60405180910390f35b34801561037a57600080fd5b5061038e610389366004613017565b6109bd565b005b34801561039c57600080fd5b506103a5610a12565b604051610365919061308a565b3480156103be57600080fd5b506103d26103cd36600461309d565b610aa4565b6040516001600160a01b039091168152602001610365565b3480156103f657600080fd5b5061038e6104053660046130b6565b610b2c565b34801561041657600080fd5b5061041f610c42565b604051908152602001610365565b34801561043957600080fd5b5061038e6104483660046130ef565b610cb4565b61038e61045b366004613122565b610d5c565b34801561046c57600080fd5b5061041f610fba565b34801561048157600080fd5b5061038e610fc6565b34801561049657600080fd5b5061038e6104a536600461315e565b6110a0565b3480156104b657600080fd5b506104ca6104c5366004613017565b6110d1565b604051610365919061319a565b3480156104e357600080fd5b5061038e6104f23660046131ef565b6111bd565b34801561050357600080fd5b5061038e610512366004613017565b6111ef565b34801561052357600080fd5b5061041f6105323660046130b6565b61123b565b34801561054357600080fd5b50610359611266565b34801561055857600080fd5b504761041f565b34801561056b57600080fd5b5061038e6112ec565b34801561058057600080fd5b5061038e61058f36600461315e565b611337565b3480156105a057600080fd5b506018546103d2906001600160a01b031681565b3480156105c057600080fd5b5061038e6105cf36600461320a565b611352565b3480156105e057600080fd5b5061041f6105ef36600461309d565b6113a2565b34801561060057600080fd5b5061038e6113b8565b34801561061557600080fd5b5061038e610624366004613230565b611403565b34801561063557600080fd5b50601a546103d2906001600160a01b031681565b34801561065557600080fd5b50601a5461035990600160a81b900460ff1681565b34801561067657600080fd5b50600b5461035990600160a01b900460ff1681565b61038e610699366004613122565b611763565b3480156106aa57600080fd5b5061038e6118b3565b3480156106bf57600080fd5b506103d26106ce36600461309d565b611977565b3480156106df57600080fd5b506103a561199f565b3480156106f457600080fd5b5061038e610703366004613263565b6119ae565b34801561071457600080fd5b5061041f610723366004613017565b611a2a565b34801561073457600080fd5b5061038e611ab6565b34801561074957600080fd5b5061038e61075836600461320a565b611b2a565b61038e61076b366004613122565b611b7a565b34801561077c57600080fd5b5061038e611d3f565b34801561079157600080fd5b50600b546001600160a01b03166103d2565b3480156107af57600080fd5b50600b546001600160a01b03163314610359565b3480156107cf57600080fd5b506103a5611d88565b3480156107e457600080fd5b5061038e6107f336600461329b565b611d97565b34801561080457600080fd5b5061038e6108133660046132d2565b611e5c565b34801561082457600080fd5b5061038e610833366004613304565b611ec3565b34801561084457600080fd5b5061085861085336600461309d565b611efb565b60405161036591906133f6565b34801561087157600080fd5b5061038e61088036600461320a565b611fc3565b34801561089157600080fd5b5061038e612013565b3480156108a657600080fd5b506103a56108b536600461309d565b61205e565b3480156108c657600080fd5b506017546040805163ffffffff8084168252640100000000840481166020830152600160401b90930490921690820152606001610365565b34801561090a57600080fd5b50601a5461035990600160a01b900460ff1681565b34801561092b57600080fd5b5061035961093a366004613450565b6001600160a01b03918216600090815260066020908152604080832093909416825291909152205460ff1690565b34801561097457600080fd5b5061038e610983366004613017565b6121cf565b34801561099457600080fd5b506019546103d2906001600160a01b031681565b3480156109b457600080fd5b50610359612202565b600b546001600160a01b031633146109f05760405162461bcd60e51b81526004016109e79061347a565b60405180910390fd5b601980546001600160a01b0319166001600160a01b0392909216919091179055565b606060078054610a21906134af565b80601f0160208091040260200160405190810160405280929190818152602001828054610a4d906134af565b8015610a9a5780601f10610a6f57610100808354040283529160200191610a9a565b820191906000526020600020905b815481529060010190602001808311610a7d57829003601f168201915b5050505050905090565b6000610aaf82612281565b610b105760405162461bcd60e51b815260206004820152602c60248201527f4552433732313a20617070726f76656420717565727920666f72206e6f6e657860448201526b34b9ba32b73a103a37b5b2b760a11b60648201526084016109e7565b506000908152600560205260409020546001600160a01b031690565b6000610b3782611977565b9050806001600160a01b0316836001600160a01b03161415610ba55760405162461bcd60e51b815260206004820152602160248201527f4552433732313a20617070726f76616c20746f2063757272656e74206f776e656044820152603960f91b60648201526084016109e7565b336001600160a01b0382161480610bc15750610bc1813361093a565b610c335760405162461bcd60e51b815260206004820152603860248201527f4552433732313a20617070726f76652063616c6c6572206973206e6f74206f7760448201527f6e6572206e6f7220617070726f76656420666f7220616c6c000000000000000060648201526084016109e7565b610c3d838361228e565b505050565b6018546040516370a0823160e01b81523060048201526000916001600160a01b0316906370a0823190602401602060405180830381865afa158015610c8b573d6000803e3d6000fd5b505050506040513d601f19601f82011682018060405250810190610caf91906134ea565b905090565b600b546001600160a01b03163314610cde5760405162461bcd60e51b81526004016109e79061347a565b6000816003811115610cf257610cf26133e0565b1415610d105760405162461bcd60e51b81526004016109e790613503565b6001600160a01b038216610d365760405162461bcd60e51b81526004016109e79061352c565b610d4382600e54836122fc565b600e8054906000610d5383613577565b91905055505050565b6002600c541415610d7f5760405162461bcd60e51b81526004016109e790613592565b6002600c55601a54600160a81b900460ff16610dad5760405162461bcd60e51b81526004016109e7906135c9565b600b54600160a01b900460ff1615610dc457600080fd5b6016546001600160a01b0384166000908152600f602052604090205460ff1610610e005760405162461bcd60e51b81526004016109e7906135f6565b6000816003811115610e1457610e146133e0565b1415610e325760405162461bcd60e51b81526004016109e790613503565b6001600160a01b038316610e585760405162461bcd60e51b81526004016109e79061352c565b60116000826003811115610e6e57610e6e6133e0565b6003811115610e7f57610e7f6133e0565b8152602001908152602001600020548214610eac5760405162461bcd60e51b81526004016109e790613624565b348214610ecb5760405162461bcd60e51b81526004016109e79061364c565b60175463ffffffff600160a01b82048116600160401b9092041610610f025760405162461bcd60e51b81526004016109e79061368e565b60178054600160401b900463ffffffff16906008610f1f836136b0565b91906101000a81548163ffffffff021916908363ffffffff16021790555050610f4b83600e54836122fc565b6001600160a01b0383166000908152600f6020526040902054610f729060ff1660016136d4565b6001600160a01b0384166000908152600f60205260408120805460ff191660ff9390931692909217909155600e805491610fab83613577565b90915550506001600c55505050565b6000610caf60026124fc565b600b546001600160a01b03163314610ff05760405162461bcd60e51b81526004016109e79061347a565b476000611005600b546001600160a01b031690565b6001600160a01b03168260405160006040518083038185875af1925050503d806000811461104f576040519150601f19603f3d011682016040523d82523d6000602084013e611054565b606091505b505090508061109c5760405162461bcd60e51b81526020600482015260146024820152732330b4b632b2103a379039b2b7321022ba3432b960611b60448201526064016109e7565b5050565b6110aa3382612507565b6110c65760405162461bcd60e51b81526004016109e7906136f9565b610c3d8383836125f1565b6001600160a01b0381166000908152600160205260408120606091906110f69061276b565b67ffffffffffffffff81111561110e5761110e6132ee565b604051908082528060200260200182016040528015611137578160200160208202803683370190505b50905060005b6001600160a01b038416600090815260016020526040902061115e9061276b565b8110156111b6576001600160a01b03841660009081526001602052604090206111879082612775565b8282815181106111995761119961374a565b6020908102919091010152806111ae81613577565b91505061113d565b5092915050565b600b546001600160a01b031633146111e75760405162461bcd60e51b81526004016109e79061347a565b60ff16601655565b600b546001600160a01b031633146112195760405162461bcd60e51b81526004016109e79061347a565b601a80546001600160a01b0319166001600160a01b0392909216919091179055565b6001600160a01b038216600090815260016020526040812061125d9083612775565b90505b92915050565b600b546000906001600160a01b031633146112935760405162461bcd60e51b81526004016109e79061347a565b600b54600160a01b900460ff16156112aa57600080fd5b600b805460ff60a01b1916600160a01b1790556040517f6985a02210a168e66602d3235cb6db0e70f92b3ba4d376a33c0f3d9434bff62590600090a150600190565b600b54600160a01b900460ff1661130257600080fd5b600b546001600160a01b0316331461132c5760405162461bcd60e51b81526004016109e79061347a565b611334612202565b50565b610c3d83838360405180602001604052806000815250611ec3565b600b546001600160a01b0316331461137c5760405162461bcd60e51b81526004016109e79061347a565b6017805463ffffffff909216600160601b0263ffffffff60601b19909216919091179055565b6000806113b0600284612781565b509392505050565b600b546001600160a01b031633146113e25760405162461bcd60e51b81526004016109e79061347a565b601a805460ff60a81b198116600160a81b9182900460ff1615909102179055565b601a54600160a01b900460ff1661144b5760405162461bcd60e51b815260206004820152600c60248201526b31b0b7103737ba1037b832b760a11b60448201526064016109e7565b600b54600160a01b900460ff161561146257600080fd5b6015548210156114845760405162461bcd60e51b81526004016109e790613624565b6001600160a01b0383166114da5760405162461bcd60e51b815260206004820152601860248201527f6d696e7420746f20746865207a65726f2061646472657373000000000000000060448201526064016109e7565b336114e482611977565b6001600160a01b03161461152a5760405162461bcd60e51b815260206004820152600d60248201526c3737ba103a34329037bbb732b960991b60448201526064016109e7565b6018546040516323b872dd60e01b8152336004820152306024820152604481018490526001600160a01b03909116906323b872dd906064016020604051808303816000875af1158015611581573d6000803e3d6000fd5b505050506040513d601f19601f820116820180604052508101906115a59190613760565b6115ae57600080fd5b6000600d6115bd60018461377d565b815481106115cd576115cd61374a565b600091825260209182902060408051608081018252600290930290910180548352600181015460ff808216958501959095529293909291840191610100900416600381111561161e5761161e6133e0565b600381111561162f5761162f6133e0565b81526001919091015462010000900467ffffffffffffffff1660209091015260195460408201519192506001600160a01b031690637de166b1908690600381111561167c5761167c6133e0565b60208501516040516001600160e01b031960e086901b1681526001600160a01b03909316600484015260ff9182166024840152166044820152606401600060405180830381600087803b1580156116d257600080fd5b505af11580156116e6573d6000803e3d6000fd5b505050506116f38261279d565b7f0bf4c6d3c4b37474b167ca1251166f61a1ad24afe4d0bee7834b830938bee6b984838360400151600381111561172c5761172c6133e0565b604080516001600160a01b039094168452602084019290925260ff169082015242606082015260800160405180910390a150505050565b6002600c5414156117865760405162461bcd60e51b81526004016109e790613592565b6002600c55601a54600160a81b900460ff166117b45760405162461bcd60e51b81526004016109e7906135c9565b600b54600160a01b900460ff16156117cb57600080fd5b6016546001600160a01b0384166000908152600f602052604090205460ff16106118075760405162461bcd60e51b81526004016109e7906135f6565b6001600160a01b03831661182d5760405162461bcd60e51b81526004016109e79061352c565b601254821461184e5760405162461bcd60e51b81526004016109e790613624565b34821461186d5760405162461bcd60e51b81526004016109e79061364c565b60175463ffffffff600160601b8204811691161061189d5760405162461bcd60e51b81526004016109e79061368e565b6017805463ffffffff16906000610f1f836136b0565b600b546001600160a01b031633146118dd5760405162461bcd60e51b81526004016109e79061347a565b6018546001600160a01b031663a9059cbb611900600b546001600160a01b031690565b611908610c42565b6040516001600160e01b031960e085901b1681526001600160a01b03909216600483015260248201526044016020604051808303816000875af1158015611953573d6000803e3d6000fd5b505050506040513d601f19601f820116820180604052508101906113349190613760565b6000611260826040518060600160405280602981526020016139d5602991396002919061281a565b6060600a8054610a21906134af565b600b546001600160a01b031633146119d85760405162461bcd60e51b81526004016109e79061347a565b80601060008460038111156119ef576119ef6133e0565b6003811115611a0057611a006133e0565b815260200190815260200160002060006101000a81548160ff021916908360ff1602179055505050565b60006001600160a01b038216611a955760405162461bcd60e51b815260206004820152602a60248201527f4552433732313a2062616c616e636520717565727920666f7220746865207a65604482015269726f206164647265737360b01b60648201526084016109e7565b6001600160a01b03821660009081526001602052604090206112609061276b565b600b546001600160a01b03163314611ae05760405162461bcd60e51b81526004016109e79061347a565b600b546040516000916001600160a01b0316907f8be0079c531659141344cd1fd0a4f28419497f9722a3daafe3b4186f6b6457e0908390a3600b80546001600160a01b0319169055565b600b546001600160a01b03163314611b545760405162461bcd60e51b81526004016109e79061347a565b6017805463ffffffff909216600160801b0263ffffffff60801b19909216919091179055565b6002600c541415611b9d5760405162461bcd60e51b81526004016109e790613592565b6002600c55601a54600160a81b900460ff16611bcb5760405162461bcd60e51b81526004016109e7906135c9565b600b54600160a01b900460ff1615611be257600080fd5b6016546001600160a01b0384166000908152600f602052604090205460ff1610611c1e5760405162461bcd60e51b81526004016109e7906135f6565b6000816003811115611c3257611c326133e0565b1415611c505760405162461bcd60e51b81526004016109e790613503565b6001600160a01b038316611c765760405162461bcd60e51b81526004016109e79061352c565b60116000826003811115611c8c57611c8c6133e0565b6003811115611c9d57611c9d6133e0565b8152602001908152602001600020548214611cca5760405162461bcd60e51b81526004016109e790613624565b348214611ce95760405162461bcd60e51b81526004016109e79061364c565b60175463ffffffff600160801b820481166401000000009092041610611d215760405162461bcd60e51b81526004016109e79061368e565b60178054640100000000900463ffffffff16906004610f1f836136b0565b600b54600160a01b900460ff1615611d5657600080fd5b600b546001600160a01b03163314611d805760405162461bcd60e51b81526004016109e79061347a565b611334611266565b606060088054610a21906134af565b6001600160a01b038216331415611df05760405162461bcd60e51b815260206004820152601960248201527f4552433732313a20617070726f766520746f2063616c6c65720000000000000060448201526064016109e7565b3360008181526006602090815260408083206001600160a01b03871680855290835292819020805460ff191686151590811790915590519081529192917f17307eab39ab6107e8899845ad3d59bd9653f200f220920489ca2b5937696c31910160405180910390a35050565b600b546001600160a01b03163314611e865760405162461bcd60e51b81526004016109e79061347a565b8060116000846003811115611e9d57611e9d6133e0565b6003811115611eae57611eae6133e0565b81526020810191909152604001600020555050565b611ecd3383612507565b611ee95760405162461bcd60e51b81526004016109e7906136f9565b611ef584848484612831565b50505050565b604080516080810182526000808252602082018190529181018290526060810191909152600d611f2c60018461377d565b81548110611f3c57611f3c61374a565b600091825260209182902060408051608081018252600290930290910180548352600181015460ff8082169585019590955292939092918401916101009004166003811115611f8d57611f8d6133e0565b6003811115611f9e57611f9e6133e0565b81526001919091015462010000900467ffffffffffffffff1660209091015292915050565b600b546001600160a01b03163314611fed5760405162461bcd60e51b81526004016109e79061347a565b6017805463ffffffff909216600160a01b0263ffffffff60a01b19909216919091179055565b600b546001600160a01b0316331461203d5760405162461bcd60e51b81526004016109e79061347a565b601a805460ff60a01b198116600160a01b9182900460ff1615909102179055565b606061206982612281565b6120cd5760405162461bcd60e51b815260206004820152602f60248201527f4552433732314d657461646174613a2055524920717565727920666f72206e6f60448201526e3732bc34b9ba32b73a103a37b5b2b760891b60648201526084016109e7565b600082815260096020526040812080546120e6906134af565b80601f0160208091040260200160405190810160405280929190818152602001828054612112906134af565b801561215f5780601f106121345761010080835404028352916020019161215f565b820191906000526020600020905b81548152906001019060200180831161214257829003601f168201915b50505050509050600a8054612173906134af565b151590506121815792915050565b8051156121b357600a8160405160200161219c9291906137b0565b604051602081830303815290604052915050919050565b600a6121be84612864565b60405160200161219c9291906137b0565b600b546001600160a01b031633146121f95760405162461bcd60e51b81526004016109e79061347a565b6113348161297b565b600b546000906001600160a01b0316331461222f5760405162461bcd60e51b81526004016109e79061347a565b600b54600160a01b900460ff1661224557600080fd5b600b805460ff60a01b191690556040517f7805862f689e2f13df9f062ff482ad3ad112aca9e0847911ed832e158c525b3390600090a150600190565b6000611260600283612a3c565b600081815260056020526040902080546001600160a01b0319166001600160a01b03841690811790915581906122c382611977565b6001600160a01b03167f8c5be1e5ebec7d5bd14f71427d1e84f3dd0314c0f7b2291e5b200ac8c7c3b92560405160405180910390a45050565b6000604051806080016040528084815260200160106000856003811115612325576123256133e0565b6003811115612336576123366133e0565b81526020808201929092526040016000205460ff16825201836003811115612360576123606133e0565b81526020014267ffffffffffffffff16815250905061238f848460405180602001604052806000815250612a48565b600d805460018101825560009190915281517fd7b6990105719101dabeb77144f2a3385c8033acd3af97e9423a695e81ad1eb5600290920291820190815560208301517fd7b6990105719101dabeb77144f2a3385c8033acd3af97e9423a695e81ad1eb6909201805460ff19811660ff90941693841782556040850151859490929161ffff19161761010083600381111561242c5761242c6133e0565b021790555060608201518160010160026101000a81548167ffffffffffffffff021916908367ffffffffffffffff16021790555050507fb433297aca508fd04fd164f18aa58c77b7e2309d8c5659eea9d29b89f143e0c08482600001518360400151600381111561249f5761249f6133e0565b604080516001600160a01b039094168452602084019290925260ff169082015242606082015260800160405180910390a180516040516001600160a01b038616906000906000805160206139fe833981519152908290a450505050565b600061126082612a7b565b600061251282612281565b6125735760405162461bcd60e51b815260206004820152602c60248201527f4552433732313a206f70657261746f7220717565727920666f72206e6f6e657860448201526b34b9ba32b73a103a37b5b2b760a11b60648201526084016109e7565b600061257e83611977565b9050806001600160a01b0316846001600160a01b031614806125b95750836001600160a01b03166125ae84610aa4565b6001600160a01b0316145b806125e957506001600160a01b0380821660009081526006602090815260408083209388168352929052205460ff165b949350505050565b826001600160a01b031661260482611977565b6001600160a01b03161461266c5760405162461bcd60e51b815260206004820152602960248201527f4552433732313a207472616e73666572206f6620746f6b656e2074686174206960448201526839903737ba1037bbb760b91b60648201526084016109e7565b6001600160a01b0382166126ce5760405162461bcd60e51b8152602060048201526024808201527f4552433732313a207472616e7366657220746f20746865207a65726f206164646044820152637265737360e01b60648201526084016109e7565b6126d9838383612a86565b6126e460008261228e565b6001600160a01b03831660009081526001602052604090206127069082612a9d565b506001600160a01b03821660009081526001602052604090206127299082612aa9565b5061273660028284612ab5565b5080826001600160a01b0316846001600160a01b03166000805160206139fe83398151915260405160405180910390a4505050565b6000611260825490565b600061125d8383612acb565b60008080806127908686612af5565b9097909650945050505050565b60006127a882611977565b90506127b681600084612a86565b6127c160008361228e565b6001600160a01b03811660009081526001602052604090206127e39083612a9d565b506127ef600283612b20565b5060405182906000906001600160a01b038416906000805160206139fe833981519152908390a45050565b6000612827848484612b2c565b90505b9392505050565b61283c8484846125f1565b61284884848484612b6f565b611ef55760405162461bcd60e51b81526004016109e790613857565b6060816128885750506040805180820190915260018152600360fc1b602082015290565b8160005b81156128b2578061289c81613577565b91506128ab9050600a836138bf565b915061288c565b60008167ffffffffffffffff8111156128cd576128cd6132ee565b6040519080825280601f01601f1916602001820160405280156128f7576020820181803683370190505b509050600061290760018461377d565b90508593505b83156129725761291e600a856138d3565b6129299060306138e7565b60f81b8282612937816138ff565b9350815181106129495761294961374a565b60200101906001600160f81b031916908160001a90535061296b600a856138bf565b935061290d565b50949350505050565b6001600160a01b0381166129e05760405162461bcd60e51b815260206004820152602660248201527f4f776e61626c653a206e6577206f776e657220697320746865207a65726f206160448201526564647265737360d01b60648201526084016109e7565b600b546040516001600160a01b038084169216907f8be0079c531659141344cd1fd0a4f28419497f9722a3daafe3b4186f6b6457e090600090a3600b80546001600160a01b0319166001600160a01b0392909216919091179055565b600061125d8383612c40565b612a528383612c5f565b612a5f6000848484612b6f565b610c3d5760405162461bcd60e51b81526004016109e790613857565b60006112608261276b565b600b54600160a01b900460ff1615610c3d57600080fd5b600061125d8383612d41565b600061125d8383612e34565b600061282784846001600160a01b038516612e83565b6000826000018281548110612ae257612ae261374a565b9060005260206000200154905092915050565b60008080612b038585612775565b600081815260029690960160205260409095205494959350505050565b600061125d8383612ea0565b600082815260028401602052604081205480151580612b505750612b508585612c40565b83906129725760405162461bcd60e51b81526004016109e7919061308a565b60006001600160a01b0384163b612b88575060016125e9565b6000612c09630a85bd0160e11b33888787604051602401612bac9493929190613916565b604051602081830303815290604052906001600160e01b0319166020820180516001600160e01b0383818316178352505050506040518060600160405280603281526020016139a3603291396001600160a01b0388169190612ebd565b9050600081806020019051810190612c219190613953565b6001600160e01b031916630a85bd0160e11b1492505050949350505050565b600061125d83836000818152600183016020526040812054151561125d565b6001600160a01b038216612c855760405162461bcd60e51b81526004016109e79061352c565b612c8e81612281565b15612cdb5760405162461bcd60e51b815260206004820152601c60248201527f4552433732313a20746f6b656e20616c7265616479206d696e7465640000000060448201526064016109e7565b612ce760008383612a86565b6001600160a01b0382166000908152600160205260409020612d099082612aa9565b50612d1660028284612ab5565b5060405181906001600160a01b038416906000906000805160206139fe833981519152908290a45050565b60008181526001830160205260408120548015612e2a576000612d6560018361377d565b8554909150600090612d799060019061377d565b9050818114612dde576000866000018281548110612d9957612d9961374a565b9060005260206000200154905080876000018481548110612dbc57612dbc61374a565b6000918252602080832090910192909255918252600188019052604090208390555b8554869080612def57612def613970565b600190038181906000526020600020016000905590558560010160008681526020019081526020016000206000905560019350505050611260565b6000915050611260565b6000818152600183016020526040812054612e7b57508154600181810184556000848152602080822090930184905584548482528286019093526040902091909155611260565b506000611260565b600082815260028401602052604081208290556128278484612aa9565b6000818152600283016020526040812081905561125d8383612a9d565b6060612827848460008585843b612f165760405162461bcd60e51b815260206004820152601d60248201527f416464726573733a2063616c6c20746f206e6f6e2d636f6e747261637400000060448201526064016109e7565b600080866001600160a01b03168587604051612f329190613986565b60006040518083038185875af1925050503d8060008114612f6f576040519150601f19603f3d011682016040523d82523d6000602084013e612f74565b606091505b5091509150612f84828286612f8f565b979650505050505050565b60608315612f9e57508161282a565b825115612fae5782518084602001fd5b8160405162461bcd60e51b81526004016109e7919061308a565b6001600160e01b03198116811461133457600080fd5b600060208284031215612ff057600080fd5b813561282a81612fc8565b80356001600160a01b038116811461301257600080fd5b919050565b60006020828403121561302957600080fd5b61125d82612ffb565b60005b8381101561304d578181015183820152602001613035565b83811115611ef55750506000910152565b60008151808452613076816020860160208601613032565b601f01601f19169290920160200192915050565b60208152600061125d602083018461305e565b6000602082840312156130af57600080fd5b5035919050565b600080604083850312156130c957600080fd5b6130d283612ffb565b946020939093013593505050565b80356004811061301257600080fd5b6000806040838503121561310257600080fd5b61310b83612ffb565b9150613119602084016130e0565b90509250929050565b60008060006060848603121561313757600080fd5b61314084612ffb565b925060208401359150613155604085016130e0565b90509250925092565b60008060006060848603121561317357600080fd5b61317c84612ffb565b925061318a60208501612ffb565b9150604084013590509250925092565b6020808252825182820181905260009190848201906040850190845b818110156131d2578351835292840192918401916001016131b6565b50909695505050505050565b803560ff8116811461301257600080fd5b60006020828403121561320157600080fd5b61125d826131de565b60006020828403121561321c57600080fd5b813563ffffffff8116811461282a57600080fd5b60008060006060848603121561324557600080fd5b61324e84612ffb565b95602085013595506040909401359392505050565b6000806040838503121561327657600080fd5b61327f836130e0565b9150613119602084016131de565b801515811461133457600080fd5b600080604083850312156132ae57600080fd5b6132b783612ffb565b915060208301356132c78161328d565b809150509250929050565b600080604083850312156132e557600080fd5b6130d2836130e0565b634e487b7160e01b600052604160045260246000fd5b6000806000806080858703121561331a57600080fd5b61332385612ffb565b935061333160208601612ffb565b925060408501359150606085013567ffffffffffffffff8082111561335557600080fd5b818701915087601f83011261336957600080fd5b81358181111561337b5761337b6132ee565b604051601f8201601f19908116603f011681019083821181831017156133a3576133a36132ee565b816040528281528a60208487010111156133bc57600080fd5b82602086016020830137600060208483010152809550505050505092959194509250565b634e487b7160e01b600052602160045260246000fd5b8151815260208083015160ff1690820152604082015160808201906004811061342f57634e487b7160e01b600052602160045260246000fd5b8060408401525067ffffffffffffffff606084015116606083015292915050565b6000806040838503121561346357600080fd5b61346c83612ffb565b915061311960208401612ffb565b6020808252818101527f4f776e61626c653a2063616c6c6572206973206e6f7420746865206f776e6572604082015260600190565b600181811c908216806134c357607f821691505b602082108114156134e457634e487b7160e01b600052602260045260246000fd5b50919050565b6000602082840312156134fc57600080fd5b5051919050565b6020808252600f908201526e696e76616c6964207061636b61676560881b604082015260600190565b6020808252818101527f4552433732313a206d696e7420746f20746865207a65726f2061646472657373604082015260600190565b634e487b7160e01b600052601160045260246000fd5b600060001982141561358b5761358b613561565b5060010190565b6020808252601f908201527f5265656e7472616e637947756172643a207265656e7472616e742063616c6c00604082015260600190565b6020808252601390820152727061636b61676520756e617661696c61626c6560681b604082015260600190565b6020808252601490820152731dd85b1b195d0b5c1858dad859d94b5b1a5b5a5d60621b604082015260600190565b6020808252600e908201526d1253959053125108105353d5539560921b604082015260600190565b60208082526022908201527f616d6f756e7420646966666572656e742066726f6d20626e6220726571756972604082015261195960f21b606082015260800190565b6020808252600890820152671cdbdb19081bdd5d60c21b604082015260600190565b600063ffffffff808316818114156136ca576136ca613561565b6001019392505050565b600060ff821660ff84168060ff038211156136f1576136f1613561565b019392505050565b60208082526031908201527f4552433732313a207472616e736665722063616c6c6572206973206e6f74206f6040820152701ddb995c881b9bdc88185c1c1c9bdd9959607a1b606082015260800190565b634e487b7160e01b600052603260045260246000fd5b60006020828403121561377257600080fd5b815161282a8161328d565b60008282101561378f5761378f613561565b500390565b600081516137a6818560208601613032565b9290920192915050565b600080845481600182811c9150808316806137cc57607f831692505b60208084108214156137ec57634e487b7160e01b86526022600452602486fd5b81801561380057600181146138115761383e565b60ff1986168952848901965061383e565b60008b81526020902060005b868110156138365781548b82015290850190830161381d565b505084890196505b50505050505061384e8185613794565b95945050505050565b60208082526032908201527f4552433732313a207472616e7366657220746f206e6f6e20455243373231526560408201527131b2b4bb32b91034b6b83632b6b2b73a32b960711b606082015260800190565b634e487b7160e01b600052601260045260246000fd5b6000826138ce576138ce6138a9565b500490565b6000826138e2576138e26138a9565b500690565b600082198211156138fa576138fa613561565b500190565b60008161390e5761390e613561565b506000190190565b6001600160a01b03858116825284166020820152604081018390526080606082018190526000906139499083018461305e565b9695505050505050565b60006020828403121561396557600080fd5b815161282a81612fc8565b634e487b7160e01b600052603160045260246000fd5b60008251613998818460208701613032565b919091019291505056fe4552433732313a207472616e7366657220746f206e6f6e20455243373231526563656976657220696d706c656d656e7465724552433732313a206f776e657220717565727920666f72206e6f6e6578697374656e7420746f6b656eddf252ad1be2c89b69c2b068fc378daa952ba7f163c4a11628f55a4df523b3efa264697066735822122031a2f8af05d0042fb77d9edcddd55284423eb0d201831554d30c6865cefb277664736f6c634300080a00334f776e61626c653a2063616c6c6572206973206e6f7420746865206f776e6572",
  "immutableReferences": {},
  "source": "// SPDX-License-Identifier: MIT\r\npragma solidity ^0.8.2;\r\n\r\nimport \"./IBEP20.sol\";\r\nimport \"./IMarketplace.sol\";\r\nimport \"./SafeMath.sol\";\r\nimport \"./Ownable.sol\";\r\nimport \"./ERC721.sol\";\r\nimport \"./ERC721Pausable.sol\";\r\nimport \"./IRobotCore.sol\";\r\nimport \"./ReentrancyGuard.sol\";\r\n\r\ncontract RobotPackage is Ownable, ERC721Pausable, ReentrancyGuard {\r\n    using SafeMath for uint256;\r\n\r\n    struct Package {\r\n        uint256 packageId; // id of the package\r\n        uint8 quantity; // quantity of robots on this package\r\n        PackageType packageType; //package type\r\n        uint64 birthTime; // The timestamp from the block when this Robot came into existence.\r\n    }\r\n\r\n    enum PackageType {\r\n        Default,\r\n        First,\r\n        Second,\r\n        Third\r\n    }\r\n\r\n    /*** STORAGE ***/\r\n    /// @dev An array containing the Robot struct for all packages in existence. The ID\r\n    ///  of each package is actually an index into this array.\r\n    Package[] packages;\r\n\r\n    event PackageCreated(\r\n        address to,\r\n        uint256 packId,\r\n        uint8 packageType,\r\n        uint256 date\r\n    );\r\n\r\n    event Unpacked(\r\n        address from,\r\n        uint256 packId,\r\n        uint8 packageType,\r\n        uint256 date\r\n    );\r\n\r\n    /* PACKAGE VARIABLES */\r\n    uint256 private nextPackageTokenId = 1;\r\n\r\n    mapping(address => uint8) walletPackages;\r\n    mapping(PackageType => uint8) private _packageTypeRobots;\r\n    mapping(PackageType => uint256) private _packageTypePrice;\r\n\r\n    uint256 private priceFirstPackage = 0.2 * 10**18;\r\n    uint256 private priceSecondPackage = 0.5 * 10**18;\r\n    uint256 private priceThirdPackage = 0.9 * 10**18;\r\n    uint256 private openPackagePrice = 5 * 10**18;\r\n    uint256 private totalPackagesOwner = 2;\r\n\r\n    uint32 firstPackageCount;\r\n    uint32 secondPackageCount;\r\n    uint32 thirdPackageCount;\r\n    uint32 firstPackageLimit = 300;\r\n    uint32 secondPackageLimit = 120;\r\n    uint32 thirdPackageLimit = 50;\r\n\r\n    /* SETTABLE VARIABLES */\r\n    address public _mekaAddress;\r\n    address public _robotCoreAddress;\r\n    address public _adminAddress;\r\n\r\n    bool public canUnpack;\r\n    bool public isPackageAvailable;\r\n\r\n    constructor(address mekaAddress, address robotCoreAddress)\r\n        ERC721(\"Mekabot Package\", \"MekabotPkg\")\r\n    {\r\n        _robotCoreAddress = robotCoreAddress;\r\n        _mekaAddress = mekaAddress;\r\n        _adminAddress = owner();\r\n\r\n        //Package Configs\r\n        canUnpack = true;\r\n        isPackageAvailable = true;\r\n\r\n        setPackageTypePrice(PackageType.First, priceFirstPackage);\r\n        setPackageTypePrice(PackageType.Second, priceSecondPackage);\r\n        setPackageTypePrice(PackageType.Third, priceThirdPackage);\r\n        setPackageTypeRobots(PackageType.First, 1);\r\n        setPackageTypeRobots(PackageType.Second, 2);\r\n        setPackageTypeRobots(PackageType.Third, 3);\r\n    }\r\n\r\n    function setAdminAddress(address adminAddress) external onlyOwner {\r\n        _adminAddress = adminAddress;\r\n    }\r\n\r\n    function setRobotAddress(address robotAddress) external onlyOwner {\r\n        _robotCoreAddress = robotAddress;\r\n    }\r\n\r\n    function setFirstPackageLimit(uint32 quantity) external onlyOwner {\r\n        firstPackageLimit = quantity;\r\n    }\r\n\r\n    function setSecondPackageLimit(uint32 quantity) external onlyOwner {\r\n        secondPackageLimit = quantity;\r\n    }\r\n\r\n    function setThirdPackageLimit(uint32 quantity) external onlyOwner {\r\n        thirdPackageLimit = quantity;\r\n    }\r\n\r\n    function setTotalPackagesOwner(uint8 quantity) external onlyOwner {\r\n        totalPackagesOwner = quantity;\r\n    }\r\n\r\n    function setPackageTypePrice(PackageType _packageType, uint256 amount)\r\n        public\r\n        onlyOwner\r\n    {\r\n        _packageTypePrice[_packageType] = amount;\r\n    }\r\n\r\n    function setPackageTypeRobots(PackageType _packageType, uint8 quantity)\r\n        public\r\n        onlyOwner\r\n    {\r\n        _packageTypeRobots[_packageType] = quantity;\r\n    }\r\n\r\n    function updateCanUnpack() external onlyOwner {\r\n        canUnpack = !canUnpack;\r\n    }\r\n\r\n    function updatePackageAvailable() external onlyOwner {\r\n        isPackageAvailable = !isPackageAvailable;\r\n    }\r\n\r\n    modifier canOpen() {\r\n        require(canUnpack, \"can not open\");\r\n        _;\r\n    }\r\n\r\n    modifier packageAvailable() {\r\n        require(isPackageAvailable, \"package unavailable\");\r\n        _;\r\n    }\r\n\r\n    function withdrawBalance() external onlyOwner {\r\n        IBEP20(_mekaAddress).transfer(owner(), getBalance());\r\n    }\r\n\r\n    function withdrawBnb() external onlyOwner {\r\n        uint256 amount = address(this).balance;\r\n\r\n        (bool success, ) = payable(owner()).call{value: amount}(\"\");\r\n        require(success, \"Failed to send Ether\");\r\n    }\r\n\r\n    function getBalance() public view returns (uint256) {\r\n        return IBEP20(_mekaAddress).balanceOf(address(this));\r\n    }\r\n\r\n    function getBnbBalance() public view returns (uint256) {\r\n        return address(this).balance;\r\n    }\r\n\r\n    function pause() public whenNotPaused onlyOwner {\r\n        _pause();\r\n    }\r\n\r\n    function unpause() public whenPaused onlyOwner {\r\n        _unpause();\r\n    }\r\n\r\n    /* ROBOT PACKAGE */\r\n\r\n    function getPackage(uint256 _id)\r\n        public\r\n        view\r\n        returns (Package memory package)\r\n    {\r\n        package = packages[_id - 1];\r\n    }\r\n\r\n    function _mintPackage(\r\n        address _to,\r\n        uint256 _tokenId,\r\n        PackageType _packageType\r\n    ) private {\r\n        Package memory _package = Package({\r\n            packageType: _packageType,\r\n            packageId: _tokenId,\r\n            quantity: _packageTypeRobots[_packageType],\r\n            birthTime: uint64(block.timestamp)\r\n        });\r\n\r\n        _safeMint(_to, _tokenId, \"\");\r\n        packages.push(_package);\r\n\r\n        emit PackageCreated(\r\n            _to,\r\n            _package.packageId,\r\n            uint8(_package.packageType),\r\n            block.timestamp\r\n        );\r\n\r\n        emit Transfer(address(0), _to, _package.packageId);\r\n    }\r\n\r\n    function createPackage1(\r\n        address _owner,\r\n        uint256 _amount,\r\n        PackageType _packageType\r\n    ) external payable nonReentrant packageAvailable whenNotPaused {\r\n        require(\r\n            walletPackages[_owner] < totalPackagesOwner,\r\n            \"wallet-package-limit\"\r\n        );\r\n        require(_owner != address(0), \"ERC721: mint to the zero address\");\r\n        require(_amount == priceFirstPackage, \"INVALID AMOUNT\");\r\n        require(_amount == msg.value, \"amount different from bnb required\");\r\n        require(firstPackageCount < firstPackageLimit, \"sold out\");\r\n\r\n        firstPackageCount++;\r\n\r\n        _mintPackage(_owner, nextPackageTokenId, _packageType);\r\n        walletPackages[_owner] = walletPackages[_owner] + 1;\r\n        nextPackageTokenId++;\r\n    }\r\n\r\n    function createPackage2(\r\n        address _owner,\r\n        uint256 _amount,\r\n        PackageType _packageType\r\n    ) external payable nonReentrant packageAvailable whenNotPaused {\r\n        require(\r\n            walletPackages[_owner] < totalPackagesOwner,\r\n            \"wallet-package-limit\"\r\n        );\r\n        require(_packageType != PackageType.Default, \"invalid package\");\r\n        require(_owner != address(0), \"ERC721: mint to the zero address\");\r\n        require(_amount == _packageTypePrice[_packageType], \"INVALID AMOUNT\");\r\n        require(_amount == msg.value, \"amount different from bnb required\");\r\n        require(secondPackageCount < secondPackageLimit, \"sold out\");\r\n        secondPackageCount++;\r\n\r\n        _mintPackage(_owner, nextPackageTokenId, _packageType);\r\n        walletPackages[_owner] = walletPackages[_owner] + 1;\r\n        nextPackageTokenId++;\r\n    }\r\n\r\n    function createPackage3(\r\n        address _owner,\r\n        uint256 _amount,\r\n        PackageType _packageType\r\n    ) external payable nonReentrant packageAvailable whenNotPaused {\r\n        require(\r\n            walletPackages[_owner] < totalPackagesOwner,\r\n            \"wallet-package-limit\"\r\n        );\r\n        require(_packageType != PackageType.Default, \"invalid package\");\r\n        require(_owner != address(0), \"ERC721: mint to the zero address\");\r\n        require(_amount == _packageTypePrice[_packageType], \"INVALID AMOUNT\");\r\n        require(_amount == msg.value, \"amount different from bnb required\");\r\n        require(thirdPackageCount < thirdPackageLimit, \"sold out\");\r\n        thirdPackageCount++;\r\n\r\n        _mintPackage(_owner, nextPackageTokenId, _packageType);\r\n        walletPackages[_owner] = walletPackages[_owner] + 1;\r\n        nextPackageTokenId++;\r\n    }\r\n\r\n    function createPackageExtra(address _owner, PackageType _packageType)\r\n        external\r\n        onlyOwner\r\n    {\r\n        require(_packageType != PackageType.Default, \"invalid package\");\r\n        require(_owner != address(0), \"ERC721: mint to the zero address\");\r\n\r\n        _mintPackage(_owner, nextPackageTokenId, _packageType);\r\n        nextPackageTokenId++;\r\n    }\r\n\r\n    function openPackage(\r\n        address _to,\r\n        uint256 _amount,\r\n        uint256 _tokenId\r\n    ) external canOpen whenNotPaused {\r\n        require(_amount >= openPackagePrice, \"INVALID AMOUNT\");\r\n        require(_to != address(0), \"mint to the zero address\");\r\n        require(ownerOf(_tokenId) == msg.sender, \"not the owner\");\r\n        require(\r\n            IBEP20(_mekaAddress).transferFrom(\r\n                msg.sender,\r\n                address(this),\r\n                _amount\r\n            )\r\n        );\r\n\r\n        Package memory package = packages[_tokenId - 1];\r\n\r\n        IRobotCore(_robotCoreAddress).createRobotFromBundle(\r\n            _to,\r\n            uint8(package.packageType),\r\n            package.quantity\r\n        );\r\n\r\n        _burn(_tokenId);\r\n\r\n        emit Unpacked(\r\n            _to,\r\n            _tokenId,\r\n            uint8(package.packageType),\r\n            block.timestamp\r\n        );\r\n    }\r\n\r\n    function getPackagesCount()\r\n        external\r\n        view\r\n        returns (\r\n            uint32 _firstPackageCount,\r\n            uint32 _secondPackageCount,\r\n            uint32 _thirdPackageCount\r\n        )\r\n    {\r\n        _firstPackageCount = firstPackageCount;\r\n        _secondPackageCount = secondPackageCount;\r\n        _thirdPackageCount = thirdPackageCount;\r\n    }\r\n}\r\n",
  "sourcePath": "E:\\MekaMiners\\contracts\\RobotPackage.sol",
  "compiler": {
    "name": "solc",
    "version": "0.8.10+commit.fc410830.Emscripten.clang"
  },
  "schemaVersion": "3.4.3",
  "updatedAt": "2021-11-26T23:47:13.420Z",
  "networkType": "ethereum",
  "devdoc": {
    "kind": "dev",
    "methods": {
      "_pause()": {
        "details": "called by the owner to pause, triggers stopped state"
      },
      "_unpause()": {
        "details": "called by the owner to unpause, returns to normal state"
      },
      "approve(address,uint256)": {
        "details": "See {IERC721-approve}."
      },
      "balanceOf(address)": {
        "details": "See {IERC721-balanceOf}."
      },
      "baseURI()": {
        "details": "Returns the base URI set via {_setBaseURI}. This will be automatically added as a prefix in {tokenURI} to each token's URI, or to the token ID if no specific URI is set for that token ID."
      },
      "getApproved(uint256)": {
        "details": "See {IERC721-getApproved}."
      },
      "isApprovedForAll(address,address)": {
        "details": "See {IERC721-isApprovedForAll}."
      },
      "isOwner()": {
        "details": "Returns true if the caller is the current owner."
      },
      "name()": {
        "details": "See {IERC721Metadata-name}."
      },
      "owner()": {
        "details": "Returns the address of the current owner."
      },
      "ownerOf(uint256)": {
        "details": "See {IERC721-ownerOf}."
      },
      "renounceOwnership()": {
        "details": "Leaves the contract without owner. It will not be possible to call `onlyOwner` functions anymore. Can only be called by the current owner. NOTE: Renouncing ownership will leave the contract without an owner, thereby removing any functionality that is only available to the owner."
      },
      "safeTransferFrom(address,address,uint256)": {
        "details": "See {IERC721-safeTransferFrom}."
      },
      "safeTransferFrom(address,address,uint256,bytes)": {
        "details": "See {IERC721-safeTransferFrom}."
      },
      "setApprovalForAll(address,bool)": {
        "details": "See {IERC721-setApprovalForAll}."
      },
      "supportsInterface(bytes4)": {
        "details": "See {IERC165-supportsInterface}. Time complexity O(1), guaranteed to always use less than 30 000 gas."
      },
      "symbol()": {
        "details": "See {IERC721Metadata-symbol}."
      },
      "tokenByIndex(uint256)": {
        "details": "See {IERC721Enumerable-tokenByIndex}."
      },
      "tokenOfOwner(address)": {
        "details": "See {IERC721Enumerable-tokenOfOwner}."
      },
      "tokenOfOwnerByIndex(address,uint256)": {
        "details": "See {IERC721Enumerable-tokenOfOwnerByIndex}."
      },
      "tokenURI(uint256)": {
        "details": "See {IERC721Metadata-tokenURI}."
      },
      "totalSupply()": {
        "details": "See {IERC721Enumerable-totalSupply}."
      },
      "transferFrom(address,address,uint256)": {
        "details": "See {IERC721-transferFrom}."
      },
      "transferOwnership(address)": {
        "details": "Transfers ownership of the contract to a new account (`newOwner`). Can only be called by the current owner."
      }
    },
    "stateVariables": {
      "packages": {
        "details": "An array containing the Robot struct for all packages in existence. The ID  of each package is actually an index into this array."
      }
    },
    "version": 1
  },
  "userdoc": {
    "kind": "user",
    "methods": {},
    "version": 1
  }
}