{
  "contractName": "RobotPackageGen1",
  "abi": [
    {
      "inputs": [],
      "stateMutability": "nonpayable",
      "type": "constructor"
    },
    {
      "anonymous": false,
      "inputs": [
        {
          "indexed": true,
          "internalType": "address",
          "name": "owner",
          "type": "address"
        },
        {
          "indexed": true,
          "internalType": "address",
          "name": "approved",
          "type": "address"
        },
        {
          "indexed": true,
          "internalType": "uint256",
          "name": "tokenId",
          "type": "uint256"
        }
      ],
      "name": "Approval",
      "type": "event"
    },
    {
      "anonymous": false,
      "inputs": [
        {
          "indexed": true,
          "internalType": "address",
          "name": "owner",
          "type": "address"
        },
        {
          "indexed": true,
          "internalType": "address",
          "name": "operator",
          "type": "address"
        },
        {
          "indexed": false,
          "internalType": "bool",
          "name": "approved",
          "type": "bool"
        }
      ],
      "name": "ApprovalForAll",
      "type": "event"
    },
    {
      "anonymous": false,
      "inputs": [
        {
          "indexed": false,
          "internalType": "address",
          "name": "owner",
          "type": "address"
        },
        {
          "indexed": false,
          "internalType": "uint256",
          "name": "tokenId",
          "type": "uint256"
        },
        {
          "indexed": false,
          "internalType": "uint256",
          "name": "date",
          "type": "uint256"
        }
      ],
      "name": "Birth",
      "type": "event"
    },
    {
      "anonymous": false,
      "inputs": [
        {
          "indexed": true,
          "internalType": "address",
          "name": "previousOwner",
          "type": "address"
        },
        {
          "indexed": true,
          "internalType": "address",
          "name": "newOwner",
          "type": "address"
        }
      ],
      "name": "OwnershipTransferred",
      "type": "event"
    },
    {
      "anonymous": false,
      "inputs": [
        {
          "indexed": false,
          "internalType": "address",
          "name": "to",
          "type": "address"
        },
        {
          "indexed": false,
          "internalType": "uint256",
          "name": "packId",
          "type": "uint256"
        },
        {
          "indexed": false,
          "internalType": "uint8",
          "name": "packageType",
          "type": "uint8"
        },
        {
          "indexed": false,
          "internalType": "uint256",
          "name": "date",
          "type": "uint256"
        },
        {
          "indexed": false,
          "internalType": "bool",
          "name": "isPresale",
          "type": "bool"
        }
      ],
      "name": "PackageCreatedGen1",
      "type": "event"
    },
    {
      "anonymous": false,
      "inputs": [],
      "name": "Pause",
      "type": "event"
    },
    {
      "anonymous": false,
      "inputs": [
        {
          "indexed": true,
          "internalType": "address",
          "name": "from",
          "type": "address"
        },
        {
          "indexed": true,
          "internalType": "address",
          "name": "to",
          "type": "address"
        },
        {
          "indexed": true,
          "internalType": "uint256",
          "name": "tokenId",
          "type": "uint256"
        }
      ],
      "name": "Transfer",
      "type": "event"
    },
    {
      "anonymous": false,
      "inputs": [
        {
          "indexed": false,
          "internalType": "address",
          "name": "owner",
          "type": "address"
        },
        {
          "indexed": false,
          "internalType": "uint256",
          "name": "packId",
          "type": "uint256"
        },
        {
          "indexed": false,
          "internalType": "uint8",
          "name": "packageType",
          "type": "uint8"
        },
        {
          "indexed": false,
          "internalType": "uint256",
          "name": "date",
          "type": "uint256"
        }
      ],
      "name": "UnpackedGen1",
      "type": "event"
    },
    {
      "anonymous": false,
      "inputs": [],
      "name": "Unpause",
      "type": "event"
    },
    {
      "inputs": [],
      "name": "_mekaAddress",
      "outputs": [
        {
          "internalType": "address",
          "name": "",
          "type": "address"
        }
      ],
      "stateMutability": "view",
      "type": "function",
      "constant": true
    },
    {
      "inputs": [],
      "name": "_pause",
      "outputs": [
        {
          "internalType": "bool",
          "name": "",
          "type": "bool"
        }
      ],
      "stateMutability": "nonpayable",
      "type": "function"
    },
    {
      "inputs": [],
      "name": "_robotCoreAddress",
      "outputs": [
        {
          "internalType": "address",
          "name": "",
          "type": "address"
        }
      ],
      "stateMutability": "view",
      "type": "function",
      "constant": true
    },
    {
      "inputs": [],
      "name": "_unpause",
      "outputs": [
        {
          "internalType": "bool",
          "name": "",
          "type": "bool"
        }
      ],
      "stateMutability": "nonpayable",
      "type": "function"
    },
    {
      "inputs": [
        {
          "internalType": "address",
          "name": "to",
          "type": "address"
        },
        {
          "internalType": "uint256",
          "name": "tokenId",
          "type": "uint256"
        }
      ],
      "name": "approve",
      "outputs": [],
      "stateMutability": "nonpayable",
      "type": "function"
    },
    {
      "inputs": [
        {
          "internalType": "address",
          "name": "owner",
          "type": "address"
        }
      ],
      "name": "balanceOf",
      "outputs": [
        {
          "internalType": "uint256",
          "name": "",
          "type": "uint256"
        }
      ],
      "stateMutability": "view",
      "type": "function",
      "constant": true
    },
    {
      "inputs": [],
      "name": "baseURI",
      "outputs": [
        {
          "internalType": "string",
          "name": "",
          "type": "string"
        }
      ],
      "stateMutability": "view",
      "type": "function",
      "constant": true
    },
    {
      "inputs": [],
      "name": "canUnpack",
      "outputs": [
        {
          "internalType": "bool",
          "name": "",
          "type": "bool"
        }
      ],
      "stateMutability": "view",
      "type": "function",
      "constant": true
    },
    {
      "inputs": [
        {
          "internalType": "uint256",
          "name": "tokenId",
          "type": "uint256"
        }
      ],
      "name": "getApproved",
      "outputs": [
        {
          "internalType": "address",
          "name": "",
          "type": "address"
        }
      ],
      "stateMutability": "view",
      "type": "function",
      "constant": true
    },
    {
      "inputs": [
        {
          "internalType": "address",
          "name": "owner",
          "type": "address"
        },
        {
          "internalType": "address",
          "name": "operator",
          "type": "address"
        }
      ],
      "name": "isApprovedForAll",
      "outputs": [
        {
          "internalType": "bool",
          "name": "",
          "type": "bool"
        }
      ],
      "stateMutability": "view",
      "type": "function",
      "constant": true
    },
    {
      "inputs": [],
      "name": "isOwner",
      "outputs": [
        {
          "internalType": "bool",
          "name": "",
          "type": "bool"
        }
      ],
      "stateMutability": "view",
      "type": "function",
      "constant": true
    },
    {
      "inputs": [],
      "name": "isPackageAvailable",
      "outputs": [
        {
          "internalType": "bool",
          "name": "",
          "type": "bool"
        }
      ],
      "stateMutability": "view",
      "type": "function",
      "constant": true
    },
    {
      "inputs": [],
      "name": "name",
      "outputs": [
        {
          "internalType": "string",
          "name": "",
          "type": "string"
        }
      ],
      "stateMutability": "view",
      "type": "function",
      "constant": true
    },
    {
      "inputs": [],
      "name": "owner",
      "outputs": [
        {
          "internalType": "address",
          "name": "",
          "type": "address"
        }
      ],
      "stateMutability": "view",
      "type": "function",
      "constant": true
    },
    {
      "inputs": [
        {
          "internalType": "uint256",
          "name": "tokenId",
          "type": "uint256"
        }
      ],
      "name": "ownerOf",
      "outputs": [
        {
          "internalType": "address",
          "name": "",
          "type": "address"
        }
      ],
      "stateMutability": "view",
      "type": "function",
      "constant": true
    },
    {
      "inputs": [],
      "name": "paused",
      "outputs": [
        {
          "internalType": "bool",
          "name": "",
          "type": "bool"
        }
      ],
      "stateMutability": "view",
      "type": "function",
      "constant": true
    },
    {
      "inputs": [],
      "name": "renounceOwnership",
      "outputs": [],
      "stateMutability": "nonpayable",
      "type": "function"
    },
    {
      "inputs": [
        {
          "internalType": "address",
          "name": "from",
          "type": "address"
        },
        {
          "internalType": "address",
          "name": "to",
          "type": "address"
        },
        {
          "internalType": "uint256",
          "name": "tokenId",
          "type": "uint256"
        }
      ],
      "name": "safeTransferFrom",
      "outputs": [],
      "stateMutability": "nonpayable",
      "type": "function"
    },
    {
      "inputs": [
        {
          "internalType": "address",
          "name": "from",
          "type": "address"
        },
        {
          "internalType": "address",
          "name": "to",
          "type": "address"
        },
        {
          "internalType": "uint256",
          "name": "tokenId",
          "type": "uint256"
        },
        {
          "internalType": "bytes",
          "name": "_data",
          "type": "bytes"
        }
      ],
      "name": "safeTransferFrom",
      "outputs": [],
      "stateMutability": "nonpayable",
      "type": "function"
    },
    {
      "inputs": [
        {
          "internalType": "address",
          "name": "operator",
          "type": "address"
        },
        {
          "internalType": "bool",
          "name": "approved",
          "type": "bool"
        }
      ],
      "name": "setApprovalForAll",
      "outputs": [],
      "stateMutability": "nonpayable",
      "type": "function"
    },
    {
      "inputs": [
        {
          "internalType": "bytes4",
          "name": "interfaceId",
          "type": "bytes4"
        }
      ],
      "name": "supportsInterface",
      "outputs": [
        {
          "internalType": "bool",
          "name": "",
          "type": "bool"
        }
      ],
      "stateMutability": "view",
      "type": "function",
      "constant": true
    },
    {
      "inputs": [],
      "name": "symbol",
      "outputs": [
        {
          "internalType": "string",
          "name": "",
          "type": "string"
        }
      ],
      "stateMutability": "view",
      "type": "function",
      "constant": true
    },
    {
      "inputs": [
        {
          "internalType": "uint256",
          "name": "index",
          "type": "uint256"
        }
      ],
      "name": "tokenByIndex",
      "outputs": [
        {
          "internalType": "uint256",
          "name": "",
          "type": "uint256"
        }
      ],
      "stateMutability": "view",
      "type": "function",
      "constant": true
    },
    {
      "inputs": [
        {
          "internalType": "address",
          "name": "owner",
          "type": "address"
        }
      ],
      "name": "tokenOfOwner",
      "outputs": [
        {
          "internalType": "uint256[]",
          "name": "",
          "type": "uint256[]"
        }
      ],
      "stateMutability": "view",
      "type": "function",
      "constant": true
    },
    {
      "inputs": [
        {
          "internalType": "address",
          "name": "owner",
          "type": "address"
        },
        {
          "internalType": "uint256",
          "name": "index",
          "type": "uint256"
        }
      ],
      "name": "tokenOfOwnerByIndex",
      "outputs": [
        {
          "internalType": "uint256",
          "name": "",
          "type": "uint256"
        }
      ],
      "stateMutability": "view",
      "type": "function",
      "constant": true
    },
    {
      "inputs": [
        {
          "internalType": "uint256",
          "name": "tokenId",
          "type": "uint256"
        }
      ],
      "name": "tokenURI",
      "outputs": [
        {
          "internalType": "string",
          "name": "",
          "type": "string"
        }
      ],
      "stateMutability": "view",
      "type": "function",
      "constant": true
    },
    {
      "inputs": [],
      "name": "totalSupply",
      "outputs": [
        {
          "internalType": "uint256",
          "name": "",
          "type": "uint256"
        }
      ],
      "stateMutability": "view",
      "type": "function",
      "constant": true
    },
    {
      "inputs": [
        {
          "internalType": "address",
          "name": "newOwner",
          "type": "address"
        }
      ],
      "name": "transferOwnership",
      "outputs": [],
      "stateMutability": "nonpayable",
      "type": "function"
    },
    {
      "inputs": [
        {
          "internalType": "address",
          "name": "addr",
          "type": "address"
        }
      ],
      "name": "isBlacklisted",
      "outputs": [
        {
          "internalType": "bool",
          "name": "",
          "type": "bool"
        }
      ],
      "stateMutability": "view",
      "type": "function",
      "constant": true
    },
    {
      "inputs": [
        {
          "internalType": "address",
          "name": "wallet",
          "type": "address"
        },
        {
          "internalType": "bool",
          "name": "isBanned",
          "type": "bool"
        }
      ],
      "name": "setBlackList",
      "outputs": [],
      "stateMutability": "nonpayable",
      "type": "function"
    },
    {
      "inputs": [
        {
          "internalType": "uint8",
          "name": "limit",
          "type": "uint8"
        }
      ],
      "name": "setPackageLimit",
      "outputs": [],
      "stateMutability": "nonpayable",
      "type": "function"
    },
    {
      "inputs": [
        {
          "internalType": "address",
          "name": "_addr",
          "type": "address"
        }
      ],
      "name": "setTokenAddress",
      "outputs": [],
      "stateMutability": "nonpayable",
      "type": "function"
    },
    {
      "inputs": [
        {
          "internalType": "address",
          "name": "robotAddress",
          "type": "address"
        }
      ],
      "name": "setRobotAddress",
      "outputs": [],
      "stateMutability": "nonpayable",
      "type": "function"
    },
    {
      "inputs": [
        {
          "internalType": "uint32",
          "name": "quantity",
          "type": "uint32"
        }
      ],
      "name": "setFirstPackageLimit",
      "outputs": [],
      "stateMutability": "nonpayable",
      "type": "function"
    },
    {
      "inputs": [
        {
          "internalType": "uint32",
          "name": "quantity",
          "type": "uint32"
        }
      ],
      "name": "setSecondPackageLimit",
      "outputs": [],
      "stateMutability": "nonpayable",
      "type": "function"
    },
    {
      "inputs": [
        {
          "internalType": "uint32",
          "name": "quantity",
          "type": "uint32"
        }
      ],
      "name": "setThirdPackageLimit",
      "outputs": [],
      "stateMutability": "nonpayable",
      "type": "function"
    },
    {
      "inputs": [
        {
          "internalType": "enum RobotPackageGen1.PackageType",
          "name": "_packageType",
          "type": "uint8"
        },
        {
          "internalType": "uint256",
          "name": "amount",
          "type": "uint256"
        }
      ],
      "name": "setPackageTypePrice",
      "outputs": [],
      "stateMutability": "nonpayable",
      "type": "function"
    },
    {
      "inputs": [
        {
          "internalType": "enum RobotPackageGen1.PackageType",
          "name": "_packageType",
          "type": "uint8"
        },
        {
          "internalType": "uint8",
          "name": "quantity",
          "type": "uint8"
        }
      ],
      "name": "setPackageTypeRobots",
      "outputs": [],
      "stateMutability": "nonpayable",
      "type": "function"
    },
    {
      "inputs": [],
      "name": "updateCanUnpack",
      "outputs": [],
      "stateMutability": "nonpayable",
      "type": "function"
    },
    {
      "inputs": [],
      "name": "updatePackageAvailable",
      "outputs": [],
      "stateMutability": "nonpayable",
      "type": "function"
    },
    {
      "inputs": [],
      "name": "withdrawBalance",
      "outputs": [],
      "stateMutability": "nonpayable",
      "type": "function"
    },
    {
      "inputs": [],
      "name": "withdrawBnb",
      "outputs": [],
      "stateMutability": "nonpayable",
      "type": "function"
    },
    {
      "inputs": [],
      "name": "getBalance",
      "outputs": [
        {
          "internalType": "uint256",
          "name": "",
          "type": "uint256"
        }
      ],
      "stateMutability": "view",
      "type": "function",
      "constant": true
    },
    {
      "inputs": [],
      "name": "getBnbBalance",
      "outputs": [
        {
          "internalType": "uint256",
          "name": "",
          "type": "uint256"
        }
      ],
      "stateMutability": "view",
      "type": "function",
      "constant": true
    },
    {
      "inputs": [],
      "name": "pause",
      "outputs": [],
      "stateMutability": "nonpayable",
      "type": "function"
    },
    {
      "inputs": [],
      "name": "unpause",
      "outputs": [],
      "stateMutability": "nonpayable",
      "type": "function"
    },
    {
      "inputs": [
        {
          "internalType": "enum RobotPackageGen1.PackageType",
          "name": "_packageType",
          "type": "uint8"
        },
        {
          "internalType": "bool",
          "name": "_isPresale",
          "type": "bool"
        }
      ],
      "name": "createPackage",
      "outputs": [],
      "stateMutability": "payable",
      "type": "function",
      "payable": true
    },
    {
      "inputs": [
        {
          "internalType": "address",
          "name": "_to",
          "type": "address"
        },
        {
          "internalType": "enum RobotPackageGen1.PackageType",
          "name": "_packageType",
          "type": "uint8"
        },
        {
          "internalType": "bool",
          "name": "_isPresale",
          "type": "bool"
        }
      ],
      "name": "createPackageExtra",
      "outputs": [],
      "stateMutability": "nonpayable",
      "type": "function"
    },
    {
      "inputs": [
        {
          "internalType": "uint256",
          "name": "_amount",
          "type": "uint256"
        },
        {
          "internalType": "uint256",
          "name": "_tokenId",
          "type": "uint256"
        }
      ],
      "name": "openPackage",
      "outputs": [],
      "stateMutability": "nonpayable",
      "type": "function"
    },
    {
      "inputs": [],
      "name": "getPackagesCount",
      "outputs": [
        {
          "internalType": "uint32",
          "name": "_firstPackageCount",
          "type": "uint32"
        },
        {
          "internalType": "uint32",
          "name": "_secondPackageCount",
          "type": "uint32"
        },
        {
          "internalType": "uint32",
          "name": "_thirdPackageCount",
          "type": "uint32"
        }
      ],
      "stateMutability": "view",
      "type": "function",
      "constant": true
    },
    {
      "inputs": [
        {
          "internalType": "uint256",
          "name": "_id",
          "type": "uint256"
        }
      ],
      "name": "getPackage",
      "outputs": [
        {
          "components": [
            {
              "internalType": "address",
              "name": "owner",
              "type": "address"
            },
            {
              "internalType": "uint256",
              "name": "packageId",
              "type": "uint256"
            },
            {
              "internalType": "uint8",
              "name": "robotQuantity",
              "type": "uint8"
            },
            {
              "internalType": "enum RobotPackageGen1.PackageType",
              "name": "packageType",
              "type": "uint8"
            },
            {
              "internalType": "uint64",
              "name": "birthTime",
              "type": "uint64"
            }
          ],
          "internalType": "struct RobotPackageGen1.Package",
          "name": "package",
          "type": "tuple"
        }
      ],
      "stateMutability": "view",
      "type": "function",
      "constant": true
    },
    {
      "inputs": [
        {
          "internalType": "address",
          "name": "_from",
          "type": "address"
        },
        {
          "internalType": "address",
          "name": "_receiver",
          "type": "address"
        },
        {
          "internalType": "uint256",
          "name": "_tokenId",
          "type": "uint256"
        }
      ],
      "name": "transferFrom",
      "outputs": [],
      "stateMutability": "nonpayable",
      "type": "function"
    }
  ],
  "bytecode": "0x6080604052600b805460ff60a01b191690556001600e556702c68af0bb1400006013556706f05b59d3b20000601455670c7d713b49da0000601555674563918244f400006016556017805460ff600160681b03600160c81b0319167564000000c800000190000000000000000000000000641790553480156200008157600080fd5b50604080518082018252600b81526a4d656b61626f7420506b6760a81b6020808301919091528251808401909352600a8352694d656b61626f74506b6760b01b9083015290620000d86301ffc9a760e01b620001fd565b8151620000ed906007906020850190620003b3565b50805162000103906008906020840190620003b3565b50620001166380ac58cd60e01b620001fd565b62000128635b5e139f60e01b620001fd565b6200013a63780e9d6360e01b620001fd565b5050600b80546001600160a01b0319163390811790915560405181906000907f8be0079c531659141344cd1fd0a4f28419497f9722a3daafe3b4186f6b6457e0908290a3506001600c556019805461ffff60a01b19169055601354620001a39060049062000282565b620001b860056014546200028260201b60201c565b620001cd60066015546200028260201b60201c565b620001db6004600162000310565b620001e96005600262000310565b620001f76006600362000310565b620004ac565b6001600160e01b031980821614156200025d5760405162461bcd60e51b815260206004820152601c60248201527f4552433136353a20696e76616c696420696e746572666163652069640000000060448201526064015b60405180910390fd5b6001600160e01b0319166000908152602081905260409020805460ff19166001179055565b600b546001600160a01b03163314620002cd5760405162461bcd60e51b8152602060048201819052602482015260008051602062003fb6833981519152604482015260640162000254565b8060116000846006811115620002e757620002e762000459565b6006811115620002fb57620002fb62000459565b81526020810191909152604001600020555050565b600b546001600160a01b031633146200035b5760405162461bcd60e51b8152602060048201819052602482015260008051602062003fb6833981519152604482015260640162000254565b806010600084600681111562000375576200037562000459565b600681111562000389576200038962000459565b815260200190815260200160002060006101000a81548160ff021916908360ff1602179055505050565b828054620003c1906200046f565b90600052602060002090601f016020900481019282620003e5576000855562000430565b82601f106200040057805160ff191683800117855562000430565b8280016001018555821562000430579182015b828111156200043057825182559160200191906001019062000413565b506200043e92915062000442565b5090565b5b808211156200043e576000815560010162000443565b634e487b7160e01b600052602160045260246000fd5b600181811c908216806200048457607f821691505b60208210811415620004a657634e487b7160e01b600052602260045260246000fd5b50919050565b613afa80620004bc6000396000f3fe6080604052600436106102ff5760003560e01c80636c0360eb11610190578063b88d4fde116100dc578063d41f90b011610095578063f2fde38b1161006f578063f2fde38b1461092c578063f9cdfbcc1461094c578063fc8234cb1461096c578063fe575a871461098157600080fd5b8063d41f90b014610879578063d525f504146108c2578063e985e9c5146108e357600080fd5b8063b88d4fde146107c4578063b99dfe18146107e4578063befc6cc314610811578063c201ca8a14610831578063c41e89f514610846578063c87b56dd1461085957600080fd5b80638da5cb5b1161014957806395d89b411161012357806395d89b411461074f5780639ae322a914610764578063a22cb46514610784578063ac511c3e146107a457600080fd5b80638da5cb5b146106f15780638f32d59b1461070f5780639124e0ac1461072f57600080fd5b80636c0360eb146106525780636e11a9bc1461066757806370a0823114610687578063715018a6146106a757806379f63c1b146106bc5780638456cb59146106dc57600080fd5b806333f5bf311161024f578063570c8e3b116102085780635c975abb116101e25780635c975abb146105dc5780635fd8c710146105fd5780636352211e1461061257806368092bd91461063257600080fd5b8063570c8e3b146105865780635aeaf14c1461059b5780635c86ea7c146105bb57600080fd5b806333f5bf31146104de5780633f4ba83a146104f157806342842e0e1461050657806347049c84146105265780634986a917146105465780634f6ccce71461056657600080fd5b806318160ddd116102bc57806326a4e8d21161029657806326a4e8d21461045c578063294cdf0d1461047c5780632f745c59146104a9578063320b2ad9146104c957600080fd5b806318160ddd146104125780631da0603a1461042757806323b872dd1461043c57600080fd5b806301ffc9a714610304578063045090631461035357806306fdde0314610375578063081812fc14610397578063095ea7b3146103cf57806312065fe0146103ef575b600080fd5b34801561031057600080fd5b5061033e61031f366004613200565b6001600160e01b03191660009081526020819052604090205460ff1690565b60405190151581526020015b60405180910390f35b34801561035f57600080fd5b5061037361036e366004613239565b6109ba565b005b34801561038157600080fd5b5061038a610a0f565b60405161034a91906132ac565b3480156103a357600080fd5b506103b76103b23660046132bf565b610aa1565b6040516001600160a01b03909116815260200161034a565b3480156103db57600080fd5b506103736103ea3660046132d8565b610b29565b3480156103fb57600080fd5b50610404610c3f565b60405190815260200161034a565b34801561041e57600080fd5b50610404610cb1565b34801561043357600080fd5b50610373610cbd565b34801561044857600080fd5b50610373610457366004613302565b610d97565b34801561046857600080fd5b50610373610477366004613239565b610eab565b34801561048857600080fd5b5061049c610497366004613239565b610ef7565b60405161034a919061333e565b3480156104b557600080fd5b506104046104c43660046132d8565b610fe3565b3480156104d557600080fd5b5061033e61100e565b3480156104ea57600080fd5b5047610404565b3480156104fd57600080fd5b50610373611094565b34801561051257600080fd5b50610373610521366004613302565b6110df565b34801561053257600080fd5b506018546103b7906001600160a01b031681565b34801561055257600080fd5b50610373610561366004613382565b6110fa565b34801561057257600080fd5b506104046105813660046132bf565b61114a565b34801561059257600080fd5b50610373611160565b3480156105a757600080fd5b506103736105b63660046133a8565b6111ab565b3480156105c757600080fd5b5060195461033e90600160a81b900460ff1681565b3480156105e857600080fd5b50600b5461033e90600160a01b900460ff1681565b34801561060957600080fd5b50610373611537565b34801561061e57600080fd5b506103b761062d3660046132bf565b6115fb565b34801561063e57600080fd5b5061037361064d3660046133d8565b611623565b34801561065e57600080fd5b5061038a611678565b34801561067357600080fd5b5061037361068236600461342f565b611687565b34801561069357600080fd5b506104046106a2366004613239565b611703565b3480156106b357600080fd5b5061037361178f565b3480156106c857600080fd5b506103736106d7366004613382565b611803565b3480156106e857600080fd5b50610373611853565b3480156106fd57600080fd5b50600b546001600160a01b03166103b7565b34801561071b57600080fd5b50600b546001600160a01b0316331461033e565b34801561073b57600080fd5b5061037361074a366004613462565b61189c565b34801561075b57600080fd5b5061038a6118dc565b34801561077057600080fd5b5061037361077f36600461347d565b6118eb565b34801561079057600080fd5b5061037361079f3660046133d8565b611a49565b3480156107b057600080fd5b506103736107bf3660046134c4565b611b0e565b3480156107d057600080fd5b506103736107df3660046134f6565b611b75565b3480156107f057600080fd5b506108046107ff3660046132bf565b611bad565b60405161034a91906135e8565b34801561081d57600080fd5b5061037361082c366004613382565b611c92565b34801561083d57600080fd5b50610373611ce2565b610373610854366004613655565b611d2d565b34801561086557600080fd5b5061038a6108743660046132bf565b61214a565b34801561088557600080fd5b506017546040805163ffffffff61010084048116825265010000000000840481166020830152600160481b9093049092169082015260600161034a565b3480156108ce57600080fd5b5060195461033e90600160a01b900460ff1681565b3480156108ef57600080fd5b5061033e6108fe366004613671565b6001600160a01b03918216600090815260066020908152604080832093909416825291909152205460ff1690565b34801561093857600080fd5b50610373610947366004613239565b6122bb565b34801561095857600080fd5b506019546103b7906001600160a01b031681565b34801561097857600080fd5b5061033e6122ee565b34801561098d57600080fd5b5061033e61099c366004613239565b6001600160a01b031660009081526012602052604090205460ff1690565b600b546001600160a01b031633146109ed5760405162461bcd60e51b81526004016109e49061369b565b60405180910390fd5b601980546001600160a01b0319166001600160a01b0392909216919091179055565b606060078054610a1e906136d0565b80601f0160208091040260200160405190810160405280929190818152602001828054610a4a906136d0565b8015610a975780601f10610a6c57610100808354040283529160200191610a97565b820191906000526020600020905b815481529060010190602001808311610a7a57829003601f168201915b5050505050905090565b6000610aac8261236d565b610b0d5760405162461bcd60e51b815260206004820152602c60248201527f4552433732313a20617070726f76656420717565727920666f72206e6f6e657860448201526b34b9ba32b73a103a37b5b2b760a11b60648201526084016109e4565b506000908152600560205260409020546001600160a01b031690565b6000610b34826115fb565b9050806001600160a01b0316836001600160a01b03161415610ba25760405162461bcd60e51b815260206004820152602160248201527f4552433732313a20617070726f76616c20746f2063757272656e74206f776e656044820152603960f91b60648201526084016109e4565b336001600160a01b0382161480610bbe5750610bbe81336108fe565b610c305760405162461bcd60e51b815260206004820152603860248201527f4552433732313a20617070726f76652063616c6c6572206973206e6f74206f7760448201527f6e6572206e6f7220617070726f76656420666f7220616c6c000000000000000060648201526084016109e4565b610c3a838361237a565b505050565b6018546040516370a0823160e01b81523060048201526000916001600160a01b0316906370a0823190602401602060405180830381865afa158015610c88573d6000803e3d6000fd5b505050506040513d601f19601f82011682018060405250810190610cac919061370b565b905090565b6000610cac60026123e8565b600b546001600160a01b03163314610ce75760405162461bcd60e51b81526004016109e49061369b565b476000610cfc600b546001600160a01b031690565b6001600160a01b03168260405160006040518083038185875af1925050503d8060008114610d46576040519150601f19603f3d011682016040523d82523d6000602084013e610d4b565b606091505b5050905080610d935760405162461bcd60e51b81526020600482015260146024820152732330b4b632b2103a379039b2b7321022ba3432b960611b60448201526064016109e4565b5050565b813b63ffffffff1615610de25760405162461bcd60e51b815260206004820152601360248201527218d85b881b9bdd0818994818dbdb9d1c9858dd606a1b60448201526064016109e4565b6001600160a01b03831660009081526012602052604090205460ff1615610e415760405162461bcd60e51b81526020600482015260136024820152721859191c995cdccb589b1858dadb1a5cdd1959606a1b60448201526064016109e4565b6001600160a01b03821660009081526012602052604090205460ff1615610ea05760405162461bcd60e51b81526020600482015260136024820152721859191c995cdccb589b1858dadb1a5cdd1959606a1b60448201526064016109e4565b610c3a8383836123f3565b600b546001600160a01b03163314610ed55760405162461bcd60e51b81526004016109e49061369b565b601880546001600160a01b0319166001600160a01b0392909216919091179055565b6001600160a01b038116600090815260016020526040812060609190610f1c90612424565b67ffffffffffffffff811115610f3457610f346134e0565b604051908082528060200260200182016040528015610f5d578160200160208202803683370190505b50905060005b6001600160a01b0384166000908152600160205260409020610f8490612424565b811015610fdc576001600160a01b0384166000908152600160205260409020610fad908261242e565b828281518110610fbf57610fbf613724565b602090810291909101015280610fd481613750565b915050610f63565b5092915050565b6001600160a01b0382166000908152600160205260408120611005908361242e565b90505b92915050565b600b546000906001600160a01b0316331461103b5760405162461bcd60e51b81526004016109e49061369b565b600b54600160a01b900460ff161561105257600080fd5b600b805460ff60a01b1916600160a01b1790556040517f6985a02210a168e66602d3235cb6db0e70f92b3ba4d376a33c0f3d9434bff62590600090a150600190565b600b54600160a01b900460ff166110aa57600080fd5b600b546001600160a01b031633146110d45760405162461bcd60e51b81526004016109e49061369b565b6110dc6122ee565b50565b610c3a83838360405180602001604052806000815250611b75565b600b546001600160a01b031633146111245760405162461bcd60e51b81526004016109e49061369b565b6017805463ffffffff909216600160681b0263ffffffff60681b19909216919091179055565b60008061115860028461243a565b509392505050565b600b546001600160a01b0316331461118a5760405162461bcd60e51b81526004016109e49061369b565b6019805460ff60a81b198116600160a81b9182900460ff1615909102179055565b601954600160a01b900460ff166111f35760405162461bcd60e51b815260206004820152600c60248201526b31b0b7103737ba1037b832b760a11b60448201526064016109e4565b600b54600160a01b900460ff161561120a57600080fd5b333b63ffffffff16156112575760405162461bcd60e51b815260206004820152601560248201527418d85b881b9bdd08189948184818dbdb9d1c9858dd605a1b60448201526064016109e4565b60165482146112995760405162461bcd60e51b815260206004820152600e60248201526d1253959053125108105353d5539560921b60448201526064016109e4565b336112a3826115fb565b6001600160a01b0316146112e95760405162461bcd60e51b815260206004820152600d60248201526c3737ba103a34329037bbb732b960991b60448201526064016109e4565b6018546040516323b872dd60e01b8152336004820152306024820152604481018490526001600160a01b03909116906323b872dd906064016020604051808303816000875af1158015611340573d6000803e3d6000fd5b505050506040513d601f19601f82011682018060405250810190611364919061376b565b61136d57600080fd5b6000600d61137c600184613788565b8154811061138c5761138c613724565b60009182526020918290206040805160a081018252600390930290910180546001600160a01b03168352600181015493830193909352600283015460ff8082169284019290925291929160608401916101009091041660068111156113f3576113f36135d2565b6006811115611404576114046135d2565b81526002919091015462010000900467ffffffffffffffff1660209091015260195460608201519192506001600160a01b031690637de166b19033906006811115611451576114516135d2565b60408086015190516001600160e01b031960e086901b1681526001600160a01b03909316600484015260ff9182166024840152166044820152606401600060405180830381600087803b1580156114a757600080fd5b505af11580156114bb573d6000803e3d6000fd5b505050506114c882612456565b7fc4cab6bcbed720e4fd0f5ae56c9207c1583b8081a8f8bd9bbd595363ffcdfed3338383606001516006811115611501576115016135d2565b604080516001600160a01b039094168452602084019290925260ff169082015242606082015260800160405180910390a1505050565b600b546001600160a01b031633146115615760405162461bcd60e51b81526004016109e49061369b565b6018546001600160a01b031663a9059cbb611584600b546001600160a01b031690565b61158c610c3f565b6040516001600160e01b031960e085901b1681526001600160a01b03909216600483015260248201526044016020604051808303816000875af11580156115d7573d6000803e3d6000fd5b505050506040513d601f19601f820116820180604052508101906110dc919061376b565b600061100882604051806060016040528060298152602001613a9c60299139600291906124e5565b600b546001600160a01b0316331461164d5760405162461bcd60e51b81526004016109e49061369b565b6001600160a01b03919091166000908152601260205260409020805460ff1916911515919091179055565b6060600a8054610a1e906136d0565b600b546001600160a01b031633146116b15760405162461bcd60e51b81526004016109e49061369b565b80601060008460068111156116c8576116c86135d2565b60068111156116d9576116d96135d2565b815260200190815260200160002060006101000a81548160ff021916908360ff1602179055505050565b60006001600160a01b03821661176e5760405162461bcd60e51b815260206004820152602a60248201527f4552433732313a2062616c616e636520717565727920666f7220746865207a65604482015269726f206164647265737360b01b60648201526084016109e4565b6001600160a01b038216600090815260016020526040902061100890612424565b600b546001600160a01b031633146117b95760405162461bcd60e51b81526004016109e49061369b565b600b546040516000916001600160a01b0316907f8be0079c531659141344cd1fd0a4f28419497f9722a3daafe3b4186f6b6457e0908390a3600b80546001600160a01b0319169055565b600b546001600160a01b0316331461182d5760405162461bcd60e51b81526004016109e49061369b565b6017805463ffffffff909216600160881b0263ffffffff60881b19909216919091179055565b600b54600160a01b900460ff161561186a57600080fd5b600b546001600160a01b031633146118945760405162461bcd60e51b81526004016109e49061369b565b6110dc61100e565b600b546001600160a01b031633146118c65760405162461bcd60e51b81526004016109e49061369b565b6017805460ff191660ff92909216919091179055565b606060088054610a1e906136d0565b600b546001600160a01b031633146119155760405162461bcd60e51b81526004016109e49061369b565b6000826006811115611929576119296135d2565b14156119695760405162461bcd60e51b815260206004820152600f60248201526e696e76616c6964207061636b61676560881b60448201526064016109e4565b6001600160a01b0383166119bf5760405162461bcd60e51b815260206004820181905260248201527f4552433732313a206d696e7420746f20746865207a65726f206164647265737360448201526064016109e4565b60048260068111156119d3576119d36135d2565b1015611a215760405162461bcd60e51b815260206004820152601c60248201527f666f722067656e203020757365206f7468657220636f6e74726163740000000060448201526064016109e4565b611a2f83600e5484846124fc565b600e8054906000611a3f83613750565b9190505550505050565b6001600160a01b038216331415611aa25760405162461bcd60e51b815260206004820152601960248201527f4552433732313a20617070726f766520746f2063616c6c65720000000000000060448201526064016109e4565b3360008181526006602090815260408083206001600160a01b03871680855290835292819020805460ff191686151590811790915590519081529192917f17307eab39ab6107e8899845ad3d59bd9653f200f220920489ca2b5937696c31910160405180910390a35050565b600b546001600160a01b03163314611b385760405162461bcd60e51b81526004016109e49061369b565b8060116000846006811115611b4f57611b4f6135d2565b6006811115611b6057611b606135d2565b81526020810191909152604001600020555050565b611b7f3383612731565b611b9b5760405162461bcd60e51b81526004016109e49061379f565b611ba78484848461281b565b50505050565b6040805160a081018252600080825260208201819052918101829052606081018290526080810191909152600d611be5600184613788565b81548110611bf557611bf5613724565b60009182526020918290206040805160a081018252600390930290910180546001600160a01b03168352600181015493830193909352600283015460ff808216928401929092529192916060840191610100909104166006811115611c5c57611c5c6135d2565b6006811115611c6d57611c6d6135d2565b81526002919091015462010000900467ffffffffffffffff1660209091015292915050565b600b546001600160a01b03163314611cbc5760405162461bcd60e51b81526004016109e49061369b565b6017805463ffffffff909216600160a81b0263ffffffff60a81b19909216919091179055565b600b546001600160a01b03163314611d0c5760405162461bcd60e51b81526004016109e49061369b565b6019805460ff60a01b198116600160a01b9182900460ff1615909102179055565b6002600c541415611d805760405162461bcd60e51b815260206004820152601f60248201527f5265656e7472616e637947756172643a207265656e7472616e742063616c6c0060448201526064016109e4565b6002600c55601954600160a81b900460ff16611dd45760405162461bcd60e51b81526020600482015260136024820152727061636b61676520756e617661696c61626c6560681b60448201526064016109e4565b600b54600160a01b900460ff1615611deb57600080fd5b601754336000908152600f602052604090205460ff918216911610611e495760405162461bcd60e51b81526020600482015260146024820152731dd85b1b195d0b5c1858dad859d94b5b1a5b5a5d60621b60448201526064016109e4565b6004826006811115611e5d57611e5d6135d2565b1015611eab5760405162461bcd60e51b815260206004820152601c60248201527f666f722067656e203020757365206f7468657220636f6e74726163740000000060448201526064016109e4565b333b63ffffffff1615611ef75760405162461bcd60e51b815260206004820152601460248201527318dbdb9d1c9858dd081b9bdd08185b1b1bddd95960621b60448201526064016109e4565b60116000836006811115611f0d57611f0d6135d2565b6006811115611f1e57611f1e6135d2565b8152602001908152602001600020543414611f6c5760405162461bcd60e51b815260206004820152600e60248201526d1253959053125108105353d5539560921b60448201526064016109e4565b6004826006811115611f8057611f806135d2565b1415611ffa5760175463ffffffff600160681b820481166101009092041610611fbb5760405162461bcd60e51b81526004016109e4906137f0565b60178054610100900463ffffffff16906001611fd683613812565b91906101000a81548163ffffffff021916908363ffffffff160217905550506120e0565b600582600681111561200e5761200e6135d2565b141561206c5760175463ffffffff600160881b8204811665010000000000909204161061204d5760405162461bcd60e51b81526004016109e4906137f0565b6017805465010000000000900463ffffffff16906005611fd683613812565b60175463ffffffff600160a81b82048116600160481b90920416106120a35760405162461bcd60e51b81526004016109e4906137f0565b60178054600160481b900463ffffffff169060096120c083613812565b91906101000a81548163ffffffff021916908363ffffffff160217905550505b6120ee33600e5484846124fc565b336000908152600f602052604090205461210c9060ff166001613836565b336000908152600f60205260408120805460ff191660ff9390931692909217909155600e80549161213c83613750565b90915550506001600c555050565b60606121558261236d565b6121b95760405162461bcd60e51b815260206004820152602f60248201527f4552433732314d657461646174613a2055524920717565727920666f72206e6f60448201526e3732bc34b9ba32b73a103a37b5b2b760891b60648201526084016109e4565b600082815260096020526040812080546121d2906136d0565b80601f01602080910402602001604051908101604052809291908181526020018280546121fe906136d0565b801561224b5780601f106122205761010080835404028352916020019161224b565b820191906000526020600020905b81548152906001019060200180831161222e57829003601f168201915b50505050509050600a805461225f906136d0565b1515905061226d5792915050565b80511561229f57600a81604051602001612288929190613877565b604051602081830303815290604052915050919050565b600a6122aa8461284e565b604051602001612288929190613877565b600b546001600160a01b031633146122e55760405162461bcd60e51b81526004016109e49061369b565b6110dc81612965565b600b546000906001600160a01b0316331461231b5760405162461bcd60e51b81526004016109e49061369b565b600b54600160a01b900460ff1661233157600080fd5b600b805460ff60a01b191690556040517f7805862f689e2f13df9f062ff482ad3ad112aca9e0847911ed832e158c525b3390600090a150600190565b6000611008600283612a26565b600081815260056020526040902080546001600160a01b0319166001600160a01b03841690811790915581906123af826115fb565b6001600160a01b03167f8c5be1e5ebec7d5bd14f71427d1e84f3dd0314c0f7b2291e5b200ac8c7c3b92560405160405180910390a45050565b600061100882612a32565b6123fd3382612731565b6124195760405162461bcd60e51b81526004016109e49061379f565b610c3a838383612a3d565b6000611008825490565b60006110058383612bc9565b60008080806124498686612bf3565b9097909650945050505050565b6000612461826115fb565b905061246f81600084612c1e565b61247a60008361237a565b6001600160a01b038116600090815260016020526040902061249c9083612c35565b506124a8600283612c41565b5060405182906000906001600160a01b038416907fddf252ad1be2c89b69c2b068fc378daa952ba7f163c4a11628f55a4df523b3ef908390a45050565b60006124f2848484612c4d565b90505b9392505050565b60006040518060a00160405280866001600160a01b0316815260200185815260200160106000866006811115612534576125346135d2565b6006811115612545576125456135d2565b81526020808201929092526040016000205460ff1682520184600681111561256f5761256f6135d2565b81526020014267ffffffffffffffff16815250905061259e858560405180602001604052806000815250612c90565b600d805460018101825560009190915281517fd7b6990105719101dabeb77144f2a3385c8033acd3af97e9423a695e81ad1eb5600390920291820180546001600160a01b0319166001600160a01b0390921691909117815560208301517fd7b6990105719101dabeb77144f2a3385c8033acd3af97e9423a695e81ad1eb683015560408301517fd7b6990105719101dabeb77144f2a3385c8033acd3af97e9423a695e81ad1eb7909201805460ff19811660ff90941693841782556060850151859490929161ffff19161761010083600681111561267e5761267e6135d2565b021790555060808201518160020160026101000a81548167ffffffffffffffff021916908367ffffffffffffffff16021790555050507fb1c756a28a26aa12f9134fbacf6c30a5e0db29f35e2aa5aff388e7e46605883d858260200151836060015160068111156126f1576126f16135d2565b604080516001600160a01b039094168452602084019290925260ff1690820152426060820152831515608082015260a00160405180910390a15050505050565b600061273c8261236d565b61279d5760405162461bcd60e51b815260206004820152602c60248201527f4552433732313a206f70657261746f7220717565727920666f72206e6f6e657860448201526b34b9ba32b73a103a37b5b2b760a11b60648201526084016109e4565b60006127a8836115fb565b9050806001600160a01b0316846001600160a01b031614806127e35750836001600160a01b03166127d884610aa1565b6001600160a01b0316145b8061281357506001600160a01b0380821660009081526006602090815260408083209388168352929052205460ff165b949350505050565b612826848484612a3d565b61283284848484612cc3565b611ba75760405162461bcd60e51b81526004016109e49061391e565b6060816128725750506040805180820190915260018152600360fc1b602082015290565b8160005b811561289c578061288681613750565b91506128959050600a83613986565b9150612876565b60008167ffffffffffffffff8111156128b7576128b76134e0565b6040519080825280601f01601f1916602001820160405280156128e1576020820181803683370190505b50905060006128f1600184613788565b90508593505b831561295c57612908600a8561399a565b6129139060306139ae565b60f81b8282612921816139c6565b93508151811061293357612933613724565b60200101906001600160f81b031916908160001a905350612955600a85613986565b93506128f7565b50949350505050565b6001600160a01b0381166129ca5760405162461bcd60e51b815260206004820152602660248201527f4f776e61626c653a206e6577206f776e657220697320746865207a65726f206160448201526564647265737360d01b60648201526084016109e4565b600b546040516001600160a01b038084169216907f8be0079c531659141344cd1fd0a4f28419497f9722a3daafe3b4186f6b6457e090600090a3600b80546001600160a01b0319166001600160a01b0392909216919091179055565b60006110058383612d94565b600061100882612424565b826001600160a01b0316612a50826115fb565b6001600160a01b031614612ab85760405162461bcd60e51b815260206004820152602960248201527f4552433732313a207472616e73666572206f6620746f6b656e2074686174206960448201526839903737ba1037bbb760b91b60648201526084016109e4565b6001600160a01b038216612b1a5760405162461bcd60e51b8152602060048201526024808201527f4552433732313a207472616e7366657220746f20746865207a65726f206164646044820152637265737360e01b60648201526084016109e4565b612b25838383612c1e565b612b3060008261237a565b6001600160a01b0383166000908152600160205260409020612b529082612c35565b506001600160a01b0382166000908152600160205260409020612b759082612da0565b50612b8260028284612dac565b5080826001600160a01b0316846001600160a01b03167fddf252ad1be2c89b69c2b068fc378daa952ba7f163c4a11628f55a4df523b3ef60405160405180910390a4505050565b6000826000018281548110612be057612be0613724565b9060005260206000200154905092915050565b60008080612c01858561242e565b600081815260029690960160205260409095205494959350505050565b600b54600160a01b900460ff1615610c3a57600080fd5b60006110058383612dc2565b60006110058383612eb5565b600082815260028401602052604081205480151580612c715750612c718585612d94565b839061295c5760405162461bcd60e51b81526004016109e491906132ac565b612c9a8383612ed2565b612ca76000848484612cc3565b610c3a5760405162461bcd60e51b81526004016109e49061391e565b60006001600160a01b0384163b612cdc57506001612813565b6000612d5d630a85bd0160e11b33888787604051602401612d0094939291906139dd565b604051602081830303815290604052906001600160e01b0319166020820180516001600160e01b038381831617835250505050604051806060016040528060328152602001613a6a603291396001600160a01b0388169190612ff6565b9050600081806020019051810190612d759190613a1a565b6001600160e01b031916630a85bd0160e11b1492505050949350505050565b60006110058383613005565b6000611005838361301d565b60006124f284846001600160a01b03851661306c565b60008181526001830160205260408120548015612eab576000612de6600183613788565b8554909150600090612dfa90600190613788565b9050818114612e5f576000866000018281548110612e1a57612e1a613724565b9060005260206000200154905080876000018481548110612e3d57612e3d613724565b6000918252602080832090910192909255918252600188019052604090208390555b8554869080612e7057612e70613a37565b600190038181906000526020600020016000905590558560010160008681526020019081526020016000206000905560019350505050611008565b6000915050611008565b600081815260028301602052604081208190556110058383612c35565b6001600160a01b038216612f285760405162461bcd60e51b815260206004820181905260248201527f4552433732313a206d696e7420746f20746865207a65726f206164647265737360448201526064016109e4565b612f318161236d565b15612f7e5760405162461bcd60e51b815260206004820152601c60248201527f4552433732313a20746f6b656e20616c7265616479206d696e7465640000000060448201526064016109e4565b612f8a60008383612c1e565b6001600160a01b0382166000908152600160205260409020612fac9082612da0565b50612fb960028284612dac565b5060405181906001600160a01b038416906000907fddf252ad1be2c89b69c2b068fc378daa952ba7f163c4a11628f55a4df523b3ef908290a45050565b60606124f28484600085613089565b60008181526001830160205260408120541515611005565b600081815260018301602052604081205461306457508154600181810184556000848152602080822090930184905584548482528286019093526040902091909155611008565b506000611008565b600082815260028401602052604081208290556124f28484612da0565b6060824710156130ea5760405162461bcd60e51b815260206004820152602660248201527f416464726573733a20696e73756666696369656e742062616c616e636520666f6044820152651c8818d85b1b60d21b60648201526084016109e4565b843b6131385760405162461bcd60e51b815260206004820152601d60248201527f416464726573733a2063616c6c20746f206e6f6e2d636f6e747261637400000060448201526064016109e4565b600080866001600160a01b031685876040516131549190613a4d565b60006040518083038185875af1925050503d8060008114613191576040519150601f19603f3d011682016040523d82523d6000602084013e613196565b606091505b50915091506131a68282866131b1565b979650505050505050565b606083156131c05750816124f5565b8251156131d05782518084602001fd5b8160405162461bcd60e51b81526004016109e491906132ac565b6001600160e01b0319811681146110dc57600080fd5b60006020828403121561321257600080fd5b81356124f5816131ea565b80356001600160a01b038116811461323457600080fd5b919050565b60006020828403121561324b57600080fd5b6110058261321d565b60005b8381101561326f578181015183820152602001613257565b83811115611ba75750506000910152565b60008151808452613298816020860160208601613254565b601f01601f19169290920160200192915050565b6020815260006110056020830184613280565b6000602082840312156132d157600080fd5b5035919050565b600080604083850312156132eb57600080fd5b6132f48361321d565b946020939093013593505050565b60008060006060848603121561331757600080fd5b6133208461321d565b925061332e6020850161321d565b9150604084013590509250925092565b6020808252825182820181905260009190848201906040850190845b818110156133765783518352928401929184019160010161335a565b50909695505050505050565b60006020828403121561339457600080fd5b813563ffffffff811681146124f557600080fd5b600080604083850312156133bb57600080fd5b50508035926020909101359150565b80151581146110dc57600080fd5b600080604083850312156133eb57600080fd5b6133f48361321d565b91506020830135613404816133ca565b809150509250929050565b80356007811061323457600080fd5b803560ff8116811461323457600080fd5b6000806040838503121561344257600080fd5b61344b8361340f565b91506134596020840161341e565b90509250929050565b60006020828403121561347457600080fd5b6110058261341e565b60008060006060848603121561349257600080fd5b61349b8461321d565b92506134a96020850161340f565b915060408401356134b9816133ca565b809150509250925092565b600080604083850312156134d757600080fd5b6132f48361340f565b634e487b7160e01b600052604160045260246000fd5b6000806000806080858703121561350c57600080fd5b6135158561321d565b93506135236020860161321d565b925060408501359150606085013567ffffffffffffffff8082111561354757600080fd5b818701915087601f83011261355b57600080fd5b81358181111561356d5761356d6134e0565b604051601f8201601f19908116603f01168101908382118183101715613595576135956134e0565b816040528281528a60208487010111156135ae57600080fd5b82602086016020830137600060208483010152809550505050505092959194509250565b634e487b7160e01b600052602160045260246000fd5b81516001600160a01b031681526020808301519082015260408083015160ff1690820152606082015160a08201906007811061363457634e487b7160e01b600052602160045260246000fd5b8060608401525067ffffffffffffffff608084015116608083015292915050565b6000806040838503121561366857600080fd5b6133f48361340f565b6000806040838503121561368457600080fd5b61368d8361321d565b91506134596020840161321d565b6020808252818101527f4f776e61626c653a2063616c6c6572206973206e6f7420746865206f776e6572604082015260600190565b600181811c908216806136e457607f821691505b6020821081141561370557634e487b7160e01b600052602260045260246000fd5b50919050565b60006020828403121561371d57600080fd5b5051919050565b634e487b7160e01b600052603260045260246000fd5b634e487b7160e01b600052601160045260246000fd5b60006000198214156137645761376461373a565b5060010190565b60006020828403121561377d57600080fd5b81516124f5816133ca565b60008282101561379a5761379a61373a565b500390565b60208082526031908201527f4552433732313a207472616e736665722063616c6c6572206973206e6f74206f6040820152701ddb995c881b9bdc88185c1c1c9bdd9959607a1b606082015260800190565b6020808252600890820152671cdbdb19081bdd5d60c21b604082015260600190565b600063ffffffff8083168181141561382c5761382c61373a565b6001019392505050565b600060ff821660ff84168060ff038211156138535761385361373a565b019392505050565b6000815161386d818560208601613254565b9290920192915050565b600080845481600182811c91508083168061389357607f831692505b60208084108214156138b357634e487b7160e01b86526022600452602486fd5b8180156138c757600181146138d857613905565b60ff19861689528489019650613905565b60008b81526020902060005b868110156138fd5781548b8201529085019083016138e4565b505084890196505b505050505050613915818561385b565b95945050505050565b60208082526032908201527f4552433732313a207472616e7366657220746f206e6f6e20455243373231526560408201527131b2b4bb32b91034b6b83632b6b2b73a32b960711b606082015260800190565b634e487b7160e01b600052601260045260246000fd5b60008261399557613995613970565b500490565b6000826139a9576139a9613970565b500690565b600082198211156139c1576139c161373a565b500190565b6000816139d5576139d561373a565b506000190190565b6001600160a01b0385811682528416602082015260408101839052608060608201819052600090613a1090830184613280565b9695505050505050565b600060208284031215613a2c57600080fd5b81516124f5816131ea565b634e487b7160e01b600052603160045260246000fd5b60008251613a5f818460208701613254565b919091019291505056fe4552433732313a207472616e7366657220746f206e6f6e20455243373231526563656976657220696d706c656d656e7465724552433732313a206f776e657220717565727920666f72206e6f6e6578697374656e7420746f6b656ea26469706673582212208d117822417081ec676850d544c11b2aec835a7b860ea526ee752a5abef39f5964736f6c634300080b00334f776e61626c653a2063616c6c6572206973206e6f7420746865206f776e6572",
  "immutableReferences": {},
  "source": "// SPDX-License-Identifier: MIT\r\npragma solidity ^0.8.2;\r\n\r\nimport \"./IBEP20.sol\";\r\nimport \"./IMarketplace.sol\";\r\nimport \"./Ownable.sol\";\r\nimport \"./ERC721.sol\";\r\nimport \"./ERC721Pausable.sol\";\r\nimport \"./IRobotCore.sol\";\r\nimport \"./ReentrancyGuard.sol\";\r\n\r\ncontract RobotPackageGen1 is Ownable, ERC721Pausable, ReentrancyGuard {\r\n    struct Package {\r\n        address owner;\r\n        uint256 packageId; // id of the package\r\n        uint8 robotQuantity; // quantity of robots on this package\r\n        PackageType packageType; //package type\r\n        uint64 birthTime; // The timestamp from the block when this package came into existence.\r\n    }\r\n\r\n    enum PackageType {\r\n        Default,\r\n        First,\r\n        Second,\r\n        Third,\r\n        Fourth,\r\n        Fifth,\r\n        Sixth\r\n    }\r\n\r\n    /*** STORAGE ***/\r\n    /// @dev An array containing the package struct for all packages in existence. The ID\r\n    ///  of each package is actually an index into this array.\r\n    Package[] packages;\r\n\r\n    event PackageCreatedGen1(\r\n        address to,\r\n        uint256 packId,\r\n        uint8 packageType,\r\n        uint256 date,\r\n        bool isPresale\r\n    );\r\n\r\n    event UnpackedGen1(\r\n        address owner,\r\n        uint256 packId,\r\n        uint8 packageType,\r\n        uint256 date\r\n    );\r\n\r\n    /* PACKAGE VARIABLES */\r\n    uint256 private nextPackageTokenId = 1;\r\n\r\n    mapping(address => uint8) walletPackages;\r\n    mapping(PackageType => uint8) private _packageTypeRobots;\r\n    mapping(PackageType => uint256) private _packageTypePrice;\r\n    mapping(address => bool) private banBlackList;\r\n\r\n    uint256 private priceFirstPackage = 0.2 * 10**18;\r\n    uint256 private priceSecondPackage = 0.5 * 10**18;\r\n    uint256 private priceThirdPackage = 0.9 * 10**18;\r\n    uint256 private openPackagePrice = 5 * 10**18;\r\n    uint8 private totalPackagesOwner = 100;\r\n\r\n    uint32 firstPackageCount;\r\n    uint32 secondPackageCount;\r\n    uint32 thirdPackageCount;\r\n    uint32 firstPackageLimit = 400;\r\n    uint32 secondPackageLimit = 200;\r\n    uint32 thirdPackageLimit = 100;\r\n\r\n    address public _mekaAddress;\r\n    address public _robotCoreAddress;\r\n    bool public canUnpack;\r\n    bool public isPackageAvailable;\r\n\r\n    constructor() ERC721(\"Mekabot Pkg\", \"MekabotPkg\") {\r\n        //Package Configs\r\n        canUnpack = false;\r\n        isPackageAvailable = false;\r\n\r\n        setPackageTypePrice(PackageType.Fourth, priceFirstPackage);\r\n        setPackageTypePrice(PackageType.Fifth, priceSecondPackage);\r\n        setPackageTypePrice(PackageType.Sixth, priceThirdPackage);\r\n\r\n        setPackageTypeRobots(PackageType.Fourth, 1);\r\n        setPackageTypeRobots(PackageType.Fifth, 2);\r\n        setPackageTypeRobots(PackageType.Sixth, 3);\r\n    }\r\n\r\n    function isBlacklisted(address addr) external view returns (bool) {\r\n        return banBlackList[addr];\r\n    }\r\n\r\n    function setBlackList(address wallet, bool isBanned) external onlyOwner {\r\n        banBlackList[wallet] = isBanned;\r\n    }\r\n\r\n    function setPackageLimit(uint8 limit) external onlyOwner {\r\n        totalPackagesOwner = limit;\r\n    }\r\n\r\n    function setTokenAddress(address _addr) external onlyOwner {\r\n        _mekaAddress = _addr;\r\n    }\r\n\r\n    function setRobotAddress(address robotAddress) external onlyOwner {\r\n        _robotCoreAddress = robotAddress;\r\n    }\r\n\r\n    function setFirstPackageLimit(uint32 quantity) external onlyOwner {\r\n        firstPackageLimit = quantity;\r\n    }\r\n\r\n    function setSecondPackageLimit(uint32 quantity) external onlyOwner {\r\n        secondPackageLimit = quantity;\r\n    }\r\n\r\n    function setThirdPackageLimit(uint32 quantity) external onlyOwner {\r\n        thirdPackageLimit = quantity;\r\n    }\r\n\r\n    function setPackageTypePrice(PackageType _packageType, uint256 amount)\r\n        public\r\n        onlyOwner\r\n    {\r\n        _packageTypePrice[_packageType] = amount;\r\n    }\r\n\r\n    function setPackageTypeRobots(PackageType _packageType, uint8 quantity)\r\n        public\r\n        onlyOwner\r\n    {\r\n        _packageTypeRobots[_packageType] = quantity;\r\n    }\r\n\r\n    function updateCanUnpack() external onlyOwner {\r\n        canUnpack = !canUnpack;\r\n    }\r\n\r\n    function updatePackageAvailable() external onlyOwner {\r\n        isPackageAvailable = !isPackageAvailable;\r\n    }\r\n\r\n    modifier canOpen() {\r\n        require(canUnpack, \"can not open\");\r\n        _;\r\n    }\r\n\r\n    modifier packageAvailable() {\r\n        require(isPackageAvailable, \"package unavailable\");\r\n        _;\r\n    }\r\n\r\n    function withdrawBalance() external onlyOwner {\r\n        IBEP20(_mekaAddress).transfer(owner(), getBalance());\r\n    }\r\n\r\n    function withdrawBnb() external onlyOwner {\r\n        uint256 amount = address(this).balance;\r\n\r\n        (bool success, ) = payable(owner()).call{value: amount}(\"\");\r\n        require(success, \"Failed to send Ether\");\r\n    }\r\n\r\n    function getBalance() public view returns (uint256) {\r\n        return IBEP20(_mekaAddress).balanceOf(address(this));\r\n    }\r\n\r\n    function getBnbBalance() public view returns (uint256) {\r\n        return address(this).balance;\r\n    }\r\n\r\n    function pause() public whenNotPaused onlyOwner {\r\n        _pause();\r\n    }\r\n\r\n    function unpause() public whenPaused onlyOwner {\r\n        _unpause();\r\n    }\r\n\r\n    /* ROBOT PACKAGE */\r\n    function _mintPackage(\r\n        address _to,\r\n        uint256 _tokenId,\r\n        PackageType _packageType,\r\n        bool isPresale\r\n    ) private {\r\n        Package memory _package = Package({\r\n            owner: _to,\r\n            packageType: _packageType,\r\n            packageId: _tokenId,\r\n            robotQuantity: _packageTypeRobots[_packageType],\r\n            birthTime: uint64(block.timestamp)\r\n        });\r\n\r\n        _safeMint(_to, _tokenId, \"\");\r\n        packages.push(_package);\r\n\r\n        emit PackageCreatedGen1(\r\n            _to,\r\n            _package.packageId,\r\n            uint8(_package.packageType),\r\n            block.timestamp,\r\n            isPresale\r\n        );\r\n    }\r\n\r\n    function createPackage(PackageType _packageType, bool _isPresale)\r\n        external\r\n        payable\r\n        nonReentrant\r\n        packageAvailable\r\n        whenNotPaused\r\n    {\r\n        require(\r\n            walletPackages[msg.sender] < totalPackagesOwner,\r\n            \"wallet-package-limit\"\r\n        );\r\n        require(\r\n            _packageType >= PackageType.Fourth,\r\n            \"for gen 0 use other contract\"\r\n        );\r\n        require(!isContract(msg.sender), \"contract not allowed\");\r\n        require(msg.value == _packageTypePrice[_packageType], \"INVALID AMOUNT\");\r\n\r\n        if (_packageType == PackageType.Fourth) {\r\n            require(firstPackageCount < firstPackageLimit, \"sold out\");\r\n            firstPackageCount++;\r\n        } else if (_packageType == PackageType.Fifth) {\r\n            require(secondPackageCount < secondPackageLimit, \"sold out\");\r\n            secondPackageCount++;\r\n        } else {\r\n            require(thirdPackageCount < thirdPackageLimit, \"sold out\");\r\n            thirdPackageCount++;\r\n        }\r\n\r\n        _mintPackage(msg.sender, nextPackageTokenId, _packageType, _isPresale);\r\n        walletPackages[msg.sender] = walletPackages[msg.sender] + 1;\r\n        nextPackageTokenId++;\r\n    }\r\n\r\n    function createPackageExtra(\r\n        address _to,\r\n        PackageType _packageType,\r\n        bool _isPresale\r\n    ) external onlyOwner {\r\n        require(_packageType != PackageType.Default, \"invalid package\");\r\n        require(_to != address(0), \"ERC721: mint to the zero address\");\r\n        require(\r\n            _packageType >= PackageType.Fourth,\r\n            \"for gen 0 use other contract\"\r\n        );\r\n        _mintPackage(_to, nextPackageTokenId, _packageType, _isPresale);\r\n        nextPackageTokenId++;\r\n    }\r\n\r\n    function openPackage(uint256 _amount, uint256 _tokenId)\r\n        external\r\n        canOpen\r\n        whenNotPaused\r\n    {\r\n        require(!isContract(msg.sender), \"can not be a contract\");\r\n        require(_amount == openPackagePrice, \"INVALID AMOUNT\");\r\n        require(ownerOf(_tokenId) == msg.sender, \"not the owner\");\r\n        require(\r\n            IBEP20(_mekaAddress).transferFrom(\r\n                msg.sender,\r\n                address(this),\r\n                _amount\r\n            )\r\n        );\r\n\r\n        Package memory package = packages[_tokenId - 1];\r\n\r\n        IRobotCore(_robotCoreAddress).createRobotFromBundle(\r\n            msg.sender,\r\n            uint8(package.packageType),\r\n            package.robotQuantity\r\n        );\r\n\r\n        _burn(_tokenId);\r\n\r\n        emit UnpackedGen1(\r\n            msg.sender,\r\n            _tokenId,\r\n            uint8(package.packageType),\r\n            block.timestamp\r\n        );\r\n    }\r\n\r\n    /**\r\n     * @dev Identify an address is user address or contract address\r\n     */\r\n    function isContract(address _address) private view returns (bool) {\r\n        uint32 size;\r\n        assembly {\r\n            size := extcodesize(_address)\r\n        }\r\n        return (size > 0);\r\n    }\r\n\r\n    function getPackagesCount()\r\n        external\r\n        view\r\n        returns (\r\n            uint32 _firstPackageCount,\r\n            uint32 _secondPackageCount,\r\n            uint32 _thirdPackageCount\r\n        )\r\n    {\r\n        _firstPackageCount = firstPackageCount;\r\n        _secondPackageCount = secondPackageCount;\r\n        _thirdPackageCount = thirdPackageCount;\r\n    }\r\n\r\n    function getPackage(uint256 _id)\r\n        public\r\n        view\r\n        returns (Package memory package)\r\n    {\r\n        package = packages[_id - 1];\r\n    }\r\n\r\n    function transferFrom(\r\n        address _from,\r\n        address _receiver,\r\n        uint256 _tokenId\r\n    ) public override {\r\n        require(!isContract(_receiver), \"can not be contract\");\r\n        require(!banBlackList[_from], \"address-blacklisted\");\r\n        require(!banBlackList[_receiver], \"address-blacklisted\");\r\n\r\n        super.transferFrom(_from, _receiver, _tokenId);\r\n    }\r\n}\r\n",
  "sourcePath": "E:\\MekaMiners\\contracts\\RobotPackageGen1.sol",
  "compiler": {
    "name": "solc",
    "version": "0.8.11+commit.d7f03943.Emscripten.clang"
  },
  "schemaVersion": "3.4.3",
  "updatedAt": "2022-01-03T15:19:31.100Z",
  "networkType": "ethereum",
  "devdoc": {
    "kind": "dev",
    "methods": {
      "_pause()": {
        "details": "called by the owner to pause, triggers stopped state"
      },
      "_unpause()": {
        "details": "called by the owner to unpause, returns to normal state"
      },
      "approve(address,uint256)": {
        "details": "See {IERC721-approve}."
      },
      "balanceOf(address)": {
        "details": "See {IERC721-balanceOf}."
      },
      "baseURI()": {
        "details": "Returns the base URI set via {_setBaseURI}. This will be automatically added as a prefix in {tokenURI} to each token's URI, or to the token ID if no specific URI is set for that token ID."
      },
      "getApproved(uint256)": {
        "details": "See {IERC721-getApproved}."
      },
      "isApprovedForAll(address,address)": {
        "details": "See {IERC721-isApprovedForAll}."
      },
      "isOwner()": {
        "details": "Returns true if the caller is the current owner."
      },
      "name()": {
        "details": "See {IERC721Metadata-name}."
      },
      "owner()": {
        "details": "Returns the address of the current owner."
      },
      "ownerOf(uint256)": {
        "details": "See {IERC721-ownerOf}."
      },
      "renounceOwnership()": {
        "details": "Leaves the contract without owner. It will not be possible to call `onlyOwner` functions anymore. Can only be called by the current owner. NOTE: Renouncing ownership will leave the contract without an owner, thereby removing any functionality that is only available to the owner."
      },
      "safeTransferFrom(address,address,uint256)": {
        "details": "See {IERC721-safeTransferFrom}."
      },
      "safeTransferFrom(address,address,uint256,bytes)": {
        "details": "See {IERC721-safeTransferFrom}."
      },
      "setApprovalForAll(address,bool)": {
        "details": "See {IERC721-setApprovalForAll}."
      },
      "supportsInterface(bytes4)": {
        "details": "See {IERC165-supportsInterface}. Time complexity O(1), guaranteed to always use less than 30 000 gas."
      },
      "symbol()": {
        "details": "See {IERC721Metadata-symbol}."
      },
      "tokenByIndex(uint256)": {
        "details": "See {IERC721Enumerable-tokenByIndex}."
      },
      "tokenOfOwner(address)": {
        "details": "See {IERC721Enumerable-tokenOfOwner}."
      },
      "tokenOfOwnerByIndex(address,uint256)": {
        "details": "See {IERC721Enumerable-tokenOfOwnerByIndex}."
      },
      "tokenURI(uint256)": {
        "details": "See {IERC721Metadata-tokenURI}."
      },
      "totalSupply()": {
        "details": "See {IERC721Enumerable-totalSupply}."
      },
      "transferOwnership(address)": {
        "details": "Transfers ownership of the contract to a new account (`newOwner`). Can only be called by the current owner."
      }
    },
    "stateVariables": {
      "packages": {
        "details": "An array containing the package struct for all packages in existence. The ID  of each package is actually an index into this array."
      }
    },
    "version": 1
  },
  "userdoc": {
    "kind": "user",
    "methods": {},
    "version": 1
  }
}