{
  "contractName": "RobotCore",
  "abi": [
    {
      "inputs": [
        {
          "internalType": "address",
          "name": "_mekaToken",
          "type": "address"
        }
      ],
      "stateMutability": "nonpayable",
      "type": "constructor"
    },
    {
      "anonymous": false,
      "inputs": [
        {
          "indexed": true,
          "internalType": "address",
          "name": "owner",
          "type": "address"
        },
        {
          "indexed": true,
          "internalType": "address",
          "name": "approved",
          "type": "address"
        },
        {
          "indexed": true,
          "internalType": "uint256",
          "name": "tokenId",
          "type": "uint256"
        }
      ],
      "name": "Approval",
      "type": "event"
    },
    {
      "anonymous": false,
      "inputs": [
        {
          "indexed": true,
          "internalType": "address",
          "name": "owner",
          "type": "address"
        },
        {
          "indexed": true,
          "internalType": "address",
          "name": "operator",
          "type": "address"
        },
        {
          "indexed": false,
          "internalType": "bool",
          "name": "approved",
          "type": "bool"
        }
      ],
      "name": "ApprovalForAll",
      "type": "event"
    },
    {
      "anonymous": false,
      "inputs": [
        {
          "indexed": false,
          "internalType": "address",
          "name": "owner",
          "type": "address"
        },
        {
          "indexed": false,
          "internalType": "uint256",
          "name": "tokenId",
          "type": "uint256"
        },
        {
          "indexed": false,
          "internalType": "uint256",
          "name": "date",
          "type": "uint256"
        }
      ],
      "name": "Birth",
      "type": "event"
    },
    {
      "anonymous": false,
      "inputs": [
        {
          "indexed": false,
          "internalType": "address",
          "name": "from",
          "type": "address"
        },
        {
          "indexed": false,
          "internalType": "uint256[]",
          "name": "robotIds",
          "type": "uint256[]"
        },
        {
          "indexed": false,
          "internalType": "uint8",
          "name": "packageType",
          "type": "uint8"
        },
        {
          "indexed": false,
          "internalType": "uint8",
          "name": "gen",
          "type": "uint8"
        },
        {
          "indexed": false,
          "internalType": "uint256",
          "name": "date",
          "type": "uint256"
        }
      ],
      "name": "MintedRobotFromBundle",
      "type": "event"
    },
    {
      "anonymous": false,
      "inputs": [
        {
          "indexed": true,
          "internalType": "address",
          "name": "previousOwner",
          "type": "address"
        },
        {
          "indexed": true,
          "internalType": "address",
          "name": "newOwner",
          "type": "address"
        }
      ],
      "name": "OwnershipTransferred",
      "type": "event"
    },
    {
      "anonymous": false,
      "inputs": [],
      "name": "Pause",
      "type": "event"
    },
    {
      "anonymous": false,
      "inputs": [
        {
          "indexed": false,
          "internalType": "address",
          "name": "owner",
          "type": "address"
        },
        {
          "indexed": false,
          "internalType": "uint256",
          "name": "robotId",
          "type": "uint256"
        },
        {
          "indexed": false,
          "internalType": "uint256",
          "name": "pieceId",
          "type": "uint256"
        },
        {
          "indexed": false,
          "internalType": "uint8",
          "name": "pieceType",
          "type": "uint8"
        },
        {
          "indexed": false,
          "internalType": "uint256",
          "name": "date",
          "type": "uint256"
        }
      ],
      "name": "PieceAttached",
      "type": "event"
    },
    {
      "anonymous": false,
      "inputs": [
        {
          "indexed": false,
          "internalType": "address",
          "name": "from",
          "type": "address"
        },
        {
          "indexed": false,
          "internalType": "uint256",
          "name": "tokenId",
          "type": "uint256"
        },
        {
          "indexed": false,
          "internalType": "bool",
          "name": "withOre",
          "type": "bool"
        },
        {
          "indexed": false,
          "internalType": "uint256",
          "name": "date",
          "type": "uint256"
        }
      ],
      "name": "RobotCreated",
      "type": "event"
    },
    {
      "anonymous": false,
      "inputs": [
        {
          "indexed": true,
          "internalType": "address",
          "name": "from",
          "type": "address"
        },
        {
          "indexed": true,
          "internalType": "address",
          "name": "to",
          "type": "address"
        },
        {
          "indexed": true,
          "internalType": "uint256",
          "name": "tokenId",
          "type": "uint256"
        }
      ],
      "name": "Transfer",
      "type": "event"
    },
    {
      "anonymous": false,
      "inputs": [],
      "name": "Unpause",
      "type": "event"
    },
    {
      "inputs": [],
      "name": "_pause",
      "outputs": [
        {
          "internalType": "bool",
          "name": "",
          "type": "bool"
        }
      ],
      "stateMutability": "nonpayable",
      "type": "function"
    },
    {
      "inputs": [],
      "name": "_unpause",
      "outputs": [
        {
          "internalType": "bool",
          "name": "",
          "type": "bool"
        }
      ],
      "stateMutability": "nonpayable",
      "type": "function"
    },
    {
      "inputs": [
        {
          "internalType": "address",
          "name": "to",
          "type": "address"
        },
        {
          "internalType": "uint256",
          "name": "tokenId",
          "type": "uint256"
        }
      ],
      "name": "approve",
      "outputs": [],
      "stateMutability": "nonpayable",
      "type": "function"
    },
    {
      "inputs": [
        {
          "internalType": "address",
          "name": "owner",
          "type": "address"
        }
      ],
      "name": "balanceOf",
      "outputs": [
        {
          "internalType": "uint256",
          "name": "",
          "type": "uint256"
        }
      ],
      "stateMutability": "view",
      "type": "function",
      "constant": true
    },
    {
      "inputs": [],
      "name": "baseURI",
      "outputs": [
        {
          "internalType": "string",
          "name": "",
          "type": "string"
        }
      ],
      "stateMutability": "view",
      "type": "function",
      "constant": true
    },
    {
      "inputs": [
        {
          "internalType": "uint256",
          "name": "tokenId",
          "type": "uint256"
        }
      ],
      "name": "getApproved",
      "outputs": [
        {
          "internalType": "address",
          "name": "",
          "type": "address"
        }
      ],
      "stateMutability": "view",
      "type": "function",
      "constant": true
    },
    {
      "inputs": [
        {
          "internalType": "address",
          "name": "owner",
          "type": "address"
        },
        {
          "internalType": "address",
          "name": "operator",
          "type": "address"
        }
      ],
      "name": "isApprovedForAll",
      "outputs": [
        {
          "internalType": "bool",
          "name": "",
          "type": "bool"
        }
      ],
      "stateMutability": "view",
      "type": "function",
      "constant": true
    },
    {
      "inputs": [],
      "name": "isOwner",
      "outputs": [
        {
          "internalType": "bool",
          "name": "",
          "type": "bool"
        }
      ],
      "stateMutability": "view",
      "type": "function",
      "constant": true
    },
    {
      "inputs": [],
      "name": "name",
      "outputs": [
        {
          "internalType": "string",
          "name": "",
          "type": "string"
        }
      ],
      "stateMutability": "view",
      "type": "function",
      "constant": true
    },
    {
      "inputs": [],
      "name": "owner",
      "outputs": [
        {
          "internalType": "address",
          "name": "",
          "type": "address"
        }
      ],
      "stateMutability": "view",
      "type": "function",
      "constant": true
    },
    {
      "inputs": [
        {
          "internalType": "uint256",
          "name": "tokenId",
          "type": "uint256"
        }
      ],
      "name": "ownerOf",
      "outputs": [
        {
          "internalType": "address",
          "name": "",
          "type": "address"
        }
      ],
      "stateMutability": "view",
      "type": "function",
      "constant": true
    },
    {
      "inputs": [],
      "name": "paused",
      "outputs": [
        {
          "internalType": "bool",
          "name": "",
          "type": "bool"
        }
      ],
      "stateMutability": "view",
      "type": "function",
      "constant": true
    },
    {
      "inputs": [],
      "name": "renounceOwnership",
      "outputs": [],
      "stateMutability": "nonpayable",
      "type": "function"
    },
    {
      "inputs": [
        {
          "internalType": "address",
          "name": "from",
          "type": "address"
        },
        {
          "internalType": "address",
          "name": "to",
          "type": "address"
        },
        {
          "internalType": "uint256",
          "name": "tokenId",
          "type": "uint256"
        }
      ],
      "name": "safeTransferFrom",
      "outputs": [],
      "stateMutability": "nonpayable",
      "type": "function"
    },
    {
      "inputs": [
        {
          "internalType": "address",
          "name": "from",
          "type": "address"
        },
        {
          "internalType": "address",
          "name": "to",
          "type": "address"
        },
        {
          "internalType": "uint256",
          "name": "tokenId",
          "type": "uint256"
        },
        {
          "internalType": "bytes",
          "name": "_data",
          "type": "bytes"
        }
      ],
      "name": "safeTransferFrom",
      "outputs": [],
      "stateMutability": "nonpayable",
      "type": "function"
    },
    {
      "inputs": [
        {
          "internalType": "address",
          "name": "operator",
          "type": "address"
        },
        {
          "internalType": "bool",
          "name": "approved",
          "type": "bool"
        }
      ],
      "name": "setApprovalForAll",
      "outputs": [],
      "stateMutability": "nonpayable",
      "type": "function"
    },
    {
      "inputs": [
        {
          "internalType": "bytes4",
          "name": "interfaceId",
          "type": "bytes4"
        }
      ],
      "name": "supportsInterface",
      "outputs": [
        {
          "internalType": "bool",
          "name": "",
          "type": "bool"
        }
      ],
      "stateMutability": "view",
      "type": "function",
      "constant": true
    },
    {
      "inputs": [],
      "name": "symbol",
      "outputs": [
        {
          "internalType": "string",
          "name": "",
          "type": "string"
        }
      ],
      "stateMutability": "view",
      "type": "function",
      "constant": true
    },
    {
      "inputs": [
        {
          "internalType": "uint256",
          "name": "index",
          "type": "uint256"
        }
      ],
      "name": "tokenByIndex",
      "outputs": [
        {
          "internalType": "uint256",
          "name": "",
          "type": "uint256"
        }
      ],
      "stateMutability": "view",
      "type": "function",
      "constant": true
    },
    {
      "inputs": [
        {
          "internalType": "address",
          "name": "owner",
          "type": "address"
        }
      ],
      "name": "tokenOfOwner",
      "outputs": [
        {
          "internalType": "uint256[]",
          "name": "",
          "type": "uint256[]"
        }
      ],
      "stateMutability": "view",
      "type": "function",
      "constant": true
    },
    {
      "inputs": [
        {
          "internalType": "address",
          "name": "owner",
          "type": "address"
        },
        {
          "internalType": "uint256",
          "name": "index",
          "type": "uint256"
        }
      ],
      "name": "tokenOfOwnerByIndex",
      "outputs": [
        {
          "internalType": "uint256",
          "name": "",
          "type": "uint256"
        }
      ],
      "stateMutability": "view",
      "type": "function",
      "constant": true
    },
    {
      "inputs": [
        {
          "internalType": "uint256",
          "name": "tokenId",
          "type": "uint256"
        }
      ],
      "name": "tokenURI",
      "outputs": [
        {
          "internalType": "string",
          "name": "",
          "type": "string"
        }
      ],
      "stateMutability": "view",
      "type": "function",
      "constant": true
    },
    {
      "inputs": [],
      "name": "totalSupply",
      "outputs": [
        {
          "internalType": "uint256",
          "name": "",
          "type": "uint256"
        }
      ],
      "stateMutability": "view",
      "type": "function",
      "constant": true
    },
    {
      "inputs": [
        {
          "internalType": "address",
          "name": "from",
          "type": "address"
        },
        {
          "internalType": "address",
          "name": "to",
          "type": "address"
        },
        {
          "internalType": "uint256",
          "name": "tokenId",
          "type": "uint256"
        }
      ],
      "name": "transferFrom",
      "outputs": [],
      "stateMutability": "nonpayable",
      "type": "function"
    },
    {
      "inputs": [
        {
          "internalType": "address",
          "name": "newOwner",
          "type": "address"
        }
      ],
      "name": "transferOwnership",
      "outputs": [],
      "stateMutability": "nonpayable",
      "type": "function"
    },
    {
      "inputs": [],
      "name": "getPricesData",
      "outputs": [
        {
          "internalType": "uint256",
          "name": "_bnbFee",
          "type": "uint256"
        },
        {
          "internalType": "uint256",
          "name": "_robotPrice",
          "type": "uint256"
        },
        {
          "internalType": "uint256",
          "name": "_attachPrice",
          "type": "uint256"
        }
      ],
      "stateMutability": "view",
      "type": "function",
      "constant": true
    },
    {
      "inputs": [],
      "name": "getAddressesData",
      "outputs": [
        {
          "internalType": "address",
          "name": "tokenAddress",
          "type": "address"
        },
        {
          "internalType": "address",
          "name": "marketPlaceAddress",
          "type": "address"
        },
        {
          "internalType": "address",
          "name": "mekaDeployer",
          "type": "address"
        },
        {
          "internalType": "address",
          "name": "robotPackageGen0",
          "type": "address"
        },
        {
          "internalType": "address",
          "name": "robotPackageGen1",
          "type": "address"
        }
      ],
      "stateMutability": "view",
      "type": "function",
      "constant": true
    },
    {
      "inputs": [],
      "name": "getBooleansData",
      "outputs": [
        {
          "internalType": "bool",
          "name": "_isBurn",
          "type": "bool"
        },
        {
          "internalType": "bool",
          "name": "_canReplacePiece",
          "type": "bool"
        },
        {
          "internalType": "bool",
          "name": "_acceptContracts",
          "type": "bool"
        },
        {
          "internalType": "bool",
          "name": "_isRobotFactoryOpen",
          "type": "bool"
        }
      ],
      "stateMutability": "view",
      "type": "function",
      "constant": true
    },
    {
      "inputs": [
        {
          "internalType": "address",
          "name": "owner",
          "type": "address"
        }
      ],
      "name": "getHasNFT",
      "outputs": [
        {
          "internalType": "bool",
          "name": "",
          "type": "bool"
        }
      ],
      "stateMutability": "view",
      "type": "function",
      "constant": true
    },
    {
      "inputs": [],
      "name": "updateAcceptContract",
      "outputs": [],
      "stateMutability": "nonpayable",
      "type": "function"
    },
    {
      "inputs": [],
      "name": "updateCanReplacePiece",
      "outputs": [],
      "stateMutability": "nonpayable",
      "type": "function"
    },
    {
      "inputs": [
        {
          "internalType": "address",
          "name": "addr",
          "type": "address"
        }
      ],
      "name": "isBlacklisted",
      "outputs": [
        {
          "internalType": "bool",
          "name": "",
          "type": "bool"
        }
      ],
      "stateMutability": "view",
      "type": "function",
      "constant": true
    },
    {
      "inputs": [
        {
          "internalType": "address",
          "name": "wallet",
          "type": "address"
        },
        {
          "internalType": "bool",
          "name": "isBlackListed",
          "type": "bool"
        }
      ],
      "name": "setBlackList",
      "outputs": [],
      "stateMutability": "nonpayable",
      "type": "function"
    },
    {
      "inputs": [
        {
          "internalType": "string",
          "name": "baseUri",
          "type": "string"
        }
      ],
      "name": "setBaseUri",
      "outputs": [],
      "stateMutability": "nonpayable",
      "type": "function"
    },
    {
      "inputs": [
        {
          "internalType": "uint8",
          "name": "limit",
          "type": "uint8"
        }
      ],
      "name": "setPackageLimit",
      "outputs": [],
      "stateMutability": "nonpayable",
      "type": "function"
    },
    {
      "inputs": [
        {
          "internalType": "uint256",
          "name": "_attachPrice",
          "type": "uint256"
        }
      ],
      "name": "setAttachPriceLimit",
      "outputs": [],
      "stateMutability": "nonpayable",
      "type": "function"
    },
    {
      "inputs": [
        {
          "internalType": "uint256",
          "name": "fee",
          "type": "uint256"
        }
      ],
      "name": "setBnbFee",
      "outputs": [],
      "stateMutability": "nonpayable",
      "type": "function"
    },
    {
      "inputs": [
        {
          "internalType": "address",
          "name": "_address",
          "type": "address"
        }
      ],
      "name": "setMarketplaceAddress",
      "outputs": [],
      "stateMutability": "nonpayable",
      "type": "function"
    },
    {
      "inputs": [
        {
          "internalType": "address",
          "name": "_address",
          "type": "address"
        }
      ],
      "name": "setRobotPackageAddress",
      "outputs": [],
      "stateMutability": "nonpayable",
      "type": "function"
    },
    {
      "inputs": [
        {
          "internalType": "address",
          "name": "_address",
          "type": "address"
        }
      ],
      "name": "setRobotPackageGen1Address",
      "outputs": [],
      "stateMutability": "nonpayable",
      "type": "function"
    },
    {
      "inputs": [
        {
          "internalType": "address",
          "name": "_mekaDeployAddr",
          "type": "address"
        }
      ],
      "name": "setMekaDeployerAddress",
      "outputs": [],
      "stateMutability": "nonpayable",
      "type": "function"
    },
    {
      "inputs": [
        {
          "internalType": "uint256",
          "name": "_price",
          "type": "uint256"
        }
      ],
      "name": "setRobotPrice",
      "outputs": [],
      "stateMutability": "nonpayable",
      "type": "function"
    },
    {
      "inputs": [
        {
          "internalType": "address",
          "name": "_addr",
          "type": "address"
        }
      ],
      "name": "setTokenAddress",
      "outputs": [],
      "stateMutability": "nonpayable",
      "type": "function"
    },
    {
      "inputs": [],
      "name": "updateIsBurn",
      "outputs": [],
      "stateMutability": "nonpayable",
      "type": "function"
    },
    {
      "inputs": [],
      "name": "updateRobotFactory",
      "outputs": [],
      "stateMutability": "nonpayable",
      "type": "function"
    },
    {
      "inputs": [],
      "name": "withdrawBalance",
      "outputs": [],
      "stateMutability": "nonpayable",
      "type": "function"
    },
    {
      "inputs": [],
      "name": "withdrawBnb",
      "outputs": [],
      "stateMutability": "nonpayable",
      "type": "function"
    },
    {
      "inputs": [
        {
          "internalType": "address",
          "name": "_owner",
          "type": "address"
        },
        {
          "internalType": "uint256",
          "name": "_robotId",
          "type": "uint256"
        },
        {
          "internalType": "uint256",
          "name": "_pieceId",
          "type": "uint256"
        },
        {
          "internalType": "uint8",
          "name": "_pieceType",
          "type": "uint8"
        },
        {
          "internalType": "uint256",
          "name": "_amount",
          "type": "uint256"
        }
      ],
      "name": "attachPiece",
      "outputs": [],
      "stateMutability": "nonpayable",
      "type": "function"
    },
    {
      "inputs": [
        {
          "internalType": "address",
          "name": "_owner",
          "type": "address"
        },
        {
          "internalType": "uint256",
          "name": "_amount",
          "type": "uint256"
        },
        {
          "internalType": "bool",
          "name": "_withOre",
          "type": "bool"
        }
      ],
      "name": "createRobot",
      "outputs": [],
      "stateMutability": "nonpayable",
      "type": "function"
    },
    {
      "inputs": [
        {
          "internalType": "uint256",
          "name": "_tokenId",
          "type": "uint256"
        },
        {
          "internalType": "uint256",
          "name": "_startingPrice",
          "type": "uint256"
        }
      ],
      "name": "createSale",
      "outputs": [],
      "stateMutability": "payable",
      "type": "function",
      "payable": true
    },
    {
      "inputs": [
        {
          "internalType": "uint256",
          "name": "_tokenId",
          "type": "uint256"
        }
      ],
      "name": "burnRobot",
      "outputs": [],
      "stateMutability": "nonpayable",
      "type": "function"
    },
    {
      "inputs": [
        {
          "internalType": "uint256",
          "name": "_id",
          "type": "uint256"
        }
      ],
      "name": "getRobot",
      "outputs": [
        {
          "components": [
            {
              "internalType": "uint256",
              "name": "robotId",
              "type": "uint256"
            },
            {
              "internalType": "uint256",
              "name": "head",
              "type": "uint256"
            },
            {
              "internalType": "uint256",
              "name": "larm",
              "type": "uint256"
            },
            {
              "internalType": "uint256",
              "name": "rarm",
              "type": "uint256"
            },
            {
              "internalType": "uint256",
              "name": "legs",
              "type": "uint256"
            },
            {
              "internalType": "uint256",
              "name": "chest",
              "type": "uint256"
            },
            {
              "internalType": "uint64",
              "name": "birthTime",
              "type": "uint64"
            }
          ],
          "internalType": "struct RobotCore.Robot",
          "name": "robot",
          "type": "tuple"
        }
      ],
      "stateMutability": "view",
      "type": "function",
      "constant": true
    },
    {
      "inputs": [],
      "name": "getBalance",
      "outputs": [
        {
          "internalType": "uint256",
          "name": "",
          "type": "uint256"
        }
      ],
      "stateMutability": "view",
      "type": "function",
      "constant": true
    },
    {
      "inputs": [],
      "name": "getBnbBalance",
      "outputs": [
        {
          "internalType": "uint256",
          "name": "",
          "type": "uint256"
        }
      ],
      "stateMutability": "view",
      "type": "function",
      "constant": true
    },
    {
      "inputs": [
        {
          "internalType": "address",
          "name": "_owner",
          "type": "address"
        },
        {
          "internalType": "uint8",
          "name": "packageType",
          "type": "uint8"
        },
        {
          "internalType": "uint8",
          "name": "robotQuantity",
          "type": "uint8"
        }
      ],
      "name": "createRobotFromBundle",
      "outputs": [],
      "stateMutability": "nonpayable",
      "type": "function"
    }
  ],
  "bytecode": "0x6080604052600b805460ff60a01b191690556611c37937e08000600e556001600f55680340aad21b3b700000601055674563918244f400006011556012805460ff191660051790553480156200005457600080fd5b506040516200438d3803806200438d8339810160408190526200007791620002d2565b60408051808201825260078082526613595ad8589bdd60ca1b602080840182905284518086019095529184529083015290620000ba6301ffc9a760e01b620001a8565b8151620000cf9060079060208501906200022c565b508051620000e59060089060208401906200022c565b50620000f86380ac58cd60e01b620001a8565b6200010a635b5e139f60e01b620001a8565b6200011c63780e9d6360e01b620001a8565b5050600b80546001600160a01b0319163390811790915560405181906000907f8be0079c531659141344cd1fd0a4f28419497f9722a3daafe3b4186f6b6457e0908290a3506001600c5560188054601a80546001600160a01b0319166001600160a01b03949094169390931790925563ff0000ff60a01b19909116630100000160a01b17905562000341565b6001600160e01b03198082161415620002075760405162461bcd60e51b815260206004820152601c60248201527f4552433136353a20696e76616c696420696e7465726661636520696400000000604482015260640160405180910390fd5b6001600160e01b0319166000908152602081905260409020805460ff19166001179055565b8280546200023a9062000304565b90600052602060002090601f0160209004810192826200025e5760008555620002a9565b82601f106200027957805160ff1916838001178555620002a9565b82800160010185558215620002a9579182015b82811115620002a95782518255916020019190600101906200028c565b50620002b7929150620002bb565b5090565b5b80821115620002b75760008155600101620002bc565b600060208284031215620002e557600080fd5b81516001600160a01b0381168114620002fd57600080fd5b9392505050565b600181811c908216806200031957607f821691505b602082108114156200033b57634e487b7160e01b600052602260045260246000fd5b50919050565b61403c80620003516000396000f3fe6080604052600436106103505760003560e01c806368092bd9116101c6578063a22cb465116100f7578063c5cf8f2711610095578063e985e9c51161006f578063e985e9c514610a7a578063f2fde38b14610ac3578063fc8234cb14610ae3578063fe575a8714610af857600080fd5b8063c5cf8f27146109dd578063c87b56dd146109fd578063d45eb3e714610a1d57600080fd5b8063b47cc556116100d1578063b47cc5561461095d578063b88d4fde1461097d578063c37d19301461099d578063c569a794146109bd57600080fd5b8063a22cb46514610913578063b086a27c14610933578063b0bad4051461094857600080fd5b80638da5cb5b1161016457806393cf67031161013e57806393cf67031461084957806395d89b411461085e57806395e2642214610873578063a0bcfc7f146108f357600080fd5b80638da5cb5b146107eb5780638f32d59b146108095780639124e0ac1461082957600080fd5b8063715018a6116101a0578063715018a614610776578063789d9a861461078b5780637de166b1146107ab5780638a47446c146107cb57600080fd5b806368092bd9146107215780636c0360eb1461074157806370a082311461075657600080fd5b806323b872dd116102a05780634cbe21441161023e5780635fd8c710116102185780635fd8c710146106b95780636019061b146106ce57806360c9f222146106e15780636352211e1461070157600080fd5b80634cbe21441461063f5780634f6ccce7146106785780635c975abb1461069857600080fd5b80632f745c591161027a5780632f745c59146105d7578063320b2ad9146105f757806333f5bf311461060c57806342842e0e1461061f57600080fd5b806323b872dd1461056a57806326a4e8d21461058a578063294cdf0d146105aa57600080fd5b80630b93c5191161030d57806318160ddd116102e757806318160ddd146104ef5780631bf0595a146105045780631da0603a1461053557806321af2b391461054a57600080fd5b80630b93c5191461048c57806312065fe0146104ac5780631695a261146104cf57600080fd5b806301ffc9a71461035557806302a64ee8146103a45780630671ddfe146103fb57806306fdde0314610412578063081812fc14610434578063095ea7b31461046c575b600080fd5b34801561036157600080fd5b5061038f610370366004613757565b6001600160e01b03191660009081526020819052604090205460ff1690565b60405190151581526020015b60405180910390f35b3480156103b057600080fd5b50601a54601954601654601754601854604080516001600160a01b0396871681529486166020860152928516928401929092528316606083015291909116608082015260a00161039b565b34801561040757600080fd5b50610410610b31565b005b34801561041e57600080fd5b50610427610b85565b60405161039b91906137cc565b34801561044057600080fd5b5061045461044f3660046137df565b610c17565b6040516001600160a01b03909116815260200161039b565b34801561047857600080fd5b50610410610487366004613814565b610c9f565b34801561049857600080fd5b506104106104a73660046137df565b610db5565b3480156104b857600080fd5b506104c1610ea1565b60405190815260200161039b565b3480156104db57600080fd5b506104106104ea36600461384f565b610f13565b3480156104fb57600080fd5b506104c1611363565b34801561051057600080fd5b50600e546010546011546040805193845260208401929092529082015260600161039b565b34801561054157600080fd5b5061041061136f565b34801561055657600080fd5b506104106105653660046138ab565b611449565b34801561057657600080fd5b506104106105853660046138eb565b611786565b34801561059657600080fd5b506104106105a5366004613927565b6117b7565b3480156105b657600080fd5b506105ca6105c5366004613927565b611803565b60405161039b919061397d565b3480156105e357600080fd5b506104c16105f2366004613814565b6118ef565b34801561060357600080fd5b5061038f61191a565b34801561061857600080fd5b50476104c1565b34801561062b57600080fd5b5061041061063a3660046138eb565b6119a0565b34801561064b57600080fd5b5061038f61065a366004613927565b6001600160a01b031660009081526015602052604090205460ff1690565b34801561068457600080fd5b506104c16106933660046137df565b6119bb565b3480156106a457600080fd5b50600b5461038f90600160a01b900460ff1681565b3480156106c557600080fd5b506104106119d1565b6104106106dc366004613990565b611a95565b3480156106ed57600080fd5b506104106106fc366004613927565b611bdf565b34801561070d57600080fd5b5061045461071c3660046137df565b611c2b565b34801561072d57600080fd5b5061041061073c3660046139b2565b611c53565b34801561074d57600080fd5b50610427611ca8565b34801561076257600080fd5b506104c1610771366004613927565b611cb7565b34801561078257600080fd5b50610410611d43565b34801561079757600080fd5b506104106107a6366004613927565b611db7565b3480156107b757600080fd5b506104106107c63660046139e9565b611e03565b3480156107d757600080fd5b506104106107e63660046137df565b61201c565b3480156107f757600080fd5b50600b546001600160a01b0316610454565b34801561081557600080fd5b50600b546001600160a01b0316331461038f565b34801561083557600080fd5b50610410610844366004613a2c565b61204b565b34801561085557600080fd5b5061041061208b565b34801561086a57600080fd5b506104276120d6565b34801561087f57600080fd5b5061089361088e3660046137df565b6120e5565b60405161039b9190600060e082019050825182526020830151602083015260408301516040830152606083015160608301526080830151608083015260a083015160a083015267ffffffffffffffff60c08401511660c083015292915050565b3480156108ff57600080fd5b5061041061090e366004613ad3565b6121bb565b34801561091f57600080fd5b5061041061092e3660046139b2565b6121ee565b34801561093f57600080fd5b506104106122b3565b34801561095457600080fd5b506104106122fe565b34801561096957600080fd5b50610410610978366004613927565b612349565b34801561098957600080fd5b50610410610998366004613b1c565b612395565b3480156109a957600080fd5b506104106109b8366004613927565b6123cd565b3480156109c957600080fd5b506104106109d83660046137df565b612419565b3480156109e957600080fd5b506104106109f83660046137df565b612448565b348015610a0957600080fd5b50610427610a183660046137df565b612477565b348015610a2957600080fd5b506018546040805160ff600160a01b8404811615158252600160a81b8404811615156020830152600160b01b84048116151592820192909252600160b81b909204161515606082015260800161039b565b348015610a8657600080fd5b5061038f610a95366004613b98565b6001600160a01b03918216600090815260066020908152604080832093909416825291909152205460ff1690565b348015610acf57600080fd5b50610410610ade366004613927565b6125e8565b348015610aef57600080fd5b5061038f61261b565b348015610b0457600080fd5b5061038f610b13366004613927565b6001600160a01b031660009081526014602052604090205460ff1690565b600b546001600160a01b03163314610b645760405162461bcd60e51b8152600401610b5b90613bcb565b60405180910390fd5b6018805460ff60b81b198116600160b81b9182900460ff1615909102179055565b606060078054610b9490613c00565b80601f0160208091040260200160405190810160405280929190818152602001828054610bc090613c00565b8015610c0d5780601f10610be257610100808354040283529160200191610c0d565b820191906000526020600020905b815481529060010190602001808311610bf057829003601f168201915b5050505050905090565b6000610c228261269a565b610c835760405162461bcd60e51b815260206004820152602c60248201527f4552433732313a20617070726f76656420717565727920666f72206e6f6e657860448201526b34b9ba32b73a103a37b5b2b760a11b6064820152608401610b5b565b506000908152600560205260409020546001600160a01b031690565b6000610caa82611c2b565b9050806001600160a01b0316836001600160a01b03161415610d185760405162461bcd60e51b815260206004820152602160248201527f4552433732313a20617070726f76616c20746f2063757272656e74206f776e656044820152603960f91b6064820152608401610b5b565b336001600160a01b0382161480610d345750610d348133610a95565b610da65760405162461bcd60e51b815260206004820152603860248201527f4552433732313a20617070726f76652063616c6c6572206973206e6f74206f7760448201527f6e6572206e6f7220617070726f76656420666f7220616c6c00000000000000006064820152608401610b5b565b610db083836126a7565b505050565b600b54600160a01b900460ff1615610dcc57600080fd5b601854600160a01b900460ff161515600114610e235760405162461bcd60e51b8152602060048201526016602482015275109d5c9b9a5b99c81a5cc81b9bdd08185b1b1bddd95960521b6044820152606401610b5b565b610e2c81611c2b565b6001600160a01b0316336001600160a01b03161480610e5557506016546001600160a01b031633145b610e955760405162461bcd60e51b81526020600482015260116024820152702737ba103a37b5b2b724b21037bbb732b960791b6044820152606401610b5b565b610e9e81612715565b50565b601a546040516370a0823160e01b81523060048201526000916001600160a01b0316906370a0823190602401602060405180830381865afa158015610eea573d6000803e3d6000fd5b505050506040513d601f19601f82011682018060405250810190610f0e9190613c3b565b905090565b6016546001600160a01b03163314610f5e5760405162461bcd60e51b815260206004820152600e60248201526d6e6f74206d656b616465706c6f7960901b6044820152606401610b5b565b600b54600160a01b900460ff1615610f7557600080fd5b601154811015610fb85760405162461bcd60e51b815260206004820152600e60248201526d616d6f756e7420746f6f206c6f7760901b6044820152606401610b5b565b610fc184611c2b565b6001600160a01b0316326001600160a01b0316146110135760405162461bcd60e51b815260206004820152600f60248201526e3737ba103937b137ba1037bbb732b960891b6044820152606401610b5b565b601a546040516323b872dd60e01b81526001600160a01b03878116600483015230602483015260448201849052909116906323b872dd906064016020604051808303816000875af115801561106c573d6000803e3d6000fd5b505050506040513d601f19601f820116820180604052508101906110909190613c54565b61109957600080fd5b60008260ff1660058111156110b0576110b0613c71565b60058111156110c1576110c1613c71565b14156111045760405162461bcd60e51b815260206004820152601260248201527118d85b881b9bdd08189948191959985d5b1d60721b6044820152606401610b5b565b6000600d611113600187613c9d565b8154811061112357611123613cb4565b60009182526020909120600790910201905060018360ff16600581111561114c5761114c613c71565b600581111561115d5761115d613c71565b141561119b57600081600101541180156111815750601854600160a81b900460ff16155b61118b5783611191565b80600101545b6001820155611301565b60058360ff1660058111156111b2576111b2613c71565b60058111156111c3576111c3613c71565b141561120157600081600501541180156111e75750601854600160a81b900460ff16155b6111f157836111f7565b80600501545b6005820155611301565b60028360ff16600581111561121857611218613c71565b600581111561122957611229613c71565b1415611267576000816002015411801561124d5750601854600160a81b900460ff16155b611257578361125d565b80600201545b6002820155611301565b60038360ff16600581111561127e5761127e613c71565b600581111561128f5761128f613c71565b14156112cd57600081600301541180156112b35750601854600160a81b900460ff16155b6112bd57836112c3565b80600301545b6003820155611301565b600081600401541180156112eb5750601854600160a81b900460ff16155b6112f557836112fb565b80600401545b60048201555b604080516001600160a01b03881681526020810187905290810185905260ff841660608201524260808201527fed4cb83ee8aaf3c7ce0e28cc5e28ebd459e33e8e935fb98513e81607b50fc9ab9060a0015b60405180910390a1505050505050565b6000610f0e60026127a4565b600b546001600160a01b031633146113995760405162461bcd60e51b8152600401610b5b90613bcb565b4760006113ae600b546001600160a01b031690565b6001600160a01b03168260405160006040518083038185875af1925050503d80600081146113f8576040519150601f19603f3d011682016040523d82523d6000602084013e6113fd565b606091505b50509050806114455760405162461bcd60e51b81526020600482015260146024820152732330b4b632b2103a379039b2b7321022ba3432b960611b6044820152606401610b5b565b5050565b6016546001600160a01b031633146114945760405162461bcd60e51b815260206004820152600e60248201526d6e6f74206d656b616465706c6f7960901b6044820152606401610b5b565b601854600160b81b900460ff166114e45760405162461bcd60e51b81526020600482015260146024820152731c9bd89bdd08199858dd1bdc9e4818db1bdcd95960621b6044820152606401610b5b565b600b54600160a01b900460ff16156114fb57600080fd5b6012546001600160a01b03841660009081526013602052604090205460ff9182169116106115625760405162461bcd60e51b81526020600482015260146024820152731dd85b1b195d0b5c1858dad859d94b5b1a5b5a5d60621b6044820152606401610b5b565b80156115cf576001600160a01b03831660009081526015602052604090205460ff16156115ca5760405162461bcd60e51b81526020600482015260166024820152756e6f742d617661696c61626c652d776974682d6f726560501b6044820152606401610b5b565b611698565b6010548210156116125760405162461bcd60e51b815260206004820152600e60248201526d1253959053125108105353d5539560921b6044820152606401610b5b565b601a546040516323b872dd60e01b81526001600160a01b03858116600483015230602483015260448201859052909116906323b872dd906064016020604051808303816000875af115801561166b573d6000803e3d6000fd5b505050506040513d601f19601f8201168201806040525081019061168f9190613c54565b61169857600080fd5b6001600160a01b0383166000908152601560205260409020805460ff19166001179055600f546116c99084906127af565b600f54604080516001600160a01b0386168152602081019290925282151582820152426060830152517f296187bb055c1f2d26d4c9b9e457f81df5f60cade53bea782275afb26fe1b30c9181900360800190a16001600160a01b0383166000908152601360205260409020546117439060ff166001613cca565b6001600160a01b0384166000908152601360205260408120805460ff191660ff9390931692909217909155600f80549161177c83613cef565b9190505550505050565b6117903382612a39565b6117ac5760405162461bcd60e51b8152600401610b5b90613d0a565b610db0838383612b23565b600b546001600160a01b031633146117e15760405162461bcd60e51b8152600401610b5b90613bcb565b601a80546001600160a01b0319166001600160a01b0392909216919091179055565b6001600160a01b03811660009081526001602052604081206060919061182890612c7d565b67ffffffffffffffff81111561184057611840613a47565b604051908082528060200260200182016040528015611869578160200160208202803683370190505b50905060005b6001600160a01b038416600090815260016020526040902061189090612c7d565b8110156118e8576001600160a01b03841660009081526001602052604090206118b99082612c87565b8282815181106118cb576118cb613cb4565b6020908102919091010152806118e081613cef565b91505061186f565b5092915050565b6001600160a01b03821660009081526001602052604081206119119083612c87565b90505b92915050565b600b546000906001600160a01b031633146119475760405162461bcd60e51b8152600401610b5b90613bcb565b600b54600160a01b900460ff161561195e57600080fd5b600b805460ff60a01b1916600160a01b1790556040517f6985a02210a168e66602d3235cb6db0e70f92b3ba4d376a33c0f3d9434bff62590600090a150600190565b610db083838360405180602001604052806000815250612395565b6000806119c9600284612c93565b509392505050565b600b546001600160a01b031633146119fb5760405162461bcd60e51b8152600401610b5b90613bcb565b601a546001600160a01b031663a9059cbb611a1e600b546001600160a01b031690565b611a26610ea1565b6040516001600160e01b031960e085901b1681526001600160a01b03909216600483015260248201526044016020604051808303816000875af1158015611a71573d6000803e3d6000fd5b505050506040513d601f19601f82011682018060405250810190610e9e9190613c54565b600b54600160a01b900460ff1615611aac57600080fd5b600e54341015611aef5760405162461bcd60e51b815260206004820152600e60248201526d3737ba1032b737bab3b41031373160911b6044820152606401610b5b565b611af882611c2b565b6001600160a01b0316336001600160a01b031614611b4c5760405162461bcd60e51b81526020600482015260116024820152702737ba103a37b5b2b724b21037bbb732b960791b6044820152606401610b5b565b601954611b62906001600160a01b0316836126a7565b60195460405163be22facd60e01b8152600481018490526000602482018190526044820152606481018390523360848201526001600160a01b039091169063be22facd9060a401600060405180830381600087803b158015611bc357600080fd5b505af1158015611bd7573d6000803e3d6000fd5b505050505050565b600b546001600160a01b03163314611c095760405162461bcd60e51b8152600401610b5b90613bcb565b601680546001600160a01b0319166001600160a01b0392909216919091179055565b600061191482604051806060016040528060298152602001613fde6029913960029190612caf565b600b546001600160a01b03163314611c7d5760405162461bcd60e51b8152600401610b5b90613bcb565b6001600160a01b03919091166000908152601460205260409020805460ff1916911515919091179055565b6060600a8054610b9490613c00565b60006001600160a01b038216611d225760405162461bcd60e51b815260206004820152602a60248201527f4552433732313a2062616c616e636520717565727920666f7220746865207a65604482015269726f206164647265737360b01b6064820152608401610b5b565b6001600160a01b038216600090815260016020526040902061191490612c7d565b600b546001600160a01b03163314611d6d5760405162461bcd60e51b8152600401610b5b90613bcb565b600b546040516000916001600160a01b0316907f8be0079c531659141344cd1fd0a4f28419497f9722a3daafe3b4186f6b6457e0908390a3600b80546001600160a01b0319169055565b600b546001600160a01b03163314611de15760405162461bcd60e51b8152600401610b5b90613bcb565b601780546001600160a01b0319166001600160a01b0392909216919091179055565b6017546001600160a01b0316331480611e2657506018546001600160a01b031633145b611e5f5760405162461bcd60e51b815260206004820152600a6024820152696e6f742062756e646c6560b01b6044820152606401610b5b565b601854600160b81b900460ff16611eaf5760405162461bcd60e51b81526020600482015260146024820152731c9bd89bdd08199858dd1bdc9e4818db1bdcd95960621b6044820152606401610b5b565b600b54600160a01b900460ff1615611ec657600080fd5b60008260ff166006811115611edd57611edd613c71565b90506000808360ff1667ffffffffffffffff811115611efe57611efe613a47565b604051908082528060200260200182016040528015611f27578160200160208202803683370190505b5090506004836006811115611f3e57611f3e613c71565b1480611f5b57506005836006811115611f5957611f59613c71565b145b80611f7757506006836006811115611f7557611f75613c71565b145b15611f8157600191505b60005b8460ff16811015611fe457600f54828281518110611fa457611fa4613cb4565b602002602001018181525050611fbc87600f546127af565b600f8054906000611fcc83613cef565b91905055508080611fdc90613cef565b915050611f84565b507f30ccb109aad3c13ff5d87de6a3ca8c9c592995fecf5c507badb715a32b0473f78682878542604051611353959493929190613d5b565b600b546001600160a01b031633146120465760405162461bcd60e51b8152600401610b5b90613bcb565b600e55565b600b546001600160a01b031633146120755760405162461bcd60e51b8152600401610b5b90613bcb565b6012805460ff191660ff92909216919091179055565b600b546001600160a01b031633146120b55760405162461bcd60e51b8152600401610b5b90613bcb565b6018805460ff60b01b198116600160b01b9182900460ff1615909102179055565b606060088054610b9490613c00565b61212f6040518060e00160405280600081526020016000815260200160008152602001600081526020016000815260200160008152602001600067ffffffffffffffff1681525090565b600d61213c600184613c9d565b8154811061214c5761214c613cb4565b60009182526020918290206040805160e0810182526007909302909101805483526001810154938301939093526002830154908201526003820154606082015260048201546080820152600582015460a082015260069091015467ffffffffffffffff1660c082015292915050565b600b546001600160a01b031633146121e55760405162461bcd60e51b8152600401610b5b90613bcb565b610e9e81612cc6565b6001600160a01b0382163314156122475760405162461bcd60e51b815260206004820152601960248201527f4552433732313a20617070726f766520746f2063616c6c6572000000000000006044820152606401610b5b565b3360008181526006602090815260408083206001600160a01b03871680855290835292819020805460ff191686151590811790915590519081529192917f17307eab39ab6107e8899845ad3d59bd9653f200f220920489ca2b5937696c31910160405180910390a35050565b600b546001600160a01b031633146122dd5760405162461bcd60e51b8152600401610b5b90613bcb565b6018805460ff60a81b198116600160a81b9182900460ff1615909102179055565b600b546001600160a01b031633146123285760405162461bcd60e51b8152600401610b5b90613bcb565b6018805460ff60a01b198116600160a01b9182900460ff1615909102179055565b600b546001600160a01b031633146123735760405162461bcd60e51b8152600401610b5b90613bcb565b601980546001600160a01b0319166001600160a01b0392909216919091179055565b61239f3383612a39565b6123bb5760405162461bcd60e51b8152600401610b5b90613d0a565b6123c784848484612cd9565b50505050565b600b546001600160a01b031633146123f75760405162461bcd60e51b8152600401610b5b90613bcb565b601880546001600160a01b0319166001600160a01b0392909216919091179055565b600b546001600160a01b031633146124435760405162461bcd60e51b8152600401610b5b90613bcb565b601055565b600b546001600160a01b031633146124725760405162461bcd60e51b8152600401610b5b90613bcb565b601155565b60606124828261269a565b6124e65760405162461bcd60e51b815260206004820152602f60248201527f4552433732314d657461646174613a2055524920717565727920666f72206e6f60448201526e3732bc34b9ba32b73a103a37b5b2b760891b6064820152608401610b5b565b600082815260096020526040812080546124ff90613c00565b80601f016020809104026020016040519081016040528092919081815260200182805461252b90613c00565b80156125785780601f1061254d57610100808354040283529160200191612578565b820191906000526020600020905b81548152906001019060200180831161255b57829003601f168201915b50505050509050600a805461258c90613c00565b1515905061259a5792915050565b8051156125cc57600a816040516020016125b5929190613db9565b604051602081830303815290604052915050919050565b600a6125d784612d0c565b6040516020016125b5929190613db9565b600b546001600160a01b031633146126125760405162461bcd60e51b8152600401610b5b90613bcb565b610e9e81612e23565b600b546000906001600160a01b031633146126485760405162461bcd60e51b8152600401610b5b90613bcb565b600b54600160a01b900460ff1661265e57600080fd5b600b805460ff60a01b191690556040517f7805862f689e2f13df9f062ff482ad3ad112aca9e0847911ed832e158c525b3390600090a150600190565b6000611914600283612ee4565b600081815260056020526040902080546001600160a01b0319166001600160a01b03841690811790915581906126dc82611c2b565b6001600160a01b03167f8c5be1e5ebec7d5bd14f71427d1e84f3dd0314c0f7b2291e5b200ac8c7c3b92560405160405180910390a45050565b600061272082611c2b565b905061272e81600084612ef0565b6127396000836126a7565b6001600160a01b038116600090815260016020526040902061275b9083612f07565b50612767600283612f13565b5060405182906000906001600160a01b038416907fddf252ad1be2c89b69c2b068fc378daa952ba7f163c4a11628f55a4df523b3ef908390a45050565b600061191482612f1f565b6001600160a01b0382166128055760405162461bcd60e51b815260206004820181905260248201527f4552433732313a206d696e7420746f20746865207a65726f20616464726573736044820152606401610b5b565b61280e8161269a565b1561285b5760405162461bcd60e51b815260206004820152601c60248201527f4552433732313a20746f6b656e20616c7265616479206d696e746564000000006044820152606401610b5b565b6040805160e08101825282815260006020808301828152838501838152606085018481526080860185815260a087018681524267ffffffffffffffff90811660c08a01908152600d8054600181018255908a528a517fd7b6990105719101dabeb77144f2a3385c8033acd3af97e9423a695e81ad1eb560079092029182015596517fd7b6990105719101dabeb77144f2a3385c8033acd3af97e9423a695e81ad1eb688015594517fd7b6990105719101dabeb77144f2a3385c8033acd3af97e9423a695e81ad1eb787015592517fd7b6990105719101dabeb77144f2a3385c8033acd3af97e9423a695e81ad1eb886015590517fd7b6990105719101dabeb77144f2a3385c8033acd3af97e9423a695e81ad1eb9850155517fd7b6990105719101dabeb77144f2a3385c8033acd3af97e9423a695e81ad1eba84015590517fd7b6990105719101dabeb77144f2a3385c8033acd3af97e9423a695e81ad1ebb909201805467ffffffffffffffff19169290911691909117905583519081019093528252906129ec9084908490612f2a565b604080516001600160a01b038516815260208101849052428183015290517f393ccba6479926a7c4a6471a3b4584229e2df48a1858c8caf57680927dced5ff9181900360600190a1505050565b6000612a448261269a565b612aa55760405162461bcd60e51b815260206004820152602c60248201527f4552433732313a206f70657261746f7220717565727920666f72206e6f6e657860448201526b34b9ba32b73a103a37b5b2b760a11b6064820152608401610b5b565b6000612ab083611c2b565b9050806001600160a01b0316846001600160a01b03161480612aeb5750836001600160a01b0316612ae084610c17565b6001600160a01b0316145b80612b1b57506001600160a01b0380821660009081526006602090815260408083209388168352929052205460ff165b949350505050565b600b54600160a01b900460ff1615612b3a57600080fd5b813b63ffffffff1615158015612b5a5750601854600160b01b900460ff16155b15612bb4576019546001600160a01b03838116911614612bb45760405162461bcd60e51b815260206004820152601560248201527418dbdb9d1c9858dd081b9bdd081858d8d95c1d1959605a1b6044820152606401610b5b565b6001600160a01b03831660009081526014602052604090205460ff1615612c135760405162461bcd60e51b81526020600482015260136024820152721859191c995cdcc8189b1858dadb1a5cdd1959606a1b6044820152606401610b5b565b6001600160a01b03821660009081526014602052604090205460ff1615612c725760405162461bcd60e51b81526020600482015260136024820152721859191c995cdcc8189b1858dadb1a5cdd1959606a1b6044820152606401610b5b565b610db0838383612f5d565b6000611914825490565b600061191183836130e9565b6000808080612ca28686613113565b9097909650945050505050565b6000612cbc84848461313e565b90505b9392505050565b805161144590600a9060208401906136a8565b612ce4848484612b23565b612cf084848484613181565b6123c75760405162461bcd60e51b8152600401610b5b90613e60565b606081612d305750506040805180820190915260018152600360fc1b602082015290565b8160005b8115612d5a5780612d4481613cef565b9150612d539050600a83613ec8565b9150612d34565b60008167ffffffffffffffff811115612d7557612d75613a47565b6040519080825280601f01601f191660200182016040528015612d9f576020820181803683370190505b5090506000612daf600184613c9d565b90508593505b8315612e1a57612dc6600a85613edc565b612dd1906030613ef0565b60f81b8282612ddf81613f08565b935081518110612df157612df1613cb4565b60200101906001600160f81b031916908160001a905350612e13600a85613ec8565b9350612db5565b50949350505050565b6001600160a01b038116612e885760405162461bcd60e51b815260206004820152602660248201527f4f776e61626c653a206e6577206f776e657220697320746865207a65726f206160448201526564647265737360d01b6064820152608401610b5b565b600b546040516001600160a01b038084169216907f8be0079c531659141344cd1fd0a4f28419497f9722a3daafe3b4186f6b6457e090600090a3600b80546001600160a01b0319166001600160a01b0392909216919091179055565b60006119118383613252565b600b54600160a01b900460ff1615610db057600080fd5b6000611911838361325e565b60006119118383613351565b600061191482612c7d565b612f34838361336e565b612f416000848484613181565b610db05760405162461bcd60e51b8152600401610b5b90613e60565b826001600160a01b0316612f7082611c2b565b6001600160a01b031614612fd85760405162461bcd60e51b815260206004820152602960248201527f4552433732313a207472616e73666572206f6620746f6b656e2074686174206960448201526839903737ba1037bbb760b91b6064820152608401610b5b565b6001600160a01b03821661303a5760405162461bcd60e51b8152602060048201526024808201527f4552433732313a207472616e7366657220746f20746865207a65726f206164646044820152637265737360e01b6064820152608401610b5b565b613045838383612ef0565b6130506000826126a7565b6001600160a01b03831660009081526001602052604090206130729082612f07565b506001600160a01b03821660009081526001602052604090206130959082613492565b506130a26002828461349e565b5080826001600160a01b0316846001600160a01b03167fddf252ad1be2c89b69c2b068fc378daa952ba7f163c4a11628f55a4df523b3ef60405160405180910390a4505050565b600082600001828154811061310057613100613cb4565b9060005260206000200154905092915050565b600080806131218585612c87565b600081815260029690960160205260409095205494959350505050565b60008281526002840160205260408120548015158061316257506131628585613252565b8390612e1a5760405162461bcd60e51b8152600401610b5b91906137cc565b60006001600160a01b0384163b61319a57506001612b1b565b600061321b630a85bd0160e11b338887876040516024016131be9493929190613f1f565b604051602081830303815290604052906001600160e01b0319166020820180516001600160e01b038381831617835250505050604051806060016040528060328152602001613fac603291396001600160a01b03881691906134b4565b90506000818060200190518101906132339190613f5c565b6001600160e01b031916630a85bd0160e11b1492505050949350505050565b600061191183836134c3565b60008181526001830160205260408120548015613347576000613282600183613c9d565b855490915060009061329690600190613c9d565b90508181146132fb5760008660000182815481106132b6576132b6613cb4565b90600052602060002001549050808760000184815481106132d9576132d9613cb4565b6000918252602080832090910192909255918252600188019052604090208390555b855486908061330c5761330c613f79565b600190038181906000526020600020016000905590558560010160008681526020019081526020016000206000905560019350505050611914565b6000915050611914565b600081815260028301602052604081208190556119118383612f07565b6001600160a01b0382166133c45760405162461bcd60e51b815260206004820181905260248201527f4552433732313a206d696e7420746f20746865207a65726f20616464726573736044820152606401610b5b565b6133cd8161269a565b1561341a5760405162461bcd60e51b815260206004820152601c60248201527f4552433732313a20746f6b656e20616c7265616479206d696e746564000000006044820152606401610b5b565b61342660008383612ef0565b6001600160a01b03821660009081526001602052604090206134489082613492565b506134556002828461349e565b5060405181906001600160a01b038416906000907fddf252ad1be2c89b69c2b068fc378daa952ba7f163c4a11628f55a4df523b3ef908290a45050565b600061191183836134db565b6000612cbc84846001600160a01b03851661352a565b6060612cbc8484600085613547565b60008181526001830160205260408120541515611911565b600081815260018301602052604081205461352257508154600181810184556000848152602080822090930184905584548482528286019093526040902091909155611914565b506000611914565b60008281526002840160205260408120829055612cbc8484613492565b6060824710156135a85760405162461bcd60e51b815260206004820152602660248201527f416464726573733a20696e73756666696369656e742062616c616e636520666f6044820152651c8818d85b1b60d21b6064820152608401610b5b565b843b6135f65760405162461bcd60e51b815260206004820152601d60248201527f416464726573733a2063616c6c20746f206e6f6e2d636f6e74726163740000006044820152606401610b5b565b600080866001600160a01b031685876040516136129190613f8f565b60006040518083038185875af1925050503d806000811461364f576040519150601f19603f3d011682016040523d82523d6000602084013e613654565b606091505b509150915061366482828661366f565b979650505050505050565b6060831561367e575081612cbf565b82511561368e5782518084602001fd5b8160405162461bcd60e51b8152600401610b5b91906137cc565b8280546136b490613c00565b90600052602060002090601f0160209004810192826136d6576000855561371c565b82601f106136ef57805160ff191683800117855561371c565b8280016001018555821561371c579182015b8281111561371c578251825591602001919060010190613701565b5061372892915061372c565b5090565b5b80821115613728576000815560010161372d565b6001600160e01b031981168114610e9e57600080fd5b60006020828403121561376957600080fd5b8135612cbf81613741565b60005b8381101561378f578181015183820152602001613777565b838111156123c75750506000910152565b600081518084526137b8816020860160208601613774565b601f01601f19169290920160200192915050565b60208152600061191160208301846137a0565b6000602082840312156137f157600080fd5b5035919050565b80356001600160a01b038116811461380f57600080fd5b919050565b6000806040838503121561382757600080fd5b613830836137f8565b946020939093013593505050565b803560ff8116811461380f57600080fd5b600080600080600060a0868803121561386757600080fd5b613870866137f8565b9450602086013593506040860135925061388c6060870161383e565b949793965091946080013592915050565b8015158114610e9e57600080fd5b6000806000606084860312156138c057600080fd5b6138c9846137f8565b92506020840135915060408401356138e08161389d565b809150509250925092565b60008060006060848603121561390057600080fd5b613909846137f8565b9250613917602085016137f8565b9150604084013590509250925092565b60006020828403121561393957600080fd5b611911826137f8565b600081518084526020808501945080840160005b8381101561397257815187529582019590820190600101613956565b509495945050505050565b6020815260006119116020830184613942565b600080604083850312156139a357600080fd5b50508035926020909101359150565b600080604083850312156139c557600080fd5b6139ce836137f8565b915060208301356139de8161389d565b809150509250929050565b6000806000606084860312156139fe57600080fd5b613a07846137f8565b9250613a156020850161383e565b9150613a236040850161383e565b90509250925092565b600060208284031215613a3e57600080fd5b6119118261383e565b634e487b7160e01b600052604160045260246000fd5b600067ffffffffffffffff80841115613a7857613a78613a47565b604051601f8501601f19908116603f01168101908282118183101715613aa057613aa0613a47565b81604052809350858152868686011115613ab957600080fd5b858560208301376000602087830101525050509392505050565b600060208284031215613ae557600080fd5b813567ffffffffffffffff811115613afc57600080fd5b8201601f81018413613b0d57600080fd5b612b1b84823560208401613a5d565b60008060008060808587031215613b3257600080fd5b613b3b856137f8565b9350613b49602086016137f8565b925060408501359150606085013567ffffffffffffffff811115613b6c57600080fd5b8501601f81018713613b7d57600080fd5b613b8c87823560208401613a5d565b91505092959194509250565b60008060408385031215613bab57600080fd5b613bb4836137f8565b9150613bc2602084016137f8565b90509250929050565b6020808252818101527f4f776e61626c653a2063616c6c6572206973206e6f7420746865206f776e6572604082015260600190565b600181811c90821680613c1457607f821691505b60208210811415613c3557634e487b7160e01b600052602260045260246000fd5b50919050565b600060208284031215613c4d57600080fd5b5051919050565b600060208284031215613c6657600080fd5b8151612cbf8161389d565b634e487b7160e01b600052602160045260246000fd5b634e487b7160e01b600052601160045260246000fd5b600082821015613caf57613caf613c87565b500390565b634e487b7160e01b600052603260045260246000fd5b600060ff821660ff84168060ff03821115613ce757613ce7613c87565b019392505050565b6000600019821415613d0357613d03613c87565b5060010190565b60208082526031908201527f4552433732313a207472616e736665722063616c6c6572206973206e6f74206f6040820152701ddb995c881b9bdc88185c1c1c9bdd9959607a1b606082015260800190565b6001600160a01b038616815260a060208201819052600090613d7f90830187613942565b60ff9586166040840152939094166060820152608001529392505050565b60008151613daf818560208601613774565b9290920192915050565b600080845481600182811c915080831680613dd557607f831692505b6020808410821415613df557634e487b7160e01b86526022600452602486fd5b818015613e095760018114613e1a57613e47565b60ff19861689528489019650613e47565b60008b81526020902060005b86811015613e3f5781548b820152908501908301613e26565b505084890196505b505050505050613e578185613d9d565b95945050505050565b60208082526032908201527f4552433732313a207472616e7366657220746f206e6f6e20455243373231526560408201527131b2b4bb32b91034b6b83632b6b2b73a32b960711b606082015260800190565b634e487b7160e01b600052601260045260246000fd5b600082613ed757613ed7613eb2565b500490565b600082613eeb57613eeb613eb2565b500690565b60008219821115613f0357613f03613c87565b500190565b600081613f1757613f17613c87565b506000190190565b6001600160a01b0385811682528416602082015260408101839052608060608201819052600090613f52908301846137a0565b9695505050505050565b600060208284031215613f6e57600080fd5b8151612cbf81613741565b634e487b7160e01b600052603160045260246000fd5b60008251613fa1818460208701613774565b919091019291505056fe4552433732313a207472616e7366657220746f206e6f6e20455243373231526563656976657220696d706c656d656e7465724552433732313a206f776e657220717565727920666f72206e6f6e6578697374656e7420746f6b656ea264697066735822122045bdbd7a48c42ad41d9479983d64a03a7bebb5013772f72c921ec1e3e40f308264736f6c634300080b0033",
  "immutableReferences": {},
  "source": "// SPDX-License-Identifier: MIT\r\npragma solidity ^0.8.2;\r\n\r\nimport \"./IBEP20.sol\";\r\nimport \"./IMarketplace.sol\";\r\nimport \"./Ownable.sol\";\r\nimport \"./ERC721.sol\";\r\nimport \"./ERC721Pausable.sol\";\r\nimport \"./EnumerableSet.sol\";\r\nimport \"./EnumerableMap.sol\";\r\nimport \"./IRobotCore.sol\";\r\nimport \"./ReentrancyGuard.sol\";\r\n\r\ncontract RobotCore is Ownable, ERC721Pausable, IRobotCore, ReentrancyGuard {\r\n    using EnumerableSet for EnumerableSet.UintSet;\r\n    using EnumerableMap for EnumerableMap.UintToAddressMap;\r\n\r\n    struct Robot {\r\n        uint256 robotId; // id of the robot\r\n        uint256 head;\r\n        uint256 larm;\r\n        uint256 rarm;\r\n        uint256 legs;\r\n        uint256 chest;\r\n        uint64 birthTime; // The timestamp from the block when this Robot came into existence.\r\n    }\r\n\r\n    enum Rarity {\r\n        E,\r\n        D,\r\n        C,\r\n        B,\r\n        A,\r\n        S\r\n    }\r\n\r\n    enum PieceType {\r\n        Default,\r\n        Head,\r\n        LArm,\r\n        RArm,\r\n        Legs,\r\n        Chest\r\n    }\r\n\r\n    enum PackageType {\r\n        Default,\r\n        First,\r\n        Second,\r\n        Third,\r\n        Fourth,\r\n        Fifth,\r\n        Sixth\r\n    }\r\n\r\n    /*** STORAGE ***/\r\n    /// @dev An array containing the Robot struct for all robots in existence. The ID\r\n    ///  of each Robot is actually an index into this array.\r\n    Robot[] robots;\r\n\r\n    event MintedRobotFromBundle(\r\n        address from,\r\n        uint256[] robotIds,\r\n        uint8 packageType,\r\n        uint8 gen,\r\n        uint256 date\r\n    );\r\n\r\n    event PieceAttached(\r\n        address owner,\r\n        uint256 robotId,\r\n        uint256 pieceId,\r\n        uint8 pieceType,\r\n        uint256 date\r\n    );\r\n\r\n    event RobotCreated(\r\n        address from,\r\n        uint256 tokenId,\r\n        bool withOre,\r\n        uint256 date\r\n    );\r\n\r\n    uint256 bnbFee = 0.005 * 10**18;\r\n    uint256 private nextRobotTokenId = 1;\r\n    uint256 robotPrice = 60 * 10**18; // to review\r\n    uint256 attachPrice = 5 * 10**18;\r\n    uint8 private totalPackagesOwner = 5;\r\n\r\n    mapping(address => uint8) walletPackages;\r\n    mapping(address => bool) private banBlackList;\r\n\r\n    mapping(address => bool) private _hasNFT;\r\n\r\n    /* SETTABLE VARIABLES */\r\n    address private _mekaDeployerAddress;\r\n    address private _robotPackageAddress;\r\n    address private _robotPackageGen1Address;\r\n    bool private isBurn;\r\n    bool private canReplacePiece;\r\n    bool private acceptContracts;\r\n    bool private isRobotFactoryOpen;\r\n    address private _marketplaceAddr;\r\n    address private _mekaAddress;\r\n\r\n    constructor(address _mekaToken) ERC721(\"Mekabot\", \"Mekabot\") {\r\n        isBurn = true;\r\n        _mekaAddress = _mekaToken;\r\n        isRobotFactoryOpen = true;\r\n    }\r\n\r\n    function getPricesData()\r\n        external\r\n        view\r\n        returns (\r\n            uint256 _bnbFee,\r\n            uint256 _robotPrice,\r\n            uint256 _attachPrice\r\n        )\r\n    {\r\n        return (bnbFee, robotPrice, attachPrice);\r\n    }\r\n\r\n    function getAddressesData()\r\n        external\r\n        view\r\n        returns (\r\n            address tokenAddress,\r\n            address marketPlaceAddress,\r\n            address mekaDeployer,\r\n            address robotPackageGen0,\r\n            address robotPackageGen1\r\n        )\r\n    {\r\n        return (\r\n            _mekaAddress,\r\n            _marketplaceAddr,\r\n            _mekaDeployerAddress,\r\n            _robotPackageAddress,\r\n            _robotPackageGen1Address\r\n        );\r\n    }\r\n\r\n    function getBooleansData()\r\n        external\r\n        view\r\n        returns (\r\n            bool _isBurn,\r\n            bool _canReplacePiece,\r\n            bool _acceptContracts,\r\n            bool _isRobotFactoryOpen\r\n        )\r\n    {\r\n        return (isBurn, canReplacePiece, acceptContracts, isRobotFactoryOpen);\r\n    }\r\n\r\n    function getHasNFT(address owner) external view returns (bool) {\r\n        return _hasNFT[owner];\r\n    }\r\n\r\n    function updateAcceptContract() external onlyOwner {\r\n        acceptContracts = !acceptContracts;\r\n    }\r\n\r\n    function updateCanReplacePiece() external onlyOwner {\r\n        canReplacePiece = !canReplacePiece;\r\n    }\r\n\r\n    function isBlacklisted(address addr) external view returns (bool) {\r\n        return banBlackList[addr];\r\n    }\r\n\r\n    function setBlackList(address wallet, bool isBlackListed)\r\n        external\r\n        onlyOwner\r\n    {\r\n        banBlackList[wallet] = isBlackListed;\r\n    }\r\n\r\n    function setBaseUri(string memory baseUri) external onlyOwner {\r\n        _setBaseURI(baseUri);\r\n    }\r\n\r\n    function setPackageLimit(uint8 limit) external onlyOwner {\r\n        totalPackagesOwner = limit;\r\n    }\r\n\r\n    function setAttachPriceLimit(uint256 _attachPrice) external onlyOwner {\r\n        attachPrice = _attachPrice;\r\n    }\r\n\r\n    function setBnbFee(uint256 fee) external onlyOwner {\r\n        bnbFee = fee;\r\n    }\r\n\r\n    function setMarketplaceAddress(address _address) external onlyOwner {\r\n        _marketplaceAddr = _address;\r\n    }\r\n\r\n    function setRobotPackageAddress(address _address) external onlyOwner {\r\n        _robotPackageAddress = _address;\r\n    }\r\n\r\n    function setRobotPackageGen1Address(address _address) external onlyOwner {\r\n        _robotPackageGen1Address = _address;\r\n    }\r\n\r\n    function setMekaDeployerAddress(address _mekaDeployAddr)\r\n        external\r\n        onlyOwner\r\n    {\r\n        _mekaDeployerAddress = _mekaDeployAddr;\r\n    }\r\n\r\n    function setRobotPrice(uint256 _price) external onlyOwner {\r\n        robotPrice = _price;\r\n    }\r\n\r\n    function setTokenAddress(address _addr) external onlyOwner {\r\n        _mekaAddress = _addr;\r\n    }\r\n\r\n    function updateIsBurn() external onlyOwner {\r\n        isBurn = !isBurn;\r\n    }\r\n\r\n    function updateRobotFactory() external onlyOwner {\r\n        isRobotFactoryOpen = !isRobotFactoryOpen;\r\n    }\r\n\r\n    modifier onlyBundle() {\r\n        require(\r\n            msg.sender == _robotPackageAddress ||\r\n                msg.sender == _robotPackageGen1Address,\r\n            \"not bundle\"\r\n        );\r\n        _;\r\n    }\r\n\r\n    modifier robotFactory() {\r\n        require(isRobotFactoryOpen, \"robot factory closed\");\r\n        _;\r\n    }\r\n\r\n    modifier onlyMekaDeploy() {\r\n        require(msg.sender == _mekaDeployerAddress, \"not mekadeploy\");\r\n        _;\r\n    }\r\n\r\n    function withdrawBalance() external onlyOwner {\r\n        IBEP20(_mekaAddress).transfer(owner(), getBalance());\r\n    }\r\n\r\n    function withdrawBnb() external onlyOwner {\r\n        uint256 amount = address(this).balance;\r\n\r\n        (bool success, ) = payable(owner()).call{value: amount}(\"\");\r\n        require(success, \"Failed to send Ether\");\r\n    }\r\n\r\n    function _mintRobot(address to, uint256 tokenId) private {\r\n        require(to != address(0), \"ERC721: mint to the zero address\");\r\n        require(!_exists(tokenId), \"ERC721: token already minted\");\r\n\r\n        Robot memory _robot = Robot({\r\n            robotId: tokenId,\r\n            head: 0,\r\n            larm: 0,\r\n            rarm: 0,\r\n            legs: 0,\r\n            chest: 0,\r\n            birthTime: uint64(block.timestamp)\r\n        });\r\n\r\n        robots.push(_robot);\r\n\r\n        _safeMint(to, tokenId, \"\");\r\n\r\n        emit Birth(to, tokenId, block.timestamp);\r\n    }\r\n\r\n    function attachPiece(\r\n        address _owner,\r\n        uint256 _robotId,\r\n        uint256 _pieceId,\r\n        uint8 _pieceType,\r\n        uint256 _amount\r\n    ) external onlyMekaDeploy whenNotPaused {\r\n        require(_amount >= attachPrice, \"amount too low\");\r\n        require(tx.origin == ownerOf(_robotId), \"not robot owner\");\r\n        require(\r\n            IBEP20(_mekaAddress).transferFrom(_owner, address(this), _amount)\r\n        );\r\n        require(\r\n            PieceType(_pieceType) != PieceType.Default,\r\n            \"can not be default\"\r\n        );\r\n\r\n        Robot storage bot = robots[_robotId - 1];\r\n\r\n        if (PieceType(_pieceType) == PieceType.Head) {\r\n            bot.head = bot.head > 0 && !canReplacePiece ? bot.head : _pieceId;\r\n        } else if (PieceType(_pieceType) == PieceType.Chest) {\r\n            bot.chest = bot.chest > 0 && !canReplacePiece\r\n                ? bot.chest\r\n                : _pieceId;\r\n        } else if (PieceType(_pieceType) == PieceType.LArm) {\r\n            bot.larm = bot.larm > 0 && !canReplacePiece ? bot.larm : _pieceId;\r\n        } else if (PieceType(_pieceType) == PieceType.RArm) {\r\n            bot.rarm = bot.rarm > 0 && !canReplacePiece ? bot.rarm : _pieceId;\r\n        } else {\r\n            bot.legs = bot.legs > 0 && !canReplacePiece ? bot.legs : _pieceId;\r\n        }\r\n\r\n        emit PieceAttached(\r\n            _owner,\r\n            _robotId,\r\n            _pieceId,\r\n            _pieceType,\r\n            block.timestamp\r\n        );\r\n    }\r\n\r\n    function createRobot(\r\n        address _owner,\r\n        uint256 _amount,\r\n        bool _withOre\r\n    ) external onlyMekaDeploy robotFactory whenNotPaused {\r\n        require(\r\n            walletPackages[_owner] < totalPackagesOwner,\r\n            \"wallet-package-limit\"\r\n        );\r\n        if (_withOre) {\r\n            require(!_hasNFT[_owner], \"not-available-with-ore\");\r\n        } else {\r\n            require(_amount >= robotPrice, \"INVALID AMOUNT\");\r\n            require(\r\n                IBEP20(_mekaAddress).transferFrom(\r\n                    _owner,\r\n                    address(this),\r\n                    _amount\r\n                )\r\n            );\r\n        }\r\n        _hasNFT[_owner] = true;\r\n        _mintRobot(_owner, nextRobotTokenId);\r\n        emit RobotCreated(_owner, nextRobotTokenId, _withOre, block.timestamp);\r\n        walletPackages[_owner] = walletPackages[_owner] + 1;\r\n        nextRobotTokenId++;\r\n    }\r\n\r\n    function createSale(uint256 _tokenId, uint256 _startingPrice)\r\n        external\r\n        payable\r\n        whenNotPaused\r\n    {\r\n        require(msg.value >= bnbFee, \"not enough bnb\");\r\n        require(msg.sender == ownerOf(_tokenId), \"Not tokenId owner\");\r\n\r\n        _approve(_marketplaceAddr, _tokenId);\r\n        IMarketplace(_marketplaceAddr).createSale(\r\n            _tokenId,\r\n            0,\r\n            address(0),\r\n            _startingPrice,\r\n            msg.sender\r\n        );\r\n    }\r\n\r\n    function burnRobot(uint256 _tokenId) external whenNotPaused {\r\n        require(isBurn == true, \"Burning is not allowed\");\r\n        require(\r\n            msg.sender == ownerOf(_tokenId) ||\r\n                msg.sender == _mekaDeployerAddress,\r\n            \"Not tokenId owner\"\r\n        );\r\n\r\n        _burn(_tokenId); // burn token\r\n    }\r\n\r\n    /// @notice Returns all the relevant information about a specific Robot.\r\n    /// @param _id The ID of the Robot of interest.\r\n    function getRobot(uint256 _id) external view returns (Robot memory robot) {\r\n        return robots[_id - 1];\r\n    }\r\n\r\n    function getBalance() public view returns (uint256) {\r\n        return IBEP20(_mekaAddress).balanceOf(address(this));\r\n    }\r\n\r\n    function getBnbBalance() public view returns (uint256) {\r\n        return address(this).balance;\r\n    }\r\n\r\n    function createRobotFromBundle(\r\n        address _owner,\r\n        uint8 packageType,\r\n        uint8 robotQuantity\r\n    ) external onlyBundle robotFactory whenNotPaused {\r\n        PackageType pkgType = PackageType(packageType);\r\n        uint8 gen = 0;\r\n        uint256[] memory allTokens = new uint256[](robotQuantity);\r\n\r\n        if (\r\n            pkgType == PackageType.Fourth ||\r\n            pkgType == PackageType.Fifth ||\r\n            pkgType == PackageType.Sixth\r\n        ) {\r\n            gen = 1;\r\n        }\r\n\r\n        for (uint256 index = 0; index < robotQuantity; index++) {\r\n            allTokens[index] = nextRobotTokenId;\r\n            _mintRobot(_owner, nextRobotTokenId);\r\n            nextRobotTokenId++;\r\n        }\r\n\r\n        emit MintedRobotFromBundle(\r\n            _owner,\r\n            allTokens,\r\n            packageType,\r\n            gen,\r\n            block.timestamp\r\n        );\r\n    }\r\n\r\n    function _transfer(\r\n        address from,\r\n        address to,\r\n        uint256 tokenId\r\n    ) internal override whenNotPaused {\r\n        if (isContract(to) && !acceptContracts) {\r\n            require(to == _marketplaceAddr, \"contract not accepted\");\r\n        }\r\n        require(!banBlackList[from], \"address blacklisted\");\r\n        require(!banBlackList[to], \"address blacklisted\");\r\n\r\n        super._transfer(from, to, tokenId);\r\n    }\r\n\r\n    /**\r\n     * @dev Identify an address is user address or contract address\r\n     */\r\n    function isContract(address _address) private view returns (bool) {\r\n        uint32 size;\r\n        assembly {\r\n            size := extcodesize(_address)\r\n        }\r\n        return (size > 0);\r\n    }\r\n}\r\n",
  "sourcePath": "E:\\MekaMiners\\contracts\\RobotCore.sol",
  "compiler": {
    "name": "solc",
    "version": "0.8.11+commit.d7f03943.Emscripten.clang"
  },
  "schemaVersion": "3.4.3",
  "updatedAt": "2022-01-18T23:39:32.603Z",
  "networkType": "ethereum",
  "devdoc": {
    "kind": "dev",
    "methods": {
      "_pause()": {
        "details": "called by the owner to pause, triggers stopped state"
      },
      "_unpause()": {
        "details": "called by the owner to unpause, returns to normal state"
      },
      "approve(address,uint256)": {
        "details": "See {IERC721-approve}."
      },
      "balanceOf(address)": {
        "details": "See {IERC721-balanceOf}."
      },
      "baseURI()": {
        "details": "Returns the base URI set via {_setBaseURI}. This will be automatically added as a prefix in {tokenURI} to each token's URI, or to the token ID if no specific URI is set for that token ID."
      },
      "getApproved(uint256)": {
        "details": "See {IERC721-getApproved}."
      },
      "getRobot(uint256)": {
        "params": {
          "_id": "The ID of the Robot of interest."
        }
      },
      "isApprovedForAll(address,address)": {
        "details": "See {IERC721-isApprovedForAll}."
      },
      "isOwner()": {
        "details": "Returns true if the caller is the current owner."
      },
      "name()": {
        "details": "See {IERC721Metadata-name}."
      },
      "owner()": {
        "details": "Returns the address of the current owner."
      },
      "ownerOf(uint256)": {
        "details": "See {IERC721-ownerOf}."
      },
      "renounceOwnership()": {
        "details": "Leaves the contract without owner. It will not be possible to call `onlyOwner` functions anymore. Can only be called by the current owner. NOTE: Renouncing ownership will leave the contract without an owner, thereby removing any functionality that is only available to the owner."
      },
      "safeTransferFrom(address,address,uint256)": {
        "details": "See {IERC721-safeTransferFrom}."
      },
      "safeTransferFrom(address,address,uint256,bytes)": {
        "details": "See {IERC721-safeTransferFrom}."
      },
      "setApprovalForAll(address,bool)": {
        "details": "See {IERC721-setApprovalForAll}."
      },
      "supportsInterface(bytes4)": {
        "details": "See {IERC165-supportsInterface}. Time complexity O(1), guaranteed to always use less than 30 000 gas."
      },
      "symbol()": {
        "details": "See {IERC721Metadata-symbol}."
      },
      "tokenByIndex(uint256)": {
        "details": "See {IERC721Enumerable-tokenByIndex}."
      },
      "tokenOfOwner(address)": {
        "details": "See {IERC721Enumerable-tokenOfOwner}."
      },
      "tokenOfOwnerByIndex(address,uint256)": {
        "details": "See {IERC721Enumerable-tokenOfOwnerByIndex}."
      },
      "tokenURI(uint256)": {
        "details": "See {IERC721Metadata-tokenURI}."
      },
      "totalSupply()": {
        "details": "See {IERC721Enumerable-totalSupply}."
      },
      "transferFrom(address,address,uint256)": {
        "details": "See {IERC721-transferFrom}."
      },
      "transferOwnership(address)": {
        "details": "Transfers ownership of the contract to a new account (`newOwner`). Can only be called by the current owner."
      }
    },
    "stateVariables": {
      "robots": {
        "details": "An array containing the Robot struct for all robots in existence. The ID  of each Robot is actually an index into this array."
      }
    },
    "version": 1
  },
  "userdoc": {
    "kind": "user",
    "methods": {
      "getRobot(uint256)": {
        "notice": "Returns all the relevant information about a specific Robot."
      }
    },
    "version": 1
  }
}