{
  "contractName": "RobotCore",
  "abi": [
    {
      "inputs": [
        {
          "internalType": "address",
          "name": "_mekaToken",
          "type": "address"
        }
      ],
      "stateMutability": "nonpayable",
      "type": "constructor"
    },
    {
      "anonymous": false,
      "inputs": [
        {
          "indexed": true,
          "internalType": "address",
          "name": "owner",
          "type": "address"
        },
        {
          "indexed": true,
          "internalType": "address",
          "name": "approved",
          "type": "address"
        },
        {
          "indexed": true,
          "internalType": "uint256",
          "name": "tokenId",
          "type": "uint256"
        }
      ],
      "name": "Approval",
      "type": "event"
    },
    {
      "anonymous": false,
      "inputs": [
        {
          "indexed": true,
          "internalType": "address",
          "name": "owner",
          "type": "address"
        },
        {
          "indexed": true,
          "internalType": "address",
          "name": "operator",
          "type": "address"
        },
        {
          "indexed": false,
          "internalType": "bool",
          "name": "approved",
          "type": "bool"
        }
      ],
      "name": "ApprovalForAll",
      "type": "event"
    },
    {
      "anonymous": false,
      "inputs": [
        {
          "indexed": false,
          "internalType": "address",
          "name": "owner",
          "type": "address"
        },
        {
          "indexed": false,
          "internalType": "uint256",
          "name": "tokenId",
          "type": "uint256"
        },
        {
          "indexed": false,
          "internalType": "uint256",
          "name": "date",
          "type": "uint256"
        }
      ],
      "name": "Birth",
      "type": "event"
    },
    {
      "anonymous": false,
      "inputs": [
        {
          "indexed": false,
          "internalType": "address",
          "name": "from",
          "type": "address"
        },
        {
          "indexed": false,
          "internalType": "uint256[]",
          "name": "robotIds",
          "type": "uint256[]"
        },
        {
          "indexed": false,
          "internalType": "uint8",
          "name": "packageType",
          "type": "uint8"
        },
        {
          "indexed": false,
          "internalType": "uint8",
          "name": "gen",
          "type": "uint8"
        },
        {
          "indexed": false,
          "internalType": "uint256",
          "name": "date",
          "type": "uint256"
        }
      ],
      "name": "MintedRobotFromBundle",
      "type": "event"
    },
    {
      "anonymous": false,
      "inputs": [
        {
          "indexed": true,
          "internalType": "address",
          "name": "previousOwner",
          "type": "address"
        },
        {
          "indexed": true,
          "internalType": "address",
          "name": "newOwner",
          "type": "address"
        }
      ],
      "name": "OwnershipTransferred",
      "type": "event"
    },
    {
      "anonymous": false,
      "inputs": [],
      "name": "Pause",
      "type": "event"
    },
    {
      "anonymous": false,
      "inputs": [
        {
          "indexed": true,
          "internalType": "address",
          "name": "from",
          "type": "address"
        },
        {
          "indexed": true,
          "internalType": "address",
          "name": "to",
          "type": "address"
        },
        {
          "indexed": true,
          "internalType": "uint256",
          "name": "tokenId",
          "type": "uint256"
        }
      ],
      "name": "Transfer",
      "type": "event"
    },
    {
      "anonymous": false,
      "inputs": [],
      "name": "Unpause",
      "type": "event"
    },
    {
      "inputs": [],
      "name": "_marketplaceAddr",
      "outputs": [
        {
          "internalType": "address",
          "name": "",
          "type": "address"
        }
      ],
      "stateMutability": "view",
      "type": "function",
      "constant": true
    },
    {
      "inputs": [],
      "name": "_mekaAddress",
      "outputs": [
        {
          "internalType": "address",
          "name": "",
          "type": "address"
        }
      ],
      "stateMutability": "view",
      "type": "function",
      "constant": true
    },
    {
      "inputs": [],
      "name": "_mekaDeployerAddress",
      "outputs": [
        {
          "internalType": "address",
          "name": "",
          "type": "address"
        }
      ],
      "stateMutability": "view",
      "type": "function",
      "constant": true
    },
    {
      "inputs": [],
      "name": "_mekaDeployerEnabled",
      "outputs": [
        {
          "internalType": "bool",
          "name": "",
          "type": "bool"
        }
      ],
      "stateMutability": "view",
      "type": "function",
      "constant": true
    },
    {
      "inputs": [],
      "name": "_pause",
      "outputs": [
        {
          "internalType": "bool",
          "name": "",
          "type": "bool"
        }
      ],
      "stateMutability": "nonpayable",
      "type": "function"
    },
    {
      "inputs": [],
      "name": "_robotPackageAddress",
      "outputs": [
        {
          "internalType": "address",
          "name": "",
          "type": "address"
        }
      ],
      "stateMutability": "view",
      "type": "function",
      "constant": true
    },
    {
      "inputs": [],
      "name": "_unpause",
      "outputs": [
        {
          "internalType": "bool",
          "name": "",
          "type": "bool"
        }
      ],
      "stateMutability": "nonpayable",
      "type": "function"
    },
    {
      "inputs": [],
      "name": "acceptContracts",
      "outputs": [
        {
          "internalType": "bool",
          "name": "",
          "type": "bool"
        }
      ],
      "stateMutability": "view",
      "type": "function",
      "constant": true
    },
    {
      "inputs": [
        {
          "internalType": "address",
          "name": "to",
          "type": "address"
        },
        {
          "internalType": "uint256",
          "name": "tokenId",
          "type": "uint256"
        }
      ],
      "name": "approve",
      "outputs": [],
      "stateMutability": "nonpayable",
      "type": "function"
    },
    {
      "inputs": [
        {
          "internalType": "address",
          "name": "owner",
          "type": "address"
        }
      ],
      "name": "balanceOf",
      "outputs": [
        {
          "internalType": "uint256",
          "name": "",
          "type": "uint256"
        }
      ],
      "stateMutability": "view",
      "type": "function",
      "constant": true
    },
    {
      "inputs": [],
      "name": "baseURI",
      "outputs": [
        {
          "internalType": "string",
          "name": "",
          "type": "string"
        }
      ],
      "stateMutability": "view",
      "type": "function",
      "constant": true
    },
    {
      "inputs": [],
      "name": "canReplacePiece",
      "outputs": [
        {
          "internalType": "bool",
          "name": "",
          "type": "bool"
        }
      ],
      "stateMutability": "view",
      "type": "function",
      "constant": true
    },
    {
      "inputs": [
        {
          "internalType": "uint256",
          "name": "tokenId",
          "type": "uint256"
        }
      ],
      "name": "getApproved",
      "outputs": [
        {
          "internalType": "address",
          "name": "",
          "type": "address"
        }
      ],
      "stateMutability": "view",
      "type": "function",
      "constant": true
    },
    {
      "inputs": [
        {
          "internalType": "address",
          "name": "owner",
          "type": "address"
        },
        {
          "internalType": "address",
          "name": "operator",
          "type": "address"
        }
      ],
      "name": "isApprovedForAll",
      "outputs": [
        {
          "internalType": "bool",
          "name": "",
          "type": "bool"
        }
      ],
      "stateMutability": "view",
      "type": "function",
      "constant": true
    },
    {
      "inputs": [],
      "name": "isBurn",
      "outputs": [
        {
          "internalType": "bool",
          "name": "",
          "type": "bool"
        }
      ],
      "stateMutability": "view",
      "type": "function",
      "constant": true
    },
    {
      "inputs": [],
      "name": "isOwner",
      "outputs": [
        {
          "internalType": "bool",
          "name": "",
          "type": "bool"
        }
      ],
      "stateMutability": "view",
      "type": "function",
      "constant": true
    },
    {
      "inputs": [],
      "name": "isRobotFactoryOpen",
      "outputs": [
        {
          "internalType": "bool",
          "name": "",
          "type": "bool"
        }
      ],
      "stateMutability": "view",
      "type": "function",
      "constant": true
    },
    {
      "inputs": [],
      "name": "name",
      "outputs": [
        {
          "internalType": "string",
          "name": "",
          "type": "string"
        }
      ],
      "stateMutability": "view",
      "type": "function",
      "constant": true
    },
    {
      "inputs": [],
      "name": "owner",
      "outputs": [
        {
          "internalType": "address",
          "name": "",
          "type": "address"
        }
      ],
      "stateMutability": "view",
      "type": "function",
      "constant": true
    },
    {
      "inputs": [
        {
          "internalType": "uint256",
          "name": "tokenId",
          "type": "uint256"
        }
      ],
      "name": "ownerOf",
      "outputs": [
        {
          "internalType": "address",
          "name": "",
          "type": "address"
        }
      ],
      "stateMutability": "view",
      "type": "function",
      "constant": true
    },
    {
      "inputs": [],
      "name": "paused",
      "outputs": [
        {
          "internalType": "bool",
          "name": "",
          "type": "bool"
        }
      ],
      "stateMutability": "view",
      "type": "function",
      "constant": true
    },
    {
      "inputs": [],
      "name": "renounceOwnership",
      "outputs": [],
      "stateMutability": "nonpayable",
      "type": "function"
    },
    {
      "inputs": [
        {
          "internalType": "address",
          "name": "from",
          "type": "address"
        },
        {
          "internalType": "address",
          "name": "to",
          "type": "address"
        },
        {
          "internalType": "uint256",
          "name": "tokenId",
          "type": "uint256"
        }
      ],
      "name": "safeTransferFrom",
      "outputs": [],
      "stateMutability": "nonpayable",
      "type": "function"
    },
    {
      "inputs": [
        {
          "internalType": "address",
          "name": "from",
          "type": "address"
        },
        {
          "internalType": "address",
          "name": "to",
          "type": "address"
        },
        {
          "internalType": "uint256",
          "name": "tokenId",
          "type": "uint256"
        },
        {
          "internalType": "bytes",
          "name": "_data",
          "type": "bytes"
        }
      ],
      "name": "safeTransferFrom",
      "outputs": [],
      "stateMutability": "nonpayable",
      "type": "function"
    },
    {
      "inputs": [
        {
          "internalType": "address",
          "name": "operator",
          "type": "address"
        },
        {
          "internalType": "bool",
          "name": "approved",
          "type": "bool"
        }
      ],
      "name": "setApprovalForAll",
      "outputs": [],
      "stateMutability": "nonpayable",
      "type": "function"
    },
    {
      "inputs": [
        {
          "internalType": "bytes4",
          "name": "interfaceId",
          "type": "bytes4"
        }
      ],
      "name": "supportsInterface",
      "outputs": [
        {
          "internalType": "bool",
          "name": "",
          "type": "bool"
        }
      ],
      "stateMutability": "view",
      "type": "function",
      "constant": true
    },
    {
      "inputs": [],
      "name": "symbol",
      "outputs": [
        {
          "internalType": "string",
          "name": "",
          "type": "string"
        }
      ],
      "stateMutability": "view",
      "type": "function",
      "constant": true
    },
    {
      "inputs": [
        {
          "internalType": "uint256",
          "name": "index",
          "type": "uint256"
        }
      ],
      "name": "tokenByIndex",
      "outputs": [
        {
          "internalType": "uint256",
          "name": "",
          "type": "uint256"
        }
      ],
      "stateMutability": "view",
      "type": "function",
      "constant": true
    },
    {
      "inputs": [
        {
          "internalType": "address",
          "name": "owner",
          "type": "address"
        }
      ],
      "name": "tokenOfOwner",
      "outputs": [
        {
          "internalType": "uint256[]",
          "name": "",
          "type": "uint256[]"
        }
      ],
      "stateMutability": "view",
      "type": "function",
      "constant": true
    },
    {
      "inputs": [
        {
          "internalType": "address",
          "name": "owner",
          "type": "address"
        },
        {
          "internalType": "uint256",
          "name": "index",
          "type": "uint256"
        }
      ],
      "name": "tokenOfOwnerByIndex",
      "outputs": [
        {
          "internalType": "uint256",
          "name": "",
          "type": "uint256"
        }
      ],
      "stateMutability": "view",
      "type": "function",
      "constant": true
    },
    {
      "inputs": [
        {
          "internalType": "uint256",
          "name": "tokenId",
          "type": "uint256"
        }
      ],
      "name": "tokenURI",
      "outputs": [
        {
          "internalType": "string",
          "name": "",
          "type": "string"
        }
      ],
      "stateMutability": "view",
      "type": "function",
      "constant": true
    },
    {
      "inputs": [],
      "name": "totalSupply",
      "outputs": [
        {
          "internalType": "uint256",
          "name": "",
          "type": "uint256"
        }
      ],
      "stateMutability": "view",
      "type": "function",
      "constant": true
    },
    {
      "inputs": [
        {
          "internalType": "address",
          "name": "newOwner",
          "type": "address"
        }
      ],
      "name": "transferOwnership",
      "outputs": [],
      "stateMutability": "nonpayable",
      "type": "function"
    },
    {
      "inputs": [],
      "name": "updateAcceptContract",
      "outputs": [],
      "stateMutability": "nonpayable",
      "type": "function"
    },
    {
      "inputs": [],
      "name": "updateCanReplacePiece",
      "outputs": [],
      "stateMutability": "nonpayable",
      "type": "function"
    },
    {
      "inputs": [
        {
          "internalType": "address",
          "name": "addr",
          "type": "address"
        }
      ],
      "name": "isBlacklisted",
      "outputs": [
        {
          "internalType": "bool",
          "name": "",
          "type": "bool"
        }
      ],
      "stateMutability": "view",
      "type": "function",
      "constant": true
    },
    {
      "inputs": [
        {
          "internalType": "address",
          "name": "wallet",
          "type": "address"
        },
        {
          "internalType": "bool",
          "name": "isBlackListed",
          "type": "bool"
        }
      ],
      "name": "setBlackList",
      "outputs": [],
      "stateMutability": "nonpayable",
      "type": "function"
    },
    {
      "inputs": [
        {
          "internalType": "uint8",
          "name": "limit",
          "type": "uint8"
        }
      ],
      "name": "setPackageLimit",
      "outputs": [],
      "stateMutability": "nonpayable",
      "type": "function"
    },
    {
      "inputs": [
        {
          "internalType": "uint256",
          "name": "fee",
          "type": "uint256"
        }
      ],
      "name": "setBnbFee",
      "outputs": [],
      "stateMutability": "nonpayable",
      "type": "function"
    },
    {
      "inputs": [
        {
          "internalType": "address",
          "name": "_address",
          "type": "address"
        }
      ],
      "name": "setMarketplaceAddress",
      "outputs": [],
      "stateMutability": "nonpayable",
      "type": "function"
    },
    {
      "inputs": [
        {
          "internalType": "address",
          "name": "_address",
          "type": "address"
        }
      ],
      "name": "setRobotPackageAddress",
      "outputs": [],
      "stateMutability": "nonpayable",
      "type": "function"
    },
    {
      "inputs": [
        {
          "internalType": "address",
          "name": "_mekaDeployAddr",
          "type": "address"
        }
      ],
      "name": "setMekaDeployerAddress",
      "outputs": [],
      "stateMutability": "nonpayable",
      "type": "function"
    },
    {
      "inputs": [
        {
          "internalType": "uint256",
          "name": "_price",
          "type": "uint256"
        }
      ],
      "name": "setRobotPrice",
      "outputs": [],
      "stateMutability": "nonpayable",
      "type": "function"
    },
    {
      "inputs": [
        {
          "internalType": "address",
          "name": "_addr",
          "type": "address"
        }
      ],
      "name": "setTokenAddress",
      "outputs": [],
      "stateMutability": "nonpayable",
      "type": "function"
    },
    {
      "inputs": [
        {
          "internalType": "uint256",
          "name": "tokenId",
          "type": "uint256"
        },
        {
          "internalType": "string",
          "name": "_tokenURI",
          "type": "string"
        }
      ],
      "name": "setTokenURI",
      "outputs": [],
      "stateMutability": "nonpayable",
      "type": "function"
    },
    {
      "inputs": [],
      "name": "updateMekaDeployerEnabled",
      "outputs": [],
      "stateMutability": "nonpayable",
      "type": "function"
    },
    {
      "inputs": [],
      "name": "updateIsBurn",
      "outputs": [],
      "stateMutability": "nonpayable",
      "type": "function"
    },
    {
      "inputs": [],
      "name": "updateRobotFactory",
      "outputs": [],
      "stateMutability": "nonpayable",
      "type": "function"
    },
    {
      "inputs": [],
      "name": "withdrawBalance",
      "outputs": [],
      "stateMutability": "nonpayable",
      "type": "function"
    },
    {
      "inputs": [],
      "name": "withdrawBnb",
      "outputs": [],
      "stateMutability": "nonpayable",
      "type": "function"
    },
    {
      "inputs": [
        {
          "internalType": "address",
          "name": "_owner",
          "type": "address"
        },
        {
          "internalType": "uint256",
          "name": "_robotId",
          "type": "uint256"
        },
        {
          "internalType": "uint256",
          "name": "_pieceId",
          "type": "uint256"
        },
        {
          "internalType": "uint8",
          "name": "_pieceType",
          "type": "uint8"
        },
        {
          "internalType": "uint256",
          "name": "_amount",
          "type": "uint256"
        }
      ],
      "name": "attachPiece",
      "outputs": [],
      "stateMutability": "nonpayable",
      "type": "function"
    },
    {
      "inputs": [
        {
          "internalType": "address",
          "name": "_owner",
          "type": "address"
        },
        {
          "internalType": "uint256",
          "name": "_amount",
          "type": "uint256"
        },
        {
          "internalType": "bool",
          "name": "_withOre",
          "type": "bool"
        },
        {
          "internalType": "string",
          "name": "_tokenURI",
          "type": "string"
        }
      ],
      "name": "createRobot",
      "outputs": [],
      "stateMutability": "nonpayable",
      "type": "function"
    },
    {
      "inputs": [
        {
          "internalType": "uint256",
          "name": "_tokenId",
          "type": "uint256"
        },
        {
          "internalType": "uint256",
          "name": "_startingPrice",
          "type": "uint256"
        }
      ],
      "name": "createSale",
      "outputs": [],
      "stateMutability": "payable",
      "type": "function",
      "payable": true
    },
    {
      "inputs": [
        {
          "internalType": "uint256",
          "name": "_tokenId",
          "type": "uint256"
        }
      ],
      "name": "burnRobot",
      "outputs": [],
      "stateMutability": "nonpayable",
      "type": "function"
    },
    {
      "inputs": [
        {
          "internalType": "uint256",
          "name": "_id",
          "type": "uint256"
        }
      ],
      "name": "getRobot",
      "outputs": [
        {
          "components": [
            {
              "internalType": "uint256",
              "name": "robotId",
              "type": "uint256"
            },
            {
              "internalType": "uint256",
              "name": "head",
              "type": "uint256"
            },
            {
              "internalType": "uint256",
              "name": "larm",
              "type": "uint256"
            },
            {
              "internalType": "uint256",
              "name": "rarm",
              "type": "uint256"
            },
            {
              "internalType": "uint256",
              "name": "legs",
              "type": "uint256"
            },
            {
              "internalType": "uint256",
              "name": "chest",
              "type": "uint256"
            },
            {
              "internalType": "uint64",
              "name": "birthTime",
              "type": "uint64"
            }
          ],
          "internalType": "struct RobotCore.Robot",
          "name": "robot",
          "type": "tuple"
        }
      ],
      "stateMutability": "view",
      "type": "function",
      "constant": true
    },
    {
      "inputs": [],
      "name": "getBalance",
      "outputs": [
        {
          "internalType": "uint256",
          "name": "",
          "type": "uint256"
        }
      ],
      "stateMutability": "view",
      "type": "function",
      "constant": true
    },
    {
      "inputs": [],
      "name": "pause",
      "outputs": [],
      "stateMutability": "nonpayable",
      "type": "function"
    },
    {
      "inputs": [],
      "name": "unpause",
      "outputs": [],
      "stateMutability": "nonpayable",
      "type": "function"
    },
    {
      "inputs": [
        {
          "internalType": "address",
          "name": "_owner",
          "type": "address"
        },
        {
          "internalType": "uint8",
          "name": "packageType",
          "type": "uint8"
        },
        {
          "internalType": "uint8",
          "name": "robotQuantity",
          "type": "uint8"
        }
      ],
      "name": "createRobotFromBundle",
      "outputs": [],
      "stateMutability": "nonpayable",
      "type": "function"
    },
    {
      "inputs": [
        {
          "internalType": "address",
          "name": "from",
          "type": "address"
        },
        {
          "internalType": "address",
          "name": "to",
          "type": "address"
        },
        {
          "internalType": "uint256",
          "name": "tokenId",
          "type": "uint256"
        }
      ],
      "name": "transferFrom",
      "outputs": [],
      "stateMutability": "nonpayable",
      "type": "function"
    }
  ],
  "bytecode": "0x6080604052600b805460ff60a01b191690556611c37937e08000600e556001600f55680340aad21b3b700000601055674563918244f400006011556012805460ff191660051790553480156200005457600080fd5b506040516200490c3803806200490c8339810160408190526200007791620002e7565b60408051808201825260078082526613595ad8589bdd60ca1b602080840182905284518086019095529184529083015290620000ba6301ffc9a760e01b620001bd565b8151620000cf90600790602085019062000241565b508051620000e590600890602084019062000241565b50620000f86380ac58cd60e01b620001bd565b6200010a635b5e139f60e01b620001bd565b6200011c63780e9d6360e01b620001bd565b5050600b80546001600160a01b0319163390811790915560405181906000907f8be0079c531659141344cd1fd0a4f28419497f9722a3daafe3b4186f6b6457e0908290a3506001600c5560178054601980546001600160a01b0319166001600160a01b03949094169390931790925563ff0000ff60a01b19909116630100000160a01b17905560168054600160a01b60ff60a01b1990911617905562000356565b6001600160e01b031980821614156200021c5760405162461bcd60e51b815260206004820152601c60248201527f4552433136353a20696e76616c696420696e7465726661636520696400000000604482015260640160405180910390fd5b6001600160e01b0319166000908152602081905260409020805460ff19166001179055565b8280546200024f9062000319565b90600052602060002090601f016020900481019282620002735760008555620002be565b82601f106200028e57805160ff1916838001178555620002be565b82800160010185558215620002be579182015b82811115620002be578251825591602001919060010190620002a1565b50620002cc929150620002d0565b5090565b5b80821115620002cc5760008155600101620002d1565b600060208284031215620002fa57600080fd5b81516001600160a01b03811681146200031257600080fd5b9392505050565b600181811c908216806200032e57607f821691505b602082108114156200035057634e487b7160e01b600052602260045260246000fd5b50919050565b6145a680620003666000396000f3fe6080604052600436106103975760003560e01c806368092bd9116101dc578063a22cb46511610102578063c87b56dd116100a0578063f2fde38b1161006f578063f2fde38b14610ae8578063f4ac6b2014610b08578063fc8234cb14610b1d578063fe575a8714610b3257600080fd5b8063c87b56dd14610a3d578063c89e08f714610a5d578063ca92fbff14610a7e578063e985e9c514610a9f57600080fd5b8063b47cc556116100dc578063b47cc556146109bd578063b88d4fde146109dd578063bbc1bd90146109fd578063c569a79414610a1d57600080fd5b8063a22cb46514610973578063b086a27c14610993578063b0bad405146109a857600080fd5b80638456cb591161017a5780639124e0ac116101495780639124e0ac146108a957806393cf6703146108c957806395d89b41146108de57806395e26422146108f357600080fd5b80638456cb59146108365780638a47446c1461084b5780638da5cb5b1461086b5780638f32d59b1461088957600080fd5b8063715018a6116101b6578063715018a6146107c1578063789d9a86146107d65780637de166b1146107f65780637f5a75de1461081657600080fd5b806368092bd91461076c5780636c0360eb1461078c57806370a08231146107a157600080fd5b8063294cdf0d116102c157806342842e0e1161025f5780635fd8c7101161022e5780635fd8c710146107045780636019061b1461071957806360c9f2221461072c5780636352211e1461074c57600080fd5b806342842e0e1461068357806347049c84146106a35780634f6ccce7146106c35780635c975abb146106e357600080fd5b8063320b2ad91161029b578063320b2ad91461061857806334175e1b1461062d57806334ae0d241461064d5780633f4ba83a1461066e57600080fd5b8063294cdf0d146105aa5780632d067d4c146105d75780632f745c59146105f857600080fd5b806312065fe01161033957806318160ddd1161030857806318160ddd146105405780631da0603a1461055557806323b872dd1461056a57806326a4e8d21461058a57600080fd5b806312065fe0146104bc578063162094c4146104df5780631695a261146104ff5780631739e5da1461051f57600080fd5b8063081812fc11610375578063081812fc14610424578063095ea7b31461045c5780630b93c5191461047c5780630d6516d91461049c57600080fd5b806301ffc9a71461039c5780630671ddfe146103eb57806306fdde0314610402575b600080fd5b3480156103a857600080fd5b506103d66103b7366004613c13565b6001600160e01b03191660009081526020819052604090205460ff1690565b60405190151581526020015b60405180910390f35b3480156103f757600080fd5b50610400610b6b565b005b34801561040e57600080fd5b50610417610bbf565b6040516103e29190613c88565b34801561043057600080fd5b5061044461043f366004613c9b565b610c51565b6040516001600160a01b0390911681526020016103e2565b34801561046857600080fd5b50610400610477366004613cd0565b610cd9565b34801561048857600080fd5b50610400610497366004613c9b565b610def565b3480156104a857600080fd5b50601854610444906001600160a01b031681565b3480156104c857600080fd5b506104d1610eaf565b6040519081526020016103e2565b3480156104eb57600080fd5b506104006104fa366004613da6565b610f21565b34801561050b57600080fd5b5061040061051a366004613dfe565b610f7b565b34801561052b57600080fd5b506017546103d690600160b81b900460ff1681565b34801561054c57600080fd5b506104d161160d565b34801561056157600080fd5b50610400611619565b34801561057657600080fd5b50610400610585366004613e4c565b6116ef565b34801561059657600080fd5b506104006105a5366004613e88565b611832565b3480156105b657600080fd5b506105ca6105c5366004613e88565b61187e565b6040516103e29190613ede565b3480156105e357600080fd5b506017546103d690600160a01b900460ff1681565b34801561060457600080fd5b506104d1610613366004613cd0565b61196a565b34801561062457600080fd5b506103d6611995565b34801561063957600080fd5b50601754610444906001600160a01b031681565b34801561065957600080fd5b506017546103d690600160b01b900460ff1681565b34801561067a57600080fd5b50610400611a1b565b34801561068f57600080fd5b5061040061069e366004613e4c565b611a63565b3480156106af57600080fd5b50601954610444906001600160a01b031681565b3480156106cf57600080fd5b506104d16106de366004613c9b565b611a7e565b3480156106ef57600080fd5b50600b546103d690600160a01b900460ff1681565b34801561071057600080fd5b50610400611a94565b610400610727366004613ef1565b611b58565b34801561073857600080fd5b50610400610747366004613e88565b611c9a565b34801561075857600080fd5b50610444610767366004613c9b565b611ce6565b34801561077857600080fd5b50610400610787366004613f21565b611d0e565b34801561079857600080fd5b50610417611d63565b3480156107ad57600080fd5b506104d16107bc366004613e88565b611d72565b3480156107cd57600080fd5b50610400611dfe565b3480156107e257600080fd5b506104006107f1366004613e88565b611e72565b34801561080257600080fd5b50610400610811366004613f58565b611ebe565b34801561082257600080fd5b50610400610831366004613f9b565b612094565b34801561084257600080fd5b506104006125bb565b34801561085757600080fd5b50610400610866366004613c9b565b612604565b34801561087757600080fd5b50600b546001600160a01b0316610444565b34801561089557600080fd5b50600b546001600160a01b031633146103d6565b3480156108b557600080fd5b506104006108c4366004614005565b612633565b3480156108d557600080fd5b50610400612673565b3480156108ea57600080fd5b506104176126be565b3480156108ff57600080fd5b5061091361090e366004613c9b565b6126cd565b6040516103e29190600060e082019050825182526020830151602083015260408301516040830152606083015160608301526080830151608083015260a083015160a083015267ffffffffffffffff60c08401511660c083015292915050565b34801561097f57600080fd5b5061040061098e366004613f21565b6127a3565b34801561099f57600080fd5b50610400612868565b3480156109b457600080fd5b506104006128b3565b3480156109c957600080fd5b506104006109d8366004613e88565b6128fe565b3480156109e957600080fd5b506104006109f8366004614020565b61294a565b348015610a0957600080fd5b50601654610444906001600160a01b031681565b348015610a2957600080fd5b50610400610a38366004613c9b565b61297c565b348015610a4957600080fd5b50610417610a58366004613c9b565b6129ab565b348015610a6957600080fd5b506016546103d690600160a01b900460ff1681565b348015610a8a57600080fd5b506017546103d690600160a81b900460ff1681565b348015610aab57600080fd5b506103d6610aba366004614090565b6001600160a01b03918216600090815260066020908152604080832093909416825291909152205460ff1690565b348015610af457600080fd5b50610400610b03366004613e88565b612b1c565b348015610b1457600080fd5b50610400612b4f565b348015610b2957600080fd5b506103d6612b9a565b348015610b3e57600080fd5b506103d6610b4d366004613e88565b6001600160a01b031660009081526014602052604090205460ff1690565b600b546001600160a01b03163314610b9e5760405162461bcd60e51b8152600401610b95906140c3565b60405180910390fd5b6017805460ff60b81b198116600160b81b9182900460ff1615909102179055565b606060078054610bce906140f8565b80601f0160208091040260200160405190810160405280929190818152602001828054610bfa906140f8565b8015610c475780601f10610c1c57610100808354040283529160200191610c47565b820191906000526020600020905b815481529060010190602001808311610c2a57829003601f168201915b5050505050905090565b6000610c5c82612c19565b610cbd5760405162461bcd60e51b815260206004820152602c60248201527f4552433732313a20617070726f76656420717565727920666f72206e6f6e657860448201526b34b9ba32b73a103a37b5b2b760a11b6064820152608401610b95565b506000908152600560205260409020546001600160a01b031690565b6000610ce482611ce6565b9050806001600160a01b0316836001600160a01b03161415610d525760405162461bcd60e51b815260206004820152602160248201527f4552433732313a20617070726f76616c20746f2063757272656e74206f776e656044820152603960f91b6064820152608401610b95565b336001600160a01b0382161480610d6e5750610d6e8133610aba565b610de05760405162461bcd60e51b815260206004820152603860248201527f4552433732313a20617070726f76652063616c6c6572206973206e6f74206f7760448201527f6e6572206e6f7220617070726f76656420666f7220616c6c00000000000000006064820152608401610b95565b610dea8383612c26565b505050565b601754600160a01b900460ff161515600114610e465760405162461bcd60e51b8152602060048201526016602482015275109d5c9b9a5b99c81a5cc81b9bdd08185b1b1bddd95960521b6044820152606401610b95565b610e4f81611ce6565b6001600160a01b0316336001600160a01b031614610ea35760405162461bcd60e51b81526020600482015260116024820152702737ba103a37b5b2b724b21037bbb732b960791b6044820152606401610b95565b610eac81612c94565b50565b6019546040516370a0823160e01b81523060048201526000916001600160a01b0316906370a0823190602401602060405180830381865afa158015610ef8573d6000803e3d6000fd5b505050506040513d601f19601f82011682018060405250810190610f1c9190614133565b905090565b33610f2b83611ce6565b6001600160a01b031614610f6d5760405162461bcd60e51b81526020600482015260096024820152683737ba1037bbb732b960b91b6044820152606401610b95565b610f778282612d11565b5050565b601654600160a01b900460ff16156112f1576016546001600160a01b03163314610fd85760405162461bcd60e51b815260206004820152600e60248201526d6e6f74206d656b616465706c6f7960901b6044820152606401610b95565b60115481101561101b5760405162461bcd60e51b815260206004820152600e60248201526d616d6f756e7420746f6f206c6f7760901b6044820152606401610b95565b61102484611ce6565b6001600160a01b0316326001600160a01b0316146110765760405162461bcd60e51b815260206004820152600f60248201526e3737ba103937b137ba1037bbb732b960891b6044820152606401610b95565b6019546040516323b872dd60e01b81526001600160a01b03909116906323b872dd906110aa9088903090869060040161414c565b6020604051808303816000875af11580156110c9573d6000803e3d6000fd5b505050506040513d601f19601f820116820180604052508101906110ed9190614170565b6110f657600080fd5b6000600d6111056001876141a3565b81548110611115576111156141ba565b60009182526020822060079091020191508360ff16600481111561113b5761113b6141d0565b600481111561114c5761114c6141d0565b1415611189576000816001015411801561116f5750601754600160a81b900460ff165b61117d57806001015461117f565b835b60018201556112eb565b60048360ff1660048111156111a0576111a06141d0565b60048111156111b1576111b16141d0565b14156111ee57600081600501541180156111d45750601754600160a81b900460ff165b6111e25780600501546111e4565b835b60058201556112eb565b60018360ff166004811115611205576112056141d0565b6004811115611216576112166141d0565b141561125357600081600201541180156112395750601754600160a81b900460ff165b611247578060020154611249565b835b60028201556112eb565b60028360ff16600481111561126a5761126a6141d0565b600481111561127b5761127b6141d0565b14156112b8576000816003015411801561129e5750601754600160a81b900460ff165b6112ac5780600301546112ae565b835b60038201556112eb565b600081600401541180156112d55750601754600160a81b900460ff165b6112e35780600401546112e5565b835b60048201555b50611606565b6011548110156113345760405162461bcd60e51b815260206004820152600e60248201526d616d6f756e7420746f6f206c6f7760901b6044820152606401610b95565b61133d84611ce6565b6001600160a01b0316326001600160a01b03161461138f5760405162461bcd60e51b815260206004820152600f60248201526e3737ba103937b137ba1037bbb732b960891b6044820152606401610b95565b6019546040516323b872dd60e01b81526001600160a01b03909116906323b872dd906113c39088903090869060040161414c565b6020604051808303816000875af11580156113e2573d6000803e3d6000fd5b505050506040513d601f19601f820116820180604052508101906114069190614170565b61140f57600080fd5b6000600d61141e6001876141a3565b8154811061142e5761142e6141ba565b60009182526020822060079091020191508360ff166004811115611454576114546141d0565b6004811115611465576114656141d0565b14156114a257600081600101541180156114885750601754600160a81b900460ff165b611496578060010154611498565b835b6001820155611604565b60048360ff1660048111156114b9576114b96141d0565b60048111156114ca576114ca6141d0565b141561150757600081600501541180156114ed5750601754600160a81b900460ff165b6114fb5780600501546114fd565b835b6005820155611604565b60018360ff16600481111561151e5761151e6141d0565b600481111561152f5761152f6141d0565b141561156c57600081600201541180156115525750601754600160a81b900460ff165b611560578060020154611562565b835b6002820155611604565b60028360ff166004811115611583576115836141d0565b6004811115611594576115946141d0565b14156115d157600081600301541180156115b75750601754600160a81b900460ff165b6115c55780600301546115c7565b835b6003820155611604565b600081600401541180156115ee5750601754600160a81b900460ff165b6115fc5780600401546115fe565b835b60048201555b505b5050505050565b6000610f1c6002612d9a565b600b546001600160a01b031633146116435760405162461bcd60e51b8152600401610b95906140c3565b476000611658600b546001600160a01b031690565b6001600160a01b03168260405160006040518083038185875af1925050503d80600081146116a2576040519150601f19603f3d011682016040523d82523d6000602084013e6116a7565b606091505b5050905080610f775760405162461bcd60e51b81526020600482015260146024820152732330b4b632b2103a379039b2b7321022ba3432b960611b6044820152606401610b95565b813b63ffffffff161515801561170f5750601754600160b01b900460ff16155b15611769576018546001600160a01b038381169116146117695760405162461bcd60e51b815260206004820152601560248201527418dbdb9d1c9858dd081b9bdd081858d8d95c1d1959605a1b6044820152606401610b95565b6001600160a01b03831660009081526014602052604090205460ff16156117c85760405162461bcd60e51b81526020600482015260136024820152721859191c995cdcc8189b1858dadb1a5cdd1959606a1b6044820152606401610b95565b6001600160a01b03821660009081526014602052604090205460ff16156118275760405162461bcd60e51b81526020600482015260136024820152721859191c995cdcc8189b1858dadb1a5cdd1959606a1b6044820152606401610b95565b610dea838383612da5565b600b546001600160a01b0316331461185c5760405162461bcd60e51b8152600401610b95906140c3565b601980546001600160a01b0319166001600160a01b0392909216919091179055565b6001600160a01b0381166000908152600160205260408120606091906118a390612dd6565b67ffffffffffffffff8111156118bb576118bb613cfa565b6040519080825280602002602001820160405280156118e4578160200160208202803683370190505b50905060005b6001600160a01b038416600090815260016020526040902061190b90612dd6565b811015611963576001600160a01b03841660009081526001602052604090206119349082612de0565b828281518110611946576119466141ba565b60209081029190910101528061195b816141e6565b9150506118ea565b5092915050565b6001600160a01b038216600090815260016020526040812061198c9083612de0565b90505b92915050565b600b546000906001600160a01b031633146119c25760405162461bcd60e51b8152600401610b95906140c3565b600b54600160a01b900460ff16156119d957600080fd5b600b805460ff60a01b1916600160a01b1790556040517f6985a02210a168e66602d3235cb6db0e70f92b3ba4d376a33c0f3d9434bff62590600090a150600190565b600b54600160a01b900460ff16611a3157600080fd5b600b546001600160a01b03163314611a5b5760405162461bcd60e51b8152600401610b95906140c3565b610eac612b9a565b610dea8383836040518060200160405280600081525061294a565b600080611a8c600284612dec565b509392505050565b600b546001600160a01b03163314611abe5760405162461bcd60e51b8152600401610b95906140c3565b6019546001600160a01b031663a9059cbb611ae1600b546001600160a01b031690565b611ae9610eaf565b6040516001600160e01b031960e085901b1681526001600160a01b03909216600483015260248201526044016020604051808303816000875af1158015611b34573d6000803e3d6000fd5b505050506040513d601f19601f82011682018060405250810190610eac9190614170565b600b54600160a01b900460ff1615611b6f57600080fd5b600e54341015611bb25760405162461bcd60e51b815260206004820152600e60248201526d3737ba1032b737bab3b41031373160911b6044820152606401610b95565b611bbb82611ce6565b6001600160a01b0316336001600160a01b031614611c0f5760405162461bcd60e51b81526020600482015260116024820152702737ba103a37b5b2b724b21037bbb732b960791b6044820152606401610b95565b601854611c25906001600160a01b031683612c26565b60185460405163be22facd60e01b8152600481018490526000602482018190526044820152606481018390523360848201526001600160a01b039091169063be22facd9060a401600060405180830381600087803b158015611c8657600080fd5b505af1158015611604573d6000803e3d6000fd5b600b546001600160a01b03163314611cc45760405162461bcd60e51b8152600401610b95906140c3565b601680546001600160a01b0319166001600160a01b0392909216919091179055565b600061198f826040518060600160405280602981526020016145286029913960029190612e08565b600b546001600160a01b03163314611d385760405162461bcd60e51b8152600401610b95906140c3565b6001600160a01b03919091166000908152601460205260409020805460ff1916911515919091179055565b6060600a8054610bce906140f8565b60006001600160a01b038216611ddd5760405162461bcd60e51b815260206004820152602a60248201527f4552433732313a2062616c616e636520717565727920666f7220746865207a65604482015269726f206164647265737360b01b6064820152608401610b95565b6001600160a01b038216600090815260016020526040902061198f90612dd6565b600b546001600160a01b03163314611e285760405162461bcd60e51b8152600401610b95906140c3565b600b546040516000916001600160a01b0316907f8be0079c531659141344cd1fd0a4f28419497f9722a3daafe3b4186f6b6457e0908390a3600b80546001600160a01b0319169055565b600b546001600160a01b03163314611e9c5760405162461bcd60e51b8152600401610b95906140c3565b601780546001600160a01b0319166001600160a01b0392909216919091179055565b6017546001600160a01b03163314611f055760405162461bcd60e51b815260206004820152600a6024820152696e6f742062756e646c6560b01b6044820152606401610b95565b601754600160b81b900460ff16611f2e5760405162461bcd60e51b8152600401610b9590614201565b60008260ff166006811115611f4557611f456141d0565b90506000808360ff1667ffffffffffffffff811115611f6657611f66613cfa565b604051908082528060200260200182016040528015611f8f578160200160208202803683370190505b5090506004836006811115611fa657611fa66141d0565b1480611fc357506005836006811115611fc157611fc16141d0565b145b80611fdf57506006836006811115611fdd57611fdd6141d0565b145b15611fe957600191505b60005b8460ff1681101561204c57600f5482828151811061200c5761200c6141ba565b60200260200101818152505061202487600f54612e1f565b600f8054906000612034836141e6565b91905055508080612044906141e6565b915050611fec565b507f30ccb109aad3c13ff5d87de6a3ca8c9c592995fecf5c507badb715a32b0473f7868287854260405161208495949392919061422f565b60405180910390a1505050505050565b601654600160a01b900460ff1615612355576016546001600160a01b031633146120f15760405162461bcd60e51b815260206004820152600e60248201526d6e6f74206d656b616465706c6f7960901b6044820152606401610b95565b601754600160b81b900460ff1661211a5760405162461bcd60e51b8152600401610b9590614201565b6012546001600160a01b03851660009081526013602052604090205460ff9182169116106121815760405162461bcd60e51b81526020600482015260146024820152731dd85b1b195d0b5c1858dad859d94b5b1a5b5a5d60621b6044820152606401610b95565b8115612210576001600160a01b03841660009081526015602052604090205460ff166121e85760405162461bcd60e51b81526020600482015260166024820152756e6f742d617661696c61626c652d776974682d6f726560501b6044820152606401610b95565b6001600160a01b0384166000908152601560205260409020805460ff191660011790556122d3565b6010548310156122535760405162461bcd60e51b815260206004820152600e60248201526d1253959053125108105353d5539560921b6044820152606401610b95565b6019546040516323b872dd60e01b81526001600160a01b03909116906323b872dd906122879087903090889060040161414c565b6020604051808303816000875af11580156122a6573d6000803e3d6000fd5b505050506040513d601f19601f820116820180604052508101906122ca9190614170565b6122d357600080fd5b600f546122e08582612e1f565b6122ea8183612d11565b6001600160a01b0385166000908152601360205260409020546123119060ff166001614271565b6001600160a01b0386166000908152601360205260408120805460ff191660ff9390931692909217909155600f80549161234a836141e6565b9190505550506125b5565b601754600160b81b900460ff1661237e5760405162461bcd60e51b8152600401610b9590614201565b6012546001600160a01b03851660009081526013602052604090205460ff9182169116106123e55760405162461bcd60e51b81526020600482015260146024820152731dd85b1b195d0b5c1858dad859d94b5b1a5b5a5d60621b6044820152606401610b95565b8115612474576001600160a01b03841660009081526015602052604090205460ff1661244c5760405162461bcd60e51b81526020600482015260166024820152756e6f742d617661696c61626c652d776974682d6f726560501b6044820152606401610b95565b6001600160a01b0384166000908152601560205260409020805460ff19166001179055612537565b6010548310156124b75760405162461bcd60e51b815260206004820152600e60248201526d1253959053125108105353d5539560921b6044820152606401610b95565b6019546040516323b872dd60e01b81526001600160a01b03909116906323b872dd906124eb9087903090889060040161414c565b6020604051808303816000875af115801561250a573d6000803e3d6000fd5b505050506040513d601f19601f8201168201806040525081019061252e9190614170565b61253757600080fd5b600f546125448582612e1f565b61254e8183612d11565b6001600160a01b0385166000908152601360205260409020546125759060ff166001614271565b6001600160a01b0386166000908152601360205260408120805460ff191660ff9390931692909217909155600f8054916125ae836141e6565b9190505550505b50505050565b600b54600160a01b900460ff16156125d257600080fd5b600b546001600160a01b031633146125fc5760405162461bcd60e51b8152600401610b95906140c3565b610eac611995565b600b546001600160a01b0316331461262e5760405162461bcd60e51b8152600401610b95906140c3565b600e55565b600b546001600160a01b0316331461265d5760405162461bcd60e51b8152600401610b95906140c3565b6012805460ff191660ff92909216919091179055565b600b546001600160a01b0316331461269d5760405162461bcd60e51b8152600401610b95906140c3565b6017805460ff60b01b198116600160b01b9182900460ff1615909102179055565b606060088054610bce906140f8565b6127176040518060e00160405280600081526020016000815260200160008152602001600081526020016000815260200160008152602001600067ffffffffffffffff1681525090565b600d6127246001846141a3565b81548110612734576127346141ba565b60009182526020918290206040805160e0810182526007909302909101805483526001810154938301939093526002830154908201526003820154606082015260048201546080820152600582015460a082015260069091015467ffffffffffffffff1660c082015292915050565b6001600160a01b0382163314156127fc5760405162461bcd60e51b815260206004820152601960248201527f4552433732313a20617070726f766520746f2063616c6c6572000000000000006044820152606401610b95565b3360008181526006602090815260408083206001600160a01b03871680855290835292819020805460ff191686151590811790915590519081529192917f17307eab39ab6107e8899845ad3d59bd9653f200f220920489ca2b5937696c31910160405180910390a35050565b600b546001600160a01b031633146128925760405162461bcd60e51b8152600401610b95906140c3565b6017805460ff60a81b198116600160a81b9182900460ff1615909102179055565b600b546001600160a01b031633146128dd5760405162461bcd60e51b8152600401610b95906140c3565b6017805460ff60a01b198116600160a01b9182900460ff1615909102179055565b600b546001600160a01b031633146129285760405162461bcd60e51b8152600401610b95906140c3565b601880546001600160a01b0319166001600160a01b0392909216919091179055565b61295433836130cf565b6129705760405162461bcd60e51b8152600401610b9590614296565b6125b5848484846131b9565b600b546001600160a01b031633146129a65760405162461bcd60e51b8152600401610b95906140c3565b601055565b60606129b682612c19565b612a1a5760405162461bcd60e51b815260206004820152602f60248201527f4552433732314d657461646174613a2055524920717565727920666f72206e6f60448201526e3732bc34b9ba32b73a103a37b5b2b760891b6064820152608401610b95565b60008281526009602052604081208054612a33906140f8565b80601f0160208091040260200160405190810160405280929190818152602001828054612a5f906140f8565b8015612aac5780601f10612a8157610100808354040283529160200191612aac565b820191906000526020600020905b815481529060010190602001808311612a8f57829003601f168201915b50505050509050600a8054612ac0906140f8565b15159050612ace5792915050565b805115612b0057600a81604051602001612ae9929190614303565b604051602081830303815290604052915050919050565b600a612b0b846131ec565b604051602001612ae9929190614303565b600b546001600160a01b03163314612b465760405162461bcd60e51b8152600401610b95906140c3565b610eac81613303565b600b546001600160a01b03163314612b795760405162461bcd60e51b8152600401610b95906140c3565b6016805460ff60a01b198116600160a01b9182900460ff1615909102179055565b600b546000906001600160a01b03163314612bc75760405162461bcd60e51b8152600401610b95906140c3565b600b54600160a01b900460ff16612bdd57600080fd5b600b805460ff60a01b191690556040517f7805862f689e2f13df9f062ff482ad3ad112aca9e0847911ed832e158c525b3390600090a150600190565b600061198f6002836133c4565b600081815260056020526040902080546001600160a01b0319166001600160a01b0384169081179091558190612c5b82611ce6565b6001600160a01b03167f8c5be1e5ebec7d5bd14f71427d1e84f3dd0314c0f7b2291e5b200ac8c7c3b92560405160405180910390a45050565b6000612c9f82611ce6565b9050612cad816000846133d0565b612cb8600083612c26565b6001600160a01b0381166000908152600160205260409020612cda90836133e7565b50612ce66002836133f3565b5060405182906000906001600160a01b03841690600080516020614551833981519152908390a45050565b612d1a82612c19565b612d7b5760405162461bcd60e51b815260206004820152602c60248201527f4552433732314d657461646174613a2055524920736574206f66206e6f6e657860448201526b34b9ba32b73a103a37b5b2b760a11b6064820152608401610b95565b60008281526009602090815260409091208251610dea92840190613b64565b600061198f826133ff565b612daf33826130cf565b612dcb5760405162461bcd60e51b8152600401610b9590614296565b610dea83838361340a565b600061198f825490565b600061198c8383613584565b6000808080612dfb86866135ae565b9097909650945050505050565b6000612e158484846135d9565b90505b9392505050565b6001600160a01b038216612e755760405162461bcd60e51b815260206004820181905260248201527f4552433732313a206d696e7420746f20746865207a65726f20616464726573736044820152606401610b95565b612e7e81612c19565b15612ecb5760405162461bcd60e51b815260206004820152601c60248201527f4552433732313a20746f6b656e20616c7265616479206d696e746564000000006044820152606401610b95565b6040805160e08101825282815260006020808301828152838501838152606085018481526080860185815260a087018681524267ffffffffffffffff90811660c08a01908152600d8054600181018255908a528a517fd7b6990105719101dabeb77144f2a3385c8033acd3af97e9423a695e81ad1eb560079092029182015596517fd7b6990105719101dabeb77144f2a3385c8033acd3af97e9423a695e81ad1eb688015594517fd7b6990105719101dabeb77144f2a3385c8033acd3af97e9423a695e81ad1eb787015592517fd7b6990105719101dabeb77144f2a3385c8033acd3af97e9423a695e81ad1eb886015590517fd7b6990105719101dabeb77144f2a3385c8033acd3af97e9423a695e81ad1eb9850155517fd7b6990105719101dabeb77144f2a3385c8033acd3af97e9423a695e81ad1eba84015590517fd7b6990105719101dabeb77144f2a3385c8033acd3af97e9423a695e81ad1ebb909201805467ffffffffffffffff191692909116919091179055835190810190935282529061305c908490849061361c565b604080516001600160a01b038516815260208101849052428183015290517f393ccba6479926a7c4a6471a3b4584229e2df48a1858c8caf57680927dced5ff9181900360600190a160405182906001600160a01b03851690600090600080516020614551833981519152908290a4505050565b60006130da82612c19565b61313b5760405162461bcd60e51b815260206004820152602c60248201527f4552433732313a206f70657261746f7220717565727920666f72206e6f6e657860448201526b34b9ba32b73a103a37b5b2b760a11b6064820152608401610b95565b600061314683611ce6565b9050806001600160a01b0316846001600160a01b031614806131815750836001600160a01b031661317684610c51565b6001600160a01b0316145b806131b157506001600160a01b0380821660009081526006602090815260408083209388168352929052205460ff165b949350505050565b6131c484848461340a565b6131d08484848461364f565b6125b55760405162461bcd60e51b8152600401610b95906143aa565b6060816132105750506040805180820190915260018152600360fc1b602082015290565b8160005b811561323a5780613224816141e6565b91506132339050600a83614412565b9150613214565b60008167ffffffffffffffff81111561325557613255613cfa565b6040519080825280601f01601f19166020018201604052801561327f576020820181803683370190505b509050600061328f6001846141a3565b90508593505b83156132fa576132a6600a85614426565b6132b190603061443a565b60f81b82826132bf81614452565b9350815181106132d1576132d16141ba565b60200101906001600160f81b031916908160001a9053506132f3600a85614412565b9350613295565b50949350505050565b6001600160a01b0381166133685760405162461bcd60e51b815260206004820152602660248201527f4f776e61626c653a206e6577206f776e657220697320746865207a65726f206160448201526564647265737360d01b6064820152608401610b95565b600b546040516001600160a01b038084169216907f8be0079c531659141344cd1fd0a4f28419497f9722a3daafe3b4186f6b6457e090600090a3600b80546001600160a01b0319166001600160a01b0392909216919091179055565b600061198c8383613720565b600b54600160a01b900460ff1615610dea57600080fd5b600061198c838361372c565b600061198c838361381f565b600061198f82612dd6565b826001600160a01b031661341d82611ce6565b6001600160a01b0316146134855760405162461bcd60e51b815260206004820152602960248201527f4552433732313a207472616e73666572206f6620746f6b656e2074686174206960448201526839903737ba1037bbb760b91b6064820152608401610b95565b6001600160a01b0382166134e75760405162461bcd60e51b8152602060048201526024808201527f4552433732313a207472616e7366657220746f20746865207a65726f206164646044820152637265737360e01b6064820152608401610b95565b6134f28383836133d0565b6134fd600082612c26565b6001600160a01b038316600090815260016020526040902061351f90826133e7565b506001600160a01b0382166000908152600160205260409020613542908261383c565b5061354f60028284613848565b5080826001600160a01b0316846001600160a01b031660008051602061455183398151915260405160405180910390a4505050565b600082600001828154811061359b5761359b6141ba565b9060005260206000200154905092915050565b600080806135bc8585612de0565b600081815260029690960160205260409095205494959350505050565b6000828152600284016020526040812054801515806135fd57506135fd8585613720565b83906132fa5760405162461bcd60e51b8152600401610b959190613c88565b613626838361385e565b613633600084848461364f565b610dea5760405162461bcd60e51b8152600401610b95906143aa565b60006001600160a01b0384163b613668575060016131b1565b60006136e9630a85bd0160e11b3388878760405160240161368c9493929190614469565b604051602081830303815290604052906001600160e01b0319166020820180516001600160e01b0383818316178352505050506040518060600160405280603281526020016144f6603291396001600160a01b0388169190613970565b905060008180602001905181019061370191906144a6565b6001600160e01b031916630a85bd0160e11b1492505050949350505050565b600061198c838361397f565b600081815260018301602052604081205480156138155760006137506001836141a3565b8554909150600090613764906001906141a3565b90508181146137c9576000866000018281548110613784576137846141ba565b90600052602060002001549050808760000184815481106137a7576137a76141ba565b6000918252602080832090910192909255918252600188019052604090208390555b85548690806137da576137da6144c3565b60019003818190600052602060002001600090559055856001016000868152602001908152602001600020600090556001935050505061198f565b600091505061198f565b6000818152600283016020526040812081905561198c83836133e7565b600061198c8383613997565b6000612e1584846001600160a01b0385166139e6565b6001600160a01b0382166138b45760405162461bcd60e51b815260206004820181905260248201527f4552433732313a206d696e7420746f20746865207a65726f20616464726573736044820152606401610b95565b6138bd81612c19565b1561390a5760405162461bcd60e51b815260206004820152601c60248201527f4552433732313a20746f6b656e20616c7265616479206d696e746564000000006044820152606401610b95565b613916600083836133d0565b6001600160a01b0382166000908152600160205260409020613938908261383c565b5061394560028284613848565b5060405181906001600160a01b03841690600090600080516020614551833981519152908290a45050565b6060612e158484600085613a03565b6000818152600183016020526040812054151561198c565b60008181526001830160205260408120546139de5750815460018181018455600084815260208082209093018490558454848252828601909352604090209190915561198f565b50600061198f565b60008281526002840160205260408120829055612e15848461383c565b606082471015613a645760405162461bcd60e51b815260206004820152602660248201527f416464726573733a20696e73756666696369656e742062616c616e636520666f6044820152651c8818d85b1b60d21b6064820152608401610b95565b843b613ab25760405162461bcd60e51b815260206004820152601d60248201527f416464726573733a2063616c6c20746f206e6f6e2d636f6e74726163740000006044820152606401610b95565b600080866001600160a01b03168587604051613ace91906144d9565b60006040518083038185875af1925050503d8060008114613b0b576040519150601f19603f3d011682016040523d82523d6000602084013e613b10565b606091505b5091509150613b20828286613b2b565b979650505050505050565b60608315613b3a575081612e18565b825115613b4a5782518084602001fd5b8160405162461bcd60e51b8152600401610b959190613c88565b828054613b70906140f8565b90600052602060002090601f016020900481019282613b925760008555613bd8565b82601f10613bab57805160ff1916838001178555613bd8565b82800160010185558215613bd8579182015b82811115613bd8578251825591602001919060010190613bbd565b50613be4929150613be8565b5090565b5b80821115613be45760008155600101613be9565b6001600160e01b031981168114610eac57600080fd5b600060208284031215613c2557600080fd5b8135612e1881613bfd565b60005b83811015613c4b578181015183820152602001613c33565b838111156125b55750506000910152565b60008151808452613c74816020860160208601613c30565b601f01601f19169290920160200192915050565b60208152600061198c6020830184613c5c565b600060208284031215613cad57600080fd5b5035919050565b80356001600160a01b0381168114613ccb57600080fd5b919050565b60008060408385031215613ce357600080fd5b613cec83613cb4565b946020939093013593505050565b634e487b7160e01b600052604160045260246000fd5b600067ffffffffffffffff80841115613d2b57613d2b613cfa565b604051601f8501601f19908116603f01168101908282118183101715613d5357613d53613cfa565b81604052809350858152868686011115613d6c57600080fd5b858560208301376000602087830101525050509392505050565b600082601f830112613d9757600080fd5b61198c83833560208501613d10565b60008060408385031215613db957600080fd5b82359150602083013567ffffffffffffffff811115613dd757600080fd5b613de385828601613d86565b9150509250929050565b803560ff81168114613ccb57600080fd5b600080600080600060a08688031215613e1657600080fd5b613e1f86613cb4565b94506020860135935060408601359250613e3b60608701613ded565b949793965091946080013592915050565b600080600060608486031215613e6157600080fd5b613e6a84613cb4565b9250613e7860208501613cb4565b9150604084013590509250925092565b600060208284031215613e9a57600080fd5b61198c82613cb4565b600081518084526020808501945080840160005b83811015613ed357815187529582019590820190600101613eb7565b509495945050505050565b60208152600061198c6020830184613ea3565b60008060408385031215613f0457600080fd5b50508035926020909101359150565b8015158114610eac57600080fd5b60008060408385031215613f3457600080fd5b613f3d83613cb4565b91506020830135613f4d81613f13565b809150509250929050565b600080600060608486031215613f6d57600080fd5b613f7684613cb4565b9250613f8460208501613ded565b9150613f9260408501613ded565b90509250925092565b60008060008060808587031215613fb157600080fd5b613fba85613cb4565b9350602085013592506040850135613fd181613f13565b9150606085013567ffffffffffffffff811115613fed57600080fd5b613ff987828801613d86565b91505092959194509250565b60006020828403121561401757600080fd5b61198c82613ded565b6000806000806080858703121561403657600080fd5b61403f85613cb4565b935061404d60208601613cb4565b925060408501359150606085013567ffffffffffffffff81111561407057600080fd5b8501601f8101871361408157600080fd5b613ff987823560208401613d10565b600080604083850312156140a357600080fd5b6140ac83613cb4565b91506140ba60208401613cb4565b90509250929050565b6020808252818101527f4f776e61626c653a2063616c6c6572206973206e6f7420746865206f776e6572604082015260600190565b600181811c9082168061410c57607f821691505b6020821081141561412d57634e487b7160e01b600052602260045260246000fd5b50919050565b60006020828403121561414557600080fd5b5051919050565b6001600160a01b039384168152919092166020820152604081019190915260600190565b60006020828403121561418257600080fd5b8151612e1881613f13565b634e487b7160e01b600052601160045260246000fd5b6000828210156141b5576141b561418d565b500390565b634e487b7160e01b600052603260045260246000fd5b634e487b7160e01b600052602160045260246000fd5b60006000198214156141fa576141fa61418d565b5060010190565b6020808252601490820152731c9bd89bdd08199858dd1bdc9e4818db1bdcd95960621b604082015260600190565b6001600160a01b038616815260a06020820181905260009061425390830187613ea3565b60ff9586166040840152939094166060820152608001529392505050565b600060ff821660ff84168060ff0382111561428e5761428e61418d565b019392505050565b60208082526031908201527f4552433732313a207472616e736665722063616c6c6572206973206e6f74206f6040820152701ddb995c881b9bdc88185c1c1c9bdd9959607a1b606082015260800190565b600081516142f9818560208601613c30565b9290920192915050565b600080845481600182811c91508083168061431f57607f831692505b602080841082141561433f57634e487b7160e01b86526022600452602486fd5b818015614353576001811461436457614391565b60ff19861689528489019650614391565b60008b81526020902060005b868110156143895781548b820152908501908301614370565b505084890196505b5050505050506143a181856142e7565b95945050505050565b60208082526032908201527f4552433732313a207472616e7366657220746f206e6f6e20455243373231526560408201527131b2b4bb32b91034b6b83632b6b2b73a32b960711b606082015260800190565b634e487b7160e01b600052601260045260246000fd5b600082614421576144216143fc565b500490565b600082614435576144356143fc565b500690565b6000821982111561444d5761444d61418d565b500190565b6000816144615761446161418d565b506000190190565b6001600160a01b038581168252841660208201526040810183905260806060820181905260009061449c90830184613c5c565b9695505050505050565b6000602082840312156144b857600080fd5b8151612e1881613bfd565b634e487b7160e01b600052603160045260246000fd5b600082516144eb818460208701613c30565b919091019291505056fe4552433732313a207472616e7366657220746f206e6f6e20455243373231526563656976657220696d706c656d656e7465724552433732313a206f776e657220717565727920666f72206e6f6e6578697374656e7420746f6b656eddf252ad1be2c89b69c2b068fc378daa952ba7f163c4a11628f55a4df523b3efa26469706673582212209b018c379c8a1fea4cb3cf1bb77bbbf62ce2e8e56ec197f93f00cd4f77e09e2b64736f6c634300080a0033",
  "immutableReferences": {},
  "source": "// SPDX-License-Identifier: MIT\r\npragma solidity ^0.8.2;\r\n\r\nimport \"./IBEP20.sol\";\r\nimport \"./IMarketplace.sol\";\r\nimport \"./SafeMath.sol\";\r\nimport \"./Ownable.sol\";\r\nimport \"./ERC721.sol\";\r\nimport \"./ERC721Pausable.sol\";\r\nimport \"./EnumerableSet.sol\";\r\nimport \"./EnumerableMap.sol\";\r\nimport \"./IRobotCore.sol\";\r\nimport \"./ReentrancyGuard.sol\";\r\n\r\ncontract RobotCore is Ownable, ERC721Pausable, IRobotCore, ReentrancyGuard {\r\n    using SafeMath for uint256;\r\n    using EnumerableSet for EnumerableSet.UintSet;\r\n    using EnumerableMap for EnumerableMap.UintToAddressMap;\r\n\r\n    struct Robot {\r\n        uint256 robotId; // id of the robot\r\n        uint256 head;\r\n        uint256 larm;\r\n        uint256 rarm;\r\n        uint256 legs;\r\n        uint256 chest;\r\n        uint64 birthTime; // The timestamp from the block when this Robot came into existence.\r\n    }\r\n\r\n    enum Rarity {\r\n        E,\r\n        D,\r\n        C,\r\n        B,\r\n        A,\r\n        S\r\n    }\r\n\r\n    enum PieceType {\r\n        Head,\r\n        LArm,\r\n        RArm,\r\n        Legs,\r\n        Chest\r\n    }\r\n\r\n    enum RobotType {\r\n        Tank,\r\n        Stealth,\r\n        Basic\r\n    }\r\n\r\n    enum PackageType {\r\n        Default,\r\n        First,\r\n        Second,\r\n        Third,\r\n        Fourth,\r\n        Fifth,\r\n        Sixth\r\n    }\r\n\r\n    /*** STORAGE ***/\r\n    /// @dev An array containing the Robot struct for all robots in existence. The ID\r\n    ///  of each Robot is actually an index into this array.\r\n    Robot[] robots;\r\n\r\n    event MintedRobotFromBundle(\r\n        address from,\r\n        uint256[] robotIds,\r\n        uint8 packageType,\r\n        uint8 gen,\r\n        uint256 date\r\n    );\r\n\r\n    uint256 bnbFee = 0.005 * 10**18;\r\n    uint256 private nextRobotTokenId = 1;\r\n    uint256 robotPrice = 60 * 10**18; // to review\r\n    uint256 attachPrice = 5 * 10**18;\r\n    uint8 private totalPackagesOwner = 5;\r\n\r\n    mapping(address => uint8) walletPackages;\r\n    mapping(address => bool) private banBlackList;\r\n\r\n    mapping(address => bool) private _walletBoughtWithOre;\r\n\r\n    /* SETTABLE VARIABLES */\r\n    address public _mekaDeployerAddress;\r\n    bool public _mekaDeployerEnabled;\r\n    address public _robotPackageAddress;\r\n    bool public isBurn;\r\n    bool public canReplacePiece;\r\n    bool public acceptContracts;\r\n    bool public isRobotFactoryOpen;\r\n    address public _marketplaceAddr;\r\n    address public _mekaAddress;\r\n\r\n    constructor(address _mekaToken) ERC721(\"Mekabot\", \"Mekabot\") {\r\n        isBurn = true;\r\n        _mekaAddress = _mekaToken;\r\n        isRobotFactoryOpen = true;\r\n        _mekaDeployerEnabled = true;\r\n    }\r\n\r\n    function updateAcceptContract() external onlyOwner {\r\n        acceptContracts = !acceptContracts;\r\n    }\r\n\r\n    function updateCanReplacePiece() external onlyOwner {\r\n        canReplacePiece = !canReplacePiece;\r\n    }\r\n\r\n    function isBlacklisted(address addr) external view returns (bool) {\r\n        return banBlackList[addr];\r\n    }\r\n\r\n    function setBlackList(address wallet, bool isBlackListed)\r\n        external\r\n        onlyOwner\r\n    {\r\n        banBlackList[wallet] = isBlackListed;\r\n    }\r\n\r\n    function setPackageLimit(uint8 limit) external onlyOwner {\r\n        totalPackagesOwner = limit;\r\n    }\r\n\r\n    function setBnbFee(uint256 fee) external onlyOwner {\r\n        bnbFee = fee;\r\n    }\r\n\r\n    function setMarketplaceAddress(address _address) external onlyOwner {\r\n        _marketplaceAddr = _address;\r\n    }\r\n\r\n    function setRobotPackageAddress(address _address) external onlyOwner {\r\n        _robotPackageAddress = _address;\r\n    }\r\n\r\n    function setMekaDeployerAddress(address _mekaDeployAddr)\r\n        external\r\n        onlyOwner\r\n    {\r\n        _mekaDeployerAddress = _mekaDeployAddr;\r\n    }\r\n\r\n    function setRobotPrice(uint256 _price) external onlyOwner {\r\n        robotPrice = _price;\r\n    }\r\n\r\n    function setTokenAddress(address _addr) external onlyOwner {\r\n        _mekaAddress = _addr;\r\n    }\r\n\r\n    function setTokenURI(uint256 tokenId, string memory _tokenURI) external {\r\n        require(ownerOf(tokenId) == msg.sender, \"not owner\");\r\n        _setTokenURI(tokenId, _tokenURI);\r\n    }\r\n\r\n    function updateMekaDeployerEnabled() external onlyOwner {\r\n        _mekaDeployerEnabled = !_mekaDeployerEnabled;\r\n    }\r\n\r\n    function updateIsBurn() external onlyOwner {\r\n        isBurn = !isBurn;\r\n    }\r\n\r\n    function updateRobotFactory() external onlyOwner {\r\n        isRobotFactoryOpen = !isRobotFactoryOpen;\r\n    }\r\n\r\n    modifier onlyBundle() {\r\n        require(msg.sender == _robotPackageAddress, \"not bundle\");\r\n        _;\r\n    }\r\n\r\n    modifier robotFactory() {\r\n        require(isRobotFactoryOpen, \"robot factory closed\");\r\n        _;\r\n    }\r\n\r\n    modifier onlyMekaDeploy() {\r\n        if (_mekaDeployerEnabled) {\r\n            require(msg.sender == _mekaDeployerAddress, \"not mekadeploy\");\r\n            _;\r\n        } else {\r\n            _;\r\n        }\r\n    }\r\n\r\n    function withdrawBalance() external onlyOwner {\r\n        IBEP20(_mekaAddress).transfer(owner(), getBalance());\r\n    }\r\n\r\n    function withdrawBnb() external onlyOwner {\r\n        uint256 amount = address(this).balance;\r\n\r\n        (bool success, ) = payable(owner()).call{value: amount}(\"\");\r\n        require(success, \"Failed to send Ether\");\r\n    }\r\n\r\n    function _mintRobot(address to, uint256 tokenId) private {\r\n        require(to != address(0), \"ERC721: mint to the zero address\");\r\n        require(!_exists(tokenId), \"ERC721: token already minted\");\r\n\r\n        Robot memory _robot = Robot({\r\n            robotId: tokenId,\r\n            head: 0,\r\n            larm: 0,\r\n            rarm: 0,\r\n            legs: 0,\r\n            chest: 0,\r\n            birthTime: uint64(block.timestamp)\r\n        });\r\n\r\n        robots.push(_robot);\r\n\r\n        _safeMint(to, tokenId, \"\");\r\n\r\n        emit Birth(to, tokenId, block.timestamp);\r\n\r\n        emit Transfer(address(0), to, tokenId);\r\n    }\r\n\r\n    function attachPiece(\r\n        address _owner,\r\n        uint256 _robotId,\r\n        uint256 _pieceId,\r\n        uint8 _pieceType,\r\n        uint256 _amount\r\n    ) external onlyMekaDeploy {\r\n        require(_amount >= attachPrice, \"amount too low\");\r\n        require(tx.origin == ownerOf(_robotId), \"not robot owner\");\r\n        require(\r\n            IBEP20(_mekaAddress).transferFrom(_owner, address(this), _amount)\r\n        );\r\n\r\n        Robot storage bot = robots[_robotId - 1];\r\n\r\n        if (PieceType(_pieceType) == PieceType.Head) {\r\n            bot.head = bot.head > 0 && canReplacePiece ? _pieceId : bot.head;\r\n        } else if (PieceType(_pieceType) == PieceType.Chest) {\r\n            bot.chest = bot.chest > 0 && canReplacePiece ? _pieceId : bot.chest;\r\n        } else if (PieceType(_pieceType) == PieceType.LArm) {\r\n            bot.larm = bot.larm > 0 && canReplacePiece ? _pieceId : bot.larm;\r\n        } else if (PieceType(_pieceType) == PieceType.RArm) {\r\n            bot.rarm = bot.rarm > 0 && canReplacePiece ? _pieceId : bot.rarm;\r\n        } else {\r\n            bot.legs = bot.legs > 0 && canReplacePiece ? _pieceId : bot.legs;\r\n        }\r\n    }\r\n\r\n    function createRobot(\r\n        address _owner,\r\n        uint256 _amount,\r\n        bool _withOre,\r\n        string memory _tokenURI\r\n    ) external onlyMekaDeploy robotFactory {\r\n        require(\r\n            walletPackages[_owner] < totalPackagesOwner,\r\n            \"wallet-package-limit\"\r\n        );\r\n        if (_withOre) {\r\n            require(_walletBoughtWithOre[_owner], \"not-available-with-ore\");\r\n            _walletBoughtWithOre[_owner] = true;\r\n        } else {\r\n            require(_amount >= robotPrice, \"INVALID AMOUNT\");\r\n            require(\r\n                IBEP20(_mekaAddress).transferFrom(\r\n                    _owner,\r\n                    address(this),\r\n                    _amount\r\n                )\r\n            );\r\n        }\r\n\r\n        uint256 tokenId = nextRobotTokenId;\r\n\r\n        _mintRobot(_owner, tokenId);\r\n        _setTokenURI(tokenId, _tokenURI);\r\n        walletPackages[_owner] = walletPackages[_owner] + 1;\r\n        nextRobotTokenId++;\r\n    }\r\n\r\n    function createSale(uint256 _tokenId, uint256 _startingPrice)\r\n        external\r\n        payable\r\n        whenNotPaused\r\n    {\r\n        require(msg.value >= bnbFee, \"not enough bnb\");\r\n        require(msg.sender == ownerOf(_tokenId), \"Not tokenId owner\");\r\n\r\n        _approve(_marketplaceAddr, _tokenId);\r\n        IMarketplace(_marketplaceAddr).createSale(\r\n            _tokenId,\r\n            0,\r\n            address(0),\r\n            _startingPrice,\r\n            msg.sender\r\n        );\r\n    }\r\n\r\n    function burnRobot(uint256 _tokenId) external {\r\n        require(isBurn == true, \"Burning is not allowed\");\r\n        require(msg.sender == ownerOf(_tokenId), \"Not tokenId owner\");\r\n\r\n        _burn(_tokenId); // burn token\r\n    }\r\n\r\n    /// @notice Returns all the relevant information about a specific Robot.\r\n    /// @param _id The ID of the Robot of interest.\r\n    function getRobot(uint256 _id) external view returns (Robot memory robot) {\r\n        return robots[_id - 1];\r\n    }\r\n\r\n    function getBalance() public view returns (uint256) {\r\n        return IBEP20(_mekaAddress).balanceOf(address(this));\r\n    }\r\n\r\n    function pause() public whenNotPaused onlyOwner {\r\n        _pause();\r\n    }\r\n\r\n    function unpause() public whenPaused onlyOwner {\r\n        _unpause();\r\n    }\r\n\r\n    function createRobotFromBundle(\r\n        address _owner,\r\n        uint8 packageType,\r\n        uint8 robotQuantity\r\n    ) external onlyBundle robotFactory {\r\n        PackageType pkgType = PackageType(packageType);\r\n        uint8 gen = 0;\r\n        uint256[] memory allTokens = new uint256[](robotQuantity);\r\n\r\n        if (\r\n            pkgType == PackageType.Fourth ||\r\n            pkgType == PackageType.Fifth ||\r\n            pkgType == PackageType.Sixth\r\n        ) {\r\n            gen = 1;\r\n        }\r\n\r\n        for (uint256 index = 0; index < robotQuantity; index++) {\r\n            allTokens[index] = nextRobotTokenId;\r\n            _mintRobot(_owner, nextRobotTokenId);\r\n            nextRobotTokenId++;\r\n        }\r\n\r\n        emit MintedRobotFromBundle(\r\n            _owner,\r\n            allTokens,\r\n            packageType,\r\n            gen,\r\n            block.timestamp\r\n        );\r\n    }\r\n\r\n    function transferFrom(\r\n        address from,\r\n        address to,\r\n        uint256 tokenId\r\n    ) public override {\r\n        if (isContract(to) && !acceptContracts) {\r\n            require(to == _marketplaceAddr, \"contract not accepted\");\r\n        }\r\n        require(!banBlackList[from], \"address blacklisted\");\r\n        require(!banBlackList[to], \"address blacklisted\");\r\n\r\n        super.transferFrom(from, to, tokenId);\r\n    }\r\n\r\n    /**\r\n     * @dev Identify an address is user address or contract address\r\n     */\r\n    function isContract(address _address) private view returns (bool) {\r\n        uint32 size;\r\n        assembly {\r\n            size := extcodesize(_address)\r\n        }\r\n        return (size > 0);\r\n    }\r\n}\r\n",
  "sourcePath": "E:\\MekaMiners\\contracts\\RobotCore.sol",
  "compiler": {
    "name": "solc",
    "version": "0.8.10+commit.fc410830.Emscripten.clang"
  },
  "schemaVersion": "3.4.3",
  "updatedAt": "2021-12-19T22:55:21.160Z",
  "networkType": "ethereum",
  "devdoc": {
    "kind": "dev",
    "methods": {
      "_pause()": {
        "details": "called by the owner to pause, triggers stopped state"
      },
      "_unpause()": {
        "details": "called by the owner to unpause, returns to normal state"
      },
      "approve(address,uint256)": {
        "details": "See {IERC721-approve}."
      },
      "balanceOf(address)": {
        "details": "See {IERC721-balanceOf}."
      },
      "baseURI()": {
        "details": "Returns the base URI set via {_setBaseURI}. This will be automatically added as a prefix in {tokenURI} to each token's URI, or to the token ID if no specific URI is set for that token ID."
      },
      "getApproved(uint256)": {
        "details": "See {IERC721-getApproved}."
      },
      "getRobot(uint256)": {
        "params": {
          "_id": "The ID of the Robot of interest."
        }
      },
      "isApprovedForAll(address,address)": {
        "details": "See {IERC721-isApprovedForAll}."
      },
      "isOwner()": {
        "details": "Returns true if the caller is the current owner."
      },
      "name()": {
        "details": "See {IERC721Metadata-name}."
      },
      "owner()": {
        "details": "Returns the address of the current owner."
      },
      "ownerOf(uint256)": {
        "details": "See {IERC721-ownerOf}."
      },
      "renounceOwnership()": {
        "details": "Leaves the contract without owner. It will not be possible to call `onlyOwner` functions anymore. Can only be called by the current owner. NOTE: Renouncing ownership will leave the contract without an owner, thereby removing any functionality that is only available to the owner."
      },
      "safeTransferFrom(address,address,uint256)": {
        "details": "See {IERC721-safeTransferFrom}."
      },
      "safeTransferFrom(address,address,uint256,bytes)": {
        "details": "See {IERC721-safeTransferFrom}."
      },
      "setApprovalForAll(address,bool)": {
        "details": "See {IERC721-setApprovalForAll}."
      },
      "supportsInterface(bytes4)": {
        "details": "See {IERC165-supportsInterface}. Time complexity O(1), guaranteed to always use less than 30 000 gas."
      },
      "symbol()": {
        "details": "See {IERC721Metadata-symbol}."
      },
      "tokenByIndex(uint256)": {
        "details": "See {IERC721Enumerable-tokenByIndex}."
      },
      "tokenOfOwner(address)": {
        "details": "See {IERC721Enumerable-tokenOfOwner}."
      },
      "tokenOfOwnerByIndex(address,uint256)": {
        "details": "See {IERC721Enumerable-tokenOfOwnerByIndex}."
      },
      "tokenURI(uint256)": {
        "details": "See {IERC721Metadata-tokenURI}."
      },
      "totalSupply()": {
        "details": "See {IERC721Enumerable-totalSupply}."
      },
      "transferFrom(address,address,uint256)": {
        "details": "See {IERC721-transferFrom}."
      },
      "transferOwnership(address)": {
        "details": "Transfers ownership of the contract to a new account (`newOwner`). Can only be called by the current owner."
      }
    },
    "stateVariables": {
      "robots": {
        "details": "An array containing the Robot struct for all robots in existence. The ID  of each Robot is actually an index into this array."
      }
    },
    "version": 1
  },
  "userdoc": {
    "kind": "user",
    "methods": {
      "getRobot(uint256)": {
        "notice": "Returns all the relevant information about a specific Robot."
      }
    },
    "version": 1
  }
}